:020000040000fa
:080000000001040000000000f3
:020000040000fa
:04000800ec03000005
:020000040000fa
:04000c0004020000ea
:020000040000fa
:04001000ec030000fd
:020000040000fa
:040014000e020000d8
:020000040000fa
:04001800ec030000f5
:020000040000fa
:04001c00ec030000f1
:020000040000fa
:04002000ec030000ed
:020000040000fa
:04002400ec030000e9
:020000040000fa
:04002800ec030000e5
:020000040000fa
:04002c00ec030000e1
:020000040000fa
:04003000ec030000dd
:020000040000fa
:04003400e85e000082
:020000040000fa
:04003800ec030000d5
:020000040000fa
:04003c00ec030000d1
:020000040000fa
:04004000ec030000cd
:020000040000fa
:04004400ec030000c9
:020000040000fa
:04004800ec030000c5
:020000040000fa
:04004c00ec030000c1
:020000040000fa
:04005000ec030000bd
:020000040000fa
:04005400ec030000b9
:020000040000fa
:04005800ec030000b5
:020000040000fa
:04005c00ec030000b1
:020000040000fa
:04006000ec030000ad
:020000040000fa
:04006400ec030000a9
:020000040000fa
:04006800ec030000a5
:020000040000fa
:04006c00ec030000a1
:020000040000fa
:04007000ec0300009d
:020000040000fa
:04007400ec03000099
:020000040000fa
:04007800ec03000095
:020000040000fa
:04007c00ec03000091
:020000040000fa
:04008000ec0300008d
:020000040000fa
:04008400ec03000089
:020000040000fa
:04008800ec03000085
:020000040000fa
:04008c00ec03000081
:020000040000fa
:04009000ec0300007d
:020000040000fa
:04009400ec03000079
:020000040000fa
:04009800ec03000075
:020000040000fa
:04009c00ec03000071
:020000040000fa
:0400a000ec0300006d
:020000040000fa
:0400a400ec03000069
:020000040000fa
:0400a800ec03000065
:020000040000fa
:0400ac00ec03000061
:020000040000fa
:0400b000ec0300005d
:020000040000fa
:0400b400ec03000059
:020000040000fa
:0400b800ec03000055
:020000040000fa
:0400bc00ec03000051
:020000040000fa
:0400c000ec0300004d
:020000040000fa
:0400c400ec03000049
:020000040000fa
:0400c800ec03000045
:020000040000fa
:0400cc00ec03000041
:020000040000fa
:0400d000ec0300003d
:020000040000fa
:0400d400ec03000039
:020000040000fa
:0400d800ec03000035
:020000040000fa
:0400dc00ec03000031
:020000040000fa
:0400e000ec0300002d
:020000040000fa
:0400e400ec03000029
:020000040000fa
:0400e800ec03000025
:020000040000fa
:0400ec00ec03000021
:020000040000fa
:0400f000ec0300001d
:020000040000fa
:0400f400ec03000019
:020000040000fa
:0400f800ec03000015
:020000040000fa
:0400fc00ec03000011
:020000040000fa
:04010000ec0300000c
:020000040000fa
:04010400ec03000008
:020000040000fa
:04010800ec03000004
:020000040000fa
:04010c00ec03000000
:020000040000fa
:04011000ec030000fc
:020000040000fa
:04011400ec030000f8
:020000040000fa
:04011800ec030000f4
:020000040000fa
:04011c00ec030000f0
:020000040000fa
:04012000ec030000ec
:020000040000fa
:04012400ec030000e8
:020000040000fa
:04012800ec030000e4
:020000040000fa
:04012c00ec030000e0
:020000040000fa
:04013000ec030000dc
:020000040000fa
:04013400ec030000d8
:020000040000fa
:04013800ec030000d4
:020000040000fa
:04013c00ec030000d0
:020000040000fa
:04014000ec030000cc
:020000040000fa
:04014400ec030000c8
:020000040000fa
:04014800ec030000c4
:020000040000fa
:04014c00ec030000c0
:020000040000fa
:04015000ec030000bc
:020000040000fa
:04015400ec030000b8
:020000040000fa
:04015800ec030000b4
:020000040000fa
:04015c00ec030000b0
:020000040000fa
:04016000ec030000ac
:020000040000fa
:04016400ec030000a8
:020000040000fa
:04016800ec030000a4
:020000040000fa
:04016c00ec030000a0
:020000040000fa
:04017000ec0300009c
:020000040000fa
:04017400ec03000098
:020000040000fa
:04017800ec03000094
:020000040000fa
:04017c00ec03000090
:020000040000fa
:04018000ec0300008c
:020000040000fa
:04018400ec03000088
:020000040000fa
:04018800ec03000084
:020000040000fa
:04018c00ec03000080
:020000040000fa
:04019000ec0300007c
:020000040000fa
:04019400ec03000078
:020000040000fa
:04019800ec03000074
:020000040000fa
:04019c00ec03000070
:020000040000fa
:0401a000ec0300006c
:020000040000fa
:0401a400ec03000068
:020000040000fa
:0401a800ec03000064
:020000040000fa
:0401ac00ec03000060
:020000040000fa
:0401b000ec0300005c
:020000040000fa
:0401b400ec03000058
:020000040000fa
:0401b800ec03000054
:020000040000fa
:0401bc00ec03000050
:020000040000fa
:0401c000ec0300004c
:020000040000fa
:0401c400ec03000048
:020000040000fa
:0401c800ec03000044
:020000040000fa
:0401cc00ec03000040
:020000040000fa
:0401d000ec0300003c
:020000040000fa
:0401d400ec03000038
:020000040000fa
:0401d800ec03000034
:020000040000fa
:0401dc00ec03000030
:020000040000fa
:0401e000ec0300002c
:020000040000fa
:0401e400ec03000028
:020000040000fa
:0401e800ec03000024
:020000040000fa
:0401ec00ec03000020
:020000040000fa
:0401f000ec0300001c
:020000040000fa
:0401f400ec03000018
:020000040000fa
:0401f800ec03000014
:020000040000fa
:0401fc00ec03000010
:020000040000fa
:100200002fb620000e7f24000e01880000000000a1
:10021000000020000000e000020032000001200089
:1002200020028800140007006d0107000000e000b4
:1002300003003a00000526000100200002003700fc
:100240000000200001002000810f7000010032003a
:1002500014000700000020000000e000020032004f
:100260000000020000000000180202000000000070
:100270000040da000000fe004440a900a02f20004a
:100280000000e00003003200002020009001880000
:100290004440a800000006008a1f78008b1f7800e9
:1002a00000000600a1028800800478000000eb0036
:1002b0001f003700e284440054a0b4009905ba003e
:1002c000e284440054a0b4009906ba00e2844400d9
:1002d00054a0b4000006eb00476fde00fd07b2003b
:1002e000ae018800636ce10003003a00eaff0700fa
:1002f0000000eb000e003700606ce10008003a00df
:10030000004deb000a05e800020039003420ec0043
:100310000af0a0008b05e900f9ff3e000400370059
:100320006168e100010032000086eb000b0007006d
:1003300019c7ba001905ba000e04e00003003a001c
:100340000a00e000dbff3a0000000600fe07b200f2
:10035000ae0288008a047800f5ff37000cd0a300b5
:10036000e20f4d001c00390089027800354dba00bb
:100370000a05e800020039003420ec000af0a00071
:100380008b05e9000f003200254dba000a05e80090
:10039000020039003420ec000af0a0008b05e900cf
:1003a000080032000c00e0000600320015cdba0053
:1003b0000a05e800020039003420ec000af0a00031
:1003c0008b05e9008984e80054a0b4000b00e0002c
:1003d000e2ff3a00000006009902ba00055d7800cd
:1003e0008b05e900f7ff3200c82ade00055d7800c2
:1003f0008b05e900f3ff32000c00e000f1ff320052
:1004000019ddba00eeff37000000fa00000000001e
:10041000000000000080fa00004006000000fa0022
:1004200000000000000000000080fa00004006000c
:100430000000fa0065000700ae5d02000000000049
:10044000aa000700e456020000000000d05a020093
:10045000000000000100370000000000fa5a02000e
:1004600000000000425c020000000000005f02008b
:1004700000000000b04f020000000000390007003b
:100480000057800011578000d2408000e340800078
:10049000820f5000838f5800efff3200005780001a
:1004a00011578000d0408800e14088000094280067
:1004b0009a5c020000000000005780001157800085
:1004c00004000700309528009a5c0200000000003c
:1004d000e2ff37000a00fa00300798004107980051
:1004e0000040eb00004f7800170037001e80fb0033
:1004f000e600470000804000104078000080fb00cc
:100500008e00e800b84b0200000000000e00e8007a
:100510009a5c0200000000001e407800e34f50008b
:100520000d00320000000000645d020000000000c9
:100530000004e000fcff3a00e0022000925d0200af
:10054000000000001e4fe8001e407800e34f5000fe
:10055000e6ff360001003700000000000080fa00ce
:10056000000006000000fa009038800031b1200041
:10057000b84b020000000000a0388000b1b120009c
:10058000b84b0200000000009038800080558800c1
:10059000a03880009055880080558000c800dd009c
:1005a0004800de0000807000805588009055800073
:1005b000c800dd004800de00008070009055880013
:1005c000000000000080fa00000006000000fa00b1
:1005d00011088000f08f2f00008060001008880054
:1005e0006a26ef007e26ef00404e2800303a880051
:1005f00040402000403a880030002100503a8800f6
:1006000000032000803a88007666a9007606a800dc
:1006100000002800701d880000402000801d880018
:1006200090012000b01d88007ac6a80076c6a900f7
:1006300001088000f00b20000081600060042000b1
:10064000710520000310200080497800814978005e
:1006500082497800a13e800000f82f0000806000f1
:100660000030a000a03e8800113f8000f00f28005d
:10067000808060000070200001007000103f880042
:10068000c13d800000fc2f00008060007001b300bd
:10069000c03d8800b13d800000fc2f00008060005c
:1006a000a000b300b03d8800213f8000f00f28007b
:1006b000808060000050200001007000203f880012
:1006c00000088000000178000260a00060042000a3
:1006d00071052000031020008049780081497800ce
:1006e000824978000080fa00000006000000fa004d
:1006f000320320008000eb0000ae20004206020022
:1007000000000000605880000060a0006058880071
:10071000605880000070a0006058880062002000cf
:1007200061952800d0b020003406020000000000cf
:1007300090ea2f0011102000005788001157880000
:100740000057800011578000a0578800b1578800db
:10075000f0ff2f000100200020578800315788004b
:100760002057800031578000c0578800d15788003b
:1007700090ea2f0011102000405788005157880040
:1007800090ea2f00111020006057880071578800f0
:100790006000b8008057880091578800020120004f
:1007a000c1952800c0af2000340602000000000000
:1007b000c0af2000a84e020000000000310320005e
:1007c00000ae2000ea4d020000000000c04088009a
:1007d0000080fa00000006000040da000000fe0081
:1007e00000000500889fbe008a9fbe0030044200c2
:1007f000b0844a0030054b0090854b006000b1008a
:100800000898be000a90be000440e10005c8e1005f
:1008100006d0e10007d8e100020031006800400086
:100820001008e8004f05be004f04be00000006009f
:10083000889fbe008a9fbe003004be002005be0017
:100840000418540005985c0006185d0007985d00c8
:10085000110020000440e10005c8e10006d0e100dd
:1008600007d8e100010039008000eb00108810007b
:100870004f05be004f04be00000006001200fa0043
:10088000889fbe008a9fbe008c9fbe00e0b79f007d
:10089000f1b79f0082bf9f0093bf9f000605be0077
:1008a0000404be000000eb00d0b79f00c0b79f005b
:1008b000b0b79f00a0b79f0090b79f000006eb0065
:1008c0005fb19700cfb09700820141003fb0970021
:1008d0000200e00004003d00370007007e80570062
:1008e000c0ff070003003700330007007e80570079
:1008f000cfff0700dfb697000d00e0000c003500c9
:100900006fb29700ffb297000fbb97009fbb970095
:1009100010002000010020006011b80000027200e9
:100920008182720002037300838373001b0007003f
:100930000c06e80001042000810f5600e0ff3a0099
:100940000d00e00004003d000802be000a03be00e6
:100950007e805700a3ff07005fa897000000e0001b
:1009600005003a001fb29700afb297003fb397005f
:10097000cfb39700090007006fb09700ffb0970052
:100980000fb997009fb997004f06be004f05be00f4
:100990004f04be000080fa000000060001000700be
:1009a00000000600a4b79f00b5b79f00c6b79f0020
:1009b000d7b79f00000006004f09de00828171005a
:1009c000b3b79f004f01de0081804000828070003d
:1009d000a1b79f008fb097004f09de0000004000d4
:1009e0000200700090b79f007fa897004f01de00c3
:1009f000818040008280700081b79f000d00070059
:100a00004f3ade000000400004007000f0af9f008d
:100a1000080007000402420085824a0006034b00da
:100a200087834b00dfff07000802be000a03be00f9
:100a3000000006002fb29700bfb297004fb3970097
:100a4000dfb3970000000600881f78001800200020
:100a5000881f780089ff07008f87e9004f0478001e
:100a600000000600801feb0084ff07008f87e9006d
:100a700000000600889fbe008a9fbe00e00f500065
:100a8000e08f5800e00f5900e08f59000c003d0046
:100a90006044b8006055b8000000540081805c00dc
:100aa00002015d0083815d00180020001500070031
:100ab00008003d00180007000004eb0005003700a7
:100ac0000004eb000f00070002003d0012000700c9
:100ad00018002000dcff07000800e00006003200dc
:100ae0006022b8006033b8000000520081805a00d4
:100af00002015b0083815b004f05be004f04be0016
:100b000000000600e00f5200e08f5a00e00f5b008b
:100b1000e08f5b00000006006044b8006055b8003c
:100b20000402540085825c0006035d0087835d003b
:100b300000000600889fbe008a9fbe008c1f7800c0
:100b4000e00f5000e08f5800e00f5900e08f59008f
:100b50000d003d006044b8006055b800000054002e
:100b600081805c0002015d0083815d001c0020002b
:100b70000820e10009a8e1000ab0e1000bb8e1009b
:100b80000d003d00080037000006eb00e00f5200aa
:100b9000e08f5a00e00f5b00e08f5b0006003d0035
:100ba0006044b8006055b8000402540085825c00bf
:100bb00006035d0087835d00aaff07000c00e000cc
:100bc000060032006022b8006033b8000000520016
:100bd00081805a0002015b0083815b004f06780030
:100be0004f05be004f04be000000060080007800e4
:100bf000010078003041780003c2b300834f5100f8
:100c0000faff3200e94f5100f8ff3200edc1410018
:100c1000834f510003003a008000780013c0b300f6
:100c2000050037008041eb00b4c2b300844f51008f
:100c300001003a00800078000000eb00020037005d
:100c40006a02b900040041003101fb000203b10057
:100c5000e90f5100faff36000304e0000100320002
:100c60000000ea0000000600800178000200370062
:100c7000b15978000201e9000200e000fcff3a00ef
:100c800000000600800178000200370081597800da
:100c90000201e9000200e000fcff3a00000006004b
:100ca000800078003104e000feff3a000080ea0096
:100cb0000080400000000600800178000600370038
:100cc0000201e900b14278008559780003027800fa
:100cd0000504e00006003200030278000200e00094
:100ce000f7ff3a0002003700005aeb000201e9006a
:0c0cf0000200e000fcff3a0000000600db
:020000040000fa
:100cfc000d0a00000d0a00000d4d00006963000094
:100d0c00726f0000636800006970000020540000de
:100d1c00435000002f49000050200000436f00009a
:100d2c006e660000696700002041000070700000d2
:100d3c006c69000063610000746900006f6e000054
:100d4c0020280000763500002e340000322c0000e4
:100d5c00204d00006172000020320000362000009f
:100d6c003230000031370000290d00000a0d000060
:100d7c000a000000093100003a200000436800001e
:100d8c00616e000067650000207300006572000052
:100d9c00696100006c2000006e7500006d6200003f
:100dac00657200003a090000090000000d0a0000fd
:100dbc00093200003a20000043680000616e000018
:100dcc0067650000206800006f730000742000004d
:100ddc006e6100006d6500003a0900000909000011
:100dec00000d00000a090000333a00002043000007
:100dfc00686100006e6700006520000073740000dd
:100e0c00617400006963000020490000502000005c
:100e1c00616400006472000065730000733a0000a6
:100e2c0009090000000d00000a090000343a000016
:100e3c0020430000686100006e6700006520000020
:100e4c007374000061740000696300002067000087
:100e5c00617400006577000061790000206100007a
:100e6c006464000072650000737300003a090000ae
:100e7c00000d00000a090000353a00002043000074
:100e8c00686100006e67000065200000737400004c
:100e9c00617400006963000020730000756200003b
:100eac006e650000742000006d610000736b000023
:100ebc003a090000090000000d0a00000936000084
:100ecc003a20000043680000616e00006765000076
:100edc00207300007461000074690000632000003e
:100eec0070720000696d00006172000079200000d2
:100efc00444e000053200000736500007276000021
:100f0c00657200003a090000000d00000a0900009b
:100f1c00373a000020430000686100006e67000053
:100f2c0065200000737400006174000069630000a8
:100f3c0020730000656300006f6e000064610000a8
:100f4c0072790000204400004e5300002073000012
:100f5c006572000076650000723a0000090000001e
:100f6c000d0a0000093800003a200000004400007f
:100f7c0069730000004500006e0000006162000013
:100f8c006c65000020440000484300005020000025
:100f9c002620000049500000204700006c6500002e
:100fac00616e0000696e0000673a000009090000dc
:100fbc0044480000435000002069000073200000ea
:100fcc006375000072720000656e0000746c0000a6
:100fdc0079200000006500006e610000626c00006a
:100fec006564000000640000697300006162000029
:100ffc006c650000640000000d0a00000939000057
:10100c003a200000446f0000776e00006c6f000007
:10101c0061640000204d0000504600005320000089
:10102c00696d000061670000652e0000000d000076
:10103c000a090000303a00002053000061760000dd
:10104c006520000026200000517500006974000026
:10105c002e0000000d0a0000456e000074650000b3
:10106c0072200000612000006d6500006e750000ac
:10107c0020630000686f000069630000653a00009f
:10108c00200000000d0a0000004e000065770000f3
:10109c002073000065740000746900006e67000026
:1010ac003a200000004900006e760000616c0000e0
:1010bc0069640000206900006e7000007574000007
:1010cc002e0d00000a000000457800007465000039
:1010dc00726e0000616c000020450000455000005d
:1010ec00524f00004d2f0000466c00006173000051
:1010fc00682000006e6f0000742000007072000009
:10110c0065730000656e0000742000002d2d00003a
:10111c002073000065740000746900006e670000a5
:10112c0073200000776900006c6c000020620000e6
:10113c00652000006c6f00007374000020610000db
:10114c00742000007265000073650000742e0000ae
:10115c000d0a0000000000002f7300006561000004
:10116c0072630000683f0000617300005f71000053
:10117c003d4d000069630000726f00006368000061
:10118c006970000026610000735f00007369000045
:10119c0074650000736500006172000063680000f4
:1011ac003d6d000069630000726f00006368000011
:1011bc00697000002e6300006f6d0000000d0000d0
:1011cc000a0d00000a4300006f6e00006e650000ff
:1011dc0063740000696e00006720000075730000e6
:1011ec00696e0000672000004d690000637200000a
:1011fc006f63000068690000702000005443000019
:10120c005020000041500000492e00002e2e0000fe
:10121c000d0a0000004700004554000020000000ab
:10122c002048000054540000502f0000312e0000c4
:10123c00300d00000a4800006f730000743a000083
:10124c00200000000d0a0000436f00006e6e0000cd
:10125c0065630000746900006f6e00003a200000a6
:10126c00636c00006f730000650d00000a0d000038
:10127c000a0000000d0a00004e65000077200000f7
:10128c0049500000204100006464000072650000b9
:10129c00737300003a200000000d00000a000000eb
:1012ac0000040000a3000000000000004d430000fb
:1012bc0048500000424f0000415200004400000022
:1012cc0001000000140000001400000009000000e0
:1012dc00c8000000c80000000c000000c80000009e
:0412ec00c800000036
:020000040000fa
:1012f0000200fa00004f780054c8bf009e4f500013
:101300001e00320054c8bf00e24f40000a00320005
:1013100054c8bf000080fb007e00b9008000780048
:10132000c085200000804000e2012000a191200043
:1013300034060200000000001e41780041852000b4
:10134000824878001e407800e24f40000d003200d5
:101350001e80fb007e00b90080007800c085200060
:1013600000804000e201200080007800a091200071
:1013700034060200000000000300370000000000f7
:1013800001003700000000000080fa0000000600a5
:101390000000fa00518520009140780054c8bf0039
:1013a00080cf50002600320055c8bf00e24f4000f9
:1013b00015003200628b200055c8bf000080fb0082
:1013c0007e00b90000007800fc004000c0852000cd
:1013d000008040009042780055c8bf000080fb00ac
:1013e0007e00b90080007800c085200000804000a9
:1013f000100078008002b1008402200013c0b30006
:10140000854078001a11070054c8bf0055e8b7009e
:101410006093200010417800d048800081fd2f00ab
:1014200080804000608b2000840220008241780090
:101430000101780011c0b3000d1107000100370051
:10144000000000000080fa00000006000c00fa0016
:10145000000c210010079800904280000000e0007e
:1014600008003a00464902000000000080007800b1
:10147000f07f20008080600000402000008040005d
:1014800090428800c20320008000eb00e08d200025
:1014900042060200000000000040eb0040479800b8
:1014a0000040eb00004f78004c0037001e407800f1
:1014b0008fff07001e80fb006600b90080007800e7
:1014c00060962800008040009040900051479800ae
:1014d0001e80fb006600b900000078008080e800f4
:1014e0006096280000804000900078003107980046
:1014f0001e80fb006600b90000007800e400400098
:101500006096280000804000900078004107980015
:101510005e4090000080fb000000e000010032000f
:101520002d0037009e00900051079800be009000eb
:101530004e009000808040001e009000008040001f
:10154000a002b000100798009e009000c0ff21008c
:10155000808f5000fcff3e0060932000de40900032
:10156000014878005e0090008002b000d0488800fa
:10157000d14880003e009000008040000000e8005c
:10158000e0488800e14880004e0090000080400064
:10159000f0488800d00020008049880090498000f1
:1015a0000030a1009049880079ff07001e80fb00f1
:1015b0006600b90080007800609628000080400036
:1015c00090407800d08d200001487800da0a0700aa
:1015d0001e4fe80001003700ffff37001e40780073
:1015e000e24f5000b1ff36000080fa000000060014
:1015f0000c00fa0010079800210798006247980035
:1016000043079800244f98000040eb00004f7800fb
:10161000950037001e40780035ff070080498000a4
:10162000ed0f50008c003a0059ff0700d08d2000cc
:10163000904078002e48900080cf500088003a00fb
:1016400080212000d04688006e4090000004e00019
:101650000a003a00ce009000314688009049800090
:101660000030a00090498800400020008049880098
:10167000ce009000a149880075003700914280009b
:10168000f03f2000808f500004003600914280001f
:1016900080382100808f500002003600004020007a
:1016a0009042880090428000304688000000e800a8
:1016b00090428800ce00900021468800325e0200f1
:1016c000000000004049880051498800904980008e
:1016d0000040a000904988006e4090000080fb0010
:1016e000e30f50001c003200e30f500003003c00e9
:1016f000e10f50005600350003003700e40f5000a2
:101700002d003200520037001e009000ae00900005
:1017100060468800714688006e4090000014a20068
:101720000080fb000000e9004f00de000040780070
:101730000080fb00610060004200dd00c1468000c7
:101740000120a10001007000c04688000000eb00ed
:10175000804988003e0037000e80e800900090002d
:101760000e80e80010007800808040004e0090005d
:10177000808040003046800000806800a0498800da
:101780001e009000ae009000604688007146880000
:10179000c08d20008040eb0001487800f000200060
:1017a00001002000b0458800c145880020002000cd
:1017b00080498800260037001e009000ae0090008f
:1017c00000007800a04090008180fb003040900035
:1017d0000080fb004800dd00008070000001780000
:1017e0001e009000ae009000000078009080fb008a
:1017f000104090000080fb004800dd000080700079
:10180000800041004e009000808040003046800003
:1018100000806800a04988001e009000ae00900083
:1018200000007800a200200080007800c08c20001a
:1018300034060200000000005000200080498800ab
:1018400011c0b30020c0b300fc0607000000000078
:101850001e4078000800370000000000010037003b
:10186000000000001e4fe8001e407800e24f5000cc
:1018700068ff3600e0cfb3000080fa0000000600e9
:101880000200fa00004f78001e407800e24f50003e
:1018900002003600100020000d0037001e407800c6
:1018a00093fe070091498000000021000080600045
:1018b0000000e000050032009049800000c0a10057
:1018c0009049880010002000010037000000eb0064
:1018d0000080fa00000006000200fa00004f7800c5
:1018e0001e407800e24f5000020036000000eb007e
:1018f000080037001e4078007dfe07008049800008
:101900006700680000f0a7000000ea000000e9009e
:101910004f00de000080fa00000006000200fa001e
:10192000004f78001e407800e24f500047003e0014
:101930001e4078006efe0700204980003049880074
:1019400080498000e50f500017003200e50f50007d
:1019500007003e00e10f50000f003200e10f500081
:1019600011003900e30f500032003e000e00370036
:10197000eb0f50001d003200eb0f500003003e0043
:10198000e70f50002b003e0009003700ee0f50001b
:101990002500320027003700464102000000000009
:1019a000e50907002a003700e3090700280037008f
:1019b00011c0b30010c1b300a0060700404680006c
:1019c0000000e00005003200014980001046800060
:1019d000808f5000f6ff3a00010037000000000041
:1019e00080002000804988001900370011c0b30032
:1019f00010c1b30091060700404680000000e000df
:101a0000050032000149800010468000808f5000a0
:101a1000f6ff3a000100370000000000c00020007f
:101a2000804988000a003700d000200080498800e3
:101a3000070037008040eb0040c1b3007f0607007d
:101a4000bd09070000000000010037000000000091
:101a50000080fa00000006000200fa00004f780043
:101a60001e407800e24f500008003e001e40780003
:101a70001ffe0700904980000030a10090498800b7
:101a80001e407800a5ff070001003700000000009d
:101a90000080fa00000006000200fa00004f780003
:101aa0001e407800e24f5000020036000000eb00bc
:101ab0000b0037001e4078000dfe070034fe0700c3
:101ac000a2002000c18c2000809320003406020078
:101ad0000000000020468000104a8800809320000b
:101ae0000080fa00000006000200fa00004f7800b3
:101af0001e407800e24f50000b003e001e40780070
:101b0000fbfd070022fe070001498000104680000f
:101b1000808f50000500320011c0b30000c1b30037
:101b20004606070001003700000000000080fa00b0
:101b3000000006000400fa00204798002e409000a4
:101b4000e24f5000020036000000eb001d0037009d
:101b50002e409000e6fd070080498000004f78008d
:101b60001e407800e74f5000050032001e4078000c
:101b7000eb4f5000020032000000eb001100370074
:101b80000149800010498000808f50000900390011
:101b9000e1488000d04880008080500012498000d9
:101ba0000049800000005100008040000000e90072
:101bb0000400370011498000004980000080500077
:101bc0000000e9000080fa00000006000400fa00ae
:101bd00020479800314798002e409000e24f500077
:101be000020036000000eb00430037002e4090005a
:101bf000bffd07002e409000ceff0700000f7800c9
:101c00001e0078000000e00002003a000000eb0037
:101c1000390037001e007800e10f500002003a0042
:101c20002e409000b0ff0700914980000010200076
:101c3000008060000000e0000b003a00e1488000f6
:101c4000d0488000008050000000d1009e0f50005e
:101c5000050039002e409000a3ff07009049800046
:101c60000080a00090498800630147006093200035
:101c700090407800004980001400200013c0b30099
:101c8000fb0e0700004980000000e80000498800c2
:101c900001498000e0488000808f50000200390038
:101ca000d0488000004988001e007800e10f5000f5
:101cb00003003a002e4090008bff07000d00370014
:101cc0009149800000022000008060000000e000d8
:101cd00008003a00904980000050a0009049880018
:101ce000625e020000000000000078000080e80052
:101cf00060498800100020000080fa000000060003
:101d00000c00fa00604798004107980052079800bd
:101d10000000eb00100798006e409000e24f50006a
:101d2000020036000000eb005d0037006e409000be
:101d30006ffd07006e4090007eff070020079800af
:101d40002e0090000000e00004003a006e40900079
:101d500065ff07000000eb0051003700ae00900067
:101d6000010f7800ae0090005e009000808f500060
:101d700002003600de009000010f780091498000db
:101d800000102000008060000000e0000c003a001d
:101d9000e1488000d0488000008050008000d100e1
:101da0002e009000808f5000050039006e4090009a
:101db0004dff0700904980000080a00090498800f6
:101dc000004980009e004000e0488000808f500065
:101dd00013003900e1488000004980000080500075
:101de000100798004e01900060932000904078000a
:101df000004980001e02900013c0b3009c0e070033
:101e0000ce0090001e009000008040004007980027
:101e10001e0090001e0f1000d0488000004988006e
:101e20004e019000609320009040780000498000af
:101e30001e02780013c0b3008d0e07000049800019
:101e40001e00400000498800ae0090005e00900037
:101e5000808f500003003e006e40900022ff07007c
:101e60000d003700914980000002200000806000d2
:101e70000000e00008003a00904980000050a000f7
:101e800090498800625e02000000000000007800b7
:101e90000080e800604988001e0090001e0040009d
:101ea0000080fa00000006000400fa00004f7800ed
:101eb000110798001e00900050060200000000006c
:101ec000000178009e0090001e4078008cff070003
:101ed0009e009000008040000080fa000000060094
:101ee0000600fa00404798004e409000e24f500034
:101ef000020036000000eb000b0037004e4090005f
:101f0000fbfc0700e1488000d048800000805000c2
:101f1000000fe9004e40900006ff070010079800f0
:101f20001e0090001e0010000080fa000000060055
:101f30000200fa00004f78001e4078000b000700f6
:101f40000000e000070032001e407800e8fc0700b7
:101f5000204980003049880011c0b30000c1b3009f
:101f6000360507000080fa00000006000200fa00b3
:101f7000004f78001e407800e24f5000020036000b
:101f80000000eb00120037001e407800d8fc07006c
:101f90002149800030498000808f500004003900c2
:101fa000214980003049800000805000080037003f
:101fb000f148800030498000808050002249800034
:101fc000e048800000005100008040000000e80070
:101fd0000080fa00000006000600fa002047980082
:101fe000210798002e409000e0ff0700000f7800c6
:101ff0001e0078000000e00002003a000000eb0044
:102000002c0037002e409000b9fc07002e009000f5
:102010000000e000090032006093200010417800c9
:10202000314980002e009000140020008241780089
:102030000101780011c0b3000d0e07003049800087
:102040000000e8003049880031498000f0488000f5
:10205000808f500002003600e04880003049880040
:102060001e007800e10f500004003a009049800003
:1020700000a0a000904988000d0037009149800021
:1020800000022000008060000000e00008003a002c
:10209000904980000050a00090498800625e0200d4
:1020a00000000000000078006c00400060498800db
:1020b000100020000080fa00000006000a00fa006c
:1020c0004047980031079800420798000000eb0055
:1020d000000f78004e409000a4ff07001007980002
:1020e0001e0090000000e00002003a000000eb003b
:1020f000510037004e4090007dfc0700ce0090005c
:102100001e009000808f5000020036009e0090005c
:1021100041079800314980004e00900080804000c7
:10212000f0488000808f500018003600f148800091
:102130003049800000805000000fe8003e00900011
:102140000000e0000c003200609320001041780095
:10215000314980003e0090001e02780082417800e4
:102160000101780011c0b300c10d07003e009000ce
:102170001e004000300798004e0090001e005000e6
:1021800040079800e0488000304988003e009000f9
:102190000000e00009003200609320001041780048
:1021a000314980003e0090004e029000824178004c
:1021b0000101780011c0b300ad0d07003149800066
:1021c0004e00900000804000304988004e00900092
:1021d0001e004000400798009e0090004e009000b6
:1021e000808050004e009000808f500004003e0020
:1021f0009049800000a0a000904988000d003700a1
:102200009149800000022000008060000000e00092
:1022100008003a00904980000050a00090498800d2
:10222000625e020000000000000078006c004000c8
:10223000604988004e0090000080fa00000006000f
:102240000600fa00404798004e409000e24f5000d0
:10225000020036000000eb000a0037004e409000fc
:1022600023fc0700f1488000e0488000008f500008
:102270004e4090003dff0700100798001e009000a0
:102280001e0010000080fa00000006000e00fa0098
:10229000604798004107980052079800630798002c
:1022a0006e409000e24f500003003e005e00900040
:1022b0000000e00002003a000000eb00420037009e
:1022c0006e4090000afc07006e40900027ff070058
:1022d00010079800ee0090005e00900080804000a3
:1022e0001e009000808f5000040036009e00900079
:1022f0006e00900000805000500798003149800027
:102300006e009000008f4000f04880009e0f50004b
:1023100005003100f1488000e04880000080500056
:102320000080ea001e0f4000f04880001e005000b0
:102330000000e80020079800de0090002e009000ca
:10234000808f500009003e0060932000904078008c
:102350004e0090005e029000814178001e017800de
:1023600011c0b300420d0700160037006093200033
:10237000904078004e0090002e029000814178003d
:102380001e01780011c0b300390d0700de00900077
:102390002e00900080815000609320001041780052
:1023a000e14880004e0290002e00900000004200a4
:1023b00003027800824178000101780011c0b30067
:1023c0002b0d07005e0090000080fa000000060060
:1023d0000600fa002047980021079800ae019000ff
:1023e000120020008e0078002e409000a7ff07000a
:1023f0001e4078000080fa00000006003e00fa004f
:1024000020779800211f9800321f9800431f9800e2
:10241000541f9800651f98002e709000e24f5000e6
:1024200003003e003e1890000000e00002003a0069
:102430000000eb00250137002e709000acfb070078
:102440002e709000c9fe0700ce18900001005000c9
:10245000100798009e0090003e189000808f50005a
:10246000020031000080eb00180137005e18900078
:102470000000e000060032009e0090005e18900010
:10248000808f500002003600de189000110798007f
:10249000314980004e1890000080400030079800bd
:1024a000f14880003e009000808f5000070031000e
:1024b000f1488000e0488000008050000080ea0081
:1024c000be0090000080400030079800be009000e1
:1024d000010f7800f14880003e009000008050001d
:1024e0000000e80020079800ce18900031079800ff
:1024f000be18900071079800ae189000010f980068
:102500002e18900090407800114f98002e189000df
:102510000000e800201f98000000eb006007980012
:102520006e1890000000e0000c0032009e48900001
:1025300000c6b30080cf5000080036009e489000cf
:10254000a0c7b30080cf500004003e009e4890001a
:1025500000ceb30000c04000104f980000c2b3008e
:10256000204f98002e4890008080fb002e009000a5
:10257000808f5000020036002e009000204f9800ff
:102580002e4890008080fb001e009000808f50003d
:10259000020036001e009000204f98002e48900048
:1025a0000081fb006093200090407800720047009b
:1025b00002027800814178001e01780011c0b3004a
:1025c000ab0c07002e4890000080fb001e0f40005f
:1025d0002e4890000080fb00ae009000008050006c
:1025e000200798002e0090000000e00004003a0050
:1025f000e1488000010f78000080eb002007980080
:102600006e1890000000e000680032000040eb000f
:10261000004f9800600037000e4890000080fb00db
:1026200000004700a050900000c6b30080cf5000cb
:10263000110036000e4890000080fb0000004700ab
:10264000a0509000a0c7b30080cf50000a003e0009
:102650000e4890000080fb008e4890008180fb00b7
:10266000810047002151900001ceb300814041001c
:1026700000004700215098000e4890000080fb00a9
:1026800000004700a05090001e48900080cf5000ee
:1026900023003a003e1890000000e900301f980027
:1026a0003e1890000000e00008003a00be009000d4
:1026b0007e009000808050000e4890000080fb005b
:1026c000008040000000e800800037002e189000d5
:1026d00090407800114f98002e1890000000e800fc
:1026e000201f980010002000600798009e4890006e
:1026f00000c6b30080cf5000240036009e489000f2
:10270000a0c7b30080cf500020003e009e4890003c
:1027100000ceb30000c04000104f98001b003700ef
:10272000fe009000311f98006e0090000000e00055
:10273000160032008e089000211f98002e1890007d
:1027400090407800114f98002e1890000000e8008b
:10275000201f98009e48900000c6b30080cf500014
:10276000080036009e489000a0c7b30080cf5000fc
:1027700004003e009e48900000ceb30000c0400020
:10278000104f98000000eb00600798000e48900082
:102790000040e800004f98008e4890002e489000be
:1027a00080cf50009cff3900370037000040eb001d
:1027b000004f9800300037000e4890000080fb006a
:1027c00000004700a05090001e48900080cf5000ad
:1027d00017003a003e1890000000e900301f9800f2
:1027e0003e1890000000e00008003a00be00900093
:1027f0007e009000808050000e4890000080fb001a
:10280000008040000000e800300037002e189000e3
:1028100090407800114f98002e1890000000e800ba
:10282000201f980010002000600798000f0037005c
:10283000fe009000311f98006e0090000000e00044
:102840000a0032008e089000211f98002e18900078
:1028500090407800114f98002e1890000000e8007a
:10286000201f98000000eb00600798000e489000c1
:102870000040e800004f98008e4890002e489000dd
:1028800080cf5000ccff39002e4890000080fb0024
:102890009e00900000805000100798009e0090005d
:1028a0003e189000808f5000020031000080eb0045
:1028b000060037002e4890000080fb00be0090000c
:1028c000008040003007980024ff37000080fa00a5
:1028d000000006000800fa00004f78001147980039
:1028e0001207980023079800340798000e00e800ac
:1028f000be0290002e0290009e0190001200200067
:10290000800078001e407800bcfe07000080fa00be
:10291000000006000e00fa00881f78000040eb005f
:10292000004f78002c0237001e40780070fa070034
:102930000040eb00604798000000eb001007980093
:102940000000eb0020079800914980000020200043
:10295000008060000000e00005003a00914980001e
:1029600000402000008060000000e0000b0032000a
:10297000fa2d0200000000000000e0000700320015
:1029800000c1b30060479800904980004a00de0013
:10299000614060000080fb001007980091498000b2
:1029a00000022000008060000000e000090032000a
:1029b00068498000625e02000000000000007800ac
:1029c000000054000000e00002003c0000c1b30021
:1029d000604798009149800000042000008060005a
:1029e0000000e0000900320078498000625e0200c9
:1029f0000000000000007800000054000000e0002b
:102a000002003c0000c1b30060479800804980008c
:102a1000eb0f50000b003a0078498000625e020024
:102a20000000000000007800000054000000e000fa
:102a300004003c0010c1b30060479800c0002000b3
:102a40008049880080498000e40f500061003a000e
:102a50000000eb0040079800590037004e0090003e
:102a60007400b90000007800f0004000e08d200004
:102a700000804000100078000000e00054003200a8
:102a80004e0090007400b90000007800f000400093
:102a9000e08d20000080400090007800a049800078
:102aa000808f500043003a0039fa07004e00900032
:102ab0007400b90080007800e08d200000804000a4
:102ac000a200200080007800c08c200034060200a4
:102ad000000000004e0090007400b9000000780073
:102ae000ea004000e08d20000080400010007800e7
:102af000204688004e0090007400b9000000780065
:102b0000ec004000e08d2000008040001000be007e
:102b100061004000e0804800f045880001468800e0
:102b20007146800060468000808040002046800022
:102b3000808040003046800000806800a049880006
:102b400020c1b300604798006000200080498800e1
:102b5000ce009000c0fe2f000088b9000000780071
:102b600083022000808141004e0090000000e800b8
:102b70007400b90080007800e08d200000804000e3
:102b8000000178004e0090007400b90080007800c9
:102b9000e08d2000008040000302780013c0b300e5
:102ba00011c0b300320b07000000eb00b0488800f2
:102bb000080037004e0090000000e8004007980031
:102bc0004e009000e20f5000a4ff360001003700d5
:102bd000000000006e4090000004e0000900320098
:102be0001e00900000f0a7000000ea000000e900cd
:102bf0004f00de0000407800804078006e4090007a
:102c00000e02070090498000700060000000e000a4
:102c10002d003a0080498000e70f500066013a001d
:102c2000325e0200000000000001be00404980004a
:102c3000514980000000510081805900e00f500090
:102c4000e08f58005e013500904980006700600009
:102c5000e60f50000e003a00904980004300de006d
:102c600061406000604798001e4078002bfb070021
:102c70001e40780029fb07006e4090000004e00031
:102c800051013a00e00020008049880051013700de
:102c9000bff9070021c0b30000c1b300e70107007e
:102ca000325e0200000000000001be00a0252600e8
:102cb0002100200002004000838048004049880035
:102cc0005149880043013700325e020000000000d5
:102cd0000001be00404980005149800000005100c1
:102ce00081805900e00f5000e08f58003801350016
:102cf000a7f90700804980008000eb00c200200097
:102d000003002000820f5000838f5800e6003e0031
:102d1000006001000c003700230037004d00370031
:102d200056003700e20037007d0037008c00370086
:102d3000a0003700ad003700ba003700be003700f2
:102d40009c003700ca00370030410200000000003c
:102d50000000e000d8003200100020008049880008
:102d6000c0468000640060000000e0000700320000
:102d700060468000714680000000780011c0b300fa
:102d80006c41020000000000d20037006046800065
:102d9000714680000000780011c0b3006c41020051
:102da00000000000cb0037006a0047009a41020093
:102db000000000000000e000c100320046410200b7
:102dc000000000000000e000160032005e009000ed
:102dd000ee009000604688007146880020002000c8
:102de00080498800714680006046800080804000f5
:102df00020468000808040003046800000806800cf
:102e0000a0498800c08d20008040eb000148780078
:102e1000f000200001002000b0458800c145880076
:102e2000ac003700325e0200000000000001be006e
:102e3000a0252600210020000200400083804800d9
:102e400040498800514988000000eb008049880013
:102e5000a0003700625e0200000000000000780061
:102e600060498800c08c2000585502000000000016
:102e7000300020008049880096003700018d200036
:102e8000c08c20000a560200000000000000e00094
:102e90001c003a00625e0200000000008000780022
:102ea0006049800000815000b0458000c14580002d
:102eb00000007800800f510083003600c08d200094
:102ec00010407800e54f50000b003e00c08d200000
:102ed000104078008040e800c08d20000148780054
:102ee000b0458000c145800000004000818048005e
:102ef000b0458800c1458800200020008049880036
:102f00007400370020c0b300604798000000eb0059
:102f10001007980050002000804988006d0037009d
:102f200020c0b300604798001000200010079800f0
:102f3000c08d200010407800e34f50006400360040
:102f4000c08d200041c0b3000148780000092d0069
:102f500031002000b0458800c14588005d00370081
:102f6000c08d200010407800e14f500005003e0069
:102f700020c1b3006047980010002000100798009f
:102f80005400370090498000680060000000e000b5
:102f90000500320040c1b3006047980010002000d7
:102fa000200798004b00370020c0b300604798000e
:102fb00048003700c08d200010407800e44f5000da
:102fc00005003e0000c1b3006047980010002000db
:102fd000100798003f0037008000200080498800db
:102fe00010c1b300604798003a003700c08d200040
:102ff00010407800e44f500005003e0010c1b300bf
:10300000604798001000200010079800310037003a
:1030100040c1b300604798001000200020079800ce
:103020002c00370040c1b30060479800100020001a
:103030002007980027003700c08d2000104078003e
:10304000e44f500005003e0000c1b3006047980007
:1030500010002000100798001e00370040c1b30088
:1030600060479800100020002007980019003700e2
:10307000c08d200010407800e44f500005003e0055
:1030800010c1b3006047980010002000100798009e
:103090001000370040c1b3006047980010002000c6
:1030a000200798000b0037000000000009003700df
:1030b0000000000007003700000000000500370096
:1030c000000000000300370000000000010037008e
:1030d000000000006e4090000004e000310032006b
:1030e0001e0090000000e0002b003200c08d200088
:1030f000104078008040e800c08d20000148780032
:10310000b0458000c145800000004000818048003b
:10311000b0458800c14588001146800010498000f4
:103120000080500040079800114680001049800040
:10313000808f500006003100e1488000d0488000b8
:1031400000805000ce0090000080400040079800b2
:10315000d2458000e34580004e0090008000eb00e7
:103160000000510081805900d0458800e145880069
:10317000414680004e00900000804000404688009c
:1031800010498000104688008040eb006e4090009f
:10319000aa0007000300370011c0b3006e40900082
:1031a000a60007002e0090000000e0000900320099
:1031b000e1030700070037000000000005003700aa
:1031c000000000000300370000000000010037008d
:1031d000000000001e4fe8001e407800e24f500043
:1031e000d1fd36000000eb004007980035003700a5
:1031f0004e0090007400b90000007800f00040001c
:10320000e08d200000804000100078000000e00009
:1032100030003200625e0200000000000001780011
:103220004e0090007400b90000007800f2004000e9
:10323000e08d2000008040001000780080005100e8
:10324000700b2000808f50001b003600ce009000d5
:10325000c0fe2f000088b900000078008302200023
:10326000808141004e0090000000e8007400b90029
:1032700080007800e08d2000008040000001780090
:103280004e0090007400b90080007800e08d2000ae
:10329000008040000302780013c0b30011c0b300e7
:1032a000730907000000eb00b04888004e00900052
:1032b0000000e900400798004e0090000000e80080
:1032c000400798004e009000e20f5000c8ff360003
:1032d00001003700000000004f0478000080fa0071
:1032e000000006002c00fa003017980041179800e3
:1032f000521798003e1190009281fb0012429000fc
:103300000482fb004822dd00848171000300780004
:10331000a24190008381fb00324190000281fb00ba
:103320004811dd000281710082007800300f9800a2
:10333000410f98004e1090001001be00520f9800ef
:10334000630f98000040eb00605f980060c0b3001e
:10335000705f9800de119000031798000e10900027
:10336000724d020000000000001798007600470030
:10337000c1002000ea4d0200000000000080ea00c9
:10338000101798005e109000fa3102000000000053
:10339000201798009e1090002e109000808f5000f3
:1033a00004003200102e0200000000001000200077
:1033b000200037000000eb00925a020000000000dd
:1033c0000e80e80041012000dc3402000000000013
:1033d0000e80e800260307007e0090004400de0017
:1033e0006f40600080407800200020000008dd0071
:1033f000744f50001e80fb00de10900000805000d3
:1034000074005000501798000e80e800be10900025
:10341000f80107000000e000030032000e80e80021
:10342000de10900003040700102e020000000000d0
:10343000100020000080fa00000006002a00fa00b8
:10344000006f9800116f9800d1f707000e68900088
:103450000080fb0061006000004078000004e00094
:10346000060032009049800000b0a000904988001a
:103470000e6890000004a100006f98009049800041
:103480000050a10090498800904980000060a10090
:1034900090498800904980000070a1009049880000
:1034a000904980000090a1009049880090498000d8
:1034b00000a0a10090498800904980000080a100f0
:1034c0009049880000000000fa2d02000000000072
:1034d0000000e000fcff32000e6890000080fb005e
:1034e000660060000000e000030032000000eb0016
:1034f000000f78007c0037000149800010468000f2
:10350000808f500003003a000000eb00000f7800ad
:10351000670037000149800010468000808f50000e
:103520001d0036000149800010468000008f5000c9
:10353000404680009e0f500002003100414680004e
:10354000010f7800d04680009e0f5000050031002a
:10355000d2468000020f78009049800000a0a000b1
:1035600090498800609320009040780010468000c9
:103570001e02780081417800000178008040eb0055
:1035800050b02000ba080700104680001e0040001e
:103590001046880046003700e14880001046800051
:1035a0000080500030179800be1090000049800045
:1035b00080804000d0488000008f5000404680004e
:1035c0009e0f50000200310043468000030f780038
:1035d000d04680009e0f500005003100d14680008b
:1035e000010f78009049800000a0a0009049880059
:1035f0003e1090009e0f5000020036001e01780021
:10360000321798003e11900060932000904078009f
:1036100010468000020278008141780000017800a5
:103620008040eb0050b02000910807003e10900051
:103630001e001000301798003e1090000000e000bf
:103640000e003200be1190006093200010417800ff
:10365000d1488000e44880001046800000025200fb
:1036600050b0200000004200030278008241780040
:10367000010178008040eb007d08070010468000c3
:103680001e0040001046880011468000e04880007f
:10369000808f50000600390011468000d24880001b
:1036a000e048800000005100008040001046880083
:1036b0009149800000802000008060000000e00050
:1036c00009003200404680009e0f50000600320084
:1036d000d04680009e0f5000030032000e6890001c
:1036e0000004a000006f98001e0078000000e000b9
:1036f00005003a000e6890000080fb006300600047
:103700000000e00023003200404680001e00500010
:10371000404688001e0078000000e00003003200f0
:103720000e6890000034a000006f98001e689000a2
:103730000080fb0061006000004078000004e000b1
:1037400007003200c08d20008040eb000148780067
:1037500090d0230001002000b0458800c1458800ba
:10376000325e0200000000000001be00b045800093
:10377000c145800002004000838048004049880025
:1037800051498800904980000040a000904988007d
:103790003a0037001e6890000080fb006200600065
:1037a0000000e00014003200904980006740600093
:1037b0000040e800674060000080fb006700600098
:1037c0009249800081ff2f0081006100010070009c
:1037d00090498800d0458000e1458000610050009c
:1037e000e0805800d0458800e145880010002000a6
:1037f000000f7800210037009049800070006000c1
:103800000000e0001d0032001e6890000080fb00f8
:10381000610060000000e0000f003a00c08d200051
:10382000104078000004e0000b003200c08d200042
:10383000104078008040e900c08d200001487800e9
:10384000b0458000c14580008100d1000080d300d8
:10385000b0458800c1458800325e020000000000cb
:103860000001be00b0458000c1458000020040005c
:1038700083804800404988005149880030468000d4
:10388000200798002046800030079800d04580002f
:10389000e14580004007980051079800f0458000fe
:1038a0000146800060079800710798008e0890001c
:1038b000f0ff230000806000000f98008e08900049
:1038c00000ff2f0000806000000f98008e699000bc
:1038d000135798000000eb00300f9800d24580008d
:1038e000e34580001e0078008000eb0002004000ed
:1038f00083804800d0458800e14588000e6890002c
:103900000080fb00620060000000e0001c0032004c
:103910000e6890000080fb00700060000000e00076
:1039200003003a006000b800600798007107980033
:10393000c0468000620060000000e0000700320026
:103940004e009000de00900061005000e0805800c2
:10395000400798005107980009003700d0458000c3
:10396000e145800061004000e0804800d0458800cb
:10397000e1458800c04680000010a000c0468800d5
:103980000e6890000080fb0061006000004078003d
:103990000004e00003003200c04680000000a000e8
:1039a000c04688002149800030498000808f500047
:1039b00009003900f1488000e04880008080500014
:1039c0003249800020498000000051000080400002
:1039d000100f980005003700314980002049800011
:1039e000008050000000e900100f98004c2e0200eb
:1039f00000000000100798009e009000f0032000d7
:103a0000808f500003003e000000eb00100798007c
:103a1000030037001e0090000004b100100798005a
:103a20009e0890001e009000808f5000020036001b
:103a30001e009000100f9800640047008c010700e2
:103a40009e007800748f40008e089000f0f02f00e8
:103a5000808060000005200001007000000f9800c9
:103a60000e6890000080fb00620060000000e00033
:103a7000150032001e017800640f410020c0b30021
:103a8000005f980040c0b300105f980020802100c4
:103a9000500f98000e0890004400de006f40600058
:103aa0000040e8006f4060000080fb006f00600095
:103ab0004400dd000e099000f1f02f00810061004c
:103ac00001007000000f980002ae20001281fb0080
:103ad00013ae20009381fb00c819dd0003017100c3
:103ae0000200780022ae20001281fb0033ae2000dd
:103af0009381fb00c819dd0003017100820078008a
:103b0000600f9800710f9800624680007346800035
:103b100002179800131798000040eb0040679800c8
:103b200060c0b300506798009e017800331798007a
:103b30003e109000724d0200000000003017980007
:103b40007c004700c1002000ea4d02000000000098
:103b50000080ea00200f9800d0ad2000363102002e
:103b6000000000001e01780061c0b300c08c20007e
:103b7000f2590200000000006400470041012000eb
:103b8000ec350200000000000e6890000080fb0091
:103b9000620060000000e00004003200780047008e
:103ba00041002000ec3502000000000010af2000b2
:103bb00068310200000000001e007800fa310200a7
:103bc000000000001007980010b0200036310200fd
:103bd000000000000e80e80021002000ec3502000b
:103be00000000000da2f0200000000000080fa0050
:103bf000000006000a00fa0030079800410798000c
:103c00003e009000100090000000e00002003a002a
:103c10000000eb0014013700e0cfb300104798001c
:103c20004e009000a04090008180fb00304090004a
:103c30000080fb004800dd000080700080007800fc
:103c40004e0090001081fb00104090000080fb00af
:103c50004800dd0000007100808040003e009000c0
:103c600010007800808040003e009000100090001e
:103c700000806800200798000040eb00004f7800ab
:103c80003a0037001e40780099f50700804980000f
:103c9000ed0f50002f00320080498000e40f5000eb
:103ca00008003a00a14980003e00900010009000fa
:103cb000808f500029003a009e40780011479800fc
:103cc00029003700a14980002e009000808f50000d
:103cd00024003a00aef507003e00900090009000ee
:103ce00030468000808f50001f003a003e00900058
:103cf0009000780020468000808f50001a003a0023
:103d00004e0190009281fb00124290000482fb0061
:103d10004822dd008481710003007800a2419000f8
:103d20008381fb00324190000281fb004811dd00dd
:103d30000281710082007800624680007346800034
:103d4000820f5000838f580007003a0010002000b7
:103d5000c50037000000000003003700000000002d
:103d600001003700000000001e4fe8001e407800f0
:103d7000e24f5000c3ff36001e409000e24f40006b
:103d8000170032001e40900059f5070080f507002b
:103d90001e409000e24f400011003200ae00900043
:103da000a1498800a2002000ce009000c08c200015
:103db00034060200000000003e0090001000780071
:103dc000204688003e009000100090003046880099
:103dd000d04880001046880010002000a200370064
:103de0003e009000e0009000002020000080600075
:103df0000000e00002003a000000eb009a003700eb
:103e0000b04880000000e000020032000000eb003b
:103e1000950037000000eb001007980049003700bc
:103e20001e0090007400b90000007800f00040000f
:103e3000e08d200000804000100078000000e000cd
:103e4000440032001e0090007400b90000007800a9
:103e5000f0004000e08d20000080400090007800dd
:103e60003e00900010009000808f50002d003a001e
:103e70001e0090007400b90000007800ea004000c5
:103e8000e08d200000804000900078003e0090000f
:103e900010007800808f500024003a001e0090002f
:103ea0007400b90080007800e08d200000804000a0
:103eb0001002be004e0190009281fb001243900060
:103ec0000683fb004833dd00868171000300780023
:103ed000a24190008381fb00324190000281fb00ef
:103ee0004811dd000281710082007800800f5200cd
:103ef000818f5a000f003a00625e0200000000004d
:103f0000000178001e0090007400b9008000780065
:103f1000008f200000804000020878000000eb00c5
:103f200051003700000000000300370000000000cf
:103f300001003700000000001e0090000000e800b3
:103f4000100798001e009000e20f5000b4ff3600ea
:103f500001003700000000000040eb00004f780037
:103f60003d0037001e407800e1f4070090498000d2
:103f7000680060000000e0003300320004f5070034
:103f8000314680003e00900010009000808f50006d
:103f90002f003a001e0090007400b90080007800e5
:103fa000e08d200000804000a2002000ce009000a4
:103fb00034060200000000003e009000100178006e
:103fc0001e0090007400b90080007800808e2000f0
:103fd00000804000020878003e009000b000900091
:103fe000200090001e0190007411b9008201780039
:103ff000a28e2000028141000089be003e00900098
:10400000100190001e0090007400b900800078003c
:10401000e08e20000080400002087800625e02000e
:1040200000000000000178001e0090007400b9003c
:1040300080007800008f2000008040000208780097
:104040000000eb000800370000000000010037000e
:10405000000000001e4fe8001e407800e24f5000b4
:10406000c0ff36000000eb000080fa0000000600f0
:104070000200fa00000f78001e007800100078009f
:10408000724d0200000000009e0078008008780059
:104090001e00780010009000724d02000000000029
:1040a0009e007800900098001e007800b0009000fc
:1040b000200090008c4d0200000000001e017800de
:1040c00020019800310198001e007800d000900077
:1040d000400090008c4d0200000000001e0178009e
:1040e00040019800510198001e0078007000900077
:1040f000724d0200000000009e007800f000980061
:104100001e00780000089000724d020000000000c0
:104110009e007800800898001e007800100890002b
:10412000724d0200000000009e0078009008980088
:104130000080fa00000006000000fa00881f7800e6
:1041400093f4070030468000a0498800d0488000e2
:1041500000498800d048800010498800e04880006d
:1041600020498800e048800030498800904980005c
:10417000680060000000e000020032004000200003
:1041800001003700d000200080498800914980005c
:1041900080ff2f00008060009049880090498000d7
:1041a0000040a10090498800904980000050a10083
:1041b00090498800904980000060a10090498800e3
:1041c000904980000070a1009049880090498000cb
:1041d0000080a10090498800904980000090a100d3
:1041e000904988009049800000a0a1009049880073
:1041f0009049800000b0a10090498800904980005b
:1042000000c0a00090498800c04680000000a100c6
:10421000c0468800c04680000010a100c04688004b
:10422000c04680000030a100c0468800c046800023
:104230000040a100c0468800d04880001046880099
:10424000a88b2000d848020000000000000c780075
:10425000a88b2000d848020000000000100498003d
:104260000080eb00b0468800100020004046880027
:104270004f0478000080fa00000006000400fa00f5
:10428000881f7800c0002000925a02000000000041
:10429000ac34020000000000004f78009e80fb005c
:1042a000000f2000008060004280de0000407800a7
:1042b000744f50001e4078000004e00002003a00f5
:1042c0008021200058003700710020000000eb0022
:1042d000dc3402000000000041003700ac34020072
:1042e00000000000104798001e4090000004e0000d
:1042f000430032001e409000e14f50003700320072
:104300001e409000e24f500020003a001e4078000e
:10431000e24f50003c0036000000eb001007980010
:10432000ac34020000000000104798001e409000ce
:10433000e44f500009003a000e80e8000004e80055
:10434000ac34020000000000004c78000e84e8004d
:10435000ac34020000000000004c78009e00900089
:1043600070212000808f5000290036009e009000b0
:10437000405b2000808f500002003600405b200030
:10438000290037001e009000270037001e407800eb
:10439000e14f500020003600ac3402000000000065
:1043a000104798001e4090009e40780080cf50003b
:1043b0001b0039001e4090000080fb008000780048
:1043c0000000eb00dc340200000000009e4078009a
:1043d0001e40900000cf5000010037000000000098
:1043e0001e80fb000000ea004f00de000040780065
:1043f0001e4fe9000004e000b8ff3a000900370052
:104400000000000007003700000000000500370032
:10441000000000000300370000000000010037002a
:1044200000000000802120004f0478000080fa0086
:10443000000006002200fa00700f98000117980093
:104440007e089000d0489000015798007e089000a8
:1044500040019000d0019000420798005307980057
:104460007e08900020019000b0019000120f98008b
:10447000230f98009149800080ff2f00008060008a
:104480009049880090498000700060000000e000c2
:1044900009003a00325e0200000000000001be0088
:1044a000a025260021002000020040008380480053
:1044b000404988005149880080498000e40f50003d
:1044c00003003200e50f50002b0032007800370067
:1044d0000e5090000080fb00640060000000e000cf
:1044e0000200320014ff07002a0437000e5090002b
:1044f0000080fb00700060000000e0000900320056
:104500004e019000de019000d2458800e34588000e
:104510008040eb0040c0b300c8fb070006ff070067
:104520001c0437000e5090000080fb006200600009
:104530000000e0000e0032001e089000ae0890005f
:1045400061004000e0804800f04588000146880096
:104550004aff0700d046880011c0b30020c1b30055
:10456000b6fb07006000200080498800090437007e
:10457000f1fe0700070437000e5090000080fb009a
:10458000640060000000e000ef033a000e5090006d
:104590000080fb00700060000000e00017003200a7
:1045a000d2458000e34580004e009000de00900080
:1045b000800f5100818f590010003200d2458000d9
:1045c000e3458000120f9800230f98004e019000e1
:1045d000de019000d2458800e345880011c0b30099
:1045e00040c0b30095fb07001e099000ae09900083
:1045f000d2458800e3458800e60337000e5090005e
:104600000080fb00620060000000e000d003320088
:104610001e089000ae08900061004000e080480055
:10462000f0458800014688007e08900070009000e8
:104630004046880011ff0700d04688000e509000c9
:104640000080fb00700060000000e00012003200fb
:1046500011c0b30000c1b30078fb07007000200058
:1046600080498800325e0200000000000001be00a8
:10467000a025260021002000020040008380480081
:104680004049880051498800904980000040a100bd
:1046900090498800bf03370011c0b30020c1b300a8
:1046a00066fb07006000200080498800b9033700de
:1046b0008e119000630798000e5090000080fb0060
:1046c00061006000004078000004e0000300320058
:1046d0006e0090000000e800600798000e50900007
:1046e0000080fb00620060000000e0000300320078
:1046f0006e0090000000e8006007980021498000eb
:1047000030498000808f500009003900f148800056
:10471000e0488000808050003249800020498000bd
:10472000000051000080400030079800050037006d
:104730003149800020498000008050000000e900dd
:1047400030079800f0458000014680001e09900067
:10475000ae0990000000510081805900300f980090
:10476000410f9800be089000510f98000000eb0028
:10477000700798006e0090000000e00035003200e5
:104780003e0090000000e000480032003e0890002b
:10479000ce089000e00f5000e08f58000a0035006e
:1047a0003e0090006101b8003e089000ce089000e5
:1047b000800f5100818f5900030036001000200047
:1047c00070079800140037006e0090006101b80077
:1047d0003e089000ce089000020040008380480010
:1047e000e00f5000e08f58000b003400be00900036
:1047f0006e009000008050006101b9003e089000fa
:10480000ce089000800f5100818f590002003500c2
:1048100010002000700798003e0090006101b80071
:104820003e089000ce089000800f5100818f590003
:104830001e003400de0890006e00900000804000f2
:104840000000e000190034001000200070079800fc
:10485000160037003e089000ce089000e00f500090
:10486000e08f580003003a00100020007007980005
:104870000e0037003e089000ce089000e00f500078
:10488000e08f5800090035003e0090006101b8003b
:104890003e089000ce089000800f5100818f590093
:1048a0000200360010002000700798007e00900083
:1048b0000000e00009003a000e5090000080fb006c
:1048c000640060000000e00023033a0011c0b30060
:1048d00000c1b300d9fa07002e0337000e50900034
:1048e0000080fb00660060000000e0000200320073
:1048f00011fe0700270337000e5090000080fb00d8
:10490000700060000000e000150332008049800064
:10491000eb0f500005003e00e70f50001f00310074
:10492000e60f50000400320073013700ec0f500016
:104930005f01320070013700d2458000e3458000fe
:104940004e009000de009000800f5100818f5900d2
:1049500010003200d2458000e3458000120f98001d
:10496000230f98004e019000de019000d245880090
:10497000e345880011c0b30040c0b300affa0700a0
:104980001e099000ae099000d2458800e3458800da
:104990000003370070002000804988000149800032
:1049a0001046800000805000200798002e009000e4
:1049b0000000e00006003d00e1488000d048800093
:1049c00000805000ae00900000804000200798005a
:1049d000d2458000e34580002e0090008000eb006f
:1049e000001f4100019749004e019000de01900038
:1049f0001e00be000000510081805900008fbe00e3
:104a00001e00be00e00f5000e08f5800140034007c
:104a1000c0468000610060000000e0000600320037
:104a20001e01be001000200001002000800f510078
:104a3000818f5900040032008040eb0000c1b300b8
:104a40007efa0700d30237004e009000de0090008f
:104a500061005000e080580040079800510798001e
:104a6000d2458000e3458000114680001049800057
:104a700000805000cf80de00001f510001975900d8
:104a80001146800010498000808f500006003100e0
:104a9000e1488000d0488000008050008000eb009a
:104aa0001e1f10001e9718004e009000de009000a0
:104ab0001e1f50001e9758001e00be00e00f500041
:104ac000e08f580056003400e1488000d048800054
:104ad000008050008000eb00be0f5000ae8f5800e9
:104ae0004f003900c04680000030a100c046880059
:104af000c04680000040a100c04688009049800068
:104b00000080a10090498800134980002307980085
:104b1000114980001e007800008040001049880084
:104b2000114680002e009000808f50001100390047
:104b30001146800010498000808f50002300310012
:104b4000d2458000e3458000114980001046800076
:104b5000008050008000eb0002004000838048008d
:104b6000d0458800e1458800104980001046880043
:104b70001600370011468000e2488000d0488000cf
:104b8000000051000080400020079800114980007b
:104b90002e009000808f50000c003600d24580001f
:104ba000e3458000114980002e00900000805000f5
:104bb0008000eb000200400083804800d045880060
:104bc000e1458800104980001046880011498000a6
:104bd000e0488000808f50000600390011498000b5
:104be000d2488000e0488000000051000080400072
:104bf0001049880011468000e0488000808f5000f6
:104c00003600390011468000d2488000e04880001c
:104c10000000510000804000104688002f0037003f
:104c20001149800010468000808f50002b00320018
:104c3000c0468000680060000000e00024003200f0
:104c4000c0468000700060000000e0001d003200df
:104c5000d2458000e3458000114680001049800065
:104c600000805000cf80de0000005100818059009c
:104c7000d0458800e1458800114680001049800039
:104c8000808f50000a003100d2458000e34580004b
:104c9000e1488000d048800000805000cf80de00d6
:104ca0000000510081805900d0458800e14588000e
:104cb00010498000104688009049800000a0a000a4
:104cc00090498800c04680000040a000c04688008f
:104cd000c04680000030a000c04688001149800016
:104ce00000498000808f500023003a0091498000e5
:104cf00000802000008060000000e0000d003a000d
:104d0000325e0200000000000001be00a025260067
:104d100021002000020040008380480040498800b4
:104d200051498800904980000040a10090498800c6
:104d300011003700d2458000e34580004e0090000e
:104d4000de009000800f5100818f59000a003a0068
:104d5000c0468000610060000000e00006003200f4
:104d6000904980000040a10090498800904980004f
:104d700000b0a100904988007e089000700190006a
:104d8000ce019000d0458000e14580000000780011
:104d90000080510000004100600f980040468000f4
:104da0000000e00006003a006e0890000000e000fd
:104db00003003200904980000090a00090498800d4
:104dc000ee0890004146880080498000e80f5000be
:104dd0001a003a00d2458000e34580004e00900062
:104de000de009000800f5100818f59003b003a0097
:104df000c0468000610060000000e0003900320021
:104e0000325e0200000000000001be00d01223004c
:104e100011002000020040008380480040498800c3
:104e200051498800904980000040a00090498800c6
:104e300090002000804988002f00370080498000c2
:104e4000e90f50000e003a000e5090000080fb0069
:104e5000610060000000e00024003a004e01900074
:104e6000de019000d2458800e34588008040eb00d9
:104e700040c1b30071f90700affc0700c50137005e
:104e800080498000ea0f50001a003a00d2458000a5
:104e9000e34580004e009000de009000800f51003e
:104ea000818f5900b0013a00a3fc0700b901370017
:104eb000d0458000e145800061014000e08148006c
:104ec0004e009000de009000800f5100818f59004d
:104ed000a7013a0098fc0700ae013700000000006f
:104ee000050037000000000003003700000000004c
:104ef00001003700000000000e5090008080fb0091
:104f000000022000008060000000e0009a013a00ea
:104f100080498000eb0f50009901320080498000e9
:104f2000ea0f50009801320080498000ec0f5000d9
:104f3000970132000e1090000000e00014013200d2
:104f40005e0890000000e0007a003c007e089000bf
:104f5000600090004400de006f4060000080fb00b5
:104f60004200dd00800078005e0890000080500064
:104f7000925a0200000000008e1090005e0890001f
:104f800000804000001798008e1090003e009000b6
:104f9000808f500002003600be0190000317980079
:104fa000f2458000034680000e1090008000eb0068
:104fb0000200400083804800f045880001468800d8
:104fc000214980000e10900080804000f048800051
:104fd000808f50001d003600f1488000204980007d
:104fe000008050000000e800200798006093200037
:104ff00090407800204980002e0290008041eb0014
:105000000081eb001a0207008e1090002e00900025
:10501000008150006093200090407800e0488000bc
:10502000020278008041eb000081eb0010020700d3
:10503000e14880000e1190002e0090000000510009
:1050400000804000204988000b003700609320005a
:1050500090407800204980000e1290008041eb00c3
:105060000081eb0002020700214980000e10900031
:105070000080400020498800b0468000e10f4000d9
:10508000c3003200b0468000800078000e1090000f
:1050900000805000b046880051468000b046800035
:1050a00000804000200798002e0090000000e000e3
:1050b00003003d000080eb00b0468800b4003700dc
:1050c000b04680000000e000b1003c00f2458000e6
:1050d000034680002e0090008000eb00020040009c
:1050e00083804800f04588000146880021498000ff
:1050f0002e00900000804000204988002149800057
:10510000f0488000808f5000070036002149800061
:10511000f2488000e0488000000051000080ea0072
:1051200000804000204988000080eb00b0468800e5
:10513000970037005e0890000000e0009400340003
:105140008e1090005e089000808040003e0090002d
:10515000808f500004003600be0090005e08900072
:1051600000805000001798007e08900060009000ba
:105170004400de006f4060000080fb004200dd0064
:10518000925a020000000000214980005e08900051
:10519000808040000e10900080804000f048800029
:1051a000808f50002e003600f1488000204980009a
:1051b000808050005e0890000000ea0000804000ff
:1051c0000000e800200798002e0090000000e0009a
:1051d0001400350060932000904078002249800040
:1051e0005e089000000041002e0290008041eb001c
:1051f0000081eb009e0107008e1090002e009000b1
:10520000008150006093200090407800e0488000ca
:10521000020278008041eb000081eb00940107005e
:1052200018003700609320009040780022498000e9
:105230005e08900000014100f3488000e0488000d3
:10524000008051000080ea00000041000e12900032
:105250008041eb000081eb00850107000900370069
:105260006093200090407800224980005e08900002
:10527000000041000e1290008041eb000081eb0025
:105280007b010700b0468000e10f400005003a00b6
:105290005e089000b04688008e109000514688004d
:1052a0003b003700b0468000800078005e08900028
:1052b000808f50001c003600de0890000e10900019
:1052c00080804000b0468000000178005046800099
:1052d00000004100808f500006003e00de08900074
:1052e0000e10900080804000b0468000808f5000fb
:1052f000030031000e11900052468800070037006d
:10530000b0468000800078005046800080804000d9
:105310005e08900000805000504688005e089000b3
:10532000b04688001a003700de0890000e1090008a
:1053300080804000b0468000000178005046800028
:1053400000004100808f500011003600b046800000
:105350008000780050468000808040005e08900009
:10536000808f50000a003900514680005e0990008d
:105370000e10900000014100b04680000001510075
:1053800050468000000051000080400050468800d8
:105390006e0090000000e0001f0032008049800095
:1053a000e70f500002003200204980003049880099
:1053b0009149800000082000008060000000e000ab
:1053c0000500320011c0b30000c1b3001bf8070094
:1053d000efef070010003700904980000070a00038
:1053e00090498800914980000004200000806000fe
:1053f0000000e00008003a00904980000060a00032
:1054000090498800625e0200000000000000780001
:1054100066004000704988000e5090000080fb003c
:1054200061006000004078000004e0005900320094
:10543000f04580000146800061014000e0814800a5
:105440006e0090006102b8001e089000ae08900047
:105450000400400085804800800f5100818f590072
:105460004c003a00f0458000014680006100400099
:10547000e0804800f04588000146880080498000af
:10548000e70f500010003200e70f500003003e000d
:10549000e60f50000600320027003700e80f5000ea
:1054a00011003200e90f50001e00320022003700c8
:1054b000c00020008049880011c0b30010c1b300b3
:1054c000def7070033003700b00020008049880075
:1054d000625e020000000000000078006c004000e6
:1054e0007049880014003700d2458000e3458000f1
:1054f0004e009000de009000800f5100818f590017
:1055000005003a008040eb0000c1b300cbf7070074
:1055100009fb07001f003700a00020008049880019
:10552000050037008040eb0000c1b300c3f707005f
:1055300001fb07001700370011c0b30000c1b30022
:10554000bef707001300370000000000110037000d
:10555000000000000f003700000000000d003700c1
:10556000000000000b0037000000000009003700b9
:1055700000000000070037000000000005003700b1
:1055800000000000030037000000000001003700a9
:10559000000000000080fa00000006000e00fa0083
:1055a000604798004107980052079800434f9800c1
:1055b0006e409000e24f5000020036000000eb0009
:1055c000a90037006e40900049ef07004e009000a0
:1055d0000000e00002003a001000200040079800a0
:1055e000f1488000d0488000008050000000e900b1
:1055f00020079800ce0090005e0090008080400060
:105600002e009000808f5000020036000000eb005a
:10561000950037005eef07004e4890000080fb00c9
:10562000630060000000e00003003a004e48900074
:105630003040b300404f9800de0090001107980002
:10564000ce0090005e00900000804000ae00900010
