:0400000052EF00F0CB
:10000800FACF12F0FBCF13F0E9CF14F08EEF51F0D6
:10001800D8CF01F0E8CF02F0E0CF03F0FACF04F038
:10002800FBCF05F0E9CF06F0EACF07F0E1CF08F003
:10003800E2CF09F0D9CF0AF0DACF0BF0F3CF0CF00A
:10004800F4CF0DF0F6CF0EF0F7CF0FF0F8CF10F099
:10005800F5CF11F000F011C0F5FF10C0F8FF0FC088
:10006800F7FF0EC0F6FF0DC0F4FF0CC0F3FF0BC086
:10007800DAFF0AC0D9FF09C0E2FF08C0E1FF07C0E4
:10008800EAFF06C0E9FF05C0FBFF04C0FAFF03C092
:10009800E0FF02C0E8FF01C0D8FF100075EF53F081
:101000000001000A006400E803102701001000003E
:101010000100105048434D50494331384639374A52
:1010200036302045544845524E455400FFFFFFFFDF
:10103000FFFF00DEAD00BEEF4400E676000D0A0DB6
:101040000A5374617274696E67205379736C6F67A9
:101050002061742025750D0A003031323334353665
:101060003738396162636465660057616974696E17
:101070006720666F72204C696E6B004C696E6B2046
:10108000737461727465640025642E25642E256472
:101090002E2564002575203A2025730D0A00257839
:1010A000203A20256400286E756C6C290000000E23
:1010B0000101296F2A0E302401011D6F000E31201D
:1010C00001011E6F1DC1F6FF1EC1F7FF000EF86E75
:1010D0000F0EF76403D00800F55005D0F6CFE9FFF6
:1010E000F7CFEAFFEF5001012D6F2B0E30240101E5
:1010F0001D6F000E312001011E6F1DC1F6FF1EC1C4
:10110000F7FF000EF86E0F0EF76403D00800F550DD
:1011100005D0F6CFE9FFF7CFEAFFEF5001012C6FC2
:1011200089EF1FF0EAD1020E302401011D6F000E7D
:10113000312001011E6F1DC1F6FF1EC1F7FF000E19
:10114000F86E0F0EF7640DD02AC0F5FF0D002BC00E
:10115000F5FF0D002CC0F5FF0D002DC0F5FF0C00B4
:101160000CD0F6CFE9FFF7CFEAFF2AC0EEFF2BC085
:10117000EEFF2CC0EEFF2DC0EFFF060E3024010164
:101180001D6F000E312001011E6F1DC1F6FF1EC133
:10119000F7FF000EF86E0F0EF76407D0DCC1F5FF05
:1011A0000D00DDC1F5FF0C0008D0F6CFE9FFF7CF49
:1011B000EAFFDCC1EEFFDDC1EFFF140E30240101B8
:1011C0001D6F000E312001011E6F1DC1F6FF1EC1F3
:1011D000F7FF000EF86E0F0EF7640DD0000EF56EDF
:1011E0000D00000EF56E0D00000EF56E0D00000EE8
:1011F000F56E0C000CD0F6CFE9FFF7CFEAFF000E3A
:10120000EE6E000EEE6E000EEE6E000EEF6E080E2D
:10121000302401011D6F000E312001011E6F1DC120
:10122000F6FF1EC1F7FF000EF86E0F0EF7640DD02B
:10123000E0C1F5FF0D00E1C1F5FF0D00E2C1F5FFD2
:101240000D00E3C1F5FF0C000CD0F6CFE9FFF7CF9E
:10125000EAFFE0C1EEFFE1C1EEFFE2C1EEFFE3C154
:10126000EFFF080E302401011D6F000E3120010137
:101270001E6F1DC1F6FF1EC1F7FF000EF86E0F0EA8
:10128000F7640DD00900F5CF1FF10900F5CF20F16B
:101290000900F5CF21F10900F5CF22F10CD0F6CFEE
:1012A000E9FFF7CFEAFFEECF1FF1EECF20F1EECF4F
:1012B00021F1EECF22F1010E01011F250101236F63
:1012C000000E010120210101246F000E01012121E6
:1012D0000101256F000E010122210101266F0C0E74
:1012E00030240101276F000E31200101286F27C132
:1012F000F6FF28C1F7FF000EF86E0F0EF7640DD051
:1013000023C1F5FF0D0024C1F5FF0D0025C1F5FF38
:101310000D0026C1F5FF0C000CD0F6CFE9FFF7CF8A
:10132000EAFF23C1EEFF24C1EEFF25C1EEFF26C177
:10133000EFFF0101EA5101011E6F1D6B21EEEAF082
:10134000DECF1FF1DDCF20F120C11FF10101206BA5
:10135000FF0E01011F17000E201701011D51010191
:101360001F1301011E5101012013180E3024010129
:10137000216F000E31200101226F21C1F6FF22C131
:10138000F7FF000EF86E0F0EF76407D01FC1F5FFD0
:101390000D0020C1F5FF0C0008D0F6CFE9FFF7CF14
:1013A000EAFF1FC1EEFF20C1EFFF1C0E3024010138
:1013B0001D6F000E312001011E6F1DC1F6FF1EC101
:1013C000F7FF000EF86E0F0EF76407D038C0F5FF78
:1013D0000D0039C0F5FF0C0008D0F6CFE9FFF7CFBC
:1013E000EAFF38C0EEFF39C0EFFF350E30240101AF
:1013F0001D6F000E312001011E6F1DC1F6FF1EC1C1
:10140000F7FF000EF86E0F0EF76404D0120EF56EA3
:101410000C0006D0F6CFE9FFF7CFEAFF120EEF6E11
:10142000300E302401011D6F000E312001011E6FAE
:101430001DC1F6FF1EC1F7FF000EF86E0F0EF76418
:1014400007D0020EF56E0D00000EF56E0C0008D0F0
:10145000F6CFE9FFF7CFEAFF020EEE6E000EEF6E59
:10146000320E302401011D6F000E312001011E6F6C
:101470001DC1F6FF1EC1F7FF000EF86E0F0EF764D8
:1014800007D0020EF56E0D00000EF56E0C0008D0B0
:10149000F6CFE9FFF7CFEAFF020EEE6E000EEF6E19
:1014A000340E302401011D6F000E312001011E6F2A
:1014B0001DC1F6FF1EC1F7FF000EF86E0F0EF76498
:1014C00004D0030EF56E0C0006D0F6CFE9FFF7CF7F
:1014D000EAFF030EEF6E30C0BBF031C0BCF001EC90
:1014E00020F057D1000E01012D6F30C020F031C027
:1014F00021F0B7EC39F0C7EF1FF001012C51000AC1
:10150000D8B4F0D7030AD8B40ED6C7EF1FF005EF52
:1015100011F0080E302401011D6F000E3120010171
:101520001E6F1DC1F6FF1EC1F7FF000EF86E0F0EF5
:10153000F7640DD0E0C1F5FF0D00E1C1F5FF0D002E
:10154000E2C1F5FF0D00E3C1F5FF0C000CD0F6CFB2
:10155000E9FFF7CFEAFFE0C1EEFFE1C1EEFFE2C134
:10156000EEFFE3C1EFFF010E0101E02501011D6F58
:10157000000E0101E12101011E6F000E0101E221B7
:1015800001011F6F000E0101E3210101206F0C0E0C
:1015900030240101216F000E31200101226F21C191
:1015A000F6FF22C1F7FF000EF86E0F0EF7640DD0A4
:1015B0001DC1F5FF0D001EC1F5FF0D001FC1F5FF98
:1015C0000D0020C1F5FF0C000CD0F6CFE9FFF7CFDE
:1015D000EAFF1DC1EEFF1EC1EEFF1FC1EEFF20C1DD
:1015E000EFFF0101EA5101011E6F1D6B21EEEAF0D0
:1015F000DECF1FF1DDCF20F120C11FF10101206BF3
:10160000FF0E01011F17000E201701011D510101DE
:101610001F1301011E5101012013180E3024010176
:10162000216F000E31200101226F21C1F6FF22C17E
:10163000F7FF000EF86E0F0EF76407D01FC1F5FF1D
:101640000D0020C1F5FF0C0008D0F6CFE9FFF7CF61
:10165000EAFF1FC1EEFF20C1EFFF1C0E3024010185
:101660001D6F000E312001011E6F1DC1F6FF1EC14E
:10167000F7FF000EF86E0F0EF76407D038C0F5FFC5
:101680000D0039C0F5FF0C0008D0F6CFE9FFF7CF09
:10169000EAFF38C0EEFF39C0EFFF300E3024010101
:1016A0001D6F000E312001011E6F1DC1F6FF1EC10E
:1016B000F7FF000EF86E0F0EF76407D0020EF56EFE
:1016C0000D00000EF56E0C0008D0F6CFE9FFF7CF45
:1016D000EAFF020EEE6E000EEF6E320E30240101B4
:1016E0001D6F000E312001011E6F1DC1F6FF1EC1CE
:1016F000F7FF000EF86E0F0EF76407D0020EF56EBE
:101700000D00000EF56E0C0008D0F6CFE9FFF7CF04
:10171000EAFF020EEE6E000EEF6E340E3024010171
:101720001D6F000E312001011E6F1DC1F6FF1EC18D
:10173000F7FF000EF86E0F0EF76404D0030EF56E7F
:101740000C0006D0F6CFE9FFF7CFEAFF030EEF6EED
:10175000350E302401011D6F000E312001011E6F76
:101760001DC1F6FF1EC1F7FF000EF86E0F0EF764E5
:1017700004D0120EF56E0C0006D0F6CFE9FFF7CFBD
:10178000EAFF120EEF6E30C0BBF031C0BCF001ECCE
:1017900020F0030E11EF16F0300E302401011D6F02
:1017A000000E312001011E6F1DC1F6FF1EC1F7FFA3
:1017B000000EF86E0F0EF76407D0000EF56E0D00E8
:1017C000000EF56E0C0008D0F6CFE9FFF7CFEAFF68
:1017D000000EEE6E000EEF6E100E302401011D6F34
:1017E000000E312001011E6F1DC1F6FF1EC1F7FF63
:1017F000000EF86E0F0EF7640DD00900F5CF1FF143
:101800000900F5CF20F10900F5CF21F10900F5CF4E
:1018100022F10CD0F6CFE9FFF7CFEAFFEECF1FF1B0
:10182000EECF20F1EECF21F1EECF22F1010E01013A
:101830001F250101236F000E010120210101246FEA
:10184000000E010121210101256F000E010122215D
:101850000101266F0101E451010123190FE101018A
:10186000E551010124190AE10101E651010125199F
:1018700005E10101E75101012619D8A46DD1100E2F
:10188000302401011D6F000E312001011E6F1DC1AA
:10189000F6FF1EC1F7FF000EF86E0F0EF7640DD0B5
:1018A0000900F5CF1FF10900F5CF20F10900F5CFB0
:1018B00021F10900F5CF22F10CD0F6CFE9FFF7CFE7
:1018C000EAFFEECF1FF1EECF20F1EECF21F1EECF08
:1018D00022F1010E01011F250101236F000E0101FC
:1018E00020210101246F000E010121210101256F3A
:1018F000000E010122210101266F100E302401018A
:10190000276F000E31200101286F27C1F6FF28C183
:10191000F7FF000EF86E0F0EF7640DD023C1F5FF30
:101920000D0024C1F5FF0D0025C1F5FF0D0026C1F6
:10193000F5FF0C000CD0F6CFE9FFF7CFEAFF23C18B
:10194000EEFF24C1EEFF25C1EEFF26C1EFFF350EED
:10195000302401011D6F000E312001011E6F1DC1D9
:10196000F6FF1EC1F7FF000EF86E0F0EF76404D0ED
:10197000100EF56E0C0006D0F6CFE9FFF7CFEAFFA8
:10198000100EEF6E080E302401011D6F000E312085
:1019900001011E6F1DC1F6FF1EC1F7FF000EF86E9C
:1019A0000F0EF7640DD0E0C1F5FF0D00E1C1F5FFAA
:1019B0000D00E2C1F5FF0D00E3C1F5FF0C000CD0F6
:1019C000F6CFE9FFF7CFEAFFE0C1EEFFE1C1EEFF9E
:1019D000E2C1EEFFE3C1EFFF010E0101E0250101CD
:1019E0001D6F000E0101E12101011E6F000E0101BA
:1019F000E22101011F6F000E0101E3210101206FAF
:101A00000C0E30240101216F000E31200101226FE4
:101A100021C1F6FF22C1F7FF000EF86E0F0EF7642A
:101A20000DD01DC1F5FF0D001EC1F5FF0D001FC13A
:101A3000F5FF0D0020C1F5FF0C000CD0F6CFE9FF3B
:101A4000F7CFEAFF1DC1EEFF1EC1EEFF1FC1EEFF83
:101A500020C1EFFF0101EA5101011E6F1D6B21EE54
:101A6000EAF0DECF1FF1DDCF20F120C11FF101012F
:101A7000206BFF0E01011F17000E201701011D51E1
:101A800001011F1301011E5101012013180E302402
:101A90000101216F000E31200101226F21C1F6FFEB
:101AA00022C1F7FF000EF86E0F0EF76407D01FC1BA
:101AB000F5FF0D0020C1F5FF0C0008D0F6CFE9FFBF
:101AC000F7CFEAFF1FC1EEFF20C1EFFF1C0E30244D
:101AD00001011D6F000E312001011E6F1DC1F6FFB7
:101AE0001EC1F7FF000EF86E0F0EF76407D038C066
:101AF000F5FF0D0039C0F5FF0C0008D0F6CFE9FF67
:101B0000F7CFEAFF38C0EEFF39C0EFFF30C0BBF0BF
:101B100031C0BCF001EC20F00009D8B4C7EF1FF0D1
:101B2000040E01012D6F360E302401011D6F000ED1
:101B3000312001011E6F1DC1F6FF1EC1F7FF000E0F
:101B4000F86E0F0EF76404D0030EF56E0C0002D091
:101B5000D7EF13F0C7EF1FF0100E302401011D6FF7
:101B6000000E312001011E6F1DC1F6FF1EC1F7FFDF
:101B7000000EF86E0F0EF7640DD0E4C1F5FF0D00F6
:101B8000E5C1F5FF0D00E6C1F5FF0D00E7C1F5FF6A
:101B90000C000CD0F6CFE9FFF7CFEAFFE4C1EEFF6F
:101BA000E5C1EEFFE6C1EEFFE7C1EFFF350E3024E1
:101BB00001011D6F000E312001011E6F1DC1F6FFD6
:101BC0001EC1F7FF000EF86E0F0EF76404D0140E5E
:101BD000F56E0C0006D0F6CFE9FFF7CFEAFF140E42
:101BE000EF6E30C0BBF031C0BCF001EC20F000095A
:101BF000D8B4C7EF1FF0000E01012D6F30C020F0E8
:101C000031C021F0B7EC39F0C7EF1FF0300E3024AF
:101C100001011D6F000E312001011E6F1DC1F6FF75
:101C20001EC1F7FF000EF86E0F0EF76407D0000E0E
:101C3000F56E0D00000EF56E0C0008D0F6CFE9FF32
:101C4000F7CFEAFF000EEE6E000EEF6E100E30249E
:101C500001011D6F000E312001011E6F1DC1F6FF35
:101C60001EC1F7FF000EF86E0F0EF7640DD00900CD
:101C7000F5CF1FF10900F5CF20F10900F5CF21F1D3
:101C80000900F5CF22F10CD0F6CFE9FFF7CFEAFF3C
:101C9000EECF1FF1EECF20F1EECF21F1EECF22F10A
:101CA000010E01011F250101236F000E01012021FA
:101CB0000101246F000E010121210101256F000E99
:101CC000010122210101266F0101E45101012319C3
:101CD0000FE10101E551010124190AE10101E65179
:101CE0000101251905E10101E75101012619D8A4D7
:101CF00062D1100E302401011D6F000E3120010150
:101D00001E6F1DC1F6FF1EC1F7FF000EF86E0F0E0D
:101D1000F7640DD00900F5CF1FF10900F5CF20F1D0
:101D20000900F5CF21F10900F5CF22F10CD0F6CF53
:101D3000E9FFF7CFEAFFEECF1FF1EECF20F1EECFB4
:101D400021F1EECF22F1010E01011F250101236FC8
:101D5000000E010120210101246F000E010121214B
:101D60000101256F000E010122210101266F100ED5
:101D700030240101276F000E31200101286F27C197
:101D8000F6FF28C1F7FF000EF86E0F0EF7640DD0B6
:101D900023C1F5FF0D0024C1F5FF0D0025C1F5FF9E
:101DA0000D0026C1F5FF0C000CD0F6CFE9FFF7CFF0
:101DB000EAFF23C1EEFF24C1EEFF25C1EEFF26C1DD
:101DC000EFFF350E302401011D6F000E312001019F
:101DD0001E6F1DC1F6FF1EC1F7FF000EF86E0F0E3D
:101DE000F76404D0100EF56E0C0006D0F6CFE9FFB4
:101DF000F7CFEAFF100EEF6E080E302401011D6FC1
:101E0000000E312001011E6F1DC1F6FF1EC1F7FF3C
:101E1000000EF86E0F0EF7640DD0E0C1F5FF0D0057
:101E2000E1C1F5FF0D00E2C1F5FF0D00E3C1F5FFD3
:101E30000C000CD0F6CFE9FFF7CFEAFFE0C1EEFFD0
:101E4000E1C1EEFFE2C1EEFFE3C1EFFF010E0101D0
:101E5000E02501011D6F000E0101E12101011E6F4E
:101E6000000E0101E22101011F6F000E0101E321BB
:101E70000101206F0C0E30240101216F000E312072
:101E80000101226F21C1F6FF22C1F7FF000EF86E9B
:101E90000F0EF7640DD01DC1F5FF0D001EC1F5FF3B
:101EA0000D001FC1F5FF0D0020C1F5FF0C000CD087
:101EB000F6CFE9FFF7CFEAFF1DC1EEFF1EC1EEFF2F
:101EC0001FC1EEFF20C1EFFF0101EA5101011E6FAA
:101ED0001D6B21EEEAF0DECF1FF1DDCF20F120C136
:101EE0001FF10101206BFF0E01011F17000E2017CB
:101EF00001011D5101011F1301011E510101201398
:101F0000180E30240101216F000E31200101226FD3
:101F100021C1F6FF22C1F7FF000EF86E0F0EF76425
:101F200007D01FC1F5FF0D0020C1F5FF0C0008D040
:101F3000F6CFE9FFF7CFEAFF1FC1EEFF20C1EFFFA9
:101F40001C0E302401011D6F000E312001011E6F97
:101F50001DC1F6FF1EC1F7FF000EF86E0F0EF764ED
:101F600007D038C0F5FF0D0039C0F5FF0C0008D0D0
:101F7000F6CFE9FFF7CFEAFF38C0EEFF39C0EFFF39
:101F8000040E01012D6F360E302401011D6F000E6D
:101F9000312001011E6F1DC1F6FF1EC1F7FF000EAB
:101FA000F86E0F0EF76404D0030EF56E0C0001D02E
:101FB000FED3C7EF1FF0100E302401011D6F000E7D
:101FC000312001011E6F1DC1F6FF1EC1F7FF000E7B
:101FD000F86E0F0EF7640DD0E4C1F5FF0D00E5C1FA
:101FE000F5FF0D00E6C1F5FF0D00E7C1F5FF0C00A0
:101FF0000CD0F6CFE9FFF7CFEAFFE4C1EEFFE5C171
:10200000EEFFE6C1EEFFE7C1EFFF350E3024010120
:102010001D6F000E312001011E6F1DC1F6FF1EC194
:10202000F7FF000EF86E0F0EF76404D0040EF56E85
:102030000C0006D0F6CFE9FFF7CFEAFF040EEF6EF3
:1020400030C0BBF031C0BCF001EC20F00009D8B4C6
:10205000C7EF1FF0000E01012D6F30C020F031C01E
:1020600021F0B7EC39F0C7EF1FF0000E01012D6F22
:1020700030C020F031C021F0B7EC39F0C7EF1FF0CD
:10208000340E302401011D6F000E312001011E6F3E
:102090001DC1F6FF1EC1F7FF000EF86E0F0EF764AC
:1020A00003D00800F55005D0F6CFE9FFF7CFEAFFDF
:1020B000EF500009D8B46DD030C0BBF031C0BCF0D7
:1020C00001EC20F00009D8B4C7EF1FF0350E302422
:1020D00001011D6F000E312001011E6F1DC1F6FFB1
:1020E0001EC1F7FF000EF86E0F0EF76403D0080054
:1020F000F55005D0F6CFE9FFF7CFEAFFEF50010129
:102100001F6F01011FA50BD0000E01012D6F30C004
:1021100020F031C021F0B7EC39F0C7EF1FF0350ED9
:10212000302401011D6F000E312001011E6F1DC101
:10213000F6FF1EC1F7FF000EF86E0F0EF76403D016
:102140000800F55005D0F6CFE9FFF7CFEAFFEF50D2
:1021500001011F6F01011FA9C7EF1FF0040E01014C
:102160002D6F360E302401011D6F000E312001014C
:102170001E6F1DC1F6FF1EC1F7FF000EF86E0F0E99
:10218000F76404D0030EF56E0C0001D010D3C7EF36
:102190001FF0350E302401011D6F000E31200101AA
:1021A0001E6F1DC1F6FF1EC1F7FF000EF86E0F0E69
:1021B000F76404D0040EF56E0C0006D0F6CFE9FFEC
:1021C000F7CFEAFF040EEF6E30C0BBF031C0BCF0B9
:1021D00001EC20F00009D8B4C7EF1FF0000E010198
:1021E0002D6F30C020F031C021F0B7EC39F0C7EFCF
:1021F0001FF000D0000E01012D6F30C020F031C063
:1022000021F0B7EC39F0C7EF1FF001012C51000AA3
:10221000D8B42BD7030AD8B489EF0AF0070AD8B488
:10222000F5D4010AD8B4CCEF0BF00C0AD8B4E2D73D
:10223000030AD8B4DFD7060AD8B422D7C7EF1FF0F5
:1022400093EF17F030C0F6FF31C0F7FF000EF86EC5
:102250000F0EF76407D00900F5CF1DF10900F5CF87
:102260001EF108D0F6CFE9FFF7CFEAFFEECF1DF160
:10227000EECF1EF10101DE5101011D1905E1010141
:10228000DF5101011E19D8A4C7EF1FF0300E302412
:1022900001011D6F000E312001011E6F1DC1F6FFEF
:1022A0001EC1F7FF000EF86E0F0EF76407D0000E88
:1022B000F56E0D00000EF56E0C0008D0F6CFE9FFAC
:1022C000F7CFEAFF000EEE6E000EEF6E020E302426
:1022D00001011D6F000E312001011E6F1DC1F6FFAF
:1022E0001EC1F7FF000EF86E0F0EF7640DD0090047
:1022F000F5CF1FF10900F5CF20F10900F5CF21F14D
:102300000900F5CF22F10CD0F6CFE9FFF7CFEAFFB5
:10231000EECF1FF1EECF20F1EECF21F1EECF22F183
:102320002A5001011F190CE12B500101201908E16D
:102330002C500101211904E12D5001012219D8A4CA
:1023400082D0060E302401011D6F000E31200101E4
:102350001E6F1DC1F6FF1EC1F7FF000EF86E0F0EB7
:10236000F76407D00900F5CF1FF10900F5CF20F180
:1023700008D0F6CFE9FFF7CFEAFFEECF1FF1EECF9F
:1023800020F10101DC5101011F195DE10101DD5165
:1023900001012019D8A457D0100E302401011D6F5F
:1023A000000E312001011E6F1DC1F6FF1EC1F7FF97
:1023B000000EF86E0F0EF7640DD00900F5CF1FF177
:1023C0000900F5CF20F10900F5CF21F10900F5CF83
:1023D00022F10CD0F6CFE9FFF7CFEAFFEECF1FF1E5
:1023E000EECF20F1EECF21F1EECF22F1010E01016F
:1023F0001F250101236F000E010120210101246F1F
:10240000000E010121210101256F000E0101222191
:102410000101266F0101E4510101231914E10101B9
:10242000E551010124190FE10101E65101012519CE
:102430000AE10101E75101012619D8A404D0040ED4
:1024400001012D6F00D0360E302401011D6F000EEA
:10245000312001011E6F1DC1F6FF1EC1F7FF000EE6
:10246000F86E0F0EF76404D0030EF56E0C0001D069
:102470009ED1C7EF1FF0020E302401011D6F000E28
:10248000312001011E6F1DC1F6FF1EC1F7FF000EB6
:10249000F86E0F0EF7640DD00900F5CF1FF109009B
:1024A000F5CF20F10900F5CF21F10900F5CF22F198
:1024B0000CD0F6CFE9FFF7CFEAFFEECF1FF1EECF5A
:1024C00020F1EECF21F1EECF22F12A5001011F19A8
:1024D0000CE12B500101201908E12C5001012119B8
:1024E00004E12D5001012219D8A4C7EF1FF0060EF8
:1024F000302401011D6F000E312001011E6F1DC12E
:10250000F6FF1EC1F7FF000EF86E0F0EF76407D03E
:102510000900F5CF1FF10900F5CF20F108D0F6CF63
:10252000E9FFF7CFEAFFEECF1FF1EECF20F1010177
:10253000DC5101011F1905E10101DD5101012019E3
:10254000D8A4C7EF1FF00C0E302401011D6F000E40
:10255000312001011E6F1DC1F6FF1EC1F7FF000EE5
:10256000F86E0F0EF7640DD00900F5CF1FF10900CA
:10257000F5CF20F10900F5CF21F10900F5CF22F1C7
:102580000CD0F6CFE9FFF7CFEAFFEECF1FF1EECF89
:1025900020F1EECF21F1EECF22F10101E051010156
:1025A0001F190FE10101E151010120190AE10101A7
:1025B000E2510101211905E10101E3510101221953
:1025C000D8A4C7EF1FF0100E302401011D6F000EBC
:1025D000312001011E6F1DC1F6FF1EC1F7FF000E65
:1025E000F86E0F0EF7640DD00900F5CF1FF109004A
:1025F000F5CF20F10900F5CF21F10900F5CF22F147
:102600000CD0F6CFE9FFF7CFEAFFEECF1FF1EECF08
:1026100020F1EECF21F1EECF22F1010E01011F25B5
:102620000101236F000E010120210101246F000E22
:10263000010121210101256F000E0101222101016B
:10264000266F0101E451010123190FE10101E55158
:10265000010124190AE10101E6510101251905E1F1
:102660000101E75101012619D8A4C7EF1FF0100E90
:10267000302401011D6F000E312001011E6F1DC1AC
:10268000F6FF1EC1F7FF000EF86E0F0EF7640DD0B7
:102690000900F5CF1FF10900F5CF20F10900F5CFB2
:1026A00021F10900F5CF22F10CD0F6CFE9FFF7CFE9
:1026B000EAFFEECF1FF1EECF20F1EECF21F1EECF0A
:1026C00022F1010E01011F250101236F000E0101FE
:1026D00020210101246F000E010121210101256F3C
:1026E000000E010122210101266F100E302401018C
:1026F000276F000E31200101286F27C1F6FF28C186
:10270000F7FF000EF86E0F0EF7640DD023C1F5FF32
:102710000D0024C1F5FF0D0025C1F5FF0D0026C1F8
:10272000F5FF0C000CD0F6CFE9FFF7CFEAFF23C18D
:10273000EEFF24C1EEFF25C1EEFF26C1EFFF300EF4
:10274000302401011D6F000E312001011E6F1DC1DB
:10275000F6FF1EC1F7FF000EF86E0F0EF76407D0EC
:10276000000EF56E0D00000EF56E0C0008D0F6CFD1
:10277000E9FFF7CFEAFF000EEE6E000EEF6E040EDB
:1027800001012D6F360E302401011D6F000E312026
:1027900001011E6F1DC1F6FF1EC1F7FF000EF86E8E
:1027A0000F0EF76404D0030EF56E0C0006D0F6CFC2
:1027B000E9FFF7CFEAFF030EEF6EC7EF1FF0300E11
:1027C000302401011D6F000E312001011E6F1DC15B
:1027D000F6FF1EC1F7FF000EF86E0F0EF76407D06C
:1027E000000EF56E0D00000EF56E0C0008D0F6CF51
:1027F000E9FFF7CFEAFF000EEE6E000EEF6E350E2A
:10280000302401011D6F000E312001011E6F1DC11A
:10281000F6FF1EC1F7FF000EF86E0F0EF76404D02E
:10282000010EF56E0C0006D0F6CFE9FFF7CFEAFFF8
:10283000010EEF6E300E302401011D6F000E3120AD
:1028400001011E6F1DC1F6FF1EC1F7FF000EF86EDD
:102850000F0EF76407D0020EF56E0D00000EF56E38
:102860000C0008D0F6CFE9FFF7CFEAFF020EEE6EBC
:10287000000EEF6E320E302401011D6F000E31206C
:1028800001011E6F1DC1F6FF1EC1F7FF000EF86E9D
:102890000F0EF76407D0020EF56E0D00000EF56EF8
:1028A0000C0008D0F6CFE9FFF7CFEAFF020EEE6E7C
:1028B000000EEF6E340E302401011D6F000E31202A
:1028C00001011E6F1DC1F6FF1EC1F7FF000EF86E5D
:1028D0000F0EF76404D0050EF56E0C0006D0F6CF8F
:1028E000E9FFF7CFEAFF050EEF6E050E01012D6F30
:1028F00030C0BBF031C0BCF001EC20F0C7EF1FF0DE
:1029000000D030C0F6FF31C0F7FF000EF86E0F0E9A
:10291000F76407D00900F5CF1DF10900F5CF1EF1CE
:1029200008D0F6CFE9FFF7CFEAFFEECF1DF1EECFEB
:102930001EF10101DE5101011D1905E10101DF5107
:1029400001011E19D8A4C7EF1FF00C0E302401019D
:102950001D6F000E312001011E6F1DC1F6FF1EC14B
:10296000F7FF000EF86E0F0EF7640DD00900F5CFDB
:102970001FF10900F5CF20F10900F5CF21F1090081
:10298000F5CF22F10CD0F6CFE9FFF7CFEAFFEECF7B
:102990001FF1EECF20F1EECF21F1EECF22F10101B8
:1029A000E05101011F190FE10101E151010120195D
:1029B0000AE10101E2510101211905E10101E3519F
:1029C00001012219D8A4C7EF1FF0020E3024010123
:1029D0001D6F000E312001011E6F1DC1F6FF1EC1CB
:1029E000F7FF000EF86E0F0EF7640DD0000EF56EB7
:1029F0000D00000EF56E0D00000EF56E0D00000EC0
:102A0000F56E0C000CD0F6CFE9FFF7CFEAFF000E11
:102A1000EE6E000EEE6E000EEE6E000EEF6E060E07
:102A2000302401011D6F000E312001011E6F1DC1F8
:102A3000F6FF1EC1F7FF000EF86E0F0EF76407D009
:102A4000000EF56E0D00000EF56E0C0008D0F6CFEE
:102A5000E9FFF7CFEAFF000EEE6E000EEF6E100EEC
:102A6000302401011D6F000E312001011E6F1DC1B8
:102A7000F6FF1EC1F7FF000EF86E0F0EF7640DD0C3
:102A8000000EF56E0D00000EF56E0D00000EF56ED9
:102A90000D00000EF56E0C000CD0F6CFE9FFF7CF5D
:102AA000EAFF000EEE6E000EEE6E000EEE6E000EF1
:102AB000EF6E140E302401011D6F000E3120010154
:102AC0001E6F1DC1F6FF1EC1F7FF000EF86E0F0E40
:102AD000F7640DD0000EF56E0D00000EF56E0D00C2
:102AE000000EF56E0D00000EF56E0C000CD0F6CF4A
:102AF000E9FFF7CFEAFF000EEE6E000EEE6E000E5D
:102B0000EE6E000EEF6E080E302401011D6F000EF8
:102B1000312001011E6F1DC1F6FF1EC1F7FF000E1F
:102B2000F86E0F0EF7640DD0000EF56E0D00000E5E
:102B3000F56E0D00000EF56E0D00000EF56E0C002A
:102B40000CD0F6CFE9FFF7CFEAFF000EEE6E000ED5
:102B5000EE6E000EEE6E000EEF6E0C0E30240101D4
:102B60001D6F000E312001011E6F1DC1F6FF1EC139
:102B7000F7FF000EF86E0F0EF7640DD0000EF56E25
:102B80000D00000EF56E0D00000EF56E0D00000E2E
:102B9000F56E0C000CD0F6CFE9FFF7CFEAFF000E80
:102BA000EE6E000EEE6E000EEE6E000EEF6E180E64
:102BB000302401011D6F000E312001011E6F1DC167
:102BC000F6FF1EC1F7FF000EF86E0F0EF76407D078
:102BD000000EF56E0D00000EF56E0C0008D0F6CF5D
:102BE000E9FFF7CFEAFF000EEE6E000EEF6E1C0E4F
:102BF000302401011D6F000E312001011E6F1DC127
:102C0000F6FF1EC1F7FF000EF86E0F0EF76407D037
:102C1000000EF56E0D00000EF56E0C0001D078D19F
:102C2000010E01012D6FC7EF1FF0340E302401019A
:102C30001D6F000E312001011E6F1DC1F6FF1EC168
:102C4000F7FF000EF86E0F0EF76403D00800F55082
:102C500005D0F6CFE9FFF7CFEAFFEF500009D8B46F
:102C600008D030C0BBF031C0BCF001EC20F0C7EFA1
:102C70001FF0350E302401011D6F000E31200101BF
:102C80001E6F1DC1F6FF1EC1F7FF000EF86E0F0E7E
:102C9000F76404D0040EF56E0C0006D0F6CFE9FF01
:102CA000F7CFEAFF040EEF6E30C0BBF031C0BCF0CE
:102CB00001EC20F00009D8B4C7EF1FF0020E302459
:102CC00001011D6F000E312001011E6F1DC1F6FFB5
:102CD0001EC1F7FF000EF86E0F0EF7640DD0000E48
:102CE000F56E0D00000EF56E0D00000EF56E0D0078
:102CF000000EF56E0C000CD0F6CFE9FFF7CFEAFF1F
:102D0000000EEE6E000EEE6E000EEE6E000EEF6E1A
:102D1000060E302401011D6F000E312001011E6FCF
:102D20001DC1F6FF1EC1F7FF000EF86E0F0EF7640F
:102D300007D0000EF56E0D00000EF56E0C0008D0E9
:102D4000F6CFE9FFF7CFEAFF000EEE6E000EEF6E52
:102D5000100E302401011D6F000E312001011E6F85
:102D60001DC1F6FF1EC1F7FF000EF86E0F0EF764CF
:102D70000DD0000EF56E0D00000EF56E0D00000E6C
:102D8000F56E0D00000EF56E0C000CD0F6CFE9FFCD
:102D9000F7CFEAFF000EEE6E000EEE6E000EEE6E46
:102DA000000EEF6E140E302401011D6F000E312055
:102DB00001011E6F1DC1F6FF1EC1F7FF000EF86E68
:102DC0000F0EF7640DD0000EF56E0D00000EF56EBF
:102DD0000D00000EF56E0D00000EF56E0C000CD00F
:102DE000F6CFE9FFF7CFEAFF000EEE6E000EEE6EB3
:102DF000000EEE6E000EEF6E080E302401011D6F06
:102E0000000E312001011E6F1DC1F6FF1EC1F7FF2C
:102E1000000EF86E0F0EF7640DD0000EF56E0D006B
:102E2000000EF56E0D00000EF56E0D00000EF56E35
:102E30000C000CD0F6CFE9FFF7CFEAFF000EEE6EE4
:102E4000000EEE6E000EEE6E000EEF6E0C0E3024D5
:102E500001011D6F000E312001011E6F1DC1F6FF23
:102E60001EC1F7FF000EF86E0F0EF7640DD0000EB6
:102E7000F56E0D00000EF56E0D00000EF56E0D00E6
:102E8000000EF56E0C000CD0F6CFE9FFF7CFEAFF8D
:102E9000000EEE6E000EEE6E000EEE6E000EEF6E89
:102EA000180E302401011D6F000E312001011E6F2C
:102EB0001DC1F6FF1EC1F7FF000EF86E0F0EF7647E
:102EC00007D0000EF56E0D00000EF56E0C0008D058
:102ED000F6CFE9FFF7CFEAFF000EEE6E000EEF6EC1
:102EE0001C0E302401011D6F000E312001011E6FE8
:102EF0001DC1F6FF1EC1F7FF000EF86E0F0EF7643E
:102F000007D0000EF56E0D00000EF56E0C0008D017
:102F1000F6CFE9FFF7CFEAFF000EEE6E000EEF6E80
:102F20007FD6C7EF1FF001012C51000AD8B447D457
:102F3000040AD8B43BEF12F0010AD8B422EF11F022
:102F40000C0AD8B4DED4030AD8B4DBD4060AD8B449
:102F50006CD6C7EF1FF061EF1CF0020E30240101A8
:102F60001D6F000E312001011E6F1DC1F6FF1EC135
:102F7000F7FF000EF86E0F0EF7640DD00900F5CFC5
:102F80001FF10900F5CF20F10900F5CF21F109006B
:102F9000F5CF22F10CD0F6CFE9FFF7CFEAFFEECF65
:102FA0001FF1EECF20F1EECF21F1EECF22F12A502A
:102FB00001011F190CE12B500101201908E12C50CF
:102FC0000101211904E12D5001012219D8A4C7EFF4
:102FD0001FF00C0E302401011D6F000E3120010185
:102FE0001E6F1DC1F6FF1EC1F7FF000EF86E0F0E1B
:102FF000F7640DD00900F5CF1FF10900F5CF20F1DE
:103000000900F5CF21F10900F5CF22F10CD0F6CF60
:10301000E9FFF7CFEAFFEECF1FF1EECF20F1EECFC1
:1030200021F1EECF22F10101E05101011F190FE161
:103030000101E151010120190AE10101E2510101FF
:10304000211905E10101E35101012219D8A4C7EFBB
:103050001FF0140E302401011D6F000E31200101FC
:103060001E6F1DC1F6FF1EC1F7FF000EF86E0F0E9A
:10307000F7640DD00900F5CF1FF10900F5CF20F15D
:103080000900F5CF21F10900F5CF22F10CD0F6CFE0
:10309000E9FFF7CFEAFFEECF1FF1EECF20F1EECF41
:1030A00021F1EECF22F10101E45101011F5D010187
:1030B000E551010120590101E651010121590101A8
:1030C000E75101012259D8B0C7EF1FF0100E30248C
:1030D00001011D6F000E312001011E6F1DC1F6FFA1
:1030E0001EC1F7FF000EF86E0F0EF7640DD0090039
:1030F000F5CF1FF10900F5CF20F10900F5CF21F13F
:103100000900F5CF22F10CD0F6CFE9FFF7CFEAFFA7
:10311000EECF1FF1EECF20F1EECF21F1EECF22F175
:10312000010E01011F250101236F000E0101202165
:103130000101246F000E010121210101256F000E04
:10314000010122210101266F0101E4510101235DEA
:103150000101E551010124590101E65101012559FF
:103160000101E75101012659D8A0CBD1100E30241E
:1031700001011D6F000E312001011E6F1DC1F6FF00
:103180001EC1F7FF000EF86E0F0EF76407D009009E
:10319000F5CF1FF10900F5CF20F108D0F6CFE9FFF8
:1031A000F7CFEAFFEECF1FF1EECF20F121EEE4F0F2
:1031B000DECF21F1DDCF22F10101211F221F214BA2
:1031C000222B01011F510101212501012A6F01015B
:1031D00020510101222101012B6F2AC11DF12BC1B8
:1031E0001EF101011D1F1E1F1D4B1E2B250E30241D
:1031F00001011F6F000E31200101206F1FC1F6FF7A
:1032000020C1F7FF000EF86E0F0EF76407D009001B
:10321000F5CF21F10900F5CF22F108D0F6CFE9FF73
:10322000F7CFEAFFEECF21F1EECF22F101011D51E0
:103230000101212701011E5101012223250E302405
:103240000101236F000E31200101246F23C1F6FF1D
:1032500024C1F7FF000EF86E0F0EF76407D021C1EE
:10326000F5FF0D0022C1F5FF0C0008D0F6CFE9FFF5
:10327000F7CFEAFF21C1EEFF22C1EFFF270E302476
:1032800001011D6F000E312001011E6F1DC1F6FFEF
:103290001EC1F7FF000EF86E0F0EF76407D009008D
:1032A000F5CF1FF10900F5CF20F108D0F6CFE9FFE7
:1032B000F7CFEAFFEECF1FF1EECF20F101012A5147
:1032C00001011F2701012B5101012023270E30246A
:1032D0000101216F000E31200101226F21C1F6FF93
:1032E00022C1F7FF000EF86E0F0EF76407D01FC162
:1032F000F5FF0D0020C1F5FF0C0008D0F6CFE9FF67
:10330000F7CFEAFF1FC1EEFF20C1EFFF270E3024E9
:1033100001011D6F000E312001011E6F1DC1F6FF5E
:103320001EC1F7FF000EF86E0F0EF76407D00900FC
:10333000F5CF1FF10900F5CF20F108D0F6CFE9FF56
:10334000F7CFEAFFEECF1FF1EECF20F101011F51C1
:1033500001012011D8A438D0290E302401011D6F9D
:10336000000E312001011E6F1DC1F6FF1EC1F7FFC7
:10337000000EF86E0F0EF76403D00800F55005D06C
:10338000F6CFE9FFF7CFEAFFEF50020AD8A41CD02E
:10339000290E302401011D6F000E312001011E6F26
:1033A0001DC1F6FF1EC1F7FF000EF86E0F0EF76489
:1033B00004D0000EF56E0C0006D0F6CFE9FFF7CF73
:1033C000EAFF000EEF6E00D021EEE4F0FF0EDE24E7
:1033D00001011D6FFF0EDE2001011E6FFF0EDE20BA
:1033E00001011F6FFF0EDE200101206F140E30243B
:1033F0000101216F000E31200101226F21C1F6FF72
:1034000022C1F7FF000EF86E0F0EF7640DD01DC13C
:10341000F5FF0D001EC1F5FF0D001FC1F5FF0D00EA
:1034200020C1F5FF0C000CD0F6CFE9FFF7CFEAFF83
:103430001DC1EEFF1EC1EEFF1FC1EEFF20C1EFFF59
:10344000100E302401011D6F000E312001011E6F8E
:103450001DC1F6FF1EC1F7FF000EF86E0F0EF764D8
:103460000DD0E4C1F5FF0D00E5C1F5FF0D00E6C18B
:10347000F5FF0D00E7C1F5FF0C000CD0F6CFE9FF1A
:10348000F7CFEAFFE4C1EEFFE5C1EEFFE6C1EEFFD4
:10349000E7C1EFFF34503510D8B4C7EF1FF0080E66
:1034A000302401011D6F000E312001011E6F1DC16E
:1034B000F6FF1EC1F7FF000EF86E0F0EF7640DD079
:1034C000E0C1F5FF0D00E1C1F5FF0D00E2C1F5FF20
:1034D0000D00E3C1F5FF0C000CD0F6CFE9FFF7CFEC
:1034E000EAFFE0C1EEFFE1C1EEFFE2C1EEFFE3C1A2
:1034F000EFFF34C0EDF035C0EEF0F9EC37F0C7EF78
:103500001FF0350E302401011D6F000E3120010126
:103510001E6F1DC1F6FF1EC1F7FF000EF86E0F0EE5
:10352000F76404D0140EF56E0C0006D0F6CFE9FF58
:10353000F7CFEAFF140EEF6E30C0BBF031C0BCF025
:1035400001EC20F00009D8B4C7EF1FF0000E010114
:103550002D6F30C020F031C021F0B7EC39F0C7EF4B
:103560001FF0350E302401011D6F000E31200101C6
:103570001E6F1DC1F6FF1EC1F7FF000EF86E0F0E85
:10358000F76404D0010EF56E0C0006D0F6CFE9FF0B
:10359000F7CFEAFF010EEF6E050E01012D6F30C06F
:1035A000BBF031C0BCF001EC20F0C7EF1FF000D041
:1035B000100E302401011D6F000E312001011E6F1D
:1035C0001DC1F6FF1EC1F7FF000EF86E0F0EF76467
:1035D0000DD0E4C1F5FF0D00E5C1F5FF0D00E6C11A
:1035E000F5FF0D00E7C1F5FF0C000CD0F6CFE9FFA9
:1035F000F7CFEAFFE4C1EEFFE5C1EEFFE6C1EEFF63
:10360000E7C1EFFF0C0E302401011D6F000E3120C9
:1036100001011E6F1DC1F6FF1EC1F7FF000EF86EFF
:103620000F0EF7640DD00900F5CF1FF10900F5CF9B
:1036300020F10900F5CF21F10900F5CF22F10CD0DE
:10364000F6CFE9FFF7CFEAFFEECF1FF1EECF20F183
:10365000EECF21F1EECF22F1010E01011F25010174
:10366000236F000E010120210101246F000E0101D2
:1036700021210101256F000E010122210101266F88
:103680000C0E30240101276F000E31200101286F3C
:1036900027C1F6FF28C1F7FF000EF86E0F0EF76482
:1036A0000DD023C1F5FF0D0024C1F5FF0D0025C18C
:1036B000F5FF0D0026C1F5FF0C000CD0F6CFE9FF99
:1036C000F7CFEAFF23C1EEFF24C1EEFF25C1EEFFD5
:1036D00026C1EFFF360E302401011D6F000E312090
:1036E00001011E6F1DC1F6FF1EC1F7FF000EF86E2F
:1036F0000F0EF76404D0040EF56E0C0006D0F6CF62
:10370000E9FFF7CFEAFF040EEF6E300E302401011F
:103710001D6F000E312001011E6F1DC1F6FF1EC17D
:10372000F7FF000EF86E0F0EF76407D0020EF56E6D
:103730000D00000EF56E0C0008D0F6CFE9FFF7CFB4
:10374000EAFF020EEE6E000EEF6E320E3024010123
:103750001D6F000E312001011E6F1DC1F6FF1EC13D
:10376000F7FF000EF86E0F0EF76407D0020EF56E2D
:103770000D00000EF56E0C0008D0F6CFE9FFF7CF74
:10378000EAFF020EEE6E000EEF6E340E30240101E1
:103790001D6F000E312001011E6F1DC1F6FF1EC1FD
:1037A000F7FF000EF86E0F0EF76404D0050EF56EED
:1037B0000C0006D0F6CFE9FFF7CFEAFF050EEF6E5B
:1037C000350E302401011D6F000E312001011E6FE6
:1037D0001DC1F6FF1EC1F7FF000EF86E0F0EF76455
:1037E00004D0110EF56E0C0006D0F6CFE9FFF7CF2E
:1037F000EAFF110EEF6E090E01012D6F30C0BBF014
:1038000031C0BCF001EC20F0C2D300D0000E0101A9
:103810002D6F30C020F031C021F0B7EC39F0B7D3B4
:10382000340E302401011D6F000E312001011E6F86
:103830001DC1F6FF1EC1F7FF000EF86E0F0EF764F4
:1038400003D00800F55005D0F6CFE9FFF7CFEAFF27
:10385000EF500009D8B407D030C0BBF031C0BCF085
:1038600001EC20F094D3350E302401011D6F000EC1
:10387000312001011E6F1DC1F6FF1EC1F7FF000EB2
:10388000F86E0F0EF76404D0040EF56E0C0006D02F
:10389000F6CFE9FFF7CFEAFF040EEF6E30C0BBF0C2
:1038A00031C0BCF001EC20F00009D8B470D3000E98
:1038B00001012D6F30C020F031C021F0B7EC39F09C
:1038C00066D301012C51000AD8B44BD6040AD8B4EF
:1038D000ADEF17F0020AD8B46BD6010AD8B468D697
:1038E0000E0AD8B493D7030AD8B490D7060AD8B42E
:1038F00097D74DD3DDD0350E302401011D6F000E5A
:10390000312001011E6F1DC1F6FF1EC1F7FF000E21
:10391000F86E0F0EF76404D0100EF56E0C0006D092
:10392000F6CFE9FFF7CFEAFF100EEF6E30C0BBF025
:1039300031C0BCF001EC20F00009D8B428D3080E47
:1039400011EF16F024D3300E302401011D6F000E4C
:10395000312001011E6F1DC1F6FF1EC1F7FF000ED1
:10396000F86E0F0EF76407D0020EF56E0D00000E14
:10397000F56E0C0008D0F6CFE9FFF7CFEAFF020E94
:10398000EE6E000EEF6E340E302401011D6F000E3E
:10399000312001011E6F1DC1F6FF1EC1F7FF000E91
:1039A000F86E0F0EF76404D0010EF56E0C0006D011
:1039B000F6CFE9FFF7CFEAFF010EEF6E060E11EF2B
:1039C00016F0350E302401011D6F000E312001016B
:1039D0001E6F1DC1F6FF1EC1F7FF000EF86E0F0E21
:1039E000F76404D0100EF56E0C0006D0F6CFE9FF98
:1039F000F7CFEAFF100EEF6E30C0BBF031C0BCF065
:103A000001EC20F00009D8B4C2D2C5D0C0D2340E27
:103A1000302401011D6F000E312001011E6F1DC1F8
:103A2000F6FF1EC1F7FF000EF86E0F0EF76403D00D
:103A30000800F55005D0F6CFE9FFF7CFEAFFEF50C9
:103A40000009D8B407D030C0BBF031C0BCF001ECE5
:103A500020F09DD2350E302401011D6F000E312063
:103A600001011E6F1DC1F6FF1EC1F7FF000EF86EAB
:103A70000F0EF76404D0040EF56E0C0006D0F6CFDE
:103A8000E9FFF7CFEAFF040EEF6E30C0BBF031C0A4
:103A9000BCF001EC20F00009D8B479D2000E01018D
:103AA0002D6F30C020F031C021F0B7EC39F06FD26B
:103AB00001012C51040AD8B446D7020AD8B41BD746
:103AC000010AD8B47ED70B0AD8B4A1D760D259D096
:103AD00030C0BBF031C0BCF001EC20F093D757D21E
:103AE000340E302401011D6F000E312001011E6FC4
:103AF0001DC1F6FF1EC1F7FF000EF86E0F0EF76432
:103B000003D00800F55005D0F6CFE9FFF7CFEAFF64
:103B1000EF500009D8B407D030C0BBF031C0BCF0C2
:103B200001EC20F034D2350E302401011D6F000E5F
:103B3000312001011E6F1DC1F6FF1EC1F7FF000EEF
:103B4000F86E0F0EF76404D0040EF56E0C0006D06C
:103B5000F6CFE9FFF7CFEAFF040EEF6E30C0BBF0FF
:103B600031C0BCF001EC20F00009D8B410D2000E36
:103B700001012D6F30C020F031C021F0B7EC39F0D9
:103B800006D201012C51060AD8B4A2D70A0AD8B429
:103B9000A7D7FDD104D00A0E11EF16F0F8D101011C
:103BA0002C51040AD8B4F7D7F2D1C2D000D0020EFB
:103BB000302401011D6F000E312001011E6F1DC157
:103BC000F6FF1EC1F7FF000EF86E0F0EF7640DD062
:103BD0000900F5CF1FF10900F5CF20F10900F5CF5D
:103BE00021F10900F5CF22F10CD0F6CFE9FFF7CF94
:103BF000EAFFEECF1FF1EECF20F1EECF21F1EECFB5
:103C000022F12A5001011F190CE12B50010120194A
:103C100008E12C500101211904E12D500101221964
:103C2000D8A4B5D1060E302401011D6F000E31203D
:103C300001011E6F1DC1F6FF1EC1F7FF000EF86ED9
:103C40000F0EF76407D00900F5CF1FF10900F5CF7B
:103C500020F108D0F6CFE9FFF7CFEAFFEECF1FF152
:103C6000EECF20F10101DC5101011F1905E1010135
:103C7000DD5101012019D8A48AD1000E01012D6F58
:103C800030C020F031C021F0B7EC39F080D1340ED3
:103C9000302401011D6F000E312001011E6F1DC176
:103CA000F6FF1EC1F7FF000EF86E0F0EF76403D08B
:103CB0000800F55005D0F6CFE9FFF7CFEAFFEF5047
:103CC0000009D8B407D030C0BBF031C0BCF001EC63
:103CD00020F05DD1350E302401011D6F000E312022
:103CE00001011E6F1DC1F6FF1EC1F7FF000EF86E29
:103CF0000F0EF76404D0040EF56E0C0006D0F6CF5C
:103D0000E9FFF7CFEAFF040EEF6E30C0BBF031C021
:103D1000BCF001EC20F00009D8B439D1000E01014B
:103D20002D6F30C020F031C021F0B7EC39F02FD129
:103D300001012C51040AD8B43AD7030AD8B437D7B2
:103D40000B0AD8B4A4D723D1000E01012D6F30C0C7
:103D500020F031C021F0B7EC39F019D1D1D0300EBC
:103D6000302401011D6F000E312001011E6F1DC1A5
:103D7000F6FF1EC1F7FF000EF86E0F0EF76407D0B6
:103D8000020EF56E0D00000EF56E0C0008D0F6CF99
:103D9000E9FFF7CFEAFF020EEE6E000EEF6E320E75
:103DA000302401011D6F000E312001011E6F1DC165
:103DB000F6FF1EC1F7FF000EF86E0F0EF76407D076
:103DC000020EF56E0D00000EF56E0C0008D0F6CF59
:103DD000E9FFF7CFEAFF020EEE6E000EEF6E340E33
:103DE000302401011D6F000E312001011E6F1DC125
:103DF000F6FF1EC1F7FF000EF86E0F0EF76404D039
:103E0000030EF56E0C0006D0F6CFE9FFF7CFEAFF00
:103E1000030EEF6E350E302401011D6F000E3120B0
:103E200001011E6F1DC1F6FF1EC1F7FF000EF86EE7
:103E30000F0EF76404D0020EF56E0C0006D0F6CF1C
:103E4000E9FFF7CFEAFF020EEF6E30C0BBF031C0E2
:103E5000BCF001EC20F0020E4FD0010E0101296FE1
:103E600096D0020E302401011D6F000E3120010199
:103E70001E6F1DC1F6FF1EC1F7FF000EF86E0F0E7C
:103E8000F7640DD0000EF56E0D00000EF56E0D00FE
:103E9000000EF56E0D00000EF56E0C000CD0F6CF86
:103EA000E9FFF7CFEAFF000EEE6E000EEE6E000E99
:103EB000EE6E000EEF6E060E302401011D6F000E37
:103EC000312001011E6F1DC1F6FF1EC1F7FF000E5C
:103ED000F86E0F0EF76407D0000EF56E0D00000EA1
:103EE000F56E0C0008D0F6CFE9FFF7CFEAFF000E21
:103EF000EE6E000EEF6E010E01012D6FAED747D0B2
:103F000001012C51010AD8B42AD7030AD8B4A9D781
:103F10003ED02A0E302401011D6F000E3120010118
:103F20001E6F1DC1F6FF1EC1F7FF000EF86E0F0ECB
:103F3000F76403D00800F55005D0F6CFE9FFF7CFBE
:103F4000EAFFEF50000AD8B4DBD7010AD8B47DEFFE
:103F50000AF0030AD8B405EF11F0010AD8B493EFC0
:103F600017F0070AD8B4ADD4010AD8B4A1D5030A12
:103F7000D8B407D6010AD8B40AD00F0AD8B40FD6DD
:103F8000010AD8B4D5D6030AD8B4DED600D02B0E99
:103F9000302401011D6F000E312001011E6F1DC173
:103FA000F6FF1EC1F7FF000EF86E0F0EF76404D087
:103FB0000D0EF56E0C0006D0F6CFE9FFF7CFEAFF45
:103FC0000D0EEF6E2A0E302401011D6F000E312000
:103FD00001011E6F1DC1F6FF1EC1F7FF000EF86E36
:103FE0000F0EF76404D02DC1F5FF0C0006D0F6CFFC
:103FF000E9FFF7CFEAFF2DC1EFFF010129511200C0
:104000001200000E0101066FBBC0F6FFBCC0F7FF37
:10401000000EF86E0F0EF76407D00900F5CFBDF063
:104020000900F5CFBEF008D0F6CFE9FFF7CFEAFFE1
:10403000EECFBDF0EECFBEF00001BD510001C06F6C
:10404000BF6BBBC0F6FFBCC0F7FF000EF86E0F0ED3
:10405000F76407D00900F5CFC1F00900F5CFC2F031
:1040600008D0F6CFE9FFF7CFEAFFEECFC1F0EECFF1
:10407000C2F0C2C0C1F00001C26BFF0E0001C11747
:10408000000EC2170001BF510001C1110101096FEB
:104090000001C0510001C21101010A6F060E0001AA
:1040A000BB250001BD6F000E0001BC210001BE6FE9
:1040B000BDC0F6FFBEC0F7FF000EF86E0F0EF7642E
:1040C00007D00900F5CFBFF00900F5CFC0F008D048
:1040D000F6CFE9FFF7CFEAFFEECFBFF0EECFC0F0AB
:1040E0000001BF510001C26FC16B060E0001BB256C
:1040F0000001C36F000E0001BC210001C46FC3C0EA
:10410000F6FFC4C0F7FF000EF86E0F0EF76407D07D
:104110000900F5CFC5F00900F5CFC6F008D0F6CFFD
:10412000E9FFF7CFEAFFEECFC5F0EECFC6F0C6C08D
:10413000C5F00001C66BFF0E0001C517000EC617C3
:104140000001C1510001C51101010B6F0001C251F5
:104150000001C61101010C6F100E0001BB2500010A
:10416000BD6F000E0001BC210001BE6FBDC0F6FF97
:10417000BEC0F7FF000EF86E0F0EF7640DD00900F9
:10418000F5CFBFF00900F5CFC0F00900F5CFC1F0C1
:104190000900F5CFC2F00CD0F6CFE9FFF7CFEAFF68
:1041A000EECFBFF0EECFC0F0EECFC1F0EECFC2F059
:1041B000FF0E0001BF150001C36F000E0001C01506
:1041C0000001C46F000E0001C1150001C56F000E93
:1041D0000001C2150001C66FC3C0C6F00001C56B67
:1041E000C46BC36B100E0001BB250001C76F000E2E
:1041F0000001BC210001C86FC7C0F6FFC8C0F7FFAF
:10420000000EF86E0F0EF7640DD00900F5CFC9F05F
:104210000900F5CFCAF00900F5CFCBF00900F5CFC2
:10422000CCF00CD0F6CFE9FFF7CFEAFFEECFC9F024
:10423000EECFCAF0EECFCBF0EECFCCF0000E000107
:10424000C9150001CD6FFF0E0001CA150001CE6F28
:10425000000E0001CB150001CF6F000E0001CC1540
:104260000001D06FCFC0D0F0CEC0CFF0CDC0CEF027
:104270000001CD6B100E0001BB250001D16F000EB7
:104280000001BC210001D26FD1C0F6FFD2C0F7FF00
:10429000000EF86E0F0EF7640DD00900F5CFD3F0C5
:1042A0000900F5CFD4F00900F5CFD5F00900F5CF1E
:1042B000D6F00CD0F6CFE9FFF7CFEAFFEECFD3F080
:1042C000EECFD4F0EECFD5F0EECFD6F0D4C0D3F011
:1042D000D5C0D4F0D6C0D5F00001D66B000E0001D9
:1042E000D3150001D76FFF0E0001D4150001D86F60
:1042F000000E0001D5150001D96F000E0001D61582
:104300000001DA6F100E0001BB250001DB6F000E0B
:104310000001BC210001DC6FDBC0F6FFDCC0F7FF51
:10432000000EF86E0F0EF7640DD00900F5CFDDF02A
:104330000900F5CFDEF00900F5CFDFF00900F5CF79
:10434000E0F00CD0F6CFE9FFF7CFEAFFEECFDDF0DB
:10435000EECFDEF0EECFDFF0EECFE0F0000E0001AA
:10436000DD150001E16F000E0001DE150001E26FB6
:10437000000E0001DF150001E36FFF0E0001E015E4
:104380000001E46F190E06D00001D890E433E33346
:10439000E233E133E82EF8D70001D7510001E111F3
:1043A0000001E56F0001D8510001E2110001E66F44
:1043B0000001D9510001E3110001E76F0001DA515A
:1043C0000001E4110001E86F0001CD510001E51189
:1043D0000001E96F0001CE510001E6110001EA6F12
:1043E0000001CF510001E7110001EB6F0001D05136
:1043F0000001E8110001EC6F0001C3510001E91157
:1044000001010D6F0001C4510001EA1101010E6F9D
:104410000001C5510001EB1101010F6F0001C651F0
:104420000001EC110101106F0C0E0001BB25000111
:10443000BD6F000E0001BC210001BE6FBDC0F6FFC4
:10444000BEC0F7FF000EF86E0F0EF7640DD0090026
:10445000F5CFBFF00900F5CFC0F00900F5CFC1F0EE
:104460000900F5CFC2F00CD0F6CFE9FFF7CFEAFF95
:10447000EECFBFF0EECFC0F0EECFC1F0EECFC2F086
:10448000FF0E0001BF150001C36F000E0001C01533
:104490000001C46F000E0001C1150001C56F000EC0
:1044A0000001C2150001C66FC3C0C6F00001C56B94
:1044B000C46BC36B0C0E0001BB250001C76F000E5F
:1044C0000001BC210001C86FC7C0F6FFC8C0F7FFDC
:1044D000000EF86E0F0EF7640DD00900F5CFC9F08D
:1044E0000900F5CFCAF00900F5CFCBF00900F5CFF0
:1044F000CCF00CD0F6CFE9FFF7CFEAFFEECFC9F052
:10450000EECFCAF0EECFCBF0EECFCCF0000E000134
:10451000C9150001CD6FFF0E0001CA150001CE6F55
:10452000000E0001CB150001CF6F000E0001CC156D
:104530000001D06FCFC0D0F0CEC0CFF0CDC0CEF054
:104540000001CD6B0C0E0001BB250001D16F000EE8
:104550000001BC210001D26FD1C0F6FFD2C0F7FF2D
:10456000000EF86E0F0EF7640DD00900F5CFD3F0F2
:104570000900F5CFD4F00900F5CFD5F00900F5CF4B
:10458000D6F00CD0F6CFE9FFF7CFEAFFEECFD3F0AD
:10459000EECFD4F0EECFD5F0EECFD6F0D4C0D3F03E
:1045A000D5C0D4F0D6C0D5F00001D66B000E000106
:1045B000D3150001D76FFF0E0001D4150001D86F8D
:1045C000000E0001D5150001D96F000E0001D615AF
:1045D0000001DA6F0C0E0001BB250001DB6F000E3D
:1045E0000001BC210001DC6FDBC0F6FFDCC0F7FF7F
:1045F000000EF86E0F0EF7640DD00900F5CFDDF058
:104600000900F5CFDEF00900F5CFDFF00900F5CFA6
:10461000E0F00CD0F6CFE9FFF7CFEAFFEECFDDF008
:10462000EECFDEF0EECFDFF0EECFE0F0000E0001D7
:10463000DD150001E16F000E0001DE150001E26FE3
:10464000000E0001DF150001E36FFF0E0001E01511
:104650000001E46F190E06D00001D890E433E33373
:10466000E233E133E82EF8D70001D7510001E11120
:104670000001E56F0001D8510001E2110001E66F71
:104680000001D9510001E3110001E76F0001DA5187
:104690000001E4110001E86F0001CD510001E511B6
:1046A0000001E96F0001CE510001E6110001EA6F3F
:1046B0000001CF510001E7110001EB6F0001D05163
:1046C0000001E8110001EC6F0001C3510001E91184
:1046D0000101116F0001C4510001EA110101126FC3
:1046E0000001C5510001EB110101136F0001C6511A
:1046F0000001EC110101146F01011591159315953D
:104700001597010115510F0B5009156F1A0E000175
:10471000BB250001BD6F000E0001BC210001BE6F72
:10472000BDC0F6FFBEC0F7FF000EF86E0F0EF764B7
:1047300007D00900F5CFBFF00900F5CFC0F008D0D1
:10474000F6CFE9FFF7CFEAFFEECFBFF0EECFC0F034
:104750000001BF510001C26FC16B1A0E0001BB25E1
:104760000001C36F000E0001BC210001C46FC3C073
:10477000F6FFC4C0F7FF000EF86E0F0EF76407D007
:104780000900F5CFC5F00900F5CFC6F008D0F6CF87
:10479000E9FFF7CFEAFFEECFC5F0EECFC6F0C6C017
:1047A000C5F00001C66BFF0E0001C517000EC6174D
:1047B0000001C1510001C5110101176F0001C25173
:1047C0000001C6110101186F000E01011A6F000EE1
:1047D000196F000E01011C6F000E1B6F350E0001DA
:1047E000BB250001BD6F000E0001BC210001BE6FA2
:1047F000BDC0F6FFBEC0F7FF000EF86E0F0EF764E7
:1048000003D00800F55005D0F6CFE9FFF7CFEAFF57
:10481000EF500001BF6F060E0001BF17D8B406D0DD
:10482000000E0101086F000E076FCED1270E0001A8
:10483000BB250001BD6F000E0001BC210001BE6F51
:10484000BDC0F6FFBEC0F7FF000EF86E0F0EF76496
:1048500007D00900F5CF07F10900F5CF08F108D01E
:10486000F6CFE9FFF7CFEAFFEECF07F1EECF08F181
:104870000101075101010811D8B4A6D1180E000199
:10488000BB250001BD6F000E0001BC210001BE6F01
:10489000BDC0F6FFBEC0F7FF000EF86E0F0EF76446
:1048A00007D00900F5CFBFF00900F5CFC0F008D060
:1048B000F6CFE9FFF7CFEAFFEECFBFF0EECFC0F0C3
:1048C000010107510001BF5D010108510001C059FC
:1048D000D8B022D0180E0001BB250001BD6F000E1C
:1048E0000001BC210001BE6FBDC0F6FFBEC0F7FFD6
:1048F000000EF86E0F0EF76407D00900F5CF07F130
:104900000900F5CF08F108D0F6CFE9FFF7CFEAFFAD
:10491000EECF07F1EECF08F11C0E0001BB25000120
:10492000BD6F000E0001BC210001BE6FBDC0F6FFCF
:10493000BEC0F7FF000EF86E0F0EF76407D0090037
:10494000F5CFBFF00900F5CFC0F008D0F6CFE9FFF2
:10495000F7CFEAFFEECFBFF0EECFC0F00101075175
:104960000001BF5D010108510001C059D8B022D03B
:104970001C0E0001BB250001BD6F000E0001BC2113
:104980000001BE6FBDC0F6FFBEC0F7FF000EF86E9F
:104990000F0EF76407D00900F5CF07F10900F5CF36
:1049A00008F108D0F6CFE9FFF7CFEAFFEECF07F125
:1049B000EECF08F1250E0001BB250001BD6F000EF2
:1049C0000001BC210001BE6FBDC0F6FFBEC0F7FFF5
:1049D000000EF86E0F0EF76407D00900F5CF00F156
:1049E0000900F5CF01F108D0F6CFE9FFF7CFEAFFD4
:1049F000EECF00F1EECF01F1250E0001BB25000145
:104A0000BD6F000E0001BC210001BE6FBDC0F6FFEE
:104A1000BEC0F7FF000EF86E0F0EF76407D0090056
:104A2000F5CFBFF00900F5CFC0F008D0F6CFE9FF11
:104A3000F7CFEAFFEECFBFF0EECFC0F00101075194
:104A40000001BF27010108510001C023250E00010C
:104A5000BB250001C16F000E0001BC210001C26F27
:104A6000C1C0F6FFC2C0F7FF000EF86E0F0EF7646C
:104A700007D0BFC0F5FF0D00C0C0F5FF0C0008D087
:104A8000F6CFE9FFF7CFEAFFBFC0EEFFC0C0EFFFF0
:104A9000270E0001BB250001BD6F000E0001BC21E7
:104AA0000001BE6FBDC0F6FFBEC0F7FF000EF86E7E
:104AB0000F0EF76407D00900F5CFBFF00900F5CF5E
:104AC000C0F008D0F6CFE9FFF7CFEAFFEECFBFF096
:104AD000EECFC0F007C1C1F008C1C2F00001C11F94
:104AE000C21FC14BC22B0001BF510001C1270001F1
:104AF000C0510001C223270E0001BB250001C36F76
:104B0000000E0001BC210001C46FC3C0F6FFC4C089
:104B1000F7FF000EF86E0F0EF76407D0C1C0F5FF67
:104B20000D00C2C0F5FF0C0008D0F6CFE9FFF7CFAB
:104B3000EAFFC1C0EEFFC2C0EFFF270E0001BB2598
:104B40000001BD6F000E0001BC210001BE6FBDC0A1
:104B5000F6FFBEC0F7FF000EF86E0F0EF76407D029
:104B60000900F5CFBFF00900F5CFC0F008D0F6CFAF
:104B7000E9FFF7CFEAFFEECFBFF0EECFC0F00001C4
:104B8000BF510001C011D8A41FD0350E0001BB25B4
:104B90000001BD6F000E0001BC210001BE6FBDC051
:104BA000F6FFBEC0F7FF000EF86E0F0EF76405D0DB
:104BB000080E0800F5120C0006D0F6CFE9FFF7CF7B
:104BC000EAFF080EEF1200D0350E0001BB250001F0
:104BD000BD6F000E0001BC210001BE6FBDC0F6FF1D
:104BE000BEC0F7FF000EF86E0F0EF76403D008008A
:104BF000F55005D0F6CFE9FFF7CFEAFFEF500101FE
:104C0000166F140E010107250101046F000E01014A
:104C100008210101056F020E0001BB250001BD6FD7
:104C2000000E0001BC210001BE6FBDC0F6FFBEC07A
:104C3000F7FF000EF86E0F0EF7640DD00900F5CFE8
:104C4000A7F00900F5CFA8F00900F5CFA9F00900F9
:104C5000F5CFAAF00CD0F6CFE9FFF7CFEAFFEECF01
:104C6000A7F0EECFA8F0EECFA9F0EECFAAF0060E97
:104C70000001AB6FDEEC41F00101066F010106514E
:104C80000101D8B45CD0090E0001606F010E000173
:104C9000616F000E0001636F140E626F58EC51F0EB
:104CA0000101075101010811D8B40BD000C160F017
:104CB00001C161F007C162F008C163F058EC51F026
:104CC00000D0060E010104250101026F000E010152
:104CD00005210101036F000E0001686F1A0E676F56
:104CE000080E010104250001696F000E0101052174
:104CF00000016A6F02C16BF003C16CF0E2EC42F09C
:104D000067C002F168C003F1020E0001676F010E77
:104D10000001686F000E00016A6F020E696F000EDD
:104D200000016C6F320E6B6FEEEC4FF004C179F046
:104D300005C17AF02BEC4BF00101066F00D00101A8
:104D400006510101D8A488D0340E0001BB25000112
:104D5000BD6F000E0001BC210001BE6FBDC0F6FF9B
:104D6000BEC0F7FF000EF86E0F0EF76403D0080008
:104D7000F55005D0F6CFE9FFF7CFEAFFEF5000017D
:104D8000BF6F010E0001BF27340E0001BB250001DB
:104D9000C06F000E0001BC210001C16FC0C0F6FF52
:104DA000C1C0F7FF000EF86E0F0EF76404D0BFC04D
:104DB000F5FF0C0006D0F6CFE9FFF7CFEAFFBFC042
:104DC000EFFF300E0001BB250001BD6F000E00019A
:104DD000BC210001BE6FBDC0F6FFBEC0F7FF000ED4
:104DE000F86E0F0EF76407D00900F5CFBFF0090089
:104DF000F5CFC0F008D0F6CFE9FFF7CFEAFFEECF4E
:104E0000BFF0EECFC0F00001BF510001C011D8A427
:104E100092D0300E0001BB250001BD6F000E0001D5
:104E2000BC210001BE6FBDC0F6FFBEC0F7FF000E83
:104E3000F86E0F0EF76407D0020EF56E0D00000E2F
:104E4000F56E0C0008D0F6CFE9FFF7CFEAFF020EAF
:104E5000EE6E000EEF6E6FD0100E0001BB2500014C
:104E6000BD6F000E0001BC210001BE6FBDC0F6FF8A
:104E7000BEC0F7FF000EF86E0F0EF7640DD00900EC
:104E8000F5CFBFF00900F5CFC0F00900F5CFC1F0B4
:104E90000900F5CFC2F00CD0F6CFE9FFF7CFEAFF5B
:104EA000EECFBFF0EECFC0F0EECFC1F0EECFC2F04C
:104EB000010107510001BF250001C36F0101085125
:104EC0000001C0210001C46F000E0001C1210001DA
:104ED000C56F000E0001C2210001C66F100E000157
:104EE000BB250001C76F000E0001BC210001C86F87
:104EF000C7C0F6FFC8C0F7FF000EF86E0F0EF764CC
:104F00000DD0C3C0F5FF0D00C4C0F5FF0D00C5C036
:104F1000F5FF0D00C6C0F5FF0C000CD0F6CFE9FF81
:104F2000F7CFEAFFC3C0EEFFC4C0EEFFC5C0EEFF7F
:104F3000C6C0EFFF00D00101065112001200000EA2
:104F40000101506F000E0101516F000E0101526FFF
:104F5000000E2A6E000E2B6E000E2C6E000E2D6EB3
:104F6000000E356E000E346EDC0E0001606F010E17
:104F70000001616F000E0001636F140E626FF6ECAA
:104F80004DF0000E306E000E316E0101DE51010158
:104F9000DF11D8B412000101DC510101DD11D8B4D8
:104FA00012000101DC510101356F346BDCC136F1B7
:104FB000DDC137F137C136F10101376BFF0E010159
:104FC0003617000E37170101345101013611010166
:104FD000DC6F01013551010137110101DD6F010164
:104FE000DE510101356F346B21EEDEF0DECF36F19C
:104FF000DDCF37F137C136F10101376BFF0E01010B
:105000003617000E37170101345101013611010125
:10501000DE6F01013551010137110101DF6F36C02B
:1050200051F137C052F14ED051C1F6FF52C1F7FFD6
:10503000000EF86E0F0EF76407D00900F5CF34F1BB
:105040000900F5CF35F108D0F6CFE9FFF7CFEAFF39
:10505000EECF34F1EECF35F1010134510101DE190B
:105060000CE1010135510101DF19D8A406D051C16D
:1050700030F052C131F039D025D02C0E010151252C
:105080000101346F000E010152210101356F34C15D
:10509000F6FF35C1F7FF000EF86E0F0EF76407D06C
:1050A0000900F5CF51F10900F5CF52F108D0F6CF44
:1050B000E9FFF7CFEAFFEECF51F1EECF52F1010158
:1050C000502B00D00101515101015211D8B40DD023
:1050D00001015051800A0101346F3C50800A0101E6
:1050E000345DD8B002D0A0D700D030503110D8B441
:1050F0001200060E30240101346F000E3120010130
:10510000356F34C1F6FF35C1F7FF000EF86E0F0E94
:10511000F76407D00900F5CF36F10900F5CF37F174
:1051200008D0F6CFE9FFF7CFEAFFEECF36F1EECFAA
:1051300037F10101DC510101361906E10101DD51B0
:1051400001013719D8B434D0020E30240101346F74
:10515000000E31200101356F34C1F6FF35C1F7FF74
:10516000000EF86E0F0EF7640DD00900F5CF36F182
:105170000900F5CF37F10900F5CF38F10900F5CF77
:1051800039F10CD0F6CFE9FFF7CFEAFFEECF36F1D9
:10519000EECF37F1EECF38F1EECF39F101013651D4
:1051A000010137110101381101013911D8A4120090
:1051B0002EC12AF02FC12BF030C12CF031C12DF0BF
:1051C0000101E8390F0B0101346F356B0101D890F3
:1051D000343735370101D890343735370101341F62
:1051E000351F344B352B0101325101013425346E0A
:1051F0000101335101013521356ED7EC43F0E8064A
:10520000D8A412000101E9A33BD00101E9A91CD0F7
:105210002B0E30240101346F000E31200101356F57
:1052200034C1F6FF35C1F7FF000EF86E0F0EF764BC
:1052300004D0050EF56E0C0006D0F6CFE9FFF7CFCF
:10524000EAFF050EB6D0B7D02B0E30240101346F23
:10525000000E31200101356F34C1F6FF35C1F7FF73
:10526000000EF86E0F0EF76404D0030EF56E0C00FE
:1052700006D0F6CFE9FFF7CFEAFF030E9AD09BD016
:105280000101E9A13BD00101E9A91CD02B0E30247A
:105290000101346F000E31200101356F34C1F6FF7A
:1052A00035C1F7FF000EF86E0F0EF76404D0070E3D
:1052B000F56E0C0006D0F6CFE9FFF7CFEAFF070E38
:1052C00078D079D02B0E30240101346F000E3120BC
:1052D0000101356F34C1F6FF35C1F7FF000EF86EDE
:1052E0000F0EF76404D0060EF56E0C0006D0F6CF54
:1052F000E9FFF7CFEAFF060E5CD05DD00101E9A51A
:105300003BD00101E9A91CD02B0E30240101346FE0
:10531000000E31200101356F34C1F6FF35C1F7FFB2
:10532000000EF86E0F0EF76404D00A0EF56E0C0036
:1053300006D0F6CFE9FFF7CFEAFF0A0E3AD03BD00E
:105340002B0E30240101346F000E31200101356F26
:1053500034C1F6FF35C1F7FF000EF86E0F0EF7648B
:1053600004D0090EF56E0C0006D0F6CFE9FFF7CF9A
:10537000EAFF090E1ED01FD00101E9A91CD02B0E97
:1053800030240101346F000E31200101356F34C12A
:10539000F6FF35C1F7FF000EF86E0F0EF76404D06C
:1053A000040EF56E0C0006D0F6CFE9FFF7CFEAFF4A
:1053B000040EEF6E00D0FF0E0101E4150101346F01
:1053C000000E0101E5150101356F000E0101E61522
:1053D0000101366F000E0101E7150101376F34C17D
:1053E00037F10101366B356B346B21EEE4F0000EC2
:1053F000DE140101386FFF0EDE140101396F000E5B
:10540000DE1401013A6F000EDE1401013B6F3AC158
:105410003BF139C13AF138C139F10101386BE4C1CE
:105420003CF1E5C13DF1E6C13EF1E7C13FF13DC1CF
:105430003CF13EC13DF13FC13EF101013F6B000E29
:1054400001013C150101406FFF0E01013D150101F5
:10545000416F000E01013E150101426F000E010176
:105460003F150101436F21EEE4F0000EDE1401014F
:10547000446F000EDE140101456F000EDE140101C1
:10548000466FFF0EDE140101476F190E06D00101B1
:10549000D8904733463345334433E82EF8D70101DB
:1054A0004051010144110101486F010141510101C5
:1054B00045110101496F01014251010146110101EC
:1054C0004A6F010143510101471101014B6F010175
:1054D00038510101481101014C6F0101395101019D
:1054E000491101014D6F01013A5101014A110101B8
:1054F0004E6F01013B5101014B1101014F6F010141
:10550000345101014C110101E46F010135510101D8
:105510004D110101E56F0101365101014E110101EB
:10552000E66F0101375101014F110101E76FFF0ED5
:105530000101E0150101346F000E0101E1150101C7
:10554000356F000E0101E2150101366F000E0101F9
:10555000E3150101376F34C137F10101366B356B4B
:10556000346B21EEE0F0000EDE140101386FFF0E07
:10557000DE140101396F000EDE1401013A6F000ED6
:10558000DE1401013B6F3AC13BF139C13AF138C138
:1055900039F10101386BE0C13CF1E1C13DF1E2C1FB
:1055A0003EF1E3C13FF13DC13CF13EC13DF13FC1A0
:1055B0003EF101013F6B000E01013C150101406FFE
:1055C000FF0E01013D150101416F000E01013E1565
:1055D0000101426F000E01013F150101436F21EEF1
:1055E000E0F0000EDE140101446F000EDE14010134
:1055F000456F000EDE140101466FFF0EDE1401013F
:10560000476F190E06D00101D89047334633453312
:105610004433E82EF8D70101405101014411010142
:10562000486F01014151010145110101496F01011B
:1056300042510101461101014A6F0101435101012B
:10564000471101014B6F010138510101481101015E
:105650004C6F010139510101491101014D6F0101E7
:105660003A5101014A1101014E6F01013B51010103
:105670004B1101014F6F0101345101014C11010126
:10568000E06F0101355101014D110101E16F01018F
:10569000365101014E110101E26F01013751010143
:1056A0004F110101E36F57EC08F012001200000ED9
:1056B00000018D6F940E0001606F000E0001616F9C
:1056C000000E0001636F1C0E626FF6EC4DF060C0BF
:1056D0008AF061C08BF01C0E00018A1900018B1149
:1056E000D8A41200000E00018C6F000E0001926F12
:1056F000030E0001936F080E0001906F000190519E
:105700000001D8B44AD001D048D0000120EE06F004
:105710009251D9269351DA22DE500001A21935E1C7
:10572000DE500001A31931E1DE500001A4192DE182
:10573000DE500001A519D8A428D0000120EE0AF0FF
:105740009251D9269351DA22DE50000196191DE1BB
:10575000DE5000019719D8A418D0000120EE0CF0FB
:105760009251D9269351DA22000EDF6E20EE9CF082
:1057700092C0E1FF93C0E2FF050EDBCFE3FFE80636
:10578000FCE2010E00018C6F08D00D0E0001922783
:10579000000E932300019007B1D726502710281040
:1057A0002910D8B4EED2FF0E0001AC1500016A6FCB
:1057B000000E0001AD1500016B6F000E0001AE156B
:1057C00000016C6F000E0001AF1500016D6F6AC023
:1057D0006DF000016C6B6B6B6A6B20EEACF0000E31
:1057E000DE1400016E6FFF0EDE1400016F6F000EFD
:1057F000DE140001706F000EDE140001716F70C0C6
:1058000071F06FC070F06EC06FF000016E6BACC0D5
:1058100072F0ADC073F0AEC074F0AFC075F073C07D
:1058200072F074C073F075C074F00001756B000EF7
:10583000000172150001766FFF0E00017315000163
:10584000776F000E000174150001786F000E0001E3
:1058500075150001796F20EEACF0000EDE1400012A
:105860007A6F000EDE1400017B6F000EDE14000163
:105870007C6FFF0EDE1400017D6F190E06D0000153
:10588000D8907D337C337B337A33E82EF8D7000110
:10589000765100017A1100017E6F000177510001FD
:1058A0007B1100017F6F0001785100017C11000124
:1058B000806F0001795100017D110001816F0001AD
:1058C0006E5100017E110001826F00016F510001D5
:1058D0007F110001836F00017051000180110001F0
:1058E000846F00017151000181110001856F000179
:1058F0006A51000182110001866F00016B510001A5
:1059000083110001876F00016C51000184110001B7
:10591000886F00016D51000185110001896F2650CB
:10592000000186190CE127500001871908E1285071
:105930000001881904E1295000018919D8A421D255
:1059400000018C510001D8A41FD1000E0001926FFC
:10595000030E0001936F000E00018E6F030E000115
:105960008F6F080E0001916F000191510001D8B4B2
:1059700020D001D01ED0000120EE0CF08E51D9268F
:105980008F51DA22000110EE0CF09251E126935172
:10599000E222DE50E65CD8B004D08EC092F08FC018
:1059A00093F00D0E00018E27000E8F23000191074A
:1059B000DBD7000120EE0CF09251D9269351DA2268
:1059C000000EDF6E20EE9CF092C0E1FF93C0E2FF7C
:1059D000050EDBCFE3FFE806FCE2FF0E0001A21597
:1059E00000016A6F000E0001A31500016B6F000E2D
:1059F0000001A41500016C6F000E0001A515000147
:105A00006D6F6AC06DF000016C6B6B6B6A6B20EEA2
:105A1000A2F0000EDE1400016E6FFF0EDE14000116
:105A20006F6F000EDE140001706F000EDE140001B7
:105A3000716F70C071F06FC070F06EC06FF00001D8
:105A40006E6BA2C072F0A3C073F0A4C074F0A5C0C6
:105A500075F073C072F074C073F075C074F000011B
:105A6000756B000E000172150001766FFF0E0001CC
:105A700073150001776F000E000174150001786F37
:105A8000000E000175150001796F20EEA2F0000EE6
:105A9000DE1400017A6F000EDE1400017B6F000E31
:105AA000DE1400017C6FFF0EDE1400017D6F190E05
:105AB00006D00001D8907D337C337B337A33E82ED7
:105AC000F8D70001765100017A1100017E6F0001C4
:105AD000775100017B1100017F6F000178510001B7
:105AE0007C110001806F0001795100017D110001DE
:105AF000816F00016E5100017E110001826F000173
:105B00006F5100017F110001836F0001705100018E
:105B100080110001846F00017151000181110001A9
:105B2000856F00016A51000182110001866F00013A
:105B30006B51000183110001876F00016C5100015E
:105B400084110001886F00016D5100018511000171
:105B5000896F000120EE06F09251D9269351DA2286
:105B600086C0DEFF87C0DEFF88C0DEFF89C0DEFFA3
:105B7000000120EE0AF09251D9269351DA2296C004
:105B8000DEFF97C0DDFF00D000019B0500019A11E8
:105B9000D8A412009C0E0001646F000E0001656F16
:105BA000080E0001676F060E666F5CEC3EF00001A8
:105BB0008D6F00018D05D8A4120020EE9CF010EE30
:105BC000A6F0050EDBCFE3FFE806FCE29C0E000129
:105BD000646F000E0001656FABEC4FF0A2C0ACF03B
:105BE000A3C0ADF0A4C0AEF0A5C0AFF0FF0E261468
:105BF00000016A6F000E271400016B6F000E28145D
:105C000000016C6F000E291400016D6F6AC06DF009
:105C100000016C6B6B6B6A6B000E261400016E6FDB
:105C2000FF0E271400016F6F000E28140001706F23
:105C3000000E29140001716F70C071F06FC070F018
:105C40006EC06FF000016E6B26C072F027C073F05B
:105C500028C074F029C075F073C072F074C073F07E
:105C600075C074F00001756B000E00017215000123
:105C7000766FFF0E000173150001776F000E0001B3
:105C800074150001786F000E000175150001796F21
:105C9000000E261400017A6F000E271400017B6F9E
:105CA000000E281400017C6FFF0E291400017D6F87
:105CB000190E06D00001D8907D337C337B337A33C4
:105CC000E82EF8D70001765100017A1100017E6FAD
:105CD0000001775100017B1100017F6F00017851B5
:105CE00000017C110001806F0001795100017D11DC
:105CF0000001816F00016E5100017E110001826F71
:105D000000016F5100017F110001836F000170518C
:105D1000000180110001846F0001715100018111A7
:105D20000001856F00016A51000182110001A26F1C
:105D300000016B51000183110001A36F00016C5140
:105D4000000184110001A46F00016D510001851153
:105D50000001A56F020E00019B6F000E9A6F940E5A
:105D60000001606F000E0001616F000E0001636FA3
:105D70001C0E626F58EC51F040EC54F000018D6F36
:105D800012000E0E00018D6F12001200000E0101B4
:105D9000736F000E726F000E0101716F000E706F55
:105DA000000E0001736F140E726F000E0001756F0C
:105DB000000E746F71EC50F072C072F173C073F129
:105DC0000101725101017311D8A4120001D0120017
:105DD0009C0E0001606F020E0001616F000E000159
:105DE000636F140E626FF6EC4DF002019C390F0BDD
:105DF000040AD8A4120001D01200FF0E0201AC1553
:105E00000101536F000E0201AD150101546F000E28
:105E10000201AE150101556F000E0201AF1501011F
:105E2000566F53C156F10101556B546B536B22EE03
:105E3000ACF0000EDE140101576FFF0EDE140101FD
:105E4000586F000EDE140101596F000EDE140101BF
:105E50005A6F59C15AF158C159F157C158F101014E
:105E6000576BACC25BF1ADC25CF1AEC25DF1AFC2CB
:105E70005EF15CC15BF15DC15CF15EC15DF1010190
:105E80005E6B000E01015B1501015F6FFF0E0101EA
:105E90005C150101606F000E01015D150101616F6C
:105EA000000E01015E150101626F22EEACF0000EE2
:105EB000DE140101636F000EDE140101646F000E39
:105EC000DE140101656FFF0EDE140101666F190E0D
:105ED00006D00101D8906633653364336333E82E0E
:105EE000F8D701015F51010163110101676F0101E1
:105EF0006051010164110101686F010161510101EB
:105F000065110101696F0101625101016611010111
:105F10006A6F010157510101671101016B6F0101A6
:105F200058510101681101016C6F010159510101C2
:105F3000691101016D6F01015A5101016A110101DD
:105F40006E6F0101535101016B110201AC6F010130
:105F5000545101016C110201AD6F01015551010154
:105F60006D110201AE6F0101565101016E11020166
:105F7000AF6FFF0E0201A8150101536F000E020161
:105F8000A9150101546F000E0201AA150101556FF8
:105F9000000E0201AB150101566F53C156F101010C
:105FA000556B546B536B22EEA8F0000EDE1401010A
:105FB000576FFF0EDE140101586F000EDE14010151
:105FC000596F000EDE1401015A6F59C15AF158C1C0
:105FD00059F157C158F10101576BA8C25BF1A9C231
:105FE0005CF1AAC25DF1ABC25EF15CC15BF15DC167
:105FF0005CF15EC15DF101015E6B000E01015B159C
:1060000001015F6FFF0E01015C150101606F000E61
:1060100001015D150101616F000E01015E150101B5
:10602000626F22EEA8F0000EDE140101636F000E15
:10603000DE140101646F000EDE140101656FFF0EB6
:10604000DE140101666F190E06D00101D890663387
:10605000653364336333E82EF8D701015F510101E2
:1060600063110101676F01016051010164110101B8
:10607000686F01016151010165110101696F010141
:1060800062510101661101016A6F0101575101015D
:10609000671101016B6F0101585101016811010184
:1060A0006C6F010159510101691101016D6F01010D
:1060B0005A5101016A1101016E6F01015351010131
:1060C0006B110201A86F0101545101016C11020111
:1060D000A96F0101555101016D110201AA6F010162
:1060E000565101016E110201AB6F26500201AC192D
:1060F0000DE127500201AD1909E128500201AE1946
:1061000005E129500201AF19D8B40DD00201AC2924
:1061100009E10201AD2906E10201AE2903E1020114
:10612000AF29D8A4120002019E510101546F536B94
:1061300022EE9EF0DECF55F1DDCF56F156C155F17E
:106140000101566BFF0E01015517000E5617010194
:1061500053510101551102019E6F0101545101017A
:10616000561102019F6F02019C510F0B0101536FE9
:106170000101D89053370101D890533501016F6F59
:1061800002019C510F0B0101536F050E0101536574
:10619000C7D0EC0E01016F250001676F0001686B2D
:1061A000FF0E6823EAEC50F0BBD001016F510101F2
:1061B000536F546B0101531F541F534B542B020157
:1061C0009E51010153250101706F02019F51010190
:1061D00054210101716F70C172F071C173F0000E32
:1061E0000001756F000E746F71EC50F072C072F1A7
:1061F00073C073F10101725101017311D8A412002F
:106200009C0E0001CC6F020E0001CD6FD7EC4EF05A
:10621000120001016F510101536F546B0101531FB3
:10622000541F534B542B02019E5101015325010170
:10623000706F02019F51010154210101716F70C102
:1062400020F071C121F023EC49F020C072F121C08F
:1062500073F170C172F071C173F072C174F073C1E7
:1062600075F071EC50F072C072F173C073F172C1CD
:10627000F4F073C1F5F0C3EC44F0120001016F516A
:106280000101536F546B0101531F541F534B542B87
:1062900002019E51010153250101706F02019F51BE
:1062A000010154210101716F70C120F071C121F011
:1062B00023EC49F020C072F121C073F170C172F07B
:1062C00071C173F072C174F073C175F071EC50F06C
:1062D00072C072F173C073F1010172510101731147
:1062E000D8A41200A8C233F2A9C234F2AAC235F26D
:1062F000ABC236F233C22EF134C22FF135C230F1C7
:1063000036C231F170C132F171C133F19FEC27F027
:1063100012009EC267F09FC268F0EAEC50F01200D3
:106320000201A551010AD8B440D7070AD8B4A6D7AC
:10633000170AD8B46ED7EDD71200120078D2250E06
:1063400000017B19D8B437D0000120EE02F06B5168
:10635000D9266C51DA22DE50DE10DE10D8B415D00A
:10636000000120EE02F06B51D9266C51DA2201D8DF
:106370005ED20500FA6EDE50FD6EDE50FE6EDE501F
:10638000FF6EFA5000017B5112006BC0D9FF6CC048
:10639000DAFFDECF71F0DDCF72F071C0D9FF72C0CD
:1063A000DAFF7BC0DFFF6BC0D9FF6CC0DAFFDE2AEB
:1063B000000EDD223CD2000E0001786F9DD049D244
:1063C000BCD00001788FB9D06FC0D9FF70C0DAFFA0
:1063D000DFCF71F0020EDE26DFCF72F0000EDD227D
:1063E00071C0D9FF72C0DAFFDECF76F0DDCF77F073
:1063F0000001765100017711D8A464D0A60E0001E7
:10640000766F100E0001776F5DD0000120EE02F074
:106410006B51D9266C51DA22DE50DE10DE10D8B472
:1064200028D0000120EE02F06B51D9266C51DA22FF
:1064300001D81BD00500FA6EDE50FD6EDE50FE6EF8
:10644000DE50FF6EFA5076C0F6FF77C0F7FF000E01
:10645000F86E0F0EF76403D00800F55005D0F6CFA4
:10646000E9FFF7CFEAFFEF5012000001764B772BE0
:1064700029D076C0F6FF77C0F7FF000EF86E6BC02C
:10648000D9FF6CC0DAFFDECF71F0DDCF72F071C0E2
:10649000D9FF72C0DAFF0F0EF76403D00800F55081
:1064A00005D0F6CFE9FFF7CFEAFFEF50DF6E00012E
:1064B000764B772B6BC0D9FF6CC0DAFFDE2A000E5B
:1064C000DD2200D076C0F6FF77C0F7FF000EF86E31
:1064D0000F0EF76403D00800F55005D0F6CFE9FFA2
:1064E000F7CFEAFFEF500009D8B4A1D18ED79FD1E2
:1064F000C00E0001781321D06DC0F6FF6EC0F7FF0B
:1065000000016D4B6E2B000EF86E0800F5CF7BF08E
:1065100000017B51000AD8B49CD1640AD8B40DD0D4
:106520000D0AD8B40AD01A0AD8B44ED7060AD8B47D
:10653000DFD70D0AD8B445D77AD178C071F0C00E34
:1065400000017117D8A420D06FC0D9FF70C0DAFF46
:10655000DFCF71F0020EDE26DFCF72F0000EDD22FB
:1065600071C0D9FF72C0DAFFDECF79F0DDCF7AF0EB
:1065700000017AAF6BD0030E000178130001796D32
:106580007A1FD8B07A2B62D06FC0D9FF70C0DAFF03
:10659000DFCF71F0020EDE26DFCF72F0000EDD22BB
:1065A00071C0D9FF72C0DAFFDECF79F0DDCF7AF0AB
:1065B0004DD000D0010E00017B6F050E00017B194C
:1065C000D8B451D001D04FD000017B51020D010E43
:1065D000F324F66E100EF420F76EF86A000EF8221F
:1065E0000900F5500001795D0900F55000017A5964
:1065F000D8A039D001D037D000017B2BDED733D0E3
:10660000010E00017B6F040E00017B19D8B42BD062
:1066100001D029D000017B51020D0B0EF324F66E40
:10662000100EF420F76EF86A000EF8220900F550FB
:106630000001795D0900F55000017A59D8A013D006
:1066400001D011D000017B2BDED70DD00001785195
:10665000C00B000AD8B4AED7800AD8B4D1D7400A4C
:10666000D8B4A8D700D078C071F0030E000171171C
:10667000D8B436D0000120EE02F06B51D9266C510F
:10668000DA22DE50DE10DE10D8B414D0000120EE85
:1066900002F06B51D9266C51DA2201D821D00500C5
:1066A000FA6EDE50FD6EDE50FE6EDE50FF6EFA506A
:1066B0002D0E12006BC0D9FF6CC0DAFFDECF71F077
:1066C000DDCF72F071C0D9FF72C0DAFF2D0EDF6E20
:1066D0006BC0D9FF6CC0DAFFDE2A000EDD2200D0CD
:1066E0007BC075F09CD057D000D000017551020DD1
:1066F000010EF324F66E100EF420F76EF86A000E09
:10670000F8220900F5CF62F00A00F5CF63F079C0F6
:1067100060F07AC061F030EC50F060C067F061C0AA
:1067200068F0000E00016A6F0A0E696FC3EC51F049
:1067300000016751300F00017B6F3AD079C060F0E3
:106740007AC061F000017551020D0B0EF324F66E54
:10675000100EF420F76EF86A000EF8220900F5CF4B
:1067600062F00A00F5CF63F030EC50F000016051A8
:106770000F0B0001746F00017451010D590EF324C9
:10678000F66E100EF420F76EF86A000EF82208007C
:10679000F5CF7BF00DD000017851C00B000AD8B4C2
:1067A000A4D7800AD8B4CAD7400AD8B49ED700D09C
:1067B000000120EE02F06B51D9266C51DA22DE5036
:1067C000DE10DE10D8B415D0000120EE02F06B51BF
:1067D000D9266C51DA2201D822D00500FA6EDE509B
:1067E000FD6EDE50FE6EDE50FF6EFA5000017B51F2
:1067F00012006BC0D9FF6CC0DAFFDECF71F0DDCFC5
:1068000072F071C0D9FF72C0DAFF7BC0DFFF6BC0CE
:10681000D9FF6CC0DAFFDE2A000EDD2200D00001B5
:10682000750700017529D8B402D0B5D700D06DC066
:10683000F6FF6EC0F7FF00016D4B6E2B000EF86E79
:106840000800F5CF7BF000017B51D8B402D077D59A
:1068500000D0000E00016C6F000E6B6F1200120072
:10686000000E0101386F000E0101396F000E0101A9
:10687000376F000E366F010E02012F27000E3023F6
:1068800031233223010E0101DA250101DA6F000EF6
:106890000101DB210101DB6F040E0101DB5DD8B0DA
:1068A00006D0040E0101DB6F000EDA6F00D036C097
:1068B00038F137C039F1A9D1300E01013825010175
:1068C0002E6F000E0101392101012F6F2EC1F6FF3D
:1068D0002FC1F7FF000EF86E0F0EF76407D0090006
:1068E000F5CF30F10900F5CF31F108D0F6CFE9FF4F
:1068F000F7CFEAFFEECF30F1EECF31F101013051A9
:1069000001013111D8B45BD1FF0E01012E6FFF0ED2
:1069100001012F6F300E010138250101306F000E8B
:10692000010139210101316F30C1F6FF31C1F7FF9B
:10693000000EF86E0F0EF76407D00900F5CF32F1A4
:106940000900F5CF33F108D0F6CFE9FFF7CFEAFF22
:10695000EECF32F1EECF33F101012E51010132279A
:1069600001012F5101013323300E010138250101AE
:10697000346F000E010139210101356F34C1F6FF7A
:1069800035C1F7FF000EF86E0F0EF76407D032C165
:10699000F5FF0D0033C1F5FF0C0008D0F6CFE9FF7D
:1069A000F7CFEAFF32C1EEFF33C1EFFF300E010136
:1069B000382501012E6F000E0101392101012F6FD1
:1069C0002EC1F6FF2FC1F7FF000EF86E0F0EF76411
:1069D00007D00900F5CF30F10900F5CF31F108D02B
:1069E000F6CFE9FFF7CFEAFFEECF30F1EECF31F18E
:1069F0000101305101013111D8A4E1D0340E01015F
:106A0000382501012E6F000E0101392101012F6F80
:106A10002EC1F6FF2FC1F7FF000EF86E0F0EF764C0
:106A200003D00800F55005D0F6CFE9FFF7CFEAFF15
:106A3000EF500009D8B4C3D02B0E01013825010155
