:0400000054EF00F0C9
:0600080040821DEF50F0E4
:100018004080D8CF0FF0E8CF10F0E0CF11F0FACF42
:1000280012F0FBCF13F0E9CF14F0EACF15F0E1CFCF
:1000380016F0E2CF17F0D9CF18F0DACF19F0F3CFD6
:100048001AF0F4CF1BF0F6CF1CF0F7CF1DF0F8CF65
:100058001EF0F5CF1FF000F01FC0F5FF1EC0F8FF1F
:100068001DC0F7FF1CC0F6FF1BC0F4FF1AC0F3FF4A
:1000780019C0DAFF18C0D9FF17C0E2FF16C0E1FFA8
:1000880015C0EAFF14C0E9FF13C0FBFF12C0FAFF56
:1000980011C0E0FF10C0E8FF0FC0D8FF409010006B
:0400A8005BEF52F0C8
:101000000001000A006400E803102701001000003E
:101010000100105048434D50494331384639374A52
:1010200036302045544845524E45540000DEAD0050
:10103000BEEFFFFFFFFFFFFF44006076000D0A0DCB
:101040000A5374617274696E67205379736C6F67A9
:101050002061742025750D0A003031323334353665
:101060003738396162636465660057616974696E17
:101070006720666F72204C696E6B004C696E6B2046
:10108000737461727465640025642E25642E256472
:101090002E2564002575203A2025730D0A00257839
:1010A000203A20256400286E756C6C290000000E23
:1010B0000101296F2A0E362401011D6F000E372011
:1010C00001011E6F1DC1F6FF1EC1F7FF000EF86E75
:1010D0000F0EF76403D00800F55005D0F6CFE9FFF6
:1010E000F7CFEAFFEF5001012D6F2B0E36240101DF
:1010F0001D6F000E372001011E6F1DC1F6FF1EC1BE
:10110000F7FF000EF86E0F0EF76403D00800F550DD
:1011100005D0F6CFE9FFF7CFEAFFEF5001012C6FC2
:101120006FEF1FF0020E362401011D6F000E3720F5
:1011300001011E6F1DC1F6FF1EC1F7FF000EF86E04
:101140000F0EF7640DD021C0F5FF0D0022C0F5FF92
:101150000D0023C0F5FF0D0024C0F5FF0C000CD0DE
:10116000F6CFE9FFF7CFEAFF21C0EEFF22C0EEFF86
:1011700023C0EEFF24C0EFFF060E362401011D6FD1
:10118000000E372001011E6F1DC1F6FF1EC1F7FFC3
:10119000000EF86E0F0EF76407D0DAC1F5FF0D00F0
:1011A000DBC1F5FF0C0008D0F6CFE9FFF7CFEAFF6F
:1011B000DAC1EEFFDBC1EFFF140E362401011D6F13
:1011C000000E372001011E6F1DC1F6FF1EC1F7FF83
:1011D000000EF86E0F0EF7640DD0000EF56E0D00C8
:1011E000000EF56E0D00000EF56E0D00000EF56E92
:1011F0000C000CD0F6CFE9FFF7CFEAFF000EEE6E41
:10120000000EEE6E000EEE6E000EEF6E080E36242F
:1012100001011D6F000E372001011E6F1DC1F6FF79
:101220001EC1F7FF000EF86E0F0EF7640DD0DEC181
:10123000F5FF0D00DFC1F5FF0D00E0C1F5FF0D006A
:10124000E1C1F5FF0C000CD0F6CFE9FFF7CFEAFFC4
:10125000DEC1EEFFDFC1EEFFE0C1EEFFE1C1EFFF57
:10126000080E362401011D6F000E372001011E6F8C
:101270001DC1F6FF1EC1F7FF000EF86E0F0EF764DA
:101280000DD00900F5CF1FF10900F5CF20F10900BD
:10129000F5CF21F10900F5CF22F10CD0F6CFE9FF0F
:1012A000F7CFEAFFEECF1FF1EECF20F1EECF21F125
:1012B000EECF22F1010E01011F250101236F000E67
:1012C000010120210101246F000E010121210101F2
:1012D000256F000E010122210101266F0C0E36241C
:1012E0000101276F000E37200101286F27C1F6FF8B
:1012F00028C1F7FF000EF86E0F0EF7640DD023C162
:10130000F5FF0D0024C1F5FF0D0025C1F5FF0D000F
:1013100026C1F5FF0C000CD0F6CFE9FFF7CFEAFFAE
:1013200023C1EEFF24C1EEFF25C1EEFF26C1EFFF72
:101330000101E85101011E6F1D6B21EEE8F0DECFC7
:101340001FF1DDCF20F120C11FF10101206BFF0E45
:1013500001011F17000E201701011D5101011F136C
:1013600001011E5101012013180E36240101216FC5
:10137000000E37200101226F21C1F6FF22C1F7FFC5
:10138000000EF86E0F0EF76407D01FC1F5FF0D00B9
:1013900020C1F5FF0C0008D0F6CFE9FFF7CFEAFF38
:1013A0001FC1EEFF20C1EFFF1C0E362401011D6F8F
:1013B000000E372001011E6F1DC1F6FF1EC1F7FF91
:1013C000000EF86E0F0EF76407D030C0F5FF0D0069
:1013D00031C0F5FF0C0008D0F6CFE9FFF7CFEAFFE8
:1013E00030C0EEFF31C0EFFF350E362401011D6F16
:1013F000000E372001011E6F1DC1F6FF1EC1F7FF51
:10140000000EF86E0F0EF76404D0120EF56E0C008D
:1014100006D0F6CFE9FFF7CFEAFF120EEF6E300EDF
:10142000362401011D6F000E372001011E6F1DC102
:10143000F6FF1EC1F7FF000EF86E0F0EF76407D01F
:10144000020EF56E0D00000EF56E0C0008D0F6CF02
:10145000E9FFF7CFEAFF020EEE6E000EEF6E320EDE
:10146000362401011D6F000E372001011E6F1DC1C2
:10147000F6FF1EC1F7FF000EF86E0F0EF76407D0DF
:10148000020EF56E0D00000EF56E0C0008D0F6CFC2
:10149000E9FFF7CFEAFF020EEE6E000EEF6E340E9C
:1014A000362401011D6F000E372001011E6F1DC182
:1014B000F6FF1EC1F7FF000EF86E0F0EF76404D0A2
:1014C000030EF56E0C0006D0F6CFE9FFF7CFEAFF6A
:1014D000030EEF6E36C0BCF037C0BDF0E5EC1FF078
:1014E00055D1000E01012D6F36C060F037C061F09C
:1014F000CDEC35F0ACEF1FF001012C51000AD8B44F
:10150000F0D7030AD8B40ED6ACEF1FF0080E36247D
:1015100001011D6F000E372001011E6F1DC1F6FF76
:101520001EC1F7FF000EF86E0F0EF7640DD0DEC17E
:10153000F5FF0D00DFC1F5FF0D00E0C1F5FF0D0067
:10154000E1C1F5FF0C000CD0F6CFE9FFF7CFEAFFC1
:10155000DEC1EEFFDFC1EEFFE0C1EEFFE1C1EFFF54
:10156000010E0101DE2501011D6F000E0101DF21C9
:1015700001011E6F000E0101E02101011F6F000E2D
:101580000101E1210101206F0C0E36240101216FC0
:10159000000E37200101226F21C1F6FF22C1F7FFA3
:1015A000000EF86E0F0EF7640DD01DC1F5FF0D0093
:1015B0001EC1F5FF0D001FC1F5FF0D0020C1F5FF95
:1015C0000C000CD0F6CFE9FFF7CFEAFF1DC1EEFF0C
:1015D0001EC1EEFF1FC1EEFF20C1EFFF0101E85168
:1015E00001011E6F1D6B21EEE8F0DECF1FF1DDCF94
:1015F00020F120C11FF10101206BFF0E01011F1717
:10160000000E201701011D5101011F1301011E5180
:1016100001012013180E36240101216F000E37201E
:101620000101226F21C1F6FF22C1F7FF000EF86E03
:101630000F0EF76407D01FC1F5FF0D0020C1F5FFA5
:101640000C0008D0F6CFE9FFF7CFEAFF1FC1EEFF8D
:1016500020C1EFFF1C0E362401011D6F000E372044
:1016600001011E6F1DC1F6FF1EC1F7FF000EF86ECF
:101670000F0EF76407D030C0F5FF0D0031C0F5FF45
:101680000C0008D0F6CFE9FFF7CFEAFF30C0EEFF3D
:1016900031C0EFFF300E362401011D6F000E3720E0
:1016A00001011E6F1DC1F6FF1EC1F7FF000EF86E8F
:1016B0000F0EF76407D0020EF56E0D00000EF56EEA
:1016C0000C0008D0F6CFE9FFF7CFEAFF020EEE6E6E
:1016D000000EEF6E320E362401011D6F000E372012
:1016E00001011E6F1DC1F6FF1EC1F7FF000EF86E4F
:1016F0000F0EF76407D0020EF56E0D00000EF56EAA
:101700000C0008D0F6CFE9FFF7CFEAFF020EEE6E2D
:10171000000EEF6E340E362401011D6F000E3720CF
:1017200001011E6F1DC1F6FF1EC1F7FF000EF86E0E
:101730000F0EF76404D0030EF56E0C0006D0F6CF42
:10174000E9FFF7CFEAFF030EEF6E350E36240101F5
:101750001D6F000E372001011E6F1DC1F6FF1EC157
:10176000F7FF000EF86E0F0EF76404D0120EF56E40
:101770000C0006D0F6CFE9FFF7CFEAFF120EEF6EAE
:1017800036C0BCF037C0BDF0E5EC1FF0030E09EF2A
:1017900016F0300E362401011D6F000E37200101B6
:1017A0001E6F1DC1F6FF1EC1F7FF000EF86E0F0E73
:1017B000F76407D0000EF56E0D00000EF56E0C00FC
:1017C00008D0F6CFE9FFF7CFEAFF000EEE6E000E6D
:1017D000EF6E100E362401011D6F000E372001013F
:1017E0001E6F1DC1F6FF1EC1F7FF000EF86E0F0E33
:1017F000F7640DD00900F5CF1FF10900F5CF20F1F6
:101800000900F5CF21F10900F5CF22F10CD0F6CF78
:10181000E9FFF7CFEAFFEECF1FF1EECF20F1EECFD9
:1018200021F1EECF22F1010E01011F250101236FED
:10183000000E010120210101246F000E0101212170
:101840000101256F000E010122210101266F010116
:10185000E251010123190FE10101E35101012419B2
:101860000AE10101E4510101251905E10101E551F8
:1018700001012619D8A46DD1100E362401011D6F67
:10188000000E372001011E6F1DC1F6FF1EC1F7FFBC
:10189000000EF86E0F0EF7640DD00900F5CF1FF1A2
:1018A0000900F5CF20F10900F5CF21F10900F5CFAE
:1018B00022F10CD0F6CFE9FFF7CFEAFFEECF1FF110
:1018C000EECF20F1EECF21F1EECF22F1010E01019A
:1018D0001F250101236F000E010120210101246F4A
:1018E000000E010121210101256F000E01012221BD
:1018F0000101266F100E36240101276F000E3720DC
:101900000101286F27C1F6FF28C1F7FF000EF86E0E
:101910000F0EF7640DD023C1F5FF0D0024C1F5FFB4
:101920000D0025C1F5FF0D0026C1F5FF0C000CD000
:10193000F6CFE9FFF7CFEAFF23C1EEFF24C1EEFFA8
:1019400025C1EEFF26C1EFFF350E362401011D6FC4
:10195000000E372001011E6F1DC1F6FF1EC1F7FFEB
:10196000000EF86E0F0EF76404D0100EF56E0C002A
:1019700006D0F6CFE9FFF7CFEAFF100EEF6E080EA4
:10198000362401011D6F000E372001011E6F1DC19D
:10199000F6FF1EC1F7FF000EF86E0F0EF7640DD0B4
:1019A000DEC1F5FF0D00DFC1F5FF0D00E0C1F5FF61
:1019B0000D00E1C1F5FF0C000CD0F6CFE9FFF7CF29
:1019C000EAFFDEC1EEFFDFC1EEFFE0C1EEFFE1C1E5
:1019D000EFFF010E0101DE2501011D6F000E010167
:1019E000DF2101011E6F000E0101E02101011F6FC7
:1019F000000E0101E1210101206F0C0E36240101CE
:101A0000216F000E37200101226F21C1F6FF22C194
:101A1000F7FF000EF86E0F0EF7640DD01DC1F5FF35
:101A20000D001EC1F5FF0D001FC1F5FF0D0020C107
:101A3000F5FF0C000CD0F6CFE9FFF7CFEAFF1DC190
:101A4000EEFF1EC1EEFF1FC1EEFF20C1EFFF01013F
:101A5000E85101011E6F1D6B21EEE8F0DECF1FF192
:101A6000DDCF20F120C11FF10101206BFF0E01012C
:101A70001F17000E201701011D5101011F13010145
:101A80001E5101012013180E36240101216F000E92
:101A900037200101226F21C1F6FF22C1F7FF000E9E
:101AA000F86E0F0EF76407D01FC1F5FF0D0020C1BF
:101AB000F5FF0C0008D0F6CFE9FFF7CFEAFF1FC112
:101AC000EEFF20C1EFFF1C0E362401011D6F000E3A
:101AD000372001011E6F1DC1F6FF1EC1F7FF000E6A
:101AE000F86E0F0EF76407D030C0F5FF0D0031C05F
:101AF000F5FF0C0008D0F6CFE9FFF7CFEAFF30C0C2
:101B0000EEFF31C0EFFF36C0BCF037C0BDF0E5ECF2
:101B10001FF00009D8B4ACEF1FF0040E01012D6FC7
:101B2000360E362401011D6F000E372001011E6F95
:101B30001DC1F6FF1EC1F7FF000EF86E0F0EF76411
:101B400004D0030EF56E0C0002D0D0EF13F0ACEF12
:101B50001FF0100E362401011D6F000E3720010109
:101B60001E6F1DC1F6FF1EC1F7FF000EF86E0F0EAF
:101B7000F7640DD0E2C1F5FF0D00E3C1F5FF0D00E4
:101B8000E4C1F5FF0D00E5C1F5FF0C000CD0F6CF68
:101B9000E9FFF7CFEAFFE2C1EEFFE3C1EEFFE4C1E8
:101BA000EEFFE5C1EFFF350E362401011D6F000E7B
:101BB000372001011E6F1DC1F6FF1EC1F7FF000E89
:101BC000F86E0F0EF76404D0140EF56E0C0006D0FC
:101BD000F6CFE9FFF7CFEAFF140EEF6E36C0BCF088
:101BE00037C0BDF0E5EC1FF00009D8B4ACEF1FF032
:101BF000000E01012D6F36C060F037C061F0CDECF2
:101C000035F0ACEF1FF0300E362401011D6F000ED1
:101C1000372001011E6F1DC1F6FF1EC1F7FF000E28
:101C2000F86E0F0EF76407D0000EF56E0D00000E73
:101C3000F56E0C0008D0F6CFE9FFF7CFEAFF000EF3
:101C4000EE6E000EEF6E100E362401011D6F000EB9
:101C5000372001011E6F1DC1F6FF1EC1F7FF000EE8
:101C6000F86E0F0EF7640DD00900F5CF1FF10900D3
:101C7000F5CF20F10900F5CF21F10900F5CF22F1D0
:101C80000CD0F6CFE9FFF7CFEAFFEECF1FF1EECF92
:101C900020F1EECF21F1EECF22F1010E01011F253F
:101CA0000101236F000E010120210101246F000EAC
:101CB000010121210101256F000E010122210101F5
:101CC000266F0101E251010123190FE10101E351E6
:101CD000010124190AE10101E4510101251905E17D
:101CE0000101E55101012619D8A462D1100E362454
:101CF00001011D6F000E372001011E6F1DC1F6FF8F
:101D00001EC1F7FF000EF86E0F0EF7640DD009002C
:101D1000F5CF1FF10900F5CF20F10900F5CF21F132
:101D20000900F5CF22F10CD0F6CFE9FFF7CFEAFF9B
:101D3000EECF1FF1EECF20F1EECF21F1EECF22F169
:101D4000010E01011F250101236F000E0101202159
:101D50000101246F000E010121210101256F000EF8
:101D6000010122210101266F100E36240101276F87
:101D7000000E37200101286F27C1F6FF28C1F7FFA9
:101D8000000EF86E0F0EF7640DD023C1F5FF0D00A5
:101D900024C1F5FF0D0025C1F5FF0D0026C1F5FF9B
:101DA0000C000CD0F6CFE9FFF7CFEAFF23C1EEFF1E
:101DB00024C1EEFF25C1EEFF26C1EFFF350E36240C
:101DC00001011D6F000E372001011E6F1DC1F6FFBE
:101DD0001EC1F7FF000EF86E0F0EF76404D0100E50
:101DE000F56E0C0006D0F6CFE9FFF7CFEAFF100E34
:101DF000EF6E080E362401011D6F000E3720010121
:101E00001E6F1DC1F6FF1EC1F7FF000EF86E0F0E0C
:101E1000F7640DD0DEC1F5FF0D00DFC1F5FF0D0049
:101E2000E0C1F5FF0D00E1C1F5FF0C000CD0F6CFCD
:101E3000E9FFF7CFEAFFDEC1EEFFDFC1EEFFE0C151
:101E4000EEFFE1C1EFFF010E0101DE2501011D6F73
:101E5000000E0101DF2101011E6F000E0101E021D2
:101E600001011F6F000E0101E1210101206F0C0E25
:101E700036240101216F000E37200101226F21C19C
:101E8000F6FF22C1F7FF000EF86E0F0EF7640DD0BB
:101E90001DC1F5FF0D001EC1F5FF0D001FC1F5FFAF
:101EA0000D0020C1F5FF0C000CD0F6CFE9FFF7CFF5
:101EB000EAFF1DC1EEFF1EC1EEFF1FC1EEFF20C1F4
:101EC000EFFF0101E85101011E6F1D6B21EEE8F0EB
:101ED000DECF1FF1DDCF20F120C11FF10101206B0A
:101EE000FF0E01011F17000E201701011D510101F6
:101EF0001F1301011E5101012013180E3624010188
:101F0000216F000E37200101226F21C1F6FF22C18F
:101F1000F7FF000EF86E0F0EF76407D01FC1F5FF34
:101F20000D0020C1F5FF0C0008D0F6CFE9FFF7CF78
:101F3000EAFF1FC1EEFF20C1EFFF1C0E3624010196
:101F40001D6F000E372001011E6F1DC1F6FF1EC15F
:101F5000F7FF000EF86E0F0EF76407D030C0F5FFE4
:101F60000D0031C0F5FF0C0008D0F6CFE9FFF7CF28
:101F7000EAFF30C0EEFF31C0EFFF040E01012D6F0C
:101F8000360E362401011D6F000E372001011E6F31
:101F90001DC1F6FF1EC1F7FF000EF86E0F0EF764AD
:101FA00004D0030EF56E0C0001D0FAD3ACEF1FF095
:101FB000100E362401011D6F000E372001011E6F27
:101FC0001DC1F6FF1EC1F7FF000EF86E0F0EF7647D
:101FD0000DD0E2C1F5FF0D00E3C1F5FF0D00E4C136
:101FE000F5FF0D00E5C1F5FF0C000CD0F6CFE9FFC1
:101FF000F7CFEAFFE2C1EEFFE3C1EEFFE4C1EEFF7F
:10200000E5C1EFFF350E362401011D6F000E3720AC
:1020100001011E6F1DC1F6FF1EC1F7FF000EF86E15
:102020000F0EF76404D0040EF56E0C0006D0F6CF48
:10203000E9FFF7CFEAFF040EEF6E36C0BCF037C001
:10204000BDF0E5EC1FF00009D8B4ACEF1FF0000EB6
:1020500001012D6F36C060F037C061F0CDEC35F076
:10206000ACEF1FF0000E01012D6F36C060F037C0DD
:1020700061F0CDEC35F0ACEF1FF0340E36240101E9
:102080001D6F000E372001011E6F1DC1F6FF1EC11E
:10209000F7FF000EF86E0F0EF76403D00800F5503E
:1020A00005D0F6CFE9FFF7CFEAFFEF500009D8B42B
:1020B0006DD036C0BCF037C0BDF0E5EC1FF00009B4
:1020C000D8B4ACEF1FF0350E362401011D6F000EA1
:1020D000372001011E6F1DC1F6FF1EC1F7FF000E64
:1020E000F86E0F0EF76403D00800F55005D0F6CF58
:1020F000E9FFF7CFEAFFEF5001011F6F01011FA5B4
:102100000BD0000E01012D6F36C060F037C061F0BA
:10211000CDEC35F0ACEF1FF0350E362401011D6F0C
:10212000000E372001011E6F1DC1F6FF1EC1F7FF13
:10213000000EF86E0F0EF76403D00800F55005D0BE
:10214000F6CFE9FFF7CFEAFFEF5001011F6F010162
:102150001FA9ACEF1FF0040E01012D6F360E3624BF
:1021600001011D6F000E372001011E6F1DC1F6FF1A
:102170001EC1F7FF000EF86E0F0EF76404D0030EB9
:10218000F56E0C0001D00CD3ACEF1FF0350E3624E9
:1021900001011D6F000E372001011E6F1DC1F6FFEA
:1021A0001EC1F7FF000EF86E0F0EF76404D0040E88
:1021B000F56E0C0006D0F6CFE9FFF7CFEAFF040E6C
:1021C000EF6E36C0BCF037C0BDF0E5EC1FF0000983
:1021D000D8B4ACEF1FF0000E01012D6F36C060F0D7
:1021E00037C061F0CDEC35F0ACEF1FF0000E01010F
:1021F0002D6F36C060F037C061F0CDEC35F0ACEF3C
:102200001FF001012C51000AD8B42CD7030AD8B40E
:1022100086EF0AF0070AD8B4F6D4010AD8B4C9EF99
:102220000BF00C0AD8B4E2D7030AD8B4DFD7060AF9
:10223000D8B423D7ACEF1FF036C0F6FF37C0F7FF96
:10224000000EF86E0F0EF76407D00900F5CF1DF1F0
:102250000900F5CF1EF108D0F6CFE9FFF7CFEAFF6E
:10226000EECF1DF1EECF1EF10101DC5101011D1970
:1022700005E10101DD5101011E19D8A4ACEF1FF0E9
:10228000300E362401011D6F000E372001011E6F34
:102290001DC1F6FF1EC1F7FF000EF86E0F0EF764AA
:1022A00007D0000EF56E0D00000EF56E0C0008D084
:1022B000F6CFE9FFF7CFEAFF000EEE6E000EEF6EED
:1022C000020E362401011D6F000E372001011E6F22
:1022D0001DC1F6FF1EC1F7FF000EF86E0F0EF7646A
:1022E0000DD00900F5CF1FF10900F5CF20F109004D
:1022F000F5CF21F10900F5CF22F10CD0F6CFE9FF9F
:10230000F7CFEAFFEECF1FF1EECF20F1EECF21F1B4
:10231000EECF22F1215001011F190CE122500101E1
:10232000201908E123500101211904E12450010181
:102330002219D8A481D0060E362401011D6F000E8B
:10234000372001011E6F1DC1F6FF1EC1F7FF000EF1
:10235000F86E0F0EF76407D00900F5CF1FF10900E2
:10236000F5CF20F108D0F6CFE9FFF7CFEAFFEECFA7
:102370001FF1EECF20F10101DA5101011F195CE1DB
:102380000101DB5101012019D8A456D0100E3624CA
:1023900001011D6F000E372001011E6F1DC1F6FFE8
:1023A0001EC1F7FF000EF86E0F0EF7640DD0090086
:1023B000F5CF1FF10900F5CF20F10900F5CF21F18C
:1023C0000900F5CF22F10CD0F6CFE9FFF7CFEAFFF5
:1023D000EECF1FF1EECF20F1EECF21F1EECF22F1C3
:1023E000010E01011F250101236F000E01012021B3
:1023F0000101246F000E010121210101256F000E52
:10240000010122210101266F0101E251010123197D
:1024100013E10101E351010124190EE10101E4512D
:102420000101251909E10101E55101012619D8A48D
:1024300003D0040E01012D6F360E362401011D6FED
:10244000000E372001011E6F1DC1F6FF1EC1F7FFF0
:10245000000EF86E0F0EF76404D0030EF56E0C003C
:1024600001D09ED1ACEF1FF0020E362401011D6F8A
:10247000000E372001011E6F1DC1F6FF1EC1F7FFC0
:10248000000EF86E0F0EF7640DD00900F5CF1FF1A6
:102490000900F5CF20F10900F5CF21F10900F5CFB2
:1024A00022F10CD0F6CFE9FFF7CFEAFFEECF1FF114
:1024B000EECF20F1EECF21F1EECF22F1215001013C
:1024C0001F190CE122500101201908E123500101DC
:1024D000211904E1245001012219D8A4ACEF1FF006
:1024E000060E362401011D6F000E372001011E6FFC
:1024F0001DC1F6FF1EC1F7FF000EF86E0F0EF76448
:1025000007D00900F5CF1FF10900F5CF20F108D061
:10251000F6CFE9FFF7CFEAFFEECF1FF1EECF20F1C4
:102520000101DA5101011F1905E10101DB5101012E
:102530002019D8A4ACEF1FF00C0E362401011D6F3A
:10254000000E372001011E6F1DC1F6FF1EC1F7FFEF
:10255000000EF86E0F0EF7640DD00900F5CF1FF1D5
:102560000900F5CF20F10900F5CF21F10900F5CFE1
:1025700022F10CD0F6CFE9FFF7CFEAFFEECF1FF143
:10258000EECF20F1EECF21F1EECF22F10101DE51AD
:1025900001011F190FE10101DF51010120190AE1B9
:1025A0000101E0510101211905E10101E1510101A0
:1025B0002219D8A4ACEF1FF0100E362401011D6FB4
:1025C000000E372001011E6F1DC1F6FF1EC1F7FF6F
:1025D000000EF86E0F0EF7640DD00900F5CF1FF155
:1025E0000900F5CF20F10900F5CF21F10900F5CF61
:1025F00022F10CD0F6CFE9FFF7CFEAFFEECF1FF1C3
:10260000EECF20F1EECF21F1EECF22F1010E01014C
:102610001F250101236F000E010120210101246FFC
:10262000000E010121210101256F000E010122216F
:102630000101266F0101E251010123190FE101019E
:10264000E351010124190AE10101E45101012519B5
:1026500005E10101E55101012619D8A4ACEF1FF0F5
:10266000100E362401011D6F000E372001011E6F70
:102670001DC1F6FF1EC1F7FF000EF86E0F0EF764C6
:102680000DD00900F5CF1FF10900F5CF20F10900A9
:10269000F5CF21F10900F5CF22F10CD0F6CFE9FFFB
:1026A000F7CFEAFFEECF1FF1EECF20F1EECF21F111
:1026B000EECF22F1010E01011F250101236F000E53
:1026C000010120210101246F000E010121210101DE
:1026D000256F000E010122210101266F100E362404
:1026E0000101276F000E37200101286F27C1F6FF77
:1026F00028C1F7FF000EF86E0F0EF7640DD023C14E
:10270000F5FF0D0024C1F5FF0D0025C1F5FF0D00FB
:1027100026C1F5FF0C000CD0F6CFE9FFF7CFEAFF9A
:1027200023C1EEFF24C1EEFF25C1EEFF26C1EFFF5E
:10273000300E362401011D6F000E372001011E6F7F
:102740001DC1F6FF1EC1F7FF000EF86E0F0EF764F5
:1027500007D0000EF56E0D00000EF56E0C0008D0CF
:10276000F6CFE9FFF7CFEAFF000EEE6E000EEF6E38
:10277000040E01012D6F360E362401011D6F000E6F
:10278000372001011E6F1DC1F6FF1EC1F7FF000EAD
:10279000F86E0F0EF76404D0030EF56E0C0006D031
:1027A000F6CFE9FFF7CFEAFF030EEF6EACEF1FF0B5
:1027B000300E362401011D6F000E372001011E6FFF
:1027C0001DC1F6FF1EC1F7FF000EF86E0F0EF76475
:1027D00007D0000EF56E0D00000EF56E0C0008D04F
:1027E000F6CFE9FFF7CFEAFF000EEE6E000EEF6EB8
:1027F000350E362401011D6F000E372001011E6FBA
:102800001DC1F6FF1EC1F7FF000EF86E0F0EF76434
:1028100004D0010EF56E0C0006D0F6CFE9FFF7CF1D
:10282000EAFF010EEF6E300E362401011D6F000E1F
:10283000372001011E6F1DC1F6FF1EC1F7FF000EFC
:10284000F86E0F0EF76407D0020EF56E0D00000E45
:10285000F56E0C0008D0F6CFE9FFF7CFEAFF020EC5
:10286000EE6E000EEF6E320E362401011D6F000E6B
:10287000372001011E6F1DC1F6FF1EC1F7FF000EBC
:10288000F86E0F0EF76407D0020EF56E0D00000E05
:10289000F56E0C0008D0F6CFE9FFF7CFEAFF020E85
:1028A000EE6E000EEF6E340E362401011D6F000E29
:1028B000372001011E6F1DC1F6FF1EC1F7FF000E7C
:1028C000F86E0F0EF76404D0050EF56E0C0006D0FE
:1028D000F6CFE9FFF7CFEAFF050EEF6E050E010117
:1028E0002D6F36C0BCF037C0BDF0E5EC1FF0ACEF8B
:1028F0001FF036C0F6FF37C0F7FF000EF86E0F0E60
:10290000F76407D00900F5CF1DF10900F5CF1EF1DE
:1029100008D0F6CFE9FFF7CFEAFFEECF1DF1EECFFB
:102920001EF10101DC5101011D1905E10101DD511B
:1029300001011E19D8A4ACEF1FF00C0E36240101C2
:102940001D6F000E372001011E6F1DC1F6FF1EC155
:10295000F7FF000EF86E0F0EF7640DD00900F5CFEB
:102960001FF10900F5CF20F10900F5CF21F1090091
:10297000F5CF22F10CD0F6CFE9FFF7CFEAFFEECF8B
:102980001FF1EECF20F1EECF21F1EECF22F10101C8
:10299000DE5101011F190FE10101DF510101201971
:1029A0000AE10101E0510101211905E10101E151B3
:1029B00001012219D8A4ACEF1FF0020E3624010148
:1029C0001D6F000E372001011E6F1DC1F6FF1EC1D5
:1029D000F7FF000EF86E0F0EF7640DD0000EF56EC7
:1029E0000D00000EF56E0D00000EF56E0D00000ED0
:1029F000F56E0C000CD0F6CFE9FFF7CFEAFF000E22
:102A0000EE6E000EEE6E000EEE6E000EEF6E060E17
:102A1000362401011D6F000E372001011E6F1DC1FC
:102A2000F6FF1EC1F7FF000EF86E0F0EF76407D019
:102A3000000EF56E0D00000EF56E0C0008D0F6CFFE
:102A4000E9FFF7CFEAFF000EEE6E000EEF6E100EFC
:102A5000362401011D6F000E372001011E6F1DC1BC
:102A6000F6FF1EC1F7FF000EF86E0F0EF7640DD0D3
:102A7000000EF56E0D00000EF56E0D00000EF56EE9
:102A80000D00000EF56E0C000CD0F6CFE9FFF7CF6D
:102A9000EAFF000EEE6E000EEE6E000EEE6E000E01
:102AA000EF6E140E362401011D6F000E3720010158
:102AB0001E6F1DC1F6FF1EC1F7FF000EF86E0F0E50
:102AC000F7640DD0000EF56E0D00000EF56E0D00D2
:102AD000000EF56E0D00000EF56E0C000CD0F6CF5A
:102AE000E9FFF7CFEAFF000EEE6E000EEE6E000E6D
:102AF000EE6E000EEF6E080E362401011D6F000E03
:102B0000372001011E6F1DC1F6FF1EC1F7FF000E29
:102B1000F86E0F0EF7640DD0000EF56E0D00000E6E
:102B2000F56E0D00000EF56E0D00000EF56E0C003A
:102B30000CD0F6CFE9FFF7CFEAFF000EEE6E000EE5
:102B4000EE6E000EEE6E000EEF6E0C0E36240101DE
:102B50001D6F000E372001011E6F1DC1F6FF1EC143
:102B6000F7FF000EF86E0F0EF7640DD0000EF56E35
:102B70000D00000EF56E0D00000EF56E0D00000E3E
:102B8000F56E0C000CD0F6CFE9FFF7CFEAFF000E90
:102B9000EE6E000EEE6E000EEE6E000EEF6E180E74
:102BA000362401011D6F000E372001011E6F1DC16B
:102BB000F6FF1EC1F7FF000EF86E0F0EF76407D088
:102BC000000EF56E0D00000EF56E0C0008D0F6CF6D
:102BD000E9FFF7CFEAFF000EEE6E000EEF6E1C0E5F
:102BE000362401011D6F000E372001011E6F1DC12B
:102BF000F6FF1EC1F7FF000EF86E0F0EF76407D048
:102C0000000EF56E0D00000EF56E0C0001D078D1AF
:102C1000010E01012D6FACEF1FF0340E36240101BF
:102C20001D6F000E372001011E6F1DC1F6FF1EC172
:102C3000F7FF000EF86E0F0EF76403D00800F55092
:102C400005D0F6CFE9FFF7CFEAFFEF500009D8B47F
:102C500008D036C0BCF037C0BDF0E5EC1FF0ACEFDB
:102C60001FF0350E362401011D6F000E37200101C3
:102C70001E6F1DC1F6FF1EC1F7FF000EF86E0F0E8E
:102C8000F76404D0040EF56E0C0006D0F6CFE9FF11
:102C9000F7CFEAFF040EEF6E36C0BCF037C0BDF0D0
:102CA000E5EC1FF00009D8B4ACEF1FF0020E36249B
:102CB00001011D6F000E372001011E6F1DC1F6FFBF
:102CC0001EC1F7FF000EF86E0F0EF7640DD0000E58
:102CD000F56E0D00000EF56E0D00000EF56E0D0088
:102CE000000EF56E0C000CD0F6CFE9FFF7CFEAFF2F
:102CF000000EEE6E000EEE6E000EEE6E000EEF6E2B
:102D0000060E362401011D6F000E372001011E6FD3
:102D10001DC1F6FF1EC1F7FF000EF86E0F0EF7641F
:102D200007D0000EF56E0D00000EF56E0C0008D0F9
:102D3000F6CFE9FFF7CFEAFF000EEE6E000EEF6E62
:102D4000100E362401011D6F000E372001011E6F89
:102D50001DC1F6FF1EC1F7FF000EF86E0F0EF764DF
:102D60000DD0000EF56E0D00000EF56E0D00000E7C
:102D7000F56E0D00000EF56E0C000CD0F6CFE9FFDD
:102D8000F7CFEAFF000EEE6E000EEE6E000EEE6E56
:102D9000000EEF6E140E362401011D6F000E372059
:102DA00001011E6F1DC1F6FF1EC1F7FF000EF86E78
:102DB0000F0EF7640DD0000EF56E0D00000EF56ECF
:102DC0000D00000EF56E0D00000EF56E0C000CD01F
:102DD000F6CFE9FFF7CFEAFF000EEE6E000EEE6EC3
:102DE000000EEE6E000EEF6E080E362401011D6F10
:102DF000000E372001011E6F1DC1F6FF1EC1F7FF37
:102E0000000EF86E0F0EF7640DD0000EF56E0D007B
:102E1000000EF56E0D00000EF56E0D00000EF56E45
:102E20000C000CD0F6CFE9FFF7CFEAFF000EEE6EF4
:102E3000000EEE6E000EEE6E000EEF6E0C0E3624DF
:102E400001011D6F000E372001011E6F1DC1F6FF2D
:102E50001EC1F7FF000EF86E0F0EF7640DD0000EC6
:102E6000F56E0D00000EF56E0D00000EF56E0D00F6
:102E7000000EF56E0C000CD0F6CFE9FFF7CFEAFF9D
:102E8000000EEE6E000EEE6E000EEE6E000EEF6E99
:102E9000180E362401011D6F000E372001011E6F30
:102EA0001DC1F6FF1EC1F7FF000EF86E0F0EF7648E
:102EB00007D0000EF56E0D00000EF56E0C0008D068
:102EC000F6CFE9FFF7CFEAFF000EEE6E000EEF6ED1
:102ED0001C0E362401011D6F000E372001011E6FEC
:102EE0001DC1F6FF1EC1F7FF000EF86E0F0EF7644E
:102EF00007D0000EF56E0D00000EF56E0C0008D028
:102F0000F6CFE9FFF7CFEAFF000EEE6E000EEF6E90
:102F10007FD601012C51000AD8B44AD4040AD8B48F
:102F200034EF12F0010AD8B41CEF11F00C0AD8B437
:102F3000E0D4030AD8B4DDD4060AD8B46ED6ACEF18
:102F40001FF0020E362401011D6F000E3720010113
:102F50001E6F1DC1F6FF1EC1F7FF000EF86E0F0EAB
:102F6000F7640DD00900F5CF1FF10900F5CF20F16E
:102F70000900F5CF21F10900F5CF22F10CD0F6CFF1
:102F8000E9FFF7CFEAFFEECF1FF1EECF20F1EECF52
:102F900021F1EECF22F1215001011F190CE1225045
:102FA0000101201908E123500101211904E12450F5
:102FB00001012219D8A4ACEF1FF00C0E3624010138
:102FC0001D6F000E372001011E6F1DC1F6FF1EC1CF
:102FD000F7FF000EF86E0F0EF7640DD00900F5CF65
:102FE0001FF10900F5CF20F10900F5CF21F109000B
:102FF000F5CF22F10CD0F6CFE9FFF7CFEAFFEECF05
:103000001FF1EECF20F1EECF21F1EECF22F1010141
:10301000DE5101011F190FE10101DF5101012019EA
:103020000AE10101E0510101211905E10101E1512C
:1030300001012219D8A4ACEF1FF0140E36240101AF
:103040001D6F000E372001011E6F1DC1F6FF1EC14E
:10305000F7FF000EF86E0F0EF7640DD00900F5CFE4
:103060001FF10900F5CF20F10900F5CF21F109008A
:10307000F5CF22F10CD0F6CFE9FFF7CFEAFFEECF84
:103080001FF1EECF20F1EECF21F1EECF22F10101C1
:10309000E25101011F5D0101E351010120590101CC
:1030A000E451010121590101E55101012259D8B032
:1030B000ACEF1FF0100E362401011D6F000E3720FB
:1030C00001011E6F1DC1F6FF1EC1F7FF000EF86E55
:1030D0000F0EF7640DD00900F5CF1FF10900F5CFF1
:1030E00020F10900F5CF21F10900F5CF22F10CD034
:1030F000F6CFE9FFF7CFEAFFEECF1FF1EECF20F1D9
:10310000EECF21F1EECF22F1010E01011F250101C9
:10311000236F000E010120210101246F000E010127
:1031200021210101256F000E010122210101266FDD
:103130000101E2510101235D0101E3510101245923
:103140000101E451010125590101E551010126590F
:10315000D8A0CAD1100E362401011D6F000E3720F1
:1031600001011E6F1DC1F6FF1EC1F7FF000EF86EB4
:103170000F0EF76407D00900F5CF1FF10900F5CF56
:1031800020F108D0F6CFE9FFF7CFEAFFEECF1FF12D
:10319000EECF20F121EEE2F0DECF21F1DDCF22F102
:1031A0000101211F221F214B222B01011F5101016F
:1031B000212501012A6F0101205101012221010174
:1031C0002B6F2AC11DF12BC11EF101011D1F1E1FF6
:1031D0001D4B1E2B250E362401011F6F000E3720BC
:1031E0000101206F1FC1F6FF20C1F7FF000EF86E2E
:1031F0000F0EF76407D00900F5CF21F10900F5CFD4
:1032000022F108D0F6CFE9FFF7CFEAFFEECF21F1A8
:10321000EECF22F101011D510101212701011E51B3
:1032200001012223250E36240101236F000E3720D1
:103230000101246F23C1F6FF24C1F7FF000EF86ED1
:103240000F0EF76407D021C1F5FF0D0022C1F5FF75
:103250000C0008D0F6CFE9FFF7CFEAFF21C1EEFF5F
:1032600022C1EFFF270E362401011D6F000E37200B
:1032700001011E6F1DC1F6FF1EC1F7FF000EF86EA3
:103280000F0EF76407D00900F5CF1FF10900F5CF45
:1032900020F108D0F6CFE9FFF7CFEAFFEECF1FF11C
:1032A000EECF20F101012A5101011F2701012B510D
:1032B00001012023270E36240101216F000E372043
:1032C0000101226F21C1F6FF22C1F7FF000EF86E47
:1032D0000F0EF76407D01FC1F5FF0D0020C1F5FFE9
:1032E0000C0008D0F6CFE9FFF7CFEAFF1FC1EEFFD1
:1032F00020C1EFFF270E362401011D6F000E37207D
:1033000001011E6F1DC1F6FF1EC1F7FF000EF86E12
:103310000F0EF76407D00900F5CF1FF10900F5CFB4
:1033200020F108D0F6CFE9FFF7CFEAFFEECF1FF18B
:10333000EECF20F101011F5101012011D8A437D097
:10334000290E362401011D6F000E372001011E6F6A
:103350001DC1F6FF1EC1F7FF000EF86E0F0EF764D9
:1033600003D00800F55005D0F6CFE9FFF7CFEAFF0C
:10337000EF50020AD8A41BD0290E362401011D6F7C
:10338000000E372001011E6F1DC1F6FF1EC1F7FFA1
:10339000000EF86E0F0EF76404D0000EF56E0C00F0
:1033A00006D0F6CFE9FFF7CFEAFF000EEF6E21EE71
:1033B000E2F0FF0EDE2401011D6FFF0EDE20010191
:1033C0001E6FFF0EDE2001011F6FFF0EDE200101C8
:1033D000206F140E36240101216F000E37200101E9
:1033E000226F21C1F6FF22C1F7FF000EF86E0F0E0B
:1033F000F7640DD01DC1F5FF0D001EC1F5FF0D00D6
:103400001FC1F5FF0D0020C1F5FF0C000CD0F6CF59
:10341000E9FFF7CFEAFF1DC1EEFF1EC1EEFF1FC19E
:10342000EEFF20C1EFFF100E362401011D6F000ECC
:10343000372001011E6F1DC1F6FF1EC1F7FF000EF0
:10344000F86E0F0EF7640DD0E2C1F5FF0D00E3C179
:10345000F5FF0D00E4C1F5FF0D00E5C1F5FF0C001F
:103460000CD0F6CFE9FFF7CFEAFFE2C1EEFFE3C1F0
:10347000EEFFE4C1EEFFE5C1EFFF32503310D8B4E8
:10348000ACEF1FF0080E362401011D6F000E37202F
:1034900001011E6F1DC1F6FF1EC1F7FF000EF86E81
:1034A0000F0EF7640DD0DEC1F5FF0D00DFC1F5FF93
:1034B0000D00E0C1F5FF0D00E1C1F5FF0C000CD0DF
:1034C000F6CFE9FFF7CFEAFFDEC1EEFFDFC1EEFF87
:1034D000E0C1EEFFE1C1EFFF32C0EEF033C0EFF02C
:1034E00074EC39F0ACEF1FF0350E362401011D6F7E
:1034F000000E372001011E6F1DC1F6FF1EC1F7FF30
:10350000000EF86E0F0EF76404D0140EF56E0C006A
:1035100006D0F6CFE9FFF7CFEAFF140EEF6E36C004
:10352000BCF037C0BDF0E5EC1FF00009D8B4ACEF3B
:103530001FF0000E01012D6F36C060F037C061F042
:10354000CDEC35F0ACEF1FF0350E362401011D6FC8
:10355000000E372001011E6F1DC1F6FF1EC1F7FFCF
:10356000000EF86E0F0EF76404D0010EF56E0C001D
:1035700006D0F6CFE9FFF7CFEAFF010EEF6E050E9A
:1035800001012D6F36C0BCF037C0BDF0E5EC1FF077
:10359000ACEF1FF0100E362401011D6F000E372016
:1035A00001011E6F1DC1F6FF1EC1F7FF000EF86E70
:1035B0000F0EF7640DD0E2C1F5FF0D00E3C1F5FF7A
:1035C0000D00E4C1F5FF0D00E5C1F5FF0C000CD0C6
:1035D000F6CFE9FFF7CFEAFFE2C1EEFFE3C1EEFF6E
:1035E000E4C1EEFFE5C1EFFF0C0E362401011D6FB3
:1035F000000E372001011E6F1DC1F6FF1EC1F7FF2F
:10360000000EF86E0F0EF7640DD00900F5CF1FF114
:103610000900F5CF20F10900F5CF21F10900F5CF20
:1036200022F10CD0F6CFE9FFF7CFEAFFEECF1FF182
:10363000EECF20F1EECF21F1EECF22F1010E01010C
:103640001F250101236F000E010120210101246FBC
:10365000000E010121210101256F000E010122212F
:103660000101266F0C0E36240101276F000E372052
:103670000101286F27C1F6FF28C1F7FF000EF86E81
:103680000F0EF7640DD023C1F5FF0D0024C1F5FF27
:103690000D0025C1F5FF0D0026C1F5FF0C000CD073
:1036A000F6CFE9FFF7CFEAFF23C1EEFF24C1EEFF1B
:1036B00025C1EEFF26C1EFFF360E362401011D6F36
:1036C000000E372001011E6F1DC1F6FF1EC1F7FF5E
:1036D000000EF86E0F0EF76404D0040EF56E0C00A9
:1036E00006D0F6CFE9FFF7CFEAFF040EEF6E300EFB
:1036F000362401011D6F000E372001011E6F1DC110
:10370000F6FF1EC1F7FF000EF86E0F0EF76407D02C
:10371000020EF56E0D00000EF56E0C0008D0F6CF0F
:10372000E9FFF7CFEAFF020EEE6E000EEF6E320EEB
:10373000362401011D6F000E372001011E6F1DC1CF
:10374000F6FF1EC1F7FF000EF86E0F0EF76407D0EC
:10375000020EF56E0D00000EF56E0C0008D0F6CFCF
:10376000E9FFF7CFEAFF020EEE6E000EEF6E340EA9
:10377000362401011D6F000E372001011E6F1DC18F
:10378000F6FF1EC1F7FF000EF86E0F0EF76404D0AF
:10379000050EF56E0C0006D0F6CFE9FFF7CFEAFF75
:1037A000050EEF6E350E362401011D6F000E372019
:1037B00001011E6F1DC1F6FF1EC1F7FF000EF86E5E
:1037C0000F0EF76404D0110EF56E0C0006D0F6CF84
:1037D000E9FFF7CFEAFF110EEF6E090E01012D6F21
:1037E00036C0BCF037C0BDF0E5EC1FF0B5D3000E1D
:1037F00001012D6F36C060F037C061F0CDEC35F0BF
:10380000ABD3340E362401011D6F000E37200101A9
:103810001E6F1DC1F6FF1EC1F7FF000EF86E0F0EE2
:10382000F76403D00800F55005D0F6CFE9FFF7CFD5
:10383000EAFFEF500009D8B407D036C0BCF037C05B
:10384000BDF0E5EC1FF088D3350E362401011D6F65
:10385000000E372001011E6F1DC1F6FF1EC1F7FFCC
:10386000000EF86E0F0EF76404D0040EF56E0C0017
:1038700006D0F6CFE9FFF7CFEAFF040EEF6E36C0B1
:10388000BCF037C0BDF0E5EC1FF00009D8B464D33C
:10389000000E01012D6F36C060F037C061F0CDEC35
:1038A00035F05AD301012C51000AD8B44DD6040A80
:1038B000D8B4A1EF17F0020AD8B46CD6010AD8B474
:1038C00069D60E0AD8B493D7030AD8B490D7060A9B
:1038D000D8B497D741D3350E362401011D6F000EA1
:1038E000372001011E6F1DC1F6FF1EC1F7FF000E3C
:1038F000F86E0F0EF76404D0100EF56E0C0006D0B3
:10390000F6CFE9FFF7CFEAFF100EEF6E36C0BCF03E
:1039100037C0BDF0E5EC1FF00009D8B41DD3080E88
:1039200009EF16F0300E362401011D6F000E37200E
:1039300001011E6F1DC1F6FF1EC1F7FF000EF86EDC
:103940000F0EF76407D0020EF56E0D00000EF56E37
:103950000C0008D0F6CFE9FFF7CFEAFF020EEE6EBB
:10396000000EEF6E340E362401011D6F000E37205D
:1039700001011E6F1DC1F6FF1EC1F7FF000EF86E9C
:103980000F0EF76404D0010EF56E0C0006D0F6CFD2
:10399000E9FFF7CFEAFF010EEF6E060E09EF16F012
:1039A000350E362401011D6F000E372001011E6FF8
:1039B0001DC1F6FF1EC1F7FF000EF86E0F0EF76473
:1039C00004D0100EF56E0C0006D0F6CFE9FFF7CF4D
:1039D000EAFF100EEF6E36C0BCF037C0BDF0E5EC6C
:1039E0001FF00009D8B4B8D2C1D0340E362401017A
:1039F0001D6F000E372001011E6F1DC1F6FF1EC195
:103A0000F7FF000EF86E0F0EF76403D00800F550B4
:103A100005D0F6CFE9FFF7CFEAFFEF500009D8B4A1
:103A200007D036C0BCF037C0BDF0E5EC1FF094D233
:103A3000350E362401011D6F000E372001011E6F67
:103A40001DC1F6FF1EC1F7FF000EF86E0F0EF764E2
:103A500004D0040EF56E0C0006D0F6CFE9FFF7CFC8
:103A6000EAFF040EEF6E36C0BCF037C0BDF0E5ECE7
:103A70001FF00009D8B470D2000E01012D6F36C0BE
:103A800060F037C061F0CDEC35F066D201012C5109
:103A9000040AD8B447D7020AD8B41DD7010AD8B44B
:103AA0007FD70B0AD8B4A1D757D236C0BCF037C0E5
:103AB000BDF0E5EC1FF095D7340E362401011D6FE3
:103AC000000E372001011E6F1DC1F6FF1EC1F7FF5A
:103AD000000EF86E0F0EF76403D00800F55005D005
:103AE000F6CFE9FFF7CFEAFFEF500009D8B407D0CF
:103AF00036C0BCF037C0BDF0E5EC1FF02DD2350E5E
:103B0000362401011D6F000E372001011E6F1DC1FB
:103B1000F6FF1EC1F7FF000EF86E0F0EF76404D01B
:103B2000040EF56E0C0006D0F6CFE9FFF7CFEAFFE2
:103B3000040EEF6E36C0BCF037C0BDF0E5EC1FF0F0
:103B40000009D8B409D2000E01012D6F36C060F013
:103B500037C061F0CDEC35F0FFD101012C51060AE0
:103B6000D8B4A3D70A0AD8B4A7D7F6D10A0E09EF5A
:103B700016F001012C51040AD8B4F8D7EDD1020E89
:103B8000362401011D6F000E372001011E6F1DC17B
:103B9000F6FF1EC1F7FF000EF86E0F0EF7640DD092
:103BA0000900F5CF1FF10900F5CF20F10900F5CF8D
:103BB00021F10900F5CF22F10CD0F6CFE9FFF7CFC4
:103BC000EAFFEECF1FF1EECF20F1EECF21F1EECFE5
:103BD00022F1215001011F190CE12250010120198D
:103BE00008E123500101211904E1245001012219A7
:103BF000D8A4B2D1060E362401011D6F000E372065
:103C000001011E6F1DC1F6FF1EC1F7FF000EF86E09
:103C10000F0EF76407D00900F5CF1FF10900F5CFAB
:103C200020F108D0F6CFE9FFF7CFEAFFEECF1FF182
:103C3000EECF20F10101DA5101011F1905E1010167
:103C4000DB5101012019D8A487D1000E01012D6F8D
:103C500036C060F037C061F0CDEC35F07DD1340E68
:103C6000362401011D6F000E372001011E6F1DC19A
:103C7000F6FF1EC1F7FF000EF86E0F0EF76403D0BB
:103C80000800F55005D0F6CFE9FFF7CFEAFFEF5077
:103C90000009D8B407D036C0BCF037C0BDF0E5ECA1
:103CA0001FF05AD1350E362401011D6F000E37204A
:103CB00001011E6F1DC1F6FF1EC1F7FF000EF86E59
:103CC0000F0EF76404D0040EF56E0C0006D0F6CF8C
:103CD000E9FFF7CFEAFF040EEF6E36C0BCF037C045
:103CE000BDF0E5EC1FF00009D8B436D1000E01019B
:103CF0002D6F36C060F037C061F0CDEC35F02CD1BF
:103D000001012C51040AD8B43AD7030AD8B437D7E2
:103D10000B0AD8B4A4D720D1000E01012D6F36C0F4
:103D200060F037C061F0CDEC35F016D1300E36249E
:103D300001011D6F000E372001011E6F1DC1F6FF2E
:103D40001EC1F7FF000EF86E0F0EF76407D0020ECB
:103D5000F56E0D00000EF56E0C0008D0F6CFE9FFF1
:103D6000F7CFEAFF020EEE6E000EEF6E320E362433
:103D700001011D6F000E372001011E6F1DC1F6FFEE
:103D80001EC1F7FF000EF86E0F0EF76407D0020E8B
:103D9000F56E0D00000EF56E0C0008D0F6CFE9FFB1
:103DA000F7CFEAFF020EEE6E000EEF6E340E3624F1
:103DB00001011D6F000E372001011E6F1DC1F6FFAE
:103DC0001EC1F7FF000EF86E0F0EF76404D0030E4D
:103DD000F56E0C0006D0F6CFE9FFF7CFEAFF030E31
:103DE000EF6E350E362401011D6F000E37200101E4
:103DF0001E6F1DC1F6FF1EC1F7FF000EF86E0F0EFD
:103E0000F76404D0020EF56E0C0006D0F6CFE9FF81
:103E1000F7CFEAFF020EEF6E36C0BCF037C0BDF040
:103E2000E5EC1FF0020E4FD0010E0101296F94D076
:103E3000020E362401011D6F000E372001011E6F96
:103E40001DC1F6FF1EC1F7FF000EF86E0F0EF764DE
:103E50000DD0000EF56E0D00000EF56E0D00000E7B
:103E6000F56E0D00000EF56E0C000CD0F6CFE9FFDC
:103E7000F7CFEAFF000EEE6E000EEE6E000EEE6E55
:103E8000000EEF6E060E362401011D6F000E372066
:103E900001011E6F1DC1F6FF1EC1F7FF000EF86E77
:103EA0000F0EF76407D0000EF56E0D00000EF56ED4
:103EB0000C0008D0F6CFE9FFF7CFEAFF000EEE6E58
:103EC000000EEF6E010E01012D6FAED701012C51D6
:103ED000010AD8B42BD7030AD8B4AAD73DD02A0EEA
:103EE000362401011D6F000E372001011E6F1DC118
:103EF000F6FF1EC1F7FF000EF86E0F0EF76403D039
:103F00000800F55005D0F6CFE9FFF7CFEAFFEF50F4
:103F1000000AD8B4DBD7010AD8B47CEF0AF0030A50
:103F2000D8B401EF11F0010AD8B489EF17F0070AED
:103F3000D8B4B8D4010AD8B4A9D5030AD8B40DD6D8
:103F4000010AD8B409D00F0AD8B413D6010AD8B4DC
:103F5000D7D6030AD8B4E0D62B0E362401011D6F44
:103F6000000E372001011E6F1DC1F6FF1EC1F7FFB5
:103F7000000EF86E0F0EF76404D00D0EF56E0C00F7
:103F800006D0F6CFE9FFF7CFEAFF0D0EEF6E2A0E4F
:103F9000362401011D6F000E372001011E6F1DC167
:103FA000F6FF1EC1F7FF000EF86E0F0EF76404D087
:103FB0002DC1F5FF0C0006D0F6CFE9FFF7CFEAFFE1
:103FC0002DC1EFFF010129511200000E0101066F02
:103FD000BCC0F6FFBDC0F7FF000EF86E0F0EF76411
:103FE00007D00900F5CFBEF00900F5CFBFF008D02B
:103FF000F6CFE9FFF7CFEAFFEECFBEF0EECFBFF08E
:104000000001BE510001C16FC06BBCC0F6FFBDC056
:10401000F7FF000EF86E0F0EF76407D00900F5CF1A
:10402000C2F00900F5CFC3F008D0F6CFE9FFF7CF13
:10403000EAFFEECFC2F0EECFC3F0C3C0C2F0000182
:10404000C36BFF0E0001C217000EC3170001C05161
:104050000001C2110101096F0001C1510001C3112A
:1040600001010A6F060E0001BC250001BE6F000EA3
:104070000001BD210001BF6FBEC0F6FFBFC0F7FF4A
:10408000000EF86E0F0EF76407D00900F5CFC0F0F0
:104090000900F5CFC1F008D0F6CFE9FFF7CFEAFF6E
:1040A000EECFC0F0EECFC1F00001C0510001C36FF0
:1040B000C26B060E0001BC250001C46F000E00019A
:1040C000BD210001C56FC4C0F6FFC5C0F7FF000EDB
:1040D000F86E0F0EF76407D00900F5CFC6F009009F
:1040E000F5CFC7F008D0F6CFE9FFF7CFEAFFEECF64
:1040F000C6F0EECFC7F0C7C0C6F00001C76BFF0E19
:104100000001C617000EC7170001C2510001C611F9
:1041100001010B6F0001C3510001C71101010C6FB8
:10412000100E0001BC250001BE6F000E0001BD2174
:104130000001BF6FBEC0F6FFBFC0F7FF000EF86EF4
:104140000F0EF7640DD00900F5CFC0F00900F5CFD0
:10415000C1F00900F5CFC2F00900F5CFC3F00CD0D3
:10416000F6CFE9FFF7CFEAFFEECFC0F0EECFC1F018
:10417000EECFC2F0EECFC3F0FF0E0001C01500017C
:10418000C46F000E0001C1150001C56F000E0001D3
:10419000C2150001C66F000E0001C3150001C76FF4
:1041A000C4C0C7F00001C66BC56BC46B100E000124
:1041B000BC250001C86F000E0001BD210001C96FC0
:1041C000C8C0F6FFC9C0F7FF000EF86E0F0EF76407
:1041D0000DD00900F5CFCAF00900F5CFCBF00900EA
:1041E000F5CFCCF00900F5CFCDF00CD0F6CFE9FF3C
:1041F000F7CFEAFFEECFCAF0EECFCBF0EECFCCF0A8
:10420000EECFCDF0000E0001CA150001CE6FFF0EFB
:104210000001CB150001CF6F000E0001CC1500018D
:10422000D06F000E0001CD150001D16FD0C0D1F0CC
:10423000CFC0D0F0CEC0CFF00001CE6B100E000189
:10424000BC250001D26F000E0001BD210001D36F1B
:10425000D2C0F6FFD3C0F7FF000EF86E0F0EF76462
:104260000DD00900F5CFD4F00900F5CFD5F0090045
:10427000F5CFD6F00900F5CFD7F00CD0F6CFE9FF97
:10428000F7CFEAFFEECFD4F0EECFD5F0EECFD6F0F9
:10429000EECFD7F0D5C0D4F0D6C0D5F0D7C0D6F089
:1042A0000001D76B000E0001D4150001D86FFF0E7E
:1042B0000001D5150001D96F000E0001D6150001CF
:1042C000DA6F000E0001D7150001DB6F100E000140
:1042D000BC250001DC6F000E0001BD210001DD6F77
:1042E000DCC0F6FFDDC0F7FF000EF86E0F0EF764BE
:1042F0000DD00900F5CFDEF00900F5CFDFF00900A1
:10430000F5CFE0F00900F5CFE1F00CD0F6CFE9FFF2
:10431000F7CFEAFFEECFDEF0EECFDFF0EECFE0F04A
:10432000EECFE1F0000E0001DE150001E26F000E9D
:104330000001DF150001E36F000E0001E015000130
:10434000E46FFF0E0001E1150001E56F190E06D0C4
:104350000001D890E533E433E333E233E82EF8D7B5
:104360000001D8510001E2110001E66F0001D951AE
:104370000001E3110001E76F0001DA510001E411CF
:104380000001E86F0001DB510001E5110001E96F58
:104390000001CE510001E6110001EA6F0001CF518A
:1043A0000001E7110001EB6F0001D0510001E8119D
:1043B0000001EC6F0001D1510001E9110001ED6F26
:1043C0000001C4510001EA1101010D6F0001C55146
:1043D0000001EB1101010E6F0001C6510001EC114B
:1043E00001010F6F0001C7510001ED110101106FB4
:1043F0000C0E0001BC250001BE6F000E0001BD21A6
:104400000001BF6FBEC0F6FFBFC0F7FF000EF86E21
:104410000F0EF7640DD00900F5CFC0F00900F5CFFD
:10442000C1F00900F5CFC2F00900F5CFC3F00CD000
:10443000F6CFE9FFF7CFEAFFEECFC0F0EECFC1F045
:10444000EECFC2F0EECFC3F0FF0E0001C0150001A9
:10445000C46F000E0001C1150001C56F000E000100
:10446000C2150001C66F000E0001C3150001C76F21
:10447000C4C0C7F00001C66BC56BC46B0C0E000155
:10448000BC250001C86F000E0001BD210001C96FED
:10449000C8C0F6FFC9C0F7FF000EF86E0F0EF76434
:1044A0000DD00900F5CFCAF00900F5CFCBF0090017
:1044B000F5CFCCF00900F5CFCDF00CD0F6CFE9FF69
:1044C000F7CFEAFFEECFCAF0EECFCBF0EECFCCF0D5
:1044D000EECFCDF0000E0001CA150001CE6FFF0E29
:1044E0000001CB150001CF6F000E0001CC150001BB
:1044F000D06F000E0001CD150001D16FD0C0D1F0FA
:10450000CFC0D0F0CEC0CFF00001CE6B0C0E0001BA
:10451000BC250001D26F000E0001BD210001D36F48
:10452000D2C0F6FFD3C0F7FF000EF86E0F0EF7648F
:104530000DD00900F5CFD4F00900F5CFD5F0090072
:10454000F5CFD6F00900F5CFD7F00CD0F6CFE9FFC4
:10455000F7CFEAFFEECFD4F0EECFD5F0EECFD6F026
:10456000EECFD7F0D5C0D4F0D6C0D5F0D7C0D6F0B6
:104570000001D76B000E0001D4150001D86FFF0EAB
:104580000001D5150001D96F000E0001D6150001FC
:10459000DA6F000E0001D7150001DB6F0C0E000171
:1045A000BC250001DC6F000E0001BD210001DD6FA4
:1045B000DCC0F6FFDDC0F7FF000EF86E0F0EF764EB
:1045C0000DD00900F5CFDEF00900F5CFDFF00900CE
:1045D000F5CFE0F00900F5CFE1F00CD0F6CFE9FF20
:1045E000F7CFEAFFEECFDEF0EECFDFF0EECFE0F078
:1045F000EECFE1F0000E0001DE150001E26F000ECB
:104600000001DF150001E36F000E0001E01500015D
:10461000E46FFF0E0001E1150001E56F190E06D0F1
:104620000001D890E533E433E333E233E82EF8D7E2
:104630000001D8510001E2110001E66F0001D951DB
:104640000001E3110001E76F0001DA510001E411FC
:104650000001E86F0001DB510001E5110001E96F85
:104660000001CE510001E6110001EA6F0001CF51B7
:104670000001E7110001EB6F0001D0510001E811CA
:104680000001EC6F0001D1510001E9110001ED6F53
:104690000001C4510001EA110101116F0001C5516F
:1046A0000001EB110101126F0001C6510001EC1174
:1046B0000101136F0001C7510001ED110101146FD9
:1046C00001011591010115931595159701011551DA
:1046D0000F0B5009156F1A0E0001BC250001BE6FAB
:1046E000000E0001BD210001BF6FBEC0F6FFBFC0BC
:1046F000F7FF000EF86E0F0EF76407D00900F5CF34
:10470000C0F00900F5CFC1F008D0F6CFE9FFF7CF30
:10471000EAFFEECFC0F0EECFC1F00001C0510001C2
:10472000C36FC26B1A0E0001BC250001C46F000EDE
:104730000001BD210001C56FC4C0F6FFC5C0F7FF71
:10474000000EF86E0F0EF76407D00900F5CFC6F023
:104750000900F5CFC7F008D0F6CFE9FFF7CFEAFFA1
:10476000EECFC6F0EECFC7F0C7C0C6F00001C76BF2
:10477000FF0E0001C617000EC7170001C25100014D
:10478000C6110101176F0001C3510001C7110101DA
:10479000186F000E01011A6F000E196F000E010153
:1047A0001C6F000E1B6F350E0001BC250001BE6F93
:1047B000000E0001BD210001BF6FBEC0F6FFBFC0EB
:1047C000F7FF000EF86E0F0EF76403D00800F550E7
:1047D00005D0F6CFE9FFF7CFEAFFEF500001C06F39
:1047E000060E0001C017D8B406D0000E0101086FF4
:1047F000000E076FCDD1270E0001BC250001BE6F52
:10480000000E0001BD210001BF6FBEC0F6FFBFC09A
:10481000F7FF000EF86E0F0EF76407D00900F5CF12
:1048200007F10900F5CF08F108D0F6CFE9FFF7CF7F
:10483000EAFFEECF07F1EECF08F1010107510101C8
:104840000811D8B4A5D1180E0001BC250001BE6F17
:10485000000E0001BD210001BF6FBEC0F6FFBFC04A
:10486000F7FF000EF86E0F0EF76407D00900F5CFC2
:10487000C0F00900F5CFC1F008D0F6CFE9FFF7CFBF
:10488000EAFFEECFC0F0EECFC1F001010751000109
:10489000C05D010108510001C159D8B022D0180EE5
:1048A0000001BC250001BE6F000E0001BD2100010A
:1048B000BF6FBEC0F6FFBFC0F7FF000EF86E0F0E51
:1048C000F76407D00900F5CF07F10900F5CF08F12B
:1048D00008D0F6CFE9FFF7CFEAFFEECF07F1EECF32
:1048E00008F11C0E0001BC250001BE6F000E000186
:1048F000BD210001BF6FBEC0F6FFBFC0F7FF000EB5
:10490000F86E0F0EF76407D00900F5CFC0F009006C
:10491000F5CFC1F008D0F6CFE9FFF7CFEAFFEECF31
:10492000C0F0EECFC1F0010107510001C05D0101EF
:1049300008510001C159D8B022D01C0E0001BC257D
:104940000001BE6F000E0001BD210001BF6FBEC09F
:10495000F6FFBFC0F7FF000EF86E0F0EF76407D02A
:104960000900F5CF07F10900F5CF08F108D0F6CF1F
:10497000E9FFF7CFEAFFEECF07F1EECF08F1250E02
:104980000001BC250001BE6F000E0001BD21000129
:10499000BF6FBEC0F6FFBFC0F7FF000EF86E0F0E70
:1049A000F76407D00900F5CF00F10900F5CF01F158
:1049B00008D0F6CFE9FFF7CFEAFFEECF00F1EECF58
:1049C00001F1250E0001BC250001BE6F000E0001A3
:1049D000BD210001BF6FBEC0F6FFBFC0F7FF000ED4
:1049E000F86E0F0EF76407D00900F5CFC0F009008C
:1049F000F5CFC1F008D0F6CFE9FFF7CFEAFFEECF51
:104A0000C0F0EECFC1F0010107510001C027010144
:104A100008510001C123250E0001BC250001C26F11
:104A2000000E0001BD210001C36FC2C0F6FFC3C06C
:104A3000F7FF000EF86E0F0EF76407D0C0C0F5FF49
:104A40000D00C1C0F5FF0C0008D0F6CFE9FFF7CF8D
:104A5000EAFFC0C0EEFFC1C0EFFF270E0001BC257A
:104A60000001BE6F000E0001BD210001BF6FBEC07E
:104A7000F6FFBFC0F7FF000EF86E0F0EF76407D009
:104A80000900F5CFC0F00900F5CFC1F008D0F6CF8E
:104A9000E9FFF7CFEAFFEECFC0F0EECFC1F007C1DC
:104AA000C2F008C1C3F00001C21FC31FC24BC32B19
:104AB0000001C0510001C2270001C1510001C32300
:104AC000270E0001BC250001C46F000E0001BD21AE
:104AD0000001C56FC4C0F6FFC5C0F7FF000EF86E39
:104AE0000F0EF76407D0C2C0F5FF0D00C3C0F5FF7D
:104AF0000C0008D0F6CFE9FFF7CFEAFFC2C0EEFF07
:104B0000C3C0EFFF270E0001BC250001BE6F000EE1
:104B10000001BD210001BF6FBEC0F6FFBFC0F7FF9F
:104B2000000EF86E0F0EF76407D00900F5CFC0F045
:104B30000900F5CFC1F008D0F6CFE9FFF7CFEAFFC3
:104B4000EECFC0F0EECFC1F00001C0510001C111A5
:104B5000D8A41ED0350E0001BC250001BE6F000E8A
:104B60000001BD210001BF6FBEC0F6FFBFC0F7FF4F
:104B7000000EF86E0F0EF76405D0080E0800F5124F
:104B80000C0006D0F6CFE9FFF7CFEAFF080EEF12D0
:104B9000350E0001BC250001BE6F000E0001BD21D5
:104BA0000001BF6FBEC0F6FFBFC0F7FF000EF86E7A
:104BB0000F0EF76403D00800F55005D0F6CFE9FFDB
:104BC000F7CFEAFFEF500101166F140E0101072520
:104BD0000101046F000E010108210101056F020EA1
:104BE0000001BC250001BE6F000E0001BD210001C7
:104BF000BF6FBEC0F6FFBFC0F7FF000EF86E0F0E0E
:104C0000F7640DD00900F5CFA8F00900F5CFA9F0A1
:104C10000900F5CFAAF00900F5CFABF00CD0F6CF24
:104C2000E9FFF7CFEAFFEECFA8F0EECFA9F0EECF85
:104C3000AAF0EECFABF0060E0001AC6F97EC41F09E
:104C40000101066F010106510101D8B45AD0090EC5
:104C50000001606F010E0001616F000E0001636FC3
:104C6000140E626FC8EC50F00101075101010811E8
:104C7000D8B40AD000C160F001C161F007C162F090
:104C800008C163F0C8EC50F0060E010104250101D3
:104C9000026F000E010105210101036F000E0001EA
:104CA000686F1A0E676F080E010104250001696F15
:104CB000000E0101052100016A6F02C16BF003C102
:104CC0006CF096EC42F067C002F168C003F1020E8E
:104CD0000001676F010E0001686F000E00016A6F2E
:104CE000020E696F000E00016C6F320E6B6F65EC87
:104CF0004FF004C179F005C17AF0B5EC4AF001013A
:104D0000066F010106510101D8A488D0340E0001BC
:104D1000BC250001BE6F000E0001BD210001BF6F68
:104D2000BEC0F6FFBFC0F7FF000EF86E0F0EF764AF
:104D300003D00800F55005D0F6CFE9FFF7CFEAFF22
:104D4000EF500001C06F010E0001C027340E0001BA
:104D5000BC250001C16F000E0001BD210001C26F22
:104D6000C1C0F6FFC2C0F7FF000EF86E0F0EF76469
:104D700004D0C0C0F5FF0C0006D0F6CFE9FFF7CF96
:104D8000EAFFC0C0EFFF300E0001BC250001BE6F7E
:104D9000000E0001BD210001BF6FBEC0F6FFBFC005
:104DA000F7FF000EF86E0F0EF76407D00900F5CF7D
:104DB000C0F00900F5CFC1F008D0F6CFE9FFF7CF7A
:104DC000EAFFEECFC0F0EECFC1F00001C05100010C
:104DD000C111D8A491D0300E0001BC250001BE6FD6
:104DE000000E0001BD210001BF6FBEC0F6FFBFC0B5
:104DF000F7FF000EF86E0F0EF76407D0020EF56E87
:104E00000D00000EF56E0C0008D0F6CFE9FFF7CFCD
:104E1000EAFF020EEE6E000EEF6E6ED0100E000175
:104E2000BC250001BE6F000E0001BD210001BF6F57
:104E3000BEC0F6FFBFC0F7FF000EF86E0F0EF7649E
:104E40000DD00900F5CFC0F00900F5CFC1F0090081
:104E5000F5CFC2F00900F5CFC3F00CD0F6CFE9FFD3
:104E6000F7CFEAFFEECFC0F0EECFC1F0EECFC2F049
:104E7000EECFC3F0010107510001C0250001C46F4E
:104E8000010108510001C1210001C56F000E0001A0
:104E9000C2210001C66F000E0001C3210001C76FCF
:104EA000100E0001BC250001C86F000E0001BD21DD
:104EB0000001C96FC8C0F6FFC9C0F7FF000EF86E49
:104EC0000F0EF7640DD0C4C0F5FF0D00C5C0F5FF8F
:104ED0000D00C6C0F5FF0D00C7C0F5FF0C000CD0DB
:104EE000F6CFE9FFF7CFEAFFC4C0EEFFC5C0EEFF83
:104EF000C6C0EEFFC7C0EFFF010106511200000E51
:104F00000101506F000E0101516F000E0101526F3F
:104F1000000E216E000E226E000E236E000E246E17
:104F2000000E336E000E326EDA0E0001606F010E5D
:104F30000001616F000E0001636F140E626F7AEC66
:104F40004DF0000E366E000E376E0101DC5101018E
:104F5000DD11D8B412000101DA510101DB11D8B41E
:104F600012000101DA510101356F346BDAC136F1FB
:104F7000DBC137F137C136F10101376BFF0E01019B
:104F80003617000E371701013451010136110101A6
:104F9000DA6F01013551010137110101DB6F0101A8
:104FA000DC510101356F346B21EEDCF0DECF36F1E0
:104FB000DDCF37F137C136F10101376BFF0E01014B
:104FC0003617000E37170101345101013611010166
:104FD000DC6F01013551010137110101DD6F38C06E
:104FE00051F139C052F14CD051C1F6FF52C1F7FF17
:104FF000000EF86E0F0EF76407D00900F5CF34F1FC
:105000000900F5CF35F108D0F6CFE9FFF7CFEAFF79
:10501000EECF34F1EECF35F1010134510101DC194D
:105020000BE1010135510101DD19D8A405D051C1B1
:1050300036F052C137F035D02C0E01015125010157
:10504000346F000E010152210101356F34C1F6FFAA
:1050500035C1F7FF000EF86E0F0EF76407D0090098
:10506000F5CF51F10900F5CF52F108D0F6CFE9FFA5
:10507000F7CFEAFFEECF51F1EECF52F10101502B05
:105080000101515101015211D8B40BD0010150510D
:10509000800A0101346F3C50800A0101345DD8A0C0
:1050A000A3D736503710D8B41200060E36240101AB
:1050B000346F000E37200101356F34C1F6FF35C162
:1050C000F7FF000EF86E0F0EF76407D00900F5CF5A
:1050D00036F10900F5CF37F108D0F6CFE9FFF7CF69
:1050E000EAFFEECF36F1EECF37F10101DA510101DF
:1050F000361906E10101DB5101013719D8B434D06A
:10510000020E36240101346F000E37200101356F85
:1051100034C1F6FF35C1F7FF000EF86E0F0EF764CD
:105120000DD00900F5CF36F10900F5CF37F10900B0
:10513000F5CF38F10900F5CF39F10CD0F6CFE9FF02
:10514000F7CFEAFFEECF36F1EECF37F1EECF38F101
:10515000EECF39F10101365101013711010138114A
:1051600001013911D8A412002EC121F02FC122F063
:1051700030C123F031C124F00101E6390F0B0101E8
:10518000346F356B0101D890343735370101D89031
:10519000343735370101341F351F344B352B0101AE
:1051A000325101013425326E0101335101013521A3
:1051B000336E87EC43F0E806D8A412000101E7A3A0
:1051C0003BD00101E7A91CD02B0E36240101346F1E
:1051D000000E37200101356F34C1F6FF35C1F7FFEE
:1051E000000EF86E0F0EF76404D0050EF56E0C007D
:1051F00006D0F6CFE9FFF7CFEAFF050EB6D0B6D05E
:105200002B0E36240101346F000E37200101356F5B
:1052100034C1F6FF35C1F7FF000EF86E0F0EF764CC
:1052200004D0030EF56E0C0006D0F6CFE9FFF7CFE1
:10523000EAFF030E9AD09AD00101E7A13BD0010109
:10524000E7A91CD02B0E36240101346F000E372045
:105250000101356F34C1F6FF35C1F7FF000EF86E5E
:105260000F0EF76404D0070EF56E0C0006D0F6CFD3
:10527000E9FFF7CFEAFF070E78D078D02B0E36245F
:105280000101346F000E37200101356F34C1F6FF84
:1052900035C1F7FF000EF86E0F0EF76404D0060E4E
:1052A000F56E0C0006D0F6CFE9FFF7CFEAFF060E49
:1052B0005CD05CD00101E7A53BD00101E7A91CD07F
:1052C0002B0E36240101346F000E37200101356F9B
:1052D00034C1F6FF35C1F7FF000EF86E0F0EF7640C
:1052E00004D00A0EF56E0C0006D0F6CFE9FFF7CF1A
:1052F000EAFF0A0E3AD03AD02B0E36240101346F61
:10530000000E37200101356F34C1F6FF35C1F7FFBC
:10531000000EF86E0F0EF76404D0090EF56E0C0047
:1053200006D0F6CFE9FFF7CFEAFF090E1ED01ED058
:105330000101E7A91BD02B0E36240101346F000EAA
:1053400037200101356F34C1F6FF35C1F7FF000E7C
:10535000F86E0F0EF76404D0040EF56E0C0006D044
:10536000F6CFE9FFF7CFEAFF040EEF6EFF0E010163
:10537000E2150101346F000E0101E3150101356FE3
:10538000000E0101E4150101366F000E0101E51563
:105390000101376F34C137F10101366B356B346B66
:1053A00021EEE2F0000EDE140101386FFF0EDE1474
:1053B0000101396F000EDE1401013A6F000EDE1498
:1053C00001013B6F3AC13BF139C13AF138C139F1C2
:1053D0000101386BE2C13CF1E3C13DF1E4C13EF1B2
:1053E000E5C13FF13DC13CF13EC13DF13FC13EF160
:1053F00001013F6B000E01013C150101406FFF0EE2
:1054000001013D150101416F000E01013E15010131
:10541000426F000E01013F150101436F21EEE2F0E2
:10542000000EDE140101446F000EDE140101456F11
:10543000000EDE140101466FFF0EDE140101476FFE
:10544000190E06D00101D890473346334533443313
:10545000E82EF8D701014051010144110101486FC4
:1054600001014151010145110101496F0101425101
:105470000101461101014A6F010143510101471128
:1054800001014B6F010138510101481101014C6FBD
:10549000010139510101491101014D6F01013A51D9
:1054A00001014A1101014E6F01013B5101014B11F4
:1054B00001014F6F0101345101014C110101E26FF3
:1054C0000101355101014D110101E36F0101365117
:1054D00001014E110101E46F0101375101014F112A
:1054E0000101E56FFF0E0101DE150101346F000EB1
:1054F0000101DF150101356F000E0101E015010109
:10550000366F000E0101E1150101376F34C137F12B
:105510000101366B356B346B21EEDEF0000EDE14CC
:105520000101386FFF0EDE140101396F000EDE1429
:1055300001013A6F000EDE1401013B6F3AC13BF1ED
:1055400039C13AF138C139F10101386BDEC13CF1A2
:10555000DFC13DF1E0C13EF1E1C13FF13DC13CF1B0
:105560003EC13DF13FC13EF101013F6B000E010123
:105570003C150101406FFF0E01013D150101416F16
:10558000000E01013E150101426F000E01013F15A1
:105590000101436F21EEDEF0000EDE140101446FC5
:1055A000000EDE140101456F000EDE140101466F8E
:1055B000FF0EDE140101476F190E06D00101D890CD
:1055C0004733463345334433E82EF8D70101405181
:1055D000010144110101486F0101415101014511CF
:1055E0000101496F010142510101461101014A6F58
:1055F000010143510101471101014B6F0101385174
:105600000101481101014C6F01013951010149119A
:1056100001014D6F01013A5101014A1101014E6F23
:1056200001013B5101014B1101014F6F0101345147
:1056300001014C110101DE6F0101355101014D11D4
:105640000101DF6F0101365101014E110101E06FCF
:105650000101375101014F110101E16F57EC08F0D1
:105660001200000E00018E6F950E0001606F000E9B
:105670000001616F000E0001636F1C0E626F7AEC17
:105680004DF060C08BF061C08CF01C0E00018B19D6
:1056900000018C11D8A41200000E00018D6F000EC5
:1056A0000001936F030E0001946F080E0001916FCB
:1056B000000191510001D8B448D0000120EE06F05D
:1056C0009351D9269451DA22DE500001A31935E115
:1056D000DE500001A41931E1DE500001A5192DE1D1
:1056E000DE500001A619D8A428D0000120EE0AF04F
:1056F0009351D9269451DA22DE50000197191DE109
:10570000DE5000019819D8A418D0000120EE0CF04A
:105710009351D9269451DA22000EDF6E20EE9DF0CF
:1057200093C0E1FF94C0E2FF050EDBCFE3FFE80684
:10573000FCE2010E00018D6F08D00D0E00019327D1
:10574000000E942300019107B3D729502A102B1083
:105750002C10D8B4EBD2FF0E0001AD1500016B6F19
:10576000000E0001AE1500016C6F000E0001AF15B8
:1057700000016D6F000E0001B01500016E6F6BC06F
:105780006EF000016D6B6C6B6B6B20EEADF0000E7C
:10579000DE1400016F6FFF0EDE140001706F000E4B
:1057A000DE140001716F000EDE140001726F71C013
:1057B00072F070C071F06FC070F000016F6BADC01F
:1057C00073F0AEC074F0AFC075F0B0C076F074C0C6
:1057D00073F075C074F076C075F00001766B000E42
:1057E000000173150001776FFF0E000174150001B1
:1057F000786F000E000175150001796F000E000131
:10580000761500017A6F20EEADF0000EDE14000177
:105810007B6F000EDE1400017C6F000EDE140001B1
:105820007D6FFF0EDE1400017E6F190E06D00001A1
:10583000D8907E337D337C337B33E82EF8D700015C
:10584000775100017B1100017F6F00017851000149
:105850007C110001806F0001795100017D11000170
:10586000816F00017A5100017E110001826F0001F9
:105870006F5100017F110001836F00017051000121
:1058800080110001846F000171510001811100013C
:10589000856F00017251000182110001866F0001C5
:1058A0006B51000183110001876F00016C510001F1
:1058B00084110001886F00016D5100018511000104
:1058C000896F00016E510001861100018A6F295015
:1058D000000187190CE12A500001881908E12B50BA
:1058E0000001891904E12C5000018A19D8A41ED2A4
:1058F00000018D510001D8A41CD1000E0001936F4E
:10590000030E0001946F000E00018F6F030E000163
:10591000906F080E0001926F000192510001D8B4FF
:105920001ED0000120EE0CF08F51D9269051DA22C2
:10593000000110EE0CF09351E1269451E222DE506A
:10594000E65CD8B004D08FC093F090C094F00D0EF8
:1059500000018F27000E902300019207DDD7000180
:1059600020EE0CF09351D9269451DA22000EDF6E0E
:1059700020EE9DF093C0E1FF94C0E2FF050EDBCF67
:10598000E3FFE806FCE2FF0E0001A31500016B6FC8
:10599000000E0001A41500016C6F000E0001A5159A
:1059A00000016D6F000E0001A61500016E6F6BC047
:1059B0006EF000016D6B6C6B6B6B20EEA3F0000E54
:1059C000DE1400016F6FFF0EDE140001706F000E19
:1059D000DE140001716F000EDE140001726F71C0E1
:1059E00072F070C071F06FC070F000016F6BA3C0F7
:1059F00073F0A4C074F0A5C075F0A6C076F074C0B2
:105A000073F075C074F076C075F00001766B000E0F
:105A1000000173150001776FFF0E0001741500017E
:105A2000786F000E000175150001796F000E0001FE
:105A3000761500017A6F20EEA3F0000EDE1400014F
:105A40007B6F000EDE1400017C6F000EDE1400017F
:105A50007D6FFF0EDE1400017E6F190E06D000016F
:105A6000D8907E337D337C337B33E82EF8D700012A
:105A7000775100017B1100017F6F00017851000117
:105A80007C110001806F0001795100017D1100013E
:105A9000816F00017A5100017E110001826F0001C7
:105AA0006F5100017F110001836F000170510001EF
:105AB00080110001846F000171510001811100010A
:105AC000856F00017251000182110001866F000193
:105AD0006B51000183110001876F00016C510001BF
:105AE00084110001886F00016D51000185110001D2
:105AF000896F00016E510001861100018A6F00015B
:105B000020EE06F09351D9269451DA2287C0DEFFA9
:105B100088C0DEFF89C0DEFF8AC0DEFF000120EE04
:105B20000AF09351D9269451DA2297C0DEFF98C02B
:105B3000DDFF00019C0500019B11D8A412009D0E01
:105B40000001656F000E0001666F080E0001686FAE
:105B5000060E676F6BEC40F000018E6F00018E0542
:105B6000D8A4120020EE9DF010EEA7F0050EDBCFBA
:105B7000E3FFE806FCE29D0E0001646F000E0001E9
:105B8000656F22EC4FF0A3C0ADF0A4C0AEF0A5C08D
:105B9000AFF0A6C0B0F0FF0E291400016B6F000E2D
:105BA0002A1400016C6F000E2B1400016D6F000EA3
:105BB0002C1400016E6F6BC06EF000016D6B6C6B8E
:105BC0006B6B000E291400016F6FFF0E2A14000189
:105BD000706F000E2B140001716F000E2C14000169
:105BE000726F71C072F070C071F06FC070F0000120
:105BF0006F6B29C073F02AC074F02BC075F02CC0F5
:105C000076F074C073F075C074F076C075F0000162
:105C1000766B000E000173150001776FFF0E000117
:105C200074150001786F000E000175150001796F81
:105C3000000E0001761500017A6F000E2914000194
:105C40007B6F000E2A1400017C6F000E2B140001E4
:105C50007D6FFF0E2C1400017E6F190E06D000011F
:105C6000D8907E337D337C337B33E82EF8D7000128
:105C7000775100017B1100017F6F00017851000115
:105C80007C110001806F0001795100017D1100013C
:105C9000816F00017A5100017E110001826F0001C5
:105CA0006F5100017F110001836F000170510001ED
:105CB00080110001846F0001715100018111000108
:105CC000856F00017251000182110001866F000191
:105CD0006B51000183110001A36F00016C510001A1
:105CE00084110001A46F00016D51000185110001B4
:105CF000A56F00016E51000186110001A66F020E12
:105D000000019C6F000E9B6F950E0001606F000EEE
:105D10000001616F000E0001636F1C0E626FC8EC22
:105D200050F02FEC53F000018E6F12000E0E0001A8
:105D30008E6F1200000E0101736F000E726F000E65
:105D40000101716F000E706F000E0001746F140E70
:105D5000736F000E0001766F000E756FA4EC4FF0AC
:105D600073C072F174C073F10101725101017311BA
:105D7000D8A412009E0E0001606F020E0001616F38
:105D8000000E0001636F140E626F7AEC4DF0020199
:105D90009E390F0B040AD8A41200FF0E0201AE15A3
:105DA0000101536F000E0201AF150101546F000E87
:105DB0000201B0150101556F000E0201B11501017C
:105DC000566F53C156F10101556B546B536B22EE64
:105DD000AEF0000EDE140101576FFF0EDE1401015C
:105DE000586F000EDE140101596F000EDE14010120
:105DF0005A6F59C15AF158C159F157C158F10101AF
:105E0000576BAEC25BF1AFC25CF1B0C25DF1B1C223
:105E10005EF15CC15BF15DC15CF15EC15DF10101F0
:105E20005E6B000E01015B1501015F6FFF0E01014A
:105E30005C150101606F000E01015D150101616FCC
:105E4000000E01015E150101626F22EEAEF0000E40
:105E5000DE140101636F000EDE140101646F000E99
:105E6000DE140101656FFF0EDE140101666F190E6D
:105E700006D00101D8906633653364336333E82E6E
:105E8000F8D701015F51010163110101676F010141
:105E90006051010164110101686F0101615101014B
:105EA00065110101696F0101625101016611010172
:105EB0006A6F010157510101671101016B6F010107
:105EC00058510101681101016C6F01015951010123
:105ED000691101016D6F01015A5101016A1101013E
:105EE0006E6F0101535101016B110201AE6F01018F
:105EF000545101016C110201AF6F010155510101B3
:105F00006D110201B06F0101565101016E110201C4
:105F1000B16FFF0E0201AA150101536F000E0201BD
:105F2000AB150101546F000E0201AC150101556F54
:105F3000000E0201AD150101566F53C156F101016A
:105F4000556B546B536B22EEAAF0000EDE14010168
:105F5000576FFF0EDE140101586F000EDE140101B1
:105F6000596F000EDE1401015A6F59C15AF158C120
:105F700059F157C158F10101576BAAC25BF1ABC28D
:105F80005CF1ACC25DF1ADC25EF15CC15BF15DC1C3
:105F90005CF15EC15DF101015E6B000E01015B15FC
:105FA00001015F6FFF0E01015C150101606F000EC2
:105FB00001015D150101616F000E01015E15010116
:105FC000626F22EEAAF0000EDE140101636F000E74
:105FD000DE140101646F000EDE140101656FFF0E17
:105FE000DE140101666F190E06D00101D8906633E8
:105FF000653364336333E82EF8D701015F51010143
:1060000063110101676F0101605101016411010118
:10601000686F01016151010165110101696F0101A1
:1060200062510101661101016A6F010157510101BD
:10603000671101016B6F01015851010168110101E4
:106040006C6F010159510101691101016D6F01016D
:106050005A5101016A1101016E6F01015351010191
:106060006B110201AA6F0101545101016C1102016F
:10607000AB6F0101555101016D110201AC6F0101BE
:10608000565101016E110201AD6F29500201AE1986
:106090000DE12A500201AF1909E12B500201B0199C
:1060A00005E12C500201B119D8B40DD00201AE297E
:1060B00009E10201AF2906E10201B02903E1020171
:1060C000B129D8A412000201A0510101546F536BF1
:1060D00022EEA0F0DECF55F1DDCF56F156C155F1DD
:1060E0000101566BFF0E01015517000E56170101F5
:1060F0005351010155110201A06F010154510101D9
:1061000056110201A16F02019E510F0B0101536F45
:106110000101D89053370101D890533501016F6FB9
:1061200002019E510F0B0101536F050E01015365D2
:10613000C7D0EC0E01016F250001676F0001686B8D
:10614000FF0E6823FCEC50F0BBD001016F51010140
:10615000536F546B0101531F541F534B542B0201B7
:10616000A051010153250101706F0201A1510101EC
:1061700054210101716F70C173F071C174F0000E90
:106180000001766F000E756FA4EC4FF073C072F1D2
:1061900074C073F10101725101017311D8A412008E
:1061A0009E0E0001CD6F020E0001CE6F0DEC4EF081
:1061B000120001016F510101536F546B0101531F14
:1061C000541F534B542B0201A051010153250101CF
:1061D000706F0201A151010154210101716F70C161
:1061E00060F071C161F0B5EC48F060C072F161C05F
:1061F00073F170C173F071C174F072C175F073C145
:1062000076F0A4EC4FF073C072F174C073F172C1F8
:10621000F5F073C1F6F065EC44F0120001016F5126
:106220000101536F546B0101531F541F534B542BE7
:106230000201A051010153250101706F0201A1511A
:10624000010154210101716F70C160F071C161F0F1
:10625000B5EC48F060C072F161C073F170C173F0C9
:1062600071C174F072C175F073C176F0A4EC4FF097
:1062700073C072F174C073F10101725101017311A5
:10628000D8A41200AAC227F2ABC228F2ACC229F2EB
:10629000ADC22AF227C22EF128C22FF129C230F155
:1062A0002AC231F170C132F171C133F17FEC27F0B4
:1062B0001200A0C267F0A1C268F0FCEC50F012001E
:1062C0000201A751010AD8B440D7070AD8B4A6D70B
:1062D000170AD8B46ED7EDD761D2250E00017B190D
:1062E000D8B437D0000120EE02F06B51D9266C51A2
:1062F000DA22DE50DE10DE10D8B415D0000120EE18
:1063000002F06B51D9266C51DA2201D847D2050030
:10631000FA6EDE50FD6EDE50FE6EDE50FF6EFA50FD
:1063200000017B5112006BC0D9FF6CC0DAFFDECFD9
:1063300071F0DDCF72F071C0D9FF72C0DAFF7BC09F
:10634000DFFF6BC0D9FF6CC0DAFFDE2A000EDD2252
:1063500025D2000E0001786F99D00001788FB7D058
:106360006FC0D9FF70C0DAFFDFCF71F0020EDE26FA
:10637000DFCF72F0000EDD2271C0D9FF72C0DAFFEC
:10638000DECF76F0DDCF77F0000176510001771196
:10639000D8A463D0A60E0001766F100E0001776FAF
:1063A0005CD0000120EE02F06B51D9266C51DA224C
:1063B000DE50DE10DE10D8B428D0000120EE02F04E
:1063C0006B51D9266C51DA2201D81BD00500FA6E28
:1063D000DE50FD6EDE50FE6EDE50FF6EFA5076C06F
:1063E000F6FF77C0F7FF000EF86E0F0EF76403D0CC
:1063F0000800F55005D0F6CFE9FFF7CFEAFFEF50E0
:1064000012000001764B772B28D076C0F6FF77C0BC
:10641000F7FF000EF86E6BC0D9FF6CC0DAFFDECF5D
:1064200071F0DDCF72F071C0D9FF72C0DAFF0F0ECC
:10643000F76403D00800F55005D0F6CFE9FFF7CF99
:10644000EAFFEF50DF6E0001764B772B6BC0D9FF70
:106450006CC0DAFFDE2A000EDD2276C0F6FF77C0C0
:10646000F7FF000EF86E0F0EF76403D00800F5502A
:1064700005D0F6CFE9FFF7CFEAFFEF500009D8B417
:106480008DD18FD7C00E0001781321D06DC0F6FFDB
:106490006EC0F7FF00016D4B6E2B000EF86E08000A
:1064A000F5CF7BF000017B51000AD8B487D1640A94
:1064B000D8B40DD00D0AD8B40AD01A0AD8B450D71F
:1064C000060AD8B4DFD70D0AD8B447D767D178C049
:1064D00071F0C00E00017117D8A420D06FC0D9FF91
:1064E00070C0DAFFDFCF71F0020EDE26DFCF72F070
:1064F000000EDD2271C0D9FF72C0DAFFDECF79F065
:10650000DDCF7AF000017AAF60D0030E000178137E
:106510000001796D7A1FD8B07A2B57D06FC0D9FFA0
:1065200070C0DAFFDFCF71F0020EDE26DFCF72F02F
:10653000000EDD2271C0D9FF72C0DAFFDECF79F024
:10654000DDCF7AF042D0010E00017B6F050E000115
:106550007B19D8B446D000017B51020D010EF32403
:10656000F66E100EF420F76EF86A000EF82209009D
:10657000F5500001795D0900F55000017A59D8A065
:1065800030D000017B2BE2D7010E00017B6F040E9F
:1065900000017B19D8B425D000017B51020D0B0EF0
:1065A000F324F66E100EF420F76EF86A000EF8224F
:1065B0000900F5500001795D0900F55000017A5994
:1065C000D8A00FD000017B2BE2D700017851C00B7F
:1065D000000AD8B4B8D7800AD8B4D6D7400AD8B4FD
:1065E000B2D778C071F0030E00017117D8B435D05E
:1065F000000120EE02F06B51D9266C51DA22DE50F8
:10660000DE10DE10D8B414D0000120EE02F06B5181
:10661000D9266C51DA2201D820D00500FA6EDE505E
:10662000FD6EDE50FE6EDE50FF6EFA502D0E120033
:106630006BC0D9FF6CC0DAFFDECF71F0DDCF72F036
:1066400071C0D9FF72C0DAFF2D0EDF6E6BC0D9FFAB
:106650006CC0DAFFDE2A000EDD227BC075F098D018
:1066600000017551020D010EF324F66E100EF42098
:10667000F76EF86A000EF8220900F5CF62F00A0002
:10668000F5CF63F079C060F07AC061F0E1EC4FF0D3
:1066900060C067F061C068F0000E00016A6F0A0E0A
:1066A000696F5EEC51F000016751300F00017B6FA4
:1066B00039D079C060F07AC061F000017551020DE7
:1066C0000B0EF324F66E100EF420F76EF86A000E2F
:1066D000F8220900F5CF62F00A00F5CF63F0E1EC93
:1066E0004FF0000160510F0B0001746F00017451F5
:1066F000010D590EF324F66E100EF420F76EF86AB1
:10670000000EF8220800F5CF7BF00CD00001785184
:10671000C00B000AD8B4A4D7800AD8B4CAD7400A9C
:10672000D8B49ED7000120EE02F06B51D9266C51EF
:10673000DA22DE50DE10DE10D8B415D0000120EED3
:1067400002F06B51D9266C51DA2201D821D0050014
:10675000FA6EDE50FD6EDE50FE6EDE50FF6EFA50B9
:1067600000017B5112006BC0D9FF6CC0DAFFDECF95
:1067700071F0DDCF72F071C0D9FF72C0DAFF7BC05B
:10678000DFFF6BC0D9FF6CC0DAFFDE2A000EDD220E
:106790000001750700017529D8A4B8D76DC0F6FFB0
:1067A0006EC0F7FF00016D4B6E2B000EF86E0800F7
:1067B000F5CF7BF000017B51D8A48FD5000E0001EE
:1067C0006C6F000E6B6F1200000E0101386F000E2F
:1067D0000101396F000E0101376F000E366F010E97
:1067E00002011F27000E202321232223010E34241F
:1067F000346E000E3520356E040E355CD8B004D0F2
:10680000040E356E000E346E38C038F139C039F1DF
:10681000A7D1300E0101382501012E6F000E0101B4
:10682000392101012F6F2EC1F6FF2FC1F7FF000E96
:10683000F86E0F0EF76407D00900F5CF30F10900AC
:10684000F5CF31F108D0F6CFE9FFF7CFEAFFEECF71
:1068500030F1EECF31F10101305101013111D8B4E5
:106860005AD1FF0E01012E6FFF0E01012F6F300E66
:10687000010138250101306F000E010139210101AC
:10688000316F30C1F6FF31C1F7FF000EF86E0F0E09
:10689000F76407D00900F5CF32F10900F5CF33F1E5
:1068A00008D0F6CFE9FFF7CFEAFFEECF32F1EECF17
:1068B00033F101012E510101322701012F51010154
:1068C0003323300E010138250101346F000E010120
:1068D00039210101356F34C1F6FF35C1F7FF000ED4
:1068E000F86E0F0EF76407D032C1F5FF0D0033C10B
:1068F000F5FF0C0008D0F6CFE9FFF7CFEAFF32C171
:10690000EEFF33C1EFFF300E0101382501012E6F7C
:10691000000E0101392101012F6F2EC1F6FF2FC199
:10692000F7FF000EF86E0F0EF76407D00900F5CFE1
:1069300030F10900F5CF31F108D0F6CFE9FFF7CFFC
:10694000EAFFEECF30F1EECF31F10101305101011C
:106950003111D8A4E0D0340E0101382501012E6F89
:10696000000E0101392101012F6F2EC1F6FF2FC149
:10697000F7FF000EF86E0F0EF76403D00800F55015
:1069800005D0F6CFE9FFF7CFEAFFEF500009D8B402
:10699000C2D02B0E0101382501012E6F000E01011E
:1069A000392101012F6F2EC1F6FF2FC1F7FF000E15
:1069B000F86E0F0EF76403D00800F55005D0F6CF3F
:1069C000E9FFF7CFEAFFEF500D0AD8A4A4D0320EAA
:1069D0000101382501012E6F000E0101392101014D
:1069E0002F6F2EC1F6FF2FC1F7FF000EF86E0F0EAE
:1069F000F76407D00900F5CF30F10900F5CF31F188
:106A000008D0F6CFE9FFF7CFEAFFEECF30F1EECFB7
:106A100031F1300E010138250101326F000E010104
:106A200039210101336F32C1F6FF33C1F7FF000E88
:106A3000F86E0F0EF76407D030C1F5FF0D0031C1BD
