:020000040000fa
:080000000002040000000000f2
:020000040000fa
:040008006a05000085
:020000040000fa
:04000c006a05000081
:020000040000fa
:0400100004030000e5
:020000040000fa
:040014000e030000d7
:020000040000fa
:040018006a05000075
:020000040000fa
:04001c006a05000071
:020000040000fa
:040020006a0500006d
:020000040000fa
:040024006a05000069
:020000040000fa
:040028006a05000065
:020000040000fa
:04002c006a05000061
:020000040000fa
:040030006a0500005d
:020000040000fa
:040034007053000005
:020000040000fa
:040038006a05000055
:020000040000fa
:04003c006a05000051
:020000040000fa
:040040006a0500004d
:020000040000fa
:040044006a05000049
:020000040000fa
:040048006a05000045
:020000040000fa
:04004c006a05000041
:020000040000fa
:040050006a0500003d
:020000040000fa
:040054006a05000039
:020000040000fa
:040058006a05000035
:020000040000fa
:04005c006a05000031
:020000040000fa
:040060006a0500002d
:020000040000fa
:040064006a05000029
:020000040000fa
:040068006a05000025
:020000040000fa
:04006c006a05000021
:020000040000fa
:040070006a0500001d
:020000040000fa
:040074006a05000019
:020000040000fa
:040078006a05000015
:020000040000fa
:04007c006a05000011
:020000040000fa
:040080006a0500000d
:020000040000fa
:040084006a05000009
:020000040000fa
:040088006a05000005
:020000040000fa
:04008c006a05000001
:020000040000fa
:040090006a050000fd
:020000040000fa
:040094006a050000f9
:020000040000fa
:040098006a050000f5
:020000040000fa
:04009c006a050000f1
:020000040000fa
:0400a0006a050000ed
:020000040000fa
:0400a4006a050000e9
:020000040000fa
:0400a8006a050000e5
:020000040000fa
:0400ac006a050000e1
:020000040000fa
:0400b0006a050000dd
:020000040000fa
:0400b4006a050000d9
:020000040000fa
:0400b8006a050000d5
:020000040000fa
:0400bc006a050000d1
:020000040000fa
:0400c0006a050000cd
:020000040000fa
:0400c4006a050000c9
:020000040000fa
:0400c8006a050000c5
:020000040000fa
:0400cc006a050000c1
:020000040000fa
:0400d0006a050000bd
:020000040000fa
:0400d4006a050000b9
:020000040000fa
:0400d8006a050000b5
:020000040000fa
:0400dc006a050000b1
:020000040000fa
:0400e0006a050000ad
:020000040000fa
:0400e4006a050000a9
:020000040000fa
:0400e8006a050000a5
:020000040000fa
:0400ec006a050000a1
:020000040000fa
:0400f0006a0500009d
:020000040000fa
:0400f4006a05000099
:020000040000fa
:0400f8006a05000095
:020000040000fa
:0400fc006a05000091
:020000040000fa
:040100006a0500008c
:020000040000fa
:040104006a05000088
:020000040000fa
:040108006a05000084
:020000040000fa
:04010c006a05000080
:020000040000fa
:040110006a0500007c
:020000040000fa
:040114006a05000078
:020000040000fa
:040118006a05000074
:020000040000fa
:04011c006a05000070
:020000040000fa
:040120006a0500006c
:020000040000fa
:040124006a05000068
:020000040000fa
:040128006a05000064
:020000040000fa
:04012c006a05000060
:020000040000fa
:040130006a0500005c
:020000040000fa
:040134006a05000058
:020000040000fa
:040138006a05000054
:020000040000fa
:04013c006a05000050
:020000040000fa
:040140006a0500004c
:020000040000fa
:040144006a05000048
:020000040000fa
:040148006a05000044
:020000040000fa
:04014c006a05000040
:020000040000fa
:040150006a0500003c
:020000040000fa
:040154006a05000038
:020000040000fa
:040158006a05000034
:020000040000fa
:04015c006a05000030
:020000040000fa
:040160006a0500002c
:020000040000fa
:040164006a05000028
:020000040000fa
:040168006a05000024
:020000040000fa
:04016c006a05000020
:020000040000fa
:040170006a0500001c
:020000040000fa
:040174006a05000018
:020000040000fa
:040178006a05000014
:020000040000fa
:04017c006a05000010
:020000040000fa
:040180006a0500000c
:020000040000fa
:040184006a05000008
:020000040000fa
:040188006a05000004
:020000040000fa
:04018c006a05000000
:020000040000fa
:040190006a050000fc
:020000040000fa
:040194006a050000f8
:020000040000fa
:040198006a050000f4
:020000040000fa
:04019c006a050000f0
:020000040000fa
:0401a0006a050000ec
:020000040000fa
:0401a4006a050000e8
:020000040000fa
:0401a8006a050000e4
:020000040000fa
:0401ac006a050000e0
:020000040000fa
:0401b0006a050000dc
:020000040000fa
:0401b4006a050000d8
:020000040000fa
:0401b8006a050000d4
:020000040000fa
:0401bc006a050000d0
:020000040000fa
:0401c0006a050000cc
:020000040000fa
:0401c4006a050000c8
:020000040000fa
:0401c8006a050000c4
:020000040000fa
:0401cc006a050000c0
:020000040000fa
:0401d0006a050000bc
:020000040000fa
:0401d4006a050000b8
:020000040000fa
:0401d8006a050000b4
:020000040000fa
:0401dc006a050000b0
:020000040000fa
:0401e0006a050000ac
:020000040000fa
:0401e4006a050000a8
:020000040000fa
:0401e8006a050000a4
:020000040000fa
:0401ec006a050000a0
:020000040000fa
:0401f0006a0500009c
:020000040000fa
:0401f4006a05000098
:020000040000fa
:0401f8006a05000094
:020000040000fa
:0401fc006a05000090
:020000040000fa
:040208006a05000083
:020000040000fa
:04020c006a0500007f
:020000040000fa
:040210006a0500007b
:020000040000fa
:040214006a05000077
:020000040000fa
:040218006a05000073
:020000040000fa
:04021c006a0500006f
:020000040000fa
:040220006a0500006b
:020000040000fa
:040224006a05000067
:020000040000fa
:040228006a05000063
:020000040000fa
:04022c006a0500005f
:020000040000fa
:040230006a0500005b
:020000040000fa
:040234006a05000057
:020000040000fa
:040238006a05000053
:020000040000fa
:04023c006a0500004f
:020000040000fa
:040240006a0500004b
:020000040000fa
:040244006a05000047
:020000040000fa
:040248006a05000043
:020000040000fa
:04024c006a0500003f
:020000040000fa
:040250006a0500003b
:020000040000fa
:040254006a05000037
:020000040000fa
:040258006a05000033
:020000040000fa
:04025c006a0500002f
:020000040000fa
:040260006a0500002b
:020000040000fa
:040264006a05000027
:020000040000fa
:040268006a05000023
:020000040000fa
:04026c006a0500001f
:020000040000fa
:040270006a0500001b
:020000040000fa
:040274006a05000017
:020000040000fa
:040278006a05000013
:020000040000fa
:04027c006a0500000f
:020000040000fa
:040280006a0500000b
:020000040000fa
:040284006a05000007
:020000040000fa
:040288006a05000003
:020000040000fa
:04028c006a050000ff
:020000040000fa
:040290006a050000fb
:020000040000fa
:040294006a050000f7
:020000040000fa
:040298006a050000f3
:020000040000fa
:04029c006a050000ef
:020000040000fa
:0402a0006a050000eb
:020000040000fa
:0402a4006a050000e7
:020000040000fa
:0402a8006a050000e3
:020000040000fa
:0402ac006a050000df
:020000040000fa
:0402b0006a050000db
:020000040000fa
:0402b4006a050000d7
:020000040000fa
:0402b8006a050000d3
:020000040000fa
:0402bc006a050000cf
:020000040000fa
:0402c0006a050000cb
:020000040000fa
:0402c4006a050000c7
:020000040000fa
:0402c8006a050000c3
:020000040000fa
:0402cc006a050000bf
:020000040000fa
:0402d0006a050000bb
:020000040000fa
:0402d4006a050000b7
:020000040000fa
:0402d8006a050000b3
:020000040000fa
:0402dc006a050000af
:020000040000fa
:0402e0006a050000ab
:020000040000fa
:0402e4006a050000a7
:020000040000fa
:0402e8006a050000a3
:020000040000fa
:0402ec006a0500009f
:020000040000fa
:0402f0006a0500009b
:020000040000fa
:0402f4006a05000097
:020000040000fa
:0402f8006a05000093
:020000040000fa
:0402fc006a0500008f
:020000040000fa
:040300006a0500008a
:020000040000fa
:040304006a05000086
:020000040000fa
:040308006a05000082
:020000040000fa
:04030c006a0500007e
:020000040000fa
:040310006a0500007a
:020000040000fa
:040314006a05000076
:020000040000fa
:040318006a05000072
:020000040000fa
:04031c006a0500006e
:020000040000fa
:040320006a0500006a
:020000040000fa
:040324006a05000066
:020000040000fa
:040328006a05000062
:020000040000fa
:04032c006a0500005e
:020000040000fa
:040330006a0500005a
:020000040000fa
:040334006a05000056
:020000040000fa
:040338006a05000052
:020000040000fa
:04033c006a0500004e
:020000040000fa
:040340006a0500004a
:020000040000fa
:040344006a05000046
:020000040000fa
:040348006a05000042
:020000040000fa
:04034c006a0500003e
:020000040000fa
:040350006a0500003a
:020000040000fa
:040354006a05000036
:020000040000fa
:040358006a05000032
:020000040000fa
:04035c006a0500002e
:020000040000fa
:040360006a0500002a
:020000040000fa
:040364006a05000026
:020000040000fa
:040368006a05000022
:020000040000fa
:04036c006a0500001e
:020000040000fa
:040370006a0500001a
:020000040000fa
:040374006a05000016
:020000040000fa
:040378006a05000012
:020000040000fa
:04037c006a0500000e
:020000040000fa
:040380006a0500000a
:020000040000fa
:040384006a05000006
:020000040000fa
:040388006a05000002
:020000040000fa
:04038c006a050000fe
:020000040000fa
:040390006a050000fa
:020000040000fa
:040394006a050000f6
:020000040000fa
:040398006a050000f2
:020000040000fa
:04039c006a050000ee
:020000040000fa
:0403a0006a050000ea
:020000040000fa
:0403a4006a050000e6
:020000040000fa
:0403a8006a050000e2
:020000040000fa
:0403ac006a050000de
:020000040000fa
:0403b0006a050000da
:020000040000fa
:0403b4006a050000d6
:020000040000fa
:0403b8006a050000d2
:020000040000fa
:0403bc006a050000ce
:020000040000fa
:0403c0006a050000ca
:020000040000fa
:0403c4006a050000c6
:020000040000fa
:0403c8006a050000c2
:020000040000fa
:0403cc006a050000be
:020000040000fa
:0403d0006a050000ba
:020000040000fa
:0403d4006a050000b6
:020000040000fa
:0403d8006a050000b2
:020000040000fa
:0403dc006a050000ae
:020000040000fa
:0403e0006a050000aa
:020000040000fa
:0403e4006a050000a6
:020000040000fa
:0403e8006a050000a2
:020000040000fa
:0403ec006a0500009e
:020000040000fa
:0403f0006a0500009a
:020000040000fa
:0403f4006a05000096
:020000040000fa
:0403f8006a05000092
:020000040000fa
:0403fc006a0500008e
:020000040000fa
:10040000afaa20000e7f22000e018800000000002d
:10041000000020000000e000020032000001200087
:100420002002880014000700ac0107000000e00073
:1004300003003a00805c2500010020000200370024
:100440000000200001002000810f70000100320038
:1004500014000700000020000000e000020032004d
:10046000000002000000000018030200000000006d
:100470000040da000000fe004440a9006025200092
:100480000000e000030032000020200090018800fe
:100490004440a800000006008a1f78008b1f7800e7
:1004a00000000600a1028800800478000000eb0034
:1004b0001f003700e284440054a0b4009905ba003c
:1004c000e284440054a0b4009906ba00e2844400d7
:1004d00054a0b4000006eb00476fde00fd07b20039
:1004e000ae018800636ce10003003a00eaff0700f8
:1004f0000000eb000e003700606ce10008003a00dd
:10050000004deb000a05e800020039003420ec0041
:100510000af0a0008b05e900f9ff3e000400370057
:100520006168e100010032000086eb000b0007006b
:1005300019c7ba001905ba000e04e00003003a001a
:100540000a00e000dbff3a0000000600fe07b200f0
:10055000ae0288008a047800f5ff37000cd0a300b3
:10056000e20f4d001c00390089027800354dba00b9
:100570000a05e800020039003420ec000af0a0006f
:100580008b05e9000f003200254dba000a05e8008e
:10059000020039003420ec000af0a0008b05e900cd
:1005a000080032000c00e0000600320015cdba0051
:1005b0000a05e800020039003420ec000af0a0002f
:1005c0008b05e9008984e80054a0b4000b00e0002a
:1005d000e2ff3a00000006009902ba00055d7800cb
:1005e0008b05e900f7ff3200c82ade00055d7800c0
:1005f0008b05e900f3ff32000c00e000f1ff320050
:1006000019ddba00eeff37000000fa00000000001c
:10061000000000000080fa00004006000000fa0020
:1006200000000000000000000080fa00004006000a
:100630000000fa0087000700e04d02000000000003
:10064000400620002a5702000000000040a42000bd
:1006500002022000a19f2800b20702000000000053
:100660006e4e020000000000365202000000000042
:100670009a0007003c4b0200000000008853020073
:10068000000000000100370000000000ae5302002f
:1006900000000000d254020000000000d64002001a
:1006a000000000006700070000508000115080002b
:1006b0001240800023408000820f5000838f58003a
:1006c000f1ff32000050800011508000104088007f
:1006d00021408800a0a12800225102000000000053
:1006e000005080001150800004000700d0a22800b4
:1006f0002251020000000000e4ff37000c00fa0065
:10070000881f7800400798005107980000c1b30087
:10071000204798000040eb00004f7800370037007a
:100720001e80fb00e8004700008040001040780079
:100730000080fb00e3004700de3c020000000000f8
:100740006300470022510200000000000040eb005f
:10075000104798000e0037002e4090000080fb00ec
:100760009e4090008180fb00810047003141900055
:1007700041a42000827078002e4090000040e800e4
:10078000204798001e4090000040e8001047980065
:100790001e4090000084fb0063004700ce0702006b
:1007a00000000000800f5400ebff39001e4078006d
:1007b000e34f5000150032002e4090000080fb00f7
:1007c00041a42000e2c2b300827078002e40900065
:1007d0000040e8002047980000000000ec510200b3
:1007e000000000000004e000fcff3a00e0022000ee
:1007f0001a520200000000001e4fe8001e40780060
:10080000e34f5000c6ff3600010037000000000033
:100810002e409000ff4f500005003e002e409000fb
:100820000080fb0041a420000041eb0082707800b2
:100830006e4e0200000000004f0478000080fa00b5
:10084000000006000000fa00000000000080fa002e
:10085000000006000000fa00313a8000f08f2f00ff
:1008600000806000303a8800e024ef00e224ef00ce
:10087000e424ef00e624ef00e824ef00ea24ef0090
:10088000ec24ef00404e2800002888004040200063
:10089000102888003000210020288800e8a2a90044
:1008a000e882a80000002800801188000040200095
:1008b0009011880070062000c0118800ddc2a800d9
:1008c000d9c2a900dd82a800d982a9000a48020085
:1008d000000000000080fa00000006000800fa0096
:1008e000881f78000040eb00004f780032032000a2
:1008f0008000eb0000a02000c00702000000000004
:10090000605180000060a00060518800605180004c
:100910000070a000605188006200200001a3280040
:10092000d0a22000b207020000000000008c2a00c4
:10093000116029000050880011508800005080008c
:1009400011508000a0508800b1508800f0ff2f00a7
:100950000100200020508800315088002050800085
:1009600031508000c0508800d1508800008c2a008f
:10097000111020004050880051508800008c2a003f
:100980001110200060508800715088006000b8008d
:1009900080508800915088000201200061a3280047
:1009a000c0a12000b207020000000000c0a120008a
:1009b000ce3f0200000000003103200000a0200014
:1009c000103f020000000000004088001e40780038
:1009d0000004e0000200320000a020002500070013
:1009e0000e80e80063002000000178006000b8007d
:1009f00076480200000000003303200002a020001f
:100a00006000200001002000764802000000000085
:100a10009e00900030032000808f50000b003a00b1
:100a2000ae00900000408000808f500007003a0028
:100a30003e0490003103200000a02000103f02007f
:100a400000000000800f5400070032001e407800b4
:100a50000004e00001003200ffff370010c0b300c7
:100a6000004f7800a1ff37004f0478000080fa00a3
:100a7000000006000800fa003007980000408000df
:100a8000100798003e00900031032000103f020044
:100a9000000000002007980030032000000f7800bd
:100aa0006000b8004e490200000000000e0078000f
:100ab000610020009c490200000000003e00900000
:100ac000310320009c490200000000000080fa0071
:100ad000000006000040da000000fe0000000500f3
:100ae000889fbe008a9fbe0030044200b0844a0046
:100af00030054b0090854b006000b1000898be00a7
:100b00000a90be000440e10005c8e10006d0e10003
:100b100007d8e10002003100680040001008e8003a
:100b20004f05be004f04be0000000600889fbe00b7
:100b30008a9fbe003004be002005be000418540089
:100b400005985c0006185d0007985d001100200004
:100b50000440e10005c8e10006d0e10007d8e1004b
:100b6000010039008000eb00108810004f05be0026
:100b70004f04be00000006001200fa00889fbe006d
:100b80008a9fbe008c9fbe00e0b79f00f1b79f0018
:100b900082bf9f0093bf9f000605be000404be00f5
:100ba0000000eb00d0b79f00c0b79f00b0b79f0018
:100bb000a0b79f0090b79f000006eb005fb19700c1
:100bc000cfb09700820141003fb097000200e000e3
:100bd00004003d00370007007e805700c0ff07007b
:100be00003003700330007007e805700cfff070067
:100bf000dfb697000d00e0000c0035006fb29700e3
:100c0000ffb297000fbb97009fbb9700100020001a
:100c1000010020006011b8000002720081827200a1
:100c200002037300838373001b0007000c06e800b7
:100c300001042000810f5600e0ff3a000d00e000a3
:100c400004003d000802be000a03be007e8057007b
:100c5000a3ff07005fa897000000e00005003a002e
:100c60001fb29700afb297003fb39700cfb3970082
:100c7000090007006fb09700ffb097000fb9970009
:100c80009fb997004f06be004f05be004f04be003f
:100c90000080fa00000006000100070000000600c6
:100ca000a4b79f00b5b79f00c6b79f00d7b79f00f6
:100cb000000006004f09de0082817100b3b79f007b
:100cc0004f01de008180400082807000a1b79f004c
:100cd0008fb097004f09de00000040000200700056
:100ce00090b79f007fa897004f01de0081804000f1
:100cf0008280700081b79f000d0007004f3ade0030
:100d00000000400004007000f0af9f0008000700e2
:100d10000402420085824a0006034b0087834b0091
:100d2000dfff07000802be000a03be000000060045
:100d30002fb29700bfb297004fb39700dfb3970071
:100d400000000600881f780018002000881f780027
:100d500089ff07008f87e9004f0478000000060034
:100d6000801feb0084ff07008f87e900000006006a
:100d7000889fbe008a9fbe00e00f5000e08f5800a1
:100d8000e00f5900e08f59000c003d006044b800ae
:100d90006055b8000000540081805c0002015d00d5
:100da00083815d00180020001500070008003d0049
:100db000180007000004eb00050037000004eb00fa
:100dc0000f00070002003d0012000700180020007d
:100dd000dcff07000800e000060032006022b800d7
:100de0006033b8000000520081805a0002015b00ad
:100df00083815b004f05be004f04be00000006006b
:100e0000e00f5200e08f5a00e00f5b00e08f5b00c4
:100e1000000006006044b8006055b80004025400a9
:100e200085825c0006035d0087835d00000006008c
:100e3000889fbe008a9fbe008c1f7800e00f500084
:100e4000e08f5800e00f5900e08f59000d003d0081
:100e50006044b8006055b8000000540081805c0018
:100e600002015d0083815d001c0020000820e1007c
:100e700009a8e1000ab0e1000bb8e1000d003d0057
:100e8000080037000006eb00e00f5200e08f5a0028
:100e9000e00f5b00e08f5b0006003d006044b8009f
:100ea0006055b8000402540085825c0006035d00b2
:100eb00087835d00aaff07000c00e00006003200f7
:100ec0006022b8006033b8000000520081805a00f0
:100ed00002015b0083815b004f0678004f05be0076
:100ee0004f04be000000060080007800010078007a
:100ef0003041780003c2b300834f5100faff320043
:100f0000e94f5100f8ff3200edc14100834f51001d
:100f100003003a008000780013c0b30005003700da
:100f20008041eb00b4c2b300844f510001003a008d
:100f3000800078000000eb00020037006a02b90070
:100f4000040041003101fb000203b100e90f510030
:100f5000faff36000304e000010032000000ea005e
:100f6000000006008001780002003700b1597800c7
:100f70000201e9000200e000fcff3a000000060068
:100f80008001780002003700815978000201e900f1
:100f90000200e000fcff3a0000000600800078003c
:100fa0003104e000feff3a000080ea0000804000cb
:100fb0000000060080017800060037000201e90009
:100fc000b142780085597800030278000504e000fa
:100fd00006003200030278000200e000f7ff3a004a
:100fe00002003700005aeb000201e9000200e000b5
:080ff000fcff3a0000000600be
:020000040000fa
:100ff8000d0a00000d0a00000d4d00006963000095
:10100800726f0000636800006970000020540000df
:10101800435000002f49000050200000436f00009b
:101028006e660000696700002041000070700000d3
:101038006c69000063610000746900006f6e000055
:1010480020280000763500002e340000322c0000e5
:10105800204d0000617200002032000036200000a0
:101068003230000031370000290d00000a0d000061
:101078000a000000093100003a200000436800001f
:10108800616e000067650000207300006572000053
:10109800696100006c2000006e7500006d62000040
:1010a800657200003a090000090000000d0a0000fe
:1010b800093200003a20000043680000616e000019
:1010c80067650000206800006f730000742000004e
:1010d8006e6100006d6500003a0900000909000012
:1010e800000d00000a090000333a00002043000008
:1010f800686100006e6700006520000073740000de
:10110800617400006963000020490000502000005d
:10111800616400006472000065730000733a0000a7
:1011280009090000000d00000a090000343a000017
:1011380020430000686100006e6700006520000021
:101148007374000061740000696300002067000088
:10115800617400006577000061790000206100007b
:101168006464000072650000737300003a090000af
:10117800000d00000a090000353a00002043000075
:10118800686100006e67000065200000737400004d
:10119800617400006963000020730000756200003c
:1011a8006e650000742000006d610000736b000024
:1011b8003a090000090000000d0a00000936000085
:1011c8003a20000043680000616e00006765000077
:1011d800207300007461000074690000632000003f
:1011e80070720000696d00006172000079200000d3
:1011f800444e000053200000736500007276000022
:10120800657200003a090000000d00000a0900009c
:10121800373a000020430000686100006e67000054
:1012280065200000737400006174000069630000a9
:1012380020730000656300006f6e000064610000a9
:1012480072790000204400004e5300002073000013
:101258006572000076650000723a0000090000001f
:101268000d0a0000093800003a2000000044000080
:1012780069730000004500006e0000006162000014
:101288006c65000020440000484300005020000026
:101298002620000049500000204700006c6500002f
:1012a800616e0000696e0000673a000009090000dd
:1012b80044480000435000002069000073200000eb
:1012c8006375000072720000656e0000746c0000a7
:1012d80079200000006500006e610000626c00006b
:1012e800656400000064000069730000616200002a
:1012f8006c650000640000000d0a00000939000058
:101308003a200000446f0000776e00006c6f000008
:1013180061640000204d000050460000532000008a
:10132800696d000061670000652e0000000d000077
:101338000a090000303a00002053000061760000de
:101348006520000026200000517500006974000027
:101358002e0000000d0a0000456e000074650000b4
:1013680072200000612000006d6500006e750000ad
:1013780020630000686f000069630000653a0000a0
:10138800200000000d0a0000004e000065770000f4
:101398002073000065740000746900006e67000027
:1013a8003a200000004900006e760000616c0000e1
:1013b80069640000206900006e7000007574000008
:1013c8002e0d00000a000000536500007474000030
:1013d800696e0000677300002073000061760000ea
:1013e800656400002e0d00000a0000004d4f00004b
:1013f80044420000555300002053000045520000ad
:101408005645000052200000202000002020000047
:1014180020200000202000002020000020200000c4
:101428002020000020200000200000000d0a0000fd
:101438004e65000077200000495000002041000060
:101448006464000072650000737300003a200000b5
:10145800000d00000a00000000040000a3000000c6
:10146800000000004d43000048500000424f0000bb
:101478004152000044000000010000001400000078
:101488001400000009000000c8000000c8000000a7
:0c1498000c000000c8000000c8000000ac
:020000040000fa
:1014a4000200fa00004f780036c8bf009e4f50007b
:1014b4001e00320036c8bf00e24f40000a0032006e
:1014c40036c8bf000080fb007e00b90080007800b1
:1014d400c083200000804000e2012000a18f200092
:1014e400b2070200000000001e4178006183200062
:1014f400824878001e407800e24f40000d00320020
:101504001e80fb007e00b90080007800c0832000ac
:1015140000804000e201200080007800a08f2000bd
:10152400b2070200000000000300370000000000c2
:1015340001003700000000000080fa0000000600ef
:101544000000fa00718320009140780036c8bf0083
:1015540080cf50002600320037c8bf00e24f400061
:10156400150032006289200037c8bf000080fb00ec
:101574007e00b90000007800fc004000c083200019
:10158400008040009042780037c8bf000080fb0014
:101594007e00b90080007800c083200000804000f5
:1015a400100078008002b1008402200013c0b30050
:1015b40085407800b710070036c8bf0037e8b70089
:1015c4006091200010417800d047800081fd2f00f9
:1015d40080804000608920008402200082417800dd
:1015e4000101780011c0b300aa1007000100370000
:1015f400000000000080fa00000006000c00fa0061
:10160400000c210010079800a04180000000e000b9
:1016140008003a006c3a02000000000080007800e4
:10162400f07f2000808060000040200000804000a7
:10163400a0418800c20320008000eb00e08b200062
:10164400c0070200000000000040eb004047980083
:101654000040eb00004f78004c0037001e4078003b
:101664008fff07001e80fb006600b9008000780031
:1016740000a428000080400090409000514798004a
:101684001e80fb006600b900000078008080e8003e
:1016940000a42800008040009000780031079800e2
:1016a4001e80fb006600b90000007800e4004000e2
:1016b40000a42800008040009000780041079800b2
:1016c4005e4090000080fb000000e000010032005a
:1016d4002d0037009e00900051079800be00900036
:1016e4004e009000808040001e009000008040006a
:1016f400a002b000100798009e009000c0ff2100d7
:10170400808f5000fcff3e0060912000de4090007e
:10171400014878005e0090008002b000d047880045
:10172400d14780003e009000008040000000e800a7
:10173400e0478800e14780004e00900000804000b0
:10174400f0478800d000200080488800904880003e
:101754000030a1009048880079ff07001e80fb003c
:101764006600b9008000780000a4280000804000d2
:1017740090407800d08b200001487800770a070059
:101784001e4fe80001003700ffff37001e407800bd
:10179400e24f5000b1ff36000080fa00000006005e
:1017a4000c00fa001007980021079800624798007f
:1017b40043079800244f98000040eb00004f780046
:1017c4007c0037001e40780035ff07008048800009
:1017d400ed0f500073003a0059ff0700d08b200032
:1017e400904078002e48900080cf50006f003a005f
:1017f40080212000d04588006e4090000004e00065
:101804000a003a00ce0090003145880090488000dc
:101814000030a000904888004000200080488800e4
:10182400ce009000a14888005c003700a1418000f0
:10183400f03f2000808f500004003600a14180005a
:1018440080382100808f50000200360000402000c4
:10185400a0418800a0418000304588000000e800d5
:10186400a0418800ce00900021458800ba520200b1
:1018740000000000404888005148880090488000db
:101884000040a000904888006e4090000080fb005b
:10189400e30f500003003200e40f5000190032003f
:1018a4003e0037000e80e800900090000e80e800b3
:1018b40010007800808040004e009000808040003e
:1018c4003045800000806800a04888001e00900019
:1018d400ae0090006045880071458800c08b2000f0
:1018e4008040eb0001487800d00320000100200074
:1018f400b0448800c144880020002000804888004b
:10190400260037001e009000ae0090000000780012
:10191400a04090008180fb00304090000080fb00dc
:101924004800dd0000807000000178001e00900077
:10193400ae009000000078009080fb001040900002
:101944000080fb004800dd00008070008000410042
:101954004e00900080804000304580000080680088
:10196400a04888001e009000ae009000000078009f
:10197400a200200080007800c08a2000b207020084
:1019840000000000500020008048880011c0b3000f
:1019940020c0b300b2060700000000001e4078001b
:1019a40008003700000000000100370000000000bc
:1019b4001e4fe8001e407800e24f500081ff3600c1
:1019c400e0cfb3000080fa00000006000200fa0035
:1019d400004f78001e407800e24f500002003600ad
:1019e400100020000d0037001e407800acfe0700f8
:1019f4009148800000002100008060000000e000a9
:101a0400050032009048800000c0a1009048880082
:101a140010002000010037000000eb000080fa00f5
:101a2400000006000200fa00004f78001e40780013
:101a3400e24f5000020036000000eb0008003700bf
:101a44001e40780096fe070080488000670068000a
:101a540000f0a7000000ea000000e9004f00de00eb
:101a64000080fa00000006000200fa00004f78002f
:101a74001e407800e24f500042003e001e407800b5
:101a840087fe070020488000304888008048800096
:101a9400e50f500012003200e50f500006003e0032
:101aa4000000e0000e0032000080e900e10f500069
:101ab4002e003e000a003700eb0f500019003200e0
:101ac400eb0f500003003e00e70f500027003e00dc
:101ad40005003700ee0f50002100320023003700cc
:101ae4009e0907002800370011c0b30010c1b300dd
:101af4005b060700404580000000e000050032005e
:101b04000148800010458000808f5000f6ff3a00a5
:101b14000100370000000000800020008048880099
:101b24001900370011c0b30010c1b3004c06070000
:101b3400404580000000e0000500320001488000bc
:101b440010458000808f5000f6ff3a0001003700f6
:101b540000000000c0002000804888000a00370010
:101b6400d000200080488800070037008040eb0048
:101b740040c1b3003a0607007809070000000000de
:101b840001003700000000000080fa000000060099
:101b94000200fa00004f78001e407800e24f500027
:101ba40008003e001e4078003dfe0700904880007b
:101bb4000030a100904888001e407800aaff07006a
:101bc40001003700000000000080fa000000060059
:101bd4000200fa00004f78001e407800e24f5000e7
:101be400020036000000eb000b0037001e407800b6
:101bf4002bfe070052fe0700a2002000c18a20002d
:101c040080912000b20702000000000020458000ff
:101c140010498800809120000080fa00000006002e
:101c24000200fa00004f78001e407800e24f500096
:101c34000b003e001e40780019fe070040fe07001e
:101c44000148800010458000808f5000050032005c
:101c540011c0b30000c1b300010607000100370042
:101c6400000000000080fa00000006000400fa00f2
:101c7400204798002e409000e24f500002003600aa
:101c84000000eb001d0037002e40900004fe07000a
:101c940080488000004f78001e407800e74f5000d5
:101ca400050032001e407800eb4f50000200320065
:101cb4000000eb001100370001488000104880004c
:101cc400808f500009003900e1478000d047800030
:101cd40080805000124880000048800000005100bd
:101ce400008040000000e900040037001148800033
:101cf40000488000008050000000e9000080fa00e5
:101d0400000006000400fa002047980031479800bc
:101d14002e409000e24f5000020036000000eb001d
:101d2400430037002e409000ddfd07002e40900058
:101d3400ceff0700000f78001e0078000000e000ce
:101d440002003a000000eb00390037001e00780062
:101d5400e10f500002003a002e409000b0ff07004f
:101d64009148800000102000008060000000e00026
:101d74000b003a00e1478000d0478000008050000b
:101d84000000d1009e0f5000050039002e40900045
:101d9400a3ff0700904880000080a00090488800be
:101da4006301470060912000904078000048800063
:101db4001400200013c0b300b60e070000488000d2
:101dc4000000e8000048880001488000e0478000e7
:101dd400808f500002003900d047800000488800fe
:101de4001e007800e10f500003003a002e409000de
:101df4008bff07000d00370091488000000220008f
:101e0400008060000000e00008003a009048800074
:101e14000050a00090488800ea5202000000000030
:101e2400000078006900400060488800100020002d
:101e34000080fa00000006000c00fa0060479800d9
:101e440041079800520798000000eb001007980023
:101e54006e409000e24f5000020036000000eb009c
:101e64005d0037006e4090008dfd07006e409000cd
:101e74007eff0700200798002e0090000000e0007d
:101e840004003a006e40900065ff07000000eb007c
:101e940051003700ae009000010f7800ae009000b2
:101ea4005e009000808f500002003600de0090003b
:101eb400010f78009148800000102000008060002d
:101ec4000000e0000c003a00e1478000d0478000a9
:101ed400008050008000d1002e009000808f5000c0
:101ee400050039006e4090004dff070090488000c7
:101ef4000080a00090488800004880009e004000b8
:101f0400e0478000808f500013003900e1478000d3
:101f14000048800000805000100798004e01900097
:101f24006091200090407800004880001e029000dc
:101f340013c0b300570e0700ce0090001e0090009f
:101f440000804000400798001e0090001e0f100003
:101f5400d0478000004888004e0190006091200026
:101f640090407800004880001e02780013c0b3003f
:101f7400480e0700004880001e004000004888000a
:101f8400ae0090005e009000808f500003003e0081
:101f94006e40900022ff07000d003700914880003a
:101fa40000022000008060000000e00008003a0009
:101fb400904880000050a00090488800ea52020037
:101fc40000000000000078006900400060488800bc
:101fd4001e0090001e0040000080fa000000060071
:101fe4000400fa00004f7800110798001e009000ca
:101ff400ce07020000000000000178009e0090005f
:102004001e4078008cff07009e0090000080400076
:102014000080fa00000006000600fa00404798001d
:102024004e409000e24f5000020036000000eb00ea
:102034000b0037004e40900019fd0700e147800077
:10204400d047800000805000000fe9004e4090000f
:1020540006ff0700100798001e0090001e001000e5
:102064000080fa00000006000200fa00004f780029
:102074001e4078000b0007000000e000070032005b
:102084001e40780006fd0700204880003048880084
:1020940011c0b30000c1b300f10407000080fa00ce
:1020a400000006000200fa00004f78001e4078008d
:1020b400e24f5000020036000000eb00120037002f
:1020c4001e407800f6fc070021488000304880005c
:1020d400808f50000400390021488000304880007f
:1020e4000080500008003700f1478000304880002d
:1020f4008080500022488000e047800000005100aa
:10210400008040000000e8000080fa0000000600a3
:102114000600fa0020479800210798002e409000fe
:10212400e0ff0700000f78001e0078000000e000c8
:1021340002003a000000eb002c0037002e40900013
:10214400d7fc07002e0090000000e00009003200d8
:102154006091200010417800314880002e009000ea
:1021640014002000824178000101780011c0b300fe
:10217400c80d0700304880000000e800304888009f
:1021840031488000f0478000808f50000200360004
:10219400e0478000304888001e007800e10f5000be
:1021a40004003a009048800000a0a00090488800f5
:1021b4000d0037009148800000022000008060007c
:1021c4000000e00008003a00904880000050a000a1
:1021d40090488800ea5202000000000000007800e5
:1021e4000003b00060488800100020000080fa005e
:1021f400000006000a00fa004047980031079800e2
:10220400420798000000eb00000f78004e40900059
:10221400a4ff0700100798001e0090000000e000d3
:1022240002003a000000eb00510037004e409000dd
:102234009bfc0700ce0090001e009000808f500091
:10224400020036009e00900041079800314880004b
:102254004e00900080804000f0478000808f500046
:1022640018003600f147800030488000008050009c
:10227400000fe8003e0090000000e0000c00320077
:102284006091200010417800314880003e009000a9
:102294001e027800824178000101780011c0b30069
:1022a4007c0d07003e0090001e004000300798009f
:1022b4004e0090001e00500040079800e047800048
:1022c400304888003e0090000000e0000900320021
:1022d4006091200010417800314880003e00900059
:1022e4004e029000824178000101780011c0b300d1
:1022f400680d0700314880004e00900000804000c7
:10230400304888004e0090001e00400040079800ae
:102314009e0090004e009000808050004e0090007f
:10232400808f500004003e009048800000a0a00070
:10233400904888000d00370091488000000220007a
:10234400008060000000e00008003a00904880002f
:102354000050a00090488800ea52020000000000eb
:10236400000078000003b000604888004e00900030
:102374000080fa00000006000600fa0040479800ba
:102384004e409000e24f5000020036000000eb0087
:102394000a0037004e40900041fc0700f1478000de
:1023a400e0478000008f50004e4090003dff070042
:1023b400100798001e0090001e0010000080fa0014
:1023c400000006000e00fa006047980041079800dc
:1023d40052079800630798006e409000e24f500047
:1023e40003003e005e0090000000e00002003a009e
:1023f4000000eb00420037006e40900028fc07000c
:102404006e40900027ff070010079800ee00900030
:102414005e009000808040001e009000808f50007d
:10242400040036009e0090006e0090000080500072
:1024340050079800314880006e009000008f4000e3
:10244400f04780009e0f500005003100f1478000e6
:10245400e0478000008050000080ea001e0f40002a
:10246400f04780001e0050000000e800200798009c
:10247400de0090002e009000808f500009003e0086
:1024840060912000904078004e0090005e02900021
:10249400814178001e01780011c0b300fd0c0700d3
:1024a4001600370060912000904078004e009000a4
:1024b4002e029000814178001e01780011c0b30003
:1024c400f40c0700de0090002e0090008081500084
:1024d4006091200010417800e14780004e02900096
:1024e4002e00900000004200030278008241780030
:1024f4000101780011c0b300e60c07005e009000f3
:102504000080fa00000006000600fa002047980048
:1025140021079800ae019000120020008e00780080
:102524002e409000a7ff07001e4078000080fa00ac
:10253400000006003e00fa0020779800211f980052
:10254400321f9800431f9800541f9800651f98007d
:102554002e709000e24f500003003e003e189000a1
:102564000000e00002003a000000eb002501370003
:102574002e709000cafb07002e709000c9fe070061
:10258400ce18900001005000100798009e009000a3
:102594003e189000808f5000020031000080eb0054
:1025a400180137005e1890000000e00006003200b9
:1025b4009e0090005e189000808f5000020036004c
:1025c400de18900011079800314880004e189000e2
:1025d4000080400030079800f14780003e009000e2
:1025e400808f500007003100f1478000e0478000f1
:1025f400008050000080ea00be009000008040008f
:1026040030079800be009000010f7800f147800069
:102614003e009000008050000000e8002007980071
:10262400ce18900031079800be18900071079800ea
:10263400ae189000010f98002e189000904078007a
:10264400114f98002e1890000000e800201f9800f9
:102654000000eb00600798006e1890000000e00096
:102664000c0032009e48900000c6b30080cf50009a
:10267400080036009e489000a0c7b30080cf5000e9
:1026840004003e009e48900000ceb30000c040000d
:10269400104f980000c2b300204f98002e489000bd
:1026a4008080fb002e009000808f500002003600d6
:1026b4002e009000204f98002e4890008080fb0050
:1026c4001e009000808f5000020036001e00900013
:1026d400204f98002e4890000081fb00609120005c
:1026e400904078007200470002027800814178002f
:1026f4001e01780011c0b300660c07002e4890003c
:102704000080fb001e0f40002e4890000080fb005c
:10271400ae00900000805000200798002e0090002a
:102724000000e00004003a00e1478000010f780057
:102734000080eb00200798006e1890000000e00075
:10274400680032000040eb00004f98006000370042
:102754000e4890000080fb0000004700a05090004d
:1027640000c6b30080cf5000110036000e48900020
:102774000080fb0000004700a0509000a0c7b300f9
:1027840080cf50000a003e000e4890000080fb00fd
:102794008e4890008180fb00810047002151900009
:1027a40001ceb30081404100000047002150980051
:1027b4000e4890000080fb0000004700a0509000ed
:1027c4001e48900080cf500023003a003e1890002d
:1027d4000000e900301f98003e1890000000e0005f
:1027e40008003a00be0090007e00900080805000f7
:1027f4000e4890000080fb00008040000000e800cc
:10280400800037002e18900090407800114f9800f7
:102814002e1890000000e800201f980010002000ef
:10282400600798009e48900000c6b30080cf500017
:10283400240036009e489000a0c7b30080cf50000b
:1028440020003e009e48900000ceb30000c040002f
:10285400104f98001b003700fe009000311f9800b5
:102864006e0090000000e000160032008e08900018
:10287400211f98002e18900090407800114f980066
:102884002e1890000000e800201f98009e48900039
:1028940000c6b30080cf5000080036009e48900068
:1028a400a0c7b30080cf500004003e009e489000b3
:1028b40000ceb30000c04000104f98000000eb00b1
:1028c400600798000e4890000040e800004f980010
:1028d4008e4890002e48900080cf50009cff390015
:1028e400370037000040eb00004f980030003700fd
:1028f4000e4890000080fb0000004700a0509000ac
:102904001e48900080cf500017003a003e189000f7
:102914000000e900301f98003e1890000000e0001d
:1029240008003a00be0090007e00900080805000b5
:102934000e4890000080fb00008040000000e8008a
:10294400300037002e18900090407800114f980006
:102954002e1890000000e800201f980010002000ae
:10296400600798000f003700fe009000311f9800a8
:102974006e0090000000e0000a0032008e08900013
:10298400211f98002e18900090407800114f980055
:102994002e1890000000e800201f98000000eb00b3
:1029a400600798000e4890000040e800004f98002f
:1029b4008e4890002e48900080cf5000ccff390004
:1029c4002e4890000080fb009e0090000080500084
:1029d400100798009e0090003e189000808f5000d1
:1029e400020031000080eb00060037002e48900002
:1029f4000080fb00be00900000804000300798007b
:102a040024ff37000080fa00000006000800fa00e6
:102a1400004f780011479800120798002307980088
:102a2400340798000e00e800be0290002e029000c9
:102a34009e01900012002000800078001e40780063
:102a4400bcfe07000080fa00000006000a00fa003d
:102a5400881f78000040eb00004f7800e701370042
:102a64001e4078008efa07000040eb006047980093
:102a74000000eb00100798000000eb00200798000e
:102a84009148800000202000008060000000e000e9
:102a940005003a009148800000402000008060005a
:102aa4000000e0000b0032000e2e020000000000c7
:102ab4000000e0000700320000c1b3006047980046
:102ac400904880004a00de00614060000080fb0006
:102ad40010079800914880000002200000806000e8
:102ae4000000e0000900320068488000ea52020059
:102af4000000000000007800000054000000e00026
:102b040002003c0000c1b300604798009148800077
:102b140000042000008060000000e0000900320092
:102b240078488000ea5202000000000000007800ab
:102b3400000054000000e00002003c0000c1b300ab
:102b44006047980080488000eb0f50000b003a006b
:102b540078488000ea52020000000000000078007b
:102b6400000054000000e00004003c0010c1b30069
:102b740060479800c000200080488800804880009a
:102b8400e40f500061003a000000eb004007980099
:102b9400590037004e0090007400b900000078001e
:102ba400f0004000e08b200000804000100078001e
:102bb4000000e000540032004e0090007400b900a0
:102bc40000007800f0004000e08b2000008040000e
:102bd40090007800a0488000808f500043003a00a5
:102be40057fa07004e0090007400b9008000780086
:102bf400e08b200000804000a200200080007800cc
:102c0400c08a2000b2070200000000004e009000bd
:102c14007400b90000007800ea004000e08b200056
:102c24000080400010007800204588004e0090008d
:102c34007400b90000007800ec004000e08b200034
:102c4400008040001000be0061004000e0804800a9
:102c5400f04488000145880071458000604580008b
:102c64008080400020458000808040003045800006
:102c740000806800a048880020c1b3006047980025
:102c84006000200080488800ce009000c0fe2f0025
:102c94000088b90000007800830220008081410090
:102ca4004e0090000000e8007400b9008000780035
:102cb400e08b200000804000000178004e0090006e
:102cc4007400b90080007800e08b20000080400090
:102cd4000302780013c0b30011c0b300ed0a07006b
:102ce4000000eb00b0478800080037004e00900059
:102cf4000000e800400798004e009000e20f5000ea
:102d0400a4ff360001003700000000006e40900070
:102d14000004e000090032001e00900000f0a7004b
:102d24000000ea000000e9004f00de0000407800e7
:102d3400804078006e409000c901070090488000f0
:102d4400700060000000e0002d003a008048800020
:102d5400e70f500021013a00ba52020000000000bf
:102d64000001be004048800051488000000051002e
:102d740081805900e00f5000e08f580019013500a0
:102d84009048800067006000e60f50000e003a0093
:102d9400904880004300de00614060006047980076
:102da4001e40780030fb07001e4078002efb070011
:102db4006e4090000004e0000c013a00e0002000a6
:102dc400804888000c013700ddf9070021c0b300fa
:102dd40000c1b300a2010700ba52020000000000c3
:102de4000001be00809628009100200002004000ef
:102df400838048004048880051488800fe0037001e
:102e0400ba520200000000000001be0040488000e9
:102e1400514880000000510081805900e00f5000ab
:102e2400e08f5800f3003500c5f9070080488000a2
:102e34006101b800e0ff2f00f1ff2f000200400005
:102e440083804800a200200003002000820f50006d
:102e5400838f5800a1003e00006001000a00370083
:102e6400130037009f0037003a003700490037004d
:102e74005d0037006a003700770037007b003700b9
:102e84005900370087003700ea52020000000000b2
:102e94000000780060488800c08a20007e46020056
:102ea40000000000300020008048880092003700b5
:102eb400018b2000c08a200030470200000000007f
:102ec4000000e0001c003a00ea520200000000008a
:102ed400800078006048800000815000b044800089
:102ee400c144800000007800800f51007f0036004c
:102ef400c08b200010407800e54f50000b003e00ce
:102f0400c08b2000104078008040e800c08b200077
:102f140001487800b0448000c144800000004000b3
:102f240081804800b0448800c1448800200020000b
:102f3400804888007000370020c0b30060479800c4
:102f44000000eb0010079800500020008048880023
:102f54006900370020c0b3006047980010002000cb
:102f640010079800c08b200010407800e34f5000f9
:102f740060003600c08b200041c0b30001487800d7
:102f840000242400f1002000b0448800c1448800db
:102f940059003700c08b200010407800e14f5000ea
:102fa40005003e0020c1b3006047980010002000d7
:102fb40010079800500037009048800068006000b7
:102fc4000000e0000500320040c1b30060479800f3
:102fd40010002000200798004700370020c0b300ed
:102fe4006047980044003700c08b200010407800f0
:102ff400e44f500005003e0000c1b3006047980054
:1030040010002000100798003b00370080002000cb
:103014008048880010c1b30060479800360037002c
:10302400c08b200010407800e44f500005003e00a3
:1030340010c1b300604798001000200010079800ea
:103044002d00370040c1b3006047980010002000f5
:10305400200798002800370040c1b300604798005b
:10306400100020002007980023003700c08b2000a8
:1030740010407800e44f500005003e0000c1b3004a
:103084006047980010002000100798001a003700cd
:1030940040c1b3006047980010002000200798004a
:1030a40015003700c08b200010407800e44f50001a
:1030b40005003e0010c1b3006047980010002000d6
:1030c400100798000c00370040c1b3006047980017
:1030d40010002000200798000700370000000000bf
:1030e4000500370000000000030037000000000066
:1030f40001003700000000006e4090000004e00072
:10310400310032001e0090000000e0002b0032006d
:10311400c08b2000104078008040e800c08b200065
:1031240001487800b0448000c144800000004000a1
:1031340081804800b0448800c14488001145800063
:10314400104880000080500040079800114580001e
:1031540010488000808f500006003100e147800055
:10316400d047800000805000ce00900000804000d6
:1031740040079800d2448000e34480004e00900051
:103184008000eb000000510081805900d044880089
:10319400e1448800414580004e00900000804000da
:1031a4004045880010488000104588008040eb00ae
:1031b4006e409000aa0007000300370011c0b3005e
:1031c4006e409000a60007002e0090000000e00072
:1031d40009003200e1030700070037000000000087
:1031e4000500370000000000030037000000000065
:1031f40001003700000000001e4fe8001e40780068
:10320400e24f500016fe36000000eb004007980025
:10321400350037004e0090007400b90000007800bb
:10322400f0004000e08b2000008040001000780097
:103234000000e00030003200ea520200000000000a
:10324400000178004e0090007400b900000078007e
:10325400f2004000e08b2000008040001000780065
:1032640080005100c02d2000808f50001b003600cc
:10327400ce009000c0fe2f000088b9000000780046
:1032840083022000808141004e0090000000e8008d
:103294007400b90080007800e08b200000804000ba
:1032a400000178004e0090007400b900800078009e
:1032b400e08b2000008040000302780013c0b300bc
:1032c40011c0b300730907000000eb00b047880089
:1032d4004e0090000000e900400798004e00900066
:1032e4000000e800400798004e009000e20f5000f4
:1032f400c8ff360001003700000000004f047800ca
:103304000080fa00000006002c00fa003017980034
:1033140041179800521798003e1190009281fb00cb
:10332400124290000482fb004822dd008481710077
:1033340003007800a24190008381fb003241900099
:103344000281fb004811dd000281710082007800d7
:10335400300f9800410f98004e1090001001be00ed
:10336400520f9800630f98000040eb00605f9800d4
:1033740060c0b300705f9800de11900003179800de
:103384000e109000983e0200000000000017980004
:1033940076004700c1002000103f0200000000003a
:1033a4000080ea00101798005e1090000e320200b0
:1033b40000000000201798009e1090002e1090002e
:1033c400808f500004003200242e02000000000010
:1033d40010002000200037000000eb009250020093
:1033e400000000000e80e80041012000f0340200db
:1033f400000000000e80e800260307007e00900015
:103404004400de006f40600080407800200020000f
:103414000008dd00744f50001e80fb00de10900099
:103424000080500074005000501798000e80e8008f
:10343400be109000f80107000000e0000300320015
:103444000e80e800de10900003040700242e020022
:1034540000000000100020000080fa0000000600b8
:103464002a00fa00006f9800116f980034f80700e2
:103474000e6890000080fb0061006000004078004e
:103484000004e000060032009048800000b0a00074
:10349400904888000e6890000004a100006f980016
:1034a400904880000050a100904888009048800017
:1034b4000060a10090488800904880000070a1003e
:1034c40090488800904880000090a10090488800af
:1034d4009048800000a0a100904888009048800097
:1034e4000080a10090488800000000000e2e020019
:1034f400000000000000e000fcff32000e689000b5
:103504000080fb00660060000000e0000300320061
:103514000000eb00000f78007c00370001488000b9
:1035240010458000808f500003003a000000eb003b
:10353400000f7800670037000148800010458000c4
:10354400808f50001d003600014880001045800027
:10355400008f5000404580009e0f50000200310053
:1035640041458000010f7800d04580009e0f500037
:1035740005003100d2458000020f78009048800099
:1035840000a0a0009048880060912000904078003e
:10359400104580001e027800814178000001780007
:1035a4008040eb0050b02000ba08070010458000ae
:1035b4001e0040001045880046003700e1478000a7
:1035c400104580000080500030179800be10900015
:1035d4000048800080804000d0478000008f500069
:1035e400404580009e0f500002003100434580009a
:1035f400030f7800d04580009e0f50000500310075
:10360400d1458000010f78009048800000a0a00000
:10361400904888003e1090009e0f50000200360033
:103624001e017800321798003e119000609120002e
:1036340090407800104580000202780081417800b3
:10364400000178008040eb0050b020009108070092
:103654003e1090001e001000301798003e1090009d
:103664000000e0000e003200be11900060912000c6
:1036740010417800d1478000e44780001045800065
:103684000002520050b02000000042000302780003
:1036940082417800010178008040eb007d0807003a
:1036a400104580001e004000104588001145800030
:1036b400e0478000808f50000600390011458000eb
:1036c400d2478000e04780000000510000804000a5
:1036d4001045880091488000008020000080600030
:1036e4000000e00009003200404580009e0f5000b9
:1036f40006003200d04580009e0f500003003200c7
:103704000e6890000004a000006f98001e0078006e
:103714000000e00005003a000e6890000080fb0005
:10372400630060000000e000230032004045800098
:103734001e005000404588001e0078000000e00094
:10374400030032000e6890000034a000006f98005f
:103754001e6890000080fb0061006000004078005b
:103764000004e00007003200c08b20008040eb0022
:103774000148780040422f0001002000b044880036
:10378400c1448800ba520200000000000001be00db
:10379400b0448000c144800002004000838048009f
:1037a4004048880051488800904880000040a000ac
:1037b400904888003a0037001e6890000080fb00a3
:1037c400620060000000e0001400320090488000b5
:1037d400674060000040e800674060000080fb0034
:1037e400670060009248800081ff2f008100610023
:1037f4000100700090488800d0448000e1448000bb
:1038040061005000e0805800d0448800e144880002
:1038140010002000000f780021003700904880003d
:10382400700060000000e0001d0032001e6890007f
:103834000080fb00610060000000e0000f003a001f
:10384400c08b2000104078000004e0000b00320020
:10385400c08b2000104078008040e900c08b20001d
:1038640001487800b0448000c14480008100d10048
:103874000080d300b0448800c1448800ba520200da
:10388400000000000001be00b0448000c14480007c
:103894000200400083804800404888005148880066
:1038a40030458000200798002045800030079800ac
:1038b400d0448000e14480004007980051079800fc
:1038c400f04480000145800060079800710798006b
:1038d4008e089000f0ff230000806000000f980025
:1038e4008e08900000ff2f0000806000000f9800f9
:1038f4008e699000135798000000eb00300f980079
:10390400d2448000e34480001e0078008000eb0075
:103914000200400083804800d0448800e1448800cd
:103924000e6890000080fb00620060000000e00070
:103934001c0032000e6890000080fb0070006000e4
:103944000000e00003003a006000b800600798003f
:1039540071079800c0458000620060000000e0002c
:10396400070032004e009000de009000610050001d
:10397400e08058004007980051079800090037007c
:10398400d0448000e144800061004000e0804800b1
:10399400d0448800e1448800c04580000010a000a5
:1039a400c04588000e6890000080fb006100600044
:1039b400004078000004e00003003200c0458000ad
:1039c4000000a000c04588002148800030488000e5
:1039d400808f500009003900f1478000e0478000e3
:1039e4008080500032488000204880000000510050
:1039f40000804000100f9800050037003148800017
:103a040020488000008050000000e900100f98005a
:103a1400602e020000000000100798009e00900035
:103a2400f0032000808f500003003e000000eb00f4
:103a340010079800030037001e0090000004b10036
:103a4400100798009e0890001e009000808f500080
:103a5400020036001e009000100f9800640047001a
:103a64008c0107009e007800748f40008e0890003f
:103a7400f0f02f008080600000052000010070003d
:103a8400000f98000e6890000080fb006200600048
:103a94000000e000150032001e017800640f4100b0
:103aa40020c0b300005f980040c0b300105f9800ce
:103ab40020802100500f98000e0890004400de0082
:103ac4006f4060000040e8006f4060000080fb0031
:103ad4006f0060004400dd000e099000f1f02f003b
:103ae4008100610001007000000f980002a0200016
:103af4001281fb0013a020009381fb00c819dd0094
:103b0400030171000200780022a020001281fb0052
:103b140033a020009381fb00c819dd00030171006c
:103b240082007800600f9800710f98006245800051
:103b34007345800002179800131798000040eb00ab
:103b44004067980060c0b300506798009e017800f9
:103b5400331798003e109000983e020000000000c9
:103b6400301798007c004700c1002000103f02007d
:103b7400000000000080ea00200f9800d0ad200073
:103b84004a310200000000001e01780061c0b30049
:103b9400c08a2000f24f02000000000064004700c9
:103ba4004101200000360200000000000e68900071
:103bb4000080fb00620060000000e00004003200ae
:103bc4007800470041002000003602000000000099
:103bd40010af20007c310200000000001e007800bd
:103be4000e320200000000001007980010b0200000
:103bf4004a310200000000000e80e800210020008d
:103c04000036020000000000ee2f02000000000059
:103c14000080fa00000006000a00fa00300798004d
:103c2400410798003e009000100090000000e00062
:103c340002003a000000eb0014013700e0cfb300ab
:103c4400104798004e009000a04090008180fb0037
:103c5400304090000080fb004800dd0000807000d0
:103c6400800078004e0090001081fb00104090000e
:103c74000080fb004800dd000000710080804000ef
:103c84003e00900010007800808040003e009000cc
:103c94001000900000806800200798000040eb00ae
:103ca400004f78003a0037001e407800fcf507000a
:103cb40080488000ed0f50002f00320080488000c3
:103cc400e40f500008003a00a14880003e00900034
:103cd40010009000808f500029003a009e40780028
:103ce4001147980029003700a14880002e00900059
:103cf400808f500024003a0011f607003e00900027
:103d04009000900030458000808f50001f003a00e2
:103d14003e0090009000780020458000808f500085
:103d24001a003a004e0190009281fb00124290006a
:103d34000482fb004822dd008481710003007800c6
:103d4400a24190008381fb00324190000281fb007c
:103d54004811dd0002817100820078006245800014
:103d640073458000820f5000838f580007003a008b
:103d740010002000c50037000000000003003700d9
:103d84000000000001003700000000001e4fe800a2
:103d94001e407800e24f5000c3ff36001e409000e2
:103da400e24f4000170032001e409000bcf50700af
:103db400e3f507001e409000e24f4000110032007e
:103dc400ae009000a1488800a2002000ce00900020
:103dd400c08a2000b2070200000000003e009000ec
:103de40010007800204588003e00900010009000ec
:103df40030458800d047800010458800100020001e
:103e0400a20037003e009000e00090000020200057
:103e1400008060000000e00002003a000000eb00b7
:103e24009a003700b04780000000e0000200320032
:103e34000000eb00950037000000eb00100798002d
:103e4400490037001e0090007400b900000078009b
:103e5400f0004000e08b200000804000100078005b
:103e64000000e000440032001e0090007400b9001d
:103e740000007800f0004000e08b2000008040004b
:103e8400900078003e00900010009000808f500059
:103e94002d003a001e0090007400b9000000780064
:103ea400ea004000e08b2000008040009000780091
:103eb4003e00900010007800808f500024003a00eb
:103ec4001e0090007400b90080007800e08b200090
:103ed400008040001002be004e0190009281fb0061
:103ee400124390000683fb004833dd008681710095
:103ef40003007800a24190008381fb0032419000ce
:103f04000281fb004811dd0002817100820078000b
:103f1400800f5200818f5a000f003a00ea520200cb
:103f240000000000000178001e0090007400b90039
:103f340080007800008d2000008040000208780096
:103f44000000eb00510037000000000003003700c0
:103f54000000000001003700000000001e00900077
:103f64000000e800100798001e009000e20f5000c7
:103f7400b4ff360001003700000000000040eb00f1
:103f8400004f78003d0037001e40780044f50700dc
:103f940090488000680060000000e00033003200b8
:103fa40067f50700314580003e0090001000900046
:103fb400808f50002f003a001e0090007400b9005a
:103fc40080007800e08b200000804000a2002000e8
:103fd400ce009000b2070200000000003e009000f6
:103fe400100178001e0090007400b9008000780071
:103ff400808c200000804000020878003e00900081
:10400400b0009000200090001e0190007411b900cf
:1040140082017800a28c2000028141000089be0048
:104024003e009000100190001e0090007400b90042
:1040340080007800e08c20000080400002087800b6
:10404400ea52020000000000000178001e00900007
:104054007400b90080007800008d200000804000ca
:10406400020878000000eb000800370000000000a0
:1040740001003700000000001e4fe8001e407800d9
:10408400e24f5000c0ff36000000eb000080fa0051
:10409400000006000200fa00000f78001e007800fd
:1040a40010007800983e0200000000009e00780096
:1040b400800878001e00780010009000983e0200ee
:1040c400000000009e007800900098001e00780018
:1040d400b000900020009000b23e020000000000fa
:1040e4001e01780020019800310198001e0078001c
:1040f400d000900040009000b23e0200000000009a
:104104001e01780040019800510198001e007800bb
:1041140070009000983e0200000000009e007800ad
:10412400f00098001e00780000089000983e0200fd
:10413400000000009e007800800898001e007800af
:1041440010089000983e0200000000009e007800d5
:10415400900898000080fa00000006000000fa00b1
:10416400881f7800f6f4070030458000a0488800d6
:10417400d047800000488800d0478000104888005d
:10418400e047800020488800e047800030488800ed
:1041940090488000680060000000e00002003200e7
:1041a4004000200001003700d00020008048880033
:1041b4009148800080ff2f000080600090488800b4
:1041c400904880000040a1009048880090488000fa
:1041d4000050a10090488800904880000060a10031
:1041e40090488800904880000070a10090488800a2
:1041f400904880000080a10090488800904880008a
:104204000090a100904888009048800000a0a10080
:10421400904888009048800000b0a1009048880031
:104224009048800000c0a00090488800c0458000ed
:104234000000a100c0458800c04580000010a10016
:10424400c0458800c04580000030a100c0458800fa
:10425400c04580000040a100c0458800d0478000d0
:1042640010458800a8892000fe39020000000000e3
:10427400000c7800a8892000fe390200000000002c
:10428400100498000080eb00b04588001000200066
:10429400404588004f0478000080fa0000000600c2
:1042a4000400fa00881f7800c00020009250020029
:1042b40000000000c034020000000000004f78003d
:1042c4009e80fb00000f2000008060004280de0022
:1042d40000407800744f50001e4078000004e00055
:1042e40002003a00802120005800370071002000ad
:1042f4000000eb00f0340200000000004100370031
:10430400c034020000000000104798001e409000d6
:104314000004e000430032001e409000e14f5000d2
:10432400370032001e409000e24f500020003a0057
:104334001e407800e24f50003c0036000000eb00c5
:1043440010079800c03402000000000010479800d5
:104354001e409000e44f500009003a000e80e8002f
:104364000004e800c034020000000000004c7800a3
:104374000e84e800c034020000000000004c780005
:104384009e00900070212000808f5000290036008c
:104394009e009000405b2000808f50000200360099
:1043a400405b2000290037001e00900027003700e2
:1043b4001e407800e14f500020003600c034020057
:1043c40000000000104798001e4090009e407800b6
:1043d40080cf50001b0039001e4090000080fb007d
:1043e400800078000000eb00f034020000000000c0
:1043f4009e4078001e40900000cf5000010037001e
:10440400000000001e80fb000000ea004f00de00f8
:10441400004078001e4fe9000004e000b8ff3a00b5
:10442400090037000000000007003700000000000a
:104434000500370000000000030037000000000002
:104444000100370000000000802120004f047800a4
:104454000080fa00000006002200fa00700f9800a5
:10446400011798007e089000d048900001579800ea
:104474007e08900040019000d0019000420798000f
:10448400530798007e08900020019000b00190002e
:10449400120f9800230f98009148800080ff2f008e
:1044a40000806000904888009048800070006000a0
:1044b4000000e00009003a00ba52020000000000c7
:1044c4000001be00809628009100200002004000f8
:1044d4008380480040488800514888008048800014
:1044e400e40f500003003200e50f50002b003200af
:1044f400780037000e5090000080fb0064006000dc
:104504000000e0000200320014ff07002a04370014
:104514000e5090000080fb00700060000000e0007e
:10452400090032004e019000de019000d244880060
:10453400e34488008040eb0040c0b300c8fb0700a0
:1045440006ff07001c0437000e5090000080fb009b
:10455400620060000000e0000e0032001e089000bf
:10456400ae08900061004000e0804800f0448800fc
:10457400014588004aff0700d045880011c0b300f8
:1045840020c1b300b6fb070060002000804888000b
:1045940009043700f1fe0700070437000e509000ad
:1045a4000080fb00640060000000e000ef033a00bc
:1045b4000e5090000080fb00700060000000e000de
:1045c40017003200d2448000e34480004e00900083
:1045d400de009000800f5100818f590010003200de
:1045e400d2448000e3448000120f9800230f980007
:1045f4004e019000de019000d2448800e34488001c
:1046040011c0b30040c0b30095fb07001e09900021
:10461400ae099000d2448800e3448800e6033700e2
:104624000e5090000080fb00620060000000e0007b
:10463400d00332001e089000ae08900061004000d4
:10464400e0804800f0448800014588007e0890001e
:10465400700090004045880011ff0700d045880095
:104664000e5090000080fb00700060000000e0002d
:104674001200320011c0b30000c1b30078fb070080
:104684007000200080488800ba5202000000000038
:104694000001be0080962800910020000200400026
:1046a4008380480040488800514888009048800032
:1046b4000040a10090488800bf03370011c0b30038
:1046c40020c1b30066fb070060002000804888001a
:1046d400b90337008e119000630798000e509000c4
:1046e4000080fb0061006000004078000004e000ee
:1046f400030032006e0090000000e800600798009c
:104704000e5090000080fb00620060000000e0009a
:10471400030032006e0090000000e800600798007b
:104724002148800030488000808f50000900390003
:10473400f1478000e04780008080500032488000cc
:10474400204880000000510000804000300798009d
:104754000500370031488000204880000080500068
:104764000000e90030079800f04480000145800013
:104774001e099000ae09900000005100818059008c
:10478400300f9800410f9800be089000510f980018
:104794000000eb00700798006e0090000000e0003d
:1047a400350032003e0090000000e0004800320076
:1047b4003e089000ce089000e00f5000e08f5800b3
:1047c4000a0035003e0090006101b8003e089000e8
:1047d400ce089000800f5100818f590003003600ed
:1047e4001000200070079800140037006e0090003d
:1047f4006101b8003e089000ce089000020040001d
:1048040083804800e00f5000e08f58000b00340014
:10481400be0090006e009000008050006101b9005d
:104824003e089000ce089000800f5100818f5900ff
:104834000200350010002000700798003e00900030
:104844006101b8003e089000ce089000800f51002e
:10485400818f59001e003400de0890006e00900025
:10486400008040000000e000190034001000200027
:1048740070079800160037003e089000ce0890009c
:10488400e00f5000e08f580003003a0010002000b1
:10489400700798000e0037003e089000ce08900084
:1048a400e00f5000e08f5800090035003e009000f2
:1048b4006101b8003e089000ce089000800f5100be
:1048c400818f590002003600100020007007980004
:1048d4007e0090000000e00009003a000e509000b5
:1048e4000080fb00640060000000e00023033a0045
:1048f40011c0b30000c1b300d9fa07002e0337007a
:104904000e5090000080fb00660060000000e00094
:104914000200320011fe0700270337000e509000fa
:104924000080fb00700060000000e000150332000e
:1049340080488000eb0f500005003e00e70f500058
:104944001f003100e60f50000400320073013700ed
:10495400ec0f50005f01320070013700d244800038
:10496400e34480004e009000de009000800f510070
:10497400818f590010003200d2448000e34480004b
:10498400120f9800230f98004e019000de01900052
:10499400d2448800e344880011c0b30040c0b3008f
:1049a400affa07001e099000ae099000d2448800b7
:1049b400e34488000003370070002000804888002a
:1049c40001488000104580000080500020079800b6
:1049d4002e0090000000e00006003d00e14780004a
:1049e400d047800000805000ae009000008040005e
:1049f40020079800d2448000e34480002e009000f9
:104a04008000eb00001f4100019749004e01900017
:104a1400de0190001e00be0000005100818059009c
:104a2400008fbe001e00be00e00f5000e08f580053
:104a340014003400c0458000610060000000e00004
:104a4400060032001e01be001000200001002000fc
:104a5400800f5100818f5900040032008040eb0028
:104a640000c1b3007efa0700d30237004e00900065
:104a7400de00900061005000e0805800400798007c
:104a840051079800d2448000e3448000114580001f
:104a94001048800000805000cf80de00001f5100cd
:104aa400019759001145800010488000808f500004
:104ab40006003100e1478000d047800000805000ac
:104ac4008000eb001e1f10001e9718004e0090007f
:104ad400de0090001e1f50001e9758001e00be00ee
:104ae400e00f5000e08f580056003400e14780008a
:104af400d0478000008050008000eb00be0f5000c3
:104b0400ae8f58004f003900c04580000030a1002e
:104b1400c0458800c04580000040a100c045880011
:104b2400904880000080a1009048880013488000cd
:104b340023079800114880001e0078000080400080
:104b440010488800114580002e009000808f50008e
:104b5400110039001145800010488000808f5000fa
:104b640023003100d2448000e344800011488000d7
:104b740010458000008050008000eb0002004000df
:104b840083804800d0448800e144880010488000b5
:104b9400104588001600370011458000e247800068
:104ba400d04780000000510000804000200798009a
:104bb400114880002e009000808f50000c003600b9
:104bc400d2448000e3448000114880002e0090000d
:104bd400008050008000eb00020040008380480009
:104be400d0448800e14488001048800010458800c3
:104bf40011488000e0478000808f50000600390093
:104c040011488000d2478000e04780000000510036
:104c1400008040001048880011458000e047800073
:104c2400808f50003600390011458000d247800043
:104c3400e0478000000051000080400010458800db
:104c44002f0037001148800010458000808f5000ed
:104c54002b003200c0458000680060000000e000c6
:104c640024003200c0458000700060000000e000b5
:104c74001d003200d2448000e344800011458000ce
:104c84001048800000805000cf80de0000005100fa
:104c940081805900d0448800e14488001145800097
:104ca40010488000808f50000a003100d2448000f8
:104cb400e3448000e1478000d0478000008050003a
:104cc400cf80de000000510081805900d04488006c
:104cd400e144880010488000104588009048800016
:104ce40000a0a00090488800c04580000040a000bb
:104cf400c0458800c04580000030a000c045880041
:104d04001148800000488000808f500023003a0042
:104d14009148800000802000008060000000e000d6
:104d24000d003a00ba520200000000000001be006b
:104d340080962800910020000200400083804800f3
:104d44004048880051488800904880000040a100f5
:104d54009048880011003700d2448000e34480006a
:104d64004e009000de009000800f5100818f5900aa
:104d74000a003a00c0458000610060000000e000c5
:104d840006003200904880000040a100904888004e
:104d94009048800000b0a100904888007e089000f0
:104da40070019000ce019000d0448000e144800066
:104db400000078000080510000004100600f98005e
:104dc400404580000000e00006003a006e089000b4
:104dd4000000e00003003200904880000090a00032
:104de40090488800ee089000414588008048800083
:104df400e80f50001a003a00d2448000e3448000d7
:104e04004e009000de009000800f5100818f590009
:104e14003b003a00c0458000610060000000e000f3
:104e240039003200ba520200000000000001be0046
:104e3400404b2c00410020000200400083804800c9
:104e44004048880051488800904880000040a000f5
:104e54009048880090002000804888002f00370088
:104e640080488000e90f50000e003a000e50900078
:104e74000080fb00610060000000e00024003a00b4
:104e84004e019000de019000d2448800e344880083
:104e94008040eb0040c1b30071f90700affc07008c
:104ea400c501370080488000ea0f50001a003a001c
:104eb400d2448000e34480004e009000de00900065
:104ec400800f5100818f5900b0013a00a3fc070004
:104ed400b9013700d0448000e14480006101400002
:104ee400e08148004e009000de009000800f5100e9
:104ef400818f5900a7013a0098fc0700ae013700e2
:104f04000000000005003700000000000300370027
:104f14000000000001003700000000000e50900067
:104f24008080fb0000022000008060000000e000a0
:104f34009a013a0080488000eb0f5000990132003a
:104f440080488000ea0f50009801320080488000b9
:104f5400ec0f5000970132000e1090000000e000aa
:104f6400140132005e0890000000e0007a003c006a
:104f74007e089000600090004400de006f406000f6
:104f84000080fb004200dd00800078005e08900095
:104f94000080500092500200000000008e1090002b
:104fa4005e08900000804000001798008e1090006a
:104fb4003e009000808f500002003600be01900039
:104fc40003179800f2448000034580000e109000ff
:104fd4008000eb000200400083804800f044880019
:104fe40001458800214880000e1090008080400018
:104ff400f0478000808f50001d003600f14780008c
:1050040020488000008050000000e800200798003d
:105014006091200090407800204880002e0290008b
:105024008041eb000081eb001a0207008e10900013
:105034002e00900000815000609120009040780084
:10504400e0478000020278008041eb000081eb0021
:1050540010020700e14780000e1190002e0090001e
:105064000000510000804000204888000b003700f9
:105074006091200090407800204880000e1290003b
:105084008041eb000081eb00020207002148800010
:105094000e1090000080400020488800b045800039
:1050a400e10f4000c3003200b0458000800078006a
:1050b4000e10900000805000b045880051458000db
:1050c400b045800000804000200798002e0090002a
:1050d4000000e00003003d000080eb00b0458800c4
:1050e400b4003700b04580000000e000b1003c008f
:1050f400f2448000034580002e0090008000eb0005
:105104000200400083804800f04488000145880084
:10511400214880002e009000008040002048880034
:1051240021488000f0478000808f5000070036003f
:1051340021488000f2478000e047800000005100d1
:105144000080ea0000804000204888000080eb00d6
:10515400b0458800970037005e0890000000e0002a
:10516400940034008e1090005e089000808040000f
:105174003e009000808f500004003600be00900076
:105184005e08900000805000001798007e08900090
:10519400600090004400de006f4060000080fb006f
:1051a4004200dd009250020000000000214880000f
:1051b4005e089000808040000e10900080804000c7
:1051c400f0478000808f50002e003600f1478000a9
