:020000040000fa
:080000000002040000000000f2
:020000040000fa
:04000800d40200001e
:020000040000fa
:04000c00d40200001a
:020000040000fa
:04001000d402000016
:020000040000fa
:04001400d402000012
:020000040000fa
:04001800d40200000e
:020000040000fa
:04001c00d40200000a
:020000040000fa
:04002000d402000006
:020000040000fa
:04002400d402000002
:020000040000fa
:04002800d4020000fe
:020000040000fa
:04002c00d4020000fa
:020000040000fa
:04003000d4020000f6
:020000040000fa
:04003400d4020000f2
:020000040000fa
:04003800d4020000ee
:020000040000fa
:04003c00d4020000ea
:020000040000fa
:04004000d4020000e6
:020000040000fa
:04004400d4020000e2
:020000040000fa
:04004800d4020000de
:020000040000fa
:04004c00d4020000da
:020000040000fa
:04005000d4020000d6
:020000040000fa
:04005400d4020000d2
:020000040000fa
:04005800d4020000ce
:020000040000fa
:04005c00d4020000ca
:020000040000fa
:04006000d4020000c6
:020000040000fa
:04006400d4020000c2
:020000040000fa
:04006800d4020000be
:020000040000fa
:04006c00d4020000ba
:020000040000fa
:04007000d4020000b6
:020000040000fa
:04007400d4020000b2
:020000040000fa
:04007800d4020000ae
:020000040000fa
:04007c00d4020000aa
:020000040000fa
:04008000d4020000a6
:020000040000fa
:04008400d4020000a2
:020000040000fa
:04008800d40200009e
:020000040000fa
:04008c00d40200009a
:020000040000fa
:04009000d402000096
:020000040000fa
:04009400d402000092
:020000040000fa
:04009800d40200008e
:020000040000fa
:04009c00d40200008a
:020000040000fa
:0400a000d402000086
:020000040000fa
:0400a400d402000082
:020000040000fa
:0400a800d40200007e
:020000040000fa
:0400ac00d40200007a
:020000040000fa
:0400b000d402000076
:020000040000fa
:0400b400d402000072
:020000040000fa
:0400b800d40200006e
:020000040000fa
:0400bc00d40200006a
:020000040000fa
:0400c000d402000066
:020000040000fa
:0400c400d402000062
:020000040000fa
:0400c800d40200005e
:020000040000fa
:0400cc00d40200005a
:020000040000fa
:0400d000d402000056
:020000040000fa
:0400d400d402000052
:020000040000fa
:0400d800d40200004e
:020000040000fa
:0400dc00d40200004a
:020000040000fa
:0400e000d402000046
:020000040000fa
:0400e400d402000042
:020000040000fa
:0400e800d40200003e
:020000040000fa
:0400ec00d40200003a
:020000040000fa
:0400f000d402000036
:020000040000fa
:0400f400d402000032
:020000040000fa
:0400f800d40200002e
:020000040000fa
:0400fc00d40200002a
:020000040000fa
:04010000d402000025
:020000040000fa
:04010400d402000021
:020000040000fa
:04010800d40200001d
:020000040000fa
:04010c00d402000019
:020000040000fa
:04011000d402000015
:020000040000fa
:04011400d402000011
:020000040000fa
:04011800d40200000d
:020000040000fa
:04011c00d402000009
:020000040000fa
:04012000d402000005
:020000040000fa
:04012400d402000001
:020000040000fa
:04012800d4020000fd
:020000040000fa
:04012c00d4020000f9
:020000040000fa
:04013000d4020000f5
:020000040000fa
:04013400d4020000f1
:020000040000fa
:04013800d4020000ed
:020000040000fa
:04013c00d4020000e9
:020000040000fa
:04014000d4020000e5
:020000040000fa
:04014400d4020000e1
:020000040000fa
:04014800d4020000dd
:020000040000fa
:04014c00d4020000d9
:020000040000fa
:04015000d4020000d5
:020000040000fa
:04015400d4020000d1
:020000040000fa
:04015800d4020000cd
:020000040000fa
:04015c00d4020000c9
:020000040000fa
:04016000d4020000c5
:020000040000fa
:04016400d4020000c1
:020000040000fa
:04016800d4020000bd
:020000040000fa
:04016c00d4020000b9
:020000040000fa
:04017000d4020000b5
:020000040000fa
:04017400d4020000b1
:020000040000fa
:04017800d4020000ad
:020000040000fa
:04017c00d4020000a9
:020000040000fa
:04018000d4020000a5
:020000040000fa
:04018400d4020000a1
:020000040000fa
:04018800d40200009d
:020000040000fa
:04018c00d402000099
:020000040000fa
:04019000d402000095
:020000040000fa
:04019400d402000091
:020000040000fa
:04019800d40200008d
:020000040000fa
:04019c00d402000089
:020000040000fa
:04020800d40200001c
:020000040000fa
:04020c00d402000018
:020000040000fa
:04021000d402000014
:020000040000fa
:04021400d402000010
:020000040000fa
:04021800d40200000c
:020000040000fa
:04021c00d402000008
:020000040000fa
:04022000d402000004
:020000040000fa
:04022400d402000000
:020000040000fa
:04022800d4020000fc
:020000040000fa
:04022c00d4020000f8
:020000040000fa
:04023000d4020000f4
:020000040000fa
:04023400d4020000f0
:020000040000fa
:04023800d4020000ec
:020000040000fa
:04023c00d4020000e8
:020000040000fa
:04024000d4020000e4
:020000040000fa
:04024400d4020000e0
:020000040000fa
:04024800d4020000dc
:020000040000fa
:04024c00d4020000d8
:020000040000fa
:04025000d4020000d4
:020000040000fa
:04025400d4020000d0
:020000040000fa
:04025800d4020000cc
:020000040000fa
:04025c00d4020000c8
:020000040000fa
:04026000d4020000c4
:020000040000fa
:04026400d4020000c0
:020000040000fa
:04026800d4020000bc
:020000040000fa
:04026c00d4020000b8
:020000040000fa
:04027000d4020000b4
:020000040000fa
:04027400d4020000b0
:020000040000fa
:04027800d4020000ac
:020000040000fa
:04027c00d4020000a8
:020000040000fa
:04028000d4020000a4
:020000040000fa
:04028400d4020000a0
:020000040000fa
:04028800d40200009c
:020000040000fa
:04028c00d402000098
:020000040000fa
:04029000d402000094
:020000040000fa
:04029400d402000090
:020000040000fa
:04029800d40200008c
:020000040000fa
:04029c00d402000088
:020000040000fa
:0402a000d402000084
:020000040000fa
:0402a400d402000080
:020000040000fa
:0402a800d40200007c
:020000040000fa
:0402ac00d402000078
:020000040000fa
:0402b000d402000074
:020000040000fa
:0402b400d402000070
:020000040000fa
:0402b800d40200006c
:020000040000fa
:0402bc00d402000068
:020000040000fa
:0402c000d402000064
:020000040000fa
:0402c400d402000060
:020000040000fa
:0402c800d40200005c
:020000040000fa
:0402cc00d402000058
:020000040000fa
:0402d000d402000054
:020000040000fa
:0402d400d402000050
:020000040000fa
:0402d800d40200004c
:020000040000fa
:0402dc00d402000048
:020000040000fa
:0402e000d402000044
:020000040000fa
:0402e400d402000040
:020000040000fa
:0402e800d40200003c
:020000040000fa
:0402ec00d402000038
:020000040000fa
:0402f000d402000034
:020000040000fa
:0402f400d402000030
:020000040000fa
:0402f800d40200002c
:020000040000fa
:0402fc00d402000028
:020000040000fa
:04030000d402000023
:020000040000fa
:04030400d40200001f
:020000040000fa
:04030800d40200001b
:020000040000fa
:04030c00d402000017
:020000040000fa
:04031000d402000013
:020000040000fa
:04031400d40200000f
:020000040000fa
:04031800d40200000b
:020000040000fa
:04031c00d402000007
:020000040000fa
:04032000d402000003
:020000040000fa
:04032400d4020000ff
:020000040000fa
:04032800d4020000fb
:020000040000fa
:04032c00d4020000f7
:020000040000fa
:04033000d4020000f3
:020000040000fa
:04033400d4020000ef
:020000040000fa
:04033800d4020000eb
:020000040000fa
:04033c00d4020000e7
:020000040000fa
:04034000d4020000e3
:020000040000fa
:04034400d4020000df
:020000040000fa
:04034800d4020000db
:020000040000fa
:04034c00d4020000d7
:020000040000fa
:04035000d4020000d3
:020000040000fa
:04035400d4020000cf
:020000040000fa
:04035800d4020000cb
:020000040000fa
:04035c00d4020000c7
:020000040000fa
:04036000d4020000c3
:020000040000fa
:04036400d4020000bf
:020000040000fa
:04036800d4020000bb
:020000040000fa
:04036c00d4020000b7
:020000040000fa
:04037000d4020000b3
:020000040000fa
:04037400d4020000af
:020000040000fa
:04037800d4020000ab
:020000040000fa
:04037c00d4020000a7
:020000040000fa
:04038000d4020000a3
:020000040000fa
:04038400d40200009f
:020000040000fa
:04038800d40200009b
:020000040000fa
:04038c00d402000097
:020000040000fa
:04039000d402000093
:020000040000fa
:04039400d40200008f
:020000040000fa
:04039800d40200008b
:020000040000fa
:04039c00d402000087
:020000040000fa
:100400002f8d20000e7f24000e01880000000000c8
:10041000000020000000e000020032000001200087
:100420002002880014000700ce0007000000e00052
:1004300003003a00003721000100200002003700cd
:100440000000200001002000810f70000100320038
:1004500014000700000020000000e000020032004d
:1004600000000200000000002e1402000000000046
:100470000040da000000fe004440a90020012000f6
:100480000000e0000300320000002000a00188000e
:100490004440a800000006008a1f78008b1f7800e7
:1004a0000000060091018800800478000000eb0045
:1004b0001a003700e284440032a0b4009905ba0063
:1004c000e284440032a0b4009906ba00e2844400f9
:1004d00032a0b4000006eb00476fde00fd07b2005b
:1004e000636ce10003003a00ebff07000000eb0043
:1004f0000a003700606ce10004003a00005deb0088
:100500008b05e900fdff3e00040037006168e10053
:10051000010032000086eb000b00070019c7ba008b
:100520001905ba000e04e00003003a000a00e000da
:10053000e0ff3a0000000600fe07b2009e018800be
:100540008a047800f5ff3700395dba008b05e900b1
:100550000c003200295dba008b05e900080032006a
:100560000c00e00003003a00e284440032a0b40032
:10057000f5ff370019ddba008b05e900faff3a00f4
:100580008904e800e184440032a0b40000000600c1
:100590008e05040000000000f409040000000000c3
:1005a00000000400000000000040da000000fe002f
:1005b0000a00fa0011002000b1bf9f00c0bf9f00d9
:1005c0006a8057000d0707004fb897000080fa00b7
:1005d000000006000a00fa00e20f50001f003e0073
:1005e00060468000e10f50000600320080232000aa
:1005f0004523200023232000042320000000e000e6
:1006000004003a00802220004522200023222000fe
:1006100004222000060028009403630002003a0030
:1006200007087800140a730013a8a30001003a0019
:1006300013a0a00002007800050037001388a30073
:10064000feff32003102fb00840a78000000e9005e
:100650000000e000f9ff3a000800370033002000f6
:10066000b3bf9f00c0bf9f00d1bf9f00e2bf9f00ec
:100670006a805700e30607006fb997000200780010
:100680000080fa00000006000a00fa005100200075
:10069000b1bf9f00c0bf9f006a805700db06070004
:1006a0005fb897000080fa0000000600889fbe0037
:1006b00080047800804680000000e00004003a00da
:1006c0000e0007000084eb000000e0000800350089
:1006d000884680000900e00005003200090044005f
:1006e000060007000000e00001003d000084eb0070
:1006f000080078004f04be0000000600800078006b
:100700000100e00003003a0000002000804688005d
:10071000000005000080eb0002002000828f5000e6
:1007200002003e00814688000000eb000000060049
:1007300010128800211288000212880000000600b2
:100740004211880000118800111188000100370053
:10075000301180002202ab00fdff3a008560a90045
:100760000000060000000500818220002f00070025
:10077000800078000080eb000100e00004003500fc
:1007800081822000a0002000020007004f80de00d0
:1007900000000600889fbe008a1f78000004be008b
:1007a000c900900069009000808f5000050039005a
:1007b00009007800910007008080eb000000e00055
:1007c0001600350008457800490090000858780068
:1007d000c00498001900780000b8a30004003a0093
:1007e00000a8a30007003200ea4f540005003a00b9
:1007f00009007800070307008080eb000000e0009c
:1008000006003a0000c0200019006000020032001b
:1008100049009000e00498008a80fb000100780005
:100820004f0578004f04be0000000600889fbe0000
:100830008a9fbe008c1f7800800478000104780035
:100840002f003700c800900068009000808f500093
:100850000400390008007800680007000000e0008c
:100860003a00350000402000180060000a00320005
:10087000a100200009007800500007000006780061
:100880000c00e00004003200618514000a054600f7
:10089000cfd5de0004003700090078003b000700d8
:1008a0000005be000006eb004800900068019000c3
:1008b00000015100cf91de008a0f51008b8f59004b
:1008c000020031000205be000006eb000a01be0076
:1008d0008900780022000700480090000a004000cc
:1008e000400498000c00e00004003200080078008a
:1008f000c80207000000e00014003a008a844400a7
:100900001904e000cfff3a000080200018006000ca
:100910000600320008007800be0207008000780060
:100920000080eb000100e00009003a0001c0200057
:10093000988060000000eb00050032004800900045
:10094000600498000000eb00010037000080eb001d
:100950004f0678004f05be004f04be0000000600a1
:100960000202be008001eb000400370061f0790054
:1009700061025200e0825a008301e800e00f520059
:10098000e08f5a00f9ff3a0000000600800078006e
:100990000000eb00610ab8006101b80004034100e7
:1009a0000000e800644179000204e000f9ff3a0029
:1009b00001005300cf80de0000000600889fbe00cb
:1009c0006011b8006103b8006112b800040443006c
:1009d00085844b0066427a00814f520001003a0044
:1009e000880178000201e8000404e000f5ff3a0005
:1009f000030078004f04be0000000600889fbe0080
:100a00008a1f780000047800c800900068019000f8
:100a10000000eb00828f50003d0039001800780084
:100a20002200290002016000e20f5100070032009d
:100a3000012024000000e00001003d000120200012
:100a4000008c70000080eb003100370002002600af
:100a500002006000820f500009003a003800900048
:100a6000808f5000060039000800780069020700f6
:100a7000800078000080eb000100e00024003a00d4
:100a80001805780000c020000000650019003a0039
:100a9000a80490006002200008004000808f5400ed
:100aa00014003a0000202000010020008903070004
:100ab000200498000000e00005003a002904980096
:100ac000490498008904e8003904980008003700b8
:100ad0000a60a0000a0c7800400498000120200061
:100ae0008080400031049800400c9800500c980021
:100af000f201070028009000500498003800900090
:100b00006004980000002600180c70000000eb0044
:100b10004f0578004f04be0000000600881f7800d3
:100b20008a9fbe0000047800010078000205be0024
:100b3000880078000202be0012002000030020009e
:100b4000be0207008a0f50008b8f58000100320050
:100b50000004eb00080078004f05be004f04780049
:100b6000000006000000fa00e88157004fb9970026
:100b700081822000e0582000020007000080fa0077
:100b8000000006006200fa00889fbe008a9fbe0037
:100b90000005780081047800020478008300780062
:100ba00060f92f000f0040006d0207008a979f0038
:100bb00099979f000000eb00a09f9f001885fb0005
:100bc0008a04fb000a05ea004f55de0050022000af
:100bd000808f54000e003200e10f55000c003a00e7
:100be0001200200003002000880078001f9097006a
:100bf0000f9297000400010090979f000000e00012
:100c00009d0032002f9897000000e800a09f9f00f1
:100c10000a04440050022000808f54000400320077
:100c20000900e000e5ff3a002f9897009300370095
:100c30000000eb00809f9f00f0979f00e0979f00cf
:100c4000d0979f00c0979f00b0979f00c09f9f00c4
:100c50008004eb0008003700e18b20008100500089
:100c60008100d000228b2000828040004f989700a6
:100c700011007000c09f9f006141b8006148b8003a
:100c800002054000e24578008b00fb00e08b20006d
:100c90001b0207008904e8000000e000eeff3a00b4
:100ca000a1c2b30081cf55000e003a00bf88970063
:100cb0000180e900b08f9f0010007800b09f9f0076
:100cc0000000e00005003d000000ea00b09f9f002a
:100cd0004f9897000020a000c09f9f000a04e800e2
:100ce00012003700b09f9f006000b8000600370078
:100cf000f3ff2700830f5000020032006a02b900a0
:100d0000040041008100e8006152b8006109b800a8
:100d100004044100644179000201fb000203b100b8
:100d2000e90f5100f2ff3600b09f9f00e0c2b30010
:100d3000984f1000030032000080eb00909f9f004e
:100d40002100370008007800a1c2b300d0cf100006
:100d500007003a003f8997008280e900b18f9f0029
:100d600091007800919f9f000004e8001600370072
:100d70000000eb00909f9f008000eb000600370012
:100d8000f3ff2700830f5000020032006a02b9000f
:100d9000040041008100e8000802e8008002eb0046
:100da0006109b8000203420083834a00644179006c
:100db0000201fb000203b100e90f5100f0ff360011
:100dc000909f9f0006047800984478008900fb00fb
:100dd000a08a2000ca0107000000e00002003200e3
:100de0000804e800010037008044eb00a97f9f0061
:100df00080c6b30080cf540004003a0098cf14009e
:100e00000a003a006640500006003700c0c6b30032
:100e100080cf540005003a0098cf140003003a0038
:100e200065404000a07f9f000804e8001801fb0017
:100e3000c3fb2f008f81410061f92f008f8040009c
:100e400080f92f000f004000100007000000e000b4
:100e500009003a00c1fb2f008f80400080f92f006d
:100e60000f004000260407000000e00002003500eb
:100e70000804e80051ff37000080eb004f05be007a
:100e80004f04be000080fa0000000600881f7800b2
:100e9000e4c6b300844f5100b800320010003c009b
:100ea0006b425200844f51001800320005003c0094
:100eb00054c2b300844f5100f000320084c5b30027
:100ec0000f00370044c6b300844f510014003200b5
:100ed00065424200844f5100eb003a001000370099
:100ee00004c7b300844f5100d700320053003500cf
:100ef00065424200844f510050003200634242007c
:100f0000844f5100e0003a004c0037001181e900a5
:100f100082087800f000900012417800d800370075
:100f200020629000c5c6b300854f520007003a000a
:100f30009102780064825200840878001402be0096
:100f40004fabde00860378001100370015c7b300f1
:100f5000854f520003003200a5c6b300854f5200f2
:100f600006003a00910278006882520084087800f6
:100f70005403be004402be00050037001182e900a0
:100f80008408780014027800cfa2de00612bb9003b
:100f90000498be000690be00a060900088c6b30012
:100fa00088cf50000d00320028c6b30088cf500013
:100fb00004003a000402fb00cfa2de00612bb9005e
:100fc0000800370048c7b30088cf50000300320044
:100fd0006644440088cf500004003a00cfa2de00ef
:100fe000612bb9000498be000690be003002be001e
:100ff0002003be00f0009000e00f5200e08f5a0086
:10100000e00f5b00e08f5b0002003d00d4c2b30044
:1010100008003700001290000418a30002003200fc
:10102000b4c2b300030037000408a3004e0032002e
:1010300004c2b30084f178004900370020629000b8
:10104000c5c6b300854f520006003a0091027800f1
:1010500064825200840878001402be006033b80035
:101060001100370015c7b300854f5200030032004e
:10107000a5c6b300854f520006003a0091027800e1
:1010800068825200840878005403be004402be0007
:10109000050037001182e900840878001402780006
:1010a0008002eb006033b8000498be000690be00da
:1010b000a060900088c6b30088cf500003003a00bb
:1010c0008002eb006033b8000e00370028c6b30082
:1010d00088cf500004003a000482fb008002eb003d
:1010e0006033b8000700370048c7b30088cf50000e
:1010f000030032006644440088cf500003003a00e9
:101100006033b8000498be000690be0080109000c6
:101110000138a300140032003002be002003be00dc
:10112000e00f5200e08f5a00e00f5b00e08f5b00a1
:101130000d00320081c7b300814f5100030032001f
:1011400081c5b300814f510007003a00f0009000c4
:1011500004c3b30084f178008100e80082f17800d4
:101160008100e80071009800f0009000818141004a
:1011700063009800824078003e003700a061900034
:10118000c4c6b3001181e90084cf510022003200af
:101190000a003c006442520084cf51002500320016
:1011a00004c2e80084cf51001300320068425200ac
:1011b00084cf51001e003a000a00370044c7b30034
:1011c00084cf51001b0032006642420084cf5100a0
:1011d000110032006942520084cf510014003a00dd
:1011e000050037008208780092007800405890008f
:1011f000804878002c003700820878009200780040
:10120000600a9000cfa2de00612bb9008498be0076
:101210008690be0024003700820878009200780093
:1012200060099000cf91de008288be001e0037006a
:101230001181e9008208780092007800600890002f
:1012400080087800180037001181e90082087800d2
:1012500012027800cfa2de00612bb9000498be0014
:101260000690be00f000900081814100630098006c
:1012700081c7b300f20107000b003700f0009000b7
:1012800082f1780006003700f00090008181410073
:101290000204e00001003a0052c2b3008249780023
:1012a0008100e800710098000000eb004f04780016
:1012b00000000600409f20009d003700881f780036
:1012c000e88c20001804e00003003a00f9ff070052
:1012d00020c0b300004c78004f04780000000600e6
:1012e000889fbe00000478000800780049000700cd
:1012f0008004780000042000180060000200320022
:1013000028009000980007000000eb0020049800df
:10131000384090000004e000050035000000fb00ac
:10132000a3fc07000000e000010032008084eb0015
:10133000181090000000e00008003200d2fc070006
:101340000000e000010032008084eb0018109000e3
:10135000850007000000eb00101498000008200032
:10136000180060000f003200618720000000eb00d1
:10137000d10f140005003a000000400081872000d2
:10138000008040000008eb00030037000000e80088
:10139000e80f5000f6ff3a000800780072000700de
:1013a0000e003700000c780000c0eb0030449800bd
:1013b00060022000080040002004980040049800cb
:1013c00050049800400c980060049800500c98005d
:1013d0007004980076004400000c98000900780022
:1013e0004f04be0000000600889fbe0088882000d1
:1013f000f0045400480078000000e00001003200d2
:10140000b7ff0700890f5400faff3a004f04be00ef
:1014100000000600889fbe008a1f78000004780044
:101420000800e0000d003a006887200070054400c5
:101430008004eb00580078000000e0000400320057
:10144000f4ff07000000e00001003d008084eb0095
:101450008a0f5400f7ff3a002500370000002200f1
:10146000180060008004eb0021003200a804900006
:101470000f00370009015100384090000000fb00c8
:101480008900780053fc07000000e00007003c00e2
:10149000280090004004980060049800500c9800c8
:1014a0001890a0008084eb00110037008084440075
:1014b00048019000828f5400eeff39002800900010
:1014c000400498009800780002c02000028160006b
:1014d00001003a003800900001e8a3000200320049
:1014e0006004980001003700500c98008004eb0065
:1014f000090078004f0578004f04be000000060088
:10150000020037000304e00006003200000178000a
:1015100002007800b041780081cf5100f9ff3a0015
:10152000010037000001eb00020078000000060017
:10153000010020000100e0000800320001008000ee
:101540000100e000050032008100e9000100880090
:10155000818040000200800000b178000000060099
:1015600001087800000006000000e00032003200b0
:101570004002be00e50f5200e08f5a002e003600f8
:101580000408a3002c003a00514680000100e0004e
:1015900002003200810f5000040031002100980049
:1015a0005046880017003700820078002101900023
:1015b0000200e00002003200800f5100faff390003
:1015c0001103be0086814000830f50001a003900cd
:1015d000808f510004003a008418430085904b002e
:1015e00001007800070037000200e000030032002d
:1015f00004024000840f51000f00390022009800bf
:10160000a0009800a00090000100e0000a00320055
:1016100010014000828f500007003a00828c2000a9
:101620000009eb001001be00311841002190490073
:10163000a10090002100980000000600ea87470002
:10164000889fbe008a9fbe008c9fbe008e1f7800c0
:10165000000678000204be000405be000107780001
:101660000400be000d030700d0b79f00e1b79f0044
:10167000e00f5000e08f580052003200e00f54009d
:10168000e08f5c0050003200fcb79f000006be00f7
:10169000ce0090006e009000808f50000400390052
:1016a0000e007800d5fc07000000e0003300350094
:1016b000004020001e0060000c0032000c01be0043
:1016c000a10020007fb09700b90007000002780059
:1016d0000400e00008003200ffb1970061851100ae
:1016e0000a054200cfd5de00040037000c05be001d
:1016f0000002eb00010037000c05be004e00900018
:101700006e01900000015100cf91de008a0f510060
:101710008b8f5900020031000205be000002eb0071
:101720000a01be00ffb0970084bf9f008cfc070039
:101730000a0656008b865e004e0090000a004000ac
:10174000400798000fba97000400e0000400320040
:101750000e0078002fff07000000e00007003a00ad
:10176000e00f5600e08f5e00040032007fb097006b
:101770000a004000f0b79f00c5ff3700008020003e
:101780001e006000020032000e00780021ff0700fa
:1017900000c020001e00600002003200ce00900059
:1017a000610798005fb19700efb197000c005100fe
:1017b0008d8059000801be00a50207000005be008b
:1017c000010037006055b8000a00be004f077800de
:1017d0004f06be004f05be004f04be00af00b10073
:1017e00000000600889fbe008a9fbe000004be0065
:1017f000414680000100e000020032000100780054
:101800000f00370051468000a08c200005003700f3
:10181000b10f5400a18f5c002b00360064804000a3
:10182000a10090000100e000f9ff3a00120037002b
:10183000b20f5400a28f5c00230036006400410008
:10184000100178000200e000f9ff3a001101780071
:1018500051468000a08c200005003700b10f5400d5
:10186000a18f5c001800360064804000a100900049
:10187000828f5000f9ff3a002a4680003b468000e4
:10188000880f5500898f5d00010031000805be00fa
:101890000a00be005e0007000000e00006003a00fb
:1018a000880f5500898f5d00060032008b05d1003e
:1018b0000a85d300f2ff37000a98be002aff07000e
:1018c000cbff37000000eb004f05be004f04be0009
:1018d00000000600889fbe000002be0065004000b8
:1018e000e0804800000378000600a1008101780034
:1018f000060178000204be008000eb00840f540053
:10190000858f5c0027003600e50f5400e08f5c00f7
:1019100002003e0068002000090020000800be0010
:10192000b0ff07008000eb000000e0001d00320067
:1019300090007800a4ff2f00f5ff2f003101420036
:10194000a1814a00880f5100898f5900030031009e
:10195000a1029000050878000800370008814000c7
:1019600002087800a101900023019800100178007e
:101970003119140021911c008888be0010017800e4
:101980000000eb000200e00004003200a201900021
:101990000300e0000100320064004100404688007e
:1019a000e4804000010078004f04be000000060003
:1019b000889fbe008a9fbe000202be008001eb002d
:1019c000060037008301e80066417c00814f51002a
:1019d0000b00320061025200e0825a006103b8003d
:1019e000611cb8000805430089854b00e00f5200d8
:1019f000e08f5a00f3ff3a000000eb0001003700cf
:101a00000a0078004f05be004f04be00000006002b
:101a10000001be008000eb000200e0000600340080
:101a20000200780021fb070080007800e18f400071
:101a300001003a008000eb00010078000000060081
:101a4000fc874700889fbe008a9fbe008c9fbe0017
:101a50008e1f78000006780080c5b30080cf50004c
:101a60000a0032007740400080cf50000a00320068
:101a70006940400080cf50000b0032009089200068
:101a800080bf9f00ae0020000a003700828820003f
:101a900082bf9f00060037009389200083bf9f000c
:101aa0008e002000030037009489200084bf9f002f
:101ab0000e0120003c02be002c03be000605be0045
:101ac0000404be0040c6b30080cf500003003200c3
:101ad0006540400080cf50000b003a00e00f5200fc
:101ae000e08f5a00e00f5b00e08f5b0006003d00d6
:101af0006000b8006011b8000404500085845800ec
:101b00000605590087855900e80f57000400320088
:101b100040002000f00f570038003a000100370065
:101b200030002000e00f5400e08f5c00e00f5d000b
:101b3000e08f5d0004003a00dc0890008d01200079
:101b40000100e000060032008e00e900888060009d
:101b50008fba9700e5c07800f1ef9f007d0120006b
:101b6000800078008100e900050033008b05d1007a
:101b70000a85d3008984d3000884d300f9ff370095
:101b8000089ebe000a96be00120037008d06e900ce
:101b90008e00e900848060000fb99700e2c17800f0
:101ba00082fd2f000f01410003f17e0080007800cc
:101bb0008100e900050033008783d1000683d3004c
:101bc0008582d3000482d300f9ff3700049ebe0053
:101bd0000696be003c02be002c03be00e00f520081
:101be000e08f5a00e00f5b00e08f5b008b00340059
:101bf0000d00e000e5ff3c00880037002c609000fd
:101c000081c6b300814f50000b00320006003c003b
:101c10000004e00008003200e6c05000814f500090
:101c20004e003a0004003700c1c6b300814f500097
:101c30004a003a00210037000800e00004003a00a2
:101c40005c0890008d0120000000e00006003200da
:101c5000110009000e84d8000fb99700e2c0780087
:101c6000f1ef9f007d012000110009000e84d800d3
:101c70000a003700110009000e04d8008d06e900a3
:101c80000e81b900020454008fb8970061417c00b6
:101c900081fd2f008f80400082f07e0000047800dc
:101ca0000800e000020032000d00e000f1ff3c00ff
:101cb000cfc4de00614db90025003700e00f5400ad
:101cc000e08f5c0004003a005c0890008d01200069
:101cd0000000e000070032006171b9000800be009a
:101ce0006b0107008fb99700e3417800f3ef9f0085
:101cf0007d0120006171b9000800be005401070099
:101d00000b0037006171b9000800be0041010700f7
:101d10008d06e90000f1b900020454000fba9700e3
:101d2000e4427c0084fd2f000f02420005f27e0099
:101d30000004be00e00f5000e08f580002003200a7
:101d40000d00e000efff3c004fcdde008a0578007b
:101d5000089ebe000a96be0030003700e00f540017
:101d6000e08f5c00e00f5d00e08f5d0004003a0052
:101d70005c0890008d0120000000e00009003200a6
:101d80006172b900612bb9000800be000a01be00f3
:101d9000e80107000fba970064427800f4ef9f0053
:101da0007d0120006172b900612bb9000800be00fe
:101db0000a01be00d80107000d0037006172b900aa
:101dc000612bb9000800be000a01be00dd0107005a
:101dd0008d06e90000f2b900040454008fba9700a0
:101de00065427c0085fd2f008f82420084f27e00d8
:101df000009ebe000296be003c04be002c05be0044
:101e0000e00f5400e08f5c00e00f5d00e08f5d00ac
:101e1000020034000d00e000e8ff3c00e80f57002e
:101e200010003a000c1090000038a3000d003200a2
:101e3000f78f560006003e0085fd2f008f8242007e
:101e4000e5c07e0000c3b30080cf50000500320023
:101e50008d06e90002c3b30081fd2f008f80400092
:101e600082f07e00f8801600110e98006c00900041
:101e70006109b90084fd2f000f0242008d0042006d
:101e8000b7fa07001c089000dc089000810f500092
:101e900006003d0000805000000e98000c109000dd
:101ea0000040a100001698000f0037000100e0007c
:101eb0000d003d008c109000f4806000f08f500009
:101ec00009003a007c099000fc009000810051005c
:101ed0000c09900082805000008050004240a90010
:101ee00001003400000e98004f0778004f06be0036
:101ef0004f05be004f04be00cf01b1000000060038
:101f00000400fa00889fbe008a9fbe008c1f7800e4
:101f10000004780001067800f80d90007800900029
:101f200080855500080890008085550018089000ad
:101f3000808555002808900080855500380890005d
:101f400080855500480890008085550000022200d9
:101f500090bf9f0000032300a0bf9f0008109000c7
:101f60000028a30015003a000b00e0001300340025
:101f70000b0578008a047800e20f55000100360056
:101f8000290020006149b90048029000ee80570006
:101f90005800900004000100500498000000e00088
:101fa0008f0032006808900009004000600c980023
:101fb000090555004240a900eeff3c007800900062
:101fc0000000e0000d0034006101b90048029000fb
:101fd0008c00780058009000040001005004980024
:101fe0008080eb000000e0007e003200e8089000f6
:101ff0007800900000804000600c9800880c9000f1
:102000000900e0001100340009057800e28f540057
:10201000010036002a0020006151b90048029000fa
:10202000ec80570058009000040001005004980014
:102030000000e0006a003200680890000a004000da
:10204000600c98008a845400edff37001808900057
:102050000000e0000d0034006101b900480290006a
:10206000e80090005800900004000100500498001f
:102070008080eb000000e0005a003200e808900089
:102080001808900000804000600c9800a80c900098
:102090000900e0001100340009057800e28f5400c7
:1020a000010036002a0020006151b900480290006a
:1020b000ec80570058009000040001005004980084
:1020c0000000e00046003200680890000a0040006e
:1020d000600c98008a845400edff370038089000a7
:1020e0000000e0000f0034006101b9001808900002
:1020f000e800900080804000480290005800900066
:1021000004000100500498008080eb000000e00013
:1021100034003200e8089000380890000080400049
:10212000600c9800c80c90000900e0001100340019
:1021300009057800e28f5400010036002a002000d3
:102140006151b90048029000ec805700580090009f
:1021500004000100500498000000e000200032005c
:10216000680890000a004000600c98008a845400bf
:10217000edff3700081090008000eb000028a3005e
:10218000180032000b00e000160034008b047800c9
:1021900009057800e28f5400010036002a00200073
:1021a0006151b90048029000ee805700580090003d
:1021b00004000100500498000000e0000800320014
:1021c000680890000a004000600c98008a8454005f
:1021d0004240a900eeff3c008000eb000100370008
:1021e0008080eb00010078004f0678004f05be00ac
:1021f0004f04be000080fa000000060000c0da00b4
:102200000000060000c0da000000060000c0da008e
:1022100000000600839f68000100e00002003d000e
:1022200060001000e08018000300e00002003d00a4
:1022300060011100e0811900050007004f00e00077
:1022400002003b0060001000e08018000000060063
:102250006022b800060220000000d0008180d20079
:102260000482d2008582d2000000a0000202520047
:1022700083825a00030031000202420083824a0036
:102280000000a1000603e900f3ff3a000000060089
:10229000efff07000400be0000000600020ab900bc
:1022a000001bb9000200b800810042008100430019
:1022b00000000600889fbe008a9fbe0030044200d6
:1022c000b0844a0030054b0090854b006000b1009f
:1022d0000898be000a90be000440e10005c8e10075
:1022e00006d0e10007d8e10002003100680040009c
:1022f0001008e8004f05be004f04be0000000600b5
:10230000889fbe008a9fbe003004be002005be002c
:102310000418540005985c0006185d0007985d00dd
:10232000110020000440e10005c8e10006d0e100f2
:1023300007d8e100010039008000eb001088100090
:102340004f05be004f04be00000006001200fa0058
:10235000889fbe008a9fbe008c9fbe00e0b79f0092
:10236000f1b79f0082bf9f0093bf9f000605be008c
:102370000404be000000eb00d0b79f00c0b79f0070
:10238000b0b79f00a0b79f0090b79f000006eb007a
:102390005fb19700cfb09700820141003fb0970036
:1023a0000200e00004003d00370007007e80570077
:1023b000c0ff070003003700330007007e8057008e
:1023c000cfff0700dfb697000d00e0000c003500de
:1023d0006fb29700ffb297000fbb97009fbb9700ab
:1023e00010002000010020006011b80000027200ff
:1023f0008182720002037300838373001b00070055
:102400000c06e80001042000810f5600e0ff3a00ae
:102410000d00e00004003d000802be000a03be00fb
:102420007e805700a3ff07005fa897000000e00030
:1024300005003a001fb29700afb297003fb3970074
:10244000cfb39700090007006fb09700ffb0970067
:102450000fb997009fb997004f06be004f05be0009
:102460004f04be000080fa000000060001000700d3
:1024700000000600a4b79f00b5b79f00c6b79f0035
:10248000d7b79f00000006004f09de00828171006f
:10249000b3b79f004f01de00818040008280700052
:1024a000a1b79f008fb097004f09de0000004000e9
:1024b0000200700090b79f007fa897004f01de00d8
:1024c000818040008280700081b79f000d0007006e
:1024d0004f3ade000000400004007000f0af9f00a3
:1024e000080007000402420085824a0006034b00f0
:1024f00087834b00dfff07000802be000a03be000f
:10250000000006002fb29700bfb297004fb39700ac
:10251000dfb3970000000600881f78001800200035
:10252000881f780089ff07008f87e9004f04780033
:1025300000000600801feb0084ff07008f87e90082
:1025400000000600889fbe008a9fbe00e00f50007a
:10255000e08f5800e00f5900e08f59000c003d005b
:102560006044b8006055b8000000540081805c00f1
:1025700002015d0083815d00180020001500070046
:1025800008003d00180007000004eb0005003700bc
:102590000004eb000f00070002003d0012000700de
:1025a00018002000dcff07000800e00006003200f1
:1025b0006022b8006033b8000000520081805a00e9
:1025c00002015b0083815b004f05be004f04be002b
:1025d00000000600e00f5200e08f5a00e00f5b00a1
:1025e000e08f5b00000006006044b8006055b80052
:1025f0000402540085825c0006035d0087835d0051
:1026000000000600889fbe008a9fbe008c1f7800d5
:10261000e00f5000e08f5800e00f5900e08f5900a4
:102620000d003d006044b8006055b8000000540043
:1026300081805c0002015d0083815d001c00200040
:102640000820e10009a8e1000ab0e1000bb8e100b0
:102650000d003d00080037000006eb00e00f5200bf
:10266000e08f5a00e00f5b00e08f5b0006003d004a
:102670006044b8006055b8000402540085825c00d4
:1026800006035d0087835d00aaff07000c00e000e1
:10269000060032006022b8006033b800000052002b
:1026a00081805a0002015b0083815b004f06780045
:0c26b0004f05be004f04be0000000600f5
:020000040000fa
:1026bc00486500006c6c00006f200000776f000014
:1026cc00726c0000640d000000250000640d000019
:0426dc000a000000f0
:020000040000fa
:1026e000cc08000002000000020000000100000011
:1026f0000008000088000000020000000100000047
:1027000000260800270826000826080026082600bc
:102710000816080000000000000000000000000093
:1027200000000000000000000000000000000000a9
:102730000002080001014e00084f08004e084e003c
:10274000084e08004e083e0008000000000000008f
:102750000000000000000000000000000000000079
:102760000000000000000200080202007608770066
:1027700008760800760876000876080066080000eb
:102780000000000000000000000000000000000049
:102790000000000000000000000000000008280009
:1027a00008500800000000000000000000000000c9
:1027b00000000000aa0800001a000000020000004b
:1027c000686a6c00747a4c0000000100000200008e
:1027d0000400080000100000000020002b2d230042
:1027e00030000000ce0800000200000000000000e1
:1027f000c408000004000000020000000600000001
:1028000000000000c80800000400000000000000f4
:102810008808000022000000020000003031320071
:1028200033343500363738003941420043444500df
:102830004600300031323300343536003738390045
:10284000616263006465660000000000d00800005b
:0c2850000200000000000000000000007a
:020000040000fa
:10285c000200fa0010002000604688000000eb0027
:10286c00000f78009136800000fc2f000080600083
:10287c003000b30090368800b1368000f00f2c0089
:10288c00808060000090200001007000b03688004d
:10289c004135800000fc2f00008060004001b30037
:1028ac00403588003136800000fc2f00008060002d
:1028bc007000b300303688001136800000fc2f0009
:1028cc00008060000030a0001036880092012000cb
:1028dc00014020000000280096f70700e035290091
:1028ec009ef70700020028008000eb0040622000e9
:1028fc008cf707001e0078001e0fe800801f780080
:10290c00b0362900801f780093f80700e487570041
:10291c0000902000d103200001000700f5ff3700d4
:020000040000fa
:10292c00f03fb1000180b10006003500ee03090054
:10293c0000000000403fb1000180b100fbff3d00f2
:10294c001000b000203fb0000200350000800900ec
:08295c0000000000000006006d
:020000040000fa
:020000040005f5
:0457f800fdf20000be
:00000001FF
