:020000040000FA
:0600000063EF00F01200A6
:020006000000F8
:08000800060EF66E000EF76E05
:10001000000EF86E0F010900F550056F0900F5504C
:10002000066F03E1056701D03DD00900F550006F70
:100030000900F550016F0900F550026F0900090031
:10004000F550E96E0900F550EA6E09000900090053
:10005000F550036F0900F550046F09000900F6CF51
:1000600007FFF7CF08FFF8CF09FF00CFF6FF01CF5A
:10007000F7FF02CFF8FF0F01035302E1045307E03B
:100080000900F550EE6E0307F8E20407F9D707CF31
:10009000F6FF08CFF7FF09CFF8FF0F010507000EA5
:0600A000065BBFD7120051
:0A00A600FF0EE350026E480E01D079
:1000B0004C0EE76EE72EFED7E76AE72EFED7022E3C
:0600C000F7D7000012005A
:0A00C6001DEE00F02DEE00F0F86AC8
:1000D000019C04EC00F082EC00F071EC00F0FBD726
:0200E00012000C
:0E00E2007F0E956E8C7E320EE66E53EC00F0B3
:0600F000E552F9D71200F1
:0A00F60000EE00F00F0EEE6AEA6261
:04010000FDD7120015
:020104001200E7
:020000040030CA
:0100010008F6
:0100020007F6
:010003001EDE
:010005008B6F
:010006008178
:010008000FE8
:01000900C036
:01000A000FE6
:01000B00E014
:01000C000FE4
:01000D0040B2
:00000001FF
