:020000040000fa
:080000000002040000000000f2
:020000040000fa
:04000800e002000012
:020000040000fa
:04000c00e00200000e
:020000040000fa
:04001000e00200000a
:020000040000fa
:04001400e002000006
:020000040000fa
:04001800e002000002
:020000040000fa
:04001c00e0020000fe
:020000040000fa
:04002000e0020000fa
:020000040000fa
:04002400e0020000f6
:020000040000fa
:04002800e0020000f2
:020000040000fa
:04002c00e0020000ee
:020000040000fa
:04003000e0020000ea
:020000040000fa
:04003400c8020000fe
:020000040000fa
:04003800e0020000e2
:020000040000fa
:04003c00e0020000de
:020000040000fa
:04004000e0020000da
:020000040000fa
:04004400e0020000d6
:020000040000fa
:04004800e0020000d2
:020000040000fa
:04004c00e0020000ce
:020000040000fa
:04005000e0020000ca
:020000040000fa
:04005400e0020000c6
:020000040000fa
:04005800e0020000c2
:020000040000fa
:04005c00e0020000be
:020000040000fa
:04006000e0020000ba
:020000040000fa
:04006400e0020000b6
:020000040000fa
:04006800e0020000b2
:020000040000fa
:04006c00e0020000ae
:020000040000fa
:04007000e0020000aa
:020000040000fa
:04007400e0020000a6
:020000040000fa
:04007800e0020000a2
:020000040000fa
:04007c00e00200009e
:020000040000fa
:04008000e00200009a
:020000040000fa
:04008400e002000096
:020000040000fa
:04008800e002000092
:020000040000fa
:04008c00e00200008e
:020000040000fa
:04009000e00200008a
:020000040000fa
:04009400e002000086
:020000040000fa
:04009800e002000082
:020000040000fa
:04009c00e00200007e
:020000040000fa
:0400a000e00200007a
:020000040000fa
:0400a400e002000076
:020000040000fa
:0400a800e002000072
:020000040000fa
:0400ac00e00200006e
:020000040000fa
:0400b000e00200006a
:020000040000fa
:0400b400e002000066
:020000040000fa
:0400b800e002000062
:020000040000fa
:0400bc00e00200005e
:020000040000fa
:0400c000e00200005a
:020000040000fa
:0400c400e002000056
:020000040000fa
:0400c800e002000052
:020000040000fa
:0400cc00e00200004e
:020000040000fa
:0400d000e00200004a
:020000040000fa
:0400d400e002000046
:020000040000fa
:0400d800e002000042
:020000040000fa
:0400dc00e00200003e
:020000040000fa
:0400e000e00200003a
:020000040000fa
:0400e400e002000036
:020000040000fa
:0400e800e002000032
:020000040000fa
:0400ec00e00200002e
:020000040000fa
:0400f000e00200002a
:020000040000fa
:0400f400e002000026
:020000040000fa
:0400f800e002000022
:020000040000fa
:0400fc00e00200001e
:020000040000fa
:04010000e002000019
:020000040000fa
:04010400e002000015
:020000040000fa
:04010800e002000011
:020000040000fa
:04010c00e00200000d
:020000040000fa
:04011000e002000009
:020000040000fa
:04011400e002000005
:020000040000fa
:04011800e002000001
:020000040000fa
:04011c00e0020000fd
:020000040000fa
:04012000e0020000f9
:020000040000fa
:04012400e0020000f5
:020000040000fa
:04012800e0020000f1
:020000040000fa
:04012c00e0020000ed
:020000040000fa
:04013000e0020000e9
:020000040000fa
:04013400e0020000e5
:020000040000fa
:04013800e0020000e1
:020000040000fa
:04013c00e0020000dd
:020000040000fa
:04014000e0020000d9
:020000040000fa
:04014400e0020000d5
:020000040000fa
:04014800e0020000d1
:020000040000fa
:04014c00e0020000cd
:020000040000fa
:04015000e0020000c9
:020000040000fa
:04015400e0020000c5
:020000040000fa
:04015800e0020000c1
:020000040000fa
:04015c00e0020000bd
:020000040000fa
:04016000e0020000b9
:020000040000fa
:04016400e0020000b5
:020000040000fa
:04016800e0020000b1
:020000040000fa
:04016c00e0020000ad
:020000040000fa
:04017000e0020000a9
:020000040000fa
:04017400e0020000a5
:020000040000fa
:04017800e0020000a1
:020000040000fa
:04017c00e00200009d
:020000040000fa
:04018000e002000099
:020000040000fa
:04018400e002000095
:020000040000fa
:04018800e002000091
:020000040000fa
:04018c00e00200008d
:020000040000fa
:04019000e002000089
:020000040000fa
:04019400e002000085
:020000040000fa
:04019800e002000081
:020000040000fa
:04019c00e00200007d
:020000040000fa
:04020800e002000010
:020000040000fa
:04020c00e00200000c
:020000040000fa
:04021000e002000008
:020000040000fa
:04021400e002000004
:020000040000fa
:04021800e002000000
:020000040000fa
:04021c00e0020000fc
:020000040000fa
:04022000e0020000f8
:020000040000fa
:04022400e0020000f4
:020000040000fa
:04022800e0020000f0
:020000040000fa
:04022c00e0020000ec
:020000040000fa
:04023000e0020000e8
:020000040000fa
:04023400e0020000e4
:020000040000fa
:04023800e0020000e0
:020000040000fa
:04023c00e0020000dc
:020000040000fa
:04024000e0020000d8
:020000040000fa
:04024400e0020000d4
:020000040000fa
:04024800e0020000d0
:020000040000fa
:04024c00e0020000cc
:020000040000fa
:04025000e0020000c8
:020000040000fa
:04025400e0020000c4
:020000040000fa
:04025800e0020000c0
:020000040000fa
:04025c00e0020000bc
:020000040000fa
:04026000e0020000b8
:020000040000fa
:04026400e0020000b4
:020000040000fa
:04026800e0020000b0
:020000040000fa
:04026c00e0020000ac
:020000040000fa
:04027000e0020000a8
:020000040000fa
:04027400e0020000a4
:020000040000fa
:04027800e0020000a0
:020000040000fa
:04027c00e00200009c
:020000040000fa
:04028000e002000098
:020000040000fa
:04028400e002000094
:020000040000fa
:04028800e002000090
:020000040000fa
:04028c00e00200008c
:020000040000fa
:04029000e002000088
:020000040000fa
:04029400e002000084
:020000040000fa
:04029800e002000080
:020000040000fa
:04029c00e00200007c
:020000040000fa
:0402a000e002000078
:020000040000fa
:0402a400e002000074
:020000040000fa
:0402a800e002000070
:020000040000fa
:0402ac00e00200006c
:020000040000fa
:0402b000e002000068
:020000040000fa
:0402b400e002000064
:020000040000fa
:0402b800e002000060
:020000040000fa
:0402bc00e00200005c
:020000040000fa
:0402c000e002000058
:020000040000fa
:0402c400e002000054
:020000040000fa
:0402c800e002000050
:020000040000fa
:0402cc00e00200004c
:020000040000fa
:0402d000e002000048
:020000040000fa
:0402d400e002000044
:020000040000fa
:0402d800e002000040
:020000040000fa
:0402dc00e00200003c
:020000040000fa
:0402e000e002000038
:020000040000fa
:0402e400e002000034
:020000040000fa
:0402e800e002000030
:020000040000fa
:0402ec00e00200002c
:020000040000fa
:0402f000e002000028
:020000040000fa
:0402f400e002000024
:020000040000fa
:0402f800e002000020
:020000040000fa
:0402fc00e00200001c
:020000040000fa
:04030000e002000017
:020000040000fa
:04030400e002000013
:020000040000fa
:04030800e00200000f
:020000040000fa
:04030c00e00200000b
:020000040000fa
:04031000e002000007
:020000040000fa
:04031400e002000003
:020000040000fa
:04031800e0020000ff
:020000040000fa
:04031c00e0020000fb
:020000040000fa
:04032000e0020000f7
:020000040000fa
:04032400e0020000f3
:020000040000fa
:04032800e0020000ef
:020000040000fa
:04032c00e0020000eb
:020000040000fa
:04033000e0020000e7
:020000040000fa
:04033400e0020000e3
:020000040000fa
:04033800e0020000df
:020000040000fa
:04033c00e0020000db
:020000040000fa
:04034000e0020000d7
:020000040000fa
:04034400e0020000d3
:020000040000fa
:04034800e0020000cf
:020000040000fa
:04034c00e0020000cb
:020000040000fa
:04035000e0020000c7
:020000040000fa
:04035400e0020000c3
:020000040000fa
:04035800e0020000bf
:020000040000fa
:04035c00e0020000bb
:020000040000fa
:04036000e0020000b7
:020000040000fa
:04036400e0020000b3
:020000040000fa
:04036800e0020000af
:020000040000fa
:04036c00e0020000ab
:020000040000fa
:04037000e0020000a7
:020000040000fa
:04037400e0020000a3
:020000040000fa
:04037800e00200009f
:020000040000fa
:04037c00e00200009b
:020000040000fa
:04038000e002000097
:020000040000fa
:04038400e002000093
:020000040000fa
:04038800e00200008f
:020000040000fa
:04038c00e00200008b
:020000040000fa
:04039000e002000087
:020000040000fa
:04039400e002000083
:020000040000fa
:04039800e00200007f
:020000040000fa
:04039c00e00200007b
:020000040000fa
:10040000af8720000e7f24000e018800000000004e
:10041000000020000000e000020032000001200087
:100420002002880014000700670007000000e000b9
:1004300003003a00003422000100200002003700cf
:100440000000200001002000810f70000100320038
:1004500014000700000020000000e000020032004d
:1004600000000200000000006822020000000000fe
:100470000040da000000fe004440a90060042000b3
:100480000000e0000300320000002000a00188000e
:100490004440a800000006008a1f78008b1f7800e7
:1004a0000000060091018800800478000000eb0045
:1004b0001a003700e284440032a0b4009905ba0063
:1004c000e284440032a0b4009906ba00e2844400f9
:1004d00032a0b4000006eb00476fde00fd07b2005b
:1004e000636ce10003003a00ebff07000000eb0043
:1004f0000a003700606ce10004003a00005deb0088
:100500008b05e900fdff3e00040037006168e10053
:10051000010032000086eb000b00070019c7ba008b
:100520001905ba000e04e00003003a000a00e000da
:10053000e0ff3a0000000600fe07b2009e018800be
:100540008a047800f5ff3700395dba008b05e900b1
:100550000c003200295dba008b05e900080032006a
:100560000c00e00003003a00e284440032a0b40032
:10057000f5ff370019ddba008b05e900faff3a00f4
:100580008904e800e184440032a0b40000000600c1
:10059000809fbe000000fa00a0408000b1408000b3
:1005a00061004000e0804800a0408800b140880021
:1005b0008460a9000080fa004f00be0000400600e1
:1005c0000040da000000fe00000005006022b800d4
:1005d000060220000000d0008180d2000482d200f8
:1005e0008582d2000000a0000202520083825a00dd
:1005f000030031000202420083824a000000a10091
:100600000603e900f3ff3a0000000600889fbe00e1
:100610008a9fbe0030044200b0844a0030054b007f
:1006200090854b006000b1000898be000a90be00a3
:100630000440e10005c8e10006d0e10007d8e10070
:1006400002003100680040001008e8004f05be00bd
:100650004f04be0000000600889fbe008a9fbe00b7
:100660003004be002005be000418540005985c004c
:1006700006185d0007985d00110020000440e100ad
:1006800005c8e10006d0e10007d8e100010039000b
:100690008000eb00108810004f05be004f04be0024
:1006a000000006001200fa00889fbe008a9fbe006c
:1006b0008c9fbe00e0b79f00f1b79f0082bf9f00f4
:1006c00093bf9f000605be000404be000000eb00bf
:1006d000d0b79f00c0b79f00b0b79f00a0b79f00e2
:1006e00090b79f000006eb005fb19700cfb0970076
:1006f000820141003fb097000200e00004003d008d
:10070000370007007e805700c0ff07000300370056
:10071000330007007e805700cfff0700dfb6970049
:100720000d00e0000c0035006fb29700ffb297009b
:100730000fbb97009fbb9700100020000100200016
:100740006011b8000002720081827200020373001f
:10075000838373001b0007000c06e80001042000df
:10076000810f5600e0ff3a000d00e00004003d005c
:100770000802be000a03be007e805700a3ff0700e8
:100780005fa897000000e00005003a001fb2970044
:10079000afb297003fb39700cfb3970009000700af
:1007a0006fb09700ffb097000fb997009fb99700ff
:1007b0004f06be004f05be004f04be000080fa0089
:1007c000000006000100070000000600a4b79f001b
:1007d000b5b79f00c6b79f00d7b79f0000000600bf
:1007e0004f09de0082817100b3b79f004f01de0028
:1007f0008180400082807000a1b79f008fb0970079
:100800004f09de00000040000200700090b79f001a
:100810007fa897004f01de00818040008280700039
:1008200081b79f000d0007004f3ade000000400036
:1008300004007000f0af9f000800070004024200af
:1008400085824a0006034b0087834b00dfff0700c9
:100850000802be000a03be00000006002fb2970087
:10086000bfb297004fb39700dfb3970000000600b8
:10087000881f780018002000881f780089ff070073
:100880008f87e9004f04780000000600801feb000e
:1008900084ff07008f87e90000000600889fbe00e4
:1008a0008a9fbe00e00f5000e08f5800e00f590013
:1008b000e08f59000c003d006044b8006055b8005e
:1008c0000000540081805c0002015d0083815d00b6
:1008d000180020001500070008003d001800070060
:1008e0000004eb00050037000004eb000f000700d8
:1008f00002003d001200070018002000dcff070086
:100900000800e000060032006022b8006033b80042
:100910000000520081805a0002015b0083815b006d
:100920004f05be004f04be0000000600e00f52005d
:10093000e08f5a00e00f5b00e08f5b0000000600d4
:100940006044b8006055b8000402540085825c0021
:1009500006035d0087835d0000000600889fbe00df
:100960008a9fbe008c1f7800e00f5000e08f580077
:10097000e00f5900e08f59000d003d006044b800c1
:100980006055b8000000540081805c0002015d00e9
:1009900083815d001c0020000820e10009a8e1001f
:1009a0000ab0e1000bb8e1000d003d00080037007f
:1009b0000006eb00e00f5200e08f5a00e00f5b00f2
:1009c000e08f5b0006003d006044b8006055b80051
:1009d0000402540085825c0006035d0087835d008d
:1009e000aaff07000c00e000060032006022b800f9
:1009f0006033b8000000520081805a0002015b00a1
:100a000083815b004f0678004f05be004f04be0097
:100a1000000006008001780002003700b15978001c
:100a20000201e9000200e000fcff3a0000000600bd
:100a30008001780002003700815978000201e90046
:100a40000200e000fcff3a00000006008000780091
:100a5000010178003104e000fdff3a000000510080
:100a600000000600800178000200370084597800f9
:100a70000201e9000200e000060032003142780085
:100a80000404e000f9ff3a00020037008059eb004f
:100a90000201e9000200e000fcff3a00000006004d
:020000040000fa
:100aa000000000007d000000640000000100000064
:100ab000140000001400000002000000c800000044
:100ac0009600000005000000c800000001000000c2
:100ad0000700000000010000000100000800000005
:100ae000c8000000c800000008000000c8000000a6
:100af000c800000009000000c8000000c800000095
:100b00000a00000019000000140000000c000000a2
:100b1000c8000000c80000004d430000485000001d
:0c0b2000424f0000415200004400000061
:020000040000fa
:100b2c000400fa00ddc2a800d9c2a9004022ef00df
:100b3c00b0012000101288004422ef004302a800ec
:100b4c0042a2a80041e2a800f30407000e80e800ce
:100b5c00d1c1b30009050700ae409000014f7800e9
:100b6c001e80fb00680060000000e000f6ff3a0009
:100b7c001e80fb00610060000000e000f2ff32000c
:100b8c0010002000204088000028ef008040eb007f
:100b9c0080c0b300740507008040eb0090c0b30028
:100bac007105070091c0b300c0c0b3006e0507000b
:100bbc00a1c1b300d0c0b3006b05070091c0b30056
:100bcc00a0c0b30068050700a1c1b300b0c0b3005a
:100bdc0065050700a1c0b30040c0b3006205070063
:100bec00a1c1b30050c0b3005f050700a1c0b300a2
:100bfc0020c0b3005c050700a1c1b30030c0b30036
:100c0c00590507000040eb003a04070000202000c3
:100c1c00e3050700d1c0b3000040eb00520507000c
:100c2c0021c3b30020c0b3004f05070021c1b3009e
:100c3c0040c0b3004c05070001c4b30030c0b30082
:100c4c0049050700f1c3b30090c0b3004605070087
:100c5c0021c1b30060c0b30043050700c1c0b3009d
:100c6c0070c0b30040050700e1ceb300a0c0b300d4
:100c7c003d05070051c0b300b0c0b3003a050700f2
:100c8c0040302000c605070070842000104078001a
:100c9c008040780040c0b3003305070080842000fa
:100cac00104078008040780050c0b3002e0507003b
:100cbc0090842000104078008040780020c0b30061
:100ccc0029050700a084200010407800804078009f
:100cdc0030c0b30024050700b08420001040780019
:100cec00804078000040eb001f050700c084200006
:100cfc00104078008040780010c0b3001a0507003f
:100d0c008040eb0050c1b300170507000e00e8004f
:100d1c0021c1b300990407001e40900006e8b700fb
:100d2c000110200000c1b3007d05070021472300fe
:100d3c0040c1b3007a0507008000eb000040eb00d7
:100d4c00770507000000eb009505070041c0b300d4
:100d5c00f0c1b3004d0507000080fa00000006004a
:100d6c000200fa0011c0b3000e007800d104070095
:100d7c001e0078004200de00614060000080fb0035
:100d8c000080fa00000006000200fa00f1c1b30076
:100d9c000e007800790407001e407800684060005f
:100dac000080fb000000e9004f00de000080fa002c
:100dbc00000006000200fa00204080000000e00065
:100dcc0017003a00100020002040880000408000ee
:100ddc000000e900000f78009e00780090a0210030
:100dec00808f50000200360090a02100000f780088
:100dfc0001c4b300e0c1b300240507001e40780015
:100e0c0080407800c0c0b300d70407001e4090009b
:100e1c0080407800d0c0b300d30407000100370035
:100e2c00000000000080fa00000006000a00fa0032
:100e3c00901120005a0507006500470091c1b300ce
:100e4c004e0407005e40900060479800e0002000d0
:100e5c005305070064004700e1c0b30047040700d6
:100e6c004e409000004f980063004700f1c0b30063
:100e7c00420407003e409000104f98009011200053
:100e8c00470507000e80e80091c1b3003b04070042
:100e9c00ae4090006e40900080cf5000e6ff3a00cc
:100eac00c00020003e0507000e00e800c1c0b300e2
:100ebc00320407001e40900060479800d1c0b30078
:100ecc000e0078002d0407001e4078007047980033
:100edc00ce0090003e009000808f5000060036003f
:100eec00be0090004e0090008080500090a0210029
:100efc00008040000a003700ce0090003e009000b9
:100f0c00808f500002003a0090a0210004003700ae
:100f1c00be0090004e009000008050000000e900e0
:100f2c000080fa00000006001a00fa00300f98004a
:100f3c00410f980090112000190507000e00e800e1
:100f4c0091c1b3000d0407009e409000014f780042
:100f5c000000eb00120507001e4078000004e000c2
:100f6c0002003a000000eb004a00370020408000ed
:100f7c000000e00003003a008eff07000000eb00c9
:100f8c0044003700004080001040880002c8bf00b9
:100f9c00804078000040eb007304070003c8bf00da
:100fac008040780010c0b3006f0407000e80e8008a
:100fbc0041012000e30207002e08900009080700f9
:100fcc00200f98009e00900090a02100808f500070
:100fdc0017003e000e80e800104078006140600071
:100fec000004e00012003a00be009000000028004f
:100ffc00008060000000e0000d003a003e00900010
:10100c00700060000000e00009003a00ae009000a3
:10101c00e05e2000808f500005003e00be00900076
:10102c0000082000008060000000e00001003a0091
:10103c000000fe001e009000004088003e0890005a
:10104c008e80e800ec804000620020006efe0700fd
:10105c004e08900080c0eb00014878005e50900074
:10106c00e84f500009003a004e5090000004e00098
:10107c00030032004e509000e64f500003003a003f
:10108c00ce5090004e089000014878000428ef00e4
:10109c00100020000080fa00000006000600fa0094
:1010ac00000f78002147980022079800b1c0b300c8
:1010bc0020c0b3002c040700a1c1b30030c0b300a2
:1010cc0029040700ae00900080a1210000804000a0
:1010dc00200798006400470010407800804078009a
:1010ec0060c0b3002004070064004700104090006b
:1010fc008040780070c0b3001b0407001e0078000d
:10110c00610020001703070061002000708420009c
:10111c001403070080c0b300f60207002e409000b5
:10112c000004e00002003a000040eb000100370030
:10113c0060c0b300ef0207000080fa000000060058
:10114c001800fa0001c8b300f0c1b3004f04070047
:10115c0001c8b300f0c1b30027040700a1c0b3005d
:10116c00c0c1b3002404070081c0b300f0c1b300b8
:10117c004604070006c8bf00e54f500003003200cc
:10118c0006c8bf00e64f500080003a000000eb009c
:10119c00000f7800000000006a004700c1c1b300d6
:1011ac00760307002e4890000080fb006a00600068
:1011bc000000e00005003a001e0fe800703e200021
:1011cc009e007800808f5000f3ff360069004700c6
:1011dc00c1c1b300690307001e4890006240600063
:1011ec000004e00004003a00703e20009e007800ed
:1011fc00808f50006500360081c0b300f0c1b30091
:10120c00fd030700680047008040eb005b0307000c
:10121c000e489000404f98006700470011c0b30083
:10122c00560307007e409000504f98006600470020
:10123c0061c0b300510307006e409000604f9800ee
:10124c006500470071c0b3004c0307005e4090007e
:10125c00704f98007e0090000000e8007007980026
:10126c006e489000804078000040eb00be03070001
:10127c007e4890008040780010c0b300ba0307008d
:10128c0070004700810020002e0207000040eb0098
:10129c00204798003200370064004700c1c1b300fa
:1012ac00360307004e409000624060000004e000ee
:1012bc002e0032009e08900000002200008060008a
:1012cc000000e0002900320001c8b300f0c1b300f7
:1012dc00ee03070001c8b300f0c1b300c60307005a
:1012ec00a1c0b300c0c1b300c303070081c0b300e9
:1012fc00f0c1b300e50307000000000063004700e5
:10130c00c1c1b3001d0307003e4090000080fb00ec
:10131c006a0060000000e000f8ff320081c0b300fa
:10132c00f0c1b300b40307006e4890008040780011
:10133c000040eb008c0307007e4890008040780052
:10134c0010c0b30088030700700047008100200024
:10135c00fc0107002e4090000040e8002047980058
:10136c002e409000ef4f5000cbff36004e489000bf
:10137c00804078000040eb007b0307005e48900043
:10138c008040780010c0b300770307000080fa009b
:10139c00000006000400fa001007980011408000bd
:1013ac001e0090000080400074004000000f780088
:1013bc009e00780090a02100808f50000400360021
:1013cc009e007800605f2e0000804000000f7800c7
:1013dc001e407800804078000040eb00620307005c
:1013ec001e4090008040780010c0b3005e030700e0
:1013fc000080fa00000006000600fa0020079800a2
:10140c000e00e80021c0b300dc0207001e40900073
:10141c002047980031c0b3000e007800d7020700b7
:10142c001e40780030479800640047001040780058
:10143c008040780020c0b3004b03070064004700d5
:10144c00104090008040780030c0b3004603070085
:10145c001e0090000080fa00000006000600fa0052
:10146c00200798000e00e8008040eb00c302070044
:10147c001e4090002047980011c0b3000e00780069
:10148c00be0207001e4078003047980064004700f9
:10149c0010407800804078000040eb0032030700d9
:1014ac0064004700104090008040780010c0b300ea
:1014bc002d0307001e0090000080fa0000000600bb
:1014cc000a00fa003007980041079800114080008c
:1014dc003e0090000080400074004000100798000f
:1014ec009e00900090a02100808f500004003600d8
:1014fc009e009000605f2e00008040001007980056
:10150c000e00e8008040eb009c0207001e4090009b
:10151c004047980011c0b3000e00780097020700f6
:10152c001e407800504798002e4090008040780074
:10153c000040eb000c0307003e4090008040780018
:10154c0010c0b300080307004e0090000c00070009
:10155c00100798004e409000804078000040eb004f
:10156c00010307005e4090008040780010c0b3007b
:10157c00fd0207001e0090000080fa00000006002b
:10158c002200fa00001798006000b800300798009d
:10159c0041079800630047008040eb00770207008a
:1015ac003e409000404798000e80e80011c0b30008
:1015bc00720207002e409000504798002b00370015
:1015cc000e109000f40f5000010036004001200076
:1015dc0050079800de0090006c004700590107008e
:1015ec005e0090008e109000008050000017980054
:1015fc006a00470010007800610060000000e00005
:10160c0008003200ec0047005e00900000804000b3
:10161c008040eb00014878005e0090000000e8007c
:10162c00500798006c0f47000d0037003e019000ea
:10163c00ce0190001e007800100078008000eb00b6
:10164c000200400083804800300798004107980052
:10165c001e8fe8005e0090000080e90050079800a3
:10166c005e0090000000e000f0ff3a000e109000c9
:10167c000000e000d2ff3a004e409000804078001d
:10168c000040eb00b80207005e40900080407800fc
:10169c0010c0b300b40207003e0090006101b80016
:1016ac004e0090008000eb00020040008380480058
:1016bc003007980041079800be0090004e00900043
:1016cc0000804000300798003e0090000080ea0047
:1016dc000080fa00000006001800fa00881f78004d
:1016ec00100f9800210f9800320f98000000eb00ab
:1016fc00700798000000eb00000f98000000eb0052
:10170c00000f78000000eb00100798001e089000f6
:10171c00e10f40000f003a0010002000000f78008d
:10172c006c00470021c0b300140207004e48900023
:10173c000080fb00100f9800720047000004e800c6
:10174c006b00470031c0b3000c0207003e4890000c
:10175c00004c78002e089000e10f40000f003a007a
:10176c0010002000100798006a0047008040eb0032
:10177c00020207002e4890000080fb00200f98000a
:10178c00740047000004e8006900470011c0b30072
:10179c00fa0107001e489000004c78003e089000ab
:1017ac00e10f500055003e001e0090000000e000cc
:1017bc000a003a00680047008040eb00ef01070088
:1017cc000e489000604f98006700470011c0b300ae
:1017dc00ea0107007e409000704f98001e007800d0
:1017ec000000e0000a003a006600470021c0b30088
:1017fc00e20107006e40900000579800650047001a
:10180c0031c0b300dd0107005e4090001057980016
:10181c007400470010407800804078000040eb00d6
:10182c0051020700740047000000e80010407800e7
:10183c008040780010c0b3004b02070072004700d4
:10184c00104078008040780020c0b30046020700aa
:10185c00720047000000e8001040780080407800db
:10186c0030c0b30040020700020037009d000700a3
:10187c00200107003e0890008000780001f0a700ce
:10188c008100ea008100ea00cf08de008140780088
:10189c000000e900300f98000104e000f3ff3a006b
:1018ac001e0090000000e00008003a006e48900016
:1018bc00804078000040eb002b0207007e4890002f
:1018cc008040780010c0b300270207001e0078008b
:1018dc000000e00075003a000e5090008040780047
:1018ec0020c0b300200207001e50900080407800fa
:1018fc0030c0b3001c0207006c0037001e007800db
:10190c000000e0000c0032009e0890003e089000a1
:10191c0000804000000f98000e509000804078002e
:10192c0020c0b300100207001e50900080407800c9
:10193c0030c0b3000c020700ae0890003e089000c7
:10194c00008040000000e900300f9800000000000b
:10195c0064004700f1c1b300880107004e409000bd
:10196c000042b2000004e000f9ff3a0074004700a6
:10197c00104078008040780000c1b300fa010700e5
:10198c00740047000000e8001040780080407800a8
:10199c0010c1b300f401070072004700104078003a
:1019ac008040780040c1b300ef010700720047008f
:1019bc000000e800104078008040780050c1b3006f
:1019cc00e9010700ae08900090a02100808f500024
:1019dc0008003e00be08900090a02100808f5000af
:1019ec0004003600be089000605f2e0000804000ae
:1019fc00300f980076004700104078008040780047
:101a0c0020c1b300d8010700760047000000e800b1
:101a1c00104078008040780030c1b300d20107003c
:101a2c0001c1b300f0c1b300f301070001c2b30060
:101a3c00f0c1b300150207001e0090000000e0008a
:101a4c001a0032003e0890000000e800300f9800a9
:101a5c00ae08900090a02100808f500008003e003e
:101a6c00be08900090a02100808f5000040036002a
:101a7c00be089000605f2e0000804000300f980080
:101a8c007600470010407800804078000040eb0062
:101a9c00b5010700760047000000e8001040780010
:101aac008040780010c0b300af0107004f047800ed
:101abc000080fa00000006000200fa00f1c1b30039
:101acc000e0078002d0107001e4078000042b20085
:101adc000080fb000000e9004f00de000080fa00ef
:101aec00000006000200fa00ddc2a90041e2a900d4
:101afc004342a80041e2a80000a023004012880045
:101b0c0000128000620060000000e000fcff3a0060
:101b1c0000128000610060000000e000f8ff32005d
:101b2c0041e2a9004342a90041e2a8004012800012
:101b3c00004f7800ddc2a8001e4078000080fa003b
:101b4c00000006000a00fa003007980041079800d0
:101b5c00ddc2a900a0032000401288000000eb00a9
:101b6c00000f78003e0090000000e00003003200ff
:101b7c003e0090000000e900300798000012800041
:101b8c00620060000000e000fcff3a0000128000e0
:101b9c00610060000000e000f8ff3200401280009d
:101bac0000407800204798004e009000e10f500054
:101bbc004800360041e2a9004342a80041e2a800d7
:101bcc0001003700000000004822ef001e8fe800e3
:101bdc0000128000620060000000e000fcff3a0090
:101bec0000128000610060000000e000f8ff32008d
:101bfc0040128000200798003e0090000000e0009a
:101c0c000c0032003e0090000000e8003007980005
:101c1c00de4090003e009000014878003e009000ad
:101c2c000000e80030079800ce4090003e00900085
:101c3c00014878004e0090001e005000e10f50004b
:101c4c00e0ff3e0041e2a9004342a90041e2a800a6
:101c5c00200037004822ef001e0fe8003e009000e5
:101c6c000000e000100032003e0090000000e80090
:101c7c003007980000128000620060000000e00055
:101c8c00fcff3a0000128000610060000000e000e0
:101c9c00f8ff320040128000804078003e00900037
:101cac00014878000b0037000012800062006000d1
:101cbc000000e000fcff3a000012800061006000b0
:101ccc000000e000f8ff3200401280000040780075
:101cdc00204798004e0090009e007800808f5000a6
:101cec00dcff3900ddc2a8001e0078000080fa007d
:101cfc00000006000400fa0020479800ddc2a9008d
:101d0c0041e2a9004342a80041e2a8002e40900005
:101d1c008080fb0000a027000100700040128800aa
:101d2c0000128000620060000000e000fcff3a003e
:101d3c0000128000610060000000e000f8ff32003b
:101d4c0041e2a9004342a90041e2a80040128000f0
:101d5c0000407800004f7800ddc2a8000080fa0037
:101d6c00000006000800fa002007980031079800d0
:101d7c00ddc2a900a00720004012880000128000dc
:101d8c00620060000000e000fcff3a0000128000de
:101d9c00610060000000e000f8ff3200401280009b
:101dac0000407800004f78003e009000e10f50009a
:101dbc00530036002e0090001040780030479800f9
:101dcc002e0090000000e800200798002e009000e4
:101ddc0010407800204798002e0090000000e8008a
:101dec002007980041e2a9004342a80041e2a80064
:101dfc001e009000401288003e0090000080e90018
:101e0c00300798003e009000e10f50000f003e009c
:101e1c0000128000620060000000e000fcff3a004d
:101e2c0000128000610060000000e000f8ff32004a
:101e3c004012800000407800004f780041e2a90079
:101e4c004342a90041e2a8002d0037002e0090006b
:101e5c0010407800304798002e0090000000e800f9
:101e6c00200798002e009000104078002047980022
:101e7c002e0090000000e80020079800001280005f
:101e8c00620060000000e000fcff3a0000128000dd
:101e9c00610060000000e000f8ff3200401280009a
:101eac0000407800004f7800d1ff37002e009000e2
:101ebc00104078000080fb00401288002e0090003b
:101ecc000000e800200798003e0090000000e900a8
:101edc003007980000128000620060000000e000f3
:101eec00fcff3a0000128000610060000000e0007e
:101efc00f8ff32004012800000407800004f78005c
:101f0c003e0090000000e000e8ff3a00ddc2a800af
:101f1c000080fa00000006000200fa0001c2b300c3
:101f2c00e0c1b300b4000700100020006c090700ea
:101f3c00ddc2a900f00f20004012880000128000c2
:101f4c00620060000000e000fcff3a00001280001c
:101f5c00610060000000e000f8ff320040128000d9
:101f6c0000407800004f7800ddc2a800100020006f
:101f7c005b0907000080fa00000006000400fa006c
:101f8c0021479800ddc2a900ae4090008180fb0083
:101f9c004112880001128000e28060000100e00024
:101fac00fcff3a0001128000e18060000100e000bb
:101fbc00f8ff32004112800081407800014f780018
:101fcc004822ef0001128000e28060000100e00076
:101fdc00fcff3a0001128000e18060000100e0008b
:101fec00f8ff32004112800081407800014f7800e8
:101ffc00ddc2a8001e4878000080fa000000060030
:10200c000400fa0021479800ddc2a900ae40900000
:10201c008180fb004112880001128000e280600088
:10202c000100e000fcff3a0001128000e18060003a
:10203c000100e000f8ff320041128000814078007e
:10204c00014f78004822ef0001128000e28060000e
:10205c000100e000fcff3a0001128000e18060000a
:10206c000100e000f8ff320041128000814078004e
:10207c00014f78004822ef0001128000e2806000de
:10208c000100e000fcff3a0001128000e1806000da
:10209c000100e000f8ff320041128000814078001e
:1020ac00014f7800ddc2a8001e4878000080fa00bd
:1020bc00000006000800fa00881f78000004780071
:1020cc006147980040212000b5000700ee409000c9
:1020dc0040c1b3002400070011c0b30020c1b300fd
:1020ec0021000700a0302000ad0007000000000018
:1020fc000e80e800a1c0b300c1ff07002e40900085
:10210c00614060000004e000f9ff3a00402120002b
:10211c00a30007008040eb0020c1b30012000700b1
:10212c000e00e80081c1b300b5ff07001e4090000f
:10213c004047980091c1b3000e007800b0ff070033
:10214c001e407800504798000000eb0094000700f8
:10215c00ae009000010c7800080078004f04780065
:10216c000080fa00000006000400fa0020479800e6
:10217c0031479800ddc2a9002e4090000064a000f9
:10218c000080fb004012880000128000620060009a
:10219c000000e000fcff3a000012800061006000cb
:1021ac000000e000f8ff3200401280000040780090
:1021bc00004f78003e4090000080fb0040128800e9
:1021cc0000128000620060000000e000fcff3a009a
:1021dc0000128000610060000000e000f8ff320097
:1021ec004012800000407800004f7800ddc2a8004b
:1021fc000080fa00000006000400fa002047980056
:10220c0031479800ddc2a900ae40900000cab3006f
:10221c0000c070000080fb0040128800001280009b
:10222c00620060000000e000fcff3a000012800039
:10223c00610060000000e000f8ff320040128000f6
:10224c0000407800004f78003e4090000080fb007a
:10225c004012880000128000620060000000e00064
:10226c00fcff3a0000128000610060000000e000fa
:10227c00f8ff32004012800000407800004f7800d8
:10228c00ddc2a8000080fa00000006000400fa007d
:10229c002047980031479800ddc2a900ae4090005d
:1022ac0000c8b30000c070000080fb004012880022
:1022bc0000128000620060000000e000fcff3a00a9
:1022cc0000128000610060000000e000f8ff3200a6
:1022dc004012800000407800004f78003e40900093
:1022ec000080fb0040128800001280006200600039
:1022fc000000e000fcff3a0000128000610060006a
:10230c000000e000f8ff320040128000004078002e
:10231c00004f7800ddc2a8000080fa000000060023
:10232c000600fa0020479800210798004021200061
:10233c001b000700ae40900040c1b3008aff0700ad
:10234c0064004700104078008040780060c1b30002
:10235c0085ff070064004700104090008040780023
:10236c0070c1b30080ff0700a03020000c000700f4
:10237c0000000000a1c0b3000e00780020ff070091
:10238c001e407800614060000004e000f9ff3a0054
:10239c000000eb00020007000080fa0000000600bd
:1023ac000200fa00000f780031c0b300f0c1b30096
:1023bc0091ff07000e0078001040900080407800dc
:1023cc00f0c1b300b1ff07000080fa000000060066
:1023dc000200fa0041c0b300f0c1b30086ff070051
:1023ec00000000000e00e800d1c1b300e3fe0700be
:1023fc001e409000644060000004e000f9ff3a00c9
:10240c0000000000f1c1b3000e007800dbfe0700f5
:10241c001e407800684060000004e000f9ff3a00bc
:10242c0001c2b300e0c1b30098ff07000080fa00be
:10243c00000006000200fa0001c2b300e0c1b300c4
:10244c006dff070000000000d1c1b3000e00780042
:10245c00cafe07001e407800614060000004e000e6
:10246c00f9ff320041c0b300f0c1b30087ff070091
:10247c000080fa00000006000200fa00004f78000d
:10248c0050312000c6ff07009e40780050c1b300b9
:10249c0035ff07000000eb00c1ff07000080fa00c9
:1024ac00000006000200fa0050312000bcff0700bb
:1024bc000e00e80051c1b300b0fe07009e40900032
:1024cc00014f78000000eb00b5ff07001e407800bc
:1024dc000080fa00000006000a00fa00300798009d
:1024ec00410798004240800053408000120798003a
:1024fc00230798003e009000ce009000e00f5000a3
:10250c00e08f580004003a00100020000100200069
:10251c0030079800410798003e019000ce019000d2
:10252c0042408800534088000040eb00004f780088
:10253c0002003700080007001e4fe8001e4078001c
:10254c00ef4f5000fbff36001e009000ae009000d5
:10255c000080fa00000006000200fa000040eb00c8
:10256c00004f78002b003700404080005140800025
:10257c008102d1000082d300424080005340800091
:10258c0010002000010020000203780003017800f5
:10259c0080017800010078000303630000006100f3
:1025ac008000eb00c000dd00000020000001be0038
:1025bc006130b8000001710081817100600111006f
:1025cc00e08119001000200001002d0002037800aa
:1025dc000301780080017800010078000303630098
:1025ec00000061008000eb00c000dd000000200056
:1025fc000001be006130b8000001710081817100e2
:10260c0002006a0083806a004040880051408800c4
:10261c001e4fe8001e407800ee4f5000d2ff3600ef
:10262c004040800051408000000078000080fa009b
:10263c00000006001a00fa00881f780001198000bb
:10264c00410798001119800051079800211980004a
:10265c00610798002108800071079800110880001c
:10266c00010f98002023ef0000f0290020198800aa
:10267c00f003200010198800400e28000019880073
:10268c0000002800200888000080eb00100888005b
:10269c000040eb00004f78006000b8002007980065
:1026ac00310798000000eb0010079800aaff070004
:1026bc008000eb00300f9800410f980001003700ac
:1026cc00000000000060fe000000000021048000fb
:1026dc0000002200008060000000e000fbff3200e0
:1026ec0001088000110f98000021ef0085a0a900bf
:1026fc0099ff0700200f98001e0890008000eb0047
:10270c002e019000be019000020040008380480022
:10271c0020079800310798002e019000be01900010
:10272c00f03f2200410f2000800f5100818f590093
:10273c00090036003e0c900087ff070000006c007b
:10274c00300f98004e0c900083ff070000006c00c7
:10275c00400f9800220037009e0090001e08900049
:10276c00808f500002003a0000000000d5ff3700b7
:10277c009e0090001e089000808050002e08900053
:10278c00008040008000eb0053ff07009e08900083
:10279c00110798003e089000ce0890000000400001
:1027ac0081804800300f9800410f98006aff0700a5
:1027bc0001082000010060000000e000030032006e
:1027cc003e0890000000a000300f98001e4fe8005b
:1027dc001e4078000004e000b9ff3a000000000041
:1027ec002023ef00ee00900021198800de009000fd
:1027fc0011198800ce00900001198800fe0090008d
:10280c00210888008e089000110888003e0890006e
:10281c00ce0890004f0478000080fa0000000600fb
:10282c000c00fa0040079800510798000040eb009c
:10283c00004f78000040eb00104798006000b80093
:10284c002007980031079800700037001e40900058
:10285c00e34f50007b003e00ae40900000cdb30033
:10286c0000c04000204798001e4078000004e000a3
:10287c0005003a002e409000e94f500058003600f9
:10288c000000eb00a20037001e407800e34f500020
:10289c0028003a002e409000e24f40000200320027
:1028ac000000eb009a0037002e019000be01900052
:1028bc005050200021002000800f5100818f5900c2
:1028cc00020036000000eb00910037001e40900023
:1028dc000081fb00ee409000400620000088b9000b
:1028ec0000007800804178005e4090006a00b900da
:1028fc00000078000040780080c041004e409000fd
:10290c0080c040005e00900002004000014878004a
:10291c001e4090000040e800104798000040eb007b
:10292c00004f78006000b80020079800310798002d
:10293c00360037002e409000e24f400023003a0052
:10294c002e019000be01900050502000210020006c
:10295c00800f5100818f5900020036000000eb00ff
:10296c006b0037001e4090000081fb00ee40900091
:10297c00400620000088b9000000780080417800f3
:10298c005e4090006a00b9000000780000407800ba
:10299c0080c041004e40900080c040005e0090001e
:1029ac0002004000014878001e4090000040e80002
:1029bc00104798000040eb00004f78006000b80012
:1029cc002007980031079800100037002e40900027
:1029dc00e94f5000020036000000eb004c003700bd
:1029ec001e4fe8002e019000be0190004818dd003b
:1029fc00c810de00810070004810dd002007980030
:102a0c0031079800ae409000414798004e0090006e
:102a1c0090407800214798002e4090000080fb00e9
:102a2c000000ea004f00de0000407800ce0090006d
:102a3c008100e800410798000004e00083ff3a00a1
:102a4c0001003700000000002e4090000004e00060
:102a5c0017003200ae409000f0c2b30080cf50009f
:102a6c00130032002e409000ed4f50001000320049
:102a7c002e409000ea4f50000d003200ae40900006
:102a8c0000c2b30080cf5000090032002e409000ed
:102a9c00e94f500006003200ae409000a0c3b300d6
:102aac0080cf5000020032000000eb00180037000d
:102abc002e019000be0190005050200021002000fb
:102acc00800f5100818f5900020036000000eb008e
:102adc000f003700ee409000400620000088b9003f
:102aec0000007800004178005e4090006a00b90058
:102afc000000780000407800804041004e4090007b
:102b0c0080c040005e009000314098001000200012
:102b1c000080fa00000006000c00fa004007980044
:102b2c00510798000000eb00200798004e00900021
:102b3c000000e0002d0032000040eb00004f780058
:102b4c00007122001007980024003700ce0090007e
:102b5c001e00900000017800110009008280d8004e
:102b6c00300798003e0090000000e00003003a009f
:102b7c002e0090000000e000120032003e00900099
:102b8c000040780002c3b300824040005e00900019
:102b9c00014878005e0090000000e80050079800a3
:102bac00be0090001e0090000088b9000000780064
:102bbc00ce009000008050004007980010002000cc
:102bcc00200798009e009000d0cc2c000008b80084
:102bdc004308de00100798001e4fe8001e407800e6
:102bec00e44f5000d9ff3600060037005e0090001d
:102bfc0001c3b300014878005e0090000000e800bb
:102c0c00500798005e0090008040eb00014878006f
:102c1c000080fa00000006001200fa00600798001d
:102c2c0071079800020f98000000eb003007980025
:102c3c006e009000fe009000e00f5000e08f5800f6
:102c4c00410032000040eb00004f780000a02c0047
:102c5c00a1b923001007980021079800360037000f
:102c6c001e019000ae0190006e009000fe009000de
:102c7c0053f6070040079800510798004e0090004b
:102c8c00de009000e00f5000e08f580003003a0087
:102c9c003e0090000000e0001f0032004e0090004b
:102cac000040780002c3b300824040000e08900040
:102cbc00014878000e0890000000e800000f980012
:102ccc00de0090001e0090000088b9000001780022
:102cdc00ae0090004e0090000088b9000000780013
:102cec0000014100ce0090001e0090000008b800ca
:102cfc0001014100820078006e019000fe019000fd
:102d0c0000005100818059006007980071079800fd
:102d1c0010002000300798001e009000ae009000bc
:102d2c00a20020000300200025f6070010079800e1
:102d3c00210798001e4fe8001e407800e94f500014
:102d4c00c7ff3600060037000e08900001c3b30021
:102d5c00014878000e0890000000e800000f980071
:102d6c000e0890008040eb00014878000080fa00cb
:102d7c00000006000200fa00000f78009e40900050
:102d8c0060c4b30080cf5000040036009e40900019
:102d9c0000ceb30000c04000104798009e40780061
:102dac0060c4b30080cf5000040036009e40780011
:102dbc0000ceb30000c04000004f78009e40900051
:102dcc0090c3b30080cf5000050036009e409000a9
:102ddc0090ccb30000c040001047980004003700ae
:102dec009e40900000cdb30000c0400010479800fa
:102dfc009e40780090c3b30080cf50000500360091
:102e0c009e40780090ccb30000c04000004f78008a
:102e1c00040037009e40780000cdb30000c0400095
:102e2c00004f78001e4090000080fb004400dd0045
:102e3c00804078001e40780000c070000080fa00ce
:102e4c00000006000200fa00004f78001e80fb0014
:102e5c004400de00004f78001e407800e94f50001f
:102e6c000300360071c3b3001ec0400002003700df
:102e7c0001c3b3001ec040000080fa000000060031
:102e8c000200fa00004f78009e4078006fcf60007f
:102e9c001e407800e94f50000300360071c3b300a8
:102eac001ec040000200370001c3b3001ec040002a
:102ebc000080fa00000006000600fa0010079800d7
:102ecc00210798001e009000104f78002e009000f3
:102edc0090407800114798002d00370000c6b300d1
:102eec009e40780080cf500006003600a0c7b3008b
:102efc009e40780080cf500002003e0000ceb30010
:102f0c001e4f40009e40900000c6b30080cf500082
:102f1c00080036009e409000a0c7b30080cf500040
:102f2c0004003e009e40900000ceb30000c0400064
:102f3c00104798001e4090009e40780080cf5000b3
:102f4c000200360010c0b300240037001e40900071
:102f5c009e40780080cf50000200310000c0eb0092
:102f6c001e0037001e0090000000e80010079800bb
:102f7c002e0090000000e800200798001e00900032
:102f8c00104f78002e009000904078001147980068
:102f9c001e4078000004e000030032001e40900048
:102fac000004e000cdff3a001e4090009e407800e7
:102fbc0080cf50000200360010c0b300070037006d
:102fcc001e4090009e40780080cf500002003100df
:102fdc0000c0eb00010037000040eb000080fa005d
:102fec00000006000600fa0020079800ae009000d2
:102ffc0011079800be409000014f78002e409000c1
:10300c00304798009e407800214798001e009000a1
:10301c000080fa00000006000400fa00008fbe00d9
:10302c000e0078008e007800114178008e00780038
:10303c00b140900081406900014878000e00780092
:10304c008e007800314190008e007800914078001d
:10305c0081406900314098000e0078008e007800a5
:10306c00114178008e007800b140900081406900d9
:10307c00014878000e0078008e0078001141900015
:10308c008e007800a14090008140690011409800aa
:10309c000e0078008e007800214190008e007800a0
:1030ac009140900081406900214098000e0078000a
:1030bc008e007800114190008e007800a1409000a5
:1030cc0081406900114098001e00be000080fa008b
:1030dc00000006000c00fa00400798005107980009
:1030ec005e0090000000d100000f7800ce00900030
:1030fc00110798006000b80020079800310798006d
:10310c000c0037002e019000be0190001e009000b4
:10311c00100078008000eb00020040008380480023
:10312c0020079800310798001e0090000080e800ee
:10313c00100798001e00780000f0a7000000ea00bd
:10314c000000ea004f00de00004078001e0fe9008e
:10315c000004e000ebff3a005e00900061006000ac
:10316c00004078000004e0000a0032002e019000bc
:10317c00be0190001e009000104078000080fb0003
:10318c008000eb000200400083804800200798007c
:10319c00310798002e0090006101b8003e009000ad
:1031ac008000eb000200400083804800200798005c
:1031bc0031079800ae0090003e0090000080400067
:1031cc00200798002e0090000080ea000080fa0092
:1031dc00000006000600fa0020079800ae009000e0
:1031ec00010f780011003700ae40900000c6b3000c
:1031fc0080cf50000c003400ae409000a0c7b3004c
:10320c0080cf500008003c001e0078001040780071
:10321c008040780000ceb30000c0400080407800b1
:10322c001e007800014878001e0fe8001e00780090
:10323c0090407800214798002e4090000004e00058
:10324c00e9ff3a002e0090000080fa000000060012
:10325c000400fa00100798001e0090006f00400058
:10326c008040eb00014878001e009000d9ff070059
:10327c000040eb00004f7800120037001e80fb006e
:10328c009e00900000804000104078000004e00098
:10329c000b003a00060037001e80fb009e009000d9
:1032ac000080400001c2b300014878001e4fe800c6
:1032bc001e407800ee4f5000f7ff36000400370038
:1032cc001e4fe8001e407800ee4f5000ebff36001a
:1032dc000080fa00000006000800fa0010079800b1
:1032ec002107980062479800130037001e009000d9
:1032fc00104f78001e0090000000e80010079800a6
:10330c001e4078000004e00002003a000000eb00d0
:10331c00150037006e4090009e40780080cf500022
:10332c0005003a001e0090000000e900100798000c
:10333c001e0090000c0037002e00900000f0a7003b
:10334c000000ea000000ea004f00de0000407800b8
:10335c00ae0090008100e900210798000004e00015
:10336c00e2ff3a000000eb000080fa0000000600cb
:10337c000c00fa0040079800510798004e0090008e
:10338c008040eb00014878005e0090000000e900ee
:10339c00ce00900000804000200798002e00900086
:1033ac008040eb00014878000000eb00100798000b
:1033bc0068005700000f7800190037002e009000ad
:1033cc00104078000004e00003003200de009000a2
:1033dc00110798001d0037001e8fe9001e007800b1
:1033ec009000780031079800de0090001e009000dd
:1033fc00808050004e0190001e00900000004100a3
:10340c0001017800be00900093f507003e0090008b
:10341c008bf507009e00900000804000100798007c
:10342c004eb8970000f0a7000000ea000000ea0088
:10343c004f00de0000407800ceb897008100e90014
:10344c0041bf9f000004e000dcff3a001e0090002a
:10345c000080fa00000006002600fa00600f9800b9
:10346c00710f980002179800131798004467980082
:10347c004e6090000080fb003007980000c0eb000d
:10348c002057980000c0eb003057980000c0eb00ac
:10349c004057980000c0eb005057980000c0eb005c
:1034ac006057980000c0eb00705798000e11900008
:1034bc009e119000420f9800530f98006e099000d7
:1034cc00fe09900072079800030f98000e00780018
:1034dc00020007000080fa00000006000200fa005b
:1034ec00000f78000000000027f607000000e00045
:1034fc00fdff3200b0a02100bff707001e007800ce
:10350c0011002000010878001e00780001802000c6
:10351c00110098001e00780061c0b3004140980073
:10352c001e00780041c0b300514098009e00780006
:10353c0068804000620020007184200032f5070092
:10354c001e017800a38120009381fb00b481200030
:10355c001482fb004822dd00848171000300780096
:10356c00c38120009381fb00d48120001482fb00d6
:10357c004822dd008481710083007800700198007e
:10358c00010998001e007800370107009e007800a2
:10359c0072804000c201200061c0b300bff607007a
:1035ac001e007800c1012000eef90700e4f60700c8
:1035bc00100020000080fa00000006000000fa0055
:1035cc00a085200080c0eb0001487800b085200069
:1035dc0080c0eb0001487800c085200080c0eb0063
:1035ec0001487800d085200080c0eb0001487800ad
:1035fc00e085200080c0eb0001487800f0852000b9
:10360c0080c0eb00014878000080eb008080eb006c
:10361c00b0428800c14288000080fa000000060019
:10362c001c00fa00c04080000000e00003003200e3
:10363c00e10f500045003200580037000e007800b2
:10364c00c10120003ff90700daf507000e007800f1
:10365c00050107001e007800e10f500006003a003b
:10366c004e409000e64f500003003a005e40900040
:10367c00e44f5000020032001000200048003700d8
:10368c003e009000e20f50000c003a004e019000fa
:10369c00de019000d2428800e3428800ee019000e7
:1036ac00f34288007e0190008e099000b24288009f
:1036bc00c342880010002000390037003e00900003
:1036cc00e10f500021003a004e099000de099000f5
:1036dc00a48120001482fb00b58120009582fb00a0
:1036ec00c82add000502720004007800c4812000a5
:1036fc001482fb00d58120009582fb00c82add00d6
:10370c000502720084007800800f5100818f5900ef
:10371c000200320010002000210037007e019000d2
:10372c008e09900002438800134388004e019000dc
:10373c00de0190002243880033438800ee019000a4
:10374c004343880010002000c04088002000200067
:10375c00300798002243800033438000120f9800fa
:10376c00230f980043438000330f980000438000e0
:10377c0011438000400f9800510f98000e00780004
:10378c0056ff07000000e00002003a000000eb00ca
:10379c00030037001828ef00000000001000200084
:1037ac000080fa00000006001e00fa00600f98006e
:1037bc00100020003007980000c0eb002057980044
:1037cc0000c0eb003057980000c0eb004057980049
:1037dc0000c0eb005057980000c0eb0060579800f9
:1037ec0000c0eb0070579800a28120001281fb00f2
:1037fc00b38120009381fb00c819dd000301710027
:10380c0002007800c28120001281fb00d3812000cd
:10381c009381fb00c819dd00030171008200780060
:10382c006e0990001201be000201680083816800dd
:10383c00e48120001482fb00f58120009582fb00be
:10384c00c82add0005027200040078000482200002
:10385c001482fb00158220009582fb00c82add0033
:10386c0005027200840078000202780003017800df
:10387c008001780001007800030262000000610002
:10388c008000eb00c000dd00000020000001be0045
:10389c006120b8000001710081817100e00f5100be
:1038ac00e08f590011003200228220001281fb00af
:1038bc00338220009381fb00c819dd0003017100e5
:1038cc0002007800428220001281fb00538220000b
:1038dc009381fb00c819dd000301710082007800a0
:1038ec00400f9800510f9800040037006e089000ac
:1038fc001001be00420f9800530f98000e00780084
:10390c00f6fe07000080fa00000006000400fa0032
:10391c00000f780011079800b0428000c14280006f
:10392c001e0178001201be00820f5000838f5800d8
:10393c0043003200b2428000c34280002482200047
:10394c001482fb00358220009582fb00c82add0022
:10395c000502720004007800448220001482fb00ef
:10396c00558220009582fb00c82add0005027200fa
:10397c0084007800800f5100818f590037003a0085
:10398c00a28120001281fb00b38120009381fb00f7
:10399c00c819dd000301710002007800c28120000b
:1039ac001281fb00d38120009381fb00c819dd003c
:1039bc0003017100820078001e0178001201be0024
:1039cc000201680083816800e48120001482fb00fe
:1039dc00f58120009582fb00c82add0005027200eb
:1039ec0004007800048220001482fb001582200061
:1039fc009582fb00c82add00050272008400780065
:103a0c000202780003017800800178000100780040
:103a1c0003026200000061008000eb00c000dd00ca
:103a2c00000020000001be006120b8000001710000
:103a3c0081817100e00f5100e08f590007003200c6
:103a4c001e009000a1852000050009003158780067
:103a5c006000b10010002000010037000000eb00f6
:103a6c000080fa00000006000200fa00000f780047
:103a7c001e007800100078005afd07009e007800a8
:103a8c00800878001e0078001000900055fd07009b
:103a9c009e007800900098001e0078003000900086
:103aac0050fd07009e007800b00098000080fa00de
:103abc00000006001e00fa00300f9800410f98001d
:103acc00520f9800630f98000e80e800410120000f
:103adc001cf807002e4090008080fb00000f200097
:103aec008080600000042000808f500002003200b3
:103afc000000eb0046003700ce009000f0f12f00e4
:103b0c00008060000000e000020032000000eb00ca
:103b1c003f0037002e409000ef4060002000200056
:103b2c000008dd000ee8b7000ec8bf000080fb00e7
:103b3c00800078000000eb0061f60700000f7800b1
:103b4c000ec8bf000080fb0012f607001e007800b4
:103b5c000000e000020032000000eb002c003700f7
:103b6c000e80e800810007003e0890000000e00095
:103b7c00040032001e089000ae0890003e09900030
:103b8c000089be007e0190008e0990004e089000c6
:103b9c00f10f200081006100104278006042620049
:103bac008140720001487800c810de00104290007d
:103bbc00604262008140720011409800f10f2000b9
:103bcc00818061002042900060426200814072005e
:103bdc0021409800c818de0030419000604161001f
:103bec008140710031409800be4890005e08900002
:103bfc0001487800ae0090000ec8bf000080fb00aa
:103c0c00808050006e0890000108780010002000a1
:103c1c000080fa00000006001a00fa00200f98003d
:103c2c0061579800420f980040c1b3000ee8b700ee
:103c3c0050c4b300004f78000040eb0010479800d0
:103c4c004e089000740040001007980060408000ff
:103c5c000000e80060408800604080002007980069
:103c6c000000eb003007980040c6b300004f9800ee
:103c7c00ee509000114f98000000eb005007980098
:103c8c00a28120001281fb00b38120009381fb00f4
:103c9c00c819dd000301710002007800c281200008
:103cac001281fb00d38120009381fb00c819dd0039
:103cbc00030171008200780060079800710798007a
:103ccc002e0990009281fb00124290000482fb00ae
:103cdc004822dd008481710003007800a24190002d
:103cec008381fb00324190000281fb004811dd0012
:103cfc000281710082007800000f9800110f98006b
:103d0c000e00780019000700410120000e00780019
:103d1c00f0fc0700500798004e089000f40040009b
:103d2c002e08900064004000010178008040eb00f8
:103d3c00daf40700410120000e00780009f80700b2
:103d4c000000eb000080fa00000006000200fa0000
:103d5c00000f78000ec8bf000080fb001e00400062
:103d6c008cf507000080fa00000006000200fa0043
:103d7c00000f78001e0078001000900099fc0700de
:103d8c009e007800900098001e00780020009000a3
:103d9c0094fc07009e007800a00098001e0078009c
:103dac00500090008ffc07009e007800d000980017
:103dbc000080fa00000006000600fa0010079800c8
:103dcc00414798000040eb00004f78001600370088
:103ddc001e0090008040eb000148780000000000bd
:103dec007d0007000004e000fdff32008b0007009f
:103dfc00104798001e409000ed4f50001400320008
:103e0c001e409000ea4f5000110032001e4fe80097
:103e1c001e0090009e409000014878001e0090000b
:103e2c000000e800100798004e4090000080fb0056
:103e3c000000ea004f00de0000407800ce40900009
:103e4c008140e900414798000004e000e0ff3a009f
:103e5c001e4078000080fa00000006000400fa0002
:103e6c00100798009e009000010f780080118000d0
:103e7c0066006000e60f50001e003a000c00370090
:103e8c0000000000911180000020200000806000e4
:103e9c000000e000fbff3a001e00900010007800cc
:103eac00a01188001e0090000080e8001007980008
:103ebc001e009000100078000000e000f0ff3a00b7
:103ecc00110037000000000091118000002020003c
:103edc00008060000000e000fbff3a001e0078004c
:103eec00104078000000fb00a01188001e0fe800b5
:103efc0001003700000000001e0078001040780020
:103f0c000004e000efff3a000080fa000000060019
:103f1c000a00fa0020079800310798004207980021
:103f2c000000eb00000f7800be0090001107980015
:103f3c00230037004e0090009e007800808f5000c8
:103f4c00020031001e0fe800030037002e00900025
:103f5c001f003700000000001f0007000004e000f5
:103f6c00f4ff32000000eb00000f7800801180009d
:103f7c0066006000e60f500007003a00b1118000a7
:103f8c003e009000010878003e0090000080e800a0
:103f9c003007980007003700b0118000804078008f
:103fac001e009000014878001e0090000000e80000
:103fbc00100798002e0090000000e90020079800e0
:103fcc002e0090000000e000e2ff3a002e0090006e
:103fdc000080fa00000006000000fa00901180003a
:103fec0000407800614060000080fa00000006008c
:103ffc000000fa0091118000001020000080600089
:10400c0000f0a7000000ea000000e9004f00de000d
:10401c00004078000080fa00000006000000fa0062
:10402c008011800066006000e60f500002003a002c
:10403c00b011800003003700b1118000f00f200098
:10404c00008060000080fa00000006000200fa0008
:10405c00000f78008011800066006000e60f5000b1
:10406c0003003a009e007800a1118800030037007d
:10407c00f00f20001e006000a01188000080fa00e4
:10408c00000006000000fa00210880000003200058
:10409c0001007000200888000080eb0010088800e8
:1040ac000021ef0021058000f0ff28000080600057
:1040bc0000d0a000200588008460a9009460a800ae
:1040cc0005e1a8000080fa00000006000600fa00d6
:1040dc009460a800000000009460a9000008800013
:1040ec0020079800ce4090004087200001487800bf
:1040fc00de4090005087200001487800a0408000ee
:10410c00b1408000008fbe002e009000e10f4000f7
:10411c0004003a001e00be0061005000e080580010
:10412c00008fbe000e007800904078006087200061
:10413c00014878000e0078000000e80090407800fc
:10414c0070872000014878000e0078000080e8009d
:10415c009040780080872000014878000e0078009d
:10416c006300400090407800908720000148780060
:10417c0020048000680060000000e000d4ff3a00da
:10418c009460a8000080fa00000006000400fa0009
:10419c00ceff07000e007800418720009140780088
:1041ac00014878000e0078000000e80051872000dc
:1041bc0091407800014878000e0078000080e800fb
:1041cc006187200091407800014878000e0078004b
:1041dc00630040007187200091407800014878000e
:1041ec001e00be000080fa00000006000400fa0069
:1041fc00b6ff07000e007800518720009140780030
:10420c00014878000e0078000000e800618720006b
:10421c0091407800014878000e0078000080e8009a
:10422c007187200091407800014878000e007800da
:10423c00630040008187200091407800014878009d
:10424c001e00be000080fa00000006000400fa0008
:10425c009eff07000e0078006187200091407800d7
:10426c00014878000e0078000000e80071872000fb
:10427c0091407800014878000e0078000080e8003a
:10428c008187200091407800014878000e0078006a
:10429c00630040009187200091407800014878002d
:1042ac001e00be000080fa00000006000400fa00a8
:1042bc00008fbe001e02be006033b800f00120006b
:1042cc00010020006011b8000000420081804a000b
:1042dc0002014b0083814b00e40320000500200009
:1042ec006033b8005ff107000000be000080fa00e8
:1042fc00000006000000fa00e8a2a900e882a8006d
:10430c000080eb0080118800f0ff2e0090118800d7
:10431c0070062000c0118800ddc2a800d9c2a90017
:10432c00113a8000f00b2000008160006004200036
:10433c0071052000237420008049780081497800a1
:10434c00824978000136800000fc2f00008060005c
:10435c000030a0000036880071368000f00f2c0071
:10436c0080806000007020000100700070368800b2
:10437c004135800000fc2f00008060007001b3000c
:10438c00403588003135800000fc2f000080600033
:10439c00a000b3003035880081368000f00f2c006f
:1043ac008080600000502000010070008036880082
:1043bc0001348000f00f2c0080806000001022007f
:1043cc00010070000034880011348000f00f2c00c4
:1043dc008080600000802200010070001034880092
:1043ec00103a8000000178000260a00060042000f8
:1043fc0071052000237420008049780081497800e1
:10440c00824978000080fa00000006000000fa00e3
:10441c00320320008000eb00a081200081f1070016
:10442c00304280000060a1003042880030428000a1
:10443c000070a0003042880090ea2f00111020007c
:10444c00d0408800e1408800d0408000e1408000ee
:10445c007041880081418800f0ff2f00010020008e
:10446c00f040880001418800f0408000014180004c
:10447c0090418800a141880090ea2f001110200083
:10448c00104188002141880090ea2f001110200073
:10449c0030418800414188006000b80050418800dc
:1044ac006141880002012000c1582800608320006f
:1044bc0055f107006083200065fb07000080fa00bf
:1044cc00000006000000fa008aff0700cfff07007b
:1044dc00390007004500070063000700fdff3700a7
:1044ec000400fa00100798000d00370040c0b3001c
:1044fc00004f7800030037009001200001002000dd
:10450c00140007001e80fb000000ea004f00de00d4
:10451c00004078001e4fe9000004e000f6ff3a006e
:10452c001e00900000f0a7000000ea000000ea0066
:10453c004f00de00004078009e0090008100e900f2
:10454c00110798000004e000e8ff3a000080fa0030
:10455c00000006000800fa002007980031079800b8
:10456c002e019000be0190004418dd00cc10de003e
:10457c00810070004410dd00008fbe0000000000c0
:10458c001e00be000081700002f0a7000201ea00cc
:10459c000201ea004f11de00024178006100500078
:1045ac00e0805800008fbe000204e000f4ff3a00e7
:1045bc000080fa00000006000000fa001028ef004e
:1045cc00904080000000e00004003a0019f8070059
:1045dc00c1f70700100020009040880050f1070040
:1045ec00f6fb07000080fa00000006000800fa0045
:1045fc0001003700000000006600470080007800d2
:10460c00e086200048f207000000e00013003200b2
:10461c006e4090000080fb000000e00004003200bf
:10462c00e60f5000f3ff3a00fdfb07000a003700cd
:10463c00e70047000e80e8008e0178000101780049
:10464c00a18620001bfd07000000e00001003a00dd
:10465c000100370000000000e7ff370000000000f9
:10466c000080fa00000006000000fa000080fa004a
:04467c000000060034
:020000040000fa
:104680005608000014000000000000001808000098
:104690000200000000000000000800000800000008
:1046a00000000000080800000400000002000000f4
:1046b0009e9ffe00410000000c0800000400000066
:1046c000000000006a0800000a000000000000006e
:1046d00010080000040000000000000014080000a2
:1046e0000400000000000000740800000600000044
:1046f000000000001a0800003c000000000000005c
:0447000000000000b5
:020000040000fa
:020000040005f5
:0457f800ed9300002d
:020000040000fa
:020000040005f5
:0457fc007f3e0000ec
:00000001FF
