:020000040000FA
:060000001CEF12F01200DB
:060008002FEF05F01200CD
:060018002FEF05F01200BD
:06002A0002007521000038
:10003000F90000000100000056240000CB01000080
:0400400010000000AC
:0C004400D9CFE6FFE1CFD9FF020EE12684
:10005000898E899811D9E66A4CEC0BF0E5525BD891
:10006000CED8010EE66E27EC0BF0E552010EE66EDF
:10007000B5EC0AF0E552010EE66E31EC0CF0E552FB
:10008000010EE66E80EC0BF0E5523F0EE66E03ECDF
:100090000BF0E552230EE66E56EC0CF0E552220E04
:1000A000E66E0EEC0CF0E552A00EE66EC0EC0BF026
:1000B000E552E66A9CEC0BF0E552E66AB2EC09F018
:1000C000E5525C0EE66ECCEC09F0E552010EE66EF0
:1000D0004CEC0BF0E552E66AE9EC0AF0E552020E50
:1000E000E66E18EC09F0E552E66A31EC09F0E552EB
:1000F000E66ACFEC0AF0E552800EE66EEFEC09F00E
:10010000E552020EE15C02E2E16AE552E16EE5527F
:10011000E7CFD9FF1200D9CFE6FFE1CFD9FF040E18
:10012000E126010EDB6A080EF36E010EDBCFF4FF51
:10013000F350F45C2EE2010EEA6ADB34FE0BEA3681
:10014000E96ECB0EE926010EEA22020EEECFDBFFAE
:10015000030EEDCFDBFFDF6ADF50006E016AD8903F
:10016000015004E6800E005C000E01580FE2DF50E3
:10017000E76E020EDBCFE9FF030EDBCFEAFFE750AD
:10018000E926000EEA22EF6ADF2AE6D7010EDB2A13
:10019000CAD70001E06BE16BE26BE36B040EE15C3C
:1001A00002E2E16AE552E16EE552E7CFD9FF1200C3
:1001B000D9CFE6FFE1CFD9FFE652FE0EDBCFE6FF57
:1001C00066EC0BF0E552020EE66E18EC09F0E55213
:1001D000E66A31EC09F0E552800EE66EFC0EDBCFEC
:1001E000E6FFFD0EDBCFE6FF01EC11F0E552E55234
:1001F000E552E552E552E7CFD9FF12001200D9CF00
:10020000E6FFE1CFD9FFE652DF6A080EDF5C15E2B8
:10021000EA6ADF34FE0BEA36E96ECB0EE926010E00
:10022000EA22EECFE6FFEFCFE6FFDFCFE6FFC0DF4B
:10023000E552E552E552DF2AE8D7E552E552E7CF2D
:10024000D9FF12001200D9CFE6FFE1CFD9FFFE0E91
:10025000DBCFE6FFEFEC09F0E552E552E7CFD9FF3F
:100260001200E66A4CEC0BF0E5521200010EE66E4D
:100270004CEC0BF0E5521200D9CFE6FFE1CFD9FFED
:10028000020EE126CA0EDE6E8A0EDD6EDFCF00F0B2
:10029000DF06010EDBCF01F001E2DB0600500110AA
:1002A00001E0F4D78998CA0EDE6E8A0EDD6EDFCFCC
:1002B00000F0DF06010EDBCF01F001E2DB060050AB
:1002C000011001E0F4D78988020EE15C02E2E16AE4
:1002D000E552E16EE552E7CFD9FF1200D9CFE6FF34
:1002E000E1CFD9FF030EE126FD0EDB50070B006EB8
:1002F000010E005204E0E846FE0B0006FCE1E76E4A
:10030000020EE7CFDBFFFE0EDB50026E036AFD0E2E
:10031000DB50F80BE842E842E842E96EEA6AD8901E
:10032000E936EA36CB0EE926010EEA220250EE2427
:10033000006E0350EE20016E00C0DEFF01C0DDFF45
:10034000FC0EDB5008E0DECFE9FFDDCFEAFF020E56
:10035000DB50EF1209D0020EDB1C006EDECFE9FF8E
:10036000DDCFEAFF0050EF16030EE15C02E2E16A26
:10037000E552E16EE552E7CFD9FF1200D9CFE6FF93
:10038000E1CFD9FFFD0EDB50070B036E010E0352C8
:1003900004E0E846FE0B0306FCE1026EFE0EDB50B5
:1003A000006E016AFD0EDB50F80BE842E842E842BD
:1003B000E96EEA6AD890E936EA36CB0EE926010EF4
:1003C000EA220050EE24E76E0150EE20EA6EE7CFFD
:1003D000E9FFEF50021400D0E552E7CFD9FF120039
:1003E000D9CFE6FFE1CFD9FF200E006EFE0EDB5025
:1003F000E76E0018E8AE02D0003403D0E750D88092
:1004000000540EE3FE0EDBCF01F07E0EE76E011806
:10041000E8AE02D0013403D0E750D880015402E2A4
:10042000000E01D0010E00D0E552E7CFD9FF120037
:10043000D9CFE6FFE1CFD9FFFD0EDBCFE9FFFE0EFE
:10044000DBCFEAFFEF500EE0FD0EDBCFE9FFDB2A4A
:10045000FE0EDBCFEAFF01E3DB2AEF50E66E24D885
:10046000E552EAD7E552E7CFD9FF1200D9CFE6FF30
:10047000E1CFD9FFFD0EDBCFE9FFFE0EDBCFEAFFB8
:10048000EF500EE0FD0EDBCFE9FFDB2AFE0EDBCFE7
:10049000EAFF01E3DB2AEF50E66E74D8E552EAD7B3
:1004A000E552E7CFD9FF1200D9CFE6FFE1CFD9FF60
:1004B000FE0EDBCFE6FF94DFE55200091BE00001F2
:1004C000E151006E016AD890015004E6800E005C94
:1004D000000E01580EE2E1C0E6FFE0C0E6FFFE0EAE
:1004E000DBCFE6FFC1D8E552E552E552060E00012A
:1004F000E1273FD0FE0EDB500A0804E0FE0EDB5081
:100500000D0827E10001E151006E016AD890015009
:1005100004E6800E005C000E015818E2E151006E06
:10052000016AE051E96EEA6AD890E936EA36CB0E04
:10053000E926010EEA220050EE24E76E0150EE207B
:10054000EA6EE7CFE9FFEF6AE12BDCD7E02BE16B46
:1005500010D0FE0EDB5009080CE1200EE66EA4DF81
:10056000E552200EE66EA0DFE552200EE66E9CDF1F
:10057000E552080E0001E05D01E3E06BE552E7CFD4
:10058000D9FF1200D9CFE6FFE1CFD9FFFE0EDBCFB6
:10059000E6FF26DFE55200091EE00001E151006E92
:1005A000016AD890015004E6800E005C000E0158EC
:1005B00011E2070EE05D0EE2E1C0E6FFE0C0E6FFFB
:1005C000FE0EDBCFE6FFCED8E552E552E552060E31
:1005D0000001E12740D0FE0EDB500A0804E0FE0EC9
:1005E000DB500D0828E10001E151006E016AD8904E
:1005F000015004E6800E005C000E015818E2E15143
:10060000006E016AE051E96EEA6AD890E936EA368E
:10061000CB0EE926010EEA220050EE24E76E0150CF
:10062000EE20EA6EE7CFE9FFEF6AE12BDCD7020E9E
:10063000E027E16B10D0FE0EDB5009080CE1200E24
:10064000E66E32DFE552200EE66E2EDFE552200E1A
:10065000E66E2ADFE552080E0001E05D01E1E06B85
:10066000E552E7CFD9FF1200D9CFE6FFE1CFD9FF9E
:10067000030EE126200E006EFE0EDBCFE7FF0050DA
:10068000E75EFE0EE7CFDBFFFC0EDB50026E036A77
:10069000FD0EEA6ADB34FE0BEA36E96ECB0EE92684
:1006A000010EEA220250EE24006E0350EE20016E8D
:1006B00000C0DEFF01C0DDFF020EDB6AFC0EDBCFF7
:1006C000E6FF020EDB50E552E724006E016AD89087
:1006D000015004E6800E005C000E015834E2050E65
:1006E000F36E020EDBCFF4FFF350F45C2CE2FE0E4F
:1006F000DBCF00F0016A00BE0168050E0102F3CFF6
:1007000001F00002F3CF00F0F45001269A0E00260B
:100710001F0E0122020EDB500F010024F66E000EA8
:100720000120F76E0800F550E66EDFCFE9FFDF2A03
:10073000010EDBCFEAFF01E3DB2AE552E750EF6E63
:10074000020EDB2ABBD7DECFE9FFDDCFEAFFEF6A7F
:10075000030EE15C02E2E16AE552E16EE552E7CFA9
:10076000D9FF1200D9CFE6FFE1CFD9FF050EE12670
:10077000200E006EFE0EDBCFE7FF0050E75EFE0EA0
:10078000E7CFDBFFFC0EDB50026E036AFD0EEA6A68
:10079000DB34FE0BEA36E96ECB0EE926010EEA22C7
:1007A0000250EE24006E0350EE20016E00C0DEFF0A
:1007B00001C0DDFFFC0EDB50026E036AFD0EDB287C
:1007C000E96EEA6AD890E936EA36CB0EE926010EE0
:1007D000EA220250EE24006E0350EE20016E020E5B
:1007E00000C0DBFF030E01C0DBFF040EDB6AFC0E62
:1007F000DBCFE6FF040EDB50E552E724006E016A12
:10080000D890015004E6800E005C000E015869E2A9
:10081000050EF36E040EDBCFF4FFF350F45C61E2DF
:10082000FE0EDBCF00F0016A00BE0168050E01027A
:10083000F3CF01F00002F3CF00F0F45001269A0E3E
:1008400000261F0E0122040EDB500F010024F66E5D
:10085000000E0120F76E0800F550E66EE66A57D8E4
:10086000E552E552E66EDFCFE9FFDF2A010EDBCF6E
:10087000EAFF01E3DB2AE552E750EF6EFE0EDBCF25
:1008800000F0016A00BE0168050E0102F3CF01F01D
:100890000002F3CF00F0F45001269A0E00261F0E3E
:1008A0000122040EDB500F010024F66E000E012021
:1008B000F76E0800F550E66E010EE66E28D8E55298
:1008C000E552E66E020EDBCFE9FFDB2A030EDBCF3B
:1008D000EAFF01E3DB2AE552E750EF6E040EDB2A64
:1008E00086D7DECFE9FFDDCFEAFFEF6A020EDBCF6E
:1008F000E9FF030EDBCFEAFFEF6A050EE15C02E2DF
:10090000E16AE552E16EE552E7CFD9FF1200D9CF97
:10091000E6FFE1CFD9FFE652DF6AFE0EDB5014E0BE
:10092000FD0EDBA803D0000EDF80DF82FD0EDBAA08
:1009300002D0DF84DF86DBAC02D0DF88DF8ADBAE6B
:1009400002D0DF8CDF8E13D0FD0EDBA003D0000EB3
:10095000DF80DF82FD0EDBA202D0DF84DF86DBA436
:1009600002D0DF88DF8ADBA602D0DF8CDF8EDF508B
:1009700000D0E552E552E7CFD9FF1200D9CFE6FF0C
:10098000E1CFD9FFFE0EDB040FE1070EE66EE66A4B
:10099000E66A010EE66E4BEC09F0E552E552E552CF
:1009A000E55284EC09F002D09BEC09F000D0E5524E
:1009B000E7CFD9FF1200D9CFE6FFE1CFD9FFFD0E77
:1009C000DB50006E016AFE0EEA6ADB34FE0BEA368B
:1009D000E96ECB0EE926010EEA220050EE24E76E06
:1009E0000150EE20EA6EE7CFE9FFFC0EDBCFEFFF10
:0809F000E552E7CFD9FF120028
:0809F800700ED36E9B8C926A15
:100A0000F00E896E8988898ECF0E936E0F0E7C6EE4
:100A1000F19E280E8B6E040E946E956A8C6A070EFA
:100A2000966E7E6A7F6A7E8EC16A0E0EC06E1D0E45
:100A3000C26E040ECA6ECB68800ED56E320EC66EC4
:100A4000C76AF30ECF6E7F0ECE6EF90ECF6EBF0E5D
:100A5000CE6E010ECD6E9D80F28CF28E1200D8CF3C
:100A6000E4FFE0CFE4FFE46EDACFE4FFE2CFDAFFA9
:100A7000E9CFE4FFEACFE4FFF6CFE4FFF7CFE4FFEE
:100A8000F5CFE4FFF3CFE4FFF4CFE4FFFACFE4FFC8
:100A900000EE1CF0100EE80403E3EECFE4FFFBD7FA
:100AA00000EE00F01C0EE80403E3EECFE4FFFBD7FA
:100AB000E6529E50010B58E09D50010B55E09E9070
:100AC000F30ECF6E7F0ECE24CE6EC282C2B2FED7A0
:100AD000C282C2B2FED7C450E66E95DBE552010178
:100AE0000051EA6A800FE96E030EEA22C4CFEFFFDD
:100AF0000051EA6A800FE96E030EEA22EFCF2CF074
:100B0000010E2C5C08E20051EA6A800FE96E030EC8
:100B1000EA22020EEF6E002B200E005D25E1006B35
:100B2000010E016F0001F16BF26B0101006B200EF1
:100B3000005D10E20051EA6A800FE96E030EEA22BE
:100B4000EF500001F125F16F000EF221F26F01016B
:100B5000002BEDD70001DE0EF15D0D0EF25902E221
:100B60000101016B0101006BF2B2F292F0B0F09062
:100B7000E55200EE1BF01C0EE80403E3E5CFEDFFA9
:100B8000FBD700EE2BF0100EE80403E3E5CFEDFFFA
:100B9000FBD7E5CFFAFFE5CFF4FFE5CFF3FFE5CFD5
:100BA000F5FFE5CFF7FFE5CFF6FFE5CFEAFFE5CFAD
:100BB000E9FFE5CFDAFFE550E5CFE0FFE5CFD8FF6D
:100BC00010001ADF0DDB956AA6EC0FF022EC00F0A6
:100BD000E66A18EC09F0E552E66A31EC09F0E552F4
:100BE000E66A66EC0BF0E552E668E66A29EC11F07D
:100BF000E552E552E66A18EC09F0E552E66A31EC96
:100C000009F0E552010EE66E66EC0BF0E552E6687F
:100C1000E66A29EC11F0E552E552E66A18EC09F0B3
:100C2000E552E66A31EC09F0E552020EE66E66EC3A
:100C30000BF0E552E668E66A29EC11F0E552E55260
:100C4000E66A18EC09F0E552E66A31EC09F0E55283
:100C5000030EE66E66EC0BF0E552E668E66A29ECF8
:100C600011F0E552E5520101015101E127D1F29E57
:100C70007AEC0CF00101026B436B446B456B466BE5
:100C8000100E025D01E1E5D0080E116E0251030D58
:100C9000F3CFE9FFF4CFEAFF200EE926030EEA22A4
:100CA00011501F0BEECF0DF0EECF0EF0EECF0FF088
:100CB00006E0D8900F320E320D32E806FAE1106AE3
:100CC000080E0C6E01010251030DF3CFE9FFF4CFC2
:100CD000EAFF200EE926030EEA220C501F0BEECF8E
:100CE00008F0EECF09F0EECF0AF006E0D8900A3215
:100CF00009320832E806FAE10B6A08C020F009C0A0
:100D000021F00AC022F00BC023F00DC025F00EC068
:100D100026F00FC027F010C028F0C0EC11F01CC066
:100D200004F01DC005F01EC006F01FC007F0080E3D
:100D30001B6E01010251030DF3CFE9FFF4CFEAFF6F
:100D4000500EE926030EEA221B501F0BEECF17F0C0
:100D5000EECF18F0EECF19F006E0D8901932183225
:100D60001732E806FAE11A6A080E166E01010251FE
:100D7000030DF3CFE9FFF4CFEAFF500EE926030E8F
:100D8000EA2216501F0BEECF12F0EECF13F0EECF8B
:100D900014F006E0D890143213321232E806FAE169
:100DA000156A12C020F013C021F014C022F015C043
:100DB00023F017C025F018C026F019C027F01AC07C
:100DC00028F0C0EC11F004501C24006E05501D20CA
:100DD000016E06501E20026E07501F20036E010197
:100DE0000251040DF3CFE9FFF4CFEAFF030EE92629
:100DF000010EEA2200C0EEFF01C0EEFF02C0EEFFCE
:100E000003C0EEFF0251040DF3CFE9FFF4CFEAFF78
:100E1000030EE926010EEA22EE50435DEE504459DE
:100E2000EE504559EE50465912E20251040DF3CFEF
:100E3000E9FFF4CFEAFF030EE926010EEA22EECF26
:100E400043F1EECF44F1EECF45F1EFCF46F1022B67
:100E500017D7026B476B020E486F496B4A6B100E37
:100E6000025D27E00251040DF3CFE9FFF4CFEAFF62
:100E7000030EE926010EEA2247C125F048C126F0FB
:100E800049C127F04AC128F0EECF20F0EECF21F083
:100E9000EECF22F0EFCF23F0F8EC11F023C0EDFFFE
:100EA00022C0EDFF21C0EDFF20C0EFFF0101022BAA
:100EB000D6D7026B05D8F28E0101016BD4D6120091
:100EC000D9CFE6FFE1CFD9FF020EE126010EDB6AA2
:100ED000070EF36E010EDBCFF4FFF350F45C01E379
:100EE00075D1E66A18EC09F0E552E66A31EC09F0D2
:100EF000E552010EDBCFE6FF070EE552D880E7543E
:100F0000E66E66EC0BF0E552040EE66EA10EE66EA0
:100F1000E2EC10F0E552E552DF6A100EDF5C01E30F
:100F200052D1DF50040DF3CFE9FFF4CFEAFF030EF7
:100F3000E926010EEA22080EEE5C000EEE58000EC5
:100F4000EE58000EEE5832E3080EE66EE66829EC25
:100F500011F0E552E552DF50040DF3CFE9FFF4CF75
:100F6000EAFF030EE926010EEA22EECF00F0EECFF3
:100F700001F0EECF02F0EFCF03F0080E005E000E9E
:100F8000015A025A035ADF50040DF3CFE9FFF4CFA0
:100F9000EAFF030EE926010EEA2200C0EEFF01C0BF
:100FA000EEFF02C0EEFF03C0EEFF0BD1DF50040DD9
:100FB000F3CFE9FFF4CFEAFF030EE926010EEA22A0
:100FC000EECF00F0EECF01F0EECF02F0EFCF03F066
:100FD000010E001805E1015003E1025001E1035048
:100FE00001E1D8D0020E001805E1015003E10250E2
:100FF00001E1035001E1B7D0030E001805E10150F3
:1010000003E1025001E1035001E196D0040E001803
:1010100005E1015003E1025001E1035076E0050EC5
:10102000001805E1015003E1025001E1035056E0D0
:10103000060E001805E1015003E1025001E10350E2
:1010400036E0070E001805E1015003E1025001E10E
:10105000035016E0080EE66EE66A29EC11F0E55240
:10106000E552DF50040DF3CFE9FFF4CFEAFF030EA2
:10107000E926010EEA22EE6AEE6AEE6AEE6AA1D075
:10108000080EE66EFE0EE66E29EC11F0E552E55212
:10109000DF50040DF3CFE9FFF4CFEAFF030EE9269A
:1010A000010EEA22EE6AEE6AEE6AEE6A8AD0080E55
:1010B000E66EFC0EE66E29EC11F0E552E552DF50CB
:1010C000040DF3CFE9FFF4CFEAFF030EE926010E8A
:1010D000EA22EE6AEE6AEE6AEE6A73D0080EE66EF7
:1010E000F80EE66E29EC11F0E552E552DF50040DE2
:1010F000F3CFE9FFF4CFEAFF030EE926010EEA225F
:10110000EE6AEE6AEE6AEE6A5CD0080EE66EF00EEB
:10111000E66E29EC11F0E552E552DF50040DF3CFF5
:10112000E9FFF4CFEAFF030EE926010EEA22EE6A98
:10113000EE6AEE6AEE6A45D0080EE66EE00EE66EE6
:1011400029EC11F0E552E552DF50040DF3CFE9FF31
:10115000F4CFEAFF030EE926010EEA22EE6AEE6AF8
:10116000EE6AEE6A2ED0080EE66EC00EE66E29EC30
:1011700011F0E552E552DF50040DF3CFE9FFF4CF53
:10118000EAFF030EE926010EEA22EE6AEE6AEE6A33
:10119000EE6A17D0080EE66E800EE66E29EC11F0AE
:1011A000E552E552DF50040DF3CFE9FFF4CFEAFF3B
:1011B000030EE926010EEA22EE6AEE6AEE6AEE6A94
:1011C00000D0DF2AAAD6010EDB2A82D6020EE15C0D
:1011D00002E2E16AE552E16EE552E7CFD9FF120083
:1011E0009484010EB96ECB680C0EBD6E0301A26B28
:1011F000A2C3E6FF08D8E5529E92040ECA6E9EA2D4
:10120000FED794941200D9CFE6FFE1CFD9FFFE0EAE
:10121000DB50BE6EBD9ABD98E552E7CFD9FF1200F4
:101220009E90F80ECF6E300ECE6E010ECD6E120077
:10123000D9CFE6FFE1CFD9FFE652FE0EDB500F0B10
:10124000DF6E010EE66ED9CFE6FFDACFE6FFBBEC2C
:1012500010F0E552E552E552E552E552E7CFD9FFED
:101260001200D9CFE6FFE1CFD9FFE652FE0EDB50E8
:101270000F0B1009DF6E010EE66ED9CFE6FFDACF55
:10128000E6FFBBEC10F0E552E552E552E552E552BF
:10129000E7CFD9FF1200D9CFE6FFE1CFD9FF050E86
:1012A000E126260EDF6EFE0EDB50070BE76E010E09
:1012B000E7CFDBFFFD0EDB50070BE76E020EE7CF3B
:1012C000DBFFFC0EDB50030BE76E030EE7CFDBFF0B
:1012D000FB0EDB50070BE76E040EE7CFDBFF050EBE
:1012E000E66ED9CFE6FFDACFE6FFBBEC10F0E552B1
:1012F000E552E552050EE15C02E2E16AE552E16E7B
:10130000E552E7CFD9FF1200D9CFE6FFE1CFD9FFF1
:10131000E6522F0EDF6E010EE66ED9CFE6FFDACF72
:10132000E6FFBBEC10F0E552E552E552E552E5521E
:10133000E7CFD9FF1200D9CFE6FFE1CFD9FFE652C0
:101340002E0EDF6E010EE66ED9CFE6FFDACFE6FF96
:10135000BBEC10F0E552E552E552E552E552E7CF1D
:10136000D9FF1200D9CFE6FFE1CFD9FFE652FE0E3A
:10137000DB503F0B4009DF6E010EE66ED9CFE6FF72
:10138000DACFE6FFBBEC10F0E552E552E552E5524C
:10139000E552E7CFD9FF1200D9CFE6FFE1CFD9FF61
:1013A000020EE126810EDF6EFE0EDB50E76E010EAF
:1013B000E7CFDBFF020EE66ED9CFE6FFDACFE6FF1E
:1013C000BBEC10F0E552E552E552020EE15C02E2A0
:1013D000E16AE552E16EE552E7CFD9FF1200D9CFBD
:1013E000E6FFE1CFD9FF020EE126820EDF6EFE0E90
:1013F000DB50E76E010EE7CFDBFF020EE66ED9CFC2
:10140000E6FFDACFE6FFBBEC10F0E552E552E5521D
:10141000020EE15C02E2E16AE552E16EE552E7CFDD
:10142000D9FF1200D9CFE6FFE1CFD9FF050EE126A3
:10143000910EDF6EFE0EDB503F0BE76E010EE7CF25
:10144000DBFFFD0EDB503F0BE76E020EE7CFDBFF4D
:10145000FC0EDB503F0BE76E030EE7CFDBFFFB0E0E
:10146000DB503F0BE76E040EE7CFDBFF050EE66EA9
:10147000D9CFE6FFDACFE6FFBBEC10F0E552E5523C
:10148000E552050EE15C02E2E16AE552E16EE552E9
:10149000E7CFD9FF1200D9CFE6FFE1CFD9FF050E84
:1014A000E126920EDF6EFE0EDB50E76E010EE7CFF7
:1014B000DBFFFD0EDB50E76E020EE7CFDBFFFC0E1D
:1014C000DB50E76E030EE7CFDBFFFB0EDB50E76E72
:1014D000040EE7CFDBFF050EE66ED9CFE6FFDACFCD
:1014E000E6FFBBEC10F0E552E552E552050EE15C7B
:1014F00002E2E16AE552E16EE552E7CFD9FF120060
:10150000D9CFE6FFE1CFD9FF050EE126930EDF6EBE
:10151000FE0EDB50E76E010EE7CFDBFFFD0EDB506A
:10152000E76E020EE7CFDBFFFC0EDB50E76E030E2B
:10153000E7CFDBFFFB0EDB50E76E040EE7CFDBFFF0
:10154000050EE66ED9CFE6FFDACFE6FFBBEC10F072
:10155000E552E552E552050EE15C02E2E16AE55230
:10156000E16EE552E7CFD9FF1200D9CFE6FFE1CF18
:10157000D9FFE652FE0EDB50010BA009DF6E010E13
:10158000E66ED9CFE6FFDACFE6FFBBEC10F0E5520E
:10159000E552E552E552E552E7CFD9FF1200D9CF27
:1015A000E6FFE1CFD9FFE652FE0EDB50010BA409A6
:1015B000DF6E010EE66ED9CFE6FFDACFE6FFBBECB9
:1015C00010F0E552E552E552E552E552E7CFD9FF7A
:1015D0001200D9CFE6FFE1CFD9FFE652FE0EDB5075
:1015E000010BA609DF6E010EE66ED9CFE6FFDACF5A
:1015F000E6FFBBEC10F0E552E552E552E552E5524C
:10160000E7CFD9FF1200D9CFE6FFE1CFD9FF020E15
:10161000E126A80EDF6EFE0EDB503F0BE76E010EDB
:10162000E7CFDBFF020EE66ED9CFE6FFDACFE6FFAB
:10163000BBEC10F0E552E552E552020EE15C02E22D
:10164000E16AE552E16EE552E7CFD9FF1200D9CF4A
:10165000E6FFE1CFD9FF020EE126AD0EDF6EFE0EF2
:10166000DB50010B8A09E76E010EE7CFDBFF020EAC
:10167000E66ED9CFE6FFDACFE6FFBBEC10F0E5521D
:10168000E552E552020EE15C02E2E16AE552E16EEA
:10169000E552E7CFD9FF1200D9CFE6FFE1CFD9FF5E
:1016A000E652FE0EDB50010BAE09DF6E010EE66E58
:1016B000D9CFE6FFDACFE6FFBBEC10F0E552E552FA
:1016C000E552E552E552E7CFD9FF1200D9CFE6FF48
:1016D000E1CFD9FFE652FE0EDB500F0BB009DF6EF3
:1016E000010EE66ED9CFE6FFDACFE6FFBBEC10F0D5
:1016F000E552E552E552E552E552E7CFD9FF120037
:10170000D9CFE6FFE1CFD9FFE652C00EDF6EFE0E65
:10171000DB5002E0C80EDF6E010EE66ED9CFE6FFA9
:10172000DACFE6FFBBEC10F0E552E552E552E552A8
:10173000E552E7CFD9FF1200D9CFE6FFE1CFD9FFBD
:10174000020EE126D30EDF6EFE0EDB503F0BE76E7E
:10175000010EE7CFDBFF020EE66ED9CFE6FFDACF50
:10176000E6FFBBEC10F0E552E552E552020EE15CFB
:1017700002E2E16AE552E16EE552E7CFD9FF1200DD
:10178000D9CFE6FFE1CFD9FF020EE126D50EDF6EFD
:10179000FE0EDB50E76E010EE7CFDBFF020EE66EBA
:1017A000D9CFE6FFDACFE6FFBBEC10F0E552E55209
:1017B000E552020EE15C02E2E16AE552E16EE552B9
:1017C000E7CFD9FF1200D9CFE6FFE1CFD9FF020E54
:1017D000E126D80EDF6E010EDB6AFE0EDB5003E061
:1017E000010EDB88DB8AFD0EDB5003E0010EDB809F
:1017F000DB84020EE66ED9CFE6FFDACFE6FFBBEC64
:1018000010F0E552E552E552020EE15C02E2E16AB7
:10181000E552E16EE552E7CFD9FF1200D9CFE6FFDE
:10182000E1CFD9FF020EE126D90EDF6EFE0EDB50AE
:10183000E76E010EE7CFDBFF020EE66ED9CFE6FFC3
:10184000DACFE6FFBBEC10F0E552E552E552020EAE
:10185000E15C02E2E16AE552E16EE552E7CFD9FFD1
:101860001200D9CFE6FFE1CFD9FF020EE126DA0E52
:10187000DF6EDE52020EDD6EFE0EDB5002E0010E68
:10188000DB88020EE66ED9CFE6FFDACFE6FFBBECCF
:1018900010F0E552E552E552020EE15C02E2E16A27
:1018A000E552E16EE552E7CFD9FF1200D9CFE6FF4E
:1018B000E1CFD9FF020EE126DB0EDF6EFE0EDB501C
:1018C0007F0BE76E010EE7CFDBFF020EE66ED9CF8E
:1018D000E6FFDACFE6FFBBEC10F0E552E552E55249
:1018E000020EE15C02E2E16AE552E16EE552E7CF09
:0418F000D9FF12000A
:0C18F400030103EE00F013EE80F023EE81
:1019000020F0A06B90EC0CF003EE08F013EE80F0EA
:1019100023EE50F0A06B90EC0CF096EC0FF0120060
:10192000A16BE19AEF50E602E9A807D0F31EF41E7E
:10193000A11F010EF326F422A123F3CFDEFFF4CF83
:10194000DEFFA1C3DDFFDD52A029E9241F0BE96EF4
:10195000A16BEF50E602E9A808D0F31EF41EA11F08
:10196000010EF326000EF422A123F350DE26F450DC
:10197000DE22A151DD22DD52A029E9241F0BE96EF0
:10198000A16BEF50E602E9A808D0F31EF41EA11FD8
:10199000010EF326000EF422A123F350DE26F450AC
:1019A000DE22A151DD22DD52A029E9241F0BE96EC0
:1019B000A16BEF50E602E9A808D0F31EF41EA11FA8
:1019C000010EF326000EF422A123F350DE26F4507C
:1019D000DE22A151DD22DD52A029E9241F0BE96E90
:1019E000A16BEF50E602E9A808D0F31EF41EA11F78
:1019F000010EF326000EF422A123F350DE26F4504C
:101A0000DE22A151DD22DD52A029E9241F0BE96E5F
:101A1000A16BEF50E602E9A808D0F31EF41EA11F47
:101A2000010EF326000EF422A123F350DE26F4501B
:101A3000DE22A151DD22DD52A029E9241F0BE96E2F
:101A4000A16BEF50E602E9A808D0F31EF41EA11F17
:101A5000010EF326000EF422A123F350DE26F450EB
:101A6000DE22A151DD22DD52A029E9241F0BE96EFF
:101A7000A16BEF50E602E9A808D0F31EF41EA11FE7
:101A8000010EF326000EF422A123F350DE26F450BB
:101A9000DE22A151DD22DD52A029E9241F0BE96ECF
:101AA000A16BEF50E602E9A808D0F31EF41EA11FB7
:101AB000010EF326000EF422A123F350DE26F4508B
:101AC000DE22A151DD22DD52A029E9241F0BE96E9F
:101AD000A16BEF50E602E9A808D0F31EF41EA11F87
:101AE000010EF326000EF422A123F350DE26F4505B
:101AF000DE22A151DD22DD52A029E9241F0BE96E6F
:101B0000A16BEF50E602E9A808D0F31EF41EA11F56
:101B1000010EF326000EF422A123F350DE26F4502A
:101B2000DE22A151DD22DD52A029E9241F0BE96E3E
:101B3000A16BEF50E602E9A808D0F31EF41EA11F26
:101B4000010EF326000EF422A123F350DE26F450FA
:101B5000DE22A151DD22DD52A029E9241F0BE96E0E
:101B6000A16BEF50E602E9A808D0F31EF41EA11FF6
:101B7000010EF326000EF422A123F350DE26F450CA
:101B8000DE22A151DD22DD52A029E9241F0BE96EDE
:101B9000A16BEF50E602E9A808D0F31EF41EA11FC6
:101BA000010EF326000EF422A123F350DE26F4509A
:101BB000DE22A151DD22DD52A029E9241F0BE96EAE
:101BC000A16BEF50E602E9A808D0F31EF41EA11F96
:101BD000010EF326000EF422A123F350DE26F4506A
:101BE000DE22A151DD22DD52A029E9241F0BE96E7E
:101BF000A16BEF50E602E9A808D0F31EF41EA11F66
:101C0000010EF326000EF422A123F350DE26F45039
:101C1000DE22A151DD22DD52A029E9241F0BE96E4D
:101C2000A16BEF50E602E9A808D0F31EF41EA11F35
:101C3000010EF326000EF422A123F350DE26F45009
:101C4000DE22A151DD22DD52A029E9241F0BE96E1D
:101C5000A16BEF50E602E9A808D0F31EF41EA11F05
:101C6000010EF326000EF422A123F350DE26F450D9
:101C7000DE22A151DD22DD52A029E9241F0BE96EED
:101C8000A16BEF50E602E9A808D0F31EF41EA11FD5
:101C9000010EF326000EF422A123F350DE26F450A9
:101CA000DE22A151DD22DD52A029E9241F0BE96EBD
:101CB000A16BEF50E602E9A808D0F31EF41EA11FA5
:101CC000010EF326000EF422A123F350DE26F45079
:101CD000DE22A151DD22DD52A029E9241F0BE96E8D
:101CE000A16BEF50E602E9A808D0F31EF41EA11F75
:101CF000010EF326000EF422A123F350DE26F45049
:101D0000DE22A151DD22DD52A029E9241F0BE96E5C
:101D1000A16BEF50E602E9A808D0F31EF41EA11F44
:101D2000010EF326000EF422A123F350DE26F45018
:101D3000DE22A151DD22DD52A029E9241F0BE96E2C
:101D4000A16BEF50E602E9A808D0F31EF41EA11F14
:101D5000010EF326000EF422A123F350DE26F450E8
:101D6000DE22A151DD22DD52A029E9241F0BE96EFC
:101D7000A16BEF50E602E9A808D0F31EF41EA11FE4
:101D8000010EF326000EF422A123F350DE26F450B8
:101D9000DE22A151DD22DD52A029E9241F0BE96ECC
:101DA000A16BEF50E602E9A808D0F31EF41EA11FB4
:101DB000010EF326000EF422A123F350DE26F45088
:101DC000DE22A151DD22DD52A029E9241F0BE96E9C
:101DD000A16BEF50E602E9A808D0F31EF41EA11F84
:101DE000010EF326000EF422A123F350DE26F45058
:101DF000DE22A151DD22DD52A029E9241F0BE96E6C
:101E0000A16BEF50E602E9A808D0F31EF41EA11F53
:101E1000010EF326000EF422A123F350DE26F45027
:101E2000DE22A151DD22DD52A029E9241F0BE96E3B
:101E3000A16BEF50E602E9A808D0F31EF41EA11F23
:101E4000010EF326000EF422A123F350DE26F450F7
:101E5000DE22A151DD22DD52A029E9241F0BE96E0B
:101E6000A16BEF50E602E9A808D0F31EF41EA11FF3
:101E7000010EF326000EF422A123F350DE26F450C7
:101E8000DE22A151DD22DD52A029E9241F0BE96EDB
:101E9000A16BEF50E602E9A808D0F31EF41EA11FC3
:101EA000010EF326000EF422A123F350DE26F45097
:101EB000DE22A151DD22DD52A029E9241F0BE96EAB
:101EC000A16BEF50E602E9A808D0F31EF41EA11F93
:101ED000010EF326000EF422A123F350DE26F45067
:101EE000DE22A151DD22DD52A029E9241F0BE96E7B
:101EF000A16BEF50E602E9A808D0F31EF41EA11F63
:101F0000010EF326000EF422A123F350DE26F45036
:101F1000DE22A151DD22DD52A029E9241F0BE96E4A
:101F2000A02BA0B91200030ED926FAD403EE7FF03D
:101F30001F0EE96201D01200EFAE04D0ED1EED1EBF
:101F4000ED1EF6D7ED52ED52ED52F2D703EE00F052
:101F5000000EF86E1F0EF76E6C0EF66E200EA06F60
:101F60000900F5CFEEFFA02FFBD712000032628EE2
:101F7000B4D4ECFAFFFAECD4B48E62320032628E42
:101F8000B4D4ECFAFFFAECD4B48E623200EE00F076
:0A1F90000F0EEE6AEA62FDD71200A0
:061F9A0000000000000041
:101FA000004F00000007000700147F147F14242A4C
:101FB0007F2A122313086462364955225000050314
:101FC0000000001C2241000041221C0014083E08B1
:101FD0001408083E080800503000000808080808E7
:101FE000006060000020100804023E5149453E0098
:101FF000427F400042615149462141454B3118140E
:10200000127F1027454545393C4A4949300171093D
:1020100005033649494936064949291E0036360026
:102020000000563600000814224100141414141441
:1020300000412214080201510906324979413E7ECD
:102040001111117E7F494949363E414141227F416C
:1020500041221C7F494949417F090909013E414903
:10206000497A7F0808087F00417F41002040413FB6
:10207000017F081422417F404040407F020C027FD4
:102080007F0408107F3E4141413E7F090909063E19
:102090004151215E7F0919294646494949310101CB
:1020A0007F01013F4040403F1F2040201F3F4038FC
:1020B000403F6314081463070870080761514945DD
:1020C00043007F41410002040810200041417F008D
:1020D000040201020440404040400001020400208C
:1020E000545454787F484444383844444420384455
:1020F00044487F3854545418087E0901020C525247
:10210000523E7F0804047800447D40002040443D56
:10211000007F1028440000417F40007C04180478B0
:102120007C0804047838444444387C1414140808A7
:102130001414187C7C080404084854545420043FA8
:102140004440203C4040207C1C2040201C3C40302F
:10215000403C44281028440C5050503C4464544C9B
:1021600044000836410000007F00000041360800AE
:0521700002010204025F
:01217500F079
:0A217600D9CFE6FFE1CFD9FFE65212
:10218000899E899ADF6AFC0EDB50DF5C0FE2FD0E50
:10219000DBCFE9FFDB2AFE0EDBCFEAFF01E3DB2A20
:1021A000EF50E66E76D8E552DF2AEDD7E30EE66E05
:1021B00070D8E55200000000898EE552E552E7CF65
:1021C000D9FF1200D9CFE6FFE1CFD9FFE652899EB1
:1021D000899ADF6AFD0EDB50DF5C07E2FE0EDBCF83
:1021E000E6FF57D8E552DF2AF5D7E30EE66E51D861
:1021F000E55200000000898EE552E552E7CFD9FF95
:102200001200D9CFE6FFE1CFD9FFE652899E898A35
:10221000DF6AFC0EDB50DF5C0FE2FD0EDBCFE9FF77
:10222000DB2AFE0EDBCFEAFF01E3DB2AEF50E66E8E
:1022300030D8E552DF2AEDD7899AE30EE66E29D829
:10224000E55200000000898EE552E552E7CFD9FF44
:102250001200D9CFE6FFE1CFD9FFE652899E898AE5
:10226000DF6AFD0EDB50DF5C07E2FE0EDBCFE6FF30
:1022700010D8E552DF2AF5D7899AE30EE66E09D821
:10228000E55200000000898EE552E552E7CFD9FF04
:102290001200D9CFE6FFE1CFD9FFE652C950DF6E79
:1022A0009E96FE0EDB50C96E9EA6FED7C950DF6E0D
:1022B0009E96E552E552E7CFD9FF1200D9CFE6FF4F
:1022C000E1CFD9FFE552E7CFD9FF1200D9CFE6FF22
:1022D000E1CFD9FFE552E7CFD9FF1200000E00D0C1
:0222E0001200EA
:0E22E2002A0EF66E000EF76E000EF86E010169
:1022F0000900F550E06F0900F550E16F03E1E06778
:1023000001D03DD00900F550DB6F0900F550DC6FBE
:102310000900F550DD6F09000900F550E96E09006C
:10232000F550EA6E090009000900F550DE6F09005A
:10233000F550DF6F09000900F6CFE2F1F7CFE3F1C6
:10234000F8CFE4F1DBC1F6FFDCC1F7FFDDC1F8FF38
:102350000101DE5302E1DF5307E00900F550EE6EA4
:10236000DE07F8E2DF07F9D7E2C1F6FFE3C1F7FFC6
:10237000E4C1F8FF0101E007000EE15BBFD71200E6
:1023800020502502F3CF1CF0F4CF1DF02602F350AD
:102390001D26000EF4201E6E20502702F3501E262C
:1023A000000EF4201F6E20502802F3501F262150EB
:1023B0002502F3501D26F4501E22000E1F2221502C
:1023C0002602F3501E26F4501F2221502702F350FC
:1023D0001F2622502502F3501E26F4501F222250A1
:1023E0002602F3501F2623502502F3501F26120009
:1023F0001F6A1E6A1D6A1C6A200EE76ED89020367E
:102400002136223623361C361D361E361F36255001
:102410001C5C26501D5827501E5828501F5809E391
:1024200025501C5E26501D5A27501E5A28501F5AF0
:08243000202AE72EE4D7120078
:082438001EEE00F02EEE00F094
:10244000F86A2B9C71EC11F02AEC12F0E1EC05F02B
:04245000FBD71200A4
:02245400120074
:0A24560080050005800400048002E8
:0624600000024B016000C8
:020000040030CA
:0100010008F6
:0100020019E4
:010003001EDE
:010005008872
:010006008079
:010008000FE8
:01000900C036
:01000A000FE6
:01000B00E014
:01000C000FE4
:01000D0040B2
:00000001FF
