:020000040000FA
:0600000065EF00F01200A4
:02002A000000D4
:04002C002A0EF66E34
:10003000000EF76E000EF86E0F010900F550056F07
:100040000900F550066F03E1056701D03DD00900B6
:10005000F550006F0900F550016F0900F550026F6F
:1000600009000900F550E96E0900F550EA6E090033
:1000700009000900F550036F0900F550046F0900ED
:100080000900F6CF07FFF7CF08FFF8CF09FF00CF31
:10009000F6FF01CFF7FF02CFF8FF0F01035302E194
:1000A000045307E00900F550EE6E0307F8E2040779
:1000B000F9D707CFF6FF08CFF7FF09CFF8FF0F01F9
:0A00C0000507000E065BBFD7120013
:0600CA001DEE00F02DEE1A
:1000D00000F0F86A019C16EC00F07FEC00F07AEC7E
:0600E00000F0FBD7120046
:0A00E60000EE00F00F0EEE6AEA6271
:0400F000FDD7120026
:0A00F4007F0E956E8C8EFFD7120070
:0200FE001200EE
:020000040030CA
:0100010008F6
:010003001EDE
:010006008178
:00000001FF
