:020000040000fa
:080000000002040000000000f2
:020000040000fa
:04000800e40300000d
:020000040000fa
:04000c00c20300002b
:020000040000fa
:04001000d403000015
:020000040000fa
:04001400ca0300001b
:020000040000fa
:04001800dc03000005
:020000040000fa
:04001c00e4030000f9
:020000040000fa
:04002000e4030000f5
:020000040000fa
:04002400e4030000f1
:020000040000fa
:04002800e4030000ed
:020000040000fa
:04002c00e4030000e9
:020000040000fa
:04003000e4030000e5
:020000040000fa
:04003400e4030000e1
:020000040000fa
:04003800e4030000dd
:020000040000fa
:04003c00e4030000d9
:020000040000fa
:04004000e4030000d5
:020000040000fa
:04004400e4030000d1
:020000040000fa
:04004800e4030000cd
:020000040000fa
:04004c00e4030000c9
:020000040000fa
:04005000e4030000c5
:020000040000fa
:04005400e4030000c1
:020000040000fa
:04005800e4030000bd
:020000040000fa
:04005c00e4030000b9
:020000040000fa
:04006000e4030000b5
:020000040000fa
:04006400e4030000b1
:020000040000fa
:04006800e4030000ad
:020000040000fa
:04006c00e4030000a9
:020000040000fa
:04007000e4030000a5
:020000040000fa
:04007400e4030000a1
:020000040000fa
:04007800e40300009d
:020000040000fa
:04007c00e403000099
:020000040000fa
:04008000e403000095
:020000040000fa
:04008400e403000091
:020000040000fa
:04008800e40300008d
:020000040000fa
:04008c00e403000089
:020000040000fa
:04009000e403000085
:020000040000fa
:04009400e403000081
:020000040000fa
:04009800e40300007d
:020000040000fa
:04009c00e403000079
:020000040000fa
:0400a00066030000f3
:020000040000fa
:0400a4001003000045
:020000040000fa
:0400a800e40300006d
:020000040000fa
:0400ac00e403000069
:020000040000fa
:0400b000e403000065
:020000040000fa
:0400b400e403000061
:020000040000fa
:0400b800e40300005d
:020000040000fa
:0400bc00e403000059
:020000040000fa
:0400c000e403000055
:020000040000fa
:0400c400e403000051
:020000040000fa
:0400c800e40300004d
:020000040000fa
:0400cc00e403000049
:020000040000fa
:0400d000e403000045
:020000040000fa
:0400d400e403000041
:020000040000fa
:0400d800e40300003d
:020000040000fa
:0400dc00e403000039
:020000040000fa
:0400e000e403000035
:020000040000fa
:0400e400e403000031
:020000040000fa
:0400e800e40300002d
:020000040000fa
:0400ec00e403000029
:020000040000fa
:0400f000e403000025
:020000040000fa
:0400f400e403000021
:020000040000fa
:0400f800e40300001d
:020000040000fa
:0400fc00e403000019
:020000040000fa
:04010000e403000014
:020000040000fa
:04010400e403000010
:020000040000fa
:04010800e40300000c
:020000040000fa
:04010c00e403000008
:020000040000fa
:04011000e403000004
:020000040000fa
:04011400e403000000
:020000040000fa
:04011800e4030000fc
:020000040000fa
:04011c00e4030000f8
:020000040000fa
:04012000e4030000f4
:020000040000fa
:04012400e4030000f0
:020000040000fa
:04012800e4030000ec
:020000040000fa
:04012c00e4030000e8
:020000040000fa
:04013000ac0300001c
:020000040000fa
:04013400e4030000e0
:020000040000fa
:04013800e4030000dc
:020000040000fa
:04013c00e4030000d8
:020000040000fa
:04014000e4030000d4
:020000040000fa
:04014400e4030000d0
:020000040000fa
:04014800e4030000cc
:020000040000fa
:04014c00e4030000c8
:020000040000fa
:04015000e4030000c4
:020000040000fa
:04015400e4030000c0
:020000040000fa
:04015800e4030000bc
:020000040000fa
:04015c00e4030000b8
:020000040000fa
:04016000e4030000b4
:020000040000fa
:04016400e4030000b0
:020000040000fa
:04016800e4030000ac
:020000040000fa
:04016c00e4030000a8
:020000040000fa
:04017000e4030000a4
:020000040000fa
:04017400e4030000a0
:020000040000fa
:04017800e40300009c
:020000040000fa
:04017c00e403000098
:020000040000fa
:04018000e403000094
:020000040000fa
:04018400e403000090
:020000040000fa
:04018800e40300008c
:020000040000fa
:04018c00e403000088
:020000040000fa
:04019000e403000084
:020000040000fa
:04019400e403000080
:020000040000fa
:04019800e40300007c
:020000040000fa
:04019c00e403000078
:020000040000fa
:0401a000e403000074
:020000040000fa
:0401a400e403000070
:020000040000fa
:0401a800e40300006c
:020000040000fa
:0401ac00e403000068
:020000040000fa
:0401b000e403000064
:020000040000fa
:0401b400e403000060
:020000040000fa
:0401b800e40300005c
:020000040000fa
:0401bc00e403000058
:020000040000fa
:0401c000e403000054
:020000040000fa
:0401c400e403000050
:020000040000fa
:0401c800e40300004c
:020000040000fa
:0401cc00e403000048
:020000040000fa
:0401d000e403000044
:020000040000fa
:0401d400e403000040
:020000040000fa
:0401d800e40300003c
:020000040000fa
:0401dc00e403000038
:020000040000fa
:0401e000e403000034
:020000040000fa
:0401e400e403000030
:020000040000fa
:0401e800e40300002c
:020000040000fa
:0401ec00e403000028
:020000040000fa
:0401f000e403000024
:020000040000fa
:0401f400e403000020
:020000040000fa
:0401f800e40300001c
:020000040000fa
:0401fc00e403000018
:020000040000fa
:04020800e40300000b
:020000040000fa
:04020c00e403000007
:020000040000fa
:04021000e403000003
:020000040000fa
:04021400e4030000ff
:020000040000fa
:04021800e4030000fb
:020000040000fa
:04021c00e4030000f7
:020000040000fa
:04022000e4030000f3
:020000040000fa
:04022400e4030000ef
:020000040000fa
:04022800e4030000eb
:020000040000fa
:04022c00e4030000e7
:020000040000fa
:04023000e4030000e3
:020000040000fa
:04023400e4030000df
:020000040000fa
:04023800e4030000db
:020000040000fa
:04023c00e4030000d7
:020000040000fa
:04024000e4030000d3
:020000040000fa
:04024400e4030000cf
:020000040000fa
:04024800e4030000cb
:020000040000fa
:04024c00e4030000c7
:020000040000fa
:04025000e4030000c3
:020000040000fa
:04025400e4030000bf
:020000040000fa
:04025800e4030000bb
:020000040000fa
:04025c00e4030000b7
:020000040000fa
:04026000e4030000b3
:020000040000fa
:04026400e4030000af
:020000040000fa
:04026800e4030000ab
:020000040000fa
:04026c00e4030000a7
:020000040000fa
:04027000e4030000a3
:020000040000fa
:04027400e40300009f
:020000040000fa
:04027800e40300009b
:020000040000fa
:04027c00e403000097
:020000040000fa
:04028000e403000093
:020000040000fa
:04028400e40300008f
:020000040000fa
:04028800e40300008b
:020000040000fa
:04028c00e403000087
:020000040000fa
:04029000e403000083
:020000040000fa
:04029400e40300007f
:020000040000fa
:04029800e40300007b
:020000040000fa
:04029c00e403000077
:020000040000fa
:0402a000e403000073
:020000040000fa
:0402a400e40300006f
:020000040000fa
:0402a800e40300006b
:020000040000fa
:0402ac00e403000067
:020000040000fa
:0402b000e403000063
:020000040000fa
:0402b400e40300005f
:020000040000fa
:0402b800e40300005b
:020000040000fa
:0402bc00e403000057
:020000040000fa
:0402c000e403000053
:020000040000fa
:0402c400e40300004f
:020000040000fa
:0402c800e40300004b
:020000040000fa
:0402cc00e403000047
:020000040000fa
:0402d000e403000043
:020000040000fa
:0402d400e40300003f
:020000040000fa
:0402d800e40300003b
:020000040000fa
:0402dc00e403000037
:020000040000fa
:0402e000e403000033
:020000040000fa
:0402e400e40300002f
:020000040000fa
:0402e800e40300002b
:020000040000fa
:0402ec00e403000027
:020000040000fa
:0402f000e403000023
:020000040000fa
:0402f400e40300001f
:020000040000fa
:0402f800e40300001b
:020000040000fa
:0402fc00e403000017
:020000040000fa
:04030000e403000012
:020000040000fa
:04030400e40300000e
:020000040000fa
:04030800e40300000a
:020000040000fa
:04030c00e403000006
:020000040000fa
:04031000e403000002
:020000040000fa
:04031400e4030000fe
:020000040000fa
:04031800e4030000fa
:020000040000fa
:04031c00e4030000f6
:020000040000fa
:04032000e4030000f2
:020000040000fa
:04032400e4030000ee
:020000040000fa
:04032800e4030000ea
:020000040000fa
:04032c00e4030000e6
:020000040000fa
:04033000e4030000e2
:020000040000fa
:04033400e4030000de
:020000040000fa
:04033800e4030000da
:020000040000fa
:04033c00e4030000d6
:020000040000fa
:04034000e4030000d2
:020000040000fa
:04034400e4030000ce
:020000040000fa
:04034800e4030000ca
:020000040000fa
:04034c00e4030000c6
:020000040000fa
:04035000e4030000c2
:020000040000fa
:04035400e4030000be
:020000040000fa
:04035800e4030000ba
:020000040000fa
:04035c00e4030000b6
:020000040000fa
:04036000e4030000b2
:020000040000fa
:04036400e4030000ae
:020000040000fa
:04036800e4030000aa
:020000040000fa
:04036c00e4030000a6
:020000040000fa
:04037000e4030000a2
:020000040000fa
:04037400e40300009e
:020000040000fa
:04037800e40300009a
:020000040000fa
:04037c00e403000096
:020000040000fa
:04038000e403000092
:020000040000fa
:04038400e40300008e
:020000040000fa
:04038800e40300008a
:020000040000fa
:04038c00e403000086
:020000040000fa
:04039000e403000082
:020000040000fa
:04039400e40300007e
:020000040000fa
:04039800e40300007a
:020000040000fa
:04039c00e403000076
:020000040000fa
:0403a000e403000072
:020000040000fa
:0403a400e40300006e
:020000040000fa
:0403a800e40300006a
:020000040000fa
:0403ac00e403000066
:020000040000fa
:0403b000e403000062
:020000040000fa
:0403b400e40300005e
:020000040000fa
:0403b800e40300005a
:020000040000fa
:0403bc00e403000056
:020000040000fa
:0403c000e403000052
:020000040000fa
:0403c400e40300004e
:020000040000fa
:0403c800e40300004a
:020000040000fa
:0403cc00e403000046
:020000040000fa
:0403d000e403000042
:020000040000fa
:0403d400e40300003e
:020000040000fa
:0403d800e40300003a
:020000040000fa
:0403dc00e403000036
:020000040000fa
:0403e000e403000032
:020000040000fa
:0403e400e40300002e
:020000040000fa
:0403e800e40300002a
:020000040000fa
:0403ec00e403000026
:020000040000fa
:0403f000e403000022
:020000040000fa
:0403f400e40300001e
:020000040000fa
:0403f800e40300001a
:020000040000fa
:0403fc00e403000016
:020000040000fa
:100400006fcc20000e7f22000e018800000000004b
:10041000000020000000e000020032000001200087
:1004200020028800140007003d0107000000e000e2
:1004300003003a00e0dd2100010020000200370047
:100440000000200001002000810f70000100320038
:1004500014000700000020000000e000020032004d
:100460000000020000000000c417020000000000ad
:100470000040da000000fe004440a900c037200020
:100480000000e000030032000020200090018800fe
:100490004440a800000006008a1f78008b1f7800e7
:1004a00000000600a1028800800478000000eb0034
:1004b0001f003700e284440054a0b4009905ba003c
:1004c000e284440054a0b4009906ba00e2844400d7
:1004d00054a0b4000006eb00476fde00fd07b20039
:1004e000ae018800636ce10003003a00eaff0700f8
:1004f0000000eb000e003700606ce10008003a00dd
:10050000004deb000a05e800020039003420ec0041
:100510000af0a0008b05e900f9ff3e000400370057
:100520006168e100010032000086eb000b0007006b
:1005300019c7ba001905ba000e04e00003003a001a
:100540000a00e000dbff3a0000000600fe07b200f0
:10055000ae0288008a047800f5ff37000cd0a300b3
:10056000e20f4d001c00390089027800354dba00b9
:100570000a05e800020039003420ec000af0a0006f
:100580008b05e9000f003200254dba000a05e8008e
:10059000020039003420ec000af0a0008b05e900cd
:1005a000080032000c00e0000600320015cdba0051
:1005b0000a05e800020039003420ec000af0a0002f
:1005c0008b05e9008984e80054a0b4000b00e0002a
:1005d000e2ff3a00000006009902ba00055d7800cb
:1005e0008b05e900f7ff3200c82ade00055d7800c0
:1005f0008b05e900f3ff32000c00e000f1ff320050
:1006000019ddba00eeff37006c06040000000000a0
:10061000d20a0400000000000000040000000000f6
:10062000809fbe000000fa00615a80000020200078
:10063000008060000000e0000200320097e0a900a6
:100640001f00370087e0a90018003700505a8000cb
:10065000104078000080fb00a0118800505a8000f4
:100660000000e800505a8800515a800060b5200010
:10067000808f500002003a00e0b42000505a8800f9
:10068000605a80000080a100605a8800515a8000a2
:10069000405a8000808f500004003a00605a800069
:1006a0000090a000605a880005003700911180007a
:1006b00000202000008060000000e000e3ff320026
:1006c0000080fa004f00be0000400600809fbe0080
:1006d0000000fa0018003700205a8000b111800095
:1006e0008140780001487800205a80000000e8002e
:1006f000205a8800215a800060bd2000808f500061
:1007000002003a0060b52000205a8800605a80003c
:100710000010a100605a8800215a8000305a8000e1
:10072000808f500004003a00605a80000000a00052
:10073000605a88000400370090118000610060005a
:100740000000e000e4ff3a0087c0a9000080fa0042
:100750004f00be0000400600801f78000000fa0035
:1007600090118000620060000000e0000100320093
:100770003222a9008c40a9000080fa004f007800c6
:10078000004006003600f8008020a9000000eb00c1
:10079000be0e07003600f800c00e07008040a9001a
:1007a00010002000b90e07003600f8008060a90094
:1007b00020002000b50e07003600f8008080a90058
:1007c00030002000b10e07000040da000000fe00fb
:1007d0000a00fa0011002000b1bf9f00c0bf9f00b7
:1007e0006a805700f40607004fb897000080fa00af
:1007f000000006000a00fa0051002000b1bf9f006f
:10080000c0bf9f006a805700ed0607005fb89700e1
:100810000080fa0000000600889fbe008004780077
:10082000206680000000e00004003a000e0007008f
:100830000084eb000000e00008003500286680001e
:100840000900e0000500320009004400060007002e
:100850000000e00001003d000084eb00080078008b
:100860004f04be0000000600800078000100e00098
:1008700003003a0000002000206688000000050008
:100880000080eb0002002000828f500002003e003a
:10089000216688000000eb00000006000800fa0056
:1008a0001007980021079800320798000000000008
:1008b0001111800000102000008060000000e000a6
:1008c000fbff3200be009000010f78000e003700e1
:1008d0000000000011118000001020000080600066
:1008e0000000e000fbff32002e0090001040780076
:1008f0000000fb00201188002e0090000000e8009e
:10090000200798001e0fe9001e0078000000e0009c
:10091000efff3a003e0090000080fa000000060061
:1009200000000500e1bf20002f00070080007800d4
:100930000080eb000100e00004003500e1bf200072
:10094000a0002000020007004f80de00000006002b
:10095000889fbe008a1f78000004be00c900900076
:1009600069009000808f5000050039000900780070
:10097000910007008080eb000000e00016003500c9
:10098000084578004900900008587800c004980095
:100990001900780000b8a30004003a0000a8a300e2
:1009a00007003200ea4f540005003a0009007800c1
:1009b000070307008080eb000000e00006003a001b
:1009c00000c02000190060000200320049009000c1
:1009d000e00498008a80fb00010078004f05780051
:1009e0004f04be0000000600889fbe008a9fbe0024
:1009f0008c1f780080047800010478002f003700f5
:100a0000c800900068009000808f500004003900fa
:100a100008007800680007000000e0003a00350098
:100a200000402000180060000a003200a1002000f1
:100a30000900780050000700000678000c00e00074
:100a400004003200618514000a054600cfd5de009f
:100a500004003700090078003b0007000005be00d5
:100a60000006eb0048009000680190000001510072
:100a7000cf91de008a0f51008b8f590002003100a8
:100a80000205be000006eb000a01be0089007800e6
:100a900022000700480090000a004000400498002f
:100aa0000c00e0000400320008007800c8020700d3
:100ab0000000e00014003a008a8444001904e000b9
:100ac000cfff3a00008020001800600006003200ce
:100ad00008007800be020700800078000080eb006c
:100ae0000100e00009003a0001c020009880600089
:100af0000000eb0005003200480090006004980000
:100b00000000eb00010037000080eb004f0678008a
:100b10004f05be004f04be00000006000202be00ea
:100b20008001eb000400370061f07900610252009f
:100b3000e0825a008301e800e00f5200e08f5a0083
:100b4000f9ff3a0000000600800078000000eb008a
:100b5000610ab8006101b800040341000000e80028
:100b6000644179000204e000f9ff3a0001005300fb
:100b7000cf80de0000000600889fbe006011b80034
:100b80006103b8006112b8000404430085844b007f
:100b900066427a00814f520001003a0088017800d5
:100ba0000201e8000404e000f5ff3a0003007800c9
:100bb0004f04be0000000600889fbe008a1f780018
:100bc00000047800c8009000680190000000eb006d
:100bd000828f50003d003900180078002200290063
:100be00002016000e20f51000700320001202400e2
:100bf0000000e00001003d0001202000008c70009a
:100c00000080eb0031003700020026000200600087
:100c1000820f500009003a0038009000808f500089
:100c2000060039000800780069020700800078009b
:100c30000080eb000100e00024003a001805780075
:100c400000c020000000650019003a00a8049000d0
:100c50006002200008004000808f540014003a0019
:100c600000202000010020008903070020049800d4
:100c70000000e00005003a002904980049049800ab
:100c80008904e80039049800080037000a60a000d1
:100c90000a0c780040049800012020008080400069
:100ca00031049800400c9800500c9800f2010700a5
:100cb00028009000500498003800900060049800cc
:100cc00000002600180c70000000eb004f057800b3
:100cd0004f04be0000000600881f78008a9fbe00f7
:100ce00000047800010078000205be00880078004a
:100cf0000202be001200200003002000be02070016
:100d00008a0f50008b8f5800010032000004eb0066
:100d1000080078004f05be004f0478000000060070
:100d20000000fa00e88157004fb99700e1bf2000aa
:100d3000c0662000020007000080fa0000000600e4
:100d40006200fa00889fbe008a9fbe0000057800fe
:100d500081047800020478008300780060f92f0095
:100d60000f0040006d0207008a979f0099979f002f
:100d70000000eb00a09f9f001885fb008a04fb0089
:100d80000a05ea004f55de0050022000808f540013
:100d90000e003200e10f55000c003a001200200056
:100da00003002000880078001f9097000f929700a2
:100db0000400010090979f000000e0009d003200b9
:100dc0002f9897000000e800a09f9f000a044400ad
:100dd00050022000808f5400040032000900e0001f
:100de000e5ff3a002f989700930037000000eb00d2
:100df000809f9f00f0979f00e0979f00d0979f00f3
:100e0000c0979f00b0979f00c09f9f008004eb0099
:100e10000800370041cb2000810050008100d00045
:100e200082ca2000828040004f9897001100700015
:100e3000c09f9f006141b8006148b80002054000b2
:100e4000e24578008b00fb0040cb20001b0207002e
:100e50008904e8000000e000eeff3a00a1c2b30000
:100e600081cf55000e003a00bf8897000180e9004d
:100e7000b08f9f0010007800b09f9f000000e0003e
:100e800005003d000000ea00b09f9f004f989700ca
:100e90000020a000c09f9f000a04e8001200370055
:100ea000b09f9f006000b80006003700f3ff2700e6
:100eb000830f5000020032006a02b90004004100b2
:100ec0008100e8006152b8006109b80004044100e3
:100ed000644179000201fb000203b100e90f5100f7
:100ee000f2ff3600b09f9f00e0c2b300984f1000a1
:100ef000030032000080eb00909f9f00210037002c
:100f000008007800a1c2b300d0cf100007003a005b
:100f10003f8997008280e900b18f9f00910078009f
:100f2000919f9f000004e800160037000000eb00ce
:100f3000909f9f008000eb0006003700f3ff270022
:100f4000830f5000020032006a02b9000400410021
:100f50008100e8000802e8008002eb006109b800a7
:100f60000203420083834a00644179000201fb00ce
:100f70000203b100e90f5100f0ff3600909f9f007f
:100f800006047800984478008900fb0000ca20001d
:100f9000ca0107000000e000020032000804e80077
:100fa000010037008044eb00a97f9f0080c6b3009a
:100fb00080cf540004003a0098cf14000a003a0091
:100fc0006640500006003700c0c6b30080cf540012
:100fd00005003a0098cf140003003a006540400035
:100fe000a07f9f000804e8001801fb00c3fb2f004e
:100ff0008f81410061f92f008f80400080f92f0020
:101000000f004000100007000000e00009003a0057
:10101000c1fb2f008f80400080f92f000f0040009f
:10102000260407000000e000020035000804e80084
:1010300051ff37000080eb004f05be004f04be009b
:101040000080fa0000000600881f7800e4c6b300a4
:10105000844f5100b800320010003c006b42520037
:10106000844f51001800320005003c0054c2b30008
:10107000844f5100f000320084c5b3000f003700e8
:1010800044c6b300844f5100140032006542420050
:10109000844f5100eb003a001000370004c7b30042
:1010a000844f5100d70032005300350065424200a2
:1010b000844f51005000320063424200844f51007f
:1010c000e0003a004c0037001181e9008208780006
:1010d000f000900012417800d800370020629000a4
:1010e000c5c6b300854f520007003a009102780050
:1010f00064825200840878001402be004fabde0008
:10110000860378001100370015c7b300854f5200e1
:1011100003003200a5c6b300854f520006003a0016
:101120009102780068825200840878005403be005f
:101130004402be00050037001182e90084087800ef
:1011400014027800cfa2de00612bb9000498be0023
:101150000690be00a060900088c6b30088cf500003
:101160000d00320028c6b30088cf500004003a00ba
:101170000402fb00cfa2de00612bb900080037009b
:1011800048c7b30088cf50000300320066444400d3
:1011900088cf500004003a00cfa2de00612bb900d6
:1011a0000498be000690be003002be002003be00c0
:1011b000f0009000e00f5200e08f5a00e00f5b005b
:1011c000e08f5b0002003d00d4c2b300080037008e
:1011d000001290000418a30002003200b4c2b30051
:1011e000030037000408a3004e00320004c2b3001d
:1011f00084f178004900370020629000c5c6b30032
:10120000854f520006003a00910278006482520035
:10121000840878001402be006033b8001100370063
:1012200015c7b300854f520003003200a5c6b300b6
:10123000854f520006003a00910278006882520001
:10124000840878005403be004402be000500370045
:101250001182e90084087800140278008002eb0013
:101260006033b8000498be000690be00a0609000f5
:1012700088c6b30088cf500003003a008002eb001c
:101280006033b8000e00370028c6b30088cf500086
:1012900004003a000482fb008002eb006033b800d7
:1012a0000700370048c7b30088cf50000300320062
:1012b0006644440088cf500003003a006033b80011
:1012c0000498be000690be00801090000138a30074
:1012d000140032003002be002003be00e00f5200b6
:1012e000e08f5a00e00f5b00e08f5b000d003200e2
:1012f00081c7b300814f51000300320081c5b300a4
:10130000814f510007003a00f000900004c3b30081
:1013100084f178008100e80082f178008100e80023
:1013200071009800f00090008181410063009800f6
:10133000824078003e003700a0619000c4c6b30030
:101340001181e90084cf5100220032000a003c00e4
:101350006442520084cf51002500320004c2e800ec
:1013600084cf5100130032006842520084cf5100f4
:101370001e003a000a00370044c7b30084cf510072
:101380001b0032006642420084cf5100110032003f
:101390006942520084cf510014003a000500370022
:1013a00082087800920078004058900080487800c9
:1013b0002c0037008208780092007800600a9000c4
:1013c000cfa2de00612bb9008498be008690be00db
:1013d00024003700820878009200780060099000ad
:1013e000cf91de008288be001e0037001181e90027
:1013f00082087800920078006008900080087800e9
:10140000180037001181e900820878001202780084
:10141000cfa2de00612bb9000498be000690be008a
:10142000f0009000818141006300980081c7b30003
:10143000f20107000b003700f000900082f1780005
:1014400006003700f0009000818141000204e000b6
:1014500001003a0052c2b300824978008100e800de
:10146000710098000000eb004f04780000000600b7
:1014700020ad20009d003700881f780028cc200078
:101480001804e00003003a00f9ff070020c0b30091
:10149000004c78004f04780000000600889fbe00d2
:1014a00000047800080078004900070080047800f4
:1014b00000042000180060000200320028009000a4
:1014c000980007000000eb002004980038409000ce
:1014d0000004e000050035000000fb00bcfc070034
:1014e0000000e000010032008084eb001810900042
:1014f0000000e00008003200befc07000000e00031
:10150000010032008084eb00181090008500070075
:101510000000eb0010149800000820001800600084
:101520000f003200c1c420000000eb00d10f1400f6
:1015300005003a0000004000e1c4200000804000a7
:101540000008eb00030037000000e800e80f50003f
:10155000f6ff3a0008007800720007000e0037001e
:10156000000c780000c0eb003044980060022000be
:10157000080040002004980040049800500498009f
:10158000400c980060049800500c9800700498007b
:1015900076004400000c9800090078004f04be005b
:1015a00000000600889fbe00e8c52000f00454003b
:1015b000480078000000e00001003200b7ff07009b
:1015c000890f5400faff3a004f04be0000000600e5
:1015d000889fbe008a1f7800000478000800e000a1
:1015e0000d003a00c8c42000700544008004eb00e0
:1015f000580078000000e00004003200f4ff07000b
:101600000000e00001003d008084eb008a0f5400e0
:10161000f7ff3a00250037000000220018006000a4
:101620008004eb0021003200a80490000f00370076
:1016300009015100384090000000fb00890078004b
:1016400096fc07000000e00007003c002800900026
:101650004004980060049800500c98001890a00076
:101660008084eb0011003700808444004801900022
:10167000828f5400eeff390028009000400498004b
:101680009800780002c020000281600001003a004a
:101690003800900001e8a3000200320060049800c6
:1016a00001003700500c98008004eb00090078001e
:1016b0004f0578004f04be0000000600020037000e
:1016c0000304e00006003200000178000200780008
:1016d000b041780081cf5100f9ff3a000100370096
:1016e0000001eb000200780000000600010020006d
:1016f0000100e00008003200010080000100e0006d
:10170000050032008100e90001008800818040006e
:101710000200800000b17800000006000108780097
:10172000000006000000e000320032004002be006f
:10173000e50f5200e08f5a002e0036000408a30087
:101740002c003a00016680000100e0000200320037
:10175000810f5000040031002100980000668800cd
:101760001700370082007800210190000200e0009d
:1017700002003200800f5100faff39001103be0051
:1017800086814000830f50001a003900808f51007d
:1017900004003a008418430085904b000100780053
:1017a000070037000200e00003003200040240009e
:1017b000840f51000f00390022009800a00098000b
:1017c000a00090000100e0000a003200100140007b
:1017d000828f500007003a00e2cb20000009eb00a6
:1017e0001001be003118410021904900a100900075
:1017f0002100980000000600ea874700889fbe008d
:101800008a9fbe008c9fbe008e1f78000006780065
:101810000204be000405be00010778000400be00fb
:101820000b030700d0b79f00e1b79f00e00f500007
:10183000e08f580052003200e00f5400e08f5c004f
:1018400050003200fcb79f000006be00ce009000a2
:101850006e009000808f5000040039000e00780068
:10186000d5fc07000000e0003300350000402000f8
:101870001e0060000c0032000c01be00a100200020
:101880007fb09700b9000700000278000400e00074
:1018900008003200ffb19700618511000a0542007f
:1018a000cfd5de00040037000c05be000002eb00bf
:1018b000010037000c05be004e0090006e01900044
:1018c00000015100cf91de008a0f51008b8f59002b
:1018d000020031000205be000002eb000a01be005a
:1018e000ffb0970084bf9f008cfc07000a065600db
:1018f0008b865e004e0090000a0040004007980072
:101900000fba97000400e000040032000e007800d7
:101910002fff07000000e00007003a00e00f56002c
:10192000e08f5e00040032007fb097000a004000a4
:10193000f0b79f00c5ff3700008020001e00600048
:10194000020032000e00780021ff070000c02000d6
:101950001e00600002003200ce0090006107980077
:101960005fb19700efb197000c0051008d805900d6
:101970000801be00a30207000005be0001003700f9
:101980006055b8000a00be004f0778004f06be0041
:101990004f05be004f04be00af00b10000000600be
:1019a000889fbe008a9fbe000004be00f1658000d3
:1019b0000100e00002003200010078000f00370053
:1019c0000166800000cc200005003700b10f5400f4
:1019d000a18f5c002b00360064804000a1009000c5
:1019e0000100e000f9ff3a0012003700b20f540086
:1019f000a28f5c00230036006400410010017800d3
:101a00000200e000f9ff3a00110178000166800051
:101a100000cc200005003700b10f5400a18f5c00fe
:101a20001800360064804000a1009000828f5000b2
:101a3000f9ff3a00da658000eb658000880f5500f9
:101a4000898f5d00010031000805be000a00be005c
:101a50005e0007000000e00006003a00880f550015
:101a6000898f5d00060032008b05d1000a85d30006
:101a7000f2ff37000a98be002aff0700cbff3700ad
:101a80000000eb004f05be004f04be000000060042
:101a9000889fbe000002be0065004000e080480054
:101aa000000378000600a10081017800060178009b
:101ab0000204be008000eb00840f5400858f5c00a0
:101ac00027003600e50f5400e08f5c0002003e0066
:101ad00068002000090020000800be00b0ff0700d9
:101ae0008000eb000000e0001d0032009000780054
:101af000a4ff2f00f5ff2f0031014200a1814a0011
:101b0000880f5100898f590003003100a102900015
:101b100005087800080037000881400002087800b6
:101b2000a1019000230198001001780031191400e0
:101b300021911c008888be00100178000000eb0095
:101b40000200e00004003200a20190000300e00067
:101b50000100320064004100f0658800e48040002c
:101b6000010078004f04be0000000600889fbe0000
:101b70008a9fbe000202be008001eb000600370013
:101b80008301e80066417c00814f51000b00320068
:101b900061025200e0825a006103b800611cb80083
:101ba0000805430089854b00e00f5200e08f5a0082
:101bb000f3ff3a000000eb00010037000a00780054
:101bc0004f05be004f04be00000006000001be002d
:101bd0008000eb000200e000060034000200780004
:101be0000dfb070080007800e18f400001003a0003
:101bf0008000eb000100780000000600fc87470031
:101c0000889fbe008a9fbe008c9fbe008e1f7800fa
:101c10000006780080c5b30080cf50000a00320073
:101c20007740400080cf50000a00320069404000f9
:101c300080cf50000b003200f0c6200080bf9f0014
:101c4000ae0020000a003700e2c5200082bf9f00de
:101c500006003700f3c6200083bf9f008e002000df
:101c600003003700f4c6200084bf9f000e0120004f
:101c70003c02be002c03be000605be000404be00ec
:101c800040c6b30080cf50000300320065404000e2
:101c900080cf50000b003a00e00f5200e08f5a0056
:101ca000e00f5b00e08f5b0006003d006000b800c5
:101cb0006011b800040450008584580006055900de
:101cc00087855900e80f57000400320040002000cb
:101cd000f00f570038003a000100370030002000b4
:101ce000e00f5400e08f5c00e00f5d00e08f5d00ce
:101cf00004003a00dc0890008d0120000100e000a3
:101d0000060032008e00e900888060008fba9700dc
:101d1000e5c07800f1ef9f007d0120008000780091
:101d20008100e900050033008b05d1000a85d3004e
:101d30008984d3000884d300f9ff3700089ebe00d1
:101d40000a96be00120037008d06e9008e00e900f9
:101d5000848060000fb99700e2c1780082fd2f00f7
:101d60000f01410003f17e00800078008100e9004e
:101d7000050033008783d1000683d3008582d3001a
:101d80000482d300f9ff3700049ebe000696be0011
:101d90003c02be002c03be00e00f5200e08f5a0050
:101da000e00f5b00e08f5b008b0034000d00e00073
:101db000e5ff3c00880037002c60900081c6b3002e
:101dc000814f50000b00320006003c000004e00090
:101dd00008003200e6c05000814f50004e003a002b
:101de00004003700c1c6b300814f50004a003a00da
:101df000210037000800e00004003a005c08900071
:101e00008d0120000000e0000600320011000900f2
:101e10000e84d8000fb99700e2c07800f1ef9f0060
:101e20007d012000110009000e84d8000a0037004f
:101e3000110009000e04d8008d06e9000e81b900da
:101e4000020454008fb8970061417c0081fd2f008f
:101e50008f80400082f07e00000478000800e000df
:101e6000020032000d00e000f1ff3c00cfc4de00b4
:101e7000614db90025003700e00f5400e08f5c0091
:101e800004003a005c0890008d0120000000e00092
:101e9000070032006171b9000800be006901070047
:101ea0008fb99700e3417800f3ef9f007d01200098
:101eb0006171b9000800be00520107000b00370035
:101ec0006171b9000800be003f0107008d06e900fe
:101ed00000f1b900020454000fba9700e4427c00fc
:101ee00084fd2f000f02420005f27e000004be00b8
:101ef000e00f5000e08f5800020032000d00e000bb
:101f0000efff3c004fcdde008a057800089ebe0042
:101f10000a96be0030003700e00f5400e08f5c00ee
:101f2000e00f5d00e08f5d0004003a005c08900067
:101f30008d0120000000e000090032006172b9004c
:101f4000612bb9000800be000a01be00e6010700cf
:101f50000fba970064427800f4ef9f007d012000e3
:101f60006172b900612bb9000800be000a01be0011
:101f7000d60107000d0037006172b900612bb9006e
:101f80000800be000a01be00db0107008d06e90063
:101f900000f2b900040454008fba970065427c0037
:101fa00085fd2f008f82420084f27e00009ebe00dd
:101fb0000296be003c04be002c05be00e00f54009b
:101fc000e08f5c00e00f5d00e08f5d0002003400f8
:101fd0000d00e000e8ff3c00e80f570010003a0059
:101fe0000c1090000038a3000d003200f78f56004f
:101ff00006003e0085fd2f008f824200e5c07e0076
:1020000000c3b30080cf5000050032008d06e90008
:1020100002c3b30081fd2f008f80400082f07e005c
:10202000f8801600110e98006c0090006109b9004c
:1020300084fd2f000f0242008d004200b7fa070016
:102040001c089000dc089000810f500006003d0045
:1020500000805000000e98000c1090000040a1007d
:10206000001698000f0037000100e0000d003d0051
:102070008c109000f4806000f08f500009003a004e
:102080007c099000fc009000810051000c09900038
:1020900082805000008050004240a90001003400be
:1020a000000e98004f0778004f06be004f05be0097
:1020b0004f04be00cf01b100000006000400fa008a
:1020c000889fbe008a9fbe008c1f780000047800a5
:1020d00001067800f80d900078009000808555008a
:1020e00008089000808555001808900080855500ec
:1020f000280890008085550038089000808555009c
:1021000048089000808555000002220090bf9f0083
:1021100000032300a0bf9f00081090000028a30028
:1021200015003a000b00e000130034000b057800a6
:102130008a047800e20f55000100360029002000d3
:102140006149b90048029000ee80570058009000a5
:1021500004000100500498000000e0008f003200ed
:102160006808900009004000600c980009055500bf
:102170004240a900eeff3c00780090000000e00023
:102180000d0034006101b900480290008c00780015
:102190005800900004000100500498008080eb007b
:1021a0000000e0007e003200e80890007800900017
:1021b00000804000600c9800880c90000900e0004e
:1021c0001100340009057800e28f54000100360048
:1021d0002a0020006151b90048029000ec805700ad
:1021e0005800900004000100500498000000e00036
:1021f0006a003200680890000a004000600c9800f5
:102200008a845400edff3700180890000000e000b9
:102210000d0034006101b90048029000e800900010
:102220005800900004000100500498008080eb00ea
:102230000000e0005a003200e80890001808900002
:1022400000804000600c9800a80c90000900e0009d
:102250001100340009057800e28f540001003600b7
:102260002a0020006151b90048029000ec8057001c
:102270005800900004000100500498000000e000a5
:1022800046003200680890000a004000600c980088
:102290008a845400edff3700380890000000e00009
:1022a0000f0034006101b90018089000e8009000a8
:1022b0008080400048029000580090000400010017
:1022c000500498008080eb000000e00034003200f1
:1022d000e80890003808900000804000600c9800ea
:1022e000c80c90000900e0001100340009057800d6
:1022f000e28f5400010036002a0020006151b9002d
:1023000048029000ec805700580090000400010043
:10231000500498000000e00020003200680890009f
:102320000a004000600c98008a845400edff3700da
:10233000081090008000eb000028a3001800320075
:102340000b00e000160034008b04780009057800cb
:10235000e28f5400010036002a0020006151b900cc
:1023600048029000ee8057005800900004000100e1
:10237000500498000000e000080032006808900057
:102380000a004000600c98008a8454004240a90072
:10239000eeff3c008000eb00010037008080eb0086
:1023a000010078004f0678004f05be004f04be00c4
:1023b0000080fa000000060000c0da0000000600fd
:1023c00000c0da0000000600839f68000100e00002
:1023d00002003d0060001000e08018000300e000f3
:1023e00002003d0060011100e081190005000700b6
:1023f0004f00e00002003b0060001000e080180089
:10240000000006006022b800060220000000d00094
:102410008180d2000482d2008582d2000000a00018
:102420000202520083825a0003003100020242007d
:1024300083824a000000a1000603e900f3ff3a008e
:1024400000000600efff07000400be0000000600c9
:10245000020ab900001bb9000200b8008100420066
:102460008100430000000600889fbe008a9fbe00d6
:1024700030044200b0844a0030054b0090854b0088
:102480006000b1000898be000a90be000440e10060
:1024900005c8e10006d0e10007d8e10002003100e4
:1024a000680040001008e8004f05be004f04be0061
:1024b00000000600889fbe008a9fbe003004be0058
:1024c0002005be000418540005985c0006185d0045
:1024d00007985d00110020000440e10005c8e100fc
:1024e00006d0e10007d8e100010039008000eb00d0
:1024f000108810004f05be004f04be00000006000b
:102500001200fa00889fbe008a9fbe008c9fbe000a
:10251000e0b79f00f1b79f0082bf9f0093bf9f006d
:102520000605be000404be000000eb00d0b79f000b
:10253000c0b79f00b0b79f00a0b79f0090b79f00a3
:102540000006eb005fb19700cfb097008201410019
:102550003fb097000200e00004003d003700070094
:102560007e805700c0ff07000300370033000700dc
:102570007e805700cfff0700dfb697000d00e00018
:102580000c0035006fb29700ffb297000fbb9700a9
:102590009fbb970010002000010020006011b800d0
:1025a0000002720081827200020373008383730051
:1025b0001b0007000c06e80001042000810f5600f4
:1025c000e0ff3a000d00e00004003d000802be00fc
:1025d0000a03be007e805700a3ff07005fa8970094
:1025e0000000e00005003a001fb29700afb297006c
:1025f0003fb39700cfb39700090007006fb0970073
:10260000ffb097000fb997009fb997004f06be0023
:102610004f05be004f04be000080fa000000060017
:102620000100070000000600a4b79f00b5b79f0097
:10263000c6b79f00d7b79f00000006004f09de0015
:1026400082817100b3b79f004f01de00818040009e
:1026500082807000a1b79f008fb097004f09de0005
:10266000000040000200700090b79f007fa8970014
:102670004f01de00818040008280700081b79f00a2
:102680000d0007004f3ade0000004000040070001b
:10269000f0af9f00080007000402420085824a0054
:1026a00006034b0087834b00dfff07000802be00d4
:1026b0000a03be00000006002fb29700bfb29700c9
:1026c0004fb39700dfb3970000000600881f780023
:1026d00018002000881f780089ff07008f87e90015
:1026e0004f04780000000600801feb0084ff070005
:1026f0008f87e90000000600889fbe008a9fbe0009
:10270000e00f5000e08f5800e00f5900e08f5900b3
:102710000c003d006044b8006055b8000000540053
:1027200081805c0002015d0083815d001800200053
:102730001500070008003d00180007000004eb002a
:10274000050037000004eb000f00070002003d0009
:102750001200070018002000dcff07000800e0005e
:10276000060032006022b8006033b800000052005a
:1027700081805a0002015b0083815b004f05be002f
:102780004f04be0000000600e00f5200e08f5a0028
:10279000e00f5b00e08f5b00000006006044b800c3
:1027a0006055b8000402540085825c0006035d0099
:1027b00087835d0000000600889fbe008a9fbe00e0
:1027c0008c1f7800e00f5000e08f5800e00f590098
:1027d000e08f59000d003d006044b8006055b8001e
:1027e0000000540081805c0002015d0083815d0077
:1027f0001c0020000820e10009a8e1000ab0e10067
:102800000bb8e1000d003d00080037000006eb00aa
:10281000e00f5200e08f5a00e00f5b00e08f5b009a
:1028200006003d006044b8006055b8000402540042
:1028300085825c0006035d0087835d00aaff0700b8
:102840000c00e000060032006022b8006033b800df
:102850000000520081805a0002015b0083815b000e
:102860004f0678004f05be004f04be000000060072
:020000040000fa
:1028700000000000c1c0000081c100004001000054
:1028800001c30000c00300008002000041c200003c
:1028900001c60000c00600008007000041c700001c
:1028a00000050000c1c5000081c400004004000014
:1028b00001cc0000c00c0000800d000041cd0000e4
:1028c000000f0000c1cf000081ce0000400e0000cc
:1028d000000a0000c1ca000081cb0000400b0000cc
:1028e00001c90000c00900008008000041c80000c4
:1028f00001d80000c01800008019000041d9000074
:10290000001b0000c1db000081da0000401a00005b
:10291000001e0000c1de000081df0000401f00003b
:1029200001dd0000c01d0000801c000041dc000033
:1029300000140000c1d4000081d500004015000043
:1029400001d70000c01700008016000041d600002b
:1029500001d20000c01200008013000041d300002b
:1029600000110000c1d1000081d000004010000023
:1029700001f00000c03000008031000041f1000093
:1029800000330000c1f3000081f20000403200007b
:1029900000360000c1f6000081f70000403700005b
:1029a00001f50000c03500008034000041f4000053
:1029b000003c0000c1fc000081fd0000403d000023
:1029c00001ff0000c03f0000803e000041fe00000b
:1029d00001fa0000c03a0000803b000041fb00000b
:1029e00000390000c1f9000081f800004038000003
:1029f00000280000c1e8000081e900004029000033
:102a000001eb0000c02b0000802a000041ea00001a
:102a100001ee0000c02e0000802f000041ef0000fa
:102a2000002d0000c1ed000081ec0000402c0000f2
:102a300001e40000c02400008025000041e5000002
:102a400000270000c1e7000081e6000040260000ea
:102a500000220000c1e2000081e3000040230000ea
:102a600001e10000c02100008020000041e00000e2
:102a700001a00000c06000008061000041a10000d2
:102a800000630000c1a3000081a2000040620000ba
:102a900000660000c1a6000081a70000406700009a
:102aa00001a50000c06500008064000041a4000092
:102ab000006c0000c1ac000081ad0000406d000062
:102ac00001af0000c06f0000806e000041ae00004a
:102ad00001aa0000c06a0000806b000041ab00004a
:102ae00000690000c1a9000081a800004068000042
:102af00000780000c1b8000081b9000040790000f2
:102b000001bb0000c07b0000807a000041ba0000d9
:102b100001be0000c07e0000807f000041bf0000b9
:102b2000007d0000c1bd000081bc0000407c0000b1
:102b300001b40000c07400008075000041b50000c1
:102b400000770000c1b7000081b6000040760000a9
:102b500000720000c1b2000081b3000040730000a9
:102b600001b10000c07100008070000041b00000a1
:102b700000500000c1900000819100004051000011
:102b800001930000c05300008052000041920000f9
:102b900001960000c05600008057000041970000d9
:102ba00000550000c19500008194000040540000d1
:102bb000019c0000c05c0000805d0000419d0000a1
:102bc000005f0000c19f0000819e0000405e000089
:102bd000005a0000c19a0000819b0000405b000089
:102be00001990000c0590000805800004198000081
:102bf00001880000c04800008049000041890000b1
:102c0000004b0000c18b0000818a0000404a000098
:102c1000004e0000c18e0000818f0000404f000078
:102c2000018d0000c04d0000804c0000418c000070
:102c300000440000c1840000818500004045000080
:102c400001870000c0470000804600004186000068
:102c500001820000c0420000804300004183000068
:102c600000410000c1810000818000004040000060
:102c70004d43000055200000737400006172000095
:102c800074650000640d00000052000065630000e0
:102c9000696500007665000064200000256400007e
:102ca0002062000079740000657300002074000049
:102cb0006f2000007468000065200000627500004d
:102cc00066660000657200000d0a0000003000001a
:102cd000782500003032000058200000000d000070
:102ce000005500006e690000742000006964000057
:102cf0003a200000257500000d0a00000046000083
:102d0000756e000063740000696f00006e200000a3
:102d1000636f0000646500003a2000002564000035
:102d20000d0a000000250000752000000072000060
:102d3000656300006965000076650000642000009e
:102d4000435200004320000030780000253000008e
:102d5000345800000a0d0000006400006576000091
:102d6000696300006520000069640000206d0000b8
:102d70006174000063680000657300000d000000ce
:102d8000636100006c630000756c000061740000fa
:102d90006564000020430000524300002030000022
:102da0007825000030340000580d00000a000000b3
:102db00063720000632000006d6100007463000016
:102dc00068650000730d000000520000657100008e
:102dd0007565000073740000696e000067200000d4
:102de00062690000747300002073000074610000c9
:102df00072740000696e00006720000066720000b7
:102e00006f6d00003a200000256400000a000000f9
:102e10004e7500006d62000065720000206f0000ba
:102e200066200000626900007473000020720000d8
:102e30006571000075650000737400006564000032
:102e40003a200000256400000a00000052650000de
:102e50007175000065730000696e00006720000056
:102e600072650000676900007374000065720000fd
:102e7000207300007461000072740000696e00002d
:102e800067200000667200006f6d00003a200000ad
:102e9000256400000d0a0000004e0000756d000062
:102ea00062650000722000006f6600002072000062
:102eb00065670000697300007465000072730000ac
:102ec00020720000657100007565000073740000d9
:102ed000656400003a200000256400000d0a00002f
:102ee00000720000657000006c7900006c650000e5
:102ef0006e6700007468000020250000640d00006b
:102f00000a00000063680000656300006b73000046
:102f1000756d00002025000030320000580d0000c3
:102f20000a00000063720000632000006d69000069
:102f3000736d000061740000636800000d00000004
:102f40006465000076690000636500002069000088
:102f5000642000006d690000736d00006174000062
:082f6000636800000d00000091
:020000040000fa
:102f68000200fa00000f78001e0078000080fd00c3
:102f7800000f78001e0078000080fa0000000600ac
:102f88000c00fa00881f78008804070000d420008d
:102f980031002000ad040700806329005ff60700b8
:102fa800a100200040802000370207002007980079
:102fb8002e0090000000e000f5013400ae00900003
:102fc800811f780050642900801f780052f707009d
:102fd800e48757000000eb00000f78000b00370073
:102fe8009e0078004080200000804000104078005b
:102ff8000080fb00801f780070662900801f780021
:1030080045f70700e48757001e0fe8002e009000e0
:103018009e007800808f5000f1ff3500f06629008f
:103028003ef6070040802000104078000080fb003a
:10303800801f780010672900801f780036f7070086
:10304800e487570050802000104078000080fb0083
:10305800801f7800f0672900801f78002ef707008e
:10306800e48757000000eb00000f78000c003700e1
:103078001e00e800800040004080200000804000e2
:1030880010007800b6ff0700801f7800306929001b
:10309800801f780020f70700e48757001e0fe8001c
:1030a8002e0090000080e900cf00de000080400084
:1030b8000080d1000000e9009e0f5000ecff3c00aa
:1030c800f066290015f607002e0090000080e90040
:1030d800cf00de00008040000080d1000000e90041
:1030e8000000e80080004000408020000080400090
:1030f80010007800801f780070692900801f780010
:1031080005f70700e48757004080200090407800ca
:1031180080c2b30080cf50009b013a00d06a2900da
:10312800fef507002e0090000080e900800078007e
:1031380040802000f603070030079800be0090008a
:10314800811f7800006c2900801f7800f2f60700c4
:10315800e48757002e0090000080e900cf00de00d1
:10316800008040000080d1000000e9000000e80075
:1031780080004000408020000080400090007800df
:103188003e009000808f50007c013a00806d29003d
:10319800e2f507000000eb00400798000000eb0094
:1031a8005007980050802000104078000080fb00f5
:1031b800e40f500005003c00e30f50007e003d0086
:1031c800e10f50003a01350009003700e60f5000c2
:1031d800e4003200e60f5000cd003500ef0f50003c
:1031e800f1003200f00f50000d01320030013700bd
:1031f800304080005aff070040079800ce0090003a
:10320800811f7800506e2900801f7800c2f60700e1
:10321800e48757004040800051ff0700500798009e
:10322800de009000811f780080702900801f7800e0
:10323800b9f60700e48757005e0090000000e00040
:1032480001003d00670040004380de0080407800b8
:103258006080200001487800de009000700028009f
:10326800008060000000e00004003d000000e9006c
:1032780081ff2f00008070000000e8000000e000df
:103288000500340060802000104078008040e8008d
:10329800608020000148780060802000104078009d
:1032a8000080fb0063004000100798000000eb005e
:1032b800000f780005003700608020001e004000e5
:1032c8008040eb00114098001e0fe800608020004d
:1032d800104078000080fb009e0f5000f6ff3c0075
:1032e8000000eb00000f78002e0037004e00900021
:1032f8001e0040008000780010408000808f500041
:10330800270031004e0090001e00400001ae200052
:10331800614078000004e000210032001e007800bf
:103328000000e00001003d00670040004380de002f
:10333800000178001e0078000000e00001003d0058
:10334800670040004380de008080e8004080200065
:103358000080400010409000804078009e01780076
:1033680070002800008061000000e00004003d00bb
:103378000000e90083ff2f00008071000000e800d2
:10338800130020000018dd000040780000c0700025
:1033980080407800608020000000410011409800c3
:1033a8001e0fe8005e0090009e007800808f50009d
:1033b800ceff3500be00370030408000e8fe070031
:1033c80040079800ce009000811f780060722900a5
:1033d800801f780050f60700e487570040408000bf
:1033e800dffe070050079800de009000811f78007c
:1033f800d0742900801f780047f60700e48757003b
:103408005e00900000407800004040008040780056
:10341800608020000148780060802000104078001b
:103428000080fb0063004000100798000000eb00dc
:10343800000f7800310037004e0090001e00400059
:103448008000780010408000808f50001c00310000
:103458001e00780000004000000178004e00900037
:103468001e0040008000400080a120000080400035
:10347800100078004800de0080407800608020005e
:1034880000004100114098001e0078000000400034
:103498000001e8004e0090001e004000800040003f
:1034a80080a1200000804000100078008040780053
:1034b8006080200000004100114098000e00370095
:1034c8001e00780000004000800078006080200026
:1034d800008040008040eb00114098001e007800fa
:1034e800000040008000e80060802000008040006c
:1034f8008040eb00114098001e0fe8005e0090002d
:103508009e007800808f5000cbff350068003700a0
:103518003040800092fe0700800078001040800054
:10352800808f50005f003100404080000000e000c4
:1035380006003a003040800089fe070001ae2000f6
:103548000041eb008270780059003700304080005d
:1035580083fe070001ae200012c0b300827078001d
:1035680053003700304080007dfe0700800078005f
:1035780010408000808f50004c00310030408000a7
:1035880077fe0700000478004040800074fe0700c2
:10359800800078000801440080a12000000041005c
:1035a80001087800420037000000eb00000f7800a7
:1035b800160037003040800069fe07001e004000fa
:1035c8008000780010408000808f50000e0031008d
:1035d800404080000000e00006003a0030408000d3
:1035e8005ffe070001ae20000041eb00827078000a
:1035f800050037003040800059fe070001ae20006a
:1036080012c0b300827078001e0fe80040408000ae
:1036180053fe07009e0f5000e6ff3c0024003700d1
:103628000000eb00000f78001700370030408000e2
:103638004bfe07001e00400080007800104080000c
:10364800808f50000f0031003040800044fe07009a
:103658001e0440009e007800648040008000400006
:103668004080200000804000100078003cfe0700e9
:10367800800078000801440080a12000000041007b
:10368800010878001e0fe8004040800034fe070063
:103698009e0f5000e5ff3c009000200010079800a6
:1036a80003003700000000000100370000000000a0
:1036b8001e0090000080e800801f78001077290025
:1036c800801f780094f50700e48757001e009000db
:1036d80080007800408020008d0207006048880044
:1036e80060488000801f780020782900801f7800bb
:1036f80089f50700e48757000000eb00000f780009
:103708000b0037009e0078004080200000804000b9
:10371800104078000080fb00801f78007066290048
:10372800801f78007cf50700e48757001e0fe8002b
:103738001e0090009e007800808f5000f1ff350039
:10374800f066290075f40700ec22a8001e0090001e
:10375800800078004080200080000700c090200092
:10376800210020007d000700006a280011002000c9
:10377800b6020700ec22a9000500370020792900cd
:1037880066f4070002003700007a290063f4070096
:10379800006a280011002000ac02070000fe370074
:1037a8000000fa0080002000801188003222ef001b
:1037b80030032000c011880097c0a80031e2a8009b
:1037c8003342a800e0b42000505a8800e0b420003a
:1037d800405a880060b52000305a880060b5200043
:1037e800205a8800605a80000010a000605a8800a3
:1037f800605a80000090a000605a8800605a8000db
:103808000080a100605a8800605a80000000a10072
:10381800605a88000080fa00000006000200fa00e2
:103828000040eb00004f7800305a8000104f7800bd
:10383800305a80000000e800305a8800315a800071
:1038480060bd2000808f500002003a0060b5200063
:10385800305a8800315a8000205a8000808f5000ea
:1038680003003a00605a80000010a000605a8800e7
:10387800605a80000000a100605a88001e4078004d
:103888000080fa00000006000600fa00881f780091
:1038980010079800210798000000eb00000f78003f
:1038a80009003700605a8000620060000000e000f4
:1038b8000a003a001e0090001e044000d7ff0700cf
:1038c800004c78001e0fe8002e0090009e00780043
:1038d800808f5000f3ff390001003700000000001e
:1038e8001e0078004f0478000080fa0000000600ef
:1038f8000200fa00004f780097e0a900405a8000c3
:103908001e487800405a80000000e800405a8800ad
:10391800415a800060b52000808f500002003a00b4
:10392800e0b42000405a8800605a80000090a1004e
:10393800605a8800515a8000405a8000808f500099
:1039480003003a00605a80000080a000605a880096
:1039580097e0a8000080fa00000006000600fa00c0
:1039680010079800210798000000eb00000f78006e
:103978000a003700615a80000010200000806000b3
:103988000000e0000a003a001e0090001e004000ff
:10399800104078001e0fe800d5ff07002e009000a9
:1039a8009e007800808f5000f2ff39000100370038
:1039b800000000001e0078000080fa0000000600e9
:1039c8000200fa000000eb00000f7800615a800046
:1039d80000102000008060000000e00001003200bc
:1039e8001e30a000615a8000002020000080600086
:1039f8000000e000010032001e40a000605a800074
:103a0800610060000000e000010032001e00a0001c
:103a1800605a8000620060000000e000020032008e
:103a28001e20a000010037001e10a0001e00780014
:103a38000080fa00000006000200fa00000f78007b
:103a4800305a80009e00400060bd2000808f5000ea
:103a580008003600305a80009e00400060bd2000fb
:103a68000000ea000080400061b520006140780055
:103a780003003700305a80001e00400010407800d4
:103a88000080fa00000006000000fa00605a80007a
:103a9800610060000000e0000f003a00315a800029
:103aa800205a8000808f500005003600305a800070
:103ab80080007800205a80000080500007003700fe
:103ac800305a800080007800205a80000080500022
:103ad8000008b000010037000000eb000080fa0089
:103ae800000006000000fa00615a80000010200063
:103af800008060000000e0000f003a00515a80008a
:103b0800405a8000808f500005003600505a8000cf
:103b180080007800405a800000805000070037007d
:103b2800505a800080007800405a80000080500081
:103b380068004000010037000000eb000080fa0038
:103b4800000006000000fa00605a80000000d10062
:103b5800614060000080fb0000f0a7000000ea0060
:103b68000000ea004f00de00004078000080fa0004
:103b7800000006000000fa00605a80004800de00dd
:103b8800614060000080fb0000f0a7000000ea0030
:103b98000000ea004f00de00004078000080fa00d4
:103ba800000006000000fa00901180000080fa0072
:043bb8000000060003
:020000040000fa
:103bbc00440b00009200000080000000800c00000c
:103bcc00200000008000000000080000020000003f
:103bdc0082000000ffff0000180a00002c0100000a
:103bec0082000000cdabad00de0000000000000044
:103bfc0000000000000000000000000000000000b9
:103c0c0000000000000000000000000000000000a8
:103c1c000000000000000000000000000000000098
:103c2c000000000000000000000000000000000088
:103c3c000000000000000000000000000000000078
:103c4c000000000000000000000000000000000068
:103c5c000000000000000000000000000000000058
:103c6c000000000000000000000000000000000048
:103c7c000000000000000000000000000000000038
:103c8c000000000000000000000000000000000028
:103c9c000000000000000000000000000000000018
:103cac000000000000000000000000000000000008
:103cbc0000000000000000000000000000000000f8
:103ccc0000000000000000000000000000000000e8
:103cdc0000000000000000000000000000000000d8
:103cec0000000000000000000000000000000000c8
:103cfc0001000100000001000100000000000000b4
:103d0c0000000000010000000000000000000000a6
:103d1c000000000000000000000000000000000097
:103d2c000000000000000000000000000000000087
:103d3c000000000000000000000000000000000077
:103d4c000000000000000000000000000000000067
:103d5c000000000000000000000000000000000057
:103d6c000000000000000000000000000000000047
:103d7c000000000004080000140200008000000095
:103d8c000208000002000000820000006400000035
:103d9c00d60b00008800000082000000010000002b
:103dac0000fc0b00fd0bfc000bfc0b00fc0bfc00e7
:103dbc000bec0b00000000000000000000000000f5
:103dcc0000000000000000000000000000000000e7
:103ddc0000020800010124000c250c00240c240016
:103dec000c240c00240c14000c000000000000003b
:103dfc0000000000000000000000000000000000b7
:103e0c000000000000000200080202004c0c4d00f3
:103e1c000c4c0c004c0c4c000c4c0c003c0c0000e2
:103e2c000000000000000000000000000000000086
:103e3c00000000000000000000000000d60bfe0097
:103e4c000b260c0000000000000000000000000029
:103e5c0000000000a00c00001a000000820000000e
:103e6c00686a6c00747a4c000000010000020000cb
:103e7c000400080000100000000020002b2d23007f
:103e8c0030000000c20c00000200000080000000a6
:103e9c00ba0c0000040000008200000006000000c4
:103eac0000000000be0c00000400000080000000b8
:103ebc005e0c000022000000820000003031320055
:103ecc00333435003637380039414200434445001d
:103edc004600300031323300343536003738390083
:103eec00616263006465660000000000c40c0000a1
:0c3efc0002000000800000000000000038
:020000040000fa
:103f08000000fa00c422ef00cc22ef00d422ef0018
:103f1800dc22ef00e422ef00ec22ef00f422ef00b5
:103f2800f06f2c0000168800f00d2f004016880056
:103f3800e0012f008016880070ff2f00c01688004f
:103f4800f03f200000178800d01b2300401788008e
:103f5800f03c2f00801788005620ef005820ef0013
:103f68005a20ef005c20ef005e20ef006020ef0099
:103f78006e20ef007020ef007220ef007420ef0039
:103f88007620ef007820ef00c622ef00ce22ef0067
:103f9800d622ef00de22ef00e622ef00ee22ef004d
:103fa800f622ef00606f2c0000278800c00f2f005a
:103fb80010278800a001200020278800f0ff2e008d
:103fc80030278800002f200040278800d01b2200bf
:103fd80050278800003c280060278800113a80009c
:103fe800f00b2000008160006004200071052000b3
:103ff800237420008049780081497800824978003c
:10400800b136800000fc2f00008060005000b30033
:10401800b03688009136800000fc2f0000806000d8
:104028003000b300903688003135800000fc2f0046
:1040380080806000a00220000100700030358800f8
:10404800103a8000000178000260a000600420009f
:104058007105200023742000804978008149780088
:10406800824978000080fa00000006000000fa008b
:1040780080002000001188002222ef003003200079
:104088004011880021e2a8002342a8000080fa001d
:10409800000006000000fa00000000001011800077
:1040a800610060000000e000fcff32001011800099
:1040b800620060000000e000010032002222a90036
:1040c80030118000004078000080fa0000000600ef
:1040d8000200fa00004f7800000000001111800073
:1040e80000202000008060000000e000fbff3a0094
:1040f8001e80fb00201188000080fa0000000600e6
:104108000000fa00101180000080fa00000006008c
:104118000800fa0020079800310798000080eb009b
:10412800000f7800130037002e00900090407800b0
:104138001e0078000040780000c068002047980002
:104148002e0090000000e800200798001e0078006c
:104158004800de00000f78002e4090000080fb0031
:104168008000400080432900008040001000780053
:104178001e0f68003e00900000f0a7000000ea0053
:104188000000ea004f00de0000407800be0090000a
:104198008100e900310798000004e000e2ff3a00de
:1041a8001e0078000080fa00000006000000fa00f7
:1041b80053ff0700130007000400070078fd0700fd
:1041c800aaff07000080fa00000006000000fa00bd
:1041d8000001eb006004200071052000237420001a
:1041e80080497800814978008249780000102300ce
:1041f800303a88004827ef004e27ef000080fa0089
:10420800000006000000fa0021068000f08f2f0051
:10421800008060000080a0002006880091058000d2
:10422800f0ff28000080600000c0a0009005880012
:1042380091058000f08f2f00008060000080a000b2
:0c424800900588000080fa0000000600cd
:020000040000fa
:10425400f03fb1000180b10006003500ee03090013
:1042640000000000403fb1000180b100fbff3d00b1
:104274001000b000203fb0000200350000800900ab
:0842840000000000000006002c
:020000040000fa
:10428c00000f78009e00780001408800ffff370087
:10429c000000fa0000c820008007780080c92000c8
:0c42ac00000188000080fa0000000600fd
:020000040000fa
:020000040002f8
:04aff000ffff00005f
:020000040000fa
:020000040002f8
:04aff400fffe00005c
:020000040000fa
:020000040002f8
:04aff800bfff000097
:020000040000fa
:020000040002f8
:04affc003f3f0000d3
:00000001FF
