:020000040000fa
:080000000002040000000000f2
:020000040000fa
:04000800540300009d
:020000040000fa
:04000c005403000099
:020000040000fa
:040010005403000095
:020000040000fa
:040014005403000091
:020000040000fa
:04001800540300008d
:020000040000fa
:04001c005403000089
:020000040000fa
:040020005403000085
:020000040000fa
:040024005403000081
:020000040000fa
:04002800540300007d
:020000040000fa
:04002c005403000079
:020000040000fa
:040030005403000075
:020000040000fa
:04003400c8020000fe
:020000040000fa
:04003800540300006d
:020000040000fa
:04003c005403000069
:020000040000fa
:040040005403000065
:020000040000fa
:040044005403000061
:020000040000fa
:04004800540300005d
:020000040000fa
:04004c005403000059
:020000040000fa
:040050005403000055
:020000040000fa
:040054005403000051
:020000040000fa
:04005800540300004d
:020000040000fa
:04005c005403000049
:020000040000fa
:040060005403000045
:020000040000fa
:040064005403000041
:020000040000fa
:04006800540300003d
:020000040000fa
:04006c005403000039
:020000040000fa
:040070005403000035
:020000040000fa
:040074005403000031
:020000040000fa
:04007800540300002d
:020000040000fa
:04007c005403000029
:020000040000fa
:040080005403000025
:020000040000fa
:040084005403000021
:020000040000fa
:04008800540300001d
:020000040000fa
:04008c005403000019
:020000040000fa
:040090005403000015
:020000040000fa
:040094005403000011
:020000040000fa
:04009800540300000d
:020000040000fa
:04009c005403000009
:020000040000fa
:0400a000e00200007a
:020000040000fa
:0400a4002203000033
:020000040000fa
:0400a80054030000fd
:020000040000fa
:0400ac0054030000f9
:020000040000fa
:0400b00054030000f5
:020000040000fa
:0400b40054030000f1
:020000040000fa
:0400b80054030000ed
:020000040000fa
:0400bc0054030000e9
:020000040000fa
:0400c00054030000e5
:020000040000fa
:0400c40054030000e1
:020000040000fa
:0400c80054030000dd
:020000040000fa
:0400cc0054030000d9
:020000040000fa
:0400d00054030000d5
:020000040000fa
:0400d40054030000d1
:020000040000fa
:0400d80054030000cd
:020000040000fa
:0400dc0054030000c9
:020000040000fa
:0400e00054030000c5
:020000040000fa
:0400e40054030000c1
:020000040000fa
:0400e80054030000bd
:020000040000fa
:0400ec0054030000b9
:020000040000fa
:0400f00054030000b5
:020000040000fa
:0400f40054030000b1
:020000040000fa
:0400f80054030000ad
:020000040000fa
:0400fc0054030000a9
:020000040000fa
:0401000054030000a4
:020000040000fa
:0401040054030000a0
:020000040000fa
:04010800540300009c
:020000040000fa
:04010c005403000098
:020000040000fa
:040110005403000094
:020000040000fa
:040114005403000090
:020000040000fa
:04011800540300008c
:020000040000fa
:04011c005403000088
:020000040000fa
:040120005403000084
:020000040000fa
:040124005403000080
:020000040000fa
:04012800540300007c
:020000040000fa
:04012c005403000078
:020000040000fa
:040130005403000074
:020000040000fa
:040134005403000070
:020000040000fa
:04013800540300006c
:020000040000fa
:04013c005403000068
:020000040000fa
:040140005403000064
:020000040000fa
:040144005403000060
:020000040000fa
:04014800540300005c
:020000040000fa
:04014c005403000058
:020000040000fa
:040150005403000054
:020000040000fa
:040154005403000050
:020000040000fa
:04015800540300004c
:020000040000fa
:04015c005403000048
:020000040000fa
:040160005403000044
:020000040000fa
:040164005403000040
:020000040000fa
:04016800540300003c
:020000040000fa
:04016c005403000038
:020000040000fa
:040170005403000034
:020000040000fa
:040174005403000030
:020000040000fa
:04017800540300002c
:020000040000fa
:04017c005403000028
:020000040000fa
:040180005403000024
:020000040000fa
:040184005403000020
:020000040000fa
:04018800540300001c
:020000040000fa
:04018c005403000018
:020000040000fa
:040190005403000014
:020000040000fa
:040194005403000010
:020000040000fa
:04019800540300000c
:020000040000fa
:04019c005403000008
:020000040000fa
:04020800540300009b
:020000040000fa
:04020c005403000097
:020000040000fa
:040210005403000093
:020000040000fa
:04021400540300008f
:020000040000fa
:04021800540300008b
:020000040000fa
:04021c005403000087
:020000040000fa
:040220005403000083
:020000040000fa
:04022400540300007f
:020000040000fa
:04022800540300007b
:020000040000fa
:04022c005403000077
:020000040000fa
:040230005403000073
:020000040000fa
:04023400540300006f
:020000040000fa
:04023800540300006b
:020000040000fa
:04023c005403000067
:020000040000fa
:040240005403000063
:020000040000fa
:04024400540300005f
:020000040000fa
:04024800540300005b
:020000040000fa
:04024c005403000057
:020000040000fa
:040250005403000053
:020000040000fa
:04025400540300004f
:020000040000fa
:04025800540300004b
:020000040000fa
:04025c005403000047
:020000040000fa
:040260005403000043
:020000040000fa
:04026400540300003f
:020000040000fa
:04026800540300003b
:020000040000fa
:04026c005403000037
:020000040000fa
:040270005403000033
:020000040000fa
:04027400540300002f
:020000040000fa
:04027800540300002b
:020000040000fa
:04027c005403000027
:020000040000fa
:040280005403000023
:020000040000fa
:04028400540300001f
:020000040000fa
:04028800540300001b
:020000040000fa
:04028c005403000017
:020000040000fa
:040290005403000013
:020000040000fa
:04029400540300000f
:020000040000fa
:04029800540300000b
:020000040000fa
:04029c005403000007
:020000040000fa
:0402a0005403000003
:020000040000fa
:0402a40054030000ff
:020000040000fa
:0402a80054030000fb
:020000040000fa
:0402ac0054030000f7
:020000040000fa
:0402b00054030000f3
:020000040000fa
:0402b40054030000ef
:020000040000fa
:0402b80054030000eb
:020000040000fa
:0402bc0054030000e7
:020000040000fa
:0402c00054030000e3
:020000040000fa
:0402c40054030000df
:020000040000fa
:0402c80054030000db
:020000040000fa
:0402cc0054030000d7
:020000040000fa
:0402d00054030000d3
:020000040000fa
:0402d40054030000cf
:020000040000fa
:0402d80054030000cb
:020000040000fa
:0402dc0054030000c7
:020000040000fa
:0402e00054030000c3
:020000040000fa
:0402e40054030000bf
:020000040000fa
:0402e80054030000bb
:020000040000fa
:0402ec0054030000b7
:020000040000fa
:0402f00054030000b3
:020000040000fa
:0402f40054030000af
:020000040000fa
:0402f80054030000ab
:020000040000fa
:0402fc0054030000a7
:020000040000fa
:0403000054030000a2
:020000040000fa
:04030400540300009e
:020000040000fa
:04030800540300009a
:020000040000fa
:04030c005403000096
:020000040000fa
:040310005403000092
:020000040000fa
:04031400540300008e
:020000040000fa
:04031800540300008a
:020000040000fa
:04031c005403000086
:020000040000fa
:040320005403000082
:020000040000fa
:04032400540300007e
:020000040000fa
:04032800540300007a
:020000040000fa
:04032c005403000076
:020000040000fa
:040330005403000072
:020000040000fa
:04033400540300006e
:020000040000fa
:04033800540300006a
:020000040000fa
:04033c005403000066
:020000040000fa
:040340005403000062
:020000040000fa
:04034400540300005e
:020000040000fa
:04034800540300005a
:020000040000fa
:04034c005403000056
:020000040000fa
:040350005403000052
:020000040000fa
:04035400540300004e
:020000040000fa
:04035800540300004a
:020000040000fa
:04035c005403000046
:020000040000fa
:040360005403000042
:020000040000fa
:04036400540300003e
:020000040000fa
:04036800540300003a
:020000040000fa
:04036c005403000036
:020000040000fa
:040370005403000032
:020000040000fa
:04037400540300002e
:020000040000fa
:04037800540300002a
:020000040000fa
:04037c005403000026
:020000040000fa
:040380005403000022
:020000040000fa
:04038400540300001e
:020000040000fa
:04038800540300001a
:020000040000fa
:04038c005403000016
:020000040000fa
:040390005403000012
:020000040000fa
:04039400540300000e
:020000040000fa
:04039800540300000a
:020000040000fa
:04039c005403000006
:020000040000fa
:10040000cff520000e7f24000e01880000000000c0
:10041000000020000000e000020032000001200087
:100420002002880014000700a10007000000e0007f
:1004300003003a00402f2e00010020000200370088
:100440000000200001002000810f70000100320038
:1004500014000700000020000000e000020032004d
:10046000000002000000000024ee02000000000076
:100470000040da000000fe004440a90060f92000be
:100480000000e0000300320000002000a00188000e
:100490004440a800000006008a1f78008b1f7800e7
:1004a0000000060091018800800478000000eb0045
:1004b0001a003700e284440032a0b4009905ba0063
:1004c000e284440032a0b4009906ba00e2844400f9
:1004d00032a0b4000006eb00476fde00fd07b2005b
:1004e000636ce10003003a00ebff07000000eb0043
:1004f0000a003700606ce10004003a00005deb0088
:100500008b05e900fdff3e00040037006168e10053
:10051000010032000086eb000b00070019c7ba008b
:100520001905ba000e04e00003003a000a00e000da
:10053000e0ff3a0000000600fe07b2009e018800be
:100540008a047800f5ff3700395dba008b05e900b1
:100550000c003200295dba008b05e900080032006a
:100560000c00e00003003a00e284440032a0b40032
:10057000f5ff370019ddba008b05e900faff3a00f4
:100580008904e800e184440032a0b40000000600c1
:10059000809fbe000000fa00604680007146800027
:1005a00061004000e0804800604688007146880095
:1005b0008460a9000080fa004f00be0000400600e1
:1005c000809fbe000200fa00b0118000004f78004a
:1005d00087c0a900104480008000e900004480002a
:1005e000808f5000140032000144800020d420008d
:1005f0001004b000808f500004003a0011448000c5
:1006000020d42000808f50000b0032000044800076
:100610001e4878000000e800004488000144800083
:1006200020d420001004b000808f50000200390058
:1006300020d42000004488000080fa004f00be0053
:1006400000400600809fbe000000fa0021448000a8
:1006500030448000808f50000f00320087e0a900f6
:1006600030448000904078008180fb00a111880018
:100670000000e800304488003144800030d8200079
:1006800071004000808f50000400390030d82000f5
:10069000304488000100370097e0a9000080fa008c
:1006a0004f00be00004006000040da000000fe00df
:1006b000000005006022b800060220000000d00003
:1006c0008180d2000482d2008582d2000000a00086
:1006d0000202520083825a000300310002024200eb
:1006e00083824a000000a1000603e900f3ff3a00fc
:1006f00000000600efff07000400be000000060037
:10070000889fbe008a9fbe0030044200b0844a0029
:1007100030054b0090854b006000b1000898be008a
:100720000a90be000440e10005c8e10006d0e100e7
:1007300007d8e10002003100680040001008e8001e
:100740004f05be004f04be0000000600889fbe009b
:100750008a9fbe003004be002005be00041854006d
:1007600005985c0006185d0007985d0011002000e8
:100770000440e10005c8e10006d0e10007d8e1002f
:10078000010039008000eb00108810004f05be000a
:100790004f04be00000006001200fa00889fbe0051
:1007a0008a9fbe008c9fbe00e0b79f00f1b79f00fc
:1007b00082bf9f0093bf9f000605be000404be00d9
:1007c0000000eb00d0b79f00c0b79f00b0b79f00fc
:1007d000a0b79f0090b79f000006eb005fb19700a5
:1007e000cfb09700820141003fb097000200e000c7
:1007f00004003d00370007007e805700c0ff07005f
:1008000003003700330007007e805700cfff07004a
:10081000dfb697000d00e0000c0035006fb29700c6
:10082000ffb297000fbb97009fbb970010002000fe
:10083000010020006011b800000272008182720085
:1008400002037300838373001b0007000c06e8009b
:1008500001042000810f5600e0ff3a000d00e00087
:1008600004003d000802be000a03be007e8057005f
:10087000a3ff07005fa897000000e00005003a0012
:100880001fb29700afb297003fb39700cfb3970066
:10089000090007006fb09700ffb097000fb99700ed
:1008a0009fb997004f06be004f05be004f04be0023
:1008b0000080fa00000006000100070000000600aa
:1008c000a4b79f00b5b79f00c6b79f00d7b79f00da
:1008d000000006004f09de0082817100b3b79f005f
:1008e0004f01de008180400082807000a1b79f0030
:1008f0008fb097004f09de0000004000020070003a
:1009000090b79f007fa897004f01de0081804000d4
:100910008280700081b79f000d0007004f3ade0013
:100920000000400004007000f0af9f0008000700c6
:100930000402420085824a0006034b0087834b0075
:10094000dfff07000802be000a03be000000060029
:100950002fb29700bfb297004fb39700dfb3970055
:1009600000000600881f780018002000881f78000b
:1009700089ff07008f87e9004f0478000000060018
:10098000801feb0084ff07008f87e900000006004e
:10099000889fbe008a9fbe00e00f5000e08f580085
:1009a000e00f5900e08f59000c003d006044b80092
:1009b0006055b8000000540081805c0002015d00b9
:1009c00083815d00180020001500070008003d002d
:1009d000180007000004eb00050037000004eb00de
:1009e0000f00070002003d00120007001800200061
:1009f000dcff07000800e000060032006022b800bb
:100a00006033b8000000520081805a0002015b0090
:100a100083815b004f05be004f04be00000006004e
:100a2000e00f5200e08f5a00e00f5b00e08f5b00a8
:100a3000000006006044b8006055b800040254008d
:100a400085825c0006035d0087835d000000060070
:100a5000889fbe008a9fbe008c1f7800e00f500068
:100a6000e08f5800e00f5900e08f59000d003d0065
:100a70006044b8006055b8000000540081805c00fc
:100a800002015d0083815d001c0020000820e10060
:100a900009a8e1000ab0e1000bb8e1000d003d003b
:100aa000080037000006eb00e00f5200e08f5a000c
:100ab000e00f5b00e08f5b0006003d006044b80083
:100ac0006055b8000402540085825c0006035d0096
:100ad00087835d00aaff07000c00e00006003200db
:100ae0006022b8006033b8000000520081805a00d4
:100af00002015b0083815b004f0678004f05be005a
:100b00004f04be0000000600889fbe008a9fbe0002
:100b10008c1f78000006eb00e00f5000e08f5800bb
:100b2000e00f5900e08f590007003d006044b80015
:100b30006055b8000000540081805c0002015d0037
:100b400083815d001c002000e00f5200e08f5a00fe
:100b5000e00f5b00e08f5b0007003d006044b800e1
:100b60006055b8000402540085825c0006035d00f5
:100b700087835d000c00a2000c0007000c00e00061
:100b8000060032006022b8006033b8000000520056
:100b900081805a0002015b0083815b004f06780070
:100ba0004f05be004f04be0000000600889fbe0037
:100bb0008a9fbe008c9fbe000404b8000506b800e2
:100bc0008904460060854e000606b8000a05460006
:100bd000e0854e000706b8008b054600040eb800fd
:100be000890446000a854e00e0854d00050eb800d8
:100bf0000a0546008b854e00060eb8008b054600a0
:100c00000416b8000a0546008b854e000516b8008c
:100c10008b054600041eb8008b0546000800be0088
:100c20000a01be004f06be004f05be004f04be00c5
:100c3000000006000900370030427800b14178001a
:100c4000834f5200040032001000200006003100e3
:100c50000080eb00000006000201e9000200e00055
:100c6000f5ff3a000000eb0000000600800178006c
:100c700002003700b15978000201e9000200e000eb
:100c8000fcff3a00000006008001780002003700f7
:100c9000815978000201e9000200e000fcff3a00ff
:100ca00000000600020037000304e00006003200e6
:100cb0000001780002007800b041780081cf510037
:100cc000f9ff3a00010037000001eb000200780054
:100cd00000000600020037000204e0000b003200b2
:100ce000810178000002780030417800b14f510056
:100cf000f9ff32001000200014427800934f520098
:100d0000030031000080eb00000006000000eb0053
:100d10000000060000017800b14178000359780016
:100d20000304e000fcff3a000000060080007800a9
:100d3000010178003104e000fdff3a00000051009d
:100d40000000060080017800020037008459780016
:100d50000201e9000200e0000600320031427800a2
:100d60000404e000f9ff3a00020037008059eb006c
:100d70000201e9000200e000fcff3a00000006006a
:100d8000889fbe0081047800194478000804e000c0
:100d90000e00320006003700d24178000304e00064
:100da0000a003200d1cf1100fbff32000000e80042
:100db0008800fb00bbff07000000e00003003200da
:100dc0000901780080007800f3ff37004f04be006f
:100dd00000000600ee874700889fbe008a9fbe0085
:100de0008c9fbe008e1f7800f0b79f000106780030
:100df0008205780000047800080578000a0478006d
:100e0000b84678000d00fb008c0007000000e000f1
:100e1000f9ff3a00d0c2b30080cf56000300320081
:100e200000c0e90080cf560002003a000a05e80041
:100e300001003700804678000b00e0000500350017
:100e4000e18f55000300320040022000808f5500e2
:100e5000060034006044b8000c00e000700032006e
:100e60007fb09700000e78006d0037000b00e000a7
:100e70000e003200f08f55001a003a0000c3b30094
:100e80009a4f100017003a001a40900081c7b30033
:100e9000814f50000300320081c5b300814f5000e4
:100ea00010003a000a85e8000e003700ab00200071
:100eb00000c3b3009a4f10000a003a001a40900095
:100ec00081c7b300814f5000040032008b00200026
:100ed00081c5b300814f500002003a000a85e80046
:100ee0000b0120000a00780000027800040078005e
:100ef00001c3b300b0cf1000fbff3200040778003d
:100f00006044b800b4b79f000d00370041d92000fd
:100f100081405000c1ef9f006159b9000800be0038
:100f2000650007004fea97000401fb00cf91de0047
:100f3000c8b79f00d9b79f000204400083844800cf
:100f40008e0278003e00fb0085bf9f004300070033
:100f50000b0178008000780040d920004c00070089
:100f60008fba97000000e000e8ff3a003fb2970018
:100f7000850f550005003a006044b8000c00e00001
:100f800027003200ffb2970024003700048252008d
:100f900090db200060c07d000000fb0000025200da
:100fa0001700330011003a004fe997000200fb00e0
:100fb000cf80de000000540081805c00800f540070
:100fc000818f5c00090039006159b90085bf9f001d
:100fd000b8fd07008fba97004fb19700dfb19700b7
:100fe000820f5000838f580005003200200220003d
:100ff000c07a88000084eb008084eb000500370095
:10100000d0c2b30080cf560002003a006004140042
:10101000e0841c000c00e00001003200050e7800a6
:101020000800be004f0778004f06be004f05be0007
:101030004f04be00ef00b100000006006900e100af
:10104000040035006d00e100030034000002b1002f
:10105000010032000000050010000500800078004b
:101060001104b100030035009101b10001003c0002
:101070000050a00000000600d07a80000000e000d0
:10108000010032000000010080f520000000060091
:1010900003003700b0cf1000050032000201e90064
:1010a000800178000200e000faff3a00000005002d
:1010b0000300780000000600020ab900001bb90016
:1010c0000200b800810042008100430000000600d9
:020000040000fa
:1010d000666f00006f740000657200002e690000ea
:1010e0006e63000000680000656100006465000038
:1010f000722e0000696e00006300000021440000b1
:1011000045460000000d00000a0000007478000051
:1011100074000000687400006d0000006874000036
:101120006d6c00000063000067690000007800003b
:101130006d6c000000630000737300000067000026
:1011400069660000007000006e670000006a000021
:1011500070670000006300006c6100000077000011
:1011600061760000000000000000000000000000a8
:10117000868800008a8800008e880000938800001e
:10118000978800009b8800009f880000a3880000cb
:10119000a7880000ab880000af880000b38800007b
:1011a00074650000787400002f7000006c6100000e
:1011b000696e00000074000065780000742f000064
:1011c000687400006d6c0000007400006578000019
:1011d000742f0000786d00006c0000007465000042
:1011e000787400002f630000737300000069000032
:1011f0006d610000676500002f67000069660000f0
:10120000006900006d610000676500002f7000003c
:101210006e670000006900006d61000067650000f6
:101220002f6a000070650000670000006170000018
:10123000706c00006963000061740000696f000059
:101240006e2f00006a610000766100002d760000bc
:101250006d00000061750000646900006f2f0000e0
:10126000782d000077610000766500000000000026
:10127000d0880000db880000db880000db880000ed
:10128000e5880000ee880000f78800000189000072
:101290000b890000168900002a89000037890000a8
:1012a00048540000545000002f3100002e3100003f
:1012b0002032000030300000204f00004b0d0000b5
:1012c0000a4300006f6e00006e650000637400004a
:1012d000696f00006e3a0000206300006c6f000030
:1012e000736500000d0a000000480000545400001f
:1012f000502f0000312e000031200000343000005b
:1013000030200000426100006420000052650000af
:101310007175000065730000740d00000a43000041
:101320006f6e00006e65000063740000696f00005e
:101330006e3a0000206300006c6f000073650000cf
:101340000d0a00000d0a00003430000030200000bb
:1013500042610000642000005265000071750000c9
:1013600065730000743a000020630000616e0000a5
:101370002774000020680000616e0000646c0000ab
:1013800065200000436f00006e740000656e000071
:10139000742d00004c6500006e670000746800004a
:1013a0000d0a00000048000054540000502f0000b7
:1013b000312e0000312000003430000031200000c8
:1013c000556e000061750000746800006f720000c7
:1013d000697a0000656400000d0a0000575700009c
:1013e000572d00004175000074680000656e000014
:1013f0007469000063610000746500003a20000019
:101400004261000073690000632000007265000003
:10141000616c00006d3d000022500000726f000002
:10142000746500006374000065640000220d000014
:101430000a4300006f6e00006e65000063740000d8
:10144000696f00006e3a0000206300006c6f0000be
:10145000736500000d0a00000d0a00003430000022
:1014600031200000556e00006175000074680000b6
:101470006f720000697a0000656400003a20000085
:101480005061000073730000776f00007264000009
:10149000207200006571000075690000726500002f
:1014a000640d00000a000000485400005450000081
:1014b0002f3100002e3100002034000030340000b5
:1014c000204e00006f740000206600006f75000061
:1014d0006e6400000d0a0000436f00006e6e000095
:1014e00065630000746900006f6e00003a20000020
:1014f000636c00006f730000650d00000a4300007c
:101500006f6e0000746500006e7400002d540000c2
:1015100079700000653a00002074000065780000d2
:10152000742f0000687400006d6c00000d0a00004c
:101530000d0a000034300000343a0000204600005c
:10154000696c0000652000006e6f000074200000d0
:10155000666f0000756e0000643c0000627200005f
:101560003e55000073650000203c00006120000033
:1015700068720000656600003d2200002f6d0000cb
:101580007066000073750000706c00006f610000f1
:10159000642200003e4d0000504600005320000031
:1015a000557000006c6f0000616400003c2f00006b
:1015b000613e0000207400006f2000007072000087
:1015c0006f670000726100006d2000007765000009
:1015d000622000007061000067650000730d00006c
:1015e0000a00000048540000545000002f31000051
:1015f0002e31000020340000313400002052000061
:101600006571000075650000737400002d550000c1
:1016100052490000205400006f6f0000204c000071
:101620006f6e0000670d00000a4300006f6e00003f
:101630006e65000063740000696f00006e3a000080
:10164000206300006c6f0000736500000d0a00004d
:101650000d0a000034310000342000005265000003
:101660007175000065730000742d00005552000074
:1016700049200000546f00006f2000004c6f0000f4
:101680006e6700003a2000004275000066660000a8
:1016900065720000206f0000766500007266000031
:1016a0006c6f000077200000646500007465000026
:1016b00063740000656400000d0a0000004800002b
:1016c00054540000502f0000312e00003120000043
:1016d0003530000030200000496e000074650000c5
:1016e000726e0000616c0000205300006572000003
:1016f000766500007220000045720000726f0000e5
:10170000720d00000a4300006f6e00006e6500005d
:1017100063740000696f00006e3a000020630000ef
:101720006c6f0000736500000d0a00000d0a0000d8
:101730003530000030200000496e00007465000064
:10174000726e0000616c00002053000065720000a2
:10175000766500007220000045720000726f000084
:10176000723a0000204500007870000065630000b8
:101770007465000064200000646100007461000072
:10178000206e00006f740000207000007265000081
:10179000736500006e7400000d0a00000048000030
:1017a00054540000502f0000312e00003120000062
:1017b00035300000312000004e6f00007420000022
:1017c000496d0000706c0000656d0000656e0000e2
:1017d00074650000640d00000a4300006f6e000095
:1017e0006e65000063740000696f00006e3a0000cf
:1017f000206300006c6f0000736500000d0a00009c
:101800000d0a000035300000312000004e6f00004e
:1018100074200000496d0000706c0000656d0000d0
:10182000656e000074650000643a0000204f0000ff
:101830006e6c000079200000474500005420000035
:10184000616e000064200000504f000053540000ff
:101850002073000075700000706f0000727400004b
:10186000656400000d0a00000048000054540000a8
:10187000502f0000312e00003120000032300000d7
:10188000302000004f4b00000d0a0000436f0000a5
:101890006e6e000065630000746900006f6e0000ea
:1018a0003a200000636c00006f730000650d0000bb
:1018b0000a4300006f6e0000746500006e74000043
:1018c0002d54000079700000653a0000207400007b
:1018d00065780000742f0000687400006d6c0000d3
:1018e0000d0a00000d0a00003c680000746d000045
:1018f0006c3e00003c6200006f6400007920000034
:1019000073740000796c0000653d0000226d0000da
:1019100061720000676900006e3a0000313000001b
:1019200030700000782200003e3c0000666f00002e
:10193000726d0000206d000065740000686f00008b
:10194000643d0000706f00007374000020610000af
:1019500063740000696f00006e3d0000222f0000dc
:101960006d70000066730000757000006c6f000001
:101970006164000022200000656e000063740000b6
:1019800079700000653d0000226d0000756c00005c
:101990007469000070610000727400002f6600001e
:1019a0006f7200006d2d0000646100007461000022
:1019b000223e00003c6200003e4d00005046000008
:1019c00053200000496d00006167000065200000a1
:1019d000557000006c6f0000616400003c2f000037
:1019e000623e00003c7000003e3c0000696e00005a
:1019f00070750000742000007479000070650000ac
:101a00003d660000696c0000652000006e6100000a
:101a10006d6500003d69000020730000697a0000d8
:101a2000653d0000343000003e200000266e0000be
:101a300062730000703b0000203c0000696e0000f3
:101a4000707500007420000074790000706500005b
:101a50003d730000756200006d6900007420000095
:101a6000766100006c750000653d000022550000a5
:101a7000706c00006f610000642200003e3c0000ba
:101a80002f6600006f7200006d3e00003c2f0000ca
:101a9000626f0000647900003e3c00002f68000087
:101aa000746d00006c3e00000048000054540000bb
:101ab000502f0000312e0000312000003230000095
:101ac000302000004f4b00000d0a0000436f000063
:101ad0006e6e000065630000746900006f6e0000a8
:101ae0003a200000636c00006f730000650d000079
:101af0000a4300006f6e0000746500006e74000001
:101b00002d54000079700000653a00002074000038
:101b100065780000742f0000687400006d6c000090
:101b20000d0a00000d0a00003c680000746d000002
:101b30006c3e00003c6200006f64000079200000f1
:101b400073740000796c0000653d0000226d000098
:101b500061720000676900006e3a000031300000d9
:101b600030700000782200003e3c0000623e000021
:101b70004d500000465300002055000070640000e6
:101b8000617400006520000053750000636300006d
:101b90006573000073660000756c00003c2f000048
:101ba000623e00003c7000003e3c000061200000ee
:101bb00068720000656600003d2200002f220000d0
:101bc0003e53000069740000652000006d61000054
:101bd000696e00002070000061670000653c000035
:101be0002f6100003e3c00002f6200006f64000087
:101bf000793e00003c2f0000687400006d6c00000e
:101c00003e00000048540000545000002f310000f6
:101c10002e31000020350000303000002049000047
:101c20006e740000657200006e6100006c200000a0
:101c300053650000727600006572000020450000c8
:101c4000727200006f7200000d0a0000436f000006
:101c50006e6e000065630000746900006f6e000026
:101c60003a200000636c00006f730000650d0000f7
:101c70000a4300006f6e0000746500006e7400007f
:101c80002d54000079700000653a000020740000b7
:101c900065780000742f0000687400006d6c00000f
:101ca0000d0a00000d0a00003c680000746d000081
:101cb0006c3e00003c6200006f6400007920000070
:101cc00073740000796c0000653d0000226d000017
:101cd00061720000676900006e3a00003130000058
:101ce00030700000782200003e3c0000623e0000a0
:101cf0004d50000046530000204900006d61000077
:101d000067650000204300006f72000072750000dc
:101d100070740000206f00007220000057720000f5
:101d20006f6e0000672000005665000072730000af
:101d3000696f00006e3c00002f6200003e3c000016
:101d4000703e00003c6100002068000072650000e9
:101d5000663d0000222f00006d70000066730000d9
:101d6000757000006c6f000061640000223e00008e
:101d70005472000079200000616700006169000072
:101d80006e3f00003c2f0000613e00003c2f000031
:101d9000626f0000647900003e3c00002f68000084
:101da000746d00006c3e00000048000054540000b8
:101db000502f0000312e0000312000003330000091
:101dc00032200000466f0000756e0000640d0000b8
:101dd0000a4300006f6e00006e650000637400002f
:101de000696f00006e3a0000206300006c6f000015
:101df000736500000d0a00004c6f00006361000075
:101e0000746900006f6e00003a2000000048000076
:101e100054540000502f0000312e000031200000eb
:101e20003430000033200000466f00007262000072
:101e300069640000646500006e0d00000a43000044
:101e40006f6e00006e65000063740000696f000033
:101e50006e3a0000206300006c6f000073650000a4
:101e60000d0a00000d0a000034300000332000008d
:101e7000466f000072620000696400006465000043
:101e80006e3a000020530000534c00002052000026
:101e90006571000075690000726500006420000033
:101ea0002d200000757300006520000048540000dc
:101eb00054500000530d00000a000000508900003b
:101ec0005089000075890000d3890000548a000001
:101ed000f28a00005f8b0000cf8b0000358c000081
:101ee00037890000558d0000028e0000d58e00005d
:101ef000078f0000436f00006f6b000069650000f2
:101f00003a00000041750000746800006f72000024
:101f1000697a000061740000696f00006e3a000089
:101f2000004300006f6e0000746500006e740000d6
:101f30002d4c0000656e000067740000683a0000d8
:101f4000000000007a8f0000828f0000918f000057
:101f50004745000054000000504f0000535400005b
:101f6000006d00007066000073750000706c00006a
:101f70006f61000064000000696e0000646500008d
:101f8000782e0000687400006d0000000d0a00004b
:101f90000d0a0000333000003420000052650000bc
:101fa0006469000072650000637400003a2000005c
:101fb000004300006f6e0000746500006e74000046
:101fc0002d54000079700000653a000020000000e8
:101fd000436f00006e740000656e0000742d0000f9
:101fe000456e0000636f0000646900006e670000ca
:101ff0003a200000677a0000697000000d0a0000b6
:102000000043000061630000686500002d4300008c
:102010006f6e0000747200006f6c00003a200000c8
:10202000006e00006f2d0000636100006368000017
:10203000650000006d610000782d00006167000000
:10204000653d000000360000303000000053000005
:10205000657400002d4300006f6f00006b69000085
:10206000653a0000200000000d0a00000d0a000083
:10207000000d00000a0d00000a4d0000504600004f
:102080005302000001000000707200006f74000035
:102090006563000074000000736e00006d70000046
:1020a00000610000646d0000696e0000006d0000ba
:1020b00069630000726f00006368000069700000cf
:1020c000006600006f7200006d7300002e68000053
:1020d000746d0000006c00006564000034000000b6
:1020e0006c65000064330000006c00006564000053
:1020f000320000006c6500006431000000630000e5
:102100006f6f00006b690000657300002e680000af
:10211000746d0000006c000065640000732e000008
:1021200063670000690000006c6500006400000047
:10213000757000006c6f0000616400002e68000084
:10214000746d000000700000726f00007465000084
:10215000637400002f6300006f6e0000666900006a
:10216000672e0000687400006d000000656d0000bf
:10217000616900006c2f0000696e0000646500005a
:10218000782e0000687400006d0000006c63000091
:10219000640000002f6600006f7200006d73000085
:1021a0002e680000746d00000069000070000000df
:1021b0006777000000730000756200000064000093
:1021c0006e73000031000000646e00007332000086
:1021d000006d000061630000006800006f73000084
:1021e000740000006468000063700000002f0000ad
:1021f000707200006f74000065630000742f0000af
:1022000072650000626f00006f7400002e680000ad
:10221000746d00003f0000002f700000726f00001e
:1022200074650000637400002f6300006f6e00008f
:1022300066690000672e0000687400006d000000f1
:102240000d0a0000000d00000a0d00000a00000049
:102250004d690000637200006f6300006869000050
:102260007020000054430000502f0000495000002f
:102270002053000074610000636b000020530000d5
:102280007461000074750000732000005570000038
:10229000646100007465000000220000534d0000de
:1022a0005450000020530000657200007669000061
:1022b00063650000222000003c6d000063680000a0
:1022c000706200006f6100007264000040700000e6
:1022d000696300007361000072650000676f0000b1
:1022e0006f6400002e6300006f6d00003e00000070
:1022f0004d4900004d4500002d760000657200003c
:10230000736900006f6e00003a200000312e00005b
:10231000300d00000a4300006f6e0000746500007d
:102320006e7400002d74000079700000653a0000a2
:10233000206d0000756c0000746900007061000081
:10234000727400002f6d0000697800006564000061
:102350003b200000626f0000756e000064610000a9
:10236000727900003d220000667200006f6e00006e
:102370007469000065720000220d00000a00000070
:102380007365000072760000657200000070000046
:102390006f72000074000000757300006572000029
:1023a000007000006173000073000000746f000093
:1023b000006d0000736700000054000068690000b1
:1023c000732000006973000020610000206d000090
:1023d000756c0000746900002d70000061720000cf
:1023e000742000006d6500007373000061670000d9
:1023f00065200000696e0000204d0000494d00007e
:1024000045200000666f0000726d000061740000de
:102410002e0d00000a0000002d2d00006672000045
:102420006f6e000074690000657200000d0a000004
:10243000436f00006e740000656e0000742d000094
:1024400074790000706500003a2000007465000097
:10245000787400002f7000006c610000696e00004d
:102460000d0a00000d0a0000000d00000a2d0000fa
:102470002d660000726f00006e7400006965000038
:10248000720d00000a4300006f6e000074650000ca
:102490006e7400002d74000079700000653a000031
:1024a0002074000065780000742f00006373000042
:1024b000760d00000a4300006f6e00007465000096
:1024c0006e7400002d44000069730000706f0000fe
:1024d00073690000746900006f6e00003a2000000c
:1024e0006174000074610000636800006d650000a5
:1024f0006e7400003b200000666900006c650000ff
:102500006e6100006d6500003d22000073740000e4
:1025100061740000757300002e6300007376000084
:10252000220d00000a0d00000a00000053590000af
:1025300053540000454d000020530000544100005a
:1025400054550000530d00000a00000042750000c1
:10255000747400006f6e0000733a00002c000000dd
:102560004c450000447300003a2c0000005000006d
:102570006f7400003a2c0000002d00002d66000052
:10258000726f00006e74000069650000722d00001b
:102590002d0d00000a0000002f6500006d61000095
:1025a000696c00002f6900006e640000657800000f
:1025b0002e680000746d0000004400006563000098
:1025c00020200000342000003230000031370000ad
:1025d00020300000303a0000303800003a3000006f
:1025e00030000000763500002e340000320000007c
:1025f00075700000006400006e000000534500008c
:102600004c4500004354000045440000003c0000dd
:1026100062720000202f00003e000000266e0000c5
:1026200062730000703b0000006e0000616d0000ee
:1026300065000000486500006c6c00006f2c000015
:10264000200000006e6f0000742000007365000021
:10265000740000003c6200003e550000706c0000f9
:102660006f610000642000006120000046690000e6
:102670006c6500003c2f0000623e0000003c000042
:10268000623e0000557000006c6f00006164000045
:102690006564000020460000696c000065270000aa
:1026a000732000004d4400003520000077610000d9
:1026b000733a00003c2f0000623e00003c620000c4
:1026c000722000002f3e00000063000068650000db
:1026d000636b000065640000006600006169000033
:1026e0006c00000054680000652000004479000080
:1026f0006e6100006d69000063200000444e000020
:1027000053200000436c0000696500006e740000f7
:1027100020690000732000006e6f0000742000002c
:10272000656e0000616200006c650000642e0000b0
:10273000006e00006f6e000065000000626c00001b
:102740006f6300006b0000001b5b0000324a00005a
:102750001b5b0000333100006d1b00005b3100008b
:102760006d4d000069630000726f00006368000037
:102770006970000020540000656c00006e65000068
:10278000742000005365000072760000657200003e
:10279000203100002e3100001b5b0000306d000076
:1027a0000d0a0000286600006f720000207400000f
:1027b0006869000073200000646500006d6f000010
:1027c0002c200000747900007065000020270000b4
:1027d000616400006d6900006e2700002066000043
:1027e0006f7200002074000068650000206c00001b
:1027f0006f670000696e0000206100006e640000d9
:10280000202700006d690000637200006f63000004
:102810006869000070270000206600006f720000e9
:1028200020740000686500002070000061730000e3
:10283000737700006f720000642e0000290d000005
:102840000a4c00006f670000696e00003a2000002b
:102850000050000061730000737700006f72000089
:10286000643a000020ff0000fd2d0000000d000074
:102870000a410000636300006573000073200000dc
:10288000646500006e690000656400000d0a0000c8
:102890000d0a0000000d00000a4c00006f670000e8
:1028a0006765000064200000696e0000207300006e
:1028b00075630000636500007373000066750000b7
:1028c0006c6c0000790d00000a0d00000a0d00007c
:1028d0000a5000007265000073730000202700009a
:1028e00071270000207400006f2000007175000047
:1028f000697400000d0a0000000d00000a5300007a
:102900004e54000050200000546900006d65000026
:102910003a20000020200000202800006469000008
:1029200073610000626c000065640000290d000006
:102930000a4100006e6100006c6f0000673a000001
:102940002020000020200000202000002020000087
:102950002020000020200000203100003032000044
:10296000330d00000a42000075740000746f00000f
:102970006e7300003a20000020200000202000009c
:102980002020000020200000332000003220000022
:1029900031200000300d00000a4c000045440000ca
:1029a000733a0000202000002020000037200000a3
:1029b00036200000352000003420000033200000c5
:1029c00032200000312000003000000020200000f4
:1029d00020200000202000002020000020200000f7
:1029e000000d00000a0d00000a4700006f6f000094
:1029f0006462000079650000210d00000a000000fb
:102a00000d0a0000546f00006f2000006d7500007b
:102a1000636800002064000061740000612e000003
:102a20000d0a000000610000646d0000696e000086
:102a3000005400006f6f0000206d000075630000ff
:102a40006820000064610000746100002e0d000029
:102a50000a0000006d690000637200006f630000ef
:102a600068690000700000001b5b0000316d000011
:102a7000001b00005b310000303b000031350000de
:102a8000660000001b5b0000313100003b3200009b
:102a900031660000001b00005b310000323b00008b
:102aa00031380000660000001b5b0000313300007d
:102ab0003b31000030660000001b00005b3100006d
:102ac000343b00003166000000000000070c0000ed
:102ad00011160000070c000011160000070c000082
:102ae00011160000070c0000111600000509000077
:102af0000e140000050900000e1400000509000076
:102b00000e140000050900000e140000040b000064
:102b100010170000040b000010170000040b000049
:102b200010170000040b000010170000060a000038
:102b30000f150000060a00000f150000060a00002d
:102b40000f150000060a00000f15000078a4000011
:102b50006ad7000056b70000c7e80000db7000002d
:102b600020240000eece0000bdc10000af0f000029
:102b70007cf500002ac600008747000013460000cd
:102b800030a800000195000046fd0000d898000024
:102b900080690000aff70000448b0000b15b0000cb
:102ba000ffff0000bed700005c890000221100007a
:102bb000906b00009371000098fd00008e430000b0
:102bc00079a6000021080000b44900006225000039
:102bd0001ef6000040b3000040c00000515a000043
:102be0005e260000aac70000b6e900005d100000e4
:102bf0002fd60000531400004402000081e60000bc
:102c0000a1d80000c8fb0000d3e70000e6cd00001b
:102c1000e1210000d607000037c30000870d000047
:102c2000d5f40000ed1400005a45000005e900004d
:102c3000e3a90000f8a30000effc0000d9020000a7
:102c40006f6700008a4c00002a8d000042390000a6
:102c5000faff000081f60000718700002261000089
:102c60009d6d00000c380000e5fd000044ea000006
:102c7000bea40000a9cf0000de4b0000604b0000a6
:102c8000bbf6000070bc0000bfbe0000c67e0000a6
:102c90009b280000fa270000a1ea00008530000010
:102ca000efd40000051d00008804000039d00000aa
:102cb000d4d90000e5990000dbe60000f87c0000b4
:102cc000a21f000065560000acc4000044220000b2
:102cd00029f4000097ff00002a430000a72300000a
:102ce00094ab000039a0000093fc0000c359000021
:102cf0005b65000092cc00000c8f00007df40000aa
:102d0000efff0000d15d0000848500004f7e0000d1
:102d1000a86f0000e0e600002cfe00001443000055
:102d200001a30000a1110000084e0000827e0000f7
:102d300053f7000035f200003abd0000bbd200009e
:102d4000d72a000091d3000086eb00004845000020
:102d50004c4f0000204d000043480000504200004e
:102d60004f410000524400000d0a000000450000e1
:102d7000484c00004f2000004d4300004850000028
:102d8000424f000041520000440d00000a000000c4
:102d90004155000054480000204c00004f470000ff
:102da000494e00000d0a0000000d00000a0000005e
:102db0004d410000494c000020460000524f0000e9
:102dc0004d3a00003c0000003e0d00000a000000eb
:102dd0005243000050540000205400004f3a0000bd
:102de0003c00000044410000544100000d0a000076
:102df00000460000726f00006d3a000020000000e5
:102e00000d0a0000546f00003a200000000d000081
:102e10000a430000433a0000200000000d0a0000b1
:102e200053750000626a000065630000743a000098
:102e3000200000000d0a00002e0d00000a00000016
:102e40000d0a00002e0000005155000049540000fa
:102e50000d0a0000000000003a2000005765000045
:102e600020610000726500002063000075720000a0
:102e7000726500006e7400006c7900002061000033
:102e80006368000069650000766900006e670000f5
:102e90002000000020200000202000002020000052
:102ea0002000000030300000206200007974000033
:102eb000657300002f730000656300006f6e0000f3
:102ec0006420000054580000207400006872000064
:102ed0006f7500006768000070750000742e0000b8
:102ee0000d0a0000002000006279000074650000f7
:102ef000732f000073650000636f00006e640000b4
:102f00000d0a000000000000000000007d0000002d
:102f10006400000001000000140000001400000024
:102f200002000000c800000096000000050000003c
:102f3000c8000000010000000700000000010000c0
:102f40000001000008000000c8000000c8000000e8
:102f500008000000c8000000c800000009000000d0
:102f6000c8000000c80000000a00000019000000ae
:102f7000140000000d0a0000444800004350000007
:102f80002f5000006f770000657200002065000080
:102f9000766500006e740000206f0000636300001f
:102fa000757200007265000064000000426f00004e
:102fb0006f7400006c6f00006164000065720000b7
:102fc00020520000657300006574000000000000de
:102fd000706f00006f6c00002e6e000074700000b7
:102fe0002e6f000072670000000000004d500000ce
:0c2ff00046530000020100000000000039
:020000040000fa
:102ffc000200fa00004f7800e0c8bf009e4f50005e
:10300c001c003200e0c8bf00e24f40000900320053
:10301c00e0c8bf000080fb007e00b9008000780093
:10302c00a08e200000804000e2012000c1a52000fd
:10303c000bf707001e417800018e200082487800b3
:10304c001e407800e24f40000c0032001e80fb0056
:10305c007e00b90080007800a08e20000080400027
:10306c00e201200080007800c0a52000fcf60700db
:10307c0003003700000000000100370000000000d2
:10308c000080fa00000006000000fa00118e2000fb
:10309c0091407800e0c8bf0080cf5000260032007d
:1030ac00e1c8bf00e24f400015003200829f2000b3
:1030bc00e1c8bf000080fb007e00b9000000780072
:1030cc00fc004000a08e2000008040009042780060
:1030dc00e1c8bf000080fb007e00b90080007800d2
:1030ec00a08e200000804000100078008002b1000b
:1030fc008402200013c0b30085407800c81007007c
:10310c00e0c8bf00e1e8b70080a7200010417800bc
:10311c00e052800081fd2f0080804000809f2000c5
:10312c0084022000824178000101780011c0b300b4
:10313c00bb10070001003700000000000080fa00ff
:10314c00000006000c00fa00c0fb200010079800dd
:10315c00f04680000000e00007003a00133f070033
:10316c0080007800f07f200080806000004020000c
:10317c0000804000f0468800c20320008000eb0075
:10318c0000a22000bdf607000040eb00404798006d
:10319c000040eb00004f78004c0037001e407800d8
:1031ac0093ff07001e80fb006600b90080007800ca
:1031bc0040782900008040009040900051479800d2
:1031cc001e80fb006600b900000078008080e800db
:1031dc00407829000080400090007800310798006a
:1031ec001e80fb006600b90000007800e40040007f
:1031fc00407829000080400090007800410798003a
:10320c005e4090000080fb000000e00001003200f6
:10321c002d0037009e00900051079800be009000d2
:10322c004e009000808040001e0090000080400006
:10323c00a002b000100798009e00900080ef2100c3
:10324c00808f5000fcff3e0080a72000de409000e5
:10325c00014878005e0090008002b000e0528800c7
:10326c00e15280003e009000008040000000e80029
:10327c00f0528800f15280004e0090000080400017
:10328c0000538800d000200090538800a053800089
:10329c000030a100a05388007bff07001e80fb00bc
:1032ac006600b9008000780040782900008040005a
:1032bc0090407800f0a12000014878009d0a07009a
:1032cc001e4fe80001003700ffff37001e4078005a
:1032dc00e84f5000b1ff36000080fa0000000600f5
:1032ec000c00fa001007980021079800624798001c
:1032fc0043079800244f98000040eb00004f7800e3
:10330c00930037001e40780039ff0700905380006f
:10331c00ed0f50008a003a005bff0700f0a120007f
:10332c00904078002e48900080cf500086003a00e4
:10333c0080212000e05088006e4090000004e000e6
:10334c000a003a00ce00900041508800a053800043
:10335c000030a000a053880040002000905388004b
:10336c00ce009000b153880073003700f146800006
:10337c00f03f2000808f500004003600f1468000a2
:10338c0080382100808f5000020036000040200061
:10339c00f0468800f0468000405088000000e800ad
:1033ac00f0468800ce0090003150880084680700f9
:1033bc005053880061538800a05380000040a00047
:1033cc00a05388006e4090000080fb00e30f50007b
:1033dc001c003200e30f500003003c00e10f5000d2
:1033ec005500350003003700e40f50002d0032006b
:1033fc00510037001e009000ae0090007050880005
:10340c00815088006e4090000014a2000080fb00e8
:10341c000000e9004f00de00004078000080fb0057
:10342c00610060004200dd00d15080000120a1004d
:10343c0001007000d05088000000eb009053880011
:10344c003d0037000e80e800900090000e80e800f0
:10345c0010007800808040004e009000808040007a
:10346c004050800000806800b05388001e0090001f
:10347c00ae0090007050880081508800e0a12000c0
:10348c008040eb0001487800d003200001002000b0
:10349c00c04f8800d14f8800200020009053880036
:1034ac00250037001e009000ae0090000000780050
:1034bc00a04090008180fb00304090000080fb0019
:1034cc004800dd0000807000000178001e009000b4
:1034dc00ae009000000078009080fb00104090003f
:1034ec000080fb004800dd0000807000800041007f
:1034fc004e009000808040004050800000806800aa
:10350c00b05388001e009000ae00900000007800c0
:10351c00a200200080007800e0a02000d0f5070079
:10352c00500020009053880011c0b30020c0b3009d
:10353c00db060700000000001e4078000800370082
:10354c000000000001003700000000001e4fe800e2
:10355c001e407800e84f50006aff3600e0cfb30001
:10356c000080fa00000006000200fa00004f78000c
:10357c001e407800e84f500002003600100020007a
:10358c000d0037001e40780099fe0700a153800003
:10359c0000002100008060000000e0000500320007
:1035ac00a053800000c0a100a05388001000200090
:1035bc00010037000000eb000080fa00000006005c
:1035cc000200fa00004f78001e407800e84f5000cf
:1035dc00020036000000eb00080037001e407800a7
:1035ec0083fe0700905380006700680000f0a7007e
:1035fc000000ea000000e9004f00de000080fa0045
:10360c00000006000200fa00004f78001e4078000f
:10361c00e84f500046003e001e40780074fe070044
:10362c00305380004053880090538000e50f5000c9
:10363c0016003200e50f500007003e00e10f50006d
:10364c000f003200e10f500010003900e30f500062
:10365c0031003e000d003700eb0f50001c00320013
:10366c00eb0f500003003e00e70f50002a003e0015
:10367c0008003700ee0f50002400320026003700ff
:10368c0009500700ab0907002a003700a9090700f9
:10369c002800370011c0b30010c1b300800607002a
:1036ac00505080000000e0000500320011538000f3
:1036bc0020508000808f5000f6ff3a000100370048
:1036cc000000000080002000905388001900370093
:1036dc0011c0b30010c1b300710607005050800038
:1036ec000000e000050032001153800020508000e3
:1036fc00808f5000f6ff3a000100370000000000f8
:10370c00c0002000905388000a003700d000200031
:10371c0090538800070037008040eb0040c1b30095
:10372c005f06070083090700000000000100370056
:10373c00000000000080fa00000006000200fa0001
:10374c00004f78001e407800e84f500008003e0003
:10375c001e40780026fe0700a05380000030a10018
:10376c00a05388001e407800a6ff07000100370018
:10377c00000000000080fa00000006000200fa00c1
:10378c00004f78001e407800e84f500002003600d1
:10379c000000eb000a0037001e40780014fe070002
:1037ac0039fe0700a2002000e1a02000a0a7200005
:1037bc002bf507003050800020548800a0a7200073
:1037cc000080fa00000006000200fa00004f7800aa
:1037dc001e407800e84f50000b003e001e40780061
:1037ec0003fe070028fe07001153800020508000c4
:1037fc00808f50000500320011c0b30000c1b3002f
:10380c002706070001003700000000000080fa00c6
:10381c00000006000400fa00204798002e4090009b
:10382c00e84f5000020036000000eb001d0037008e
:10383c002e409000eefd070090538000004f780062
:10384c001e407800e74f5000050032001e40780003
:10385c00eb4f5000020032000000eb00110037006b
:10386c001153800020538000808f500009003900d4
:10387c00f1528000e0528000808050002253800082
:10388c001053800000005100008040000000e9004f
:10389c00040037002153800010538000008050003a
:1038ac000000e9000080fa00000006000400fa00a5
:1038bc0020479800314798002e409000e84f500068
:1038cc00020036000000eb00420037002e40900052
:1038dc00c7fd07002e409000ceff0700000f7800b8
:1038ec001e0078000000e00002003a000000eb002f
:1038fc00380037001e007800e10f500002003a003b
:10390c002e409000b0ff0700a15380000010200053
:10391c00008060000000e0000b003a00f1528000d3
:10392c00e0528000008050000000d1009e0f50003b
:10393c00050039002e409000a3ff0700a053800023
:10394c000080a000a05388006301470080a72000de
:10395c0090407800105380001400200013c0b30076
:10396c00af0e0700105380000000e80010538800d1
:10397c0011538000f0528000808f500002003900fb
:10398c00e0528000105388001e007800e10f5000b8
:10399c0003003a002e4090008bff07000c0037000c
:1039ac00a153800000022000008060000000e000b5
:1039bc0007003a00a05380000050a000a0538800dc
:1039cc0017670700000078006900400070538800fa
:1039dc00100020000080fa00000006000c00fa0025
:1039ec006047980041079800520798000000eb00d0
:1039fc00100798006e409000e84f5000020036000f
:103a0c000000eb005c0037006e40900078fd070072
:103a1c006e4090007fff0700200798002e0090005a
:103a2c000000e00004003a006e40900066ff0700c2
:103a3c000000eb0050003700ae009000010f780042
:103a4c00ae0090005e009000808f500002003600a7
:103a5c00de009000010f7800a153800000102000c0
:103a6c00008060000000e0000c003a00f152800081
:103a7c00e0528000008050008000d1002e009000a9
:103a8c00808f5000050039006e4090004eff0700fb
:103a9c00a05380000080a000a05388001053800029
:103aac009e004000f0528000808f500013003900bf
:103abc00f1528000105380000080500010079800d5
:103acc004e01900080a72000904078001053800099
:103adc001e02900013c0b300510e0700ce009000e0
:103aec001e00900000804000400798001e009000cf
:103afc001e0f1000e0528000105388004e01900001
:103b0c0080a7200090407800105380001e0278009f
:103b1c0013c0b300420e0700105380001e0040007b
:103b2c0010538800ae0090005e009000808f500013
:103b3c0003003e006e40900023ff07000c0037008e
:103b4c00a153800000022000008060000000e00013
:103b5c0007003a00a05380000050a000a05388003a
:103b6c00af660700000078006900400070538800c1
:103b7c001e0090001e0040000080fa0000000600ad
:103b8c000400fa00004f7800110798001e00900006
:103b9c0063f40700000178009e0090001e4078003e
:103bac008eff07009e009000008040000080fa000d
:103bbc00000006000600fa00404798004e409000b6
:103bcc00e84f5000020036000000eb000b003700fd
:103bdc004e40900006fd0700f1528000e05280003c
:103bec0000805000000fe9004e40900009ff0700d4
:103bfc00100798001e0090001e0010000080fa00b4
:103c0c00000006000200fa00004f78001e40780009
:103c1c000b0007000000e000070032001e40780097
:103c2c00f3fc0700305380004053880011c0b300f0
:103c3c0000c1b3001a0507000080fa00000006005e
:103c4c000200fa00004f78001e407800e84f500048
:103c5c00020036000000eb00120037001e40780016
:103c6c00e3fc07003153800040538000808f5000ec
:103c7c000400390031538000405380000080500014
:103c8c0008003700015380004053800080805000b2
:103c9c0032538000f0528000000051000080400040
:103cac000000e8000080fa00000006000600fa00a0
:103cbc0020479800210798002e409000e0ff070055
:103ccc00000f78001e0078000000e00002003a00af
:103cdc000000eb002b0037002e409000c4fc0700c6
:103cec002e0090000000e0000900320080a72000a8
:103cfc0010417800415380002e00900014002000e9
:103d0c00824178000101780011c0b300c40d070096
:103d1c00405380000000e80040538800415380006d
:103d2c0000538000808f500002003600f05280005b
:103d3c00405388001e007800e10f500004003a0048
:103d4c00a053800000a0a000a05388000c003700f6
:103d5c00a153800000022000008060000000e00001
:103d6c0007003a00a05380000050a000a053880028
:103d7c002b660700000078000003b0007053880029
:103d8c00100020000080fa00000006000a00fa0073
:103d9c004047980031079800420798000000eb005c
:103dac00000f78004e409000a5ff07001007980008
:103dbc001e0090000000e00002003a000000eb0042
:103dcc00500037004e40900089fc0700ce00900058
:103ddc001e009000808f5000020036009e00900064
:103dec0041079800415380004e00900080804000b5
:103dfc0000538000808f5000180036000153800063
:103e0c004053800000805000000fe8003e009000fe
:103e1c000000e0000c00320080a720001041780068
:103e2c00415380003e0090001e02780082417800d1
:103e3c000101780011c0b300790d07003e0090001d
:103e4c001e004000300798004e0090001e005000ed
:103e5c0040079800f0528000405388003e009000cc
:103e6c000000e0000900320080a72000104178001b
:103e7c00415380003e0090004e0290008241780039
:103e8c000101780011c0b300650d0700415380009b
:103e9c004e00900000804000405388004e0090007f
:103eac001e004000400798009e0090004e009000bd
:103ebc00808050004e009000808f500004003e0027
:103ecc00a053800000a0a000a05388000c00370075
:103edc00a153800000022000008060000000e00080
:103eec0007003a00a05380000050a000a0538800a7
:103efc00cb650700000078000003b0007053880009
:103f0c004e0090000080fa00000006000600fa0047
:103f1c00404798004e409000e84f50000200360099
:103f2c000000eb000a0037004e40900030fc070008
:103f3c0001538000f0528000008f50004e409000e2
:103f4c003fff0700100798001e0090001e00100095
:103f5c000080fa00000006000e00fa00604798008e
:103f6c004107980052079800630798006e40900034
:103f7c00e84f500003003e005e0090000000e0009f
:103f8c0002003a000000eb00420037006e40900047
:103f9c0017fc07006e40900029ff070010079800df
:103fac00ee0090005e009000808040001e009000ab
:103fbc00808f5000040036009e0090006e00900030
:103fcc000080500050079800415380006e00900014
:103fdc00008f4000005380009e0f50000500310000
:103fec0001538000f0528000008050000080ea00f5
:103ffc001e0f4000005380001e0050000000e8001f
:10400c0020079800de0090002e009000808f50005a
:10401c0009003e0080a72000904078004e009000e0
:10402c005e029000814178001e01780011c0b3003f
:10403c00fb0c07001600370080a72000904078008a
:10404c004e0090002e029000814178001e017800f5
:10405c0011c0b300f20c0700de0090002e0090009f
:10406c008081500080a7200010417800f152800020
:10407c004e0290002e0090000000420003027800d7
:10408c00824178000101780011c0b300e40c0700f4
:10409c005e0090000080fa00000006000600fa00a6
:1040ac002047980021079800ae01900012002000d4
:1040bc008e0078002e409000a7ff07001e4078006d
:1040cc000080fa00000006003e00fa0020779800fd
:1040dc00211f9800321f9800431f9800541f98000e
:1040ec00651f98002e709000e84f500003003e00b2
:1040fc003e1890000000e00002003a000000eb00c7
:10410c00250137002e709000b9fb07002e7090002f
:10411c00cbfe0700ce18900001005000100798004d
:10412c009e0090003e189000808f500002003100dd
:10413c000080eb00180137005e1890000000e000d2
:10414c00060032009e0090005e189000808f500098
:10415c0002003600de1890001107980041538000d1
:10416c004e189000008040003007980001538000ea
:10417c003e009000808f50000700310001538000fa
:10418c00f0528000008050000080ea00be009000d9
:10419c000080400030079800be009000010f7800ae
:1041ac00015380003e009000008050000000e800a9
:1041bc0020079800ce18900031079800be18900088
:1041cc0071079800ae189000010f98002e189000ff
:1041dc0090407800114f98002e1890000000e800d5
:1041ec00201f98000000eb00600798006e189000ec
:1041fc000000e0000c0032009e48900000c6b300a6
:10420c0080cf5000080036009e489000a0c7b30035
:10421c0080cf500004003e009e48900000ceb300ba
:10422c0000c04000104f980000c2b300204f98000f
:10423c002e4890008080fb002e009000808f500054
:10424c00020036002e009000204f98002e4890005f
:10425c008080fb001e009000808f50000200360012
:10426c001e009000204f98002e4890000081fb000b
:10427c0080a720009040780072004700020278006e
:10428c00814178001e01780011c0b300640c070056
:10429c002e4890000080fb001e0f40002e4890001e
:1042ac000080fb00ae0090000080500020079800ba
:1042bc002e0090000000e00004003a00f152800053
:1042cc00010f78000080eb00200798006e1890001a
:1042dc000000e000680032000040eb00004f980046
:1042ec00600037000e4890000080fb000000470083
:1042fc00a050900000c6b30080cf500011003600d3
:10430c000e4890000080fb0000004700a050900079
:10431c00a0c7b30080cf50000a003e000e489000aa
:10432c000080fb008e4890008180fb0081004700dc
:10433c002151900001ceb3008140410000004700a4
:10434c00215098000e4890000080fb0000004700b0
:10435c00a05090001e48900080cf500023003a00df
:10436c003e1890000000e900301f98003e189000a5
:10437c000000e00008003a00be0090007e009000b3
:10438c00808050000e4890000080fb0000804000b0
:10439c000000e800800037002e1890009040780054
:1043ac00114f98002e1890000000e800201f980074
:1043bc0010002000600798009e48900000c6b300d3
:1043cc0080cf5000240036009e489000a0c7b30058
:1043dc0080cf500020003e009e48900000ceb300dd
:1043ec0000c04000104f98001b003700fe009000ea
:1043fc00311f98006e0090000000e00016003200a3
:10440c008e089000211f98002e1890009040780084
:10441c00114f98002e1890000000e800201f980003
:10442c009e48900000c6b30080cf500008003600b4
:10443c009e489000a0c7b30080cf500004003e00ff
:10444c009e48900000ceb30000c04000104f980072
:10445c000000eb00600798000e4890000040e80058
:10446c00004f98008e4890002e48900080cf50004e
:10447c009cff3900370037000040eb00004f9800dc
:10448c00300037000e4890000080fb000000470011
:10449c00a05090001e48900080cf500017003a00aa
:1044ac003e1890000000e900301f98003e18900064
:1044bc000000e00008003a00be0090007e00900072
:1044cc00808050000e4890000080fb00008040006f
:1044dc000000e800300037002e1890009040780063
:1044ec00114f98002e1890000000e800201f980033
:1044fc0010002000600798000f003700fe009000ad
:10450c00311f98006e0090000000e0000a0032009d
:10451c008e089000211f98002e1890009040780073
:10452c00114f98002e1890000000e800201f9800f2
:10453c000000eb00600798000e4890000040e80077
:10454c00004f98008e4890002e48900080cf50006d
:10455c00ccff39002e4890000080fb009e0090009c
:10456c0000805000100798009e0090003e189000ac
:10457c00808f5000020031000080eb0006003700f5
:10458c002e4890000080fb00be0090000080400090
:10459c003007980024ff37000080fa000000060066
:1045ac000800fa00004f7800114798001207980095
:1045bc0023079800340798000e00e800be02900014
:1045cc002e0290009e0190001200200080007800c6
:1045dc001e407800bcfe07000080fa0000000600b8
:1045ec000e00fa00881f78000040eb00004f7800a6
:1045fc001a0237001e4078007dfa07000040eb00dd
:10460c00604798000000eb00100798000000eb00da
:10461c0020079800a153800000202000008060003b
:10462c000000e00005003a00a1538000004020008b
:10463c00008060000000e0000a0032002029070022
:10464c000000e0000700320000c1b3006047980092
:10465c00a05380004a00de00614060000080fb0037
:10466c0010079800a1538000000220000080600019
:10467c000000e0000800320078538000e863070077
:10468c0000007800000054000000e00002003c0034
:10469c0000c1b30060479800a153800000042000c3
:1046ac00008060000000e0000800320088538000a9
:1046bc00db63070000007800000054000000e000fd
:1046cc0002003c0000c1b30060479800905380008a
:1046dc00eb0f50000a003a0088538000d0630700ab
:1046ec0000007800000054000000e00004003c00d2
:1046fc0010c1b30060479800c000200090538800a0
:10470c0090538000e40f500060003a000000eb0072
:10471c0040079800580037004e0090007400b90014
:10472c0000007800f000400000a220000080400053
:10473c00100078000000e000530032004e009000a2
:10474c007400b90000007800f000400000a22000c6
:10475c000080400090007800b0538000808f5000a3
:10476c0042003a0048fa07004e0090007400b9006d
:10477c008000780000a2200000804000a2002000f1
:10478c0080007800e0a0200035f107004e0090007a
:10479c007400b90000007800ea00400000a220007c
:1047ac000080400010007800305088004e009000cf
:1047bc007400b90000007800ec00400000a220005a
:1047cc00008040001000be0061004000e080480006
:1047dc00005088001150880081508000705080007b
:1047ec00808040003050800080804000405080002d
:1047fc0000806800b053880020c1b3006047980067
:10480c006000200090538800ce009000c0fe2f0066
:10481c000088b900000078008302200080814100ec
:10482c004e0090000000e8007400b9008000780091
:10483c0000a2200000804000000178004e00900093
:10484c007400b9008000780000a2200000804000b5
:10485c000302780013c0b30011c0b300f00a0700c4
:10486c000000eb00c0528800080037004e0090009a
:10487c000000e800400798004e009000e20f500046
:10488c00a5ff360001003700000000006e409000cc
:10489c000004e000090032001e00900000f0a700a8
:1048ac000000ea000000e9004f00de000040780044
:1048bc00804078006e409000f9010700a053800002
:1048cc00700060000000e0002b003a009053800064
:1048dc00e70f500059013a00396307000001be0090
:1048ec0050538000615380000000510081805900ba
:1048fc00e00f5000e08f580052013500a0538000ab
:10490c0067006000e60f50000e003a00a0538000d4
:10491c004300de0061406000604798001e40780054
:10492c0038fb07001e40780036fb07006e409000f5
:10493c000004e00045013a00e0002000905388009c
:10494c0045013700d0f9070021c0b30000c1b30006
:10495c00d30107001a6307000001be0080962800ef
:10496c0091002000020040008380480050538800d2
:10497c006153880038013700116307000001be0045
:10498c005053800061538000000051008180590019
:10499c00e00f5000e08f58002e013500baf90700e7
:1049ac00905380008000eb00c20020000300200028
:1049bc00820f5000838f5800dc003e000060010025
:1049cc000c00370020003700470037004e0037003e
:1049dc00d80037007300370082003700960037008c
:1049ec00a3003700b0003700b40037009200370046
:1049fc00c0003700214b07000000e000cf00320060
:104a0c001000200090538800d0508000640060009b
:104a1c000000e000060032007050800081508000e1
:104a2c000000780011c0b300314b0700ca003700fa
:104a3c0070508000815080000000780011c0b300dd
:104a4c002b4b0700c40037006a0047003e4b0700a1
:104a5c000000e000bb003200134b07000000e00038
:104a6c00160032005e009000ee009000705088003e
:104a7c0081508800200020009053880081508000d5
:104a8c00705080008080400030508000808040005a
:104a9c004050800000806800b0538800e0a12000e6
:104aac008040eb0001487800d0032000010020007a
:104abc00c04f8800d14f8800a7003700c0620700a4
:104acc000001be00809628009100200002004000ea
:104adc008380480050538800615388000000eb002d
:104aec00905388009c003700cd62070000007800ce
:104afc0070538800e0a020008a5607003000200088
:104b0c00905388009400370021a12000e0a02000e1
:104b1c00dd5607000000e0001b003a00c0620700f1
:104b2c00800078007053800000815000c04f8000de
:104b3c00d14f800000007800800f510083003600b8
:104b4c00e0a1200010407800e54f50000b003e0023
:104b5c00e0a12000104078008040e800e0a1200097
:104b6c0001487800c04f8000d14f80000000400009
:104b7c0081804800c04f8800d14f88002000200061
:104b8c00905388007400370020c0b3006047980031
:104b9c000000eb0010079800500020009053880094
:104bac006d00370020c0b300604798001000200053
:104bbc0010079800e0a1200010407800e34f50004f
:104bcc0064003600e0a1200041c0b3000148780029
:104bdc0000242400f1002000c04f8800d14f880031
:104bec005d003700e0a1200010407800e14f50003c
:104bfc0005003e0020c1b300604798001000200063
:104c0c001007980054003700a05380006800600023
:104c1c000000e0000500320040c1b300604798007e
:104c2c0010002000200798004b00370020c0b30074
:104c3c006047980048003700e0a120001040780041
:104c4c00e44f500005003e0000c1b30060479800df
:104c5c0010002000100798003f0037008000200053
:104c6c009053880010c1b300604798003a00370099
:104c7c00e0a1200010407800e44f500005003e00f9
:104c8c0010c1b30060479800100020001007980076
:104c9c003100370040c1b30060479800100020007d
:104cac00200798002c00370040c1b30060479800e3
:104cbc00100020002007980027003700e0a12000fa
:104ccc0010407800e44f500005003e0000c1b300d6
:104cdc006047980010002000100798001e00370055
:104cec0040c1b300604798001000200020079800d6
:104cfc0019003700e0a1200010407800e44f50006c
:104d0c0005003e0010c1b300604798001000200061
:104d1c00100798001000370040c1b300604798009e
:104d2c0010002000200798000b0037000000000046
:104d3c0009003700000000000700370000000000e9
:104d4c0005003700000000000300370000000000e1
:104d5c0001003700000000006e4090000004e000ed
:104d6c00310032001e0090000000e0002b003200e9
:104d7c00e0a12000104078008040e800e0a1200075
:104d8c0001487800c04f8000d14f800000004000e7
:104d9c0081804800c04f8800d14f8800215080008e
:104dac002053800000805000400798002150800064
:104dbc0020538000808f500006003100f15280009b
:104dcc00e052800000805000ce0090000080400037
:104ddc0040079800e24f8000f34f80004e00900097
:104dec008000eb000000510081805900e04f8800ea
:104dfc00f14f8800515080004e0090000080400020
:104e0c005050880020538000205088008040eb00d8
:104e1c006e409000a20007000300370011c0b300e1
:104e2c006e4090009e0007002e0090000000e000f5
:104e3c0009003200bf030700070037000000000024
:104e4c0005003700000000000300370000000000e0
:104e5c0001003700000000001e4fe8001e407800e3
:104e6c00e84f5000e3fd36000000eb0040079800cf
:104e7c00340037004e0090007400b9000000780038
:104e8c00f000400000a220000080400010007800dc
:104e9c000000e0002f003200e16107000001780003
:104eac004e0090007400b90000007800f200400041
:104ebc0000a220000080400010007800800051000b
:104ecc00c02d2000808f50001b003600ce009000bb
:104edc00c0fe2f000088b90000007800830220007b
:104eec00808141004e0090000000e8007400b90081
:104efc008000780000a220000080400000017800b3
:104f0c004e0090007400b9008000780000a22000d0
:104f1c00008040000302780013c0b30011c0b3003e
:104f2c003f0907000000eb00c05288004e009000c3
:104f3c000000e900400798004e0090000000e800d7
:104f4c00400798004e009000e20f5000c9ff360059
:104f5c0001003700000000004f0478000080fa00c8
:104f6c00000006002c00fa0030179800411798003a
:104f7c00521798003e1190009281fb001242900053
:104f8c000482fb004822dd0084817100030078005c
:104f9c00a24190008381fb00324190000281fb0012
:104fac004811dd000281710082007800300f9800fa
:104fbc00410f98004e1090001001be00520f980047
:104fcc00630f98000040eb00605f980060c0b30076
:104fdc00705f9800de119000031798000e1090007f
:104fec00233b07000017980076004700c100200003
:104ffc005b3b07000080ea00101798005e109000e1
:10500c00ad280700201798009e1090002e109000dd
:10501c00808f500003003200b426070010002000df
:10502c001d0037000000eb00a85f07000e80e800b1
:10503c0041012000112a07000e80e800120307002e
:10504c007e0090004400de006f40600080407800dd
:10505c00200020000008dd00744f50001e80fb0073
:10506c00de10900000805000740050005017980023
:10507c000e80e800be109000e80107000000e00080
:10508c00030032000e80e800de109000dd03070004
:10509c0096260700100020000080fa000000060091
:1050ac002a00fa00006f9800116f9800f6f70700bd
:1050bc000e6890000080fb006100600000407800ea
:1050cc000004e00006003200a053800000b0a000f5
:1050dc00a05388000e6890000004a100006f980097
:1050ec00a05380000050a100a0538800a053800062
:1050fc000060a100a0538800a05380000070a100a4
:10510c00a0538800a05380000090a100a0538800f9
:10511c00a053800000a0a100a0538800a0538000e1
:10512c000080a100a0538800000000006426070046
:10513c000000e000fdff32000e6890000080fb00d4
:10514c00660060000000e000030032000000eb008d
:10515c00000f78007c003700115380002050800035
:10516c00808f500003003a000000eb00000f780025
:10517c00670037001153800020508000808f500052
:10518c001d0036001153800020508000008f50000d
:10519c00505080009e0f5000020031005150800092
:1051ac00010f7800e05080009e0f50000500310088
:1051bc00e2508000020f7800a053800000a0a000f5
:1051cc00a053880080a720009040780020508000d9
:1051dc001e02780081417800000178008040eb00cd
:1051ec0010a020008e080700205080001e004000f8
:1051fc002050880046003700f1528000205080007b
:10520c000080500030179800be10900010538000a2
:10521c0080804000e0528000008f50005050800091
:10522c009e0f50000200310053508000030f780095
:10523c00e05080009e0f500005003100e1508000ce
:10524c00010f7800a053800000a0a000a05388009c
:10525c003e1090009e0f5000020036001e01780098
:10526c00321798003e11900080a7200090407800e3
:10527c002050800002027800814178000001780003
:10528c008040eb0010a02000650807003e10900045
:10529c001e001000301798003e1090000000e00037
:1052ac000e003200be11900080a720001041780043
:1052bc00e1528000f4528000205080000002520025
:1052cc0010a0200000004200030278008241780008
:1052dc00010178008040eb0051080700205080004d
:1052ec001e0040002050880021508000f0528000a9
:1052fc00808f50000600390021508000e25280005f
:10530c00f0528000000051000080400020508800c6
:10531c00a153800000802000008060000000e000ad
:10532c0009003200505080009e0f500006003200e1
:10533c00e05080009e0f5000030032000e68900079
:10534c000004a000006f98001e0078000000e00030
:10535c0005003a000e6890000080fb0063006000be
:10536c000000e00022003200505080001e0050006f
:10537c00505088001e0078000000e000030032004e
:10538c000e6890000034a000006f98001e6890001a
:10539c000080fb0061006000004078000004e00029
:1053ac0007003200e0a120008040eb0001487800ab
:1053bc0040422f0001002000c04f8800d14f8800d0
:1053cc007f6007000001be00c04f8000d14f8000fd
:1053dc0002004000838048005053880061538800cd
:1053ec00a05380000040a000a05388003900370073
:1053fc001e6890000080fb00620060000000e0006e
:10540c0014003200a0538000674060000040e800a8
:10541c00674060000080fb0067006000a2538000c2
:10542c0081ff2f008100610001007000a0538800f3
:10543c00e04f8000f14f800061005000e080580088
