:020000040000FA
:06000000A3EF2DF0120039
:020006001200E6
:0600080003EF25F01200D9
:02000E000004EC
:04001000A300000049
:02001400FFFFEC
:020016000000E8
:06001800A6EF24F0120027
:02001E000800D8
:10002000745B0000940200000100000067510000B2
:100030005F0F000001000000705B00008A020000FA
:10004000040000006E5B000092020000020000004D
:10005000665B0000EF0000000800000016000000D2
:100060009002000002000000625B0000FB00000044
:1000700004000000140000008E02000002000000D6
:100080008C8695969496949A94888C8495949E9652
:10009000200EC66EC78CC79EB2EC07F000011D0E85
:1000A0008F6FEDEC07F0006E00C005FD080E0D012E
:1000B0000515F2E1051D010BEFE10001010E646F72
:1000C000606B616B0001936B0001080E926F60EC36
:1000D00008F00001936B0001090E926F60EC08F0CC
:1000E0000001090E936F00010C0E926F60EC08F096
:1000F00000011A0E936F00010D0E926F60EC08F074
:100100000001090E936F00010A0E926F60EC08F077
:1001100000011A0E936F00010B0E926F60EC08F055
:1001200000010A0E936F0001040E926F60EC08F05C
:1001300000011A0E936F0001050E926F60EC08F03B
:1001400000010A0E936F0001020E926F60EC08F03E
:1001500000011A0E936F0001030E926F60EC08F01D
:100160000001856B5CEC07F000019B6B020E9C6F3D
:10017000C7EC08F000010D0E936F0001926B60EC6C
:1001800008F00001320E936F0001020E926F60ECD6
:1001900008F00001120E936F0001040E926F60ECE4
:1001A00008F00001400E936F0001030E926F60ECA7
:1001B00008F000013F0E936F0001090E926F60EC92
:1001C00008F00001120E936F0001060E926F60ECB2
:1001D00008F000010C0E936F0001070E926F60ECA7
:1001E00008F00001EE0E936F00010A0E926F60ECB2
:1001F00008F00001050E936F00010B0E926F60EC8A
:1002000008F00001040E9B6F030E9C6FC7EC08F012
:100210002DCF93F00001040E926F60EC08F02ECF0A
:1002200093F00001050E926F60EC08F02FCF93F071
:100230000001020E926F60EC08F030CF93F00001E5
:10024000030E926F60EC08F031CF93F00001926BD7
:1002500060EC08F032CF93F00001010E926F60EC79
:1002600008F00001936B0001150E926F60EC08F02E
:100270000001120E8F6FEDEC07F0006E00C065F00C
:100280000001996B010E9A6F0001100E986F9CECA3
:1002900008F00001720E996F340E9A6F0001140E6F
:1002A000986F9CEC08F00001996B9A6B0001986BB9
:1002B0009CEC08F000019B6B9C6BC7EC08F0000104
:1002C000040E976F00011F0E966F88EF08F0000173
:1002D000010E916F1BEC08F0F3CF00F0F4CF01F0AA
:1002E00000010050040B01E0010E00D012000001DB
:1002F0001F0E8F6FEDEC07F0006E00010050080B31
:10030000080A01E0010E00D012000001645101E072
:1003100034D0010E646F60C037FD61C038FD0D013F
:10032000375F000E385B37CD00F038CD01F0026A40
:10033000036AD880090E00541A0E0154000E0254AC
:10034000000E035404E2090E376F1A0E386F0001D5
:10035000400E976F00011E0E966F88EC08F037CDA7
:1003600093F000010C0E926F60EC08F038CD93F022
:1003700000010D0E926F60EC08F012000001190EE2
:100380009B6F010E9C6FC7EC08F00001190E8F6F78
:10039000EDEC07F0006E00C000FD0E0E00019B6F3B
:1003A0009C6BC7EC08F000010E0E8F6FEDEC07F0B0
:1003B000006E00C002FD00010F0E8F6FEDEC07F024
:1003C000006E00C003FD0001190E9B6F010E9C6FB3
:1003D000C7EC08F00001190E8F6FEDEC07F0006E0E
:1003E0000D0100510001005CD0E10C0E00019B6F7B
:1003F0009C6BC7EC08F000010C0E8F6FEDEC07F062
:10040000006E00C000FD00010D0E8F6FEDEC07F0D7
:10041000006E00C001FD0D010251005D0351015944
:1004200020E2090E046E1A0E056E066A076A005174
:10043000025D086E03510155096E0A6A0B6A085085
:10044000045C006E09500558016E0A500658026E91
:100450000B500758036E00C0F3FF01C0F4FF1BD020
:100460001AD00051021902E10151031906E1090EE7
:10047000F36E1A0EF46E0FD00ED00251005D006EB6
:1004800001510355016E0006000E015A00C0F3FF32
:1004900001C0F4FF00D012000001190E9B6F010E85
:1004A0009C6FC7EC08F00001190E8F6FEDEC07F0A0
:1004B000006E00C014FD00019B6B9C6BC7EC08F044
:1004C0000D01145102E1000E8FD00001645103E1CF
:1004D0001CDF000E89D060C062F061C063F062C0B2
:1004E00093F00001926B60EC08F063C093F00001A0
:1004F000010E926F60EC08F0140E0001836F846BA4
:100500000001000E816F0D0E826F1EEC07F012CD00
:100510001AF213CD1BF2C6EC1AF0F3CF12FDF4CF92
:1005200013FD00CD00F001CD01F0026A036AD8800E
:10053000090E00541A0E0154000E0254000E03540A
:100540001BE30D010D010051010B16E10D010D0121
:100550000551800B11E10D010D010451100B0CE14F
:100560000D01EE0ED8800255050E035505E30D0171
:100570000D010451800B01E1FF0000CD60F001CDC1
:1005800061F0060EE66EE66A0C0EE66E0D0EE66E85
:1005900066C0E9FF67C0EAFFE9CF00F0EACF01F0EB
:1005A00000C0E6FF01C0E6FFC1EC29F0026E060EB6
:1005B000E15E025068C0E9FF69C0EAFFEF68080E1B
:1005C0000D01135D0DE10D01125104E0060E0D0148
:1005D000125D06E168C0E9FF69C0EAFF12CDEFFFD6
:1005E0000001646B010E00D0120000010B0E936F2E
:1005F0000001020E926F60EC08F000011A0E936F7A
:100600000001030E926F60EC08F0180E00016D27D8
:100610001A0E6E236DC093F00001060E926F60EC0F
:1006200008F06EC093F00001070E926F60EC08F0C6
:10063000060E0001886F896B6AC086F06BC087F078
:100640006EEC07F0060E0001886F896B00012D0E1D
:10065000866F0F0E876F6EEC07F00001080E856F36
:100660005CEC07F000016C5102E1000E01D0060EB7
:100670000001856F5CEF07F00001800E976F0001AD
:100680001F0E966F88EC08F00001800E956F000138
:100690001F0E946F74EC08F000010A0E956F0001B4
:1006A0001C0E946F74EC08F00001080E976F0001A7
:1006B0001F0E966F88EC08F0050E0001655D04E0E2
:1006C000060E655D01E0D7D00D013A6B3B6B000172
:1006D0001C0E8F6FEDEC07F0006E0A0E0001001487
:1006E0000AE10D013A2B000E3B23E80E3A5D030EA2
:1006F0003B5901E2ECD700011C0E8F6FEDEC07F0C7
:10070000006E00010050020B07E10D01E80E3A5D9A
:10071000030E3B5901E2AFD00001080E956F0001B6
:100720001F0E946F74EC08F000018F6BEDEC07F076
:10073000006E00C03CFD0001010E8F6FEDEC07F074
:10074000006E00C03DFD0001060E8F6FEDEC07F05E
:10075000006E00C03EFD0001070E8F6FEDEC07F04C
:10076000006E00C03FFD0D013E2B000E3F233ECD2D
:1007700093F00001926B60EC08F03FCD93F0000124
:10078000010E926F60EC08F0070E0001836F846B1E
:100790000001400E816F0D0E826F50DB0D01476B23
:1007A000100E475D5BE200011C0E8F6FEDEC07F051
:1007B000006E00010050020B50E00D014351200B70
:1007C0004CE00001800E976F00011F0E966F88ECC1
:1007D00008F00001800E956F00011F0E946F74ECFD
:1007E00008F000010A0E956F00011C0E946F74EC66
:1007F00008F00001080E976F00011F0E966F88EC3D
:1008000008F000011C0E8F6FE8DB006E0A0E00017D
:10081000001401E1F6D70001080E956F00011F0ECC
:10082000946F74EC08F03ECD93F00001926B60EC95
:1008300008F03FCD93F00001010E926F60EC08F0DC
:10084000070E0001836F846B0001400E816F0D0E57
:10085000826FF4DA0D01472BA3D700D03CCD93F083
:100860000001926B60EC08F03DCD93F00001010EA9
:10087000926F60EC08F01200140E0001016A62250C
:10088000006E6351012200506F250D01096F015068
:10089000000170210D010A6F09CD00F00ACD01F0B1
:1008A000026A036AD880090E00541A0E0154000E21
:1008B0000254000E035404E20A0E095F1A0E0A5B8A
:1008C00009CD93F00001926B60EC08F00ACD93F033
:1008D0000001010E926F60EF08F00001020E8F6FB1
:1008E0007CDB006E00C03AFD0001030E8F6F75DBEC
:1008F000006E00C03BFD71C093F00001020E926FCC
:10090000DFDB72C093F00001030E926FD9DB3ACDAA
:10091000F3FF3BCDF4FF00D0120000018F6B5DDBD5
:10092000006E00C000FD0001010E8F6F56DB006EEF
:1009300000C001FD73C093F00001926BC1DB74C075
:1009400093F00001010E926FBBDB00CDF3FF01CDF0
:10095000F4FF00D01200140E0001016A6225006E3F
:1009600063510122005075250D01346F01500001C3
:1009700076210D01356F34CD00F035CD01F0026ADE
:10098000036AD880090E00541A0E0154000E025456
:10099000000E035404E20A0E345F1A0E355B0001A8
:1009A0008F6B1BDB006E00C036FD0001010E8F6FE8
:1009B00014DB006E00C037FD34CD93F00001926B64
:1009C0007FDB35CD93F00001010E926F79DB77C0AC
:1009D00079F078C07AF015D8F3CF34FDF4CF35FD37
:1009E00036CD93F00001926B6BDB37CD93F00001B5
:1009F000010E926F65DB34CDF3FF35CDF4FF00D0EF
:100A000012000D01026B036B046B056B00018F6B11
:100A1000E4DA006E00C000FD0001010E8F6FDDDA28
:100A2000006E00C001FD000179517A1152E0140EF0
:100A3000D8807955000E7A5505E20D01140E066F27
:100A4000076B04D079C006FD7AC007FD06CD83F0A0
:100A500007CD84F00001080E816F0D0E826FEED974
:100A60000D0106510001795F0D01075100017A5B0C
:100A70000D0106A10AD0080E0625E96E0D0E07210C
:100A8000EA6EEF6A062B000E0723080E1C6F0D0E90
:100A90001D6F065107111CE01CCDE9FF1DCDEAFFBB
:100AA000020E1C27000E1D23EECF00F0EFCF01F049
:100AB000000100500D010227000101500D01032328
:100AC000000E04230523020E065F000E075BE1D72C
:100AD000AAD700CD93F00001926BF2DA01CD93F02A
:100AE0000001010E926FECDA02CD00F003CD01F0AF
:100AF000026A036A04CD04F005CD05F0066A076AB0
:100B0000005004240D01026F01500520036F0250B4
:100B10000620046F03500720056F0451022705517A
:100B2000032302CD00F003CD01F0001E011E00C022
:100B3000F3FF01C0F4FF00D012000D01006B016B48
:100B4000026B036B046B056B00017B1D01E17C1DD7
:100B500014E10D01010E046F0001020E8F6F3DDAEA
:100B6000006E0001005000017B6F7C6B0001030EE2
:100B70008F6F33DA006E00C07CF000017D1D01E153
:100B80007E1D13E10D01010E056F00018F6B25DA4B
:100B9000006E0001005000017D6F7E6B0001010EB0
:100BA0008F6F1BDA006E00C07EF00001010ED8804E
:100BB0007F55000E805566E30D0105510DE10001E2
:100BC0008F6B0BDA006E00C000FD0001010E8F6F0D
:100BD00004DA006E00C001FD0D0104510EE10001B8
:100BE000020E8F6FFAD9006E00C002FD0001030EE5
:100BF0008F6FF3D9006E00C003FD7DC093F000013C
:100C0000926B5EDA7EC093F00001010E926F58DAAB
:100C10007BC093F00001020E926F52DA7CC093F019
:100C20000001030E926F4CDA00017FC000F080C01B
:100C300001F07F07000E805B0050011005E0EAD84C
:100C40000001856F39D9F0D70D0105510BE100CDB9
:100C500093F00001926B34DA01CD93F00001010EA4
:100C6000926F2EDA0D0104510CE102CD93F00001D8
:100C7000020E926F25DA03CD93F00001030E926FFE
:100C80001FDABAD00D01045116E000017B517F2517
:100C90000D01026F00017C5180210D01036F02CD17
:100CA00093F00001020E926F0BDA03CD93F0000176
:100CB000030E926F05DA7DC000F07EC001F00006E1
:100CC000000E015A005000017F27015080230001CF
:100CD0001F0E8F6F82D9006E000100BAF8D77DC059
:100CE00093F00001100E926FEBD97EC093F00001DB
:100CF000110E926FE5D97BC093F00001140E926F34
:100D0000DFD97CC093F00001150E926FD9D97DC058
:100D100000F07EC001F0026A036AD880090E005418
:100D20001A0E0154000E0254000E035415E37FC046
:100D300004F080C005F0066A076AD880090E0454E2
:100D40001A0E0554000E0654000E075405E20A0E52
:100D500000017F5F1A0E805B7FC093F00001120ECE
:100D6000926FAED980C093F00001130E926FA8D994
:100D70000001100E956F00011F0E946FB5D9000190
:100D8000200E976F00011F0E966FC2D90D010551FD
:100D900033E000017F2B000E80237DC000F07EC079
:100DA00001F0026A036AD880090E00541A0E015439
:100DB000000E0254000E035414E37FC004F080C000
:100DC00005F0066A076AD880090E04541A0E055405
:100DD000000E0654000E075404E20A0E7F5F1A0E3E
:100DE000805B7FC093F00001926B6AD980C093F062
:100DF0000001010E926F64D9120000011F0E8F6F67
:100E0000ECD8006E00010050200B200A01E0010E1A
:100E100000D012008C969E963A0EC96E9EA6FED702
:100E20009E96C9CF09FDC96A9EA6FED79E96C9CFD8
:100E300009FD8C860D01095100D012008C969E96FA
:100E40003A0EC96E0D01566B576B0001815182112C
:100E500003E08107000E825B9EA6FED79E96C9CF57
:100E600058FD000183510D01565D000184510D01B3
:100E700057591BE2C96A562B000E572300018151B6
:100E800082110DE0812B000E82239EA6FED79E9636
:100E9000C95081C0E9FF82C0EAFFEF6E05D09EA66F
:100EA000FED79E96C9CF58FDDCD78C8656CDF3FF72
:100EB00057CDF4FF00D012008C969E967A0EC96E24
:100EC0009EA6FED79E96C9CF1DFD85C0C9FF9EA6D2
:100ED000FED79E96C9CF1DFD8C8612008C969E96DD
:100EE0007A0EC96E9EA6FED79E96C9CF1DFD000143
:100EF0008851891111E086C0E9FF87C0EAFFEF50F1
:100F0000C96E862B000E87238807895B9EA6FED7B5
:100F10009E96C9CF1DFDEBD78C8612008C969E96AF
:100F20007A0EC96E9EA6FED79E96C9CF02FD00011D
:100F30008D518E1115E08AC0F6FF8BC0F7FF8CC073
:100F4000F8FF0800F550C96E8A2B000E8B238C2306
:100F50008D078E5B9EA6FED79E96C9CF02FDE7D772
:100F60008C8612000001200E956F00011E0E946FFA
:100F7000BBD8010E0D01016F026B0D0101CD00F018
:100F800002CD01F00107000E025B0050011006E0E7
:100F90000A0EE66E83EC2DF0E552EFD78C969E9606
:100FA000C9689EA6FED79E96C9CF00FD8C86010E0D
:100FB0000D01036F046B0D0103CD00F004CD01F0B2
:100FC0000307000E045B0050011006E00A0EE66EF7
:100FD00083EC2DF0E552EFD712008C969E968FC0D1
:100FE000C9FF9EA6FED79E96C9CF56FDC96A9EA68A
:100FF000FED79E96C9CF56FD8C860D01565100D066
:1010000012008C969E9690C0C9FF9EA6FED79E9613
:10101000C9CF02FDC96A9EA6FED79E96C9CF02FD22
:10102000C96A9EA6FED79E96C9CF02FD8C860D0189
:10103000025100D012000001140E9B6F020E9C6F33
:10104000A6D891C093F00001140E926F39D8000118
:10105000010E936F0001120E926F32D800010A0E3A
:101060009B6F030E9C6F93D800010A0E906FC9DF2F
:10107000006E000100B0F8D70001140E9B6F020E45
:101080009C6F85D80001936B0001120E926F18D8E7
:101090000001180E906FB5DF006E00C000FD00016A
:1010A000190E906FAEDF006E00C001FD00019B6B5A
:1010B0009C6B6DD800CDF3FF01CDF4FF00D0120082
:1010C0008C969E96400E00019211C96E9EA6FED788
:1010D0009E96C9CF56FD93C0C9FF9EA6FED79E9689
:1010E000C9CF56FD8C8612008C969E96A00E0001EC
:1010F0009411C96E9EA6FED79E96C9CF1DFD95C0C0
:10110000C9FF9EA6FED79E96C9CF1DFD8C861200F4
:101110008C969E96800E00019611C96E9EA6FED7F3
:101120009E96C9CF1DFD97C0C9FF9EA6FED79E966D
:10113000C9CF1DFD8C8612000001140E9B6F020E9C
:101140009C6F25D898C093F00001140E926FB8DF01
:1011500099C093F00001160E926FB2DF9AC093F01F
:101160000001170E926FACDF00010A0E9B6F030E99
:101170009C6F0DD800010A0E906F43DF006E0001D6
:1011800000B0F8D700019B6B9C6BC7EF08F0000123
:10119000030E956F00011F0E946FA6DF9CC097F0A1
:1011A00000011F0E966F88EF08F00001040E956F86
:1011B00000011F0E946F98DF00011D0E8F6F0DDF71
:1011C000006E000100B4F8D700011F0E8F6F05DF1D
:1011D000006E000100B6F8D70001200E976F0001E5
:1011E0001E0E966F88EF08F00001200E956F00012B
:1011F0001E0E946F79DF00011D0E8F6FEEDE006E04
:10120000000100A0F8D70001040E976F00011F0E27
:10121000966F88EF08F00001150E9B6F030E9C6F10
:10122000B6DF9DC093F00001150E926F49DF0001FB
:101230009B6B9C6BC7EF08F00001150E9B6F030EB4
:101240009C6FA5DF0001150E8F6FC7DE006E00C01A
:1012500000FD00019B6B9C6B9ADF0D01005100D0DB
:0212600012007A
:0E1262000F015F510CE1010E5F6F0D01006B7B
:10127000010E005D05E202013A690D01002BF8D76D
:10128000FF0E02013A5D06E03AC2CEF19FEC12F089
:1012900002013A69020E416F426B436B446B010ECF
:1012A0003B6F3C6B3C893C831200FF0E02013A5DB0
:1012B00006E03AC2CEF19FEC12F002013A693B6BB4
:1012C000120002013B5108E1020E416F426B436B79
:1012D000446B010E3B6F3C91120002013B5102E155
:1012E000000E01D0010E00D0120002013C51010B92
:1012F00000D0120002013CA303D03C93010E02D0A7
:10130000000E00D0120002013C51080B01E0010E5A
:1013100000D012004DC200FF4EC201FF4FC202FFBB
:1013200050C203FF12000D01596B010E595D01E31C
:10133000D5D302013B51080A01E174D3020A01E14D
:1013400071D3060A01E16ED30B0A01E1CCD20E0A79
:1013500001E1C9D2020A01E1C6D20D0A01E16CD253
:10136000030A01E1EFD1010A01E131D1070A01E1EC
:10137000EAD0010A1FE0030A04E0010A01E0ABD34E
:10138000AAD3430E0101C96FCA6B440E0101C76F96
:10139000C86B0101C66B0101C26BC36BC46BC56B2B
:1013A00067EC10F002013A6FFF0E3A5D01E193D352
:1013B000020E3B6F3C0E456F466B476B486B596B9B
:1013C0003C913C9567EC01F0000901E184D33AC2FD
:1013D000D3F10BEC13F0F3CF00F0F4CF01F02C0EAF
:1013E000005C010E015801E276D302013C790A0E3D
:1013F000E66EE66AE6683A51170DF3CFE9FFF4CFDF
:10140000EAFF000EE926010EEA22E9CF00F0EACF5A
:1014100001F000C0E6FF01C0E6FF0FEC2AF0026E0B
:10142000050EE15E02500201626B0201010E616F66
:1014300027EC0FF041C200F042C201F043C202F0BB
:1014400044C203F0970E236E980E246E256A266A16
:1014500000C01EF001C01FF002C020F003C021F048
:10146000D8EC2CF01AC000F01BC001F01CC002F038
:101470001DC003F000C0E6FF01C0E6FF02C0E6FFAA
:1014800003C0E6FF36EC17F0E552E7CF03F0E55274
:10149000E7CF02F0E552E7CF01F0E552E7CF00F0E9
:1014A000F3CF04F0F4CF05F0066A076A970E236EB7
:1014B000980E246E256A266A04C01EF005C01FF02F
:1014C00006C020F007C021F010EC2DF01AC004F087
:1014D0001BC005F01CC006F01DC007F0045000261C
:1014E00005500122065002220750032200C0E6FFE9
:1014F00001C0E6FF02C0E6FF03C0E6FFC5EC2BF02B
:10150000E552E7CF03F0E552E7CF02F0E552E7CF2F
:1015100001F0E552E7CF00F01E5000010024020167
:101520003D6F1F500001012002013E6F205000015D
:10153000022002013F6F2150000103200201406F91
:10154000030E3B6FC8D23AC2E3F11CEC15F0F3CFA7
:1015500000F0F4CF01F0FA0E005C000E01582EE20C
:10156000C5EC2BF002013D511E5C006E3E511F5830
:10157000016E3F512058026E40512158036E0334D2
:10158000000E031809E6D880000E0054000E015426
:10159000000E0254000E035410E2400E415D000E96
:1015A0004259000E4359000E445905E2D890413784
:1015B000423743374437020E3B6F8DD202013C87DE
:1015C0008EDA020801E087D20201040E3B6F3AC2B4
:1015D000D3F10BEC13F0F3CF00F0F4CF01F0020ED7
:1015E000005C010E015801E276D20A0EE66EE66A50
:1015F000E66802013A51170DF3CFE9FFF4CFEAFF95
:10160000000EE926010EEA22E9CF00F0EACF01F050
:1016100000C0E6FF01C0E6FF0FEC2AF0026E050EE7
:10162000E15E02500201626B0201030E616F27EC62
:101630000FF041C200F042C201F043C202F044C2C6
:1016400003F0970E236E980E246E256A266A00C05A
:101650001EF001C01FF002C020F003C021F0D8EC42
:101660002CF01AC000F01BC001F01CC002F01DC01D
:1016700003F000C0E6FF01C0E6FF02C0E6FF03C0C2
:10168000E6FF36EC17F0E552E7CF03F0E552E7CF7F
:1016900002F0E552E7CF01F0E552E7CF00F0F3CFDB
:1016A00004F0F4CF05F0066A076A970E236E980ED1
:1016B000246E256A266A04C01EF005C01FF006C00D
:1016C00020F007C021F010EC2DF01AC004F01BC070
:1016D00005F01CC006F01DC007F0045000260550A0
:1016E0000122065002220750032200C0E6FF01C07B
:1016F000E6FF02C0E6FF03C0E6FFC5EC2BF0E552B3
:10170000E7CF03F0E552E7CF02F0E552E7CF01F073
:10171000E552E7CF00F01E500001002402013D6FAA
:101720001F500001012002013E6F205000010220E5
:1017300002013F6F2150000103200201406F050E9E
:101740003B6FC9D13AC2E3F11CEC15F0F3CF00F0C6
:10175000F4CF01F0FA0E005C000E01582EE2C5EC49
:101760002BF002013D511E5C006E3E511F58016E70
:101770003F512058026E40512158036E0334000E31
:10178000031809E6D880000E0054000E0154000E24
:101790000254000E035410E2400E415D000E425907
:1017A000000E4359000E445905E2D89041374237A4
:1017B00043374437020E3B6F8ED191D9060A37E08A
:1017C000030A01E038D03AC2CEF19FEC12F00201D8
:1017D0003A69C5EC2BF01EC03DF21FC03EF220C09E
:1017E0003FF221C040F20201060E3B6F3C833C8178
:1017F00059A108D04DC200FF4EC201FF4FC202FFE7
:1018000050C203FF59A508D055C204FF56C205FFB8
:1018100057C206FF58C207FF59A308D051C208FF9C
:1018200052C209FF53C20AFF54C20BFF04D0020187
:10183000020E3B6F00D04FD1C5EC2BF002013D51A1
:101840001E5C006E3E511F58016E3F512058026EC3
:1018500040512158036E970E005C980E0158000EFF
:101860000258000E035801E236D141C21EF042C2B6
:101870001FF043C220F044C221F0030E236E246AFD
:10188000256A266AD8EC2CF0020145511A5C4651B3
:101890001B5847511C5848511D580CE2970E3D27C4
:1018A000980E3E23000E3F2340234507465B475BCF
:1018B000485B11D1430E0101C96FCA6B440E01018F
:1018C000C76FC86B0101C66B0101C26BC36BC46BF0
:1018D000C56B67EC10F002013A6FFF0E3A5D01E153
:1018E000FAD0070E3B6F3AC2D3F10BEC13F0F3CFF3
:1018F00000F0F4CF01F0020E005C010E015801E28D
:10190000EAD00201010E626F0201030E616F9FDADD
:1019100002013C9541C200F042C201F043C202F014
:1019200044C203F0970E236E980E246E256A266A31
:1019300000C01EF001C01FF002C020F003C021F063
:10194000D8EC2CF01AC000F01BC001F01CC002F053
:101950001DC003F000C0E6FF01C0E6FF02C0E6FFC5
:1019600003C0E6FF36EC17F0E552E7CF03F0E5528F
:10197000E7CF02F0E552E7CF01F0E552E7CF00F004
:10198000F3CF04F0F4CF05F0066A076A970E236ED2
:10199000980E246E256A266A04C01EF005C01FF04A
:1019A00006C020F007C021F010EC2DF01AC004F0A2
:1019B0001BC005F01CC006F01DC007F00450002637
:1019C00005500122065002220750032200C0E6FF04
:1019D00001C0E6FF02C0E6FF03C0E6FFC5EC2BF046
:1019E000E552E7CF03F0E552E7CF02F0E552E7CF4B
:1019F00001F0E552E7CF00F01E5000010024020183
:101A00003D6F1F500001012002013E6F2050000178
:101A1000022002013F6F2150000103200201406FAC
:101A20003B2B59D03AC2E3F11CEC15F0F3CF00F098
:101A3000F4CF01F0FA0E005C000E01582CE2C5EC68
:101A40002BF002013D511E5C006E3E511F58016E8D
:101A50003F512058026E40512158036E0334000E4E
:101A6000031809E6D880000E0054000E0154000E41
:101A70000254000E03540EE23B2B0C0EE76E3B1992
:101A8000E8AE02D03B3503D0E750D8803B5502E2A8
:101A9000020E3B6F20D023D8060A18E0030A01E0AB
:101AA00019D03AC2CEF19FEC12F002013A69C5ECAE
:101AB0002BF01EC03DF21FC03EF220C03FF221C0FD
:101AC00040F20201060E3B6F3C8304D00201020E7D
:101AD0003B6F00D000D00D01592B27D412000D010F
:101AE000036B0101000EE46F0D0EE56F3BEC15F08A
:101AF000020E0D01005D01E080D11C0E0101D16FCD
:101B0000D26BFAEC12F00D01016B060E015D14E2CE
:101B10000101000EE46F0D0EE56F3BEC15F00D01B9
:101B20000151EA6A2D0FE96E0F0EEA22EF50005DB7
:101B300001E088D1012BE9D702013CB513D0100E8A
:101B40000101D16FD26BFAEC12F0040E0101E86FC3
:101B5000E96B01014D0EE66F020EE76F55EC15F0D3
:101B600002015981F00E0101D16FD26BFAEC12F033
:101B70000D01046B0101000EE46F0D0EE56F3BECEF
:101B800015F0000904E10D01010E046F36D10D01BD
:101B90000051330A01E1C3D0CC0A01E1BDD0C90A2A
:101BA00001E190D0350A50E0020A20E0340A01E059
:101BB0000CD10101000EE46F0D0EE56F3BEC15F04A
:101BC0000D01000511E10101030EE46F0D0EE56F3B
:101BD0003BEC15F002013C51040B05E0020E0D0137
:101BE000035D01E12FD101D02DD103D10101000E00
:101BF000E46F0D0EE56F3BEC15F0040E0D01005D7A
:101C000021E102013CA510D00D01016B040E015D24
:101C10000AE20101000EE46F0D0EE56F3BEC15F0DA
:101C20000D01012BF3D70DD0040E0101E86FE96B14
:101C30000101550EE66F020EE76F55EC15F002013B
:101C4000598501D0FFD0D5D00101020EE46F0D0EF1
:101C5000E56F3BEC15F0040E0D01025D21E302017E
:101C60003CA510D00D01016B040E015D0AE20101DB
:101C7000000EE46F0D0EE56F3BEC15F00D01012B2E
:101C8000F3D70DD0040E0101E86FE96B0101510E8D
:101C9000E66F020EE76F55EC15F00201598301D093
:101CA000D1D0040E0D01025F0D010251020700099F
:101CB00008E00101000EE46F0D0EE56F3BEC15F03E
:101CC000F3D797D00101000EE46F0D0EE56F3BECEA
:101CD00015F0040E0D01005D1DE10101080EE46F19
:101CE0000D0EE56F3BEC15F00101070EE46F0D0ED4
:101CF000E56F3BEC15F00101060EE46F0D0EE56F8C
:101D00003BEC15F00101050EE46F0D0EE56F3BECA9
:101D100015F001D097D06DD0010E046F6AD001018B
:101D2000000EE46F0D0EE56F3BEC15F0040E0D0197
:101D3000005D49E102013CA510D00D01016B040ECC
:101D4000015D0AE20101000EE46F0D0EE56F3BEC50
:101D500015F00D01012BF3D735D00101480EE46FCA
:101D6000020EE56F3BEC15F00101470EE46F020E29
:101D7000E56F3BEC15F00101460EE46F020EE56FD6
:101D80003BEC15F00101450EE46F020EE56F3BECF4
:101D900015F045C200F046C201F047C202F048C249
:101DA00003F0050ED8900332023201320032E80609
:101DB000F9E100500201455F0150465B0250475B6C
:101DC0000350485B01D03ED014D00101020EE46FF5
:101DD0000D0EE56F3BEC15F00D01025102070009F5
:101DE00008E00101000EE46F0D0EE56F3BEC15F00D
:101DF000F3D70D01045101E1BDD6020E035D0BE1E5
:101E000005CD49F206CD4AF207CD4BF208CD4CF292
:101E100002013C8512D0490EE96E020EEA6EEE50C8
:101E2000051909E1EE50061906E1EE50071903E124
:101E3000EE50081900E101E0036B92EC15F00D0182
:101E4000035104D092EC15F0000E00D012000101F5
:101E5000010ED46F40EC13F00101010ED46F40EC81
:101E600013F00101060ED46F40EC13F00101D46BA6
:101E700040EC13F00101120ED46F40EC13F001019D
:101E8000230ED46F40EC13F00101340ED46F40ECFC
:101E900013F00101560ED46F40EC13F00101D46B26
:101EA00040EC13F00101D46B40EC13F002013C5103
:101EB000100B02E0000E01D0800E0101D46F40EC47
:101EC00013F00101D46B40EC13F0030E0201615DCD
:101ED0000EE162510CE0040E0101D76FD86B0101D5
:101EE0004D0ED56F020ED66F65EC13F010D00101C8
:101EF000D46B40EC13F00101D46B40EC13F0010102
:101F0000D46B40EC13F00101D46B40EC13F00D01E5
:101F1000516B0C0E515D07E20101D46B40EC13F0E4
:101F20000D01512BF6D7060E0101D76FD86B0101B9
:101F30002D0ED56F0F0ED66F65EC13F00D01516BA2
:101F4000CA0E515D07E20101D46B40EC13F00D01A4
:101F5000512BF6D70101630ED46F40EC13F0010151
:101F6000820ED46F40EC13F00101530ED46F40EC9D
:101F700013F00101630ED46F40EC13F00101350E34
:101F8000D46F40EC13F00101010ED46F40EC13F05C
:101F900061C2D4F140EC13F00201610501E13C950E
:101FA000030E615D1CE162511AE10101360ED46F2E
:101FB00040EC13F00101040ED46F40EC13F04CC25E
:101FC000D4F140EC13F04BC2D4F140EC13F04AC210
:101FD000D4F140EC13F049C2D4F140EC13F001010C
:101FE000370ED46F40EC13F00101040ED46F40ECB7
:101FF00013F00101010ED46F40EC13F00101030E48
:10200000D46F40EC13F00101060ED46F40EC13F0D6
:1020100001010C0ED46F40EC13F0030E0201615D60
:1020200002E1625107E061051AE14D514E114F1175
:10203000501115E00101320ED46F40EC13F0010194
:10204000040ED46F40EC13F0040E0101D76FD86B6F
:1020500001014D0ED56F020ED66F65EC13F0010134
:10206000D46940EC13F001012C0EB95D010EBA5990
:1020700005E20101D46B40EC13F0F5D700CF52FD1F
:1020800001CF53FD02CF54FD03CF55FD0201625134
:1020900005E10F01006B016B026B036B40EC14F068
:1020A00052CD00FF53CD01FF54CD02FF55CD03FFAC
:0220B00012001C
:0E20B2000D01006B080E005D06E200CDCEF1C0
:1020C0003EDA0D01002BF7D70101C18312000D018B
:1020D000000E016F010E026F006B080E005D01E340
:1020E000D5D001CDE9FF02CDEAFF0C0EE926000EA6
:1020F000EA22EECF00F0EFCF01F0026A036A00504F
:1021000001100210031001E0BBD001CDE9FF02CDA8
:10211000EAFF0C0EC7C1EBFF0D0EC8C1EBFF0101BA
:10212000C751C8111FE1000ED880CB55200ECC55E9
:1021300005E3000ECB5D100ECC5903E2CB6B100E05
:10214000CC6FCBC100F0CCC101F0CB2B000ECC2367
:1021500001CDE9FF02CDEAFF0C0E00C0EBFF0D0E32
:1021600001C0EBFFC65105E0C251C311C411C51136
:1021700021E10A0EE66EE66AE66801CDE9FF02CDCE
:10218000EAFFE9CF00F0EACF01F000C0E6FF01C0AE
:10219000E6FF0FEC2AF0026E050EE15E025001CD63
:1021A000E9FF02CDEAFF0E0EE926000EEA22050E37
:1021B000EF6E57D0C651040A30E0070A01E051D053
:1021C00001CDE9FF02CDEAFFC2C1EEFFC3C1EEFFC0
:1021D000C4C1EEFFC5C1EEFF01CDE9FF02CDEAFFAC
:1021E000130EE926000EEA22EF6A01CDE9FF02CDC7
:1021F000EAFF0F0EE926000EEA22260EEE6EEE6AC8
:10220000EE6AEE6A01CDE9FF02CDEAFF0E0EE92685
:10221000000EEA22020EEF6E24D00A0EE66EE66A87
:10222000C2C1E6FFC3C1E6FF01CDE9FF02CDEAFF6F
:10223000E9CF00F0EACF01F000C0E6FF01C0E6FF01
:10224000C1EC29F0026E060EE15E025001CDE9FFFD
:1022500002CDEAFF0E0EE926000EEA22050EEF6E11
:1022600000D001CDE9FF02CDEAFF0A0EC9C1EBFFA4
:102270000B0ECAC1EBFF00CDB8F10D01005108D023
:10228000170E0127000E0223002B27D7FF0E00D0C8
:1022900012000D011C6B080E1C5D01E338D11C51AE
:1022A000170DF3CFE9FFF4CFEAFF000EE926010E88
:1022B000EA220E0EE926000EEA22EF50050811E090
:1022C0001C51170DF3CFE9FFF4CFEAFF000EE9260A
:1022D000010EEA220E0EE926000EEA22EF50040853
:1022E00001E113D11C51170DF3CFE9FFF4CFEAFF41
:1022F000000EE926010EEA220E0EE926000EEA2261
:10230000EF50050A01E100D1010A01E1FDD0070A01
:102310003EE0010A01E0F8D0D8EC2BF01EC000F03E
:102320001FC001F00D011C51170DF3CFE9FFF4CFD1
:10233000EAFF000EE926010EEA22150EE926000E3C
:10234000EA2200C0EEFF01C0EDFF1C51170DF3CFD4
:10235000E9FFF4CFEAFF000EE926010EEA22E9CFF9
:1023600082F2EACF83F2E2EC21F00D011C51170D4D
:10237000F3CFE9FFF4CFEAFF000EE926010EEA22CF
:102380000E0EE926000EEA22030EEF6EBED01C519F
:10239000170DF3CFE9FFF4CFEAFF000EE926010E97
:1023A000EA22040EE926000EEA22E9CF86F2EACFFD
:1023B00087F21C51170DF3CFE9FFF4CFEAFF000EAF
:1023C000E926010EEA22E9CF84F2EACF85F226EC73
:1023D00022F0000901E086D00D011C51170DF3CF4A
:1023E000E9FFF4CFEAFF000EE926010EEA22150EFE
:1023F000E926000EEA22EECF02F0EFCF03F002C092
:10240000E6FF03C0E6FFD8EC2BF0E552E7CF03F080
:10241000E552E7CF02F002501E5C006E03501F58D9
:10242000016E0D011C51170DF3CFE9FFF4CFEAFF48
:10243000000EE926010EEA220F0EE926000EEA221E
:10244000EECF04F0EFCF05F00050045C01500558CA
:1024500048E21C51170DF3CFE9FFF4CFEAFF000E5D
:10246000E926010EEA22130EE926000EEA22EFCF3A
:1024700000F0060E005C25E21C51170DF3CFE9FFBA
:10248000F4CFEAFF000EE926010EEA22130EE92638
:10249000000EEA22EF2A1C51170DF3CFE9FFF4CF0B
:1024A000EAFF000EE926010EEA220F0EE926000ED1
:1024B000EA22D890EF36010EEB36020EEB36030E11
:1024C000EB361C51170DF3CFE9FFF4CFEAFF000EF6
:1024D000E926010EEA220E0EE926000EEA22020E7D
:1024E000EF6E11D00D011C51170DF3CFE9FFF4CFA2
:1024F000EAFF000EE926010EEA220E0EE926000E82
:10250000EA22050EEF6E01D000D01C2BC4D61200BB
:102510000101CD51170DF3CFE9FFF4CFEAFF000E13
:10252000E926010EEA220E0EE926000EEA22EF50FD
:10253000050802E0000E01D0010E00D01200080EC6
:102540000101CE5D01E32ED0CE51170DF3CFE9FF8F
:10255000F4CFEAFF000EE926010EEA220C0EE9266E
:10256000000EEA22EE6AED6ACE51170DF3CFE9FFB5
:10257000F4CFEAFF000EE926010EEA22EE6AEE6AC7
:10258000EE6AEE6ACE51170DF3CFE9FFF4CFEAFF02
:10259000000EE926010EEA220E0EE926000EEA22BE
:1025A000040EEF6E1200080E0101016ACF25006EC5
:1025B000D0510122026A036A0B0E00261A0E012274
:1025C000000E022203220E0E0026000E012202221D
:1025D0000322140E0026000E01220222032200C054
:1025E00071F001C072F06DEC04F0CFC1BDF1D0C14B
:1025F000BEF11200080E0101D1250F014F6F000E30
:102600000101D2210F01506F29EC27F0D1C1BFF198
:10261000D2C1C0F1120077EC01F0000903E1F36AC6
:10262000F46A2DD00101D35102018E5D09E0D3C1BE
:102630008EF20101B96BBA6B0101CF6BD06BB3DFC6
:10264000D3C1B8F1C00E046E050E056E066A076AA6
:10265000B9C108F0BAC109F00A6A0B6A0850045CF3
:10266000006E09500558016E0A500658026E0B5054
:102670000758036E00C0F3FF01C0F4FF00D0120042
:10268000BDC100F0BEC101F0026A036AC00E005C69
:10269000050E0158000E0258000E035802E3000E0A
:1026A00013D0D4C185F05CEC07F00101BD2B000E06
:1026B000BE23BD51B95DBE51BA5904E2BDC1B9F1E5
:1026C000BEC1BAF1010E00D01200C00E046E050E9C
:1026D000056E066A076ABDC108F0BEC109F00A6A44
:1026E0000B6A0850045C006E09500558016E0A50D0
:1026F0000658026E0B500758036E00C000FD01C063
:1027000001FD0101D7510D01005D0101D8510D01FD
:10271000015904E200CDD7F101CDD8F10101D75123
:10272000BD27D851BE23BD51B95DBE51BA5904E28F
:10273000BDC1B9F1BEC1BAF1D7C188F0D8C189F025
:10274000D5C186F0D6C187F06EEC07F0D7C1F3FF94
:10275000D8C1F4FF00D01200C00E046E050E056E45
:10276000066A076ABDC108F0BEC109F00A6A0B6AB1
:102770000850045C006E09500558016E0A50065856
:10278000026E0B500758036E00C000FD01C001FD32
:102790000101DC510D01005D0101DD510D01015907
:1027A00004E200CDDCF101CDDDF10101DC51BD27FA
:1027B000DD51BE23BD51B95DBE51BA5904E2BDC160
:1027C000B9F1BEC1BAF1DCC18DF0DDC18EF0D9C165
:1027D0008AF0DAC18BF0DBC18CF08EEC07F0DCC143
:1027E000F3FFDDC1F4FF00D01200DEC1E6FFDFC160
:1027F000E6FF29EC2AF0E552E552F3CFD7F1F4CF0A
:10280000D8F1DEC1D5F1DFC1D6F15FDF0101DE51C4
:10281000F324006EDF51F420016E00C0F3FF01C00D
:10282000F4FF00D01200E0C1E6FFE1C1E6FFE2C123
:10283000E6FF37EC2AF0E552E552E5521FC0DCF125
:1028400020C0DDF1E0C1D9F1E1C1DAF1E2C1DBF193
:1028500083DFF3CF03F0F4CF04F0056A0101E05108
:102860000324006EE1510420016EE2510520026E46
:1028700000C01FF001C020F002C021F000D0120003
:102880000101B851170DF3CF26FDF4CF27FD000E3F
:102890000D012627010E2723080E0101B9250D0180
:1028A000286F000E0101BA210D01296F26CDE9FF25
:1028B00027CDEAFF0C0EE926000EEA22EECF1AF22F
:1028C000EDCF1BF2C6EC1AF0F3CF1EFDF4CF1FFDC7
:1028D00026CDE9FF27CDEAFF0A0EE926000EEA22FF
:1028E000EECF1AF2EDCF1BF2C6EC1AF0F3CF20FDBB
:1028F000F4CF21FD28CD1AF229CD1BF2C6EC1AF037
:10290000F3CF22FDF4CF23FD0D01246B256B00CF07
:102910002AFD01CF2BFD02CF2CFD03CF2DFD26CDAF
:10292000E9FF27CDEAFFEECF2EFDEECF2FFDEECF54
:1029300030FDEFCF31FD326B110E336F28CD34FDFA
:1029400029CD35FD34CD1AF235CD1BF2C6EC1AF087
:10295000F3CF34FDF4CF35FD0C0E0201226F236B53
:1029600002012A0E206F0D0E216FEDEC1AF0F3CF4D
:1029700024FDF4CF25FD0D01241F251F0001190E94
:10298000716F1A0E726F6DEC04F028CD4DFF29CDDA
:102990004EFF0F01110E4C6F26CDE9FF27CDEAFF48
:1029A000E9CF4AFFEACF4BFFB5EC26F0080E000155
:1029B000886F896B00011E0E866F0D0E876F6EEC9F
:1029C00007F000012D0E736F1A0E746F8DEC04F07A
:1029D000F3CF36FDF4CF37FD28CD79F029CD7AF04D
:1029E00001EC05F0F3CF38FDF4CF39FD0D0138517E
:1029F000391102E13869396936CD73F037CD74F099
:102A00008DEC04F00001330E716F1A0E726F6DECD5
:102A100004F0020E0001886F896B0001380E866F8A
:102A20000D0E876F6EEC07F03CEC03F00101B96B03
:102A3000BA6B02018E691200E3C1B8F10101E351E2
:102A400002018F5D03E0F36AF46A14D00101C1A1B1
:102A500005D0C1910101D16BD26BCCDD0101BF5119
:102A6000BB5D006EBC51C055016E00C0F3FF01C0DC
:102A7000F4FF00D012000101BB51BF5DBC51C05931
:102A800004E2B85102018F5D02E0000E0DD00AECA5
:102A900007F0E4C1E9FFE5C1EAFFEF6E0101BF2BDA
:102AA000000EC023010E00D012000101BB51BF5D1A
:102AB000BC51C05904E2B85102018F5D03E0F36AD2
:102AC000F46A2FD00101BF51BB5D0D01096F0101F7
:102AD000C051BC590D010A6F0101E8510D01095D9A
:102AE0000101E9510D010A5904E209CDE8F10ACDCD
:102AF000E9F1E8C183F0E9C184F0E6C181F0E7C102
:102B000082F01EEC07F0F3CFE8F1F4CFE9F1010118
:102B1000E851BF27E951C023E8C1F3FFE9C1F4FF41
:102B200000D012000101C1B309D085EC01F0010110
:102B3000BB6BBC6B02018F690101C18312000101F3
:102B4000BB6BBC6B080E0001836F846B00011E0E13
:102B5000816F0D0E826F1EEC07F01ECD1AF21FCD95
:102B60001BF2C6EC1AF0F3CF1EFDF4CF1FFD20CDF3
:102B70001AF221CD1BF2C6EC1AF0F3CF20FDF4CFF0
:102B800021FD22CD1AF223CD1BF2C6EC1AF0F3CFB1
:102B900022FDF4CF23FD0D01080E225F000E235B02
:102BA0002451251155E0EAC1E9FFEBC1EAFFEECF60
:102BB00027FDEECF28FDEECF29FDEFCF2AFDECC19A
:102BC000E9FFEDC1EAFFEECF2BFDEECF2CFDEECFFE
:102BD0002DFDEFCF2EFD2F6B110E306FEEC131FDAD
:102BE000EFC132FD31CD1AF232CD1BF2C6EC1AF034
:102BF000F3CF31FDF4CF32FD0C0E0201226F236BB7
:102C00000201270E206F0D0E216FEDEC1AF0F3CFAD
:102C100033FDF4CF34FD0D01331F341F0F014F6B13
:102C2000506B29EC27F0EEC179F0EFC17AF001EC9E
:102C300005F0F3CF35FDF4CF36FD0D0135513319D5
:102C400002E13651341904E085EC01F0000E23D086
:102C5000ECC1F4F1EDC1F5F1EAC1F2F1EBC1F3F130
:102C600001011E0EF06F0D0EF16F16D80D01266FCB
:102C7000FF0E265D05E185EC01F0000E0CD009D0B9
:102C800026CD8FF222CDBBF123CDBCF10101C18154
:102C9000C193010E00D01200F2C1E9FFF3C1EAFFB7
:102CA000EE500F01001909E1EE50011906E1EE5056
:102CB000021903E1EE50031900E102E1FF0EA7D073
:102CC0000D010169000E026F010E036F006B080E0B
:102CD000005D62E202CDE9FF03CDEAFF0C0EE926BA
:102CE000000EEA22EECF00F0EFCF01F0F0C1E9FFD5
:102CF000F1C1EAFF020EE926000EEA22EECF02F051
:102D0000EFCF03F00250001802E1035001183DE13B
:102D100002CDE9FF03CDEAFF0A0EE926000EEA2202
:102D2000EECF00F0EFCF01F0F0C1E9FFF1C1EAFF13
:102D3000EECF02F0EFCF03F00250001802E1035093
:102D4000011821E1F2C1E9FFF3C1EAFFEECF00F083
:102D5000EECF01F0EECF02F0EFCF03F002CDE9FFAE
:102D600003CDEAFFEE500001001809E1EE50011812
:102D700006E1EE50021803E1EE50031800E103E112
:102D80000D01005144D000CD01FD0D01170E0227A9
:102D9000000E0323002B9BD7FF0E015D35E0015190
:102DA000170DF3CF02FDF4CF03FD000E0227010E35
:102DB00003230A0EE66EE66AF2C1E6FFF3C1E6FF00
:102DC00002CDE9FF03CDEAFFE9CF00F0EACF01F041
:102DD00000C0E6FF01C0E6FFC1EC29F0026E060E5E
:102DE000E15E0250F0C1E9FFF1C1EAFFEECF00F071
:102DF000EFCF01F002CDE9FF03CDEAFF0A0E00C0DC
:102E0000EBFF0B0E01C0EBFF0D01015100D01200D2
:102E10008AC214FD8BC215FD8CC216FD8DC217FD32
:102E20000201005101110211031105E1010E006FB1
:102E3000016B026B036B00C28AF201C28BF202C209
:102E40008CF203C28DF20D01186B100E185D04E2B6
:102E50000DD80D01182BF9D714CD1EF015CD1FF08C
:102E600016CD20F017CD21F000D012000D01196B06
:102E70000F0E195D38E28AC200F08BC201F08CC2DD
:102E800002F08DC203F0D8900332023201320032D8
:102E90008AC204F08BC205F08CC206F08DC207F026
:102EA000010E0416056A066A076A000E046C051E08
:102EB0000522061E0622071E0722010E0416056AB9
:102EC000066AD00E07160050041802018A6F0150DE
:102ED00005188B6F025006188C6F035007188D6F02
:102EE0000D01192BC5D78AC2F3FF8BC2F4FF00D0A6
:102EF0001200C2CF0FFDC0CF10FDD5CF11FDD6CF30
:102F000013FDD7CF12FD010EC26E3F0EC06E880EAC
:102F1000D56E0D01006B0D01076B086B096B0A6B19
:102F20000D01056B066BA2DFF3CF0BFDF4CF0CFD9B
:102F30000D010D6B0E6BD76AD66AC2820400C2B255
:102F4000FED7D6CF03FDD7CF04FD90DFF3CF01FD31
:102F5000F4CF02FD0D0103510D0107270D010451AE
:102F60000D010823000E09230A23800E0D01075DC1
:102F7000960E0859980E0959000E0A590FE376DF8C
:102F8000F3500D010B1BF4500D010C1B6FDFF350C0
:102F90000D010D1BF4500D010E1B39D00D01035115
:102FA0000D01051904E10D0104510D01061901E19E
:102FB000C2D70D0103510D01055D006E06510D01D3
:102FC0000455016E0D010D01015100240201006F35
:102FD0000D010D01025101200201016F0201026B7E
:102FE000036B16DF03CD05FD04CD06FD0D01D89062
:102FF0000B370C370D370E3739DFF350800B02E0FB
:103000000D010B810D01002B01E101D094D70FCDF3
:10301000C2FF10CDC0FF12CDD7FF13CDD6FF11CD0B
:10302000D5FF0BCD1EF00CCD1FF00DCD20F00ECD39
:1030300021F000D012000D01226B236B1D6B1E6B63
:103040001F6B206B020104C2E9FF05C2EAFF042BDB
:10305000000E0523EFCF21FDEF5001E18CD00D01D3
:103060002351030801E287D0300E215F225106E18F
:103070002151090802E2000EB8D071D0030E225D82
:1030800036E1FE0E215D02E0000EAFD0D880050EC5
:103090001D55050E1E55020E1F55000E205502E24D
:1030A000000EA3D00A0E1E03F3CF02F0640E1F031E
:1030B000F35002241D25E66E06C2E9FF07C2EAFFAF
:1030C000E9CF00F0EACF01F02351232B0F010024B8
:1030D000E96E000E0120EA6EE552E750EF6E0D0139
:1030E000226B1D6B1E6B1F6B206BACD738D0FE0E96
:1030F000215D30E1D880050E1D55050E1E55020ECE
:103100001F55000E205502E2000E6FD00A0E1E035E
:10311000F3CF02F0640E1F03F35002241D25E66E68
:1031200006C2E9FF07C2EAFFE9CF00F0EACF01F0EB
:103130002351232B0F010024E96E000E0120EA6EBB
:10314000E552E750EF6E0D01226B1D6B1E6B1F6B7E
:10315000206B78D72151090802E2000E46D00D01FC
:10316000222B1FCD20FD1ECD1FFD1DCD1EFD1D6B75
:1031700021CD1DFD67D70D01215114E02F0E215DDA
:1031800011E00D0E215D0EE00A0E215D0BE0200E18
:10319000215D08E0090E215D05E03A0E215D02E0A7
:1031A000000E23D0D880050E1D55050E1E55020EAB
:1031B0001F55000E205502E2000E17D00A0E1E0306
:1031C000F3CF00F0640E1F03F35000241D25E66EBC
:1031D00006C2E9FF07C2EAFF030EE926000EEA2253
:1031E000E552E750EF6E010E00D012000D01056BA5
:1031F000066B006B016B026B036B020108C2F6FFEA
:10320000082B09C2F7FF000E09230AC2F8FF0A23A0
:103210000800F5CF04FDF55001E18CD00D010651F9
:10322000030801E287D0300E045F055106E1045126
:10323000090802E2000EB5D071D0030E055D36E13B
:10324000FE0E045D02E0000EACD0D880050E0055E5
:10325000050E0155020E0255000E035502E2000E46
:10326000A0D00A0E0103F3CF02F0640E0203F35064
:1032700002240025E66E0BC2E9FF0CC2EAFFE9CF8B
:1032800000F0EACF01F00651062B0F010024E96E91
:10329000000E0120EA6EE552E750EF6E0D01056B5E
:1032A000006B016B026B036BA8D738D0FE0E045D78
:1032B00030E1D880050E0055050E0155020E02556D
:1032C000000E035502E2000E6CD00A0E0103F3CF8C
:1032D00002F0640E0203F35002240025E66E0BC2D6
:1032E000E9FF0CC2EAFFE9CF00F0EACF01F0065196
:1032F000062B0F010024E96E000E0120EA6EE55254
:10330000E750EF6E0D01056B006B016B026B036BF9
:1033100074D70451090802E2000E43D00D01052BB9
:1033200002CD03FD01CD02FD00CD01FD006B04CDFA
:1033300000FD63D70D01045111E02F0E045D0EE076
:103340000D0E045D0BE00A0E045D08E0200E045D26
:1033500005E0090E045D02E0000E23D0D880050EC2
:103360000055050E0155020E0255000E035502E2EE
:10337000000E17D00A0E0103F3CF00F0640E020313
:10338000F35000240025E66E0BC2E9FF0CC2EAFFF1
:10339000030EE926000EEA22E552E750EF6E010E19
:1033A00000D012000D01226B02010D510E114EE0F2
:1033B0000D011D6B100E206F270E216F050E1D5D78
:1033C00044E20DC220F00EC221F020CD25F021CD27
:1033D00026F06DEC2DF020C01EFD21C01FFD0D015B
:1033E0001E511F1102E1225120E0300E1E25E66E13
:1033F00002010FC2E9FF10C2EAFF0F2B000E1023DB
:10340000E552E750EF6E1ECD20F01FCD21F020CD0C
:1034100025F021CD26F034EC2DF01E5002010D5F79
:103420001F500E5B0D01010E226F0A0E256E266ADB
:1034300020CD20F021CD21F06DEC2DF020C020FD1D
:1034400021C021FD0D011D2BB9D709D00FC2E9FF05
:1034500010C2EAFF0F2B000E1023300EEF6E0FC2CA
:10346000E9FF10C2EAFFEF6A12000201125146089A
:1034700002E2200E125F1151460802E2200E115F97
:103480001251390803E2370E125F02D0300E125F7C
:103490001151390803E2370E115F02D0300E115F6F
:1034A0001239F00B111100D01200020113390F0B69
:1034B000136F1351090804E2410E1325F60F02D0D1
:1034C000300E132500D012000F0E020114171451F4
:1034D000090804E2410E1425F60F02D0300E14251F
:1034E00000D0120015C2E9FF16C2EAFFEFCF00FDBF
:1034F00017C2F6FF18C2F7FF19C2F8FF0800F5CF90
:1035000001FD0D01005134E0015132E0610E005D1A
:1035100005E300517A0802E3200E005F610E015DB1
:1035200005E301517A0802E3200E015F0151D880C2
:10353000005502E2010E29D00151005D02E2FF0EAA
:1035400024D00201152B000E1623172B1823192344
:1035500015C2E9FF16C2EAFFEFCF00FD17C2F6FF62
:1035600018C2F7FF19C2F8FF0800F5CF01FDC9D74F
:103570000151D880005502E2010E07D00151005DD3
:1035800002E2FF0E02D0000E00D012001AC23AFD75
:103590001BC23BFD3BCD3CFD3ACD3BFD3CCD3AFD56
:1035A0003ACDF3FF3BCDF4FF00D0120002011F51D2
:1035B0001C1B1C511F1B1F511C1B1E511D1B1D5171
:1035C0001E1B1E511D1B1CC21EF01DC21FF01EC261
:1035D00020F01FC221F000D0120022C214FD23C22D
:1035E00015FD0D01D8901533143320C216FD21C2EC
:1035F00017FD186B196B1A6B1B6B14CD00F015CDF2
:1036000001F01407000E155B0050011018E016CDF4
:10361000E9FF17CDEAFF020E1627000E1723EECFA3
:1036200000F0EFCF01F0000100500D01182700015C
:1036300001500D011923000E1A231B23DED70201AE
:103640002251010B0EE016CDE9FF17CDEAFFEFCFB7
:1036500000F0000100500D011827000E19231A2355
:103660001B2318CD00F019CD01F0026A036A1ACDB0
:1036700004F01BCD05F0066A076A005004240D0112
:10368000186F01500520196F025006201A6F035061
:1036900007201B6F1A5118271B51192318CD00F052
:1036A00019CD01F0001E011E00C0F3FF01C0F4FFA0
:1036B00000D0120028C224F229C225F22AC226F222
:1036C0002BC227F22CC200FD080E0D01005D0EE397
:1036D00027C201FD26C227F225C226F224C225F206
:1036E00001CD24F2080E0D01005FEED70D0100514F
:1036F0000BE00201D89027BFD88024372537263722
:1037000027370D010007F2D724C21EF025C21FF093
:1037100026C220F027C221F000D012000F0E0201B5
:10372000EA6A2D25E96E2E51EA22EF6A2DC2E6FFE4
:103730002EC2E6FF8AEC2AF0E552E5520D011D6B20
:103740000F0E1D5D1CE21D510201EA6A2D25E96E76
:103750002E51EA22EF5010E10F0E0D011D5D0BE21C
:103760001D511D2B0201EA6A2D25E96E2E51EA2218
:10377000200EEF6EF1D703D00D011D2BE1D7120003
:10378000020131C200F032C201F03107000E325B9B
:10379000005001101EE02FC2E9FF30C2EAFF2F2BBC
:1037A000000E3023EFCF00FD0D01005103E1F36A5D
:1037B000F46A12D0020133510D01005D09E10201EA
:1037C0002F07000E305B2FC2F3FF30C2F4FF04D08E
:1037D000D7D7F36AF46A00D0120034C2E9FF35C2C9
:1037E000EAFFEF6A0201345136250D01046F020130
:1037F000355137210D01056F010E045F000E055B89
:1038000004CDE9FF05CDEAFFEF6A066B076B380EC2
:10381000006F020E016F020138C200F039C201F0E0
:103820003807000E395B005001104AE004CDE9FF73
:1038300005CDEAFFEF5005E036C206FD37C207FDB1
:103840003FD00D01020E005F000E015B00CDE9FFCD
:1038500001CDEAFFEECF02FDEDCF03FD06510201DF
:10386000365D006E37510D010755016E00C0E6FF51
:1038700001C0E6FF02CDE6FF03CDE6FF02013451B1
:103880000D010625026E020135510D010721036E5F
:1038900002C0E6FF03C0E6FF5CEC2AF0046E060EF1
:1038A000E15E045002CDE6FF03CDE6FF29EC2AF0ED
:1038B000E552E552F3500D010627F4500723ABD72C
:0C38C00006CDF3FF07CDF4FF00D012008E
:0438CC000001CB9399
:1038D0009E6B9F6BA06BA16BA26BCB95CB97CC6BB8
:1038E000CB9B12000A0E00019E5D02E1010E01D089
:1038F000000E00D012000001CB51020B01E0010EBE
:1039000000D012000D011C6B010E1C5D01E31FD3E2
:1039100067EC01F00001CB99E8B0CB89CB51100BDB
:1039200001E0010E006ECB51040B01E0010E005CC2
:103930001CE0CB51CB95100B01E0CB85CBB913D05C
:10394000CB939E6B14CF00FF15CF01FF16CF02FF64
:1039500017CF03FF18CF04FF19CF05FF1ACF06FFBB
:103960001BCF07FF02D0010E9E6F1CCD5EF275ECDF
:1039700009F0000905E00001CB939E6BCB8B08D0CA
:103980000001CBAB04D0CBA902D0010E9E6FCB9B24
:10399000CBA102D0CB939E6B9E510B0A01E199D231
:1039A000010A01E194D2030A01E175D2010A01E1A1
:1039B0005CD20F0A01E13ED2030A01E1A1D1010A62
:1039C00001E19ED1030A01E19BD1050A01E102D187
:1039D000010A01E17FD0030A04E0010A01E0B4D248
:1039E000B3D21CCDD8F02DCF00F0016A026A036A71
:1039F0002ECF04F0056A066A076A080E1F0B07E05F
:103A0000D8900436053606360736E806F9E1045044
:103A100000260550012206500222075003222FCF14
:103A200008F0096A0A6A0B6A100E1F0B07E0D890AB
:103A3000083609360A360B36E806F9E10850002642
:103A4000095001220A5002220B50032230CF0CF001
:103A50000D6A0E6A0F6A180E1F0B07E0D8900C361D
:103A60000D360E360F36E806F9E10C5000260D50E3
:103A700001220E5002220F50032231CF10F0116AA2
:103A8000126A136A105000261150012212500222AD
:103A90001350032232CF14F0156A166A176A080E03
:103AA0001F0B07E0D8901436153616361736E80681
:103AB000F9E1005014240001D46F01501520D56F96
:103AC00002501620D66F03501720D76FBDDA0001C1
:103AD000020E9E6FCBB751D0CB870F01046B056BE5
:103AE000066B076B1CCDD9F0B8DA236A010E246E81
:103AF000256A266A10EC2DF01AC0C2F01CCDD9F050
:103B0000ACDA1EC000F01FC001F020C002F021C0DE
:103B100003F0FE0E236E246A256A266A00C01EF09A
:103B200001C01FF002C020F003C021F010EC2DF006
:103B30001AC000F01BC001F01CC002F01DC003F051
:103B4000002A000E01220222032200C0C1F000015F
:103B5000A90EBF6FFE0EC06F0201BF0E826F000E76
:103B6000836FE2EC21F0C5EC2BF01EC0A3F01FC068
:103B7000A4F020C0A5F021C0A6F00201B90E866F06
:103B8000000E876F0201BF0E846F000E856F26EC5A
:103B900022F000091CE1C5EC2BF00001A3511E5CD2
:103BA000006EA4511F58016EA5512058026EA651F7
:103BB0002158036ED880970E0054980E0154000EC1
:103BC0000254000E035402E2030E9E6F02D0000165
:103BD000CB97BAD1CB97CB83010EAD6FAE6BB969E2
:103BE000BA69BB69BC69BD69BE69BFC000FFC0C01E
:103BF00001FFC1C002FFC2C003FF0F0104690569D4
:103C0000066B076B060EE66EE66A2D0EE66E0F0E6D
:103C1000E66EAF0EE66E000EE66EC1EC29F0006EA9
:103C2000060EE15E0050010E0001A76FA86BA96BA4
:103C3000080EAA6F060EAB6F040EAC6FBFC0B5F0D6
:103C4000C0C0B6F0C1C0B7F0C2C0B8F00201A70E44
:103C5000886F000E896F7CEC22F036EC17F0F3CF02
:103C6000C3F0F4CFC4F0140E256E266AC3C020F052
:103C7000C4C021F06DEC2DF01CC0C3F01DC0C4F019
:103C80000001C56BC66B970E236E980E246E256AD5
:103C9000266AC3C01EF0C4C01FF0C5C020F0C6C055
:103CA00021F0D8EC2CF01AC0C3F01BC0C4F01CC02B
:103CB000C5F01DC0C6F0140E236E246A256A266A5C
:103CC000C3C01EF0C4C01FF0C5C020F0C6C021F0A4
:103CD00010EC2DF01EC0C3F01FC0C4F020C0C5F012
:103CE00021C0C6F0C5EC2BF01EC0A3F01FC0A4F08D
:103CF00020C0A5F021C0A6F00001040E9E6F24D1C3
:103D0000C5EC2BF00001A3511E5C006EA4511F589E
:103D1000016EA5512058026EA6512158036E005025
:103D2000C35D0150C4590250C5590350C65901E33F
:103D300080D0C5EC2BF01EC0A3F01FC0A4F020C0A3
:103D4000A5F021C0A6F036EC17F0F3CFC3F0F4CF06
:103D5000C4F0140E256E266AC3C020F0C4C021F042
:103D60006DEC2DF01CC0C3F01DC0C4F00001C56B8C
:103D7000C66B970E236E980E246E256A266AC3C002
:103D80001EF0C4C01FF0C5C020F0C6C021F0D8ECA2
:103D90002CF01AC0C3F01BC0C4F01CC0C5F01DC07D
:103DA000C6F0140E236E246A256A266AC3C01EF06C
:103DB000C4C01FF0C5C020F0C6C021F010EC2DF02B
:103DC0001EC0C3F01FC0C4F020C0C5F021C0C6F0A3
:103DD000970E0001C327980EC423000EC523C623E7
:103DE00077EC01F0000901E1FBD700010B0E716FC8
:103DF0001A0E726F6DEC04F01C0E00016D6F6E6B8D
:103E00000001060E6C6F0001B90E6A6F000E6B6F39
:103E1000F5EC02F01C0E0001886F896B0001A70E03
:103E2000866F000E876F6EEC07F03CEC03F000012C
:103E30009E2B8AD0C5EC2BF00001A3511E5C006EB6
:103E4000A4511F58016EA5512058026EA651215849
:103E5000036E0050C35D0150C4590250C559035050
:103E6000C65902E20A0E9E6F6FD0C5EC2BF01EC041
:103E7000A3F01FC0A4F020C0A5F021C0A6F00F0140
:103E8000A90E006FFE0E016F010E026F036F00019D
:103E9000090E9E6F59D0C5EC2BF00001A3511E5C9A
:103EA000006EA4511F58016EA5512058026EA651F4
:103EB0002158036ED880640E0054C30E0154230EA3
:103EC0000254000E035402E2020E9E6F3DD0CB93CB
:103ED0003BD0020EAD6FAE6B010EA76FA86BA96B46
:103EE000080EAA6F0201A70E886F000E896F7CEC86
:103EF00022F077EC01F0000901E1FBD700010B0E85
:103F0000716F1A0E726F6DEC04F01C0E00016D6F74
:103F10006E6B0001060E6C6F0001B90E6A6F000E29
:103F20006B6FF5EC02F01C0E0001886F896B0001CD
:103F3000A70E866F000E876F6EEC07F03CEC03F067
:103F400000010A0E9E6F00D00D011C2BDDD4120063
:103F50000001CC2B9E510A0A22E0010A20E0030A4C
:103F60001CE0010A1AE0090A18E0010A0DE0030A40
:103F70000BE0010A09E0070A07E0010A05E0030A6D
:103F800003E0010A01E039D00A0ECC5D03E3080E1C
:103F90009E6F02D0020E9E6F30D0CC072ED09F5164
:103FA000A011A111A2111BE0C5EC2BF000019F5143
:103FB0001E5C006EA0511F58016EA1512058026E68
:103FC000A2512158036EE60E005CF50E0158050E55
:103FD0000258000E035803E2020E9E6F0ED0C5EC8D
:103FE0002BF01EC09FF01FC0A0F020C0A1F021C088
:103FF000A2F000010B0E9E6F00D012000001CB81D9
:10400000D1C05EF275EC09F0000910E114CF00FF99
:1040100015CF01FF16CF02FF17CF03FF18CF04FF04
:1040200019CF05FF1ACF06FF1BCF07FF12000001B3
:10403000CB91010E9E6F120000019E5102E1010E14
:1040400001D0000E00D01200D4C0C7F0D5C0C8F017
:10405000D6C0C9F0D7C0CAF01200C7C000F2C8C0AD
:1040600001F2C9C002F2CAC003F208EC17F036EC44
:1040700017F0F3CFC7F0F4CFC8F00001C96BCA6BDB
:10408000C7C01EF0C8C01FF0C9C020F0CAC021F0D0
:0440900000D012004A
:0C409400020175510D01066F076B1269E7
:1040A0001369146915691669176971C218FD72C21E
:1040B00019FD73C21AFD74C21BFD6DC20EFD6EC2E6
:1040C0000FFD6FC210FD70C211FD0201000E766F70
:1040D0000D0E776F02D800D0120077EC01F00009C6
:1040E00001E1FBD700010B0E716F1A0E726F6DECC0
:1040F00004F076C2E9FF77C2EAFF010EEE6EED6AC8
:1041000076C2E9FF77C2EAFF020EE926000EEA2234
:10411000EE6A080EED6E76C2E9FF77C2EAFF040E82
:10412000E926000EEA22060EEF6E76C2E9FF77C29C
:10413000EAFF050EE926000EEA22040EEF6E060ED7
:10414000E66EE66A2D0EE66E0F0EE66E76C2E9FFAB
:1041500077C2EAFF080EE926000EEA22E9CF00F056
:10416000EACF01F000C0E6FF01C0E6FFC1EC29F094
:10417000026E060EE15E025076C2E9FF77C2EAFFE8
:104180000E0EE926000EEA2200CFEEFF01CFEEFF71
:1041900002CFEEFF03CFEEFF76C288F277C289F23C
:1041A000ABD91C0E00016D6F6E6B0001060E6C6FBB
:1041B00076C2E9FF77C2EAFF120EE926000EEA2274
:1041C000E9CF6AF0EACF6BF0F5EC02F01C0E0001CB
:1041D000886F896B76C286F077C287F06EEC07F045
:1041E0003CEC03F0010E00D012000201676968691F
:1041F00069696A696B696C6963696469656966693B
:10420000120002019451010A01E1A6D0010A01E065
:10421000D6D01C0E0001836F846B0001000E816FED
:104220000D0E826F1EEC07F085EC01F00201000E0E
:10423000886F0D0E896F60D90D01010E001901E123
:10424000015110E10451006E016A060E001801E1EF
:10425000015008E10551026E036A040E021801E1E3
:10426000035002E0010EADD00E0EE96E0D0EEA6EA7
:10427000EE500F01001909E1EE50011906E1EE5070
:10428000021903E1EE50031900E106E10001D06BD1
:10429000A8EC1FF0010E95D00D01020E061901E1E8
:1042A000075116E108CD67F209CD68F20ACD69F22F
:1042B0000BCD6AF20CCD6BF20DCD6CF20ECD63F22C
:1042C0000FCD64F210CD65F211CD66F2010E79D0FA
:1042D000010E061901E107513FE1180EE96E0D0EBE
:1042E000EA6EEE500F01001909E1EE50011906E1E6
:1042F000EE50021903E1EE50031900E102E0010E55
:1043000060D00D011C6B010E1C5D0FE21CCDCFF0C7
:104310007BEC1CF0000906E01CCDD0F0A8EC1FF0EF
:10432000010E4FD00D011C2BEED70ECD78F20FCD24
:1043300079F210CD7AF211CD7BF208CD7CF209CD65
:104340007DF20ACD7EF20BCD7FF20CCD80F20DCD49
:1043500081F20201010E946F020E0D01066F076BD0
:104360000001CE6B72EC1CF0000908E00D0112692F
:10437000136914691569166917690CD07CC212FD9E
:104380007DC213FD7EC214FD7FC215FD80C216FDE5
:1043900081C217FD78C218FD79C219FD7AC21AFDD3
:1043A0007BC21BFD0201000E766F0D0E776F95DE4E
:1043B000000902E1000E05D00201946B00D0010E4D
:1043C00000D01200010E0D01066F076B1269136910
:1043D000146915691669176982C2E9FF83C2EAFF89
:1043E0000F010051EE18006E0151EE18016E0251DE
:1043F000EE18026E0351EE18036E045100160551BB
:104400000116065102160751031600500110021042
:10441000031009E008CF18FD09CF19FD0ACF1AFDD6
:104420000BCF1BFD0CD082C2E9FF83C2EAFFEECFA7
:1044300018FDEECF19FDEECF1AFDEFCF1BFD0201E7
:10444000000E766F0D0E776F6DEF20F084C2E9FFDE
:1044500085C2EAFF02016351EE1809E16451EE18CA
:1044600006E16551EE1803E16651EE1800E12FE018
:10447000630EE96E020EEA6EEE500F01081909E1B3
:10448000EE50091906E1EE500A1903E1EE500B193E
:1044900000E12FE184C2E9FF85C2EAFF0051EE1876
:1044A000006E0151EE18016E0251EE18026E0351BA
:1044B000EE18036E0451001605510116065102163E
:1044C00007510316005001100210031012E086C2BB
:1044D000E9FF87C2EAFF67C2EEFF68C2EEFF69C26A
:1044E000EEFF6AC2EEFF6BC2EEFF6CC2EEFF010E82
:1044F00002D0000E00D0120088C2E9FF89C2EAFF94
:10450000EECF1AF2EDCF1BF2C6EC1AF0F3CF00F0AB
:10451000F4CF01F088C2E9FF89C2EAFF00C0EEFFD4
:1045200001C0EDFF88C2E9FF89C2EAFF020EE92659
:10453000000EEA22EECF1AF2EDCF1BF2C6EC1AF013
:10454000F3CF00F0F4CF01F088C2E9FF89C2EAFF9F
:10455000020E00C0EBFF030E01C0EBFF88C2E9FFB3
:1045600089C2EAFF060EE926000EEA22EECF1AF211
:10457000EDCF1BF2C6EC1AF0F3CF00F0F4CF01F050
:1045800088C2E9FF89C2EAFF060E00C0EBFF070EF2
:0645900001C0EBFF120068
:0A4596000D011C6B0D011C5101E02A
:1045A000D4D10F01050E5C6F510E5D6F000E5E6F72
:1045B00018EC2BF00F01E90E5C6F500E5D6F000ED2
:1045C0005E6F18EC2BF031CF1BFD32CF1AFD0201CC
:1045D000000E0F6F0D0E106F1ACD0DF21BCD0EF2E7
:1045E000D2EC19F00F01000E5A6F0D0E5B6F02EC4A
:1045F0002BF00F01CE0E5C6F500E5D6F000E5E6FE4
:1046000018EC2BF00F011C0E5A6F0F0E5B6F02ECB3
:104610002BF00F01AC0E5C6F500E5D6F000E5E6FE5
:1046200018EC2BF000CF3DFF01CF3EFF02CF3FFF44
:1046300003CF40FF5AEC25F00F01860E5C6F500E41
:104640005D6F000E5E6F18EC2BF008CF3DFF09CFB9
:104650003EFF0ACF3FFF0BCF40FF5AEC25F00F0182
:10466000630E5C6F500E5D6F000E5E6F18EC2BF0EA
:1046700004CF3DFF05CF3EFF06CF3FFF07CF40FFF2
:104680005AEC25F00F013A0E5C6F500E5D6F000E74
:104690005E6F18EC2BF00CCF3DFF0DCF3EFF0ECF21
:1046A0003FFF0FCF40FF5AEC25F00F010F0E5C6F5C
:1046B000500E5D6F000E5E6F18EC2BF010CF3DFFBB
:1046C00011CF3EFF12CF3FFF13CF40FF5AEC25F032
:1046D0000F01080E5C6F500E5D6F000E5E6F18ECE0
:1046E0002BF00F012C51400B08E00F01040E5C6F02
:1046F000500E5D6F000E5E6F07D00F01010E5C6FF4
:10470000500E5D6F000E5E6F18EC2BF00F01D40E93
:104710005C6F4F0E5D6F000E5E6F18EC2BF00F019B
:104720002C51400B08E00F01CC0E5C6F4F0E5D6FFB
:10473000000E5E6F07D00F01C30E5C6F4F0E5D6FF2
:10474000000E5E6F18EC2BF00F01A80E5C6F4F0E81
:104750005D6F000E5E6F18EC2BF00F01950E5C6F15
:104760004F0E5D6F000E5E6F18EC2BF00F017D0E8B
:104770005C6F4F0E5D6F000E5E6F18EC2BF0D6EC89
:104780002AF0000901E1FBD70F017A0E5C6F4F0E92
:104790005D6F000E5E6F18EC2BF0E0EC2AF0300A33
:1047A00001E1C5D0090A01E1C1D0010A01E1BBD094
:1047B0000F0A01E17AD0010A72E0030A6AE0010AF5
:1047C00062E0070A5AE0010A29E0030A01E0BCD0CE
:1047D0000F016C0E5C6F4F0E5D6F000E5E6F18EC7C
:1047E0002BF00F01140E556F0F01000E536F0D0EBD
:1047F000546F9FEC2AF0000910E0000EE66E0D0EDB
:10480000E66E35EC2BF0E552E552F3CF1AFDF4CF0E
:104810001BFD1BCD31FF1ACD32FF96D00F016C0E60
:104820005C6F4F0E5D6F000E5E6F18EC2BF00F018A
:10483000100E556F0F01000E536F0D0E546F9FEC4D
:104840002AF00D01005118E0100EE66EE66A000E27
:10485000E66E0D0EE66E1C0EE66E0F0EE66EC1ECF9
:1048600029F0006E060EE15E005002011C0E2D6F55
:104870000F0E2E6F8EEC1BF067D00D01000E186F1F
:104880000F0E196F18D00D01080E186F0F0E196F4B
:1048900012D00D01040E186F0F0E196F0CD00D0100
:1048A0000C0E186F0F0E196F06D00D01100E186F39
:1048B0000F0E196F00D00F016C0E5C6F4F0E5D6F05
:1048C000000E5E6F18EC2BF00F01140E556F0F01E8
:1048D000000E536F0D0E546F9FEC2AF00201140E60
:1048E000066F0D0E076F0201000E046F0D0E056FAF
:1048F0001BEC18F000090DE018CDE9FF19CDEAFF17
:1049000014CDEEFF15CDEEFF16CDEEFF17CDEEFF69
:1049100009D00F015B0E5C6F4F0E5D6F000E5E6F76
:1049200018EC2BF011D00F012C7D0ED00DD00D0105
:10493000010E1C6F0F01140E5C6F4F0E5D6F000EA9
:0C4940005E6F18EC2BF000D028D612009F
:04494C00D8CFE4FFDD
:10495000E0CFE4FFE46EDACFE4FFE2CFDAFFE9CFA5
:10496000E4FFEACFE4FFF6CFE4FFF7CFE4FFF8CFB0
:10497000E4FFF5CFE4FFF3CFE4FFF4CFE4FFFACF99
:10498000E4FFFBCFE4FF00EE18F0140EE80403E3AD
:10499000EECFE4FFFBD700EE00F0180EE80403E3CF
:1049A000EECFE4FFFBD7E65215EC2CF0E55200EE1B
:1049B00017F0180EE80403E3E5CFEDFFFBD700EE98
:1049C0002BF0140EE80403E3E5CFEDFFFBD7E5CFB2
:1049D000FBFFE5CFFAFFE5CFF4FFE5CFF3FFE5CF2F
:1049E000F5FFE5CFF8FFE5CFF7FFE5CFF6FFE5CF21
:1049F000EAFFE5CFE9FFE5CFDAFFE550E5CFE0FFDD
:104A0000E5CFD8FF1000D8CFE4FFE0CFE4FFE46E9D
:104A1000DACFE4FFE2CFDAFFE652E552E5CFDAFF84
:104A2000E550E5CFE0FFE5CFD8FF100092D8AAEC23
:104A30002BF0A3D8CBEC22F0B4EC28F0DFEC28F07C
:104A4000C0EC29F072D8F30EE96E000EEA6EEE505B
:104A50000F01001909E1EE50011906E1EE500219AB
:104A600003E1EE50031900E123E000CFF3F001CFA2
:104A7000F4F002CFF5F003CFF6F00F01540E5C6FA7
:104A8000510E5D6F000E5E6F18EC2BF000CF3DFFF6
:104A900001CF3EFF02CF3FFF03CF40FF0BD80F01F6
:104AA000510E5C6F510E5D6F000E5E6F18EC2BF0B7
:104AB000C5D712000D01276B2751006E016A040E45
:104AC000005C000E015830E20201230E0F6F0D0E44
:104AD000106F0D012751EA6A3D0FE96E0F0EEA22B1
:104AE000EF5002010D6F0E6BD2EC19F00F01230E87
:104AF0005A6F0D0E5B6F02EC2BF00D012751006E0B
:104B0000016A030E001801E1015001E10DD0C9EC6A
:104B10002AF0000901E0FBD70F012E0E566FE3ECDF
:104B20002AF00D01272BC8D71200C282C2B2FED7CD
:104B3000C0CF00FD070EC01200CDC0FF0201350E30
:104B40000F6F0F0E106FC3CF0DF2C4CF0EF2D2EF66
:104B500019F09B6A090EC26E0B0EC16EBE0EC06EBE
:104B6000F19E200EAC6E900EAB6E400EAF6ED08EEE
:104B7000F28EF28C8C8695961200330EE66EE66A03
:104B8000E66A000EE66E0F0EE66E0FEC2AF0006E7F
:104B9000050EE15E00500F012C8D2C8F060EE66E87
:104BA000E66A0E0EE66E000EE66E000EE66E2D0E46
:104BB000E66E0F0EE66EECEC29F0006E070EE15E7D
:104BC00000500F01A90E006FFE0E016F010E026F63
:104BD000036F00CF14FF01CF15FF02CF16FF03CFE5
:104BE00017FF04690569066B076B04CF18FF05CF33
:104BF00019FF06CF1AFF07CF1BFFA90E086FFE0E85
:104C0000096F010E0A6F0B6FA90E0C6FFE0E0D6F70
:104C1000010E0E6F0F6F106B116B126B136B100E7A
:104C2000E66EE66A470EE66E510EE66E000EE66E22
:104C30001C0EE66E0F0EE66EECEC29F0006E070E11
:104C4000E15E005002011C0E2D6F0F0E2E6F8EECD8
:104C50001BF0330E0201226F236B0201000E206F46
:104C60000F0E216FEDEC1AF0F3CF33FFF4CF34FFCA
:064C700001D083D7120001
:0A4C7600140E0001836F846B00012F
:104C8000200E816F0D0E826F1EEC07F0F00E0D01ED
:104C90002015400802E0000E67D01F0E2615006E9A
:104CA000FF0E2715016E0050011002E0000E5CD0CF
:104CB0000F0E2015040DF3CF41FF0F0141510001EC
:104CC000776F786B0001756B766BABEC04F0F3CF0C
:104CD0001EFDF4CF1FFD0F01415100016F6F706B7E
:104CE0003CEC04F00D011E511F1102E0000E3CD0FF
:104CF0000F01200E516F0D0E526FB7D80F014251A8
:104D000043110CE042CFE9FF43CFEAFF30CDEEFF85
:104D100031CDEEFF32CDEEFF33CDEEFF44CFE9FFD4
:104D200045CFEAFF2CCDEEFF2DCDEEFF2ECDEEFFD1
:104D30002FCDEEFF46CFE9FF47CFEAFF29CDEFFFAA
:104D40004151026E036A0D010250225D006E035054
:104D50002359016E48CFE9FF49CFEAFF00C0EEFFBB
:104D600001C0EDFF010E00D012000F01140E416FC3
:104D70000D01450E006F016B140E0F014D250D0145
:104D8000026F000E0F014E210D01036F0201922BE5
:104D9000000E932392C204FD93C205FD0D01066B24
:104DA000076B640E086F4CCF09FD0A6B0B6B00CFCD
:104DB0000CFD01CF0DFD02CF0EFD03CF0FFD4ACF3D
:104DC000E9FF4BCFEAFFEECF10FDEECF11FDEECFA6
:104DD00012FDEFCF13FD0F01000E516F0D0E526F3C
:104DE00044D8140E0201226F236B0201000E206FC3
:104DF0000D0E216FEDEC1AF0F3CF0AFDF4CF0BFD91
:104E0000140E0F014D2500016D6F000E0F014E2194
:104E100000016E6F00016C6B4ACFE9FF4BCFEAFFD8
:104E2000040EE926000EEA22E9CF6AF0EACF6BF021
:104E3000F5EC02F0140E0001886F896B0001000E82
:104E4000866F0D0E876F6EEC07F0F36AF46A00D080
:104E500012000F0141514F2500016F6F000E0F012D
:104E600050210001706F3CEF04F051CFE9FF52CFA9
:104E7000EAFF020EE926000EEA22EECF1AF2EDCF8B
:104E80001BF2C6EC1AF0F3CF00F0F4CF01F051CFD3
:104E9000E9FF52CFEAFF020E00C0EBFF030E01C094
:104EA000EBFF51CFE9FF52CFEAFF040EE926000ED7
:104EB000EA22EECF1AF2EDCF1BF2C6EC1AF0F3CFD6
:104EC00000F0F4CF01F051CFE9FF52CFEAFF040E1A
:104ED00000C0EBFF050E01C0EBFF51CFE9FF52CF41
:104EE000EAFF0A0EE926000EEA22EECF1AF2EDCF13
:104EF0001BF2C6EC1AF0F3CF00F0F4CF01F051CF63
:104F0000E9FF52CFEAFF0A0E00C0EBFF0B0E01C013
:044F1000EBFF1200A1
:0C4F140045787465726E616C2045455054
:104F2000524F4D2F466C617368206E6F7420707203
:104F30006573656E74202D2D2073657474696E67BA
:104F4000732077696C6C206265206C6F73742061CC
:104F5000742072657365742E0D0A00496E76616C5B
:104F6000696420696E7075742E0D0A004E65772095
:104F700073657474696E673A20000D0A000D0A4566
:104F80006E7465722061206D656E752063686F694F
:104F900063653A20000D0A09303A20536176652096
:104FA0002620517569742E000D0A09393A20446F84
:104FB000776E6C6F6164204D50465320696D616758
:104FC000652E0064697361626C656400656E616280
:104FD0006C65640061626C65204448435020262063
:104FE000495020476C65616E696E673A090944480B
:104FF00043502069732063757272656E746C7920FA
:1050000000456E00446973000D0A09383A20000D0E
:105010000A09373A204368616E67652073746174CA
:105020006963207365636F6E6461727920444E53C7
:10503000207365727665723A09000D0A09363A20C6
:105040004368616E67652073746174696320707270
:10505000696D61727920444E532073657276657272
:105060003A09000D0A09353A204368616E676520E8
:10507000737461746963207375626E6574206D6109
:10508000736B3A0909000D0A09343A204368616ECE
:105090006765207374617469632067617465776103
:1050A0007920616464726573733A09000D0A0933EB
:1050B0003A204368616E6765207374617469632088
:1050C000495020616464726573733A0909000D0ADE
:1050D00009323A204368616E676520686F737420F7
:1050E0006E616D653A0909090009313A204368612A
:1050F0006E67652073657269616C206E756D62659F
:10510000723A0909000D0A0D0A0D4D6963726F6349
:10511000686970205443502F495020436F6E666970
:1051200067204170706C69636174696F6E202876C6
:10513000352E34322C204D61722032352032303100
:1051400037290D0A0D0A004D434850424F41524441
:10515000000D0A000D0A4E65772049502041646415
:07516000726573733A200031
:015167000047
:085168000001DA6B0F012C8F2E
:10517000020190510FE179EC17F01EC000F21FC040
:1051800001F220C002F221C003F208EC17F0020184
:10519000010E906F40EC00F0F5EC20F059EC10F0AF
:1051A00002015A6B31EC09F00F012CBD04D0020151
:1051B0005B6B55EC09F00001CD6B66EF1CF00F0145
:1051C0002CAD2DD067EC01F00D01506F0201915113
:1051D0000D01505D1AE050CD91F2505116E114CFFF
:1051E00000FF15CF01FF16CF02FF17CF03FF18CF27
:1051F00004FF19CF05FF1ACF06FF1BCF07FF0F01D2
:105200002C8F02015A6B31EC09F093EC09F002018A
:105210005E6B75EC09F0000902E00F012C9F82EC37
:105220001CF049EC11F092EC15F000014E0E686F85
:105230000D0E696F0001DF0E666F000E676F4CEC9C
:1052400002F0000901E19BD00D014E5106E0060A73
:1052500001E094D001EC21F091D00F01480E486F8D
:105260000D0E496F0F014F0E466F0D0E476F0F0168
:10527000DB0E446F000E456F0F014A0E426F0D0E9C
:10528000436F3BEC26F0000901E178D00D014F059A
:105290005EE14A0EE96E0D0EEA6EEE500F01001946
:1052A00009E1EE50011906E1EE50021903E1EE505A
:1052B000031900E140E0E8680D014A1908E1E868D7
:1052C0004B1905E1E8684C1902E1E8684D1933E033
:1052D000040EE96E0F0EEA6E0F010051EE14006E1F
:1052E0000151EE14016E0251EE14026E0351EE14E0
:1052F000036E04CF04F005CF05F006CF06F007CF0C
:1053000007F0041E051E061E071E0450001205505D
:10531000011206500212075003120D014A510018E3
:1053200009E14B51011806E14C51021803E14D51BE
:10533000031800E10BE148CDF9F049CDFAF0000186
:10534000DB0EF76F000EF86F1FEC2CF017D0110E6C
:105350004F5D13E148CDEEF149CDEFF101014A0E69
:10536000EC6F0D0EED6F0101DB0EEA6F000EEB6FBF
:105370009FEC15F0000901E002D000D054D71200D4
:02538000120019
:0E538200D9CFE6FFDACFE6FFFA0EE3CFD9FF70
:10539000FB0EE3CFDAFFFC0EE3CFE9FFFD0EE3CF18
:1053A000EAFFE9CFF3FFEACFF4FFF80EE35003E1A1
:1053B000F90EE35008E0F80EE30602E2F90EE30608
:1053C000DECFEEFFF2D7FF0EE3CFDAFFE552FF0E9E
:1053D000E3CFD9FFE5521200FB0EE3CFF6FFFC0E40
:1053E000E3CFF7FFFD0EE3CFF8FFFE0EE3CFE9FFBB
:1053F000FF0EE3CFEAFFE9CFF3FFEACFF4FFF90EA8
:10540000E35003E1FA0EE35009E0F90EE30602E28D
:10541000FA0EE3060900F5CFEEFFF1D71200FE0EFB
:10542000E3CFE9FFFF0EE3CFEAFFE9CFF3FFEACFD7
:10543000F4FFFB0EE35003E1FC0EE35009E0FB0E2A
:10544000E30602E2FC0EE306FD0EE350EE6EF1D73A
:105450001200FE0EE3CFE9FFFF0EE3CFEAFFF36A8F
:10546000F46AEE5203E0F34AF42AFBD71200FF0E6F
:10547000E3CFF8FFE552FF0EE3CFF7FFE552FF0E53
:10548000E3CFF6FFE552E66AE66AE66A0900F552FE
:1054900009E0FD0EE32A05E1FE0EE32A02E1FF0E1C
:1054A000E32AF4D7FD0EE3CF1FF0FE0EE3CF20F08A
:1054B000FF0EE3CF21F01200D9CFE6FFDACFE6FFEF
:1054C000FA0EE3CFD9FFFB0EE3CFDAFFFC0EE3CFFA
:1054D000E9FFFD0EE3CFEAFFE9CFF3FFEACFF4FFE8
:1054E000F80EE35003E1F90EE3500BE0F80EE3068B
:1054F00002E2F90EE306DECFEFFFEE66F1D7DD52F2
:10550000EFD7FF0EE3CFDAFFE552FF0EE3CFD9FF6F
:10551000E5521200FE0EE3CFE9FFFF0EE3CFEAFFF4
:10552000E9CFF3FFEACFF4FF610EEF5C05E67B0EF7
:0E553000EF5C02E7DF0EEF16EE52F6E112001E
:02553E000D015D
:105540001E6B0F015551550700091FE053CFE9FFAE
:1055500054CFEAFFEF6A2AD8000901E1FCD730D81E
:105560000D011D6F0D0E1D5D03E00A0E1D5D01E1B5
:105570000CD01E2B0F0153CFE9FF54CFEAFF532B62
:10558000000E54231DCDEFFFDCD70D011E5100D0BE
:105590001200AC50020B020A01E0010E00D0120012
:1055A0004F0EAB16AC9ACF0E9D161200ABA202D0D6
:1055B000AB98AB889E50200B01E0010E00D012008A
:1055C000AE5000D0120056CFADFF12000D01006B9F
:1055D0000F0159510D01005D14E2E8DF000901E1FE
:1055E000FCD7EEDF0D01016F57CFE9FF58CFEAFF7F
:1055F00001CDEFFF0F01572B000E58230D01002B9B
:10560000E7D71200C6DF000901E0FCD75ACFE9FF57
:105610005BCFEAFFEFCF56FFD6DF0F015ACFE9FF8E
:105620005BCFEAFF5A2B000E5B23EF50EBE1120039
:10563000B0DF000901E0FCD75CCFF6FF5DCFF7FFDC
:105640005ECFF8FF0800F5CF56FFBDDF0F015CCF3E
:10565000F6FF5C2B5DCFF7FF000E5D235ECFF8FFFA
:0A5660005E230800F550E4E112009B
:06566A00FF0EE3CFEAFF92
:10567000E552FF0EE3CFE9FFE552E66AE66AD9CFCD
:10568000E6FFDACFE6FFFC0EE124D96EFF0EE22042
:10569000DA6EE66AE66AE66A200EEF5C06E0090E5C
:1056A000EF5C03E0EF6603D03FD0EE50F5D72D0E50
:1056B000EF5C03E1FF0EE32A03D02B0EEF5C01E168
:1056C000EE502F0EEF6424D03A0EEF6021D0D89028
:1056D000F90EE336FA0EE336FD0EDECFE3FFFE0EE3
:1056E000DDCFE3FFD890F90EE336FA0EE336D8901B
:1056F000F90EE336FA0EE336FD0EE350DE26FE0E1B
:10570000E350DD22300EEE5CDE26000EDD22D9D71E
:10571000FF0EE3CFE8FFE85207E0F90EE31EE32AAD
:10572000FA0ED8B4E306E31EE552E552E552FF0E49
:10573000E3CFDAFFE552FF0EE3CFD9FFE552E1CF29
:10574000E9FFE2CFEAFFED52ED52EECFF3FFEFCFEC
:04575000F4FF120050
:0C575400D76AD66AF194F294F28A870EAC
:10576000D56E1200F28A0000F29AD6CFE5F0D7CFBC
:10577000E6F0FBC0E7F0FCC0E8F0FDC0E9F0FEC0D9
:10578000EAF0F2B4EFD7F28A1200ECDFE5C01DFDBB
:10579000E6C01EFDE7C01FFDE8C020FD1DCD1EF0C8
:1057A0001ECD1FF01FCD20F020CD21F000D0120023
:1057B000D9DFE6C000FDE7C001FDE8C002FDE9C099
:1057C00003FD00CD1EF001CD1FF002CD20F003CD72
:1057D00021F000D01200C6DFE7C000FDE8C001FDE7
:1057E000E9C002FDEAC003FD00CD1EF001CD1FF0AF
:1057F00002CD20F003CD21F000D01200EBC01EF04E
:10580000ECC01FF0EDC020F0EEC021F0130E1E26FC
:10581000000E1F2220222122270E236E246A256AD1
:10582000266A10EC2DF000D01200F2A407D000017F
:0E583000FB2B000EFC23FD23FE23F29412003E
:02583E00040E56
:105840000001836F846B00011E0E816F0D0E826F4D
:105850001EEC07F00D01080E1E1901E11F5158E161
:10586000F9C077F0FAC078F0140E0001756F766B0E
:10587000ABEC04F0F3CF00F0F4CF01F000500110D6
:1058800001E046D00D011E6B080E2027205D04E2CA
:10589000212B215101E1202B77EC01F0000901E1DE
:1058A000FBD70001190E716F1A0E726F6DEC04F0C8
:1058B000F9C04DFFFAC04EFF0F01010E4C6FF7C04B
:1058C0004AFFF8C04BFFB5EC26F0040E0001886FCC
:1058D000896B00011E0E866F0D0E876F6EEC07F050
:1058E000F9C07FF0FAC080F00001040E7F5F000E67
:1058F000805B00017D697E6900017B697C699DECAC
:1059000005F0FDEC06F0000901E1FBD73CEC03F0EB
:02591000120083
:0E5912001E0EF66E000EF76E000EF86E01010E
:105920000900F550FB6F0900F550FC6F03E1FB67C0
:1059300001D03DD00900F550F66F0900F550F76F22
:105940000900F550F86F09000900F550E96E0900EB
:10595000F550EA6E090009000900F550F96F0900D9
:10596000F550FA6F09000900F6CFFDF1F7CFFEF10F
:10597000F8CFFFF1F6C1F6FFF7C1F7FFF8C1F8FF66
:105980000101F95302E1FA5307E00900F550EE6E08
:10599000F907F8E2FA07F9D7FDC1F6FFFEC1F7FFF4
:1059A000FFC1F8FF0101FB07000EFC5BBFD712002F
:1059B0001E502302F3CF1AF0F4CF1BF02402F35051
:1059C0001B26000EF4201C6E1E502502F3501C26D0
:1059D000000EF4201D6E1E502602F3501D261F508F
:1059E0002302F3501B26F4501C22000E1D221F50D0
:1059F0002402F3501C26F4501D221F502502F350A0
:105A00001D2620502302F3501C26F4501D22205046
:105A10002402F3501D2621502302F3501D261200AC
:105A20001D6A1C6A1B6A1A6A200EE76ED8901E3621
:105A30001F36203621361A361B361C361D362350AB
:105A40001A5C24501B5825501C5826501D5809E339
:105A500023501A5E24501B5A25501C5A26501D5A9A
:085A60001E2AE72EE4D7120014
:085A680020C02AF020502502A5
