:020000040000FA
:060000008FEF41F0120039
:020006001200E6
:0600080071EF38F0120058
:02000E000004EC
:04001000A300000049
:0400140000000000E8
:0600180014EF38F01200A5
:02001E000900D7
:10002000C58300008203000001000000C4830000BB
:100030008103000001000000C08300007A0300007B
:1000400004000000BE830000FE0200000200000069
:100050005683000000020000680000004E8300008C
:10006000F600000008000000757800008003000022
:10007000010000004C830000FE00000002000000B0
:0C008000140000007603000004000000E3
:04008C0001014551D8
:100090000001FE5D01E140D0FE0EFE5D1BE01C0E86
:1000A000E66EE66A290EE66E010EE66EFE511C0D46
:1000B000F3CF14F0F4CF15F0000E14260F0E152216
:1000C00014C0E6FF15C0E6FF3BEC3CF0166E060ED2
:1000D000E15E165045C1FEF0FE0E0101455D01E1F5
:1000E0001BD01C0EE66EE66A45511C0DF3CF14F0D2
:1000F000F4CF15F0000E14260F0E152214C0E6FFE3
:1001000015C0E6FF290EE66E010EE66E3BEC3CF0F4
:10011000166E060EE15E165012000001FE51FF5DE4
:1001200001E14FD0FE0EFF5D32E0270E0101C56FE9
:10013000C66B0101010EC46F0101020EC26F010EF8
:10014000C36F0001FF511C0DF3CFE9FFF4CFEAFFAD
:10015000000EE9260F0EEA221B0EE926000EEA2207
:10016000EFCFC1F1FF511C0DF3CFE9FFF4CFEAFF50
:10017000000EE9260F0EEA22EECFBFF1EFCFC0F15D
:100180000101270EBF5F000EC05B7EEC21F0FEC0B8
:10019000FFF0270E0101C56FC66B44C1C4F129C130
:1001A000C2F12AC1C3F10101C25F000EC35B0101AC
:1001B000010EC16F0101020EBF6F010EC06F7EEC18
:1001C00021F012000D01C00E1D6F100E1E6F0101F7
:1001D000005101110FE1B4EC2BF006C000F107C093
:1001E00001F1FF0E01010017070E0117000E002795
:1001F000040E01233C0EE66EE66AE66A000EE66E29
:10020000030EE66E89EC3CF0146E050EE15E1450B0
:100210000D01156B146B1451146E156A030E145CEA
:10022000000E155801E326D114CD45F12FDF3A0E0B
:10023000146E830E156E000E166E14CD17F0186A2C
:10024000196A060E0C6E0D6A0E6A17C007F018C008
:1002500008F019C009F09DEC40F004C017F005C08B
:1002600018F006C019F014501724F36E155018201A
:10027000F46E16501920F86EF4CFF7FFF3CFF6FFA7
:10028000F62A000EF722F8220800F5CF1CFD3A0EE0
:10029000146E830E156E000E166E14CD17F0186ACC
:1002A000196A060E0C6E0D6A0E6A17C007F018C0A8
:1002B00008F019C009F09DEC40F004C017F005C02B
:1002C00018F006C019F014501724F36E15501820BA
:1002D000F46E16501920F86EF4CFF7FFF3CFF6FF47
:1002E000020EF626000EF722F8220900F5CF16FDC1
:1002F0000A00F5CF17FD3A0E146E830E156E000E30
:10030000166E14CD17F0186A196A060E0C6E0D6A77
:100310000E6A17C007F018C008F019C009F09DEC6C
:1003200040F004C017F005C018F006C019F01450D2
:100330001724F36E15501820F46E16501920F86E1D
:10034000F4CFF7FFF3CFF6FF040EF626000EF722E8
:10035000F8220900F5CF18FD0A00F5CF19FD0D01AF
:100360001C5101E086D01DCD1AFD1ECD1BFD270EB0
:10037000176A1625166E17511722010E1626000E43
:10038000172216501825146E17501921156E010EDC
:100390001426000E152214501D2715501E231DCDA6
:1003A00014F01ECD15F0166A176AD880FC0E14548E
:1003B0001F0E1554000E1654000E175401E2EFD70D
:1003C0001CCD44F1270E0D011A250101296F000EE5
:1003D0000D011B2101012A6F29510D011625010173
:1003E0002B6F2A510D01172101012C6F010E2B27B4
:1003F000000E2C232B510D01182501012D6F2C51BE
:100400000D01192101012E6F0D0E3F6F409785DE02
:100410003A0E146E830E156E000E166E14CD17F084
:10042000186A196A060E0C6E0D6A0E6A17C007F07C
:1004300018C008F019C009F09DEC40F004C017F096
:1004400005C018F006C019F014501724F36E1550AB
:100450001820F46E16501920F86EF4CFF7FFF3CF82
:10046000F6FF0800F5CF28F195EC17F00D01142BDD
:10047000D2D6FFD712000D01716B7151146E156A3F
:10048000030E145C000E155801E3B3D071CD45F195
:10049000FDDD0D0E01013F5D01E0A8D03EDE010152
:1004A0004D51285D01E0A2D0180E256F020E266F77
:1004B0004A510CE14BC112F14CC113F14087040EBB
:1004C0003F6F4BC142F14CC143F18DD0000E005D36
:1004D000040E015906E3880ED8800055130E01550D
:1004E00003E2006B040E016F00C112F101C113F1B0
:1004F000002B000E01234BC110F14CC111F1BBECDC
:100500003FF006C037F107C038F108C039F109C023
:100510003AF1010140894A51040A26E0070A01E044
:1005200062D048514625166E49514721176E165024
:100530004B25146E17504C21156E14501219426F32
:1005400015501319436F46C118F147C119F148C13D
:100550001AF149C11BF1276B260E026F036B046B66
:10056000056B020E3F6F3FD046C1E9FF47C1EAFF6E
:10057000020EE926000EEA22EECF18F0EFCF19F0B6
:1005800046C1E9FF47C1EAFF1850EE24166E195024
:10059000EE20176E16504B25146E17504C21156E19
:1005A00014501219426F15501319436F0A0EE66E5C
:1005B000E66A46C1E6FF47C1E6FF180EE66E010E89
:1005C000E66E3BEC3CF0146E060EE15E1450010149
:1005D000050E3F6F0101010EAE6F0101020EAD6FFE
:1005E0004AEC11F000D00D01715105D00D01712BB5
:1005F00044D7FE0E00D0120001014E51146E156A50
:10060000030E145C000E155802E3010E0BD04EC110
:1006100045F13CDD010141A903D04199010E02D011
:10062000000E00D0120001014F51146E156A030E26
:10063000145C000E155802E3000E0BD04FC145F1BB
:1006400025DD070E01013F5D02E0000E01D0010E25
:1006500000D0120001015051146E156A030E145C93
:10066000000E155801E35CD050C145F10FDD33C1D8
:1006700035F134C136F101013F51080A47E0010A62
:1006800045E0050A43E0020A3EE0050A26E00D0ABD
:100690000EE0010A0CE0070A07E0020A05E0010A81
:1006A00003E0060A01E032D095EC17F039D00101E1
:1006B000010EAE6F0101110EAD6F4AEC11F0010198
:1006C0001451151101E106D00E512F1902E10F51FD
:1006D0003019EDE1080E3F6F23D00101010EAE6F1E
:1006E0000101110EAD6F4AEC11F001011451151109
:1006F00001E106D00E512F1902E10F513019EDE141
:100700000C0E3F6F0DD00D0E3F6F0AD00101AE6B86
:100710000101140EAD6F4AEC11F095EC17F000D00A
:10072000120001015151146E156A030E145C000E83
:10073000155801E308D051C145F1A8DC01014097EB
:1007400051C150F187DF120001015251146E156A38
:10075000030E145C000E155803E3F36AF46A22D00A
:1007600052C145F193DCD9DC0A0EE66EE66A180E3A
:10077000E66E010EE66E530EE66E010EE66E3BEC83
:100780003CF0146E060EE15E145010C15DF111C113
:100790005EF1530E146E010E156E14C0F3FF15C0FA
:1007A000F4FF00D0120001015F51146E156A030EB0
:1007B000145C000E155801E313D05FC145F166DCEF
:1007C000ACDC01010E512F1902E10F51301908E084
:1007D0000101010EAE6F0101100EAD6F4AEC11F078
:1007E000120001016051146E156A030E145C000EB4
:1007F000155803E3F36AF46A3ED060C145F146DC64
:100800003FC12BFD070E0D012B5D06E00B0E2B5D8E
:1008100003E0F36AF46A2FD0010131512F5D3251A8
:1008200030591BE329512B5D166E2C512A55176E3A
:100830001606000E175A31512F5D186E3051325581
:10084000196E1850165C146E19501758156E14C096
:10085000F3FF15C0F4FF0FD00ED02F51315D146E91
:1008600032513055156E1406000E155A14C0F3FFA0
:1008700015C0F4FF00D0120001016151146E156A19
:10088000030E145C000E155802E3000E74D061C113
:1008900045F146EC00F061C160F1A3DFF3CF00FD4C
:1008A000F4CF01FD0D010051011103E1000E63D0F1
:1008B00008D0010E001901E1015103E161C15FF1AE
:1008C00072DF01014151010B14E129512B5D146EBE
:1008D0002C512A55156ED890153214320D01005145
:1008E000145C0151155805E361C15FF15CDF010142
:1008F0004181010E0101C56FC66B0101C46F010189
:10090000620EC26F010EC36F44C1C1F12FC1BFF1AE
:1009100030C1C0F17EEC21F001012F2B000E3023FD
:100920002B512F5D2C51305904E329C12FF12AC1DD
:1009300030F10D01010E001901E1015104E161C125
:100940005FF131DF16D0010140BB13D0408BCEECFC
:100950003FF006C014F007C015F0166A176A060EBD
:100960001426000E15221622172214C03BF115C0C2
:100970003CF1010E00D012000D01756B766B010188
:100980006351146E156A030E145C000E155803E3D0
:10099000F36AF46AC2D063C145F146EC00F063C16A
:1009A00060F11FDFF3CF73FDF4CF74FD0D017351C0
:1009B000741106E163C15FF1F6DEF36AF46AADD04B
:1009C00073CD71FD74CD72FD73510101665D0D0132
:1009D00074510101675904E266C171FD67C172FD7E
:1009E0004151010B14E129512B5D146E2C512A55F4
:1009F000156ED890153214320D017351145C745178
:100A0000155805E363C15FF1CEDE010141810101AB
:100A10002F510D017125146E010130510D0172210C
:100A2000156E01012B51145C2C5115582DE32F51DB
:100A30002B5D0D01756F010130512C590D01766F41
:100A400075CDC5F176CDC6F10101010EC46F64C14B
:100A5000C2F165C1C3F144C1C1F12FC1BFF130C1C1
:100A6000C0F17EEC21F00D017551010164270D01EB
:100A70007651010165230D017551715F7651725BED
:100A800029C12FF12AC130F171CDC5F172CDC6F166
:100A90000101010EC46F64C1C2F165C1C3F144C15B
:100AA000C1F12FC1BFF130C1C0F17EEC21F00D01C9
:100AB000715101012F270D017251010130230D01E8
:100AC00073510101665D0D0174510101675904E321
:100AD00063C15FF168DE15D040BB13D0408BCEEC14
:100AE0003FF006C014F007C015F0166A176A060E2C
:100AF0001426000E15221622172214C03BF115C031
:100B00003CF10D0171517525146E72517621156EEF
:100B100014C0F3FF15C0F4FF00D012000D01166BD6
:100B2000176B01016851146E156A030E145C000EF8
:100B3000155803E3F36AF46AC5D068C145F146EC81
:100B400000F068C160F14DDEF3CF14FDF4CF15FD68
:100B50000D011451151106E168C15FF124DEF36A3D
:100B6000F46AB0D001014151010B14E129512B5D10
:100B7000146E2C512A55156ED890153214320D0171
:100B80001451145C1551155805E368C15FF10BDE73
:100B90000101418114CD12FD15CD13FD0D0114513C
:100BA00001016C5D0D01155101016D5904E26CC12B
:100BB00012FD6DC113FD2F510D011225146E01019F
:100BC00030510D011321156E01012B51145C2C5174
:100BD000155830E32F512B5D0D01166F0101305177
:100BE0002C590D01176F16CDCDF117CDCEF169C17E
:100BF000CAF16AC1CBF16BC1CCF144C1C9F12FC1BB
:100C0000C7F130C1C8F1E2EC21F016CD14F017CDD8
:100C100015F0166A14500101692715506A23165001
:100C20006B230D011651125F1751135B29C12FF170
:100C30002AC130F112CDCDF113CDCEF169C1CAF187
:100C40006AC1CBF16BC1CCF144C1C9F12FC1C7F16D
:100C500030C1C8F1E2EC21F00D01125101012F2742
:100C60000D011351010130230D01145101016C5D7F
:100C70000D01155101016D5904E368C15FF193DD68
:100C800015D040BB13D0408BCEEC3FF006C014F023
:100C900007C015F0166A176A060E1426000E1522F4
:100CA0001622172214C03BF115C03CF10D01125160
:100CB0001625146E13511721156E14C0F3FF15C0BD
:100CC000F4FF00D012006FC1E6FF70C1E6FFA3EC95
:100CD0003CF0E552E552F3CF66F1F4CF67F16FC116
:100CE00064F170C165F16EC163F146DE01016F51BF
:100CF000F324146E7051F420156E14C0F3FF15C068
:100D0000F4FF00D0120072C1E6FF73C1E6FF74C1A8
:100D1000E6FFB1EC3CF0E552E552E55207C06CF15C
:100D200008C06DF172C169F173C16AF174C16BF1F0
:100D300071C168F1F3DEF3CF17F0F4CF18F0196A40
:100D4000010172511724146E73511820156E7451DD
:100D50001920166E14C007F015C008F016C009F06F
:100D600000D0120001017551146E156A030E145C57
:100D7000000E155803E3F36AF46A25D075C145F1F6
:100D800046EC00F0010129512B5D0D01026F0101BC
:100D90002A512C590D01036F010E025F000E035BF7
:100DA00075C160F11EDDF3CF00FDF4CF01FD0D0133
:100DB0000051025D146E03510155156E14C0F3FF0E
:100DC00015C0F4FF00D0120076C177F118D8F3CF28
:100DD00014F0F4CF15F01450151010E076C145F161
:100DE00046EC00F033C135F134C136F10101010E9A
:100DF000AE6F0101100EAD6F4AEC11F0120001014F
:100E00007751146E156A030E145C000E155803E337
:100E1000F36AF46A31D077C145F146EC00F0010184
:100E20003551335D365134590CE33551335D146E11
:100E300034513655156E14C0F3FF15C0F4FF1CD0A5
:100E40001BD035512D5D166E2E513655176E010E85
:100E50001626000E17222B51335D186E34512C5577
:100E6000196E16501824146E17501920156E14C0E0
:100E7000F3FF15C0F4FF00D0120078C177F1BFDF97
:100E8000F3CF00FDF4CF01FD0D010051011102E18E
:100E9000000E48D078C145F146EC00F001017951CF
:100EA0007A1112E0010E0101C56FC66B44C1C4F195
:100EB00035C1C2F136C1C3F10101C16F79C1BFF1C2
:100EC0007AC1C0F17EEC21F00101352B000E3623F2
:100ED00035512D5D36512E5904E22BC135F12CC10F
:100EE00036F10D01010E001901E1015103E101018B
:100EF000418516D0010140BB13D0408BCEEC3FF0B2
:100F000006C014F007C015F0166A176A1E0E1426E4
:100F1000000E15221622172214C03BF115C03CF119
:100F2000010E00D012000D01316B326B7BC177F1E5
:100F300066DFF3CF2FFDF4CF30FD0D012F513011BF
:100F400003E1F36AF46AA1D07BC145F146EC00F0FD
:100F500001017E510D012F5D01017F510D013059BD
:100F600004E22FCD7EF130CD7FF1010135517E2598
:100F7000146E36517F21156E14502D5D15502E596B
:100F800038E235512D5D0D01316F010136512E5979
:100F90000D01326F010E3127000E322301017C5109
:100FA0007D111BE031CDC5F132CDC6F144C1C4F194
:100FB00035C1C2F136C1C3F10101010EC16F7CC15F
:100FC000BFF17DC1C0F17EEC21F00D013151010175
:100FD0007C270D01325101017D230D0131510101A9
:100FE0007E5F0D01325101017F5B2BC135F12CC1B8
:100FF00036F17C517D1113E07EC1C5F17FC1C6F190
:1010000044C1C4F135C1C2F136C1C3F10101010EC1
:10101000C16F7CC1BFF17DC1C0F17EEC21F0010147
:101020007E5135277F5136230D01315101017E2735
:101030000D01325101017F237E510D012F5D146E90
:10104000305101017F55156E14507E5D15507F594A
:1010500002E3418515D040BB13D0408BCEEC3FF06E
:1010600006C014F007C015F0166A176A1E0E142683
:10107000000E15221622172214C03BF115C03CF1B8
:101080007EC1F3FF7FC1F4FF00D012000101805147
:10109000146E156A030E145C000E155803E3F36A10
:1010A000F46A21D080C145F146EC00F001012B51DA
:1010B0002D5D0D01026F01012C512E590D01036FA1
:1010C00080C177F19CDEF3CF00FDF4CF01FD0D016F
:1010D0000051025D146E03510155156E14C0F3FFEB
:1010E00015C0F4FF00D0120001018151146E156A81
:1010F000030E145C000E155803E28451851103E1C0
:10110000F36AF46AABD081C145F146EC00F081C1CD
:1011100077F175DEF3CF02FDF4CF03FD01018651B7
:101120008425146E87518521156E0D011450025DC2
:10113000155003590BE2010186510D01025D0101B9
:10114000846F87510D0103590101856F01013551EC
:1011500086250D01006F0101365187210D01016FB8
:10116000005101012D5D0D01015101012E590FE2C8
:101170002B512D5D146E2E512C55156E010E14261B
:10118000000E152214500D01005F1550015B0D017A
:10119000005101012D5D0D01046F015101012E5916
:1011A0000D01056F010E0427000E05230101845176
:1011B0000D01045D010185510D01055914E384C140
:1011C000C5F185C1C6F144C1C4F100CDC2F101CD64
:1011D000C3F10101010EC16F82C1BFF183C1C0F132
:1011E0007EEC21F036D004CDC5F105CDC6F144C169
:1011F000C4F100CDC2F101CDC3F10101010EC16FF7
:1012000082C1BFF183C1C0F17EEC21F00D01045118
:101210000101845D0101C56F0D0105510101855971
:101220000101C66F44C1C4F12BC1C2F12CC1C3F18D
:101230000101010EC16F010182510D01042501015F
:10124000BF6F010183510D0105210101C06F7EECCB
:1012500021F084C1F3FF85C1F4FF00D0120089C1E1
:1012600086F18AC187F1010E0101846F856B01014E
:10127000060E826F0D0E836F88C181F135DF0D017F
:10128000065100D0120001018B51146E156A030E35
:10129000145C000E155803E28E518F1103E1F36ABE
:1012A000F46AB2D18BC145F146EC00F08BC177F105
:1012B000A6DD01019051F35C0D01026F0101915116
:1012C000F4580D01036F01018E510D01025D010102
:1012D0008F510D01035903E2F368F46895D10101C0
:1012E000925193110DE00D0102510101925D0D012A
:1012F00003510101935904E292C102FD93C103FD20
:10130000355190250D01066F0101365191210D01D6
:10131000076F065101012D5D0D01075101012E5985
:101320000FE22B512D5D146E2E512C55156E010EB2
:101330001426000E152214500D01065F1550075B90
:1013400006CD00FD07CD01FD0D01065101012D5D0A
:101350000D01046F075101012E590D01056F010E9A
:101360000427000E052390C106FD91C107FD8EC123
:1013700008FD8FC109FD8CC10AFD8DC10BFD010166
:101380008CC1E9FF8DC1EAFF8C2B8D23EFCF0DFDC2
:101390000D010F6B0101945109E0610E0D010D5D0E
:1013A00005E30D517A0802E3E00E0D270D01200E32
:1013B0000E6F0E51045D000E055902E204CD0EFDC4
:1013C0000E51025D000E035902E202CD0EFD0E51D8
:1013D0000101C56FC66B44C1C4F100CDC2F101CD9E
:1013E000C3F10101010EC16F0101100EBF6F0D0E9F
:1013F000C06F7EEC21F00D010E51146E156A145071
:101400000027155001230E51146E156A1450045F05
:101410001550055B0451051106E12BC100FD2CC1DF
:1014200001FD046905690101945101E181D00D01BB
:101430000C6B0E510C5D01E37AD00C51EA6A100F6F
:10144000E96E0D0EEA22EFCF14F0610E145C13E387
:101450000C51EA6A100FE96E0D0EEA22EF507A087D
:101460000AE3E00E146E0C51EA6A100FE96E0D0EDD
:10147000EA221450EF260C51EA6A100FE96E0D0EA5
:10148000EA22EF500D5D33E101018E07000E8F5B04
:101490008E518F1117E10D010851065D166E07512F
:1014A0000955176E0C5100011624146E000E1720FA
:1014B000156E010E1426000E152214C0F3FF15C080
:1014C000F4FFA2D08CC1E9FF8DC1EAFF8C2B000E86
:1014D0008D23EFCF0DFD0D01010E0F6F610E0D5D20
:1014E00005E30D517A0802E3E00E0D271ED008CD6A
:1014F0008EF109CD8FF10F5118E00ACD8CF10BCD93
:101500008DF101018CC1E9FF8DC1EAFF8C2B000E2A
:101510008D23EFCF0DFD610E0D010D5D05E30D5126
:101520007A0802E3E00E0D270F6B0C2B82D751D007
:101530000D010C6B0E510C5D4CE20C51EA6A100F60
:10154000E96E0D0EEA22EF500D5D2BE101018E07D1
:10155000000E8F5B8E518F1117E10D010851065D52
:10156000166E07510955176E0C5100011624146EA2
:10157000000E1720156E010E1426000E152214C041
:10158000F3FF15C0F4FF40D08CC1E9FF8DC1EAFF25
:101590008C2B000E8D23EFCF0DFD0D01010E0F6F73
:1015A00016D008CD8EF109CD8FF10F5110E00ACD84
:1015B0008CF10BCD8DF101018CC1E9FF8DC1EAFFEA
:1015C0008C2B000E8D23EFCF0DFD0D010F6B0C2B1F
:1015D000B1D70E51146E156A1450025F1550035B9B
:1015E00001018E510D01025D01018F510D01035961
:1015F00003E2F368F46808D00E51146E156A1450B3
:10160000062715500723D2D6120001019551146EFA
:10161000156A030E145C000E155803E299519A11D5
:1016200003E1F36AF46ACDD195C145F146EC00F0CF
:1016300095C177F1FFEC06F001019B51F35C0D01C0
:10164000026F01019C51F4580D01036F0101995182
:101650000D01025D01019A510D01035903E2F36886
:10166000F468AFD101019D519E110DE00D010251B1
:1016700001019D5D0D01035101019E5904E29DC1CF
:1016800002FD9EC103FD35519B250D01066F010131
:1016900036519C210D01076F065101012D5D0D0191
:1016A000075101012E590FE22B512D5D146E2E5161
:1016B0002C55156E010E1426000E152214500D0126
:1016C000065F1550075B06CD00FD07CD01FD0D013E
:1016D000065101012D5D0D01046F075101012E59C5
:1016E0000D01056F010E0427000E05239BC106FDA9
:1016F0009CC107FD99C108FD9AC109FD96C10AFD6B
:1017000097C10BFD98C10CFD010196C1F6FF962B08
:1017100097C1F7FF972398C1F8FF98230800F5CFEA
:101720000EFD0D01106B01019F5109E0610E0D01CD
:101730000E5D05E30E517A0802E3E00E0E270D015F
:10174000200E0F6F0F51045D000E055902E204CD0B
:101750000FFD0F51025D000E035902E202CD0FFD95
:101760000F510101C56FC66B44C1C4F100CDC2F178
:1017700001CDC3F10101010EC16F0101110EBF6F57
:101780000D0EC06F7EEC21F00D010F51146E156A25
:1017900014500027155001230F51146E156A145070
:1017A000045F1550055B0451051106E12BC100FDD6
:1017B0002CC101FD0469056901019F5101E18BD034
:1017C0000D010D6B0F510D5D01E384D00D51EA6ADF
:1017D000110FE96E0D0EEA22EFCF14F0610E145CCA
:1017E00013E30D51EA6A110FE96E0D0EEA22EF5074
:1017F0007A080AE3E00E146E0D51EA6A110FE96EE1
:101800000D0EEA221450EF260D51EA6A110FE96E0F
:101810000D0EEA22EF500E5D37E101019907000E2F
:101820009A5B99519A1117E10D010851065D166EE8
:1018300007510955176E0D5100011624146E000E44
:101840001720156E010E1426000E152214C0F3FF8A
:1018500015C0F4FFB6D096C1F6FF962B97C1F7FFDF
:10186000000E972398C1F8FF98230800F5CF0EFDCE
:101870000D01010E106F610E0E5D05E30E517A0829
:1018800002E3E00E0E2724D008CD99F109CD9AF19C
:1018900010511EE00ACD96F10BCD97F10CCD98F1C9
:1018A000010196C1F6FF962B97C1F7FF000E972313
:1018B00098C1F8FF98230800F5CF0EFD610E0D01C9
:1018C0000E5D05E30E517A0802E3E00E0E27106B61
:1018D0000D2B78D75BD00D010D6B0F510D5D56E2CE
:1018E0000D51EA6A110FE96E0D0EEA22EF500E5DFE
:1018F0002FE101019907000E9A5B99519A1117E1A6
:101900000D010851065D166E07510955176E0D51F0
:1019100000011624146E000E1720156E010E1426F9
:10192000000E152214C0F3FF15C0F4FF4AD096C173
:10193000F6FF962B97C1F7FF000E972398C1F8FF8B
:1019400098230800F5CF0EFD0D01010E106F1CD07D
:1019500008CD99F109CD9AF1105116E00ACD96F112
:101960000BCD97F10CCD98F1010196C1F6FF962BA6
:1019700097C1F7FF000E972398C1F8FF982308003E
:10198000F5CF0EFD0D01106B0D2BA7D70F51146E67
:10199000156A1450025F1550035B010199510D0146
:1019A000025D01019A510D01035903E2F368F468E5
:1019B00008D00F51146E156A1450062715500723CE
:1019C000BED61200A6C194F1A4C192F1A5C193F1B3
:1019D000A2C190F1A3C191F1010E01018E6F8F6B35
:1019E0000101A10E8C6F010E8D6FA0C18BF14BDC3C
:1019F00000D012000D011C6B1C51146E156A030EF1
:101A0000145C000E155801E300D31CCD45F146ECE3
:101A100000F00D011F6B1D6B1E6B01014151020B8C
:101A200003E14151040B0EE089EC23F000090AE0C8
:101A30000D01100E1F6F01014151040B01E0010E59
:101A40000D011D6F010140AB13D0CEEC3FF0010141
:101A500006503B5D146E07503C59156E153404E278
:101A600014500008000E155403E30D01100E1F6FF3
:101A7000010140AD13D0CEEC3FF0010106503D5DB9
:101A8000146E07503E59156E153404E214500008C8
:101A9000000E155403E30D01100E1F6F0B0E010114
:101AA0003F5D16E1CEEC3FF0010106503D5D146E46
:101AB00007503E59156E153404E214500008000E0C
:101AC000155406E30D01110E1F6F01010C0E3F6F3F
:101AD000040E3F5D01E00AD10D01206B216B030E66
:101AE000205D000E215901E301D120CDE9FF21CD78
:101AF000EAFF140EEA02F3CFEAFFE902F3CFE9FFAF
:101B0000F450EA26000EE926030EEA22100EE9261A
:101B1000000EEA22EE50ED1001E1E8D020CDE9FF01
:101B200021CDEAFF140EEA02F3CFEAFFE902F3CF78
:101B3000E9FFF450EA26000EE926030EEA22100E11
:101B4000E926000EEA22EECF14F0EFCF15F00101E6
:101B50004251141802E14351151801E0C2D08DEC36
:101B600000F00A0EE66EE66A20CDE9FF21CDEAFF1D
:101B7000140EEA02F3CFEAFFE902F3CFE9FFF450D3
:101B8000EA26000EE926030EEA22E9CF14F0EACF96
:101B900015F014C0E6FF15C0E6FF180EE66E010E44
:101BA000E66E3BEC3CF0166E060EE15E165020CD64
:101BB000E9FF21CDEAFF140EEA02F3CFEAFFE902C2
:101BC000F3CFE9FFF450EA26000EE926030EEA22DD
:101BD0000A0EE926000EEA22EECF10F1EDCF11F148
:101BE00020CDE9FF21CDEAFF140EEA02F3CFEAFF90
:101BF000E902F3CFE9FFF450EA26000EE926030ECE
:101C0000EA220C0EE926000EEA22EECF0AF1EECF10
:101C10000BF1EECF0CF1EFCF0DF101010A2B0B23ED
:101C20000C230D231A511825166E1B511921176EFE
:101C300016501025146E17501121156E14501219DC
:101C4000426F15501319436F0D01120E1F6F0101E2
:101C5000060E3F6F20CDC5F121CDC6F10101020E68
:101C6000D880C557000EC657140EC603F3CFC6F171
:101C7000C503F3CFC5F1F450C6270101010EC46FAF
:101C80000D0120250101C26F000E0D01212101016E
:101C9000C36F140EC303F3CFC3F1C203F3CFC2F17A
:101CA000F450C327000EC227030EC3230101010E07
:101CB000C16F140E086E096A20CD0DF021CD0EF013
:101CC0007FEC40F006C0BFF107C0C0F1000E01017B
:101CD000BF27030EC0237EEC21F00301386B396B64
:101CE00005D00D01202B000E2123F9D60D011F5127
:101CF0000AE01D5102E0000E01D0010E0101AE6F9D
:101D00001FCDADF1C7DA010140B94ED0070E3F5DDE
:101D10004AE1BBEC3FF001013751065C146E3851CB
:101D20000758156E39510858166E3A510958176EF2
:101D30000001800E171401E065D101014051070B2D
:101D4000060815E14051080B01E0010E0D011F6F5F
:101D50001CCD50F12AEC03F01CCD50F12AEC03F01D
:101D60000D011F5103E101010E0E3F6F4BD18DECB0
:101D700000F00101020EAE6F0101100EAD6F8ADAA4
:101D8000BBEC3FF006C037F107C038F108C039F1AD
:101D900009C03AF1E60E01013727F50E3823050E8A
:101DA0003923000E3A232ED1BBEC3FF0010137510D
:101DB000065C146E38510758156E39510858166E66
:101DC0003A510958176E0001800E171401E01AD11C
:101DD0008DEC00F001013F510C0A01E1B2D0060A7E
:101DE00001E1A0D0030A01E197D0010A01E185D009
:101DF0000F0A74E00C0A72E00D0A5BE0030A46E089
:101E0000060A14E0010A01E0ABD0CEEC3FF006C0B8
:101E10003BF107C03CF10101180EEE6F010EEF6FB0
:101E200050EC35F00101030E3F6F9AD001011C0EFA
:101E3000F26F010EF36F0101180EF06F010EF16FDA
:101E400094EC35F000091AE1CEEC3FF001013B5172
:101E5000065C146E3C510758156E1450025D155007
:101E600003590BE2060E275D06E2272BD8900237B6
:101E7000033704370537020E3F6F72D00D01020E93
:101E80001F6F1D6B0101050E3F6F6AD00D01020E21
:101E90001F6F010E1D6F040E0101275D09E3040E83
:101EA000276F700E026F890E036F090E046F056BAA
:101EB00057D0020E275D06E20D01120E1F6F010EB4
:101EC0001D6F0BD040A706D00D01140E1F6F010E21
:101ED0001E6F03D00D01020E1F6F42D0050E275D4D
:101EE00006E20D01100E1F6F010E1D6F05D0080ECA
:101EF0003F6F0D01110E1F6F33D0050E275D06E2F7
:101F00000D01110E1F6F010E1D6F05D00D01140E76
:101F10001F6F010E1E6F24D00D01140E1F6F010ED6
:101F20001E6F1ED0050E275D06E20D01100E1F6FFD
:101F3000010E1D6F05D00D01140E1F6F010E1E6FD7
:101F40000FD0050E275D06E20D01110E1F6F010E69
:101F50001D6F05D00D01140E1F6F010E1E6F00D0F6
:101F60000D011F514AE01D5142E00101272BD8907D
:101F7000023703370437053731510E5D0D01206FED
:101F8000010132510F590D01216F010131510E5DD7
:101F900032510F590BE229512B5D146E2C512A55E9
:101FA000156E14500D0120271550212320CD14F05B
:101FB00021CD15F0166A176A14500101065F1550FD
:101FC000075B1650085B1750095B0D01205101019A
:101FD00014270D0121510101152331C10EF132C128
:101FE0000FF10101AE6B1FCDADF154D906D0010147
:101FF000010EAE6F1FCDADF14DD90D011E5102E0A6
:1020000095EC17F00D011C2BF7D4206B216B030E00
:10201000205D000E215901E399D020CDE9FF21CDAB
:10202000EAFF140EEA02F3CFEAFFE902F3CFE9FF79
:10203000F450EA26000EE926030EEA22100EE926E5
:10204000000EEA22EE50ED1001E180D020CDE9FF34
:1020500021CDEAFF140EEA02F3CFEAFFE902F3CF43
:10206000E9FFF450EA26000EE926030EEA22120EDA
:10207000E926000EEA22EECF16F0EFCF17F016C0D9
:10208000E6FF17C0E6FFCEEC3FF0E552E7CF17F0D2
:10209000E552E7CF16F01650065C146E175007583D
:1020A000156EC90ED8801454010E15544AE220CD85
:1020B000C5F121CDC6F10101020ED880C557000E31
:1020C000C657140EC603F3CFC6F1C503F3CFC5F14F
:1020D000F450C6270101010EC46F0D012025010136
:1020E000C26F000E0D0121210101C36F140EC30345
:1020F000F3CFC3F1C203F3CFC2F1F450C327000EF4
:10210000C227030EC3230101010EC16F140E086E16
:10211000096A20CD0DF021CD0EF07FEC40F006C015
:10212000BFF107C0C0F1000E0101BF27030EC0239D
:102130007EEC21F00301386B396B0D012007000E96
:10214000215B0D01202B000E212361D71200A7C1B6
:10215000E9FFA8C1EAFFEECF14FDEECF15FDEECFEB
:1021600016FDEFCF17FDA9C1E9FFAAC1EAFFEECF27
:1021700018FDEECF19FDEECF1AFDEFCF1BFD0D01BF
:102180001C6B060E1D6FABC11EFDACC11FFD1ECD2D
:1021900056F31FCD57F301EC2FF0F3CF1EFDF4CF14
:1021A0001FFD0C0E03015E6F5F6B0301140E5C6F6D
:1021B0000D0E5D6F28EC2FF0F3CF20FDF4CF21FD45
:1021C0000D01201F211FABC1CAF2ACC1CBF213EC31
:1021D00027F0F3CF22FDF4CF23FD0D01225120196A
:1021E00002E12351211904E097EC23F0010E51D0B4
:1021F0000001E86BE96BB0EC3AF0140E0201D46F09
:10220000D56B0201000ED26F0D0ED36F30EC29F0AA
:102210000101000EB36F0D0EB46FBAEC16F00D0194
:102220000C51F00BE842E842E842E842040DF3505A
:10223000146E156A140E145E000E155A14C024FD97
:102240002451146E156A14500101AB5DAB6F15502B
:10225000AC59AC6F140EAB5F000EAC5BA7C1B1F113
:10226000A8C1B2F10101000EAF6F0D0EB06FD8DA48
:1022700000090BE0ABC1B7F1ACC1B8F10101000E30
:10228000B56F0D0EB66F5EEC18F097EC23F0010EF3
:1022900000D012008DEC00F00101ADA102D0418709
:1022A000AD91409B409D409F41934195419189EC68
:1022B00023F0000901E1FBD7060E0101AD1504E092
:1022C0000D01516B526BFBD00E512F1902E10F51D2
:1022D000301904E10D01516B526BD9D02F510E5DB5
:1022E00030510F593FE20E512F5D0D01516F010129
:1022F0000F5130590D01526F51510101145D0D0103
:1023000052510101155904E214C151FD15C152FD8C
:102310000D0151510101255D0D0152510101265957
:1023200005E225C151FD26C152FD418551CDC5F1C2
:1023300052CDC6F144C1C4F10EC1C2F10FC1C3F107
:102340000101C16B0101050EBF6F0B0EC06F7EEC6A
:1023500021F00D01515101010E270D0152510101D2
:102360000F2395D00E512B5D0D014F6F01010F51C1
:102370002C590D01506F4F5101012F25146E0D0185
:10238000505101013021156E2951145C0D01516F1E
:1023900001012A5115580D01526F51510101145D6F
:1023A0000D0152510101155904E214C151FD15C12D
:1023B00052FD0D0151510101255D0D0152510101E7
:1023C000265905E225C151FD26C152FD41850D0169
:1023D0004F51515D5051525904E251CD4FFD52CDF4
:1023E00050FD4FCDC5F150CDC6F144C1C4F10EC171
:1023F000C2F10FC1C3F10101C16B0101050EBF6F35
:102400000B0EC06F7EEC21F00D014F51515D4F6FEF
:1024100050515259506F4F51501122E04FCDC5F1DC
:1024200050CDC6F144C1C4F129C1C2F12AC1C3F1E2
:102430000101C16B01010E512B5D146E2C510F5522
:10244000156E166A176A050E14260B0E1522000E5D
:102450001622172214C0BFF115C0C0F17EEC21F086
:102460000D01515101010E270D01525101010F23A0
:102470002B510E5D2C510F590AE329512B5D146E1F
:102480002C512A55156E14500E5F15500F5B01012B
:1024900041A715D014510D01511904E10101155145
:1024A0000D0152190CE0010125510D01511904E1F2
:1024B000010126510D01521902E00101AD810D010A
:1024C0005151521104E1030E0101AD1529E00D0136
:1024D00051510101145F0D0152510101155B0D01B4
:1024E0005151521102E00101AD870101AEA107D0A7
:1024F000276B970E026F980E036F046B056BBBEC96
:102500003FF0065001010225376F07500321386F55
:1025100008500421396F095005213A6F408938D09D
:10252000AEA31BD0400EE96E010EEA6EEF50070B12
:10253000E82AF36EF350070BF36EF46EF80EEF1407
:10254000F310EF6EF4500607000E075B085B095BA3
:10255000010E0D01516F526B1BD040A919D0AEB1C5
:1025600008D0275106E02707D890053304330333FA
:102570000233BBEC3FF0065001010225376F0750D4
:102580000321386F08500421396F095005213A6F33
:1025900012C12DFD13C12EFD10C12FFD11C130FD43
:1025A00006C131FD07C132FD08C133FD09C134FD4B
:1025B0000AC135FD0BC136FD0CC137FD0DC138FD1B
:1025C0000D013A9D3A9F3991399339953997ADC1AB
:1025D0003AFD3F6B406B5151010106270D015251ED
:1025E00001010723000E08230923ADA315D0ADB9BF
:1025F00005D00D01356B366B376B386B010124A3A9
:1026000006D00D013107325B335B345B05D0062BFE
:1026100007230823092324830101ADB12481355107
:10262000335D3651345914E32B512D5D146E2E5108
:102630002C55156E3551335D166E34513655176E67
:102640000D011650145C3B6F175015583C6F0DD0A0
:102650003351355D0D013B6F0101345136590D0188
:102660003C6F010E3B5F000E3C5BD0EC23F0F3CFE0
:102670002BFDF4CF2CFD0D01400E2B5D000E2C59CF
:1026800003E22B6B2C6B04D0400E2B5F000E2C5BF7
:102690003B512B5D3C512C5904E22BCD3BFD2CCD05
:1026A0003CFD01012D0EB36F0D0EB46F63DB140EF4
:1026B0000D015127000E52233989399B398D399FDD
:1026C0000101ADA326D0040E0D015127000E5223A7
:1026D000020E416F040E426F020E436F180E446FDC
:1026E000010E146E390EE96E0D0EEA6EEF50F00B0E
:1026F000E842E842E842E84214240F0BF36EF46E1D
:10270000F346F346F346F3460F0EEF14F310EF6E65
:10271000F45068C245FD69C246FD6AC247FD6BC2FE
:1027200048FD18C149FD19C14AFD1AC14BFD1BC125
:102730004CFD0D014D6B060E4E6F51CD4FFD52CD30
:1027400050FD4FCD56F350CD57F301EC2FF0F3CFA2
:102750004FFDF4CF50FD0C0E03015E6F5F6B030164
:10276000450E5C6F0D0E5D6F28EC2FF0F3CF3DFD35
:10277000F4CF3EFD0D013D1F3E1F0201DD0EC26F75
:102780000A0EC36F7FEC26F051CDE6F052CDE7F094
:102790000001060EE56F0001180EE36F010EE46FF5
:1027A0003CEC3AF0140E0201D96FDA6B02012D0EE7
:1027B000D76F0D0ED86F80EC29F00101ADA30BD0BF
:1027C000040E0201D96FDA6B0201410ED76F0D0EB4
:1027D000D86F80EC29F00201F10EC46F0A0EC56FAC
:1027E0009FEC26F051CDCAF252CDCBF213EC27F07C
:1027F000F3CF2BFDF4CF2CFD0201010EC26F0B0EA7
:10280000C36F7FEC26F0020E0201D96FDA6B020172
:102810002B0ED76F0D0ED86F80EC29F04EEF25F000
:10282000AFC1E9FFB0C1EAFF020EE926000EEA22BD
:10283000EE50ED1002E1000E9CD20D01FE0E266F4F
:10284000B1C1E9FFB2C1EAFF020EE926000EEA2299
:10285000EECF18F0EFCF19F0B1C1E9FFB2C1EAFF36
:102860001850EE24166E1950EE20176EAFC1E9FF16
:10287000B0C1EAFF1650EE24146E1750EE20156E0C
:10288000AFC1E9FFB0C1EAFF020EE926000EEA225D
:102890001450EE18276F1550EE18286F256B255130
:1028A000146E156A030E145C000E155867E225CDF0
:1028B00045F146EC00F00D0E01013F5D02E15BD0F9
:1028C00024D0040E3F5D16E1AFC1E9FFB0C1EAFFBD
:1028D000020EE926000EEA22EECF14F0EFCF15F03B
:1028E0001450421902E11550431902E125CD26FD8D
:1028F00042D00BD00D0127510101421904E10D0115
:1029000028510101431901E036D08DEC00F0AFC130
:10291000E9FFB0C1EAFF020EE926000EEA22EECF7F
:1029200014F0EFCF15F001011251141802E1135108
:10293000151821E1AFC1E9FFB0C1EAFFEECF16F0F3
:10294000EFCF17F01051161802E11151171813E1CB
:10295000B1C1E9FFB2C1EAFFEE50181909E1EE502A
:10296000191906E1EE501A1903E1EE501B1900E1A6
:1029700002E1010EFED10D01252B91D7FE0E265D41
:1029800039E026CD45F146EC00F08DEC00F0FE0E6E
:102990000D01265D2FE027CD42F128CD43F10A0E2F
:1029A000E66EE66AB1C1E6FFB2C1E6FF180EE66E5A
:1029B000010EE66E3BEC3CF0146E060EE15E145028
:1029C000AFC1E9FFB0C1EAFFEECF10F1EDCF11F1D9
:1029D000AFC1E9FFB0C1EAFF020EE926000EEA220C
:1029E000EECF12F1EDCF13F129C10EF12AC10FF193
:1029F000010EBFD1AFC1E9FFB0C1EAFF0D0EE9265C
:102A0000000EEA22EF50020B02E1000EB2D10301E8
:102A10003851391102E0000EACD10D01296B2A6B3F
:102A2000030E295D000E2A5901E3BED029CDE9FF2E
:102A30002ACDEAFF140EEA02F3CFEAFFE902F3CF50
:102A4000E9FFF450EA26000EE926030EEA22100EF2
:102A5000E926000EEA22EE50ED1001E1A5D029CDC5
:102A6000E9FF2ACDEAFF140EEA02F3CFEAFFE902FA
:102A7000F3CFE9FFF450EA26000EE926030EEA221E
:102A8000100EE926000EEA22EECF14F0EFCF15F07B
:102A9000AFC1E9FFB0C1EAFF020EE926000EEA224B
:102AA000EECF16F0EFCF17F01650141802E11750C2
:102AB000151801E074D029CDE9FF2ACDEAFF140EE4
:102AC000EA02F3CFEAFFE902F3CFE9FFF450EA2686
:102AD000000EE926030EEA220A0EE926000EEA227B
:102AE000EECF14F0EFCF15F0AFC1E9FFB0C1EAFFB0
:102AF000EECF16F0EFCF17F01650141802E1175072
:102B0000151801E04CD0B1C1E9FFB2C1EAFFEECF28
:102B100014F0EECF15F0EECF16F0EFCF17F029CD71
:102B2000E9FF2ACDEAFF140EEA02F3CFEAFFE90239
:102B3000F3CFE9FFF450EA26000EE926030EEA225D
:102B4000EE500001141809E1EE50151806E1EE50A0
:102B5000161803E1EE50171800E101E020D0CEEC8A
:102B60003FF006C014F007C015F029CDE9FF2ACDCB
:102B7000EAFF140EEA02F3CFEAFFE902F3CFE9FF1E
:102B8000F450EA26000EE926030EEA22120EE92688
:102B9000000EEA2214C0EEFF15C0EDFFEAD00D01D1
:102BA000292B000E2A233CD7256B2551146E156A5C
:102BB000030E145C000E155801E3D9D025CD45F164
:102BC00046EC00F0010140A7CFD08DEC00F0AFC182
:102BD000E9FFB0C1EAFF020EE926000EEA22EECFBD
:102BE00014F0EFCF15F014500101121902E1155045
:102BF000131901E0B9D00A0EE66EE66AB1C1E6FF2C
:102C0000B2C1E6FF29CDE9FF2ACDEAFF140EEA02A0
:102C1000F3CFEAFFE902F3CFE9FFF450EA26000E12
:102C2000E926030EEA22E9CF14F0EACF15F014C02A
:102C3000E6FF15C0E6FF3BEC3CF0166E060EE15ECB
:102C40001650AFC1E9FFB0C1EAFFEECF14F0EFCFED
:102C500015F029CDE9FF2ACDEAFF140EEA02F3CFE1
:102C6000EAFFE902F3CFE9FFF450EA26000EE92675
:102C7000030EEA220A0EE926000EEA2214C0EEFF35
:102C800015C0EDFFAFC1E9FFB0C1EAFF040EE926B0
:102C9000000EEA22EECF14F0EECF15F0EECF16F0D4
:102CA000EFCF17F029CDE9FF2ACDEAFF140EEA0293
:102CB000F3CFEAFFE902F3CFE9FFF450EA26000E72
:102CC000E926030EEA220C0EE926000EEA2214C0C1
:102CD000EEFF15C0EEFF16C0EEFF17C0EEFFAFC14E
:102CE000E9FFB0C1EAFF020EE926000EEA22EECFAC
:102CF00014F0EFCF15F029CDE9FF2ACDEAFF140E2D
:102D0000EA02F3CFEAFFE902F3CFE9FFF450EA2643
:102D1000000EE926030EEA22100EE926000EEA2232
:102D200014C0EEFF15C0EDFFCEEC3FF006C014F06E
:102D300007C015F029CDE9FF2ACDEAFF140EEA02FB
:102D4000F3CFEAFFE902F3CFE9FFF450EA26000EE1
:102D5000E926030EEA22120EE926000EEA2214C02A
:102D6000EEFF15C0EDFF05D00D01252B1ED7000E7F
:102D700000D01200B3C1E9FFB4C1EAFFEECF56F3B1
:102D8000EDCF57F301EC2FF0F3CF14F0F4CF15F0A3
:102D9000B3C1E9FFB4C1EAFF14C0EEFF15C0EDFFF7
:102DA000B3C1E9FFB4C1EAFF020EE926000EEA2230
:102DB000EECF56F3EDCF57F301EC2FF0F3CF14F035
:102DC000F4CF15F0B3C1E9FFB4C1EAFF020E14C09D
:102DD000EBFF030E15C0EBFFB3C1E9FFB4C1EAFF7F
:102DE000040EE926000EEA22EECF58F3EECF59F397
:102DF000EECF5AF3EFCF5BF311EC2FF006C014F0D7
:102E000007C015F008C016F009C017F0B3C1E9FFFC
:102E1000B4C1EAFF040EE926000EEA2214C0EEFF58
:102E200015C0EEFF16C0EEFF17C0EEFFB3C1E9FFFD
:102E3000B4C1EAFF080EE926000EEA22EECF58F3ED
:102E4000EECF59F3EECF5AF3EFCF5BF311EC2FF047
:102E500006C014F007C015F008C016F009C017F03E
:102E6000B3C1E9FFB4C1EAFF080EE926000EEA2269
:102E700014C0EEFF15C0EEFF16C0EEFF17C0EEFF48
:102E8000B3C1E9FFB4C1EAFF0E0EE926000EEA2243
:102E9000EECF56F3EDCF57F301EC2FF0F3CF14F054
:102EA000F4CF15F0B3C1E9FFB4C1EAFF0E0E14C0B0
:102EB000EBFF0F0E15C0EBFFB3C1E9FFB4C1EAFF92
:102EC000100EE926000EEA22EECF56F3EDCF57F3AF
:102ED00001EC2FF0F3CF14F0F4CF15F0B3C1E9FFFC
:102EE000B4C1EAFF100E14C0EBFF110E15C0EBFFCA
:102EF000B3C1E9FFB4C1EAFF120EE926000EEA22CF
:102F0000EECF56F3EDCF57F301EC2FF0F3CF14F0E3
:102F1000F4CF15F0B3C1E9FFB4C1EAFF120E14C03B
:102F2000EBFF130E15C0EBFF12008DEC00F012C189
:102F300042F113C143F129C12FF12AC130F129C156
:102F400031F12AC132F12BC133F12CC134F12BC143
:102F500035F12CC136F101014051080B02E0040E9D
:102F600001D00D0E3F6F4091409340954099409B9A
:102F7000409D409F419141934195419741892491C2
:102F800024932497249929C10EF12AC10FF171ECE1
:102F90002BF0F3CF06F1F4CF07F171EC2BF0F3CF68
:102FA00008F1F4CF09F1010122692369010E146FC0
:102FB000156B12000C0E0001E86FE96BB0EC3AF0F3
:102FC0001CEC29F00D01256FF00E2515E840E840B6
:102FD0003F0B146E156A140E145E000E155A14C0C1
:102FE00025FD255105E1180EF36E020EF46E65D035
:102FF000070E0201D46FD56B0201D26BD36B30EC9C
:1030000029F00D0125512507000952E01CEC29F09B
:103010000D01266F265101E14BD0260501E1F1D7C4
:10302000020E265D2CE1030E255D01E241D0276BE7
:10303000286B1CEC29F00D01266F040E265D08E1BB
:103040001CEC29F00D01286F1CEC29F00D01276FF5
:10305000180E275D020E285901E22AD0B40ED8803E
:103060002755050E285506E2B40EF36E050EF46ED4
:1030700024D01DD027CDF3FF28CDF4FF1ED0020EA3
:10308000255D01E215D01CEC29F00D01266F2651BB
:10309000255D01E20DD026510201D46FD56B0201EE
:1030A000D26BD36B30EC29F00D012651255FA9D7E7
:1030B000180EF36E020EF46E00D01200B5C1E9FFD7
:1030C000B6C1EAFF0D0EE926000EEA22EFCF7FFD22
:1030D000B5C1E9FFB6C1EAFF080EE926000EEA22F3
:1030E000EECF80FDEECF81FDEECF82FDEFCF83FDF1
:1030F000B5C1E9FFB6C1EAFF040EE926000EEA22D7
:10310000EECF84FDEECF85FDEECF86FDEFCF87FDC0
:10311000010140914093409540B913D0BBEC3FF082
:1031200006C037F107C038F108C039F109C03AF1DB
:10313000E60E01013727F50E3823050E3923000E60
:103140003A233F51050A48E0010A08E0B7C188FD6B
:10315000B8C189FD0D017FA1CFD0CBD00D017FA5D6
:1031600003D0E3DE46EF20F07FA912D080CD06F138
:1031700081CD07F182CD08F183CD09F10101AE6B5C
:103180000101040EAD6F4AEC11F0CFDE46EF20F0E6
:103190007FA31FD084CD0AF185CD0BF186CD0CF134
:1031A00087CD0DF101010A2B000E0B230C230D23FB
:1031B00001DFF3CF25F1F4CF26F10101010EAE6F4F
:1031C0000101120EAD6F4AEC11F00101060E3F6FC6
:1031D00001D0ABDE46EF20F00D017FA502D046EF17
:1031E00020F07FA934D0800EE96E0D0EEA6EEE500D
:1031F0000101061909E1EE50071906E1EE50081920
:1032000003E1EE50091900E122E006C184FD07C187
:1032100085FD08C186FD09C187FD80CD06F181CD00
:1032200007F182CD08F183CD09F10101010EAE6FE6
:103230000101040EAD6F4AEC11F084CD06F185CD8D
:1032400007F186CD08F187CD09F146EF20F00D0199
:103250007FA34DD084CD0AF185CD0BF186CD0CF145
:1032600087CD0DF101010A2B000E0B230C230D233A
:10327000B5C1E9FFB6C1EAFF0E0EE926000EEA224B
:10328000EECF14F1EDCF15F195DEF3CF25F1F4CFAC
:1032900026F10D017FA920D00101010EAE6F0101C1
:1032A000100EAD6F4AEC11F00101070E3F6FBBEC41
:1032B0003FF006C037F107C038F108C039F109C046
:1032C0003AF1E60E01013727F50E3823050E3923B2
:1032D000000E3A2340990BD00101010EAE6F01019F
:1032E000120EAD6F4AEC11F00101060E3F6F46EF72
:1032F00020F0882B000E89237FA303D0882B000E9B
:10330000892301013551335D3651345914E32B5172
:103310002D5D146E2E512C55156E3551335D166E84
:1033200034513655176E0D011650145C7D6F1750D1
:1033300015587E6F0DD03351355D0D017D6F010144
:10334000345136590D017E6F010E7D5F000E7E5B9C
:103350000A0EE96E010EEA6EEE50845D776FEE5054
:103360008559786FEE508659796FEE5087597A6F8C
:1033700077CD7BFD78CD7CFD8A6B8851891101E189
:103380007BD07D517E1101E176D0800E7A1512E15D
:103390007DCD14F07ECD15F0166A176A1450775D56
:1033A000155078591650795917507A5903E2010E81
:1033B0008A6F3DD088CD14F089CD15F0166A176A52
:1033C000770EE96E0D0EEA6EEE501426EE501522C1
:1033D000EE501622EE5017221734000E171809E689
:1033E000D880000E1454000E1554000E1654000E12
:1033F00017541DE288517D5D186E7E518955196EF6
:103400001A6A1B6A19AE02D01A681B681B507A1917
:10341000E8AE02D07A3508D07751185C7851195847
:1034200079511A587A511B5802E3010E8A6F7DCDEB
:1034300014F07ECD15F0166A176A7A511718E8AEA7
:1034400002D0173408D01450775D155078591650B3
:10345000795917507A590FE27B518825186E7C51A3
:103460008921196E193404E218500008000E19540D
:1034700002E2010E8A6F1CD07751781179117A110E
:1034800003E1010E8A6F14D0800E7A1511E17DCD13
:1034900014F07ECD15F0166A176A1450775D15503A
:1034A00078591650795917507A5902E2010E8A6FED
:1034B0008A510CE17FB508D00101010EAE6F010108
:1034C000100EAD6F4AEC11F046EF20F0060E7F159E
:1034D00003E02BDD46EF20F07FB902D046EF20F06D
:1034E00001013F510C0A01E19CD20B0A40E00F0A96
:1034F0003EE0010A3CE0020A3AE0010A38E00C0A28
:1035000001E0ADD2800EE96E0D0EEA6EEE500619A6
:1035100009E1EE50071906E1EE50081903E1EE50FB
:10352000091900E122E006C184FD07C185FD08C13B
:1035300086FD09C187FD80CD06F181CD07F182CDE1
:1035400008F183CD09F10101010EAE6F0101040EF6
:10355000AD6F4AEC11F084CD06F185CD07F186CD33
:1035600008F187CD09F146EF20F0070E3F6F0E51AD
:103570002F5D0D01756F01010F5130590D01766FEF
:10358000800E76150CE0010129512B5D146E2C5133
:103590002A55156E14500D0175271550762375CDDB
:1035A00014F076CD15F0166A176A060EE96E010E54
:1035B000EA6EEE501424716FEE501520726FEE50CB
:1035C0001620736FEE501720746F710EE96E0D0E9A
:1035D000EA6EEE50805D716FEE508159726FEE5061
:1035E0008259736FEE508359746F7435000E7419DD
:1035F00009E6D880000E7155000E7255000E735505
:10360000000E74551DE201012451010B0AE0010E68
:103610000D01711905E1725103E1735101E174511A
:103620000AE00101AE6B0101100EAD6F4AEC11F022
:1036300046EF20F005D08007000E815B825B835B44
:10364000010131510E5D146E0F513255156E166A1F
:10365000176A15AE02D016681768060EE96E010EDD
:10366000EA6E1450EE5C0D01716F1550EE58726FDA
:103670001650EE58736F1750EE58746F01013151A8
:103680000E5D32510F5911E229512B5D146E2C51F0
:103690002A55156E166A176A14500D01715F155080
:1036A000725B1650735B1750745B710EE96E0D0EF2
:1036B000EA6EEE500D01805D716FEE508159726FB0
:1036C000EE508259736FEE508359746F7435000E4B
:1036D000741909E6D880000E7155000E7255000E5F
:1036E0007355000E745501E397D0010129512B5DEC
:1036F000146E2C512A55156E166A176A0D017151F8
:10370000145C72511558735116587451175801E2D0
:1037100083D0010124972499419131C175FD32C1B3
:1037200076FD0D017151010131270D017251010129
:1037300032230D01755101010E5D0D01765101011C
:103740000F591BE331510E5D32510F5915E20E51E5
:10375000315D146E32510F55156E00011450010188
:1037600006270001155001010723000E0823092335
:1037700031C10EF132C10FF12FD029512B5D146EE2
:103780002C512A55156E0E5114240D01756F01012F
:103790000F5115200D01766F010131510D01755D3D
:1037A000010132510D01765917E275510101315D68
:1037B000146E32510D017655156E00011450010141
:1037C00006270001155001010723000E08230923D5
:1037D00031C10EF132C10FF101012B51315D2C517C
:1037E00032590AE329512B5D146E2C512A55156E5E
:1037F0001450315F1550325B2B510E5D2C510F5917
:103800000AE329512B5D146E2C512A55156E145064
:103810000E5F15500F5B3FD001010E51311902E1CF
:103820000F51321938E024A735D024A932D03151B4
:103830000E5D146E0F513255156E166A176A15AE6D
:1038400002D0166817681450065F1550075B1650B3
:10385000085B1750095B31510E5D32510F5914E26C
:1038600029512B5D146E2C512A55156E166A176A54
:1038700015AE02D0166817681450065F1550075B26
:103880001650085B1750095B31C10EF132C10FF1C0
:103890004185248924872F51311902E13051321991
:1038A0002FE141B715D0BBEC3FF006C037F107C0A0
:1038B00038F108C039F109C03AF1E60E01013727A5
:1038C000F50E3823050E3923000E3A23409918D0FF
:1038D000060EE96E010EEA6EEE500D01801909E147
:1038E000EE50811906E1EE50821903E1EE50831982
:1038F00000E106E101012451010B02E040994197EA
:10390000800EE96E0D0EEA6EEE500101065D146E3A
:10391000EE500759156EEE500859166EEE500959C3
:10392000176EB5C1E9FFB6C1EAFF0E0EE926000E1B
:10393000EA220D011450EE5C8B6F1550EE588C6F1F
:1039400001011451151106E10D018B518C1102E09A
:10395000010141838BCD14F18CCD15F1080E0101CD
:103960003F5D2DE1060EE96E010EEA6EEE500D018F
:10397000801909E1EE50811906E1EE50821903E148
:10398000EE50831900E11AE101012451010B16E008
:10399000BBEC3FF006C037F107C038F108C039F181
:1039A00009C03AF1F30E01013727FA0E3823020E4F
:1039B0003923000E3A234089090E3F6F31D0090E9A
:1039C0003F5D16E10D017FB112D080CD06F181CDB2
:1039D00007F182CD08F183CD09F10101AE6B010140
:1039E000140EAD6F4AEC11F095EC17F04FD318D0D0
:1039F0000A0E3F5D15E1060EE96E010EEA6EEE500D
:103A00000D01801909E1EE50811906E1EE5082198D
:103A100003E1EE50831900E102E195EC17F036D393
:103A20001FD006C114F007C115F008C116F009C176
:103A300017F0142A000E15221622172214500D0119
:103A4000801909E11550811906E11650821903E128
:103A50001750831900E102E195EC17F017D300D05D
:103A60000D017FBB13D30B0E01013F5D01E10ED3AE
:103A70000A0E3F5D01E10AD30C0E3F5D01E106D362
:103A8000B751B81101E14ED20D017C3504E27B51F2
:103A90000008000E7C5501E2E8D0B5C1E9FFB6C1CF
:103AA000EAFF0C0EE926000EEA22EF50F00BE84286
:103AB000E842E842E842040DF350146E156A7B5167
:103AC000145C0001E86F0D017C5115580001E96F8D
:103AD000B0EC3AF00D017B510101B7270D017C518B
:103AE0000101B823B7510D017D5D0101B8510D01F0
:103AF0007E5904E27DCDB7F17ECDB8F10101B75119
:103B00000A27B8510B23000E0C230D233351B72580
:103B1000146E3451B821156E14502D5D15502E5968
:103B200046E233512D5D0D01756F010134512E595F
:103B30000D01766F010E7527000E762375CDC5F148
:103B400076CDC6F10101C46B0101C269C36944C1EC
:103B5000C1F133C1BFF134C1C0F1D0DB0D017551EA
:103B60000101B75D0101C56F0D0176510101B85921
:103B70000101C66F0101C46B0101C269C36944C17F
:103B8000C1F12BC1BFF12CC1C0F1B8DB0D017551E2
:103B90000101B75D146EB8510D017655156E010126
:103BA0002B511424336F2C511520346F15D0B7C10D
:103BB000C5F1B8C1C6F10101C46B0101C269C36995
:103BC00044C1C1F133C1BFF134C1C0F197DB010180
:103BD000B7513327B8513423221D01E1231D44E09E
:103BE000B751225FB851235B165122250D01756F25
:103BF0000101175123210D01766F800E761504E027
:103C000001012269236930D00101233504E22251E8
:103C10000008000E235528E30D01755101010A2704
:103C20000D01765101010B23000E0C230D230D0114
:103C30007551010133270D017651010134233351B0
:103C40002D5D34512E590EE22B512D5D146E2E51E7
:103C50002C55156E010E1426000E15221450335FDC
:103C60001550345B226923695DD17C3504E27B51B8
:103C70000008000E7C5501E355D10101B7510D013B
:103C80007B25146E0101B8510D017C21156E145075
:103C90007D5D15507E5909E27B517D5D0101B76F55
:103CA0000D017C517E590101B86FB5C1E9FFB6C164
:103CB000EAFF0C0EE926000EEA22EF50F00BE84274
:103CC000E842E842E842040DF3500001E86FE96B76
:103CD000B0EC3AF0010133510D017B25166E010164
:103CE00034510D017C21176E16500101B725146E59
:103CF0001750B821156E14502D5D15502E596EE2D7
:103D000033512D5D146E2E513455156E010E14264F
:103D1000000E15220D017B51145C756F7C511558F6
:103D2000766F800E761531E175CDC5F176CDC6F191
:103D30000101C46B0101C269C36944C1C1F1010140
:103D400033510D017B250101BF6F010134510D017C
:103D50007C210101C06FD2DA0D0175510101B75DFF
:103D60000101C56F0D0176510101B8590101C66FFE
:103D70000101C46B0101C269C36944C1C1F12BC116
:103D8000BFF12CC1C0F1BADA28D0B7C1C5F1B8C1B2
:103D9000C6F10101C46B0101C269C36944C1C1F12B
:103DA000010133510D017B25146E010134510D01C8
:103DB0007C21156E01012B512D5D166E2E512C5557
:103DC000176E010E1626000E172201011650145C04
:103DD000BF6F17501558C06F91DA18D0B7C1C5F131
:103DE000B8C1C6F10101C46B0101C269C36944C114
:103DF000C1F1010133510D017B250101BF6F0101AB
:103E000034510D017C210101C06F78DA0101221DBE
:103E100001E1231D09E17BCD22F17CCD23F1B7C166
:103E200016F1B8C117F17ED022510D017B5D010161
:103E300023510D017C593DE27B510101B725146EE0
:103E40000D017C510101B821156E22511625166E07
:103E500023511721176E1450165C155017580FE395
:103E60000D017B510101B725186E0D017C51010137
:103E7000B821196E2251185C2351195805E2B7C1B7
:103E800016F1B8C117F110D022511625146E235126
:103E90001721156E0D017B51145C0101166F0D0188
:103EA0007C5115580101176F7BCD22F17CCD23F198
:103EB00039D07B510101B725146E0D017C510101F0
:103EC000B821156E22511625166E23511721176E33
:103ED0001450165C1550175825E222511625146E01
:103EE00023511721156E0D017B51145C7C5115581F
:103EF00019E37B510101B725186E0D017C510101B9
:103F0000B821196E2251185C166E23511958176E7C
:103F10001651165C146E17511758156E145016274B
:103F2000155017230D018851891124E0070E010156
:103F30003F5D04E033C135F134C136F140AF0BD001
:103F40000101010EAE6F0101100EAD6F4AEC11F0D0
:103F50008DEC00F00FD0408F40BD0CD0408DCEECEA
:103F60003FF006C03DF107C03EF10F0E01013D27B5
:103F7000000E3E230D017FA189D00AC114F00BC1B0
:103F800015F00CC116F00DC117F0142A000E152201
:103F90001622172288CD18F089CD19F01A6A1B6AEB
:103FA000840EE96E0D0EEA6EEE501826EE501922C0
:103FB000EE501A22EE501B221450181809E1155029
:103FC000191806E116501A1803E117501B1800E1E2
:103FD0005DE101010A2B000E0B230C230D233F5141
:103FE000090A41E0010A1EE00F0A0EE0010A01E0A1
:103FF00044D00C0E3F6F0101010EAE6F0101110E96
:10400000AD6F4AEC11F042D00B0E3F6FCEEC3FF09B
:1040100006C03DF107C03EF11E0E01013D27000E16
:104020003E232CD0060EE96E010EEA6EEE500D0115
:10403000801909E1EE50811906E1EE50821903E181
:10404000EE50831900E10BE10101AE6B0101100E8E
:10405000AD6F4AEC11F095EC17F018D003D00101C8
:104060000A0E3F6F0BD00101AE6B0101100EAD6F58
:104070004AEC11F095EC17F009D000D00101010EC7
:10408000AE6F0101100EAD6F4AEC11F0120001018C
:10409000B951146E156A030E145C000E155802E334
:1040A000000E2BD1B9C145F146EC00F00101BA5127
:1040B000BB1103E1010EBA6FBB6B29512D5D0D01E0
:1040C000006F01012A512E590D01016F010E005F91
:1040D000000E015B0101BA51BC25146EBB51BD211C
:1040E000156E0D011450005D1550015902E2000ECD
:1040F00004D18DEC00F0030E0101BE1502E1030EA8
:10410000BE13BCC104FDBDC105FDBA51BC25146E72
:10411000BB51BD21156E14500D01005F1550015BA0
:104120000101BEA314D0BEA10DD000CD14F001CD6D
:1041300015F0D8901532143214500D010427155083
:10414000052305D00D01005104270151052301016C
:1041500029510D010425006F01012A510D0105218E
:10416000016F010E0027000E012333C102FD34C18F
:1041700003FD0101221D01E1231D22E0225116252C
:10418000146E23511721156E14500D01022715507E
:104190000323025101012D5D0D01035101012E592F
:1041A0000FE22B512D5D146E2E512C55156E010E04
:1041B0001426000E152214500D01025F1550035BEA
:1041C0000D0102510101355D0D0103510101365907
:1041D00017E20D0100510101355D0D010151010191
:1041E00036590DE2BEA503D0000E87D008D000CD11
:1041F00035F101CD36F100CD33F101CD34F126D0CA
:1042000035510D01025D010136510D01035916E2D0
:10421000005101012B5D0D01015101012C590DE2ED
:10422000BEA503D0000E69D008D000CD35F101CD78
:1042300036F100CD33F101CD34F108D000CD35F1A8
:1042400001CD36F100CD33F101CD34F1010135510D
:104250000D01025D010136510D01035930E2040EDA
:104260000101BE152CE02B510D01025D0101C56F4E
:1042700001012C510D0103590101C66F44C1C4F164
:104280002BC1C2F12CC1C3F144C1C1F100CDBFF1BA
:1042900001CDC0F133D801013551335D3651345968
:1042A0000EE20D01005101012B5D146E2C510D0128
:1042B0000155156E14500101335F1550345B00CD6C
:1042C0002BF101CD2CF129C10EF12AC10FF129C129
:1042D00031F12AC132F129C12FF12AC130F1070E83
:1042E00001013F5D08E10101010EAE6F0101100EF9
:1042F000AD6F4AEC11F0010E00D012000101C45163
:1043000031E0010A01E05DD0C15116E0010A01E08F
:1043100028D0C5C1E6FFC6C1E6FFC2C1E6FFC3C1E2
:10432000E6FFBFC1E6FFC0C1E6FF3BEC3CF0146E08
:10433000060EE15E145015D0BF1D01E1C01D06E060
:10434000BFC1C2F2C0C1C3F27FEC26F0C5C1D9F231
:10435000C6C1DAF2C2C1D7F2C3C1D8F280EC29F0EB
:1043600000D02FD0C15118E0010A01E029D0C21DB0
:1043700001E1C31D06E0C2C1C4F2C3C1C5F29FEC96
:1043800026F0C5C1D4F2C6C1D5F2BFC1D2F2C0C1B8
:10439000D3F230EC29F014D0C5C1D0F2C6C1D1F2AD
:1043A000C2C1CEF2C3C1CFF2BFC1CCF2C0C1CDF207
:1043B000AFEC27F00FEC29F0000901E1FBD700D0AA
:1043C00000D012000101C95118E0010A01E069D0D2
:1043D000CDC1E6FFCEC1E6FFCAC1E6FFCBC1E6FF15
:1043E000CCC1E6FFC7C1E6FFC8C1E6FF66EC3CF002
:1043F000146E070EE15E145054D0C71D01E1C81DB4
:1044000006E0C7C1C2F2C8C1C3F27FEC26F0100EAD
:104410000D01106F116B0101CD51CE1141E00D0165
:1044200010510101CD5D0D0111510101CE5904E280
:10443000CDC110FDCEC111FD10CDE6FF11CDE6FFBF
:10444000CAC1E6FFCBC1E6FFCCC1E6FF000EE66EB7
:104450000D0EE66E66EC3CF0146E070EE15E145035
:1044600010CDD9F211CDDAF20201000ED76F0D0E88
:10447000D86F80EC29F010CD14F011CD15F0166A2C
:1044800014500101CA271550CB231650CC230D011F
:1044900010510101CD5F0D0111510101CE5BBBD760
:0444A00000D0120036
:0C44A4008C8695969496949A94888C844B
:1044B00095949E96200EC66EC78CC79EC4EC29F0BC
:1044C00002011D0EE06FFFEC29F0146E14C005FD13
:1044D000080E0D010515F2E1051D010BEFE10201CA
:1044E000010EB56FB16BB26B0201E46B0201080EF5
:1044F000E36F72EC2AF00201E46B0201090EE36F34
:1045000072EC2AF00201CD0EE46F02010C0EE36F93
:1045100072EC2AF002010A0EE46F02010D0EE36F45
:1045200072EC2AF00201CD0EE46F02010A0EE36F75
:1045300072EC2AF002010A0EE46F02010B0EE36F27
:1045400072EC2AF00201CE0EE46F0201040EE36F5A
:1045500072EC2AF002010A0EE46F0201050EE36F0D
:1045600072EC2AF00201CE0EE46F0201020EE36F3C
:1045700072EC2AF002010A0EE46F0201030EE36FEF
:1045800072EC2AF00201D66B6EEC29F00201EC6BA2
:10459000020EED6FD9EC2AF002010D0EE46F02015C
:1045A000E36B72EC2AF00201320EE46F0201020E9C
:1045B000E36F72EC2AF00201120EE46F0201040EA6
:1045C000E36F72EC2AF00201400EE46F0201030E69
:1045D000E36F72EC2AF002013F0EE46F0201090E54
:1045E000E36F72EC2AF00201120EE46F0201060E74
:1045F000E36F72EC2AF002010C0EE46F0201070E69
:10460000E36F72EC2AF00201EE0EE46F02010A0E73
:10461000E36F72EC2AF00201050EE46F02010B0E4B
:10462000E36F72EC2AF00201040EEC6F030EED6FE3
:10463000D9EC2AF095C2E4F20201040EE36F72ECA9
:104640002AF096C2E4F20201050EE36F72EC2AF042
:1046500097C2E4F20201020EE36F72EC2AF098C2F4
:10466000E4F20201030EE36F72EC2AF099C2E4F265
:104670000201E36B72EC2AF09AC2E4F20201010E2D
:10468000E36F72EC2AF00201E46B0201150EE36F96
:1046900072EC2AF00201120EE06FFFEC29F0146EAA
:1046A00014C0B6F20201EA6B010EEB6F0201100EAC
:1046B000E96FAEEC2AF00201720EEA6F340EEB6F76
:1046C0000201140EE96FAEEC2AF00201EA6BEB6B0B
:1046D0000201E96BAEEC2AF00201EC6BED6BD9EC58
:1046E0002AF00201040EE86F02011F0EE76F9AEF35
:1046F0002AF00201010EE26F2DEC2AF0F3CF14F044
:10470000F4CF15F000011450040B01E0010E00D0AD
:10471000120002011F0EE06FFFEC29F0146E000181
:104720001450080B080A01E0010E00D0120002012B
:10473000B55101E034D0010EB56FB1C225FDB2C252
:1047400026FD0D01255F000E265B25CD14F026CD3C
:1047500015F0166A176AD880CD0E14540A0E155437
:10476000000E1654000E175404E2CD0E256F0A0EEB
:10477000266F0201400EE86F02011E0EE76F9AECF1
:104780002AF025CDE4F202010C0EE36F72EC2AF060
:1047900026CDE4F202010D0EE36F72EC2AF0120056
:1047A0000201190EEC6F010EED6FD9EC2AF0020137
:1047B000190EE06FFFEC29F0146E14C053FD0E0EBD
:1047C0000201EC6FED6BD9EC2AF002010E0EE06FE6
:1047D000FFEC29F0146E14C055FD02010F0EE06FBE
:1047E000FFEC29F0146E14C056FD0201190EEC6F97
:1047F000010EED6FD9EC2AF00201190EE06FFFEC0B
:1048000029F0146E0D0153510001145CD0E10C0E1F
:104810000201EC6FED6BD9EC2AF002010C0EE06F97
:10482000FFEC29F0146E14C053FD02010D0EE06F71
:10483000FFEC29F0146E14C054FD0D015551535D69
:104840005651545920E2CD0E186E0A0E196E1A6A8E
:104850001B6A5351555D1C6E565154551D6E1E6A90
:104860001F6A1C50185C146E1D501958156E1E508E
:104870001A58166E1F501B58176E14C0F3FF15C040
:10488000F4FF1BD01AD05351551902E15451561957
:1048900006E1CD0EF36E0A0EF46E0FD00ED0555118
:1048A000535D146E54515655156E1406000E155A6C
:1048B00014C0F3FF15C0F4FF00D012000201190E5E
:1048C000EC6F010EED6FD9EC2AF00201190EE06FCA
:1048D000FFEC29F0146E14C014FD0201EC6BED6BBB
:1048E000D9EC2AF00D01145102E1000E8FD0020123
:1048F000B55103E11CDF000E89D0B1C2B3F2B2C2E0
:10490000B4F2B3C2E4F20201E36B72EC2AF0B4C277
:10491000E4F20201010EE36F72EC2AF0140E0201C0
:10492000D46FD56B0201000ED26F0D0ED36F30EC39
:1049300029F012CD56F313CD57F301EC2FF0F3CF3E
:1049400012FDF4CF13FD00CD14F001CD15F0166A61
:10495000176AD880CD0E14540A0E1554000E165442
:10496000000E17541BE30D010D010051010B16E160
:104970000D010D010551800B11E10D010D010451D7
:10498000100B0CE10D01EE0ED8800255050E0355FB
:1049900005E30D010D010451800B01E1FF0000CD85
:1049A000B1F201CDB2F2060EE66EE66A0C0EE66ECC
:1049B0000D0EE66EB7C2E9FFB8C2EAFFE9CF14F008
:1049C000EACF15F014C0E6FF15C0E6FF3BEC3CF063
:1049D000166E060EE15E1650B9C2E9FFBAC2EAFFD2
:1049E000EF68080E0D01135D0DE10D01125104E099
:1049F000060E0D01125D06E1B9C2E9FFBAC2EAFF77
:104A000012CDEFFF0201B56B010E00D012000201C2
:104A1000CF0EE46F0201020EE36F72EC2AF0020186
:104A20000A0EE46F0201030EE36F72EC2AF0DC0E53
:104A30000201BE270A0EBF23BEC2E4F20201060E27
:104A4000E36F72EC2AF0BFC2E4F20201070EE36FDB
:104A500072EC2AF0060E0201D96FDA6BBBC2D7F2F4
:104A6000BCC2D8F280EC29F0060E0201D96FDA6BD5
:104A70000201950ED76F020ED86F80EC29F002016B
:104A8000080ED66F6EEC29F00201BD5102E1000E56
:104A900001D0060E0201D66F6EEF29F00201800EE2
:104AA000E86F02011F0EE76F9AEC2AF00201800EF8
:104AB000E66F02011F0EE56F86EC2AF002010A0E76
:104AC000E66F02011C0EE56F86EC2AF00201080E6B
:104AD000E86F02011F0EE76F9AEC2AF0050E020143
:104AE000B65D04E0060EB65D01E0D7D00D01536B54
:104AF000546B02011C0EE06FFFEC29F0146E0A0EDD
:104B0000000114140AE10D01532B000E5423E80E8A
:104B1000535D030E545901E2ECD702011C0EE06F05
:104B2000FFEC29F0146E00011450020B07E10D0197
:104B3000E80E535D030E545901E2AFD00201080E96
:104B4000E66F02011F0EE56F86EC2AF00201E06BB2
:104B5000FFEC29F0146E14C055FD0201010EE06F48
:104B6000FFEC29F0146E14C056FD0201060EE06F32
:104B7000FFEC29F0146E14C057FD0201070EE06F20
:104B8000FFEC29F0146E14C058FD0D01572B000ED8
:104B9000582357CDE4F20201E36B72EC2AF058CDB2
:104BA000E4F20201010EE36F72EC2AF0070E02013B
:104BB000D46FD56B0201590ED26F0D0ED36F50DB3F
:104BC0000D01606B100E605D5BE202011C0EE06F78
:104BD000FFEC29F0146E00011450020B50E00D019F
:104BE0005C51200B4CE00201800EE86F02011F0EA9
:104BF000E76F9AEC2AF00201800EE66F02011F0EA9
:104C0000E56F86EC2AF002010A0EE66F02011C0E27
:104C1000E56F86EC2AF00201080EE86F02011F0E14
:104C2000E76F9AEC2AF002011C0EE06FE8DB146ECD
:104C30000A0E0001141401E1F6D70201080EE66F16
:104C400002011F0EE56F86EC2AF057CDE4F2020157
:104C5000E36B72EC2AF058CDE4F20201010EE36F2F
:104C600072EC2AF0070E0201D46FD56B0201590EC7
:104C7000D26F0D0ED36FF4DA0D01602BA3D700D0E5
:104C800055CDE4F20201E36B72EC2AF056CDE4F26A
:104C90000201010EE36F72EC2AF01200140E020101
:104CA000156AB325146EB45115221450C0250D0198
:104CB000296F15500201C1210D012A6F29CD14F071
:104CC0002ACD15F0166A176AD880CD0E14540A0E34
:104CD0001554000E1654000E175404E2CE0E295F30
:104CE0000A0E2A5B29CDE4F20201E36B72EC2AF092
:104CF0002ACDE4F20201010EE36F72EF2AF0020105
:104D0000020EE06F7CDB146E14C053FD0201030E33
:104D1000E06F75DB146E14C054FDC2C2E4F20201F0
:104D2000020EE36FDFDBC3C2E4F20201030EE36FA6
:104D3000D9DB53CDF3FF54CDF4FF00D012000201B4
:104D4000E06B5DDB146E14C053FD0201010EE06FD9
:104D500056DB146E14C054FDC4C2E4F20201E36BCE
:104D6000C1DBC5C2E4F20201010EE36FBBDB53CD30
:104D7000F3FF54CDF4FF00D01200140E0201156AA7
:104D8000B325146EB45115221450C6250D01166FAB
:104D900015500201C7210D01176F16CD14F017CD64
:104DA00015F0166A176AD880CD0E14540A0E1554E1
:104DB000000E1654000E175404E2CE0E165F0A0EB3
:104DC000175B0201E06B1BDB146E14C018FD0201BF
:104DD000010EE06F14DB146E14C019FD16CDE4F261
:104DE0000201E36B7FDB17CDE4F20201010EE36FFA
:104DF00079DBC8C2CAF2C9C2CBF215D8F3CF16FD0F
:104E0000F4CF17FD18CDE4F20201E36B6BDB19CD93
:104E1000E4F20201010EE36F65DB16CDF3FF17CD5F
:104E2000F4FF00D012000D01556B566B576B586B99
:104E30000201E06BE4DA146E14C053FD0201010EAE
:104E4000E06FDDDA146E14C054FD0201CA51CB11BB
:104E500052E0140ED880CA55000ECB5505E20D0164
:104E6000140E596F5A6B04D0CAC259FDCBC25AFDF9
:104E700059CDD4F25ACDD5F202015B0ED26F0D0E90
:104E8000D36FEED90D0159510201CA5F0D015A517C
:104E90000201CB5B0D0159A10AD05B0E5925E96EC9
:104EA0000D0E5A21EA6EEF6A592B000E5A235B0E43
:104EB0006F6F0D0E706F59515A111CE06FCDE9FFE5
:104EC00070CDEAFF020E6F27000E7023EECF14F0B4
:104ED000EFCF15F0000114500D01552700011550BA
:104EE0000D015623000E57235823020E595F000E62
:104EF0005A5BE1D7AAD753CDE4F20201E36BF2DAB1
:104F000054CDE4F20201010EE36FECDA55CD14F05A
:104F100056CD15F0166A176A57CD18F058CD19F00E
:104F20001A6A1B6A145018240D01556F1550192068
:104F3000566F16501A20576F17501B20586F575135
:104F400055275851562355CD14F056CD15F0141E43
:104F5000151E14C0F3FF15C0F4FF00D012000D01A0
:104F6000536B546B556B566B576B586B0201CC1DD2
:104F700001E1CD1D14E10D01010E576F0201020E7A
:104F8000E06F3DDA146E000114500201CC6FCD6B5E
:104F90000201030EE06F33DA146E14C0CDF2020189
:104FA000CE1D01E1CF1D13E10D01010E586F02016D
:104FB000E06B25DA146E000114500201CE6FCF6B46
:104FC0000201010EE06F1BDA146E14C0CFF2020171
:104FD000010ED880D055000ED15566E30D01585111
:104FE0000DE10201E06B0BDA146E14C053FD0201F7
:104FF000010EE06F04DA146E14C054FD0D01575118
:105000000EE10201020EE06FFAD9146E14C055FDD4
:105010000201030EE06FF3D9146E14C056FDCEC228
:10502000E4F20201E36B5EDACFC2E4F20201010EA8
:10503000E36F58DACCC2E4F20201020EE36F52DAF7
:10504000CDC2E4F20201030EE36F4CDA0201D0C2DA
:1050500014F0D1C215F0D007000ED15B145015101A
:1050600005E0EAD80201D66F39D9F0D70D015851C1
:105070000BE153CDE4F20201E36B34DA54CDE4F2F8
:105080000201010EE36F2EDA0D0157510CE155CDEF
:10509000E4F20201020EE36F25DA56CDE4F20201DA
:1050A000030EE36F1FDABAD00D01575116E002016B
:1050B000CC51D0250D01556F0201CD51D1210D01EB
:1050C000566F55CDE4F20201020EE36F0BDA56CDB6
:1050D000E4F20201030EE36F05DACEC214F0CFC290
:1050E00015F01406000E155A14500201D027155061
:1050F000D12302011F0EE06F82D9146E000114BA91
:10510000F8D7CEC2E4F20201100EE36FEBD9CFC2A2
:10511000E4F20201110EE36FE5D9CCC2E4F2020120
:10512000140EE36FDFD9CDC2E4F20201150EE36F76
:10513000D9D9CEC214F0CFC215F0166A176AD8803A
:10514000CD0E14540A0E1554000E1654000E1754AA
:1051500015E3D0C218F0D1C219F01A6A1B6AD880C0
:10516000CD0E18540A0E1954000E1A54000E1B547A
:1051700005E2CE0E0201D05F0A0ED15BD0C2E4F28E
:105180000201120EE36FAED9D1C2E4F20201130E96
:10519000E36FA8D90201100EE66F02011F0EE56F42
:1051A000B5D90201200EE86F02011F0EE76FC2D9C8
:1051B0000D01585133E00201D02B000ED123CEC295
:1051C00014F0CFC215F0166A176AD880CD0E1454A9
:1051D0000A0E1554000E1654000E175414E3D0C2D4
:1051E00018F0D1C219F01A6A1B6AD880CD0E185473
:1051F0000A0E1954000E1A54000E1B5404E2CE0E6F
:10520000D05F0A0ED15BD0C2E4F20201E36B6AD92F
:10521000D1C2E4F20201010EE36F64D9120002016F
:105220001F0EE06FECD8146E00011450200B200A02
:1052300001E0010E00D012008C969E963A0EC96EC7
:105240009EA6FED79E96C9CF59FDC96A9EA6FED7D7
:105250009E96C9CF59FD8C860D01595100D0120080
:105260008C969E963A0EC96E0D01956B966B020157
:10527000D251D31103E0D207000ED35B9EA6FED716
:105280009E96C9CF97FD0201D4510D01955D020193
:10529000D5510D0196591BE2C96A952B000E962334
:1052A0000201D251D3110DE0D22B000ED3239EA6C2
:1052B000FED79E96C950D2C2E9FFD3C2EAFFEF6E75
:1052C00005D09EA6FED79E96C9CF97FDDCD78C86CB
:1052D00095CDF3FF96CDF4FF00D012008C969E96EC
:1052E0007A0EC96E9EA6FED79E96C9CF67FDD6C21E
:1052F000C9FF9EA6FED79E96C9CF67FD8C86120079
:105300008C969E967A0EC96E9EA6FED79E96C9CFA3
:1053100067FD0201D951DA1111E0D7C2E9FFD8C205
:10532000EAFFEF50C96ED72B000ED823D907DA5BFE
:105330009EA6FED79E96C9CF67FDEBD78C8612003E
:105340008C969E967A0EC96E9EA6FED79E96C9CF63
:1053500000FD0201DE51DF1115E0DBC2F6FFDCC209
:10536000F7FFDDC2F8FF0800F550C96EDB2B000E19
:10537000DC23DD23DE07DF5B9EA6FED79E96C9CF2A
:1053800000FDE7D78C8612000201200EE66F0201B5
:105390001E0EE56FBBD8010E0D01016F026B0D01F2
:1053A00001CD14F002CD15F00107000E025B145080
:1053B000151006E00A0EE66E6FEC41F0E552EFD7ED
:1053C0008C969E96C9689EA6FED79E96C9CF00FD74
:1053D0008C86010E0D01036F046B0D0103CD14F0DB
:1053E00004CD15F00307000E045B1450151006E001
:1053F0000A0EE66E6FEC41F0E552EFD712008C9684
:105400009E96E0C2C9FF9EA6FED79E96C9CF95FD87
:10541000C96A9EA6FED79E96C9CF95FD8C860D01C2
:10542000955100D012008C969E96E1C2C9FF9EA6AF
:10543000FED79E96C9CF02FDC96A9EA6FED79E964C
:10544000C9CF02FDC96A9EA6FED79E96C9CF02FDAE
:105450008C860D01025100D012000201140EEC6F77
:10546000020EED6FA6D8E2C2E4F20201140EE36F61
:1054700039D80201010EE46F0201120EE36F32D837
:1054800002010A0EEC6F030EED6F93D802010A0EB3
:10549000E16FC9DF146E000114B0F8D70201140ED9
:1054A000EC6F020EED6F85D80201E46B0201120E63
:1054B000E36F18D80201180EE16FB5DF146E14C047
:1054C00000FD0201190EE16FAEDF146E14C001FD84
:1054D0000201EC6BED6B6DD800CDF3FF01CDF4FF55
:1054E00000D012008C969E96400E0201E311C96E08
:1054F0009EA6FED79E96C9CF95FDE4C2C9FF9EA683
:10550000FED79E96C9CF95FD8C8612008C969E96EE
:10551000A00E0201E511C96E9EA6FED79E96C9CFC8
:1055200061FDE6C2C9FF9EA6FED79E96C9CF61FD6A
:105530008C8612008C969E96800E0201E711C96E31
:105540009EA6FED79E96C9CF61FDE8C2C9FF9EA662
:10555000FED79E96C9CF61FD8C8612000201140E03
:10556000EC6F020EED6F25D8E9C2E4F20201140ED1
:10557000E36FB8DFEAC2E4F20201160EE36FB2DFB6
:10558000EBC2E4F20201170EE36FACDF02010A0E78
:10559000EC6F030EED6F0DD802010A0EE16F43DFD1
:1055A000146E000114B0F8D70201EC6BED6BD9EF6B
:1055B0002AF00201030EE66F02011F0EE56FA6DF5F
:1055C000EDC2E8F202011F0EE76F9AEF2AF0020126
:1055D000040EE66F02011F0EE56F98DF02011D0E3B
:1055E000E06F0DDF146E000114B4F8D702011F0E36
:1055F000E06F05DF146E000114B6F8D70201200E2B
:10560000E86F02011E0EE76F9AEF2AF00201200EEA
:10561000E66F02011E0EE56F79DF02011D0EE06FDD
:10562000EEDE146E000114A0F8D70201040EE86F3C
:1056300002011F0EE76F9AEF2AF00201150EEC6FC0
:10564000030EED6FB6DFEEC2E4F20201150EE36F5A
:1056500049DF0201EC6BED6BD9EF2AF00201150E68
:10566000EC6F030EED6FA5DF0201150EE06FC7DED4
:10567000146E14C000FD0201EC6BED6B9ADF0D019E
:06568000005100D01200F1
:0A5686007AC31FFD7BC320FD7CC327
:1056900021FD7DC322FD03013C513D113E113F110F
:1056A00005E1010E3C6F3D6B3E6B3F6B3CC37AF3F3
:1056B0003DC37BF33EC37CF33FC37DF30D01236BFE
:1056C000100E235D04E20DD80D01232BF9D71FCD59
:1056D00006F020CD07F021CD08F022CD09F000D052
:1056E00012000D012B6B0F0E2B5D38E27AC314F004
:1056F0007BC315F07CC316F07DC317F0D89017322A
:105700001632153214327AC318F07BC319F07CC3F9
:105710001AF07DC31BF0010E1816196A1A6A1B6A6B
:10572000000E186C191E19221A1E1A221B1E1B228B
:10573000010E1816196A1A6AD00E1B161450181882
:1057400003017A6F155019187B6F16501A187C6F69
:1057500017501B187D6F0D012B2BC5D77AC3F3FF94
:105760007BC3F4FF00D01200C2CF0FFDC0CF10FDED
:10577000D5CF11FDD6CF13FDD7CF12FD010EC26ECE
:105780003F0EC06E880ED56E0D01006B0D01076BCC
:10579000086B096B0A6B0D01056B066BA2DFF3CF7B
:1057A0000BFDF4CF0CFD0D010D6B0E6BD76AD66AA5
:1057B000C2820400C2B2FED7D6CF03FDD7CF04FD0C
:1057C00090DFF3CF01FDF4CF02FD0D0103510D0178
:1057D00007270D0104510D010823000E09230A2398
:1057E000800E0D01075D960E0859980E0959000E9E
:1057F0000A590FE376DFF3500D010B1BF4500D0136
:105800000C1B6FDFF3500D010D1BF4500D010E1B2F
:1058100039D00D0103510D01051904E10D010451A9
:105820000D01061901E1C2D70D0103510D01055DFE
:10583000146E06510D010455156E0D010D01015137
:10584000142403013C6F0D010D01025115200301C9
:105850003D6F03013E6B3F6B16DF03CD05FD04CDAD
:1058600006FD0D01D8900B370C370D370E3739DF99
:10587000F350800B02E00D010B810D01002B01E1C3
:1058800001D094D70FCDC2FF10CDC0FF12CDD7FFEE
:1058900013CDD6FF11CDD5FF0BCD06F00CCD07F003
:1058A0000DCD08F00ECD09F000D012000D01226BD5
:1058B000236B1D6B1E6B1F6B206B030140C3E9FF45
:1058C00041C3EAFF402B000E4123EFCF21FDEF50F3
:1058D00001E18CD00D012351030801E287D0300E85
:1058E000215F225106E12151090802E2000EB8D0E1
:1058F00071D0030E225D36E1FE0E215D02E0000E46
:10590000AFD0D880050E1D55050E1E55020E1F5531
:10591000000E205502E2000EA3D00A0E1E03F3CFA4
:1059200016F0640E1F03F35016241D25E66E42C3C5
:10593000E9FF43C3EAFFE9CF14F0EACF15F02351A2
:10594000232B0F011424E96E000E1520EA6EE55298
:10595000E750EF6E0D01226B1D6B1E6B1F6B206BF2
:10596000ACD738D0FE0E215D30E1D880050E1D5534
:10597000050E1E55020E1F55000E205502E2000EA8
:105980006FD00A0E1E03F3CF16F0640E1F03F35000
:1059900016241D25E66E42C3E9FF43C3EAFFE9CFA3
:1059A00014F0EACF15F02351232B0F011424E96ED4
:1059B000000E1520EA6EE552E750EF6E0D01226BE6
:1059C0001D6B1E6B1F6B206B78D72151090802E2FB
:1059D000000E46D00D01222B1FCD20FD1ECD1FFD38
:1059E0001DCD1EFD1D6B21CD1DFD67D70D01215164
:1059F00014E02F0E215D11E00D0E215D0EE00A0E68
:105A0000215D0BE0200E215D08E0090E215D05E01F
:105A10003A0E215D02E0000E23D0D880050E1D5500
:105A2000050E1E55020E1F55000E205502E2000EF7
:105A300017D00A0E1E03F3CF14F0640E1F03F350A9
:105A400014241D25E66E42C3E9FF43C3EAFF030E9B
:105A5000E926000EEA22E552E750EF6E010E00D073
:105A600012000D01056B066B006B016B026B036B83
:105A7000030144C3F6FF442B45C3F7FF000E452343
:105A800046C3F8FF46230800F5CF04FDF55001E1B9
:105A90008CD00D010651030801E287D0300E045F5F
:105AA000055106E10451090802E2000EB5D071D09B
