:020000040000FA
:060000009FEF50F012001A
:020006001200E6
:06000800BEEF45F01200FE
:02000E000004EC
:04001000A300000049
:02001400FFFFEC
:02001600FEFEEC
:0600180061EF45F012004B
:02001E000C00D4
:10002000F5A10000B104000001000000F2A10000F1
:10003000A604000003000000F1A10000B0040000CD
:1000400001000000EDA10000A20400000400000077
:10005000EBA10000AB0400000200000083A100003F
:1000600000030000680000007BA100009204000073
:100070000800000071A10000880400000A000000D0
:1000800070A10000AF040000010000001600000095
:10009000A9040000020000006CA100009E04000002
:1000A0000400000014000000FE0300000200000035
:1000B000020145510401A95D01E140D0FE0EA95D98
:1000C0001BE01C0EE66EE66A290EE66E020EE66E78
:1000D000A9511C0DF3CF14F0F4CF15F0000E142627
:1000E0000F0E152214C0E6FF15C0E6FF11EC4CF010
:1000F000166E060EE15E165045C2A9F4FE0E020110
:10010000455D01E11BD01C0EE66EE66A45511C0DF3
:10011000F3CF14F0F4CF15F0000E14260F0E1522B5
:1001200014C0E6FF15C0E6FF290EE66E020EE66E6D
:1001300011EC4CF0166E060EE15E16501200040132
:10014000A951AA5D01E14FD0FE0EAA5D32E0270E53
:100150000201C56FC66B0201010EC46F0201020EDF
:10016000C26F020EC36F0401AA511C0DF3CFE9FF49
:10017000F4CFEAFF000EE9260F0EEA221B0EE92655
:10018000000EEA22EFCFC1F2AA511C0DF3CFE9FF16
:10019000F4CFEAFF000EE9260F0EEA22EECFBFF2FF
:1001A000EFCFC0F20201270EBF5F000EC05B1AEC5A
:1001B00022F0A9C4AAF4270E0201C56FC66B44C27F
:1001C000C4F229C2C2F22AC2C3F20201C25F000E07
:1001D000C35B0201010EC16F0201020EBF6F020E6E
:1001E000C06F1AEC22F012000D01C00E1D6F100E30
:1001F0001E6F0201005101110FE1EDEC33F006C05A
:1002000000F207C001F2FF0E02010017070E0117EE
:10021000000E0027040E01233C0EE66EE66AE66A35
:10022000000EE66E040EE66E5FEC4CF0146E050EEA
:10023000E15E14500D01156B146B1451146E156AA8
:10024000030E145C000E155801E326D114CD45F2BF
:100250002FDF5A0E146EA10E156E000E166E14CD01
:1002600017F0186A196A060E0C6E0D6A0E6A17C02E
:1002700007F018C008F019C009F0ADEC4FF004C049
:1002800017F005C018F006C019F014501724F36ECB
:1002900015501820F46E16501920F86EF4CFF7FFA1
:1002A000F3CFF6FFF62A000EF722F8220800F5CF6A
:1002B0001CFD5A0E146EA10E156E000E166E14CD96
:1002C00017F0186A196A060E0C6E0D6A0E6A17C0CE
:1002D00007F018C008F019C009F0ADEC4FF004C0E9
:1002E00017F005C018F006C019F014501724F36E6B
:1002F00015501820F46E16501920F86EF4CFF7FF41
:10030000F3CFF6FF020EF626000EF722F8220900C0
:10031000F5CF16FD0A00F5CF17FD5A0E146EA10E8B
:10032000156E000E166E14CD17F0186A196A060EB7
:100330000C6E0D6A0E6A17C007F018C008F019C0DD
:1003400009F0ADEC4FF004C017F005C018F006C07E
:1003500019F014501724F36E15501820F46E16502F
:100360001920F86EF4CFF7FFF3CFF6FF040EF62650
:10037000000EF722F8220900F5CF18FD0A00F5CF8C
:1003800019FD0D011C5101E086D01DCD1AFD1ECDB9
:100390001BFD270E176A1625166E17511722010E20
:1003A0001626000E172216501825146E1750192104
:1003B000156E010E1426000E152214501D2715501F
:1003C0001E231DCD14F01ECD15F0166A176AD880B5
:1003D000FC0E14541F0E1554000E1654000E175424
:1003E00001E2EFD71CCD44F2270E0D011A250201C0
:1003F000296F000E0D011B2102012A6F29510D01E9
:10040000162502012B6F2A510D01172102012C6FB5
:10041000010E2B27000E2C232B510D011825020154
:100420002D6F2C510D01192102012E6F0D0E3F6F02
:10043000409785DE5A0E146EA10E156E000E166ED4
:1004400014CD17F0186A196A060E0C6E0D6A0E6A42
:1004500017C007F018C008F019C009F0ADEC4FF054
:1004600004C017F005C018F006C019F01450172486
:10047000F36E15501820F46E16501920F86EF4CF54
:10048000F7FFF3CFF6FF0800F5CF28F231EC18F0B4
:100490000D01142BD2D6FFD712000D01716B7151D3
:1004A000146E156A030E145C000E155801E3CAD0D1
:1004B00071CD45F2FDDD0D0E02013F5D01E0BFD0C3
:1004C0003EDE02014D51285D01E0B9D0180E256FC6
:1004D000020E266F4A510CE14BC212F24CC213F2CB
:1004E0004087040E3F6F4BC242F24CC243F2A4D08D
:1004F000000E005D040E015906E3880ED8800055F9
:10050000130E015503E2006B040E016F00C212F2DC
:1005100001C213F2002B000E01234BC210F24CC299
:1005200011F2CBEC4EF006C037F207C038F208C02B
:1005300039F209C03AF2020140894A51040A3DE009
:10054000070A18E0020A03E0030A01E075D046C278
:1005500018F247C219F248C21AF249C21BF2020E3F
:100560004A5D02E0000E01D0010E2495E8B024851A
:100570003F6B62D048514625166E49514721176E90
:1005800016504B25146E17504C21156E145012192D
:10059000426F15501319436F46C218F247C219F241
:1005A00048C21AF249C21BF2276B260E026F036B78
:1005B000046B056B020E3F6F3FD046C2E9FF47C296
:1005C000EAFF020EE926000EEA22EECF18F0EFCF86
:1005D00019F046C2E9FF47C2EAFF1850EE24166E32
:1005E0001950EE20176E16504B25146E17504C21E3
:1005F000156E14501219426F15501319436F0A0EDD
:10060000E66EE66A46C2E6FF47C2E6FF180EE66EF1
:10061000020EE66E11EC4CF0146E060EE15E145004
:100620000201050E3F6F0201010EAE6F0201020EC4
:10063000AD6FE6EC11F000D00D01715105D00D0148
:10064000712B2DD7FE0E00D0120002014E51146EF8
:10065000156A030E145C000E155802E3010E0BD050
:100660004EC245F225DD020141A903D04199010E98
:1006700002D0000E00D0120002014F51146E156A14
:10068000030E145C000E155802E3000E0BD04FC28F
:1006900045F20EDD070E02013F5D02E0000E01D0C3
:1006A000010E00D0120002015051146E156A030EA3
:1006B000145C000E155801E363D050C245F2F8DC1B
:1006C00033C235F234C236F202013F51080A4EE01D
:1006D000010A4CE0050A4AE0020A45E0050A2DE05D
:1006E0000D0A15E0010A13E0070A0EE0020A0CE009
:1006F000010A0AE0060A08E0040A01E037D0E3EC48
:1007000038F031EC18F03CD031EC18F039D002015F
:10071000010EAE6F0201110EAD6FE6EC11F0020199
:100720001451151101E106D00E512F1902E10F519C
:100730003019EDE1080E3F6F23D00201010EAE6FBC
:100740000201110EAD6FE6EC11F00201145115110A
:1007500001E106D00E512F1902E10F513019EDE1E0
:100760000C0E3F6F0DD00D0E3F6F0AD00201AE6B25
:100770000201140EAD6FE6EC11F031EC18F000D070
:10078000120002015151146E156A030E145C000E22
:10079000155801E308D051C245F28ADC02014097A6
:1007A00051C250F280DF120002015251146E156ADC
:1007B000030E145C000E155803E3F36AF46A22D0AA
:1007C00052C245F275DCBBDC0A0EE66EE66A180E14
:1007D000E66E020EE66E530EE66E020EE66E11EC4B
:1007E0004CF0146E060EE15E145010C25DF211C2A0
:1007F0005EF2530E146E020E156E14C0F3FF15C098
:10080000F4FF00D0120002015F51146E156A030E4E
:10081000145C000E155801E313D05FC245F248DCAA
:100820008EDC02010E512F1902E10F51301908E040
:100830000201010EAE6F0201100EAD6FE6EC11F079
:10084000120002016051146E156A030E145C000E52
:10085000155803E3F36AF46A3ED060C245F228DC1F
:100860003FC22BFD070E0D012B5D06E00B0E2B5D2D
:1008700003E0F36AF46A2FD0020131512F5D325147
:1008800030591BE329512B5D166E2C512A55176EDA
:100890001606000E175A31512F5D186E3051325521
:1008A000196E1850165C146E19501758156E14C036
:1008B000F3FF15C0F4FF0FD00ED02F51315D146E31
:1008C00032513055156E1406000E155A14C0F3FF40
:1008D00015C0F4FF00D0120002016151146E156AB8
:1008E000030E145C000E155802E3000E74D061C2B2
:1008F00045F258EC00F061C260F2A3DFF3CF00FDD7
:10090000F4CF01FD0D010051011103E1000E63D090
:1009100008D0010E001901E1015103E161C25FF24B
:1009200072DF02014151010B14E129512B5D146E5C
:100930002C512A55156ED890153214320D010051E4
:10094000145C0151155805E361C25FF25CDF0201DE
:100950004181010E0201C56FC66B0201C46F020125
:10096000620EC26F020EC36F44C2C1F22FC2BFF249
:1009700030C2C0F21AEC22F002012F2B000E3023FD
:100980002B512F5D2C51305904E329C22FF22AC27A
:1009900030F20D01010E001901E1015104E161C2C3
:1009A0005FF231DF16D0020140BB13D0408BDEEC8A
:1009B0004EF006C014F007C015F0166A176A060E4E
:1009C0001426000E15221622172214C03BF215C061
:1009D0003CF2010E00D012000D01756B766B020126
:1009E0006351146E156A030E145C000E155803E370
:1009F000F36AF46AC2D063C245F258EC00F063C2F5
:100A000060F21FDFF3CF73FDF4CF74FD0D0173515E
:100A1000741106E163C25FF2F6DEF36AF46AADD0E8
:100A200073CD71FD74CD72FD73510201665D0D01D0
:100A300074510201675904E266C271FD67C272FD1A
:100A40004151010B14E129512B5D146E2C512A5593
:100A5000156ED890153214320D017351145C745117
:100A6000155805E363C25FF2CEDE02014181020147
:100A70002F510D017125146E020130510D017221AB
:100A8000156E02012B51145C2C5115582DE32F517A
:100A90002B5D0D01756F020130512C590D01766FE0
:100AA00075CDC5F276CDC6F20201010EC46F64C2E7
:100AB000C2F265C2C3F244C2C1F22FC2BFF230C259
:100AC000C0F21AEC22F00D017551020164270D01EC
:100AD0007651020165230D017551715F7651725B8C
:100AE00029C22FF22AC230F271CDC5F272CDC6F200
:100AF0000201010EC46F64C2C2F265C2C3F244C2F5
:100B0000C1F22FC2BFF230C2C0F21AEC22F00D01C6
:100B1000715102012F270D017251020130230D0185
:100B200073510201665D0D0174510201675904E3BE
:100B300063C25FF268DE15D040BB13D0408BDEECA1
:100B40004EF006C014F007C015F0166A176A060EBC
:100B50001426000E15221622172214C03BF215C0CF
:100B60003CF20D0171517525146E72517621156E8E
:100B700014C0F3FF15C0F4FF00D012000D01166B76
:100B8000176B02016851146E156A030E145C000E97
:100B9000155803E3F36AF46AC5D068C245F258EC0D
:100BA00000F068C260F24DDEF3CF14FDF4CF15FD06
:100BB0000D011451151106E168C25FF224DEF36ADB
:100BC000F46AB0D002014151010B14E129512B5DAF
:100BD000146E2C512A55156ED890153214320D0111
:100BE0001451145C1551155805E368C25FF20BDE11
:100BF0000201418114CD12FD15CD13FD0D011451DB
:100C000002016C5D0D01155102016D5904E26CC2C7
:100C100012FD6DC213FD2F510D011225146E02013C
:100C200030510D011321156E02012B51145C2C5112
:100C3000155830E32F512B5D0D01166F0201305115
:100C40002C590D01176F16CDCDF217CDCEF269C21A
:100C5000CAF26AC2CBF26BC2CCF244C2C9F22FC252
:100C6000C7F230C2C8F27EEC22F016CD14F017CDD8
:100C700015F0166A14500201692715506A231650A0
:100C80006B230D011651125F1751135B29C22FF20E
:100C90002AC230F212CDCDF213CDCEF269C2CAF221
:100CA0006AC2CBF26BC2CCF244C2C9F22FC2C7F205
:100CB00030C2C8F27EEC22F00D01125102012F2742
:100CC0000D011351020130230D01145102016C5D1D
:100CD0000D01155102016D5904E368C25FF293DD05
:100CE00015D040BB13D0408BDEEC4EF006C014F0A4
:100CF00007C015F0166A176A060E1426000E152294
:100D00001622172214C03BF215C03CF20D011251FD
:100D10001625146E13511721156E14C0F3FF15C05C
:100D2000F4FF00D012006FC2E6FF70C2E6FF79EC5C
:100D30004CF0E552E552F3CF66F2F4CF67F26FC2A2
:100D400064F270C265F26EC263F246DE02016F5158
:100D5000F324146E7051F420156E14C0F3FF15C007
:100D6000F4FF00D0120072C2E6FF73C2E6FF74C245
:100D7000E6FF87EC4CF0E552E552E55207C06CF215
:100D800008C06DF272C269F273C26AF274C26BF289
:100D900071C268F2F3DEF3CF17F0F4CF18F0196ADE
:100DA000020172511724146E73511820156E74517C
:100DB0001920166E14C007F015C008F016C009F00F
:100DC00000D0120002017551146E156A030E145CF6
:100DD000000E155803E3F36AF46A25D075C245F294
:100DE00058EC00F0020129512B5D0D01026F020148
:100DF0002A512C590D01036F010E025F000E035B97
:100E000075C260F21EDDF3CF00FDF4CF01FD0D01D0
:100E10000051025D146E03510155156E14C0F3FFAD
:100E200015C0F4FF00D0120076C277F218D8F3CFC5
:100E300014F0F4CF15F01450151010E076C245F2FE
:100E400058EC00F033C235F234C236F20201010E22
:100E5000AE6F0201100EAD6FE6EC11F01200020150
:100E60007751146E156A030E145C000E155803E3D7
:100E7000F36AF46A31D077C245F258EC00F002010F
:100E80003551335D365134590CE33551335D146EB1
:100E900034513655156E14C0F3FF15C0F4FF1CD045
:100EA0001BD035512D5D166E2E513655176E010E25
:100EB0001626000E17222B51335D186E34512C5517
:100EC000196E16501824146E17501920156E14C080
:100ED000F3FF15C0F4FF00D0120078C277F2BFDF35
:100EE000F3CF00FDF4CF01FD0D010051011102E12E
:100EF000000E48D078C245F258EC00F0020179515A
:100F00007A1112E0010E0201C56FC66B44C2C4F231
:100F100035C2C2F236C2C3F20201C16F79C2BFF25A
:100F20007AC2C0F21AEC22F00201352B000E3623F1
:100F300035512D5D36512E5904E22BC235F22CC2AB
:100F400036F20D01010E001901E1015103E1020128
:100F5000418516D0020140BB13D0408BDEEC4EF031
:100F600006C014F007C015F0166A176A1E0E142684
:100F7000000E15221622172214C03BF215C03CF2B7
:100F8000010E00D012000D01316B326B7BC277F283
:100F900066DFF3CF2FFDF4CF30FD0D012F5130115F
:100FA00003E1F36AF46AA1D07BC245F258EC00F089
:100FB00002017E510D012F5D02017F510D0130595B
:100FC00004E22FCD7EF230CD7FF2020135517E2535
:100FD000146E36517F21156E14502D5D15502E590B
:100FE00038E235512D5D0D01316F020136512E5918
:100FF0000D01326F010E3127000E322302017C51A8
:101000007D111BE031CDC5F232CDC6F244C2C4F22F
:1010100035C2C2F236C2C3F20201010EC16F7CC2F8
:10102000BFF27DC2C0F21AEC22F00D013151020173
:101030007C270D01325102017D230D013151020146
:101040007E5F0D01325102017F5B2BC235F22CC253
:1010500036F27C517D1113E07EC2C5F27FC2C6F22A
:1010600044C2C4F235C2C2F236C2C3F20201010E5A
:10107000C16F7CC2BFF27DC2C0F21AEC22F0020145
:101080007E5135277F5136230D01315102017E27D4
:101090000D01325102017F237E510D012F5D146E2F
:1010A000305102017F55156E14507E5D15507F59E9
:1010B00002E3418515D040BB13D0408BDEEC4EF0EF
:1010C00006C014F007C015F0166A176A1E0E142623
:1010D000000E15221622172214C03BF215C03CF256
:1010E0007EC2F3FF7FC2F4FF00D0120002018051E4
:1010F000146E156A030E145C000E155803E3F36AB0
:10110000F46A21D080C245F258EC00F002012B5164
:101110002D5D0D01026F02012C512E590D01036F3F
:1011200080C277F29CDEF3CF00FDF4CF01FD0D010C
:101130000051025D146E03510155156E14C0F3FF8A
:1011400015C0F4FF00D0120002018151146E156A1F
:10115000030E145C000E155803E28451851103E15F
:10116000F36AF46AABD081C245F258EC00F081C258
:1011700077F275DEF3CF02FDF4CF03FD0201865155
:101180008425146E87518521156E0D011450025D62
:10119000155003590BE2020186510D01025D020157
:1011A000846F87510D0103590201856F020135518A
:1011B00086250D01006F0201365187210D01016F57
:1011C000005102012D5D0D01015102012E590FE266
:1011D0002B512D5D146E2E512C55156E010E1426BB
:1011E000000E152214500D01005F1550015B0D011A
:1011F000005102012D5D0D01046F015102012E59B4
:101200000D01056F010E0427000E05230201845114
:101210000D01045D020185510D01055914E384C2DD
:10122000C5F285C2C6F244C2C4F200CDC2F201CDFD
:10123000C3F20201010EC16F82C2BFF283C2C0F2CB
:101240001AEC22F036D004CDC5F205CDC6F244C268
:10125000C4F200CDC2F201CDC3F20201010EC16F92
:1012600082C2BFF283C2C0F21AEC22F00D01045117
:101270000201845D0201C56F0D010551020185590E
:101280000201C66F44C2C4F22BC2C2F22CC2C3F226
:101290000201010EC16F020182510D0104250201FC
:1012A000BF6F020183510D0105210201C06F1AECCD
:1012B00022F084C2F3FF85C2F4FF00D0120089C27D
:1012C00086F28AC287F2010E0201846F856B0201E9
:1012D000060E826F0D0E836F88C281F235DF0D011D
:1012E000065100D0120002018B51146E156A030ED4
:1012F000145C000E155803E28E518F1103E1F36A5E
:10130000F46AB2D18BC245F258EC00F08BC277F28E
:10131000A6DD02019051F35C0D01026F02019151B3
:10132000F4580D01036F02018E510D01025D02019F
:101330008F510D01035903E2F368F46895D102015E
:10134000925193110DE00D0102510201925D0D01C8
:1013500003510201935904E292C202FD93C203FDBC
:10136000355190250D01066F0201365191210D0175
:10137000076F065102012D5D0D01075102012E5923
:101380000FE22B512D5D146E2E512C55156E010E52
:101390001426000E152214500D01065F1550075B30
:1013A00006CD00FD07CD01FD0D01065102012D5DA9
:1013B0000D01046F075102012E590D01056F010E39
:1013C0000427000E052390C206FD91C207FD8EC2C0
:1013D00008FD8FC209FD8CC20AFD8DC20BFD020102
:1013E0008CC2E9FF8DC2EAFF8C2B8D23EFCF0DFD60
:1013F0000D010F6B0201945109E0610E0D010D5DAD
:1014000005E30D517A0802E3E00E0D270D01200ED1
:101410000E6F0E51045D000E055902E204CD0EFD63
:101420000E51025D000E035902E202CD0EFD0E5177
:101430000201C56FC66B44C2C4F200CDC2F201CD39
:10144000C3F20201010EC16F0201100EBF6F0D0E3B
:10145000C06F1AEC22F00D010E51146E156A145073
:101460000027155001230E51146E156A1450045FA5
:101470001550055B0451051106E12BC200FD2CC27D
:1014800001FD046905690201945101E181D00D015A
:101490000C6B0E510C5D01E37AD00C51EA6A100F0F
:1014A000E96E0D0EEA22EFCF14F0610E145C13E327
:1014B0000C51EA6A100FE96E0D0EEA22EF507A081D
:1014C0000AE3E00E146E0C51EA6A100FE96E0D0E7D
:1014D000EA221450EF260C51EA6A100FE96E0D0E45
:1014E000EA22EF500D5D33E102018E07000E8F5BA3
:1014F0008E518F1117E10D010851065D166E0751CF
:101500000955176E0C5100011624146E000E172099
:10151000156E010E1426000E152214C0F3FF15C01F
:10152000F4FFA2D08CC2E9FF8DC2EAFF8C2B000E23
:101530008D23EFCF0DFD0D01010E0F6F610E0D5DBF
:1015400005E30D517A0802E3E00E0D271ED008CD09
:101550008EF209CD8FF20F5118E00ACD8CF20BCD2F
:101560008DF202018CC2E9FF8DC2EAFF8C2B000EC6
:101570008D23EFCF0DFD610E0D010D5D05E30D51C6
:101580007A0802E3E00E0D270F6B0C2B82D751D0A7
:101590000D010C6B0E510C5D4CE20C51EA6A100F00
:1015A000E96E0D0EEA22EF500D5D2BE102018E0770
:1015B000000E8F5B8E518F1117E10D010851065DF2
:1015C000166E07510955176E0C5100011624146E42
:1015D000000E1720156E010E1426000E152214C0E1
:1015E000F3FF15C0F4FF40D08CC2E9FF8DC2EAFFC3
:1015F0008C2B000E8D23EFCF0DFD0D01010E0F6F13
:1016000016D008CD8EF209CD8FF20F5110E00ACD21
:101610008CF20BCD8DF202018CC2E9FF8DC2EAFF84
:101620008C2B000E8D23EFCF0DFD0D010F6B0C2BBE
:10163000B1D70E51146E156A1450025F1550035B3A
:1016400002018E510D01025D02018F510D010359FE
:1016500003E2F368F46808D00E51146E156A145052
:10166000062715500723D2D6120002019551146E99
:10167000156A030E145C000E155803E299519A1175
:1016800003E1F36AF46ACDD195C245F258EC00F05B
:1016900095C277F22FEC07F002019B51F35C0D012C
:1016A000026F02019C51F4580D01036F0201995120
:1016B0000D01025D02019A510D01035903E2F36825
:1016C000F468AFD102019D519E110DE00D01025150
:1016D00002019D5D0D01035102019E5904E29DC26C
:1016E00002FD9EC203FD35519B250D01066F0201CF
:1016F00036519C210D01076F065102012D5D0D0130
:10170000075102012E590FE22B512D5D146E2E51FF
:101710002C55156E010E1426000E152214500D01C5
:10172000065F1550075B06CD00FD07CD01FD0D01DD
:10173000065102012D5D0D01046F075102012E5962
:101740000D01056F010E0427000E05239BC206FD47
:101750009CC207FD99C208FD9AC209FD96C20AFD06
:1017600097C20BFD98C20CFD020196C2F6FF962BA4
:1017700097C2F7FF972398C2F8FF98230800F5CF88
:101780000EFD0D01106B02019F5109E0610E0D016C
:101790000E5D05E30E517A0802E3E00E0E270D01FF
:1017A000200E0F6F0F51045D000E055902E204CDAB
:1017B0000FFD0F51025D000E035902E202CD0FFD35
:1017C0000F510201C56FC66B44C2C4F200CDC2F214
:1017D00001CDC3F20201010EC16F0201110EBF6FF4
:1017E0000D0EC06F1AEC22F00D010F51146E156A28
:1017F00014500027155001230F51146E156A145010
:10180000045F1550055B0451051106E12BC200FD74
:101810002CC201FD0469056902019F5101E18BD0D1
:101820000D010D6B0F510D5D01E384D00D51EA6A7E
:10183000110FE96E0D0EEA22EFCF14F0610E145C69
:1018400013E30D51EA6A110FE96E0D0EEA22EF5013
:101850007A080AE3E00E146E0D51EA6A110FE96E80
:101860000D0EEA221450EF260D51EA6A110FE96EAF
:101870000D0EEA22EF500E5D37E102019907000ECE
:101880009A5B99519A1117E10D010851065D166E88
:1018900007510955176E0D5100011624146E000EE4
:1018A0001720156E010E1426000E152214C0F3FF2A
:1018B00015C0F4FFB6D096C2F6FF962B97C2F7FF7D
:1018C000000E972398C2F8FF98230800F5CF0EFD6D
:1018D0000D01010E106F610E0E5D05E30E517A08C9
:1018E00002E3E00E0E2724D008CD99F209CD9AF23A
:1018F00010511EE00ACD96F20BCD97F20CCD98F266
:10190000020196C2F6FF962B97C2F7FF000E9723AF
:1019100098C2F8FF98230800F5CF0EFD610E0D0167
:101920000E5D05E30E517A0802E3E00E0E27106B00
:101930000D2B78D75BD00D010D6B0F510D5D56E26D
:101940000D51EA6A110FE96E0D0EEA22EF500E5D9D
:101950002FE102019907000E9A5B99519A1117E144
:101960000D010851065D166E07510955176E0D5190
:1019700000011624146E000E1720156E010E142699
:10198000000E152214C0F3FF15C0F4FF4AD096C212
:10199000F6FF962B97C2F7FF000E972398C2F8FF29
:1019A00098230800F5CF0EFD0D01010E106F1CD01D
:1019B00008CD99F209CD9AF2105116E00ACD96F2AF
:1019C0000BCD97F20CCD98F2020196C2F6FF962B42
:1019D00097C2F7FF000E972398C2F8FF98230800DC
:1019E000F5CF0EFD0D01106B0D2BA7D70F51146E07
:1019F000156A1450025F1550035B020199510D01E5
:101A0000025D02019A510D01035903E2F368F46883
:101A100008D00F51146E156A14500627155007236D
:101A2000BED61200A6C294F2A4C292F2A5C293F24C
:101A3000A2C290F2A3C291F2010E02018E6F8F6BCF
:101A40000201A10E8C6F020E8D6FA0C28BF24BDCD7
:101A500000D012000D011C6B1C51146E156A030E90
:101A6000145C000E155801E36CD31CCD45F258EC04
:101A700000F00D011F6B1D6B1E6B02014151020B2B
:101A800003E14151040B0EE025EC24F000090AE0CB
:101A90000D01100E1F6F02014151040B01E0010EF8
:101AA0000D011D6F020140AB13D0DEEC4EF00201C0
:101AB00006503B5D146E07503C59156E153404E218
:101AC00014500008000E155403E30D01100E1F6F93
:101AD000020140AD13D0DEEC4EF0020106503D5D38
:101AE000146E07503E59156E153404E21450000868
:101AF000000E155403E30D01100E1F6F0B0E0201B3
:101B00003F5D16E1DEEC4EF0020106503D5D146EC5
:101B100007503E59156E153404E214500008000EAB
:101B2000155406E30D01110E1F6F02010C0E3F6FDD
:101B3000040E3F5D01E00AD10D01206B216B030E05
:101B4000205D000E215901E301D120CDE9FF21CD17
:101B5000EAFF140EEA02F3CFEAFFE902F3CFE9FF4E
:101B6000F450EA26000EE926040EEA22100EE926B9
:101B7000000EEA22EE50ED1001E1E8D020CDE9FFA1
:101B800021CDEAFF140EEA02F3CFEAFFE902F3CF18
:101B9000E9FFF450EA26000EE926040EEA22100EB0
:101BA000E926000EEA22EECF14F0EFCF15F0020185
:101BB0004251141802E14351151801E0C2D09FECC4
:101BC00000F00A0EE66EE66A20CDE9FF21CDEAFFBD
:101BD000140EEA02F3CFEAFFE902F3CFE9FFF45073
:101BE000EA26000EE926040EEA22E9CF14F0EACF35
:101BF00015F014C0E6FF15C0E6FF180EE66E020EE3
:101C0000E66E11EC4CF0166E060EE15E165020CD1D
:101C1000E9FF21CDEAFF140EEA02F3CFEAFFE90261
:101C2000F3CFE9FFF450EA26000EE926040EEA227B
:101C30000A0EE926000EEA22EECF10F2EDCF11F2E5
:101C400020CDE9FF21CDEAFF140EEA02F3CFEAFF2F
:101C5000E902F3CFE9FFF450EA26000EE926040E6C
:101C6000EA220C0EE926000EEA22EECF0AF2EECFAF
:101C70000BF2EECF0CF2EFCF0DF202010A2B0B2389
:101C80000C230D231A511825166E1B511921176E9E
:101C900016501025146E17501121156E145012197C
:101CA000426F15501319436F0D01120E1F6F020181
:101CB000060E3F6F20CDC5F221CDC6F20201020E05
:101CC000D880C557000EC657140EC603F3CFC6F210
:101CD000C503F3CFC5F2F450C6270201010EC46F4D
:101CE0000D0120250201C26F000E0D01212102010C
:101CF000C36F140EC303F3CFC3F2C203F3CFC2F218
:101D0000F450C327000EC227040EC3230201010EA4
:101D1000C16F140E086E096A20CD0DF021CD0EF0B2
:101D20008FEC4FF006C0BFF207C0C0F2000E0201F8
:101D3000BF27040EC0231AEC22F00401386B396B64
:101D400005D00D01202B000E2123F9D60D011F51C6
:101D50000AE01D5102E0000E01D0010E0201AE6F3B
:101D60001FCDADF233DB020140B94ED0070E3F5D0F
:101D70004AE1CBEC4EF002013751065C146E38514B
:101D80000758156E39510858166E3A510958176E92
:101D90000001800E171401E0D1D102014051070B60
:101DA000060815E14051080B01E0010E0D011F6FFF
:101DB0001CCD50F253EC03F01CCD50F253EC03F069
:101DC0000D011F5103E102010E0E3F6FB7D19FECD1
:101DD00000F00201020EAE6F0201100EAD6FF6DAD6
:101DE000CBEC4EF006C037F207C038F208C039F22B
:101DF00009C03AF2E60E02013727F50E3823050E28
:101E00003923000E3A239AD1CBEC4EF00201375120
:101E1000065C146E38510758156E39510858166E05
:101E20003A510958176E0001800E171401E086D14F
:101E30009FEC00F002013F510C0A01E11ED1060A9D
:101E400001E10CD1030A01E103D1010A01E1F1D062
:101E50000F0A01E1DFD00C0A01E1DCD00D0A01E13B
:101E6000C4D0030A01E1AED0060A01E17BD0010A29
:101E700068E0030A20E0010A01E00ED1DAEC38F054
:101E8000000918E00201010E3F6F24A50BD00001EC
:101E9000F06F18C2EDF019C2EEF01AC2EFF016ECB6
:101EA00039F008D00001EC6F18C2EAF019C2EBF06B
:101EB000F6EC38F0F1D00001220EF16F0D0EF26F4A
:101EC00039EC39F000093CE0E3EC38F0000924E09B
:101ED00022CD18F223CD19F224CD1AF225CD1BF212
:101EE0000201020E3F6F1A511825166E1B5119215F
:101EF000176E16501025146E17501121156E1450C0
:101F00001219426F15501319436F276B260E026F7B
:101F1000036B046B056B14D0CBEC4EF006C037F2AC
:101F200007C038F208C039F209C03AF2E60E0201E1
:101F30003727F50E3823050E3923000E3A233F6B61
:101F4000ABD0DEEC4EF006C03BF207C03CF2020123
:101F5000180EEE6F020EEF6F9DEC42F00201030EC1
:101F60003F6F9AD002011C0EF26F020EF36F020156
:101F7000180EF06F020EF16FE1EC42F000091AE169
:101F8000DEEC4EF002013B51065C146E3C510758EA
:101F9000156E1450025D155003590BE2060E275DB5
:101FA00006E2272BD8900237033704370537020E95
:101FB0003F6F72D00D01020E1F6F1D6B0201050EE7
:101FC0003F6F6AD00D01020E1F6F010E1D6F040ED0
:101FD0000201275D09E3040E276F700E026F890E60
:101FE000036F090E046F056B57D0020E275D06E2E2
:101FF0000D01120E1F6F010E1D6F0BD040A706D0F2
:102000000D01140E1F6F010E1E6F03D00D01020E85
:102010001F6F42D0050E275D06E20D01100E1F6FE7
:10202000010E1D6F05D0080E3F6F0D01110E1F6FC1
:1020300033D0050E275D06E20D01110E1F6F010E54
:102040001D6F05D00D01140E1F6F010E1E6F24D0E1
:102050000D01140E1F6F010E1E6F1ED0050E275DA1
:1020600006E20D01100E1F6F010E1D6F05D00D0150
:10207000140E1F6F010E1E6F0FD0050E275D06E2B6
:102080000D01110E1F6F010E1D6F05D00D01140EF5
:102090001F6F010E1E6F00D00D011F514AE01D5130
:1020A00042E00201272BD890023703370437053767
:1020B00031510E5D0D01206F020132510F590D019A
:1020C000216F020131510E5D32510F590BE229513E
:1020D0002B5D146E2C512A55156E14500D012027BE
:1020E0001550212320CD14F021CD15F0166A176A62
:1020F00014500201065F1550075B1650085B17501D
:10210000095B0D012051020114270D01215102012B
:10211000152331C20EF232C20FF20201AE6B1FCD97
:10212000ADF254D906D00201010EAE6F1FCDADF253
:102130004DD90D011E5102E031EC18F00D011C2BA0
:102140008BD4206B216B030E205D000E215901E31F
:1021500099D020CDE9FF21CDEAFF140EEA02F3CF9A
:10216000EAFFE902F3CFE9FFF450EA26000EE92680
:10217000040EEA22100EE926000EEA22EE50ED10BF
:1021800001E180D020CDE9FF21CDEAFF140EEA0263
:10219000F3CFEAFFE902F3CFE9FFF450EA26000E9D
:1021A000E926040EEA22120EE926000EEA22EECFFC
:1021B00016F0EFCF17F016C0E6FF17C0E6FFDEEC13
:1021C0004EF0E552E7CF17F0E552E7CF16F0165084
:1021D000065C146E17500758156EC90ED88014543B
:1021E000010E15544AE220CDC5F221CDC6F20201FE
:1021F000020ED880C557000EC657140EC603F3CF83
:10220000C6F2C503F3CFC5F2F450C6270201010E92
:10221000C46F0D0120250201C26F000E0D012121A6
:102220000201C36F140EC303F3CFC3F2C203F3CF93
:10223000C2F2F450C327000EC227040EC3230201CA
:10224000010EC16F140E086E096A20CD0DF021CD6C
:102250000EF08FEC4FF006C0BFF207C0C0F2000EC8
:102260000201BF27040EC0231AEC22F00401386BD0
:10227000396B0D012007000E215B0D01202B000E94
:10228000212361D71200A7C2E9FFA8C2EAFFEECF5F
:1022900014FDEECF15FDEECF16FDEFCF17FDA9C251
:1022A000E9FFAAC2EAFFEECF18FDEECF19FDEECF8F
:1022B0001AFDEFCF1BFD0D011C6B060E1D6FABC28F
:1022C0001EFDACC21FFD1ECD56F41FCD57F43AECD7
:1022D00037F0F3CF1EFDF4CF1FFD0C0E04015E6F2F
:1022E0005F6B0401140E5C6F0D0E5D6F61EC37F0D7
:1022F000F3CF20FDF4CF21FD0D01201F211FABC224
:10230000CAF3ACC2CBF3AFEC27F0F3CF22FDF4CF8E
:1023100023FD0D012251201902E12351211904E06E
:1023200033EC24F0010E51D00401846B856B9DECDD
:1023300049F0140E0301D46FD56B0301000ED26F68
:102340000D0ED36FCCEC29F00201000EB36F0D0E11
:10235000B46F56EC17F00D010C51F00BE842E84257
:10236000E842E842040DF350146E156A140E145E30
:10237000000E155A14C024FD2451146E156A145011
:102380000201AB5DAB6F1550AC59AC6F140EAB5F77
:10239000000EAC5BA7C2B1F2A8C2B2F20201000EFD
:1023A000AF6F0D0EB06FD8DA00090BE0ABC2B7F219
:1023B000ACC2B8F20201000EB56F0D0EB66FFAECAA
:1023C00018F033EC24F0010E00D012009FEC00F066
:1023D0000201ADA102D04187AD91409B409D409F3D
:1023E00041934195419125EC24F0000901E1FBD78F
:1023F000060E0201AD1504E00D01516B526BFBD0CE
:102400000E512F1902E10F51301904E10D01516BEA
:10241000526BD9D02F510E5D30510F593FE20E5102
:102420002F5D0D01516F02010F5130590D01526F97
:1024300051510201145D0D0152510201155904E27E
:1024400014C251FD15C252FD0D0151510201255D0D
:102450000D0152510201265905E225C251FD26C245
:1024600052FD418551CDC5F252CDC6F244C2C4F2EF
:102470000EC2C2F20FC2C3F20201C16B0201050E0D
:10248000BF6F0B0EC06F1AEC22F00D01515102010B
:102490000E270D01525102010F2395D00E512B5DD5
:1024A0000D014F6F02010F512C590D01506F4F510B
:1024B00002012F25146E0D01505102013021156EBD
:1024C0002951145C0D01516F02012A5115580D015B
:1024D000526F51510201145D0D0152510201155903
:1024E00004E214C251FD15C252FD0D015151020109
:1024F000255D0D0152510201265905E225C251FD0B
:1025000026C252FD41850D014F51515D5051525926
:1025100004E251CD4FFD52CD50FD4FCDC5F250CD0F
:10252000C6F244C2C4F20EC2C2F20FC2C3F202012A
:10253000C16B0201050EBF6F0B0EC06F1AEC22F0CB
:102540000D014F51515D4F6F50515259506F4F51C6
:10255000501122E04FCDC5F250CDC6F244C2C4F2B4
:1025600029C2C2F22AC2C3F20201C16B02010E519A
:102570002B5D146E2C510F55156E166A176A050ED9
:1025800014260B0E1522000E1622172214C0BFF2BD
:1025900015C0C0F21AEC22F00D01515102010E27B4
:1025A0000D01525102010F232B510E5D2C510F5979
:1025B0000AE329512B5D146E2C512A55156E1450C7
:1025C0000E5F15500F5B020141A715D014510D018C
:1025D000511904E1020115510D0152190CE00201DB
:1025E00025510D01511904E1020126510D01521925
:1025F00002E00201AD810D015151521104E1030EBF
:102600000201AD1529E00D0151510201145F0D01C8
:1026100052510201155B0D015151521102E00201AC
:10262000AD870201AEA107D0276B970E026F980EFF
:10263000036F046B056BCBEC4EF0065002010225D4
:10264000376F07500321386F08500421396F095044
:1026500005213A6F408938D0AEA31BD0400EE96EF9
:10266000020EEA6EEF50070BE82AF36EF350070BE9
:10267000F36EF46EF80EEF14F310EF6EF4500607DD
:10268000000E075B085B095B010E0D01516F526B79
:102690001BD040A919D0AEB108D0275106E02707BA
:1026A000D8900533043303330233CBEC4EF006509D
:1026B00002010225376F07500321386F08500421AB
:1026C000396F095005213A6F12C22DFD13C22EFD3C
:1026D00010C22FFD11C230FD06C231FD07C232FD0E
:1026E00008C233FD09C234FD0AC235FD0BC236FDF6
:1026F0000CC237FD0DC238FD0D013A9D3A9F39914C
:10270000399339953997ADC23AFD3F6B406B5151C2
:10271000020106270D01525102010723000E082372
:102720000923ADA315D0ADB905D00D01356B366BBE
:10273000376B386B020124A306D00D013107325BE1
:10274000335B345B05D0062B07230823092324833E
:102750000201ADB124813551335D3651345914E352
:102760002B512D5D146E2E512C55156E3551335D48
:10277000166E34513655176E0D011650145C3B6FB2
:10278000175015583C6F0DD03351355D0D013B6F1F
:102790000201345136590D013C6F010E3B5F000EB2
:1027A0003C5B6CEC24F0F3CF2BFDF4CF2CFD0D0142
:1027B000400E2B5D000E2C5903E22B6B2C6B04D0CA
:1027C000400E2B5F000E2C5B3B512B5D3C512C5976
:1027D00004E22BCD3BFD2CCD3CFD02012D0EB36F51
:1027E0000D0EB46F63DB140E0D015127000E522342
:1027F0003989399B398D399F0201ADA326D0040E4A
:102800000D015127000E5223020E416F040E426F3C
:10281000020E436F180E446F010E146E390EE96EEE
:102820000D0EEA6EEF50F00BE842E842E842E84253
:1028300014240F0BF36EF46EF346F346F346F3469F
:102840000F0EEF14F310EF6EF45068C345FD69C32B
:1028500046FD6AC347FD6BC348FD18C249FD19C256
:102860004AFD1AC24BFD1BC24CFD0D014D6B060EFD
:102870004E6F51CD4FFD52CD50FD4FCD56F450CD42
:1028800057F43AEC37F0F3CF4FFDF4CF50FD0C0E78
:1028900004015E6F5F6B0401450E5C6F0D0E5D6F92
:1028A00061EC37F0F3CF3DFDF4CF3EFD0D013D1F50
:1028B0003E1F0301DD0EC26F0A0EC36F1BEC27F033
:1028C00051CD82F452CD83F40401060E816F0401D0
:1028D000180E7F6F020E806F29EC49F0140E030171
:1028E000D96FDA6B03012D0ED76F0D0ED86F1CEC6C
:1028F0002AF00201ADA30BD0040E0301D96FDA6BED
:102900000301410ED76F0D0ED86F1CEC2AF00301A6
:10291000F10EC46F0A0EC56F3BEC27F051CDCAF320
:1029200052CDCBF3AFEC27F0F3CF2BFDF4CF2CFD42
:102930000301010EC26F0B0EC36F1BEC27F0020EDA
:102940000301D96FDA6B03012B0ED76F0D0ED86F11
:102950001CEC2AF0EAEF25F0AFC2E9FFB0C2EAFFB3
:10296000020EE926000EEA22EE50ED1002E1000E02
:102970009CD20D01FE0E266FB1C2E9FFB2C2EAFF82
:10298000020EE926000EEA22EECF18F0EFCF19F082
:10299000B1C2E9FFB2C2EAFF1850EE24166E195018
:1029A000EE20176EAFC2E9FFB0C2EAFF1650EE2468
:1029B000146E1750EE20156EAFC2E9FFB0C2EAFFE9
:1029C000020EE926000EEA221450EE18276F155069
:1029D000EE18286F256B2551146E156A030E145CD2
:1029E000000E155867E225CD45F258EC00F00D0EAB
:1029F00002013F5D02E15BD024D0040E3F5D16E191
:102A0000AFC2E9FFB0C2EAFF020EE926000EEA22D9
:102A1000EECF14F0EFCF15F01450421902E115502B
:102A2000431902E125CD26FD42D00BD00D012751DF
:102A30000201421904E10D0128510201431901E08C
:102A400036D09FEC00F0AFC2E9FFB0C2EAFF020E41
:102A5000E926000EEA22EECF14F0EFCF15F00201C6
:102A60001251141802E11351151821E1AFC2E9FF08
:102A7000B0C2EAFFEECF16F0EFCF17F010511618E4
:102A800002E11151171813E1B1C2E9FFB2C2EAFF26
:102A9000EE50181909E1EE50191906E1EE501A1915
:102AA00003E1EE501B1900E102E1010EFED10D0120
:102AB000252B91D7FE0E265D39E026CD45F258EC48
:102AC00000F09FEC00F0FE0E0D01265D2FE027CDFB
:102AD00042F228CD43F20A0EE66EE66AB1C2E6FF84
:102AE000B2C2E6FF180EE66E020EE66E11EC4CF076
:102AF000146E060EE15E1450AFC2E9FFB0C2EAFFE9
:102B0000EECF10F2EDCF11F2AFC2E9FFB0C2EAFF93
:102B1000020EE926000EEA22EECF12F2EDCF13F2FA
:102B200029C20EF22AC20FF2010EBFD1AFC2E9FFD5
:102B3000B0C2EAFF0D0EE926000EEA22EF50020BAA
:102B400002E1000EB2D104013851391102E0000E49
:102B5000ACD10D01296B2A6B030E295D000E2A5999
:102B600001E3BED029CDE9FF2ACDEAFF140EEA0227
:102B7000F3CFEAFFE902F3CFE9FFF450EA26000EB3
:102B8000E926040EEA22100EE926000EEA22EE5093
:102B9000ED1001E1A5D029CDE9FF2ACDEAFF140E01
:102BA000EA02F3CFEAFFE902F3CFE9FFF450EA26A5
:102BB000000EE926040EEA22100EE926000EEA2293
:102BC000EECF14F0EFCF15F0AFC2E9FFB0C2EAFFCD
:102BD000020EE926000EEA22EECF16F0EFCF17F034
:102BE0001650141802E11750151801E074D029CDC1
:102BF000E9FF2ACDEAFF140EEA02F3CFEAFFE90269
:102C0000F3CFE9FFF450EA26000EE926040EEA228B
:102C10000A0EE926000EEA22EECF14F0EFCF15F0EF
:102C2000AFC2E9FFB0C2EAFFEECF16F0EFCF17F068
:102C30001650141802E11750151801E04CD0B1C21B
:102C4000E9FFB2C2EAFFEECF14F0EECF15F0EECFFF
:102C500016F0EFCF17F029CDE9FF2ACDEAFF140EC9
:102C6000EA02F3CFEAFFE902F3CFE9FFF450EA26E4
:102C7000000EE926040EEA22EE500001141809E1C4
:102C8000EE50151806E1EE50161803E1EE50171835
:102C900000E101E020D0DEEC4EF006C014F007C0E9
:102CA00015F029CDE9FF2ACDEAFF140EEA02F3CF91
:102CB000EAFFE902F3CFE9FFF450EA26000EE92625
:102CC000040EEA22120EE926000EEA2214C0EEFFDC
:102CD00015C0EDFFEAD00D01292B000E2A233CD7A9
:102CE000256B2551146E156A030E145C000E1558E1
:102CF00001E3D9D025CD45F258EC00F0020140A700
:102D0000CFD09FEC00F0AFC2E9FFB0C2EAFF020EE5
:102D1000E926000EEA22EECF14F0EFCF15F01450A2
:102D20000201121902E11550131901E0B9D00A0E7F
:102D3000E66EE66AB1C2E6FFB2C2E6FF29CDE9FF60
:102D40002ACDEAFF140EEA02F3CFEAFFE902F3CF3D
:102D5000E9FFF450EA26000EE926040EEA22E9CF44
:102D600014F0EACF15F014C0E6FF15C0E6FF11EC31
:102D70004CF0166E060EE15E1650AFC2E9FFB0C20F
:102D8000EAFFEECF14F0EFCF15F029CDE9FF2ACD01
:102D9000EAFF140EEA02F3CFEAFFE902F3CFE9FFFC
:102DA000F450EA26000EE926040EEA220A0EE9266D
:102DB000000EEA2214C0EEFF15C0EDFFAFC2E9FF1E
:102DC000B0C2EAFF040EE926000EEA22EECF14F0AC
:102DD000EECF15F0EECF16F0EFCF17F029CDE9FFCB
:102DE0002ACDEAFF140EEA02F3CFEAFFE902F3CF9D
:102DF000E9FFF450EA26000EE926040EEA220C0E42
:102E0000E926000EEA2214C0EEFF15C0EEFF16C040
:102E1000EEFF17C0EEFFAFC2E9FFB0C2EAFF020E3D
:102E2000E926000EEA22EECF14F0EFCF15F029CDFF
:102E3000E9FF2ACDEAFF140EEA02F3CFEAFFE90226
:102E4000F3CFE9FFF450EA26000EE926040EEA2249
:102E5000100EE926000EEA2214C0EEFF15C0EDFFA9
:102E6000DEEC4EF006C014F007C015F029CDE9FFE6
:102E70002ACDEAFF140EEA02F3CFEAFFE902F3CF0C
:102E8000E9FFF450EA26000EE926040EEA22120EAB
:102E9000E926000EEA2214C0EEFF15C0EDFF05D0B2
:102EA0000D01252B1ED7000E00D01200B3C2E9FF82
:102EB000B4C2EAFFEECF56F4EDCF57F43AEC37F058
:102EC000F3CF14F0F4CF15F0B3C2E9FFB4C2EAFFB8
:102ED00014C0EEFF15C0EDFFB3C2E9FFB4C2EAFFB4
:102EE000020EE926000EEA22EECF56F4EDCF57F49B
:102EF0003AEC37F0F3CF14F0F4CF15F0B3C2E9FF9A
:102F0000B4C2EAFF020E14C0EBFF030E15C0EBFFC4
:102F1000B3C2E9FFB4C2EAFF040EE926000EEA22BA
:102F2000EECF58F4EECF59F4EECF5AF4EFCF5BF476
:102F30004AEC37F006C014F007C015F008C016F0D0
:102F400009C017F0B3C2E9FFB4C2EAFF040EE926D4
:102F5000000EEA2214C0EEFF15C0EEFF16C0EEFF11
:102F600017C0EEFFB3C2E9FFB4C2EAFF080EE926BC
:102F7000000EEA22EECF58F4EECF59F4EECF5AF419
:102F8000EFCF5BF44AEC37F006C014F007C015F041
:102F900008C016F009C017F0B3C2E9FFB4C2EAFFD7
:102FA000080EE926000EEA2214C0EEFF15C0EEFF5F
:102FB00016C0EEFF17C0EEFFB3C2E9FFB4C2EAFFCE
:102FC0000E0EE926000EEA22EECF56F4EDCF57F4AE
:102FD0003AEC37F0F3CF14F0F4CF15F0B3C2E9FFB9
:102FE000B4C2EAFF0E0E14C0EBFF0F0E15C0EBFFCC
:102FF000B3C2E9FFB4C2EAFF100EE926000EEA22CE
:10300000EECF56F4EDCF57F43AEC37F0F3CF14F09F
:10301000F4CF15F0B3C2E9FFB4C2EAFF100E14C03A
:10302000EBFF110E15C0EBFFB3C2E9FFB4C2EAFF1C
:10303000120EE926000EEA22EECF56F4EDCF57F439
:103040003AEC37F0F3CF14F0F4CF15F0B3C2E9FF48
:10305000B4C2EAFF120E14C0EBFF130E15C0EBFF53
:1030600012009FEC00F012C242F213C243F229C2D6
:103070002FF22AC230F229C231F22AC232F22BC216
:1030800033F22CC234F22BC235F22CC236F20201DA
:103090004051080B02E0040E01D00D0E3F6F40912D
:1030A000409340954099409B409D409F4191419362
:1030B000419541974189249124932497249929C2C9
:1030C0000EF22AC20FF2AAEC33F0F3CF06F2F4CFDD
:1030D00007F2AAEC33F0F3CF08F2F4CF09F20201C1
:1030E00022692369010E146F156B12000C0E040186
:1030F000846F856B9DEC49F0B8EC29F00D01256FCC
:10310000F00E2515E840E8403F0B146E156A140ECA
:10311000145E000E155A14C025FD255105E1180E48
:10312000F36E020EF46E65D0070E0301D46FD56BFB
:103130000301D26BD36BCCEC29F00D01255125078F
:10314000000952E0B8EC29F00D01266F265101E18B
:103150004BD0260501E1F1D7020E265D2CE1030ECE
:10316000255D01E241D0276B286BB8EC29F00D01F9
:10317000266F040E265D08E1B8EC29F00D01286FDA
:10318000B8EC29F00D01276F180E275D020E2859A3
:1031900001E22AD0B40ED8802755050E285506E244
:1031A000B40EF36E050EF46E24D01DD027CDF3FFC0
:1031B00028CDF4FF1ED0020E255D01E215D0B8EC3B
:1031C00029F00D01266F2651255D01E20DD0265113
:1031D0000301D46FD56B0301D26BD36BCCEC29F018
:1031E0000D012651255FA9D7180EF36E020EF46E5D
:1031F00000D01200B5C2E9FFB6C2EAFF0D0EE92603
:10320000000EEA22EFCF7FFDB5C2E9FFB6C2EAFFAA
:10321000080EE926000EEA22EECF80FDEECF81FDFA
:10322000EECF82FDEFCF83FDB5C2E9FFB6C2EAFF64
:10323000040EE926000EEA22EECF84FDEECF85FDD6
:10324000EECF86FDEFCF87FD020140914093409580
:1032500040B913D0CBEC4EF006C037F207C038F2BD
:1032600008C039F209C03AF2E60E02013727F50E1E
:103270003823050E3923000E3A233F51050A48E052
:10328000010A08E0B7C288FDB8C289FD0D017FA11F
:10329000CFD0CBD00D017FA503D0E3DEE2EF20F04D
:1032A0007FA912D080CD06F281CD07F282CD08F23F
:1032B00083CD09F20201AE6B0201040EAD6FE6ECA4
:1032C00011F0CFDEE2EF20F07FA31FD084CD0AF211
:1032D00085CD0BF286CD0CF287CD0DF202010A2BC3
:1032E000000E0B230C230D2301DFF3CF25F2F4CFC7
:1032F00026F20201010EAE6F0201120EAD6FE6EC76
:1033000011F00201060E3F6F01D0ABDEE2EF20F0BC
:103310000D017FA502D0E2EF20F07FA934D0800E0E
:10332000E96E0D0EEA6EEE500201061909E1EE504B
:10333000071906E1EE50081903E1EE50091900E102
:1033400022E006C284FD07C285FD08C286FD09C2CF
:1033500087FD80CD06F281CD07F282CD08F283CDC4
:1033600009F20201010EAE6F0201040EAD6FE6EC30
:1033700011F084CD06F285CD07F286CD08F287CD17
:1033800009F2E2EF20F00D017FA34DD084CD0AF2C7
:1033900085CD0BF286CD0CF287CD0DF202010A2B02
:1033A000000E0B230C230D23B5C2E9FFB6C2EAFFC2
:1033B0000E0EE926000EEA22EECF14F2EDCF15F242
:1033C00095DEF3CF25F2F4CF26F20D017FA920D0B0
:1033D0000201010EAE6F0201100EAD6FE6EC11F0AE
:1033E0000201070E3F6FCBEC4EF006C037F207C06C
:1033F00038F208C039F209C03AF2E60E0201372766
:10340000F50E3823050E3923000E3A2340990BD0D0
:103410000201010EAE6F0201120EAD6FE6EC11F06B
:103420000201060E3F6FE2EF20F0882B000E892389
:103430007FA303D0882B000E892302013551335D11
:103440003651345914E32B512D5D146E2E512C55E9
:10345000156E3551335D166E34513655176E0D01AC
:103460001650145C7D6F175015587E6F0DD0335178
:10347000355D0D017D6F0201345136590D017E6FAE
:10348000010E7D5F000E7E5B0A0EE96E020EEA6E93
:10349000EE50845D776FEE508559786FEE50865907
:1034A000796FEE5087597A6F77CD7BFD78CD7CFDB3
:1034B0008A6B8851891101E17BD07D517E1101E138
:1034C00076D0800E7A1512E17DCD14F07ECD15F008
:1034D000166A176A1450775D155078591650795945
:1034E00017507A5903E2010E8A6F3DD088CD14F04F
:1034F00089CD15F0166A176A770EE96E0D0EEA6E21
:10350000EE501426EE501522EE501622EE501722E1
:103510001734000E171809E6D880000E1454000E58
:103520001554000E1654000E17541DE288517D5D8F
:10353000186E7E518955196E1A6A1B6A19AE02D02F
:103540001A681B681B507A19E8AE02D07A3508D089
:103550007751185C7851195879511A587A511B587B
:1035600002E3010E8A6F7DCD14F07ECD15F0166A50
:10357000176A7A511718E8AE02D0173408D01450E1
:10358000775D155078591650795917507A590FE2CE
:103590007B518825186E7C518921196E193404E2FB
:1035A00018500008000E195402E2010E8A6F1CD058
:1035B0007751781179117A1103E1010E8A6F14D0D5
:1035C000800E7A1511E17DCD14F07ECD15F0166ACE
:1035D000176A1450775D155078591650795917505D
:1035E0007A5902E2010E8A6F8A510CE17FB508D048
:1035F0000201010EAE6F0201100EAD6FE6EC11F08C
:10360000E2EF20F0060E7F1503E02BDDE2EF20F065
:103610007FB902D0E2EF20F002013F510C0A01E134
:103620009CD20B0A40E00F0A3EE0010A3CE0020A8D
:103630003AE0010A38E00C0A01E0ADD2800EE96EF2
:103640000D0EEA6EEE50061909E1EE50071906E17B
:10365000EE50081903E1EE50091900E122E006C21C
:1036600084FD07C285FD08C286FD09C287FD80CDA5
:1036700006F281CD07F282CD08F283CD09F2020174
:10368000010EAE6F0201040EAD6FE6EC11F084CDB9
:1036900006F285CD07F286CD08F287CD09F2E2EF7A
:1036A00020F0070E3F6F0E512F5D0D01756F020167
:1036B0000F5130590D01766F800E76150CE0020126
:1036C00029512B5D146E2C512A55156E14500D0185
:1036D00075271550762375CD14F076CD15F0166A42
:1036E000176A060EE96E020EEA6EEE501424716F30
:1036F000EE501520726FEE501620736FEE501720AB
:10370000746F710EE96E0D0EEA6EEE50805D716F92
:10371000EE508159726FEE508259736FEE5083599B
:10372000746F7435000E741909E6D880000E715557
:10373000000E7255000E7355000E74551DE2020105
:103740002451010B0AE0010E0D01711905E17251BE
:1037500003E1735101E174510AE00201AE6B020111
:10376000100EAD6FE6EC11F0E2EF20F005D080070F
:10377000000E815B825B835B020131510E5D146E32
:103780000F513255156E166A176A15AE02D01668BB
:103790001768060EE96E020EEA6E1450EE5C0D011B
:1037A000716F1550EE58726F1650EE58736F1750B8
:1037B000EE58746F020131510E5D32510F5911E212
:1037C00029512B5D146E2C512A55156E166A176AF5
:1037D00014500D01715F1550725B1650735B1750DA
:1037E000745B710EE96E0D0EEA6EEE500D01805D98
:1037F000716FEE508159726FEE508259736FEE50B7
:103800008359746F7435000E741909E6D880000E60
:103810007155000E7255000E7355000E745501E37C
:1038200097D0020129512B5D146E2C512A55156E2B
:10383000166A176A0D017151145C72511558735153
:1038400016587451175801E283D002012497249925
:10385000419131C275FD32C276FD0D0171510201F7
:1038600031270D017251020132230D017551020100
:103870000E5D0D01765102010F591BE331510E5DB2
:1038800032510F5915E20E51315D146E32510F5500
:10389000156E0001145002010627000115500201A7
:1038A0000723000E0823092331C20EF232C20FF2A1
:1038B0002FD029512B5D146E2C512A55156E0E51A7
:1038C00014240D01756F02010F5115200D01766F43
:1038D000020131510D01755D020132510D01765920
:1038E00017E275510201315D146E32510D017655AA
:1038F000156E000114500201062700011550020147
:103900000723000E0823092331C20EF232C20FF240
:1039100002012B51315D2C5132590AE329512B5DA3
:10392000146E2C512A55156E1450315F1550325BB0
:103930002B510E5D2C510F590AE329512B5D146E4A
:103940002C512A55156E14500E5F15500F5B3FD049
:1039500002010E51311902E10F51321938E024A74A
:1039600035D024A932D031510E5D146E0F5132552D
:10397000156E166A176A15AE02D0166817681450CD
:10398000065F1550075B1650085B1750095B3151F5
:103990000E5D32510F5914E229512B5D146E2C51DA
:1039A0002A55156E166A176A15AE02D01668176882
:1039B0001450065F1550075B1650085B1750095BE3
:1039C00031C20EF232C20FF24185248924872F5171
:1039D000311902E1305132192FE141B715D0CBEC4A
:1039E0004EF006C037F207C038F208C039F209C0FD
:1039F0003AF2E60E02013727F50E3823050E392379
:103A0000000E3A23409918D0060EE96E020EEA6EB7
:103A1000EE500D01801909E1EE50811906E1EE50DA
:103A2000821903E1EE50831900E106E102012451FD
:103A3000010B02E040994197800EE96E0D0EEA6E8F
:103A4000EE500201065D146EEE500759156EEE50F1
:103A50000859166EEE500959176EB5C2E9FFB6C285
:103A6000EAFF0E0EE926000EEA220D011450EE5C6C
:103A70008B6F1550EE588C6F02011451151106E131
:103A80000D018B518C1102E0020141838BCD14F2A8
:103A90008CCD15F2080E02013F5D2DE1060EE96E98
:103AA000020EEA6EEE500D01801909E1EE50811907
:103AB00006E1EE50821903E1EE50831900E11AE1AC
:103AC00002012451010B16E0CBEC4EF006C037F298
:103AD00007C038F208C039F209C03AF2F30E020109
:103AE0003727FA0E3823020E3923000E3A23408975
:103AF000090E3F6F31D0090E3F5D16E10D017FB118
:103B000012D080CD06F281CD07F282CD08F283CDAE
:103B100009F20201AE6B0201140EAD6FE6EC11F07A
:103B200031EC18F04FD318D00A0E3F5D15E1060EA8
:103B3000E96E020EEA6EEE500D01801909E1EE50B9
:103B4000811906E1EE50821903E1EE50831900E17C
:103B500002E131EC18F036D31FD006C214F007C2D0
:103B600015F008C216F009C217F0142A000E15222B
:103B70001622172214500D01801909E115508119E0
:103B800006E11650821903E11750831900E102E1A2
:103B900031EC18F017D300D00D017FBB13D30B0EFF
:103BA00002013F5D01E10ED30A0E3F5D01E10AD340
:103BB0000C0E3F5D01E106D3B751B81101E14ED2C1
:103BC0000D017C3504E27B510008000E7C5501E2BA
:103BD000E8D0B5C2E9FFB6C2EAFF0C0EE926000E36
:103BE000EA22EF50F00BE842E842E842E842040DD6
:103BF000F350146E156A7B51145C0401846F0D013F
:103C00007C5115580401856F9DEC49F00D017B51E5
:103C10000201B7270D017C510201B823B7510D01F4
:103C20007D5D0201B8510D017E5904E27DCDB7F2F0
:103C30007ECDB8F20201B7510A27B8510B23000E0E
:103C40000C230D233351B725146E3451B821156E52
:103C500014502D5D15502E5946E233512D5D0D0146
:103C6000756F020134512E590D01766F010E7527C3
:103C7000000E762375CDC5F276CDC6F20201C46B77
:103C80000201C269C36944C2C1F233C2BFF234C285
:103C9000C0F2D0DB0D0175510201B75D0201C56FA5
:103CA0000D0176510201B8590201C66F0201C46BC1
:103CB0000201C269C36944C2C1F22BC2BFF22CC265
:103CC000C0F2B8DB0D0175510201B75D146EB85139
:103CD0000D017655156E02012B511424336F2C51B2
:103CE0001520346F15D0B7C2C5F2B8C2C6F20201B2
:103CF000C46B0201C269C36944C2C1F233C2BFF2DC
:103D000034C2C0F297DB0201B7513327B8513423D4
:103D1000221D01E1231D44E0B751225FB851235B0E
:103D2000165122250D01756F0201175123210D0136
:103D3000766F800E761504E002012269236930D087
:103D40000201233504E222510008000E235528E326
:103D50000D01755102010A270D01765102010B2355
:103D6000000E0C230D230D017551020133270D01A7
:103D700076510201342333512D5D34512E590EE218
:103D80002B512D5D146E2E512C55156E010E1426DF
:103D9000000E15221450335F1550345B22692369DD
:103DA0005DD17C3504E27B510008000E7C5501E3B7
:103DB00055D10201B7510D017B25146E0201B85196
:103DC0000D017C21156E14507D5D15507E5909E260
:103DD0007B517D5D0201B76F0D017C517E5902015F
:103DE000B86FB5C2E9FFB6C2EAFF0C0EE926000EB5
:103DF000EA22EF50F00BE842E842E842E842040DC4
:103E0000F3500401846F856B9DEC49F0020133513E
:103E10000D017B25166E020134510D017C21176EB8
:103E200016500201B725146E1750B821156E1450A4
:103E30002D5D15502E596EE233512D5D146E2E51AD
:103E40003455156E010E1426000E15220D017B51FE
:103E5000145C756F7C511558766F800E761531E1C4
:103E600075CDC5F276CDC6F20201C46B0201C269FE
:103E7000C36944C2C1F2020133510D017B25020125
:103E8000BF6F020134510D017C210201C06FD2DAF3
:103E90000D0175510201B75D0201C56F0D0176512B
:103EA0000201B8590201C66F0201C46B0201C26966
:103EB000C36944C2C1F22BC2BFF22CC2C0F2BADA4B
:103EC00028D0B7C2C5F2B8C2C6F20201C46B020163
:103ED000C269C36944C2C1F2020133510D017B259D
:103EE000146E020134510D017C21156E02012B511B
:103EF0002D5D166E2E512C55176E010E1626000ED6
:103F0000172202011650145CBF6F17501558C06F6E
:103F100091DA18D0B7C2C5F2B8C2C6F20201C46BBA
:103F20000201C269C36944C2C1F2020133510D01E9
:103F30007B250201BF6F020134510D017C2102017A
:103F4000C06F78DA0201221D01E1231D09E17BCD5A
:103F500022F27CCD23F2B7C216F2B8C217F27ED09D
:103F600022510D017B5D020123510D017C593DE27F
:103F70007B510201B725146E0D017C510201B8215D
:103F8000156E22511625166E23511721176E1450E7
:103F9000165C155017580FE30D017B510201B72530
:103FA000186E0D017C510201B821196E2251185C66
:103FB0002351195805E2B7C216F2B8C217F210D051
:103FC00022511625146E23511721156E0D017B51B8
:103FD000145C0201166F0D017C5115580201176F18
:103FE0007BCD22F27CCD23F239D07B510201B72563
:103FF000146E0D017C510201B821156E2251162557
:10400000166E23511721176E1450165C1550175851
:1040100025E222511625146E23511721156E0D012C
:104020007B51145C7C51155819E37B510201B72573
:10403000186E0D017C510201B821196E2251185CD5
:10404000166E23511958176E1651165C146E1751BF
:104050001758156E14501627155017230D01885147
:10406000891124E0070E02013F5D04E033C235F2FE
:1040700034C236F240AF0BD00201010EAE6F020126
:10408000100EAD6FE6EC11F09FEC00F00FD0408FFA
:1040900040BD0CD0408DDEEC4EF006C03DF207C0B6
:1040A0003EF20F0E02013D27000E3E230D017FA1BF
:1040B00089D00AC214F00BC215F00CC216F00DC262
:1040C00017F0142A000E15221622172288CD18F098
:1040D00089CD19F01A6A1B6A840EE96E0D0EEA6E1C
:1040E000EE501826EE501922EE501A22EE501B22E6
:1040F0001450181809E11550191806E116501A182D
:1041000003E117501B1800E15DE102010A2B000ECC
:104110000B230C230D233F51090A41E0010A1EE045
:104120000F0A0EE0010A01E044D00C0E3F6F0201BD
:10413000010EAE6F0201110EAD6FE6EC11F042D030
:104140000B0E3F6FDEEC4EF006C03DF207C03EF2B4
:104150001E0E02013D27000E3E232CD0060EE96EF6
:10416000020EEA6EEE500D01801909E1EE50811940
:1041700006E1EE50821903E1EE50831900E10BE1F4
:104180000201AE6B0201100EAD6FE6EC11F031ECE6
:1041900018F018D003D002010A0E3F6F0BD00201B5
:1041A000AE6B0201100EAD6FE6EC11F031EC18F0C1
:1041B00009D000D00201010EAE6F0201100EAD6FEA
:1041C000E6EC11F012000201B951146E156A030EEB
:1041D000145C000E155802E3000E2BD1B9C245F253
:1041E00058EC00F00201BA51BB1103E1010EBA6FA5
:1041F000BB6B29512D5D0D01006F02012A512E5913
:104200000D01016F010E005F000E015B0201BA514A
:10421000BC25146EBB51BD21156E0D011450005DFF
:104220001550015902E2000E04D19FEC00F0030E7C
:104230000201BE1502E1030EBE13BCC204FDBDC2E5
:1042400005FDBA51BC25146EBB51BD21156E14502D
:104250000D01005F1550015B0201BEA314D0BEA189
:104260000DD000CD14F001CD15F0D89015321432D8
:1042700014500D0104271550052305D00D010051E0
:10428000042701510523020129510D010425006F66
:1042900002012A510D010521016F010E0027000EB8
:1042A000012333C202FD34C203FD0201221D01E1DC
:1042B000231D22E022511625146E23511721156E5D
:1042C00014500D01022715500323025102012D5DE8
:1042D0000D01035102012E590FE22B512D5D146E79
:1042E0002E512C55156E010E1426000E1522145059
:1042F0000D01025F1550035B0D0102510201355D96
:104300000D0103510201365917E20D01005102015E
:10431000355D0D010151020136590DE2BEA503D0F4
:10432000000E87D008D000CD35F201CD36F200CD99
:1043300033F201CD34F226D035510D01025D020178
:1043400036510D01035916E2005102012B5D0D019A
:10435000015102012C590DE2BEA503D0000E69D017
:1043600008D000CD35F201CD36F200CD33F201CDCB
:1043700034F208D000CD35F201CD36F200CD33F263
:1043800001CD34F2020135510D01025D02013651B9
:104390000D01035930E2040E0201BE152CE02B5131
:1043A0000D01025D0201C56F02012C510D0103597F
:1043B0000201C66F44C2C4F22BC2C2F22CC2C3F2C5
:1043C00044C2C1F200CDBFF201CDC0F233D8020128
:1043D0003551335D365134590EE20D010051020161
:1043E0002B5D146E2C510D010155156E14500201F8
:1043F000335F1550345B00CD2BF201CD2CF229C276
:104400000EF22AC20FF229C231F22AC232F229C2B6
:104410002FF22AC230F2070E02013F5D08E10201CD
:10442000010EAE6F0201100EAD6FE6EC11F0010E41
:1044300000D012000201C45131E0010A01E05DD058
:10444000C15116E0010A01E028D0C5C2E6FFC6C28C
:10445000E6FFC2C2E6FFC3C2E6FFBFC2E6FFC0C2BC
:10446000E6FF11EC4CF0146E060EE15E145015D010
:10447000BF1D01E1C01D06E0BFC2C2F3C0C2C3F34D
:104480001BEC27F0C5C2D9F3C6C2DAF3C2C2D7F318
:10449000C3C2D8F31CEC2AF000D02FD0C15118E0D1
:1044A000010A01E029D0C21D01E1C31D06E0C2C21C
:1044B000C4F3C3C2C5F33BEC27F0C5C2D4F3C6C2F4
:1044C000D5F3BFC2D2F3C0C2D3F3CCEC29F014D0E1
:1044D000C5C2D0F3C6C2D1F3C2C2CEF3C3C2CFF3BA
:1044E000BFC2CCF3C0C2CDF34BEC28F0ABEC29F04B
:1044F000000901E1FBD700D000D012000201C95130
:1045000018E0010A01E069D0CDC2E6FFCEC2E6FFA5
:10451000CAC2E6FFCBC2E6FFCCC2E6FFC7C2E6FFD7
:10452000C8C2E6FF3CEC4CF0146E070EE15E14507E
:1045300054D0C71D01E1C81D06E0C7C2C2F3C8C2FE
:10454000C3F31BEC27F0100E0D01106F116B02016D
:10455000CD51CE1141E00D0110510201CD5D0D0193
:1045600011510201CE5904E2CDC210FDCEC211FD9F
:1045700010CDE6FF11CDE6FFCAC2E6FFCBC2E6FFD3
:10458000CCC2E6FF000EE66E0D0EE66E3CEC4CF083
:10459000146E070EE15E145010CDD9F311CDDAF38D
:1045A0000301000ED76F0D0ED86F1CEC2AF010CD52
:1045B00014F011CD15F0166A14500201CA271550D7
:1045C000CB231650CC230D0110510201CD5F0D01FC
:0C45D00011510201CE5BBBD700D01200DD
:0445DC008C8695969E
:1045E0009496949A94888C8495949E96200EC66E88
:1045F000C78CC79E60EC2AF003011D0EE06F9BEC98
:104600002AF0146E14C005FD080E0D010515F2E127
:10461000051D010BEFE10301010EB56FB16BB26B2C
:104620000301E46B0301080EE36F0EEC2BF00301B2
:10463000E46B0301090EE36F0EEC2BF00301CD0ECA
:10464000E46F03010C0EE36F0EEC2BF003010A0E76
:10465000E46F03010D0EE36F0EEC2BF00301CD0EA2
:10466000E46F03010A0EE36F0EEC2BF003010A0E58
:10467000E46F03010B0EE36F0EEC2BF00301CE0E83
:10468000E46F0301040EE36F0EEC2BF003010A0E3E
:10469000E46F0301050EE36F0EEC2BF00301CE0E69
:1046A000E46F0301020EE36F0EEC2BF003010A0E20
:1046B000E46F0301030EE36F0EEC2BF00301D66BE6
:1046C0000AEC2AF00301EC6B020EED6F75EC2BF097
:1046D00003010D0EE46F0301E36B0EEC2BF00301FD
:1046E000320EE46F0301020EE36F0EEC2BF00301B8
:1046F000120EE46F0301040EE36F0EEC2BF00301C6
:10470000400EE46F0301030EE36F0EEC2BF0030188
:104710003F0EE46F0301090EE36F0EEC2BF0030173
:10472000120EE46F0301060EE36F0EEC2BF0030193
:104730000C0EE46F0301070EE36F0EEC2BF0030188
:10474000EE0EE46F03010A0EE36F0EEC2BF0030193
:10475000050EE46F03010B0EE36F0EEC2BF003016B
:10476000040EEC6F030EED6F75EC2BF095C3E4F3C4
:104770000301040EE36F0EEC2BF096C3E4F3030188
:10478000050EE36F0EEC2BF097C3E4F30301020E6A
:10479000E36F0EEC2BF098C3E4F30301030EE36F19
:1047A0000EEC2BF099C3E4F30301E36B0EEC2BF05A
:1047B0009AC3E4F30301010EE36F0EEC2BF0030147
:1047C000E46B0301150EE36F0EEC2BF00301120EE8
:1047D000E06F9BEC2AF0146E14C0B6F30301EA6B91
:1047E000010EEB6F0301100EE96F4AEC2BF0030191
:1047F000720EEA6F340EEB6F0301140EE96F4AEC90
:104800002BF00301EA6BEB6B0301E96B4AEC2BF035
:104810000301EC6BED6B75EC2BF00301040EE86FFC
:1048200003011F0EE76F36EF2BF00301010EE26F5D
:10483000C9EC2AF0F3CF14F0F4CF15F000011450B6
:10484000040B01E0010E00D0120003011F0EE06F07
:104850009BEC2AF0146E00011450080B080A01E0CA
:10486000010E00D012000301B55101E034D0010E59
:10487000B56FB1C326FDB2C327FD0D01265F000E43
:10488000275B26CD14F027CD15F0166A176AD8805D
:10489000CD0E14540A0E1554000E1654000E175463
:1048A00004E2CD0E266F0A0E276F0301400EE86F5B
:1048B00003011E0EE76F36EC2BF026CDE4F3030167
:1048C0000C0EE36F0EEC2BF027CDE4F303010D0E7D
:1048D000E36F0EEC2BF012000301190EEC6F010ECA
:1048E000ED6F75EC2BF00301190EE06F9BEC2AF0D5
:1048F000146E14C053FD0E0E0301EC6FED6B75ECDE
:104900002BF003010E0EE06F9BEC2AF0146E14C026
:1049100055FD03010F0EE06F9BEC2AF0146E14C0DE
:1049200056FD0301190EEC6F010EED6F75EC2BF0C7
:104930000301190EE06F9BEC2AF0146E0D01535128
:104940000001145CD0E10C0E0301EC6FED6B75EC13
:104950002BF003010C0EE06F9BEC2AF0146E14C0D8
:1049600053FD03010D0EE06F9BEC2AF0146E14C092
:1049700054FD0D015551535D5651545920E2CD0E51
:10498000186E0A0E196E1A6A1B6A5351555D1C6E19
:10499000565154551D6E1E6A1F6A1C50185C146EC9
:1049A0001D501958156E1E501A58166E1F501B5860
:1049B000176E14C0F3FF15C0F4FF1BD01AD053516B
:1049C000551902E15451561906E1CD0EF36E0A0E47
:1049D000F46E0FD00ED05551535D146E5451565590
:1049E000156E1406000E155A14C0F3FF15C0F4FF1F
:1049F00000D012000301190EEC6F010EED6F75EC83
:104A00002BF00301190EE06F9BEC2AF0146E14C01A
:104A100014FD0301EC6BED6B75EC2BF00D011451E3
:104A200002E1000E8FD00301B55103E11CDF000E3F
:104A300089D0B1C3B3F3B2C3B4F3B3C3E4F3030196
:104A4000E36B0EEC2BF0B4C3E4F30301010EE36F50
:104A50000EEC2BF0140E0301D46FD56B0301000E86
:104A6000D26F0D0ED36FCCEC29F012CD56F413CDCE
:104A700057F43AEC37F0F3CF12FDF4CF13FD00CD2D
:104A800014F001CD15F0166A176AD880CD0E1454B3
:104A90000A0E1554000E1654000E17541BE30D0198
:104AA0000D010051010B16E10D010D010551800BA7
:104AB00011E10D010D010451100B0CE10D01EE0E81
:104AC000D8800255050E035505E30D010D01045173
:104AD000800B01E1FF0000CDB1F301CDB2F3060E72
:104AE000E66EE66A0C0EE66E0D0EE66EB7C3E9FFE3
:104AF000B8C3EAFFE9CF14F0EACF15F014C0E6FF1F
:104B000015C0E6FF11EC4CF0166E060EE15E165075
:104B1000B9C3E9FFBAC3EAFFEF68080E0D01135DE0
:104B20000DE10D01125104E0060E0D01125D06E1CA
:104B3000B9C3E9FFBAC3EAFF12CDEFFF0301B56BBA
:104B4000010E00D012000301CF0EE46F0301020E2C
:104B5000E36F0EEC2BF003010A0EE46F0301030E6A
:104B6000E36F0EEC2BF0DC0E0301BE270A0EBF2311
:104B7000BEC3E4F30301060EE36F0EEC2BF0BFC3DC
:104B8000E4F30301070EE36F0EEC2BF0060E0301B6
:104B9000D96FDA6BBBC3D7F3BCC3D8F31CEC2AF0D4
:104BA000060E0301D96FDA6B0301950ED76F030E62
:104BB000D86F1CEC2AF00301080ED66F0AEC2AF01D
:104BC0000301BD5102E1000E01D0060E0301D66FB4
:104BD0000AEF2AF00301800EE86F03011F0EE76F52
:104BE00036EC2BF00301800EE66F03011F0EE56F1C
:104BF00022EC2BF003010A0EE66F03011C0EE56F99
:104C000022EC2BF00301080EE86F03011F0EE76F83
:104C100036EC2BF0050E0301B65D04E0060EB65D22
:104C200001E0D7D00D01536B546B03011C0EE06FF4
:104C30009BEC2AF0146E0A0E000114140AE10D0117
:104C4000532B000E5423E80E535D030E545901E21A
:104C5000ECD703011C0EE06F9BEC2AF0146E0001F0
:104C60001450020B07E10D01E80E535D030E545979
:104C700001E2AFD00301080EE66F03011F0EE56FDE
:104C800022EC2BF00301E06B9BEC2AF0146E14C0B5
:104C900055FD0301010EE06F9BEC2AF0146E14C069
:104CA00056FD0301060EE06F9BEC2AF0146E14C053
:104CB00057FD0301070EE06F9BEC2AF0146E14C041
:104CC00058FD0D01572B000E582357CDE4F3030177
:104CD000E36B0EEC2BF058CDE4F30301010EE36F10
:104CE0000EEC2BF0070E0301D46FD56B0301590EA8
:104CF000D26F0D0ED36F50DB0D01606B100E605D37
:104D00005BE203011C0EE06F9BEC2AF0146E0001C5
:104D10001450020B50E00D015C51200B4CE00301DC
:104D2000800EE86F03011F0EE76F36EC2BF00301D6
:104D3000800EE66F03011F0EE56F22EC2BF00301DE
:104D40000A0EE66F03011C0EE56F22EC2BF0030147
:104D5000080EE86F03011F0EE76F36EC2BF003011E
:104D60001C0EE06FE8DB146E0A0E0001141401E162
:104D7000F6D70301080EE66F03011F0EE56F22EC64
:104D80002BF057CDE4F30301E36B0EEC2BF058CD81
:104D9000E4F30301010EE36F0EEC2BF0070E0301A9
:104DA000D46FD56B0301590ED26F0D0ED36FF4DAA9
:104DB0000D01602BA3D700D055CDE4F30301E36BC5
:104DC0000EEC2BF056CDE4F30301010EE36F0EEC75
:104DD0002BF01200140E0301156AB325146EB451A2
:104DE00015221450C0250D01326F15500301C12149
:104DF0000D01336F32CD14F033CD15F0166A176AFA
:104E0000D880CD0E14540A0E1554000E1654000E00
:104E1000175404E2CE0E325F0A0E335B32CDE4F358
:104E20000301E36B0EEC2BF033CDE4F30301010E31
:104E3000E36F0EEF2BF00301020EE06F7CDB146ECC
:104E400014C053FD0301030EE06F75DB146E14C034
:104E500054FDC2C3E4F30301020EE36FDFDBC3C3FF
:104E6000E4F30301030EE36FD9DB53CDF3FF54CD1D
:104E7000F4FF00D012000301E06B5DDB146E14C080
:104E800053FD0301010EE06F56DB146E14C054FD98
:104E9000C4C3E4F30301E36BC1DBC5C3E4F3030163
:104EA000010EE36FBBDB53CDF3FF54CDF4FF00D015
:104EB0001200140E0301156AB325146EB4511522A5
:104EC0001450C6250D01166F15500301C7210D01A1
:104ED000176F16CD14F017CD15F0166A176AD88023
:104EE000CD0E14540A0E1554000E1654000E17540D
:104EF00004E2CE0E165F0A0E175B0301E06B1BDBAC
:104F0000146E14C018FD0301010EE06F14DB146E63
:104F100014C019FD16CDE4F30301E36B7FDB17CD5D
:104F2000E4F30301010EE36F79DBC8C3CAF3C9C31D
:104F3000CBF315D8F3CF16FDF4CF17FD18CDE4F35E
:104F40000301E36B6BDB19CDE4F30301010EE36FA7
:104F500065DB16CDF3FF17CDF4FF00D012000D0175
:104F6000556B566B576B586B0301E06BE4DA146EAC
:104F700014C053FD0301010EE06FDDDA146E14C09E
:104F800054FD0301CA51CB1152E0140ED880CA550A
:104F9000000ECB5505E20D01140E596F5A6B04D06B
:104FA000CAC359FDCBC35AFD59CDD4F35ACDD5F35D
:104FB00003015B0ED26F0D0ED36FEED90D01595167
:104FC0000301CA5F0D015A510301CB5B0D0159A1C9
:104FD0000AD05B0E5925E96E0D0E5A21EA6EEF6A72
:104FE000592B000E5A235B0E6F6F0D0E706F5951C7
:104FF0005A111CE06FCDE9FF70CDEAFF020E6F275A
:10500000000E7023EECF14F0EFCF15F00001145016
:105010000D015527000115500D015623000E572391
:105020005823020E595F000E5A5BE1D7AAD753CD21
:10503000E4F30301E36BF2DA54CDE4F30301010E70
:10504000E36FECDA55CD14F056CD15F0166A176AF9
:1050500057CD18F058CD19F01A6A1B6A145018244D
:105060000D01556F15501920566F16501A20576FA5
:1050700017501B20586F575155275851562355CD5F
:1050800014F056CD15F0141E151E14C0F3FF15C0F4
:10509000F4FF00D012000D01536B546B556B566B2F
:1050A000576B586B0301CC1D01E1CD1D14E10D01BF
:1050B000010E576F0301020EE06F3DDA146E00011E
:1050C00014500301CC6FCD6B0301030EE06F33DA94
:1050D000146E14C0CDF30301CE1D01E1CF1D13E109
:1050E0000D01010E586F0301E06B25DA146E00010B
:1050F00014500301CE6FCF6B0301010EE06F1BDA7A
:10510000146E14C0CFF30301010ED880D055000EE9
:10511000D15566E30D0158510DE10301E06B0BDA47
:10512000146E14C053FD0301010EE06F04DA146E17
:1051300014C054FD0D0157510EE10301020EE06F42
:10514000FAD9146E14C055FD0301030EE06FF3D9B4
:10515000146E14C056FDCEC3E4F30301E36B5EDAB4
:10516000CFC3E4F30301010EE36F58DACCC3E4F3D9
:105170000301020EE36F52DACDC3E4F30301030E21
:10518000E36F4CDA0301D0C314F0D1C315F0D0079C
:10519000000ED15B1450151005E0EAD80301D66F5C
:1051A00039D9F0D70D0158510BE153CDE4F3030188
:1051B000E36B34DA54CDE4F30301010EE36F2EDA2E
:1051C0000D0157510CE155CDE4F30301020EE36FDD
:1051D00025DA56CDE4F30301030EE36F1FDABAD0EC
:1051E0000D01575116E00301CC51D0250D01556F2B
:1051F0000301CD51D1210D01566F55CDE4F30301CB
:10520000020EE36F0BDA56CDE4F30301030EE36FF6
:1052100005DACEC314F0CFC315F01406000E155AEC
:1052200014500301D0271550D12303011F0EE06F46
:1052300082D9146E000114BAF8D7CEC3E4F3030187
:10524000100EE36FEBD9CFC3E4F30301110EE36F4C
:10525000E5D9CCC3E4F30301140EE36FDFD9CDC36A
:10526000E4F30301150EE36FD9D9CEC314F0CFC315
:1052700015F0166A176AD880CD0E14540A0E15540C
:10528000000E1654000E175415E3D0C318F0D1C306
:1052900019F01A6A1B6AD880CD0E18540A0E1954D8
:1052A000000E1A54000E1B5405E2CE0E0301D05F0F
:1052B0000A0ED15BD0C3E4F30301120EE36FAED943
:1052C000D1C3E4F30301130EE36FA8D90301100E59
:1052D000E66F03011F0EE56FB5D90301200EE86FDD
:1052E00003011F0EE76FC2D90D01585133E00301CE
:1052F000D02B000ED123CEC314F0CFC315F0166A05
:10530000176AD880CD0E14540A0E1554000E165488
:10531000000E175414E3D0C318F0D1C319F01A6A61
:105320001B6AD880CD0E18540A0E1954000E1A5458
:10533000000E1B5404E2CE0ED05F0A0ED15BD0C328
:10534000E4F30301E36B6AD9D1C3E4F30301010E73
:10535000E36F64D9120003011F0EE06FECD8146EE6
:1053600000011450200B200A01E0010E00D01200B1
:105370008C969E963A0EC96E9EA6FED79E96C9CF73
:1053800059FDC96A9EA6FED79E96C9CF59FD8C8647
:105390000D01595100D012008C969E963A0EC96E9E
:1053A0000D01956B966B0301D251D31103E0D20727
:1053B000000ED35B9EA6FED79E96C9CF97FD030134
:1053C000D4510D01955D0301D5510D0196591BE294
:1053D000C96A952B000E96230301D251D3110DE01B
:1053E000D22B000ED3239EA6FED79E96C950D2C3C1
:1053F000E9FFD3C3EAFFEF6E05D09EA6FED79E96C7
:10540000C9CF97FDDCD78C8695CDF3FF96CDF4FF01
:1054100000D012008C969E967A0EC96E9EA6FED77C
:105420009E96C9CF67FDD6C3C9FF9EA6FED79E969E
:10543000C9CF67FD8C8612008C969E967A0EC96E37
:105440009EA6FED79E96C9CF67FD0301D951DA11FA
:1054500011E0D7C3E9FFD8C3EAFFEF50C96ED72BDD
:10546000000ED823D907DA5B9EA6FED79E96C9CF39
:1054700067FDEBD78C8612008C969E967A0EC96ECD
:105480009EA6FED79E96C9CF07FD0301DE51DF1110
:1054900015E0DBC3F6FFDCC3F7FFDDC3F8FF080050
:1054A000F550C96EDB2B000EDC23DD23DE07DF5B4E
:1054B0009EA6FED79E96C9CF07FDE7D78C86120021
:1054C0000301200EE66F03011E0EE56FBBD8010E2F
:1054D0000D01016F026B0D0101CD14F002CD15F02D
:1054E0000107000E025B1450151006E00A0EE66E6E
:1054F0007FEC50F0E552EFD78C969E96C9689EA639
:10550000FED79E96C9CF00FD8C86010E0D01036F5C
:10551000046B0D0103CD14F004CD15F00307000E4C
:10552000045B1450151006E00A0EE66E7FEC50F096
:10553000E552EFD712008C969E96E0C3C9FF9EA657
:10554000FED79E96C9CF95FDC96A9EA6FED79E96A8
:10555000C9CF95FD8C860D01955100D012008C9617
:105560009E96E1C3C9FF9EA6FED79E96C9CF02FDB7
:10557000C96A9EA6FED79E96C9CF02FDC96A9EA69D
:10558000FED79E96C9CF02FD8C860D01025100D038
:1055900012000301140EEC6F020EED6FA6D8E2C3E9
:1055A000E4F30301140EE36F39D80301010EE46F35
:1055B0000301120EE36F32D803010A0EEC6F030EE3
:1055C000ED6F93D803010A0EE16FC9DF146E00017D
:1055D00014B0F8D70301140EEC6F020EED6F85D8EE
:1055E0000301E46B0301120EE36F18D80301180ED8
:1055F000E16FB5DF146E14C000FD0301190EE16FF9
:10560000AEDF146E14C001FD0301EC6BED6B6DD8C1
:1056100000CDF3FF01CDF4FF00D012008C969E96D2
:10562000400E0301E311C96E9EA6FED79E96C9CF18
:1056300095FDE4C3C9FF9EA6FED79E96C9CF95FDF2
:105640008C8612008C969E96A00E0301E511C96E01
:105650009EA6FED79E96C9CF61FDE6C3C9FF9EA652
:10566000FED79E96C9CF61FD8C8612008C969E96C1
:10567000800E0301E711C96E9EA6FED79E96C9CF84
:1056800061FDE8C3C9FF9EA6FED79E96C9CF61FD06
:105690008C8612000301140EEC6F020EED6F25D8FC
:1056A000E9C3E4F30301140EE36FB8DFEAC3E4F3E4
:1056B0000301160EE36FB2DFEBC3E4F30301170E31
:1056C000E36FACDF03010A0EEC6F030EED6F0DD834
:1056D00003010A0EE16F43DF146E000114B0F8D726
:1056E0000301EC6BED6B75EF2BF00301030EE66F1E
:1056F00003011F0EE56FA6DFEDC3E8F303011F0EE4
:10570000E76F36EF2BF00301040EE66F03011F0E67
:10571000E56F98DF03011D0EE06F0DDF146E0001D1
:1057200014B4F8D703011F0EE06F05DF146E0001FB
:1057300014B6F8D70301200EE86F03011E0EE76FC1
:1057400036EF2BF00301200EE66F03011E0EE56F0E
:1057500079DF03011D0EE06FEEDE146E000114A070
:10576000F8D70301040EE86F03011F0EE76F36EF51
:105770002BF00301150EEC6F030EED6FB6DFEEC3D9
:10578000E4F30301150EE36F49DF0301EC6BED6BEE
:1057900075EF2BF00301150EEC6F030EED6FA5DF17
:1057A0000301150EE06FC7DE146E14C000FD030187
:0E57B000EC6BED6B9ADF0D01005100D0120082
:0257BE000D01DB
:1057C000006B080E005D06E200CDCEF12CDB0D0172
:1057D000002BF7D70101C18312000D01000E336FBA
:1057E000010E346F326B080E325D01E306D133CD0A
:1057F000E9FF34CDEAFF0C0EE926000EEA22EECFD7
:1058000014F0EFCF15F0166A176A14501510161021
:10581000171001E0ECD033CDE9FF34CDEAFF0C0ED8
:10582000C7C1EBFF0D0EC8C1EBFF0101C751C81185
:105830001FE1000ED880CB55200ECC5505E3000E9D
:10584000CB5D100ECC5903E2CB6B100ECC6FCBC1ED
:1058500014F0CCC115F0CB2B000ECC2333CDE9FFD7
:1058600034CDEAFF0C0E14C0EBFF0D0E15C0EBFF9C
:10587000C65105E0C251C311C411C51121E10A0E80
:10588000E66EE66AE66833CDE9FF34CDEAFFE9CF9C
:1058900014F0EACF15F014C0E6FF15C0E6FF5FEC88
:1058A0004CF0166E050EE15E165033CDE9FF34CD97
:1058B000EAFF0E0EE926000EEA22050EEF6E88D0F2
:1058C000C651040A61E0070A32E0020A03E0030A53
:1058D00001E07ED033CDE9FF34CDEAFFC2C1EEFF57
:1058E000C3C1EEFFC4C1EEFFC5C1EEFF020EC65D2F
:1058F00002E0000E01D0010E146E33CDE9FF34CD6D
:10590000EAFF140EE926000EEA221450010BF36E92
:10591000FE0EEF14F310EF6E33CDE9FF34CDEAFF46
:105920000E0EE926000EEA22010EEF6E51D033CDA5
:10593000E9FF34CDEAFFC2C1EEFFC3C1EEFFC4C12F
:10594000EEFFC5C1EEFF33CDE9FF34CDEAFF130E04
:10595000E926000EEA22EF6A33CDE9FF34CDEAFFF3
:105960000F0EE926000EEA22260EEE6EEE6AEE6AB1
:10597000EE6A33CDE9FF34CDEAFF0E0EE926000EC4
:10598000EA22020EEF6E24D00A0EE66EE66AC2C16B
:10599000E6FFC3C1E6FF33CDE9FF34CDEAFFE9CF2F
:1059A00014F0EACF15F014C0E6FF15C0E6FF11ECC5
:1059B0004CF0166E060EE15E165033CDE9FF34CD85
:1059C000EAFF0E0EE926000EEA22050EEF6E00D069
:1059D00033CDE9FF34CDEAFF0A0EC9C1EBFF0B0E50
:1059E000CAC1EBFF32CDB8F10D01325108D0170E0C
:1059F0003327000E3423322BF6D6FF0E00D01200D0
:105A00000D011C6B080E1C5D01E3F5D11C51170D37
:105A1000F3CFE9FFF4CFEAFF000EE926010EEA22F8
:105A20000E0EE926000EEA22EF50050811E01C5187
:105A3000170DF3CFE9FFF4CFEAFF000EE926010EC0
:105A4000EA220E0EE926000EEA22EF50040801E1D8
:105A5000CFD11C51170DF3CFE9FFF4CFEAFF000EB1
:105A6000E926010EEA220E0EE926000EEA22EF5088
:105A7000050A01E1BCD1010A01E1B9D1070A01E13E
:105A8000F9D0010A01E1BBD0020A54E0010A01E0A9
:105A9000AED1DAEC38F000094CE00D011C51170DC5
:105AA000F3CFE9FFF4CFEAFF000EE926010EEA2268
