:020000040000FA
:060000004AEF13F01200AC
:0600080022EF00F01200DF
:0600180022EF00F01200CF
:06002A000200D0260000D8
:10003000000F000008000000C0260000E4000000DF
:0400400010000000AC
:0C004400D8CFE4FFE0CFE4FFE46EDACF99
:10005000E4FFE2CFDAFFE652E552E5CFDAFFE55002
:10006000E5CFE0FFE5CFD8FF1000D9CFE6FFE1CF25
:10007000D9FF020EE12626D8300EDE6E750EDD6E3B
:10008000DFCF00F0DF06010EDBCF01F001E2DB067F
:100090000050011001E0F4D71BEC09F084EC09F0EA
:1000A00050EC06F07AEC06F03FD8F8EC09F0F8D7FF
:1000B000020EE15C02E2E16AE552E16EE552E7CF51
:1000C000D9FF1200700ED36E9B9C926AF00E896E5F
:1000D0008988898ECF0E936E280E8B6E946A956AEE
:1000E0008C6A070E966E0F0E7C6EF19EF292F2886D
:1000F000F19CF090F086F19AF092F088F1987E6A87
:100100007F6A7E8CC16A8C0EC06E1D0EC26E0F0E91
:10011000CD6E040ECA6ECB68800ED56E320EC66EE2
:10012000C76AF28CF29E120084EC09F0010EE66EB2
:100130000F010105E66E00CFE6FF67EC0AF0E5521D
:10014000E552E552010EE66E01CFE6FF00CFE6FF75
:1001500067EC0AF0E552E552E552010EE66E0F013A
:100160000129E66E00CFE6FF67EC0AF0E552E552A2
:10017000E552010EE66E0F010105E66E0029E66EFE
:1001800067EC0AF0E552E552E552010EE66E01CF4A
:10019000E6FF0F010029E66E67EC0AF0E552E55232
:1001A000E552010EE66E0F010129E66E0029E66EAA
:1001B00067EC0AF0E552E552E552010EE66E0F01DA
:1001C0000105E66E0005E66E67EC0AF0E552E552C1
:1001D000E552010EE66E01CFE6FF0F010005E66E67
:1001E00067EC0AF0E552E552E552010EE66E0F01AA
:1001F0000129E66E0005E66E67EC0AF0E552E5526D
:10020000E552010EE66E01CFE6FF020E0F0100255A
:10021000E66E67EC0AF0E552E552E552010EE66E35
:1002200001CFE6FF020E0F01005DE66E67EC0AF0FB
:10023000E552E552E552010EE66E020E0F01012570
:10024000E66E00CFE6FF67EC0AF0E552E552E552B4
:10025000010EE66E020E0F01015DE66E00CFE6FFB5
:1002600067EC0AF0E552E552E552010EE66E060E25
:100270000F01045DE66EE66A67EC0AF0E552E552AE
:10028000E552010EE66E050E0F01045DE66EE66AAC
:1002900067EC0AF0E552E552E552010EE66E040EF7
:1002A0000F01045DE66EE66A67EC0AF0E552E5527E
:1002B000E552010EE66E030E0F01045DE66EE66A7E
:1002C00067EC0AF0E552E552E552010EE66E020EC9
:1002D0000F01045DE66EE66A67EC0AF0E552E5524E
:1002E000E552010EE66E0F010405E66EE66A67EC64
:1002F0000AF0E552E552E552010EE66E04CFE6FF44
:10030000E66A67EC0AF0E552E552E552010EE66E48
:100310000F010429E66EE66A67EC0AF0E552E55241
:10032000E552010EE66E020E0F010425E66EE66A46
:1003300067EC0AF0E552E552E552010EE66E030E57
:100340000F010425E66EE66A67EC0AF0E552E55215
:10035000E552010EE66E040E0F010425E66EE66A14
:1003600067EC0AF0E552E552E552010EE66E050E25
:100370000F010425E66EE66A67EC0AF0E552E552E5
:10038000E552010EE66E060E0F010425E66EE66AE2
:1003900067EC0AF0E552E552E552010EE66E060EF4
:1003A0000F01045DE66E010EE66E67EC0AF0E552A1
:1003B000E552E552010EE66E050E0F01045DE66E94
:1003C000010EE66E67EC0AF0E552E552E552010EC9
:1003D000E66E040E0F01045DE66E010EE66E67EC3C
:1003E0000AF0E552E552E552010EE66E030E0F01EA
:1003F000045DE66E010EE66E67EC0AF0E552E5522A
:10040000E552010EE66E020E0F01045DE66E010E6E
:10041000E66E67EC0AF0E552E552E552010EE66E33
:100420000F010405E66E010EE66E67EC0AF0E55278
:10043000E552E552010EE66E04CFE6FFE66E67EC8C
:100440000AF0E552E552E552010EE66E0F0104296D
:10045000E66E010EE66E67EC0AF0E552E552E552F3
:10046000010EE66E020E0F010425E66E010EE66E29
:1004700067EC0AF0E552E552E552010EE66E030E16
:100480000F010425E66E010EE66E67EC0AF0E552F8
:10049000E552E552010EE66E040E0F010425E66EEC
:1004A000010EE66E67EC0AF0E552E552E552010EE8
:1004B000E66E050E0F010425E66E010EE66E67EC92
:1004C0000AF0E552E552E552010EE66E060E0F0106
:1004D0000425E66E010EE66E67EC0AF0E552E55281
:1004E000E552010EE66E060E0F01045DE66E020E89
:1004F000E66E67EC0AF0E552E552E552010EE66E53
:10050000050E0F01045DE66E020EE66E67EC0AF062
:10051000E552E552E552010EE66E040E0F01045D50
:10052000E66E020EE66E67EC0AF0E552E552E55221
:10053000010EE66E030E0F01045DE66E020EE66E1E
:1005400067EC0AF0E552E552E552010EE66E020E46
:100550000F01045DE66E020EE66E67EC0AF0E552EE
:10056000E552E552010EE66E0F010405E66E020E3D
:10057000E66E67EC0AF0E552E552E552010EE66ED2
:1005800004CFE6FF020EE66E67EC0AF0E552E55294
:10059000E552010EE66E0F010429E66E020EE66ECC
:1005A00067EC0AF0E552E552E552010EE66E020EE6
:1005B0000F010425E66E020EE66E67EC0AF0E552C6
:1005C000E552E552010EE66E030E0F010425E66EBC
:1005D000020EE66E67EC0AF0E552E552E552010EB6
:1005E000E66E040E0F010425E66E020EE66E67EC61
:1005F0000AF0E552E552E552010EE66E050E0F01D6
:100600000425E66E020EE66E67EC0AF0E552E5524E
:10061000E552010EE66E060E0F010425E66E020E8F
:10062000E66E67EC0AF0E552E552E552010EE66E21
:10063000060E0F01045DE66E030EE66E67EC0AF02F
:10064000E552E552E552010EE66E050E0F01045D1E
:10065000E66E030EE66E67EC0AF0E552E552E552EF
:10066000010EE66E040E0F01045DE66E030EE66EEB
:1006700067EC0AF0E552E552E552010EE66E030E14
:100680000F01045DE66E030EE66E67EC0AF0E552BC
:10069000E552E552010EE66E020E0F01045DE66EB4
:1006A000030EE66E67EC0AF0E552E552E552010EE4
:1006B000E66E0F010405E66E030EE66E67EC0AF0C7
:1006C000E552E552E552010EE66E04CFE6FF030E59
:1006D000E66E67EC0AF0E552E552E552010EE66E71
:1006E0000F010429E66E030EE66E67EC0AF0E55290
:1006F000E552E552010EE66E020E0F010425E66E8C
:10070000030EE66E67EC0AF0E552E552E552010E83
:10071000E66E030E0F010425E66E030EE66E67EC2F
:100720000AF0E552E552E552010EE66E040E0F01A5
:100730000425E66E030EE66E67EC0AF0E552E5521C
:10074000E552010EE66E050E0F010425E66E030E5E
:10075000E66E67EC0AF0E552E552E552010EE66EF0
:10076000060E0F010425E66E030EE66E67EC0AF036
:10077000E552E552E552010EE66E060E0F01055DEB
:10078000E66E7F0EE66E67EC0AF0E552E552E55242
:10079000010EE66E050E0F01055DE66E7F0EE66E3C
:1007A00067EC0AF0E552E552E552010EE66E040EE2
:1007B0000F01055DE66E7F0EE66E67EC0AF0E5520E
:1007C000E552E552010EE66E030E0F01055DE66E81
:1007D0007F0EE66E67EC0AF0E552E552E552010E37
:1007E000E66E020E0F01055DE66E7F0EE66E67ECAB
:1007F0000AF0E552E552E552010EE66E0F010505DD
:10080000E66E7F0EE66E67EC0AF0E552E552E552C1
:10081000010EE66E05CFE6FF7F0EE66E67EC0AF08E
:10082000E552E552E552010EE66E0F010529E66E2E
:100830007F0EE66E67EC0AF0E552E552E552010ED6
:10084000E66E020E0F010525E66E7F0EE66E67EC82
:100850000AF0E552E552E552010EE66E030E0F0175
:100860000525E66E7F0EE66E67EC0AF0E552E5526E
:10087000E552010EE66E040E0F010525E66E7F0EB1
:10088000E66E67EC0AF0E552E552E552010EE66EBF
:10089000050E0F010525E66E7F0EE66E67EC0AF089
:1008A000E552E552E552010EE66E060E0F010525F2
:1008B000E66E7F0EE66E67EC0AF0E552E552E55211
:1008C000010EE66E060E0F01055DE66E7E0EE66E0B
:1008D00067EC0AF0E552E552E552010EE66E050EB0
:1008E0000F01055DE66E7E0EE66E67EC0AF0E552DE
:1008F000E552E552010EE66E040E0F01055DE66E4F
:100900007E0EE66E67EC0AF0E552E552E552010E06
:10091000E66E030E0F01055DE66E7E0EE66E67EC79
:100920000AF0E552E552E552010EE66E020E0F01A5
:10093000055DE66E7E0EE66E67EC0AF0E552E55266
:10094000E552010EE66E0F010505E66E7E0EE66EBF
:1009500067EC0AF0E552E552E552010EE66E05CF6E
:10096000E6FF7E0EE66E67EC0AF0E552E552E552D0
:10097000010EE66E0F010529E66E7E0EE66E67EC4F
:100980000AF0E552E552E552010EE66E020E0F0145
:100990000525E66E7E0EE66E67EC0AF0E552E5523E
:1009A000E552010EE66E030E0F010525E66E7E0E82
:1009B000E66E67EC0AF0E552E552E552010EE66E8E
:1009C000040E0F010525E66E7E0EE66E67EC0AF05A
:1009D000E552E552E552010EE66E050E0F010525C2
:1009E000E66E7E0EE66E67EC0AF0E552E552E552E1
:1009F000010EE66E060E0F010525E66E7E0EE66E12
:100A000067EC0AF0E552E552E552010EE66E060E7D
:100A10000F01055DE66E7D0EE66E67EC0AF0E552AD
:100A2000E552E552010EE66E050E0F01055DE66E1C
:100A30007D0EE66E67EC0AF0E552E552E552010ED6
:100A4000E66E040E0F01055DE66E7D0EE66E67EC48
:100A50000AF0E552E552E552010EE66E030E0F0173
:100A6000055DE66E7D0EE66E67EC0AF0E552E55236
:100A7000E552010EE66E020E0F01055DE66E7D0E7B
:100A8000E66E67EC0AF0E552E552E552010EE66EBD
:100A90000F010505E66E7D0EE66E67EC0AF0E55285
:100AA000E552E552010EE66E05CFE6FF7D0EE66EDD
:100AB00067EC0AF0E552E552E552010EE66E0F01D1
:100AC0000529E66E7D0EE66E67EC0AF0E552E5520A
:100AD000E552010EE66E020E0F010525E66E7D0E53
:100AE000E66E67EC0AF0E552E552E552010EE66E5D
:100AF000030E0F010525E66E7D0EE66E67EC0AF02B
:100B0000E552E552E552010EE66E040E0F01052591
:100B1000E66E7D0EE66E67EC0AF0E552E552E552B0
:100B2000010EE66E050E0F010525E66E7D0EE66EE2
:100B300067EC0AF0E552E552E552010EE66E060E4C
:100B40000F010525E66E7D0EE66E67EC0AF0E552B4
:100B5000E552E552010EE66E060E0F01055DE66EEA
:100B60007C0EE66E67EC0AF0E552E552E552010EA6
:100B7000E66E050E0F01055DE66E7C0EE66E67EC17
:100B80000AF0E552E552E552010EE66E040E0F0141
:100B9000055DE66E7C0EE66E67EC0AF0E552E55206
:100BA000E552010EE66E030E0F01055DE66E7C0E4A
:100BB000E66E67EC0AF0E552E552E552010EE66E8C
:100BC000020E0F01055DE66E7C0EE66E67EC0AF024
:100BD000E552E552E552010EE66E0F010505E66E9F
:100BE0007C0EE66E67EC0AF0E552E552E552010E26
:100BF000E66E05CFE6FF7C0EE66E67EC0AF0E55286
:100C0000E552E552010EE66E0F010529E66E7C0EF7
:100C1000E66E67EC0AF0E552E552E552010EE66E2B
:100C2000020E0F010525E66E7C0EE66E67EC0AF0FB
:100C3000E552E552E552010EE66E030E0F01052561
:100C4000E66E7C0EE66E67EC0AF0E552E552E55280
:100C5000010EE66E040E0F010525E66E7C0EE66EB3
:100C600067EC0AF0E552E552E552010EE66E050E1C
:100C70000F010525E66E7C0EE66E67EC0AF0E55284
:100C8000E552E552010EE66E060E0F010525E66EF1
:100C90007C0EE66E67EC0AF0E552E552E552120072
:100CA00081B003D00F010407040781B203D00F0104
:100CB000042B042B81B403D00F010507050781B66F
:100CC00003D00F01052B052B070E0F01045D02E277
:100CD000070E046F0451380802E2380E046F070E45
:100CE000055D02E2070E056F0551380802E2380E75
:100CF000056F12007A0E0F01005D01E2EED0055182
:100D0000015D0F01086F0851060A01E1D1D0030A05
:100D100001E1B9D0010A01E1A1D0070A01E189D0BE
:100D2000010A74E0030A5FE0010A55E0FF0A49E0A6
:100D3000010A3DE0030A2FE0010A21E0070A13E05F
:100D4000010A05E0010EE66EEDD9E552C6D00F01AD
:100D5000033504E3030E0325036F03D0030E035D85
:100D6000036F026DBAD00F01033504E3030E0325B0
:100D7000036F03D0030E035D036F026DAED00F014E
:100D8000033504E3020E0325036F03D0020E035D57
:100D9000036F026DA2D00F01033504E3020E032599
:100DA000036F03D0020E035D036F026D96D00F0137
:100DB000033503E30329036F02D00305036F026DBC
:100DC0008CD00F01033503E30329036F02D0030521
:100DD000036F026D82D00F01033501E302D003CF10
:100DE00003FF026D7AD0000E0F01E76E0319E8AE23
:100DF00002D0033503D0E750D880035503E203291E
:100E0000036F02D00305036F026D67D0000E0F0160
:100E1000E76E0319E8AE02D0033503D0E750D8805F
:100E2000035503E20329036F02D00305036F026D2C
:100E300054D0000E0F01E76E0319E8AE02D003355F
:100E400003D0E750D880035504E2020E0325036F58
:100E500003D0020E035D036F026D3FD0000E0F0141
:100E6000E76E0319E8AE02D0033503D0E750D8800F
:100E7000035504E2020E0325036F03D0020E035D47
:100E8000036F026D2AD0000E0F01E76E0319E8AE62
:100E900002D0033503D0E750D880035504E2030E97
:100EA0000325036F03D0030E035D036F026D15D09E
:100EB000000E0F01E76E0319E8AE02D0033503D030
:100EC000E750D880035504E2030E0325036F03D0D7
:100ED000030E035D036F026D00D00F010051070880
:100EE00001E2EED00451015D0F01086F0851060ABE
:100EF00001E1D1D0030A01E1B9D0010A01E1A1D099
:100F0000070A01E189D0010A74E0030A5FE0010ADF
:100F100055E0FF0A49E0010A3DE0030A2FE0010A1B
:100F200021E0070A13E0010A05E0020EE66EFAD896
:100F3000E552C6D00F01033504E3030E0325036F0A
:100F400003D0030E035D036F026DBAD00F010335AA
:100F500004E3030E0325036F03D0030E035D036F49
:100F6000026DAED00F01033504E3020E0325036FBB
:100F700003D0020E035D036F026DA2D00F01033593
:100F800004E3020E0325036F03D0020E035D036F1B
:100F9000026D96D00F01033503E30329036F02D0DE
:100FA0000305036F026D8CD00F01033503E30329A2
:100FB000036F02D00305036F026D82D00F0103356A
:100FC00001E302D003CF03FF026D7AD0000E0F01C0
:100FD000E76E0319E8AE02D0033503D0E750D8809E
:100FE000035503E20329036F02D00305036F026D6B
:100FF00067D0000E0F01E76E0319E8AE02D003358B
:1010000003D0E750D880035503E20329036F02D0D1
:101010000305036F026D54D0000E0F01E76E031934
:10102000E8AE02D0033503D0E750D880035504E280
:10103000020E0325036F03D0020E035D036F026DE2
:101040003FD0000E0F01E76E0319E8AE02D0033562
:1010500003D0E750D880035504E2020E0325036F46
:1010600003D0020E035D036F026D2AD0000E0F0144
:10107000E76E0319E8AE02D0033503D0E750D880FD
:10108000035504E2030E0325036F03D0030E035D33
:10109000036F026D15D0000E0F01E76E0319E8AE65
:1010A00002D0033503D0E750D880035504E2030E85
:1010B0000325036F03D0030E035D036F026D00D0A1
:1010C0000F010151030803E23D0E015D0BE3036DC7
:1010D000030E015D02E2030E016F01513D0802E2C1
:1010E0003D0E016F040EE76E0319E8AE02D0033522
:1010F00003D0E750D880035502E2040E036FFC0EC4
:10110000E76E0319E8AE02D0E73402D0E750035D82
:1011100002E2FC0E036F00510225006F015103250E
:10112000016F1200D9CFE6FFE1CFD9FF040EE1260F
:10113000FE0EDB0406E10F01062BFE0E026F010E10
:10114000036FFE0EDB50020805E10F01072B020EB4
:10115000026F0369080EE66E070EE66E300E0F0191
:101160000625E66E2DEC0CF0E552E552E5526E0ECA
:10117000E66E070EE66E300E0F010725E66E2DECCB
:101180000CF0E552E552E552F8EC09F0050E0F01BE
:10119000065D03E0050E075D08E1010EE66EC6EC94
:1011A0000FF0E5520F01066B076B300EDE6E750E09
:1011B000DD6EDFCF00F0DF06010EDBCF01F001E2D4
:1011C000DB060050011015E00A0EF36E020EF3CF9D
:1011D000DBFF030EDB6A020EDBCF00F0DB06030E43
:1011E000DBCF01F001E2DB060050011001E0F3D794
:1011F000E0D78150010B0AE08150020B07E08150DB
:10120000040B04E08150080B01E0F3D70F01400EFE
:10121000006F200E016F046F056FE66AC6EC0FF0D9
:10122000E552040EE15C02E2E16AE552E16EE5524C
:06123000E7CFD9FF120018
:0A123600D9CFE6FFE1CFD9FF020E89
:10124000E126898E899811D9E66A29EC10F0E552D9
:101250005BD8CED8010EE66E04EC10F0E552010E1C
:10126000E66E92EC0FF0E552010EE66E0EEC11F018
:10127000E552010EE66E5DEC10F0E5523F0EE66EB3
:10128000E0EC0FF0E552230EE66E33EC11F0E55280
:10129000220EE66EEBEC10F0E552A00EE66E9DEC31
:1012A00010F0E552E66A79EC10F0E552E66A8FEC50
:1012B0000EF0E5525C0EE66EA9EC0EF0E552010E62
:1012C000E66E29EC10F0E552E66AC6EC0FF0E55246
:1012D000020EE66EF5EC0DF0E552E66A0EEC0EF04D
:1012E000E552E66AACEC0FF0E552800EE66ECCEC0F
:1012F0000EF0E552020EE15C02E2E16AE552E16EB7
:10130000E552E7CFD9FF1200D9CFE6FFE1CFD9FFF1
:10131000040EE126010EDB6A080EF36E010EDBCF30
:10132000F4FFF350F45C2EE2010EEA6ADB34FE0BAC
:10133000EA36E96EE40EE926000EEA22020EEECF4E
:10134000DBFF030EEDCFDBFFDF6ADF50006E016ACB
:10135000D890015004E6800E005C000E01580FE2A8
:10136000DF50E76E020EDBCFE9FF030EDBCFEAFFB3
:10137000E750E926000EEA22EF6ADF2AE6D7010EDF
:10138000DB2ACAD70001E06BE16BE26BE36B040E72
:10139000E15C02E2E16AE552E16EE552E7CFD9FF96
:1013A0001200D9CFE6FFE1CFD9FFE652FE0EDBCF28
:1013B000E6FF43EC10F0E552020EE66EF5EC0DF0A0
:1013C000E552E66A0EEC0EF0E552800EE66EFC0E7B
:1013D000DBCFE6FFFD0EDBCFE6FF8BEC12F0E55234
:1013E000E552E552E552E552E7CFD9FF120012006F
:1013F000D9CFE6FFE1CFD9FFE652DF6A080EDF5C06
:1014000015E2EA6ADF34FE0BEA36E96EE40EE926FD
:10141000000EEA22EECFE6FFEFCFE6FFDFCFE6FFDA
:10142000C0DFE552E552E552DF2AE8D7E552E55242
:10143000E7CFD9FF12001200D9CFE6FFE1CFD9FFE5
:10144000FE0EDBCFE6FFCCEC0EF0E552E552E7CF27
:10145000D9FF1200E66A29EC10F0E5521200010EE5
:10146000E66E29EC10F0E5521200D9CFE6FFE1CF8D
:10147000D9FF020EE126CA0EDE6E8A0EDD6EDFCFC8
:1014800000F0DF06010EDBCF01F001E2DB060050C9
:10149000011001E0F4D78998CA0EDE6E8A0EDD6E67
:1014A000DFCF00F0DF06010EDBCF01F001E2DB064B
:1014B0000050011001E0F4D78988020EE15C02E2DD
:1014C000E16AE552E16EE552E7CFD9FF1200D9CFCC
:1014D000E6FFE1CFD9FF030EE126FD0EDB50070B3F
:1014E000006E010E005204E0E846FE0B0006FCE12F
:1014F000E76E020EE7CFDBFFFE0EDB50026E036AE3
:10150000FD0EDB50F80BE842E842E842E96EEA6A79
:10151000D890E936EA36E40EE926000EEA220250B7
:10152000EE24006E0350EE20016E00C0DEFF01C00D
:10153000DDFFFC0EDB5008E0DECFE9FFDDCFEAFF88
:10154000020EDB50EF1209D0020EDB1C006EDECF64
:10155000E9FFDDCFEAFF0050EF16030EE15C02E287
:10156000E16AE552E16EE552E7CFD9FF1200D9CF2B
:10157000E6FFE1CFD9FFFD0EDB50070B036E010E36
:10158000035204E0E846FE0B0306FCE1026EFE0E89
:10159000DB50006E016AFD0EDB50F80BE842E842BA
:1015A000E842E96EEA6AD890E936EA36E40EE926BE
:1015B000000EEA220050EE24E76E0150EE20EA6EA3
:1015C000E7CFE9FFEF50021400D0E552E7CFD9FF93
:1015D0001200D9CFE6FFE1CFD9FF200E006EFE0E3C
:1015E000DB50E76E0018E8AE02D0003403D0E750BD
:1015F000D88000540EE3FE0EDBCF01F07E0EE76EC6
:101600000118E8AE02D0013403D0E750D88001546D
:1016100002E2000E01D0010E00D0E552E7CFD9FF63
:101620001200D9CFE6FFE1CFD9FFFD0EDBCFE9FFF6
:10163000FE0EDBCFEAFFEF500EE0FD0EDBCFE9FF41
:10164000DB2AFE0EDBCFEAFF01E3DB2AEF50E66E7A
:1016500024D8E552EAD7E552E7CFD9FF1200D9CF17
:10166000E6FFE1CFD9FFFD0EDBCFE9FFFE0EDBCFBA
:10167000EAFFEF500EE0FD0EDBCFE9FFDB2AFE0EA6
:10168000DBCFEAFF01E3DB2AEF50E66E74D8E552C8
:10169000EAD7E552E7CFD9FF1200D9CFE6FFE1CF75
:1016A000D9FFFE0EDBCFE6FF94DFE55200091BE019
:1016B0000001E151006E016AD890015004E6800EED
:1016C000005C000E01580EE2E1C0E6FFE0C0E6FF5C
:1016D000FE0EDBCFE6FFC1D8E552E552E552060E1D
:1016E0000001E1273FD0FE0EDB500A0804E0FE0EA9
:1016F000DB500D0827E10001E151006E016AD8902E
:10170000015004E6800E005C000E015818E2E15121
:10171000006E016AE051E96EEA6AD890E936EA366D
:10172000E40EE926000EEA220050EE24E76E015096
:10173000EE20EA6EE7CFE9FFEF6AE12BDCD7E02B82
:10174000E16B10D0FE0EDB5009080CE1200EE66EB6
:10175000A4DFE552200EE66EA0DFE552200EE66E15
:101760009CDFE552080E0001E05D01E3E06BE5520D
:10177000E7CFD9FF1200D9CFE6FFE1CFD9FFFE0EA8
:10178000DBCFE6FF26DFE55200091EE00001E15154
:10179000006E016AD890015004E6800E005C000ED5
:1017A000015811E2070EE05D0EE2E1C0E6FFE0C085
:1017B000E6FFFE0EDBCFE6FFCED8E552E552E5525E
:1017C000060E0001E12740D0FE0EDB500A0804E0BF
:1017D000FE0EDB500D0828E10001E151006E016AA8
:1017E000D890015004E6800E005C000E015818E20B
:1017F000E151006E016AE051E96EEA6AD890E9367B
:10180000EA36E40EE926000EEA220050EE24E76EE6
:101810000150EE20EA6EE7CFE9FFEF6AE12BDCD75B
:10182000020EE027E16B10D0FE0EDB5009080CE140
:10183000200EE66E32DFE552200EE66E2EDFE55218
:10184000200EE66E2ADFE552080E0001E05D01E1A0
:10185000E06BE552E7CFD9FF1200D9CFE6FFE1CF29
:10186000D9FF030EE126200E006EFE0EDBCFE7FF50
:101870000050E75EFE0EE7CFDBFFFC0EDB50026E92
:10188000036AFD0EEA6ADB34FE0BEA36E96EE40E0B
:10189000E926000EEA220250EE24006E0350EE20EC
:1018A000016E00C0DEFF01C0DDFF020EDB6AFC0E30
:1018B000DBCFE6FF020EDB50E552E724006E016A43
:1018C000D890015004E6800E005C000E015834E20E
:1018D000050EF36E020EDBCFF4FFF350F45C2CE246
:1018E000FE0EDBCF00F0016A00BE0168050E0102AA
:1018F000F3CF01F00002F3CF00F0F4500126AE0E5A
:101900000026220E0122020EDB500F010024F66E8B
:10191000000E0120F76E0800F550E66EDFCFE9FFFC
:10192000DF2A010EDBCFEAFF01E3DB2AE552E750B5
:10193000EF6E020EDB2ABBD7DECFE9FFDDCFEAFF79
:10194000EF6A030EE15C02E2E16AE552E16EE55204
:10195000E7CFD9FF1200D9CFE6FFE1CFD9FF050EBF
:10196000E126200E006EFE0EDBCFE7FF0050E75EA3
:10197000FE0EE7CFDBFFFC0EDB50026E036AFD0EAE
:10198000EA6ADB34FE0BEA36E96EE40EE926000E65
:10199000EA220250EE24006E0350EE20016E00C0D9
:1019A000DEFF01C0DDFFFC0EDB50026E036AFD0EA0
:1019B000DB28E96EEA6AD890E936EA36E40EE926D1
:1019C000000EEA220250EE24006E0350EE20016E5B
:1019D000020E00C0DBFF030E01C0DBFF040EDB6A5A
:1019E000FC0EDBCFE6FF040EDB50E552E724006E71
:1019F000016AD890015004E6800E005C000E015888
:101A000069E2050EF36E040EDBCFF4FFF350F45CD5
:101A100061E2FE0EDBCF00F0016A00BE0168050E38
:101A20000102F3CF01F00002F3CF00F0F4500126E1
:101A3000AE0E0026220E0122040EDB500F01002400
:101A4000F66E000E0120F76E0800F550E66EE66AAD
:101A500057D8E552E552E66EDFCFE9FFDF2A010EE7
:101A6000DBCFEAFF01E3DB2AE552E750EF6EFE0E23
:101A7000DBCF00F0016A00BE0168050E0102F3CF62
:101A800001F00002F3CF00F0F4500126AE0E002664
:101A9000220E0122040EDB500F010024F66E000E10
:101AA0000120F76E0800F550E66E010EE66E28D8AC
:101AB000E552E552E66E020EDBCFE9FFDB2A030EAC
:101AC000DBCFEAFF01E3DB2AE552E750EF6E040EBD
:101AD000DB2A86D7DECFE9FFDDCFEAFFEF6A020E11
:101AE000DBCFE9FF030EDBCFEAFFEF6A050EE15C17
:101AF00002E2E16AE552E16EE552E7CFD9FF12005A
:101B0000D9CFE6FFE1CFD9FFE652DF6AFE0EDB5008
:101B100014E0FD0EDBA803D0000EDF80DF82FD0E97
:101B2000DBAA02D0DF84DF86DBAC02D0DF88DF8A6D
:101B3000DBAE02D0DF8CDF8E13D0FD0EDBA003D036
:101B4000000EDF80DF82FD0EDBA202D0DF84DF86A5
:101B5000DBA402D0DF88DF8ADBA602D0DF8CDF8E39
:101B6000DF5000D0E552E552E7CFD9FF1200D9CFC0
:101B7000E6FFE1CFD9FFFE0EDB040FE1070EE66EB4
:101B8000E66AE66A010EE66E28EC0EF0E552E552D2
:101B9000E552E55261EC0EF002D078EC0EF000D088
:101BA000E552E7CFD9FF1200D9CFE6FFE1CFD9FF49
:101BB000FD0EDB50006E016AFE0EEA6ADB34FE0B9E
:101BC000EA36E96EE40EE926000EEA220050EE2421
:101BD000E76E0150EE20EA6EE7CFE9FFFC0EDBCFA7
:0A1BE000EFFFE552E7CFD9FF120036
:061BEA00D9CFE6FFE1CFB8
:101BF000D9FFE652FE0EDB500F0BDF6E010EE66ED4
:101C0000D9CFE6FFDACFE6FF45EC12F0E552E55218
:101C1000E552E552E552E7CFD9FF1200D9CFE6FFF2
:101C2000E1CFD9FFE652FE0EDB500F0B1009DF6E3D
:101C3000010EE66ED9CFE6FFDACFE6FF45EC12F0F3
:101C4000E552E552E552E552E552E7CFD9FF1200E1
:101C5000D9CFE6FFE1CFD9FF050EE126260EDF6ED4
:101C6000FE0EDB50070BE76E010EE7CFDBFFFD0E2C
:101C7000DB50070BE76E020EE7CFDBFFFC0EDB50FD
:101C8000030BE76E030EE7CFDBFFFB0EDB50070B0A
:101C9000E76E040EE7CFDBFF050EE66ED9CFE6FF59
:101CA000DACFE6FF45EC12F0E552E552E552050EBB
:101CB000E15C02E2E16AE552E16EE552E7CFD9FF6D
:101CC0001200D9CFE6FFE1CFD9FFE6522F0EDF6E2B
:101CD000010EE66ED9CFE6FFDACFE6FF45EC12F053
:101CE000E552E552E552E552E552E7CFD9FF120041
:101CF000D9CFE6FFE1CFD9FFE6522E0EDF6E010EFF
:101D0000E66ED9CFE6FFDACFE6FF45EC12F0E552FA
:101D1000E552E552E552E552E7CFD9FF1200D9CF9F
:101D2000E6FFE1CFD9FFE652FE0EDB503F0B400944
:101D3000DF6E010EE66ED9CFE6FFDACFE6FF45ECA7
:101D400012F0E552E552E552E552E552E7CFD9FFF0
:101D50001200D9CFE6FFE1CFD9FF020EE126810EB6
:101D6000DF6EFE0EDB50E76E010EE7CFDBFF020EEB
:101D7000E66ED9CFE6FFDACFE6FF45EC12F0E5528A
:101D8000E552E552020EE15C02E2E16AE552E16EE3
:101D9000E552E7CFD9FF1200D9CFE6FFE1CFD9FF57
:101DA000020EE126820EDF6EFE0EDB50E76E010EA4
:101DB000E7CFDBFF020EE66ED9CFE6FFDACFE6FF14
:101DC00045EC12F0E552E552E552020EE15C02E20A
:101DD000E16AE552E16EE552E7CFD9FF1200D9CFB3
:101DE000E6FFE1CFD9FF050EE126910EDF6EFE0E74
:101DF000DB503F0BE76E010EE7CFDBFFFD0EDB5044
:101E00003F0BE76E020EE7CFDBFFFC0EDB503F0B14
:101E1000E76E030EE7CFDBFFFB0EDB503F0BE76EF9
:101E2000040EE7CFDBFF050EE66ED9CFE6FFDACF73
:101E3000E6FF45EC12F0E552E552E552050EE15C95
:101E400002E2E16AE552E16EE552E7CFD9FF120006
:101E5000D9CFE6FFE1CFD9FF050EE126920EDF6E66
:101E6000FE0EDB50E76E010EE7CFDBFFFD0EDB5011
:101E7000E76E020EE7CFDBFFFC0EDB50E76E030ED2
:101E8000E7CFDBFFFB0EDB50E76E040EE7CFDBFF97
:101E9000050EE66ED9CFE6FFDACFE6FF45EC12F08D
:101EA000E552E552E552050EE15C02E2E16AE552D7
:101EB000E16EE552E7CFD9FF1200D9CFE6FFE1CFBF
:101EC000D9FF050EE126930EDF6EFE0EDB50E76EA6
:101ED000010EE7CFDBFFFD0EDB50E76E020EE7CF12
:101EE000DBFFFC0EDB50E76E030EE7CFDBFFFB0EE4
:101EF000DB50E76E040EE7CFDBFF050EE66ED9CFB1
:101F0000E6FFDACFE6FF45EC12F0E552E552E55286
:101F1000050EE15C02E2E16AE552E16EE552E7CFCF
:101F2000D9FF1200D9CFE6FFE1CFD9FFE652FE0E6E
:101F3000DB50010BA009DF6E010EE66ED9CFE6FF84
:101F4000DACFE6FF45EC12F0E552E552E552E552F4
:101F5000E552E7CFD9FF1200D9CFE6FFE1CFD9FF95
:101F6000E652FE0EDB50010BA409DF6E010EE66E99
:101F7000D9CFE6FFDACFE6FF45EC12F0E552E552A5
:101F8000E552E552E552E7CFD9FF1200D9CFE6FF7F
:101F9000E1CFD9FFE652FE0EDB50010BA609DF6E42
:101FA000010EE66ED9CFE6FFDACFE6FF45EC12F080
:101FB000E552E552E552E552E552E7CFD9FF12006E
:101FC000D9CFE6FFE1CFD9FF020EE126A80EDF6EE2
:101FD000FE0EDB503F0BE76E010EE7CFDBFF020E7C
:101FE000E66ED9CFE6FFDACFE6FF45EC12F0E55218
:101FF000E552E552020EE15C02E2E16AE552E16E71
:10200000E552E7CFD9FF1200D9CFE6FFE1CFD9FFE4
:10201000020EE126AD0EDF6EFE0EDB50010B8A09CB
:10202000E76E010EE7CFDBFF020EE66ED9CFE6FFCB
:10203000DACFE6FF45EC12F0E552E552E552020E2A
:10204000E15C02E2E16AE552E16EE552E7CFD9FFD9
:102050001200D9CFE6FFE1CFD9FFE652FE0EDB50EA
:10206000010BAE09DF6E010EE66ED9CFE6FFDACFC7
:10207000E6FF45EC12F0E552E552E552E552E55235
:10208000E7CFD9FF1200D9CFE6FFE1CFD9FFE65263
:10209000FE0EDB500F0BB009DF6E010EE66ED9CFDE
:1020A000E6FFDACFE6FF45EC12F0E552E552E552E5
:1020B000E552E552E7CFD9FF1200D9CFE6FFE1CFD5
:1020C000D9FFE652C00EDF6EFE0EDB5002E0C80EF6
:1020D000DF6E010EE66ED9CFE6FFDACFE6FF45EC04
:1020E00012F0E552E552E552E552E552E7CFD9FF4D
:1020F0001200D9CFE6FFE1CFD9FF020EE126D30EC1
:10210000DF6EFE0EDB503F0BE76E010EE7CFDBFF0D
:10211000020EE66ED9CFE6FFDACFE6FF45EC12F00D
:10212000E552E552E552020EE15C02E2E16AE55257
:10213000E16EE552E7CFD9FF1200D9CFE6FFE1CF3C
:10214000D9FF020EE126D50EDF6EFE0EDB50E76EE4
:10215000010EE7CFDBFF020EE66ED9CFE6FFDACF46
:10216000E6FF45EC12F0E552E552E552020EE15C65
:1021700002E2E16AE552E16EE552E7CFD9FF1200D3
:10218000D9CFE6FFE1CFD9FF020EE126D80EDF6EF0
:10219000010EDB6AFE0EDB5003E0010EDB88DB8AFA
:1021A000FD0EDB5003E0010EDB80DB84020EE66EE9
:1021B000D9CFE6FFDACFE6FF45EC12F0E552E55263
:1021C000E552020EE15C02E2E16AE552E16EE5529F
:1021D000E7CFD9FF1200D9CFE6FFE1CFD9FF020E3A
:1021E000E126D90EDF6EFE0EDB50E76E010EE7CF63
:1021F000DBFF020EE66ED9CFE6FFDACFE6FF45EC55
:1022000012F0E552E552E552020EE15C02E2E16AAB
:10221000E552E16EE552E7CFD9FF1200D9CFE6FFD4
:10222000E1CFD9FF020EE126DA0EDF6EDE52020E9A
:10223000DD6EFE0EDB5002E0010EDB88020EE66E64
:10224000D9CFE6FFDACFE6FF45EC12F0E552E552D2
:10225000E552020EE15C02E2E16AE552E16EE5520E
:10226000E7CFD9FF1200D9CFE6FFE1CFD9FF020EA9
:10227000E126DB0EDF6EFE0EDB507F0BE76E010EFC
:10228000E7CFDBFF020EE66ED9CFE6FFDACFE6FF3F
:1022900045EC12F0E552E552E552020EE15C02E235
:0E22A000E16AE552E16EE552E7CFD9FF120088
:0222AE0000002E
:1022B00000000000004F00000007000700147F141A
:1022C0007F14242A7F2A1223130864623649552278
:1022D000500005030000001C2241000041221C00A8
:1022E00014083E081408083E080800503000000892
:1022F00008080808006060000020100804023E5131
:1023000049453E00427F40004261514946214145D6
:102310004B311814127F1027454545393C4A49492D
:102320003001710905033649494936064949291ED4
:102330000036360000005636000008142241001412
:1023400014141414004122140802015109063249E0
:1023500079413E7E1111117E7F494949363E414106
:1023600041227F4141221C7F494949417F09090996
:10237000013E4149497A7F0808087F00417F4100BA
:102380002040413F017F081422417F404040407F70
:10239000020C027F7F0408107F3E4141413E7F09CD
:1023A0000909063E4151215E7F09192946464949DE
:1023B000493101017F01013F4040403F1F20402043
:1023C0001F3F4038403F6314081463070870080734
:1023D0006151494543007F4141000204081020003B
:1023E00041417F000402010204404040404000019E
:1023F00002040020545454787F48444438384444FC
:102400004420384444487F3854545418087E090105
:10241000020C5252523E7F0804047800447D400072
:102420002040443D007F1028440000417F40007C54
:10243000041804787C0804047838444444387C1434
:10244000141408081414187C7C0804040848545414
:102450005420043F4440203C4040207C1C2040202D
:102460001C3C4030403C44281028440C5050503C08
:102470004464544C44000836410000007F000000D2
:09248000413608000201020402C9
:06248A00D9CFE6FFE1CF0F
:10249000D9FFE652899E899ADF6AFC0EDB50DF5C29
:1024A0000FE2FD0EDBCFE9FFDB2AFE0EDBCFEAFFFA
:1024B00001E3DB2AEF50E66E76D8E552DF2AEDD74E
:1024C000E30EE66E70D8E55200000000898EE552FA
:1024D000E552E7CFD9FF1200D9CFE6FFE1CFD9FF10
:1024E000E652899E899ADF6AFD0EDB50DF5C07E2C7
:1024F000FE0EDBCFE6FF57D8E552DF2AF5D7E30E15
:10250000E66E51D8E55200000000898EE552E55292
:10251000E7CFD9FF1200D9CFE6FFE1CFD9FFE652CE
:10252000899E898ADF6AFC0EDB50DF5C0FE2FD0EBC
:10253000DBCFE9FFDB2AFE0EDBCFEAFF01E3DB2A7C
:10254000EF50E66E30D8E552DF2AEDD7899AE30ED8
:10255000E66E29D8E55200000000898EE552E5526A
:10256000E7CFD9FF1200D9CFE6FFE1CFD9FFE6527E
:10257000899E898ADF6AFD0EDB50DF5C07E2FE0E72
:10258000DBCFE6FF10D8E552DF2AF5D7899AE30EB4
:10259000E66E09D8E55200000000898EE552E5524A
:1025A000E7CFD9FF1200D9CFE6FFE1CFD9FFE6523E
:1025B000C950DF6E9E96FE0EDB50C96E9EA6FED7FA
:1025C000C950DF6E9E96E552E552E7CFD9FF120063
:1025D000D9CFE6FFE1CFD9FFE552E7CFD9FF12000F
:1025E000D9CFE6FFE1CFD9FFE552E7CFD9FF1200FF
:0625F000000E00D01200F5
:0A25F6002A0EF66E000EF76E000EBE
:10260000F86E00010900F550F96F0900F550FA6FF6
:1026100003E1F96701D03DD00900F550F46F0900DE
:10262000F550F56F0900F550F66F09000900F550F7
:10263000E96E0900F550EA6E090009000900F5503D
:10264000F76F0900F550F86F09000900F6CFFBF0AD
:10265000F7CFFCF0F8CFFDF0F4C0F6FFF5C0F7FFC0
:10266000F6C0F8FF0001F75302E1F85307E0090054
:10267000F550EE6EF707F8E2F807F9D7FBC0F6FF62
:10268000FCC0F7FFFDC0F8FF0001F907000EFA5B80
:04269000BFD712009E
:0C2694001EEE00F02EEE00F0F86A059C2F
:1026A000FBEC12F05FEC13F035EC00F0FBD71200FE
:0E26B00000EE00F00F0EEE6AEA62FDD7120097
:0226BE00120008
:1026C000000480030003800200028001000160001A
:0826D000402002FF2020000061
:020000040030CA
:0100010008F6
:0100020019E4
:010003001EDE
:010005008872
:010006008079
:010008000FE8
:01000900C036
:01000A000FE6
:01000B00E014
:01000C000FE4
:01000D0040B2
:00000001FF
